{
  "contractName": "ERC1820Implementer",
  "abi": [
    {
      "inputs": [
        {
          "internalType": "bytes32",
          "name": "interfaceHash",
          "type": "bytes32"
        },
        {
          "internalType": "address",
          "name": "account",
          "type": "address"
        }
      ],
      "name": "canImplementInterfaceForAddress",
      "outputs": [
        {
          "internalType": "bytes32",
          "name": "",
          "type": "bytes32"
        }
      ],
      "stateMutability": "view",
      "type": "function"
    }
  ],
  "bytecode": "0x608060405234801561001057600080fd5b50610226806100206000396000f3fe608060405234801561001057600080fd5b506004361061002b5760003560e01c8063249cb3fa14610030575b600080fd5b61004a60048036038101906100459190610120565b610060565b604051610057919061016b565b60405180910390f35b600080600084815260200190815260200160002060008373ffffffffffffffffffffffffffffffffffffffff1673ffffffffffffffffffffffffffffffffffffffff16815260200190815260200160002060009054906101000a900460ff166100cc576000801b6100ee565b7fa2ef4600d742022d532d4747cb3547474667d6f13804902513b2ec01c848f4b45b905092915050565b600081359050610105816101c2565b92915050565b60008135905061011a816101d9565b92915050565b6000806040838503121561013357600080fd5b60006101418582860161010b565b9250506020610152858286016100f6565b9150509250929050565b61016581610198565b82525050565b6000602082019050610180600083018461015c565b92915050565b6000610191826101a2565b9050919050565b6000819050919050565b600073ffffffffffffffffffffffffffffffffffffffff82169050919050565b6101cb81610186565b81146101d657600080fd5b50565b6101e281610198565b81146101ed57600080fd5b5056fea2646970667358221220a8d269b7f31adfbb2ea38d08da03af28f02327801e76b08cd70c9ae2aea8fae364736f6c63430008040033",
  "immutableReferences": {},
  "source": "// SPDX-License-Identifier: MIT\r\n\r\npragma solidity ^0.8.0;\r\n\r\nimport \"./IERC1820Implementer.sol\";\r\n\r\n/**\r\n * @dev Implementation of the {IERC1820Implementer} interface.\r\n *\r\n * Contracts may inherit from this and call {_registerInterfaceForAddress} to\r\n * declare their willingness to be implementers.\r\n * {IERC1820Registry-setInterfaceImplementer} should then be called for the\r\n * registration to be complete.\r\n */\r\ncontract ERC1820Implementer is IERC1820Implementer {\r\n    bytes32 private constant _ERC1820_ACCEPT_MAGIC = keccak256(\"ERC1820_ACCEPT_MAGIC\");\r\n\r\n    mapping(bytes32 => mapping(address => bool)) private _supportedInterfaces;\r\n\r\n    /**\r\n     * @dev See {IERC1820Implementer-canImplementInterfaceForAddress}.\r\n     */\r\n    function canImplementInterfaceForAddress(bytes32 interfaceHash, address account) public view virtual override returns (bytes32) {\r\n        return _supportedInterfaces[interfaceHash][account] ? _ERC1820_ACCEPT_MAGIC : bytes32(0x00);\r\n    }\r\n\r\n    /**\r\n     * @dev Declares the contract as willing to be an implementer of\r\n     * `interfaceHash` for `account`.\r\n     *\r\n     * See {IERC1820Registry-setInterfaceImplementer} and\r\n     * {IERC1820Registry-interfaceHash}.\r\n     */\r\n    function _registerInterfaceForAddress(bytes32 interfaceHash, address account) internal virtual {\r\n        _supportedInterfaces[interfaceHash][account] = true;\r\n    }\r\n}\r\n",
  "sourcePath": "D:/00_TauDefi/github/taudefi-nft/contracts/lib/utils/introspection/ERC1820Implementer.sol",
  "compiler": {
    "name": "solc",
    "version": "0.8.4+commit.c7e474f2.Emscripten.clang"
  },
  "schemaVersion": "3.4.1",
  "updatedAt": "2021-07-11T01:47:46.978Z",
  "devdoc": {
    "details": "Implementation of the {IERC1820Implementer} interface. Contracts may inherit from this and call {_registerInterfaceForAddress} to declare their willingness to be implementers. {IERC1820Registry-setInterfaceImplementer} should then be called for the registration to be complete.",
    "kind": "dev",
    "methods": {
      "canImplementInterfaceForAddress(bytes32,address)": {
        "details": "See {IERC1820Implementer-canImplementInterfaceForAddress}."
      }
    },
    "version": 1
  },
  "userdoc": {
    "kind": "user",
    "methods": {},
    "version": 1
  }
}