{
  "contractName": "ERC1155PresetMinterPauser",
  "abi": [
    {
      "inputs": [
        {
          "internalType": "string",
          "name": "uri",
          "type": "string"
        }
      ],
      "stateMutability": "nonpayable",
      "type": "constructor"
    },
    {
      "anonymous": false,
      "inputs": [
        {
          "indexed": true,
          "internalType": "address",
          "name": "account",
          "type": "address"
        },
        {
          "indexed": true,
          "internalType": "address",
          "name": "operator",
          "type": "address"
        },
        {
          "indexed": false,
          "internalType": "bool",
          "name": "approved",
          "type": "bool"
        }
      ],
      "name": "ApprovalForAll",
      "type": "event"
    },
    {
      "anonymous": false,
      "inputs": [
        {
          "indexed": false,
          "internalType": "address",
          "name": "account",
          "type": "address"
        }
      ],
      "name": "Paused",
      "type": "event"
    },
    {
      "anonymous": false,
      "inputs": [
        {
          "indexed": true,
          "internalType": "bytes32",
          "name": "role",
          "type": "bytes32"
        },
        {
          "indexed": true,
          "internalType": "bytes32",
          "name": "previousAdminRole",
          "type": "bytes32"
        },
        {
          "indexed": true,
          "internalType": "bytes32",
          "name": "newAdminRole",
          "type": "bytes32"
        }
      ],
      "name": "RoleAdminChanged",
      "type": "event"
    },
    {
      "anonymous": false,
      "inputs": [
        {
          "indexed": true,
          "internalType": "bytes32",
          "name": "role",
          "type": "bytes32"
        },
        {
          "indexed": true,
          "internalType": "address",
          "name": "account",
          "type": "address"
        },
        {
          "indexed": true,
          "internalType": "address",
          "name": "sender",
          "type": "address"
        }
      ],
      "name": "RoleGranted",
      "type": "event"
    },
    {
      "anonymous": false,
      "inputs": [
        {
          "indexed": true,
          "internalType": "bytes32",
          "name": "role",
          "type": "bytes32"
        },
        {
          "indexed": true,
          "internalType": "address",
          "name": "account",
          "type": "address"
        },
        {
          "indexed": true,
          "internalType": "address",
          "name": "sender",
          "type": "address"
        }
      ],
      "name": "RoleRevoked",
      "type": "event"
    },
    {
      "anonymous": false,
      "inputs": [
        {
          "indexed": true,
          "internalType": "address",
          "name": "operator",
          "type": "address"
        },
        {
          "indexed": true,
          "internalType": "address",
          "name": "from",
          "type": "address"
        },
        {
          "indexed": true,
          "internalType": "address",
          "name": "to",
          "type": "address"
        },
        {
          "indexed": false,
          "internalType": "uint256[]",
          "name": "ids",
          "type": "uint256[]"
        },
        {
          "indexed": false,
          "internalType": "uint256[]",
          "name": "values",
          "type": "uint256[]"
        }
      ],
      "name": "TransferBatch",
      "type": "event"
    },
    {
      "anonymous": false,
      "inputs": [
        {
          "indexed": true,
          "internalType": "address",
          "name": "operator",
          "type": "address"
        },
        {
          "indexed": true,
          "internalType": "address",
          "name": "from",
          "type": "address"
        },
        {
          "indexed": true,
          "internalType": "address",
          "name": "to",
          "type": "address"
        },
        {
          "indexed": false,
          "internalType": "uint256",
          "name": "id",
          "type": "uint256"
        },
        {
          "indexed": false,
          "internalType": "uint256",
          "name": "value",
          "type": "uint256"
        }
      ],
      "name": "TransferSingle",
      "type": "event"
    },
    {
      "anonymous": false,
      "inputs": [
        {
          "indexed": false,
          "internalType": "string",
          "name": "value",
          "type": "string"
        },
        {
          "indexed": true,
          "internalType": "uint256",
          "name": "id",
          "type": "uint256"
        }
      ],
      "name": "URI",
      "type": "event"
    },
    {
      "anonymous": false,
      "inputs": [
        {
          "indexed": false,
          "internalType": "address",
          "name": "account",
          "type": "address"
        }
      ],
      "name": "Unpaused",
      "type": "event"
    },
    {
      "inputs": [],
      "name": "DEFAULT_ADMIN_ROLE",
      "outputs": [
        {
          "internalType": "bytes32",
          "name": "",
          "type": "bytes32"
        }
      ],
      "stateMutability": "view",
      "type": "function"
    },
    {
      "inputs": [],
      "name": "MINTER_ROLE",
      "outputs": [
        {
          "internalType": "bytes32",
          "name": "",
          "type": "bytes32"
        }
      ],
      "stateMutability": "view",
      "type": "function"
    },
    {
      "inputs": [],
      "name": "PAUSER_ROLE",
      "outputs": [
        {
          "internalType": "bytes32",
          "name": "",
          "type": "bytes32"
        }
      ],
      "stateMutability": "view",
      "type": "function"
    },
    {
      "inputs": [
        {
          "internalType": "address",
          "name": "account",
          "type": "address"
        },
        {
          "internalType": "uint256",
          "name": "id",
          "type": "uint256"
        }
      ],
      "name": "balanceOf",
      "outputs": [
        {
          "internalType": "uint256",
          "name": "",
          "type": "uint256"
        }
      ],
      "stateMutability": "view",
      "type": "function"
    },
    {
      "inputs": [
        {
          "internalType": "address[]",
          "name": "accounts",
          "type": "address[]"
        },
        {
          "internalType": "uint256[]",
          "name": "ids",
          "type": "uint256[]"
        }
      ],
      "name": "balanceOfBatch",
      "outputs": [
        {
          "internalType": "uint256[]",
          "name": "",
          "type": "uint256[]"
        }
      ],
      "stateMutability": "view",
      "type": "function"
    },
    {
      "inputs": [
        {
          "internalType": "address",
          "name": "account",
          "type": "address"
        },
        {
          "internalType": "uint256",
          "name": "id",
          "type": "uint256"
        },
        {
          "internalType": "uint256",
          "name": "value",
          "type": "uint256"
        }
      ],
      "name": "burn",
      "outputs": [],
      "stateMutability": "nonpayable",
      "type": "function"
    },
    {
      "inputs": [
        {
          "internalType": "address",
          "name": "account",
          "type": "address"
        },
        {
          "internalType": "uint256[]",
          "name": "ids",
          "type": "uint256[]"
        },
        {
          "internalType": "uint256[]",
          "name": "values",
          "type": "uint256[]"
        }
      ],
      "name": "burnBatch",
      "outputs": [],
      "stateMutability": "nonpayable",
      "type": "function"
    },
    {
      "inputs": [
        {
          "internalType": "bytes32",
          "name": "role",
          "type": "bytes32"
        }
      ],
      "name": "getRoleAdmin",
      "outputs": [
        {
          "internalType": "bytes32",
          "name": "",
          "type": "bytes32"
        }
      ],
      "stateMutability": "view",
      "type": "function"
    },
    {
      "inputs": [
        {
          "internalType": "bytes32",
          "name": "role",
          "type": "bytes32"
        },
        {
          "internalType": "uint256",
          "name": "index",
          "type": "uint256"
        }
      ],
      "name": "getRoleMember",
      "outputs": [
        {
          "internalType": "address",
          "name": "",
          "type": "address"
        }
      ],
      "stateMutability": "view",
      "type": "function"
    },
    {
      "inputs": [
        {
          "internalType": "bytes32",
          "name": "role",
          "type": "bytes32"
        }
      ],
      "name": "getRoleMemberCount",
      "outputs": [
        {
          "internalType": "uint256",
          "name": "",
          "type": "uint256"
        }
      ],
      "stateMutability": "view",
      "type": "function"
    },
    {
      "inputs": [
        {
          "internalType": "bytes32",
          "name": "role",
          "type": "bytes32"
        },
        {
          "internalType": "address",
          "name": "account",
          "type": "address"
        }
      ],
      "name": "grantRole",
      "outputs": [],
      "stateMutability": "nonpayable",
      "type": "function"
    },
    {
      "inputs": [
        {
          "internalType": "bytes32",
          "name": "role",
          "type": "bytes32"
        },
        {
          "internalType": "address",
          "name": "account",
          "type": "address"
        }
      ],
      "name": "hasRole",
      "outputs": [
        {
          "internalType": "bool",
          "name": "",
          "type": "bool"
        }
      ],
      "stateMutability": "view",
      "type": "function"
    },
    {
      "inputs": [
        {
          "internalType": "address",
          "name": "account",
          "type": "address"
        },
        {
          "internalType": "address",
          "name": "operator",
          "type": "address"
        }
      ],
      "name": "isApprovedForAll",
      "outputs": [
        {
          "internalType": "bool",
          "name": "",
          "type": "bool"
        }
      ],
      "stateMutability": "view",
      "type": "function"
    },
    {
      "inputs": [],
      "name": "paused",
      "outputs": [
        {
          "internalType": "bool",
          "name": "",
          "type": "bool"
        }
      ],
      "stateMutability": "view",
      "type": "function"
    },
    {
      "inputs": [
        {
          "internalType": "bytes32",
          "name": "role",
          "type": "bytes32"
        },
        {
          "internalType": "address",
          "name": "account",
          "type": "address"
        }
      ],
      "name": "renounceRole",
      "outputs": [],
      "stateMutability": "nonpayable",
      "type": "function"
    },
    {
      "inputs": [
        {
          "internalType": "bytes32",
          "name": "role",
          "type": "bytes32"
        },
        {
          "internalType": "address",
          "name": "account",
          "type": "address"
        }
      ],
      "name": "revokeRole",
      "outputs": [],
      "stateMutability": "nonpayable",
      "type": "function"
    },
    {
      "inputs": [
        {
          "internalType": "address",
          "name": "from",
          "type": "address"
        },
        {
          "internalType": "address",
          "name": "to",
          "type": "address"
        },
        {
          "internalType": "uint256[]",
          "name": "ids",
          "type": "uint256[]"
        },
        {
          "internalType": "uint256[]",
          "name": "amounts",
          "type": "uint256[]"
        },
        {
          "internalType": "bytes",
          "name": "data",
          "type": "bytes"
        }
      ],
      "name": "safeBatchTransferFrom",
      "outputs": [],
      "stateMutability": "nonpayable",
      "type": "function"
    },
    {
      "inputs": [
        {
          "internalType": "address",
          "name": "from",
          "type": "address"
        },
        {
          "internalType": "address",
          "name": "to",
          "type": "address"
        },
        {
          "internalType": "uint256",
          "name": "id",
          "type": "uint256"
        },
        {
          "internalType": "uint256",
          "name": "amount",
          "type": "uint256"
        },
        {
          "internalType": "bytes",
          "name": "data",
          "type": "bytes"
        }
      ],
      "name": "safeTransferFrom",
      "outputs": [],
      "stateMutability": "nonpayable",
      "type": "function"
    },
    {
      "inputs": [
        {
          "internalType": "address",
          "name": "operator",
          "type": "address"
        },
        {
          "internalType": "bool",
          "name": "approved",
          "type": "bool"
        }
      ],
      "name": "setApprovalForAll",
      "outputs": [],
      "stateMutability": "nonpayable",
      "type": "function"
    },
    {
      "inputs": [
        {
          "internalType": "uint256",
          "name": "",
          "type": "uint256"
        }
      ],
      "name": "uri",
      "outputs": [
        {
          "internalType": "string",
          "name": "",
          "type": "string"
        }
      ],
      "stateMutability": "view",
      "type": "function"
    },
    {
      "inputs": [
        {
          "internalType": "address",
          "name": "to",
          "type": "address"
        },
        {
          "internalType": "uint256",
          "name": "id",
          "type": "uint256"
        },
        {
          "internalType": "uint256",
          "name": "amount",
          "type": "uint256"
        },
        {
          "internalType": "bytes",
          "name": "data",
          "type": "bytes"
        }
      ],
      "name": "mint",
      "outputs": [],
      "stateMutability": "nonpayable",
      "type": "function"
    },
    {
      "inputs": [
        {
          "internalType": "address",
          "name": "to",
          "type": "address"
        },
        {
          "internalType": "uint256[]",
          "name": "ids",
          "type": "uint256[]"
        },
        {
          "internalType": "uint256[]",
          "name": "amounts",
          "type": "uint256[]"
        },
        {
          "internalType": "bytes",
          "name": "data",
          "type": "bytes"
        }
      ],
      "name": "mintBatch",
      "outputs": [],
      "stateMutability": "nonpayable",
      "type": "function"
    },
    {
      "inputs": [],
      "name": "pause",
      "outputs": [],
      "stateMutability": "nonpayable",
      "type": "function"
    },
    {
      "inputs": [],
      "name": "unpause",
      "outputs": [],
      "stateMutability": "nonpayable",
      "type": "function"
    },
    {
      "inputs": [
        {
          "internalType": "bytes4",
          "name": "interfaceId",
          "type": "bytes4"
        }
      ],
      "name": "supportsInterface",
      "outputs": [
        {
          "internalType": "bool",
          "name": "",
          "type": "bool"
        }
      ],
      "stateMutability": "view",
      "type": "function"
    }
  ],
  "bytecode": "0x60806040523480156200001157600080fd5b506040516200559a3803806200559a8339818101604052810190620000379190620004e6565b8062000049816200011260201b60201c565b506000600560006101000a81548160ff021916908315150217905550620000896000801b6200007d6200012e60201b60201c565b6200013660201b60201c565b620000ca7f9f2df0fed2c77648de5860a4cc508cd0818c85b8b8a1ab4ceeef8d981c8956a6620000be6200012e60201b60201c565b6200013660201b60201c565b6200010b7f65d7a28e3265b37a6474929f336521b332c1681b933f6cb9f3376673440d862a620000ff6200012e60201b60201c565b6200013660201b60201c565b506200069b565b80600490805190602001906200012a929190620003c4565b5050565b600033905090565b6200014d82826200017e60201b620016251760201c565b6200017981600160008581526020019081526020016000206200019460201b620016331790919060201c565b505050565b620001908282620001cc60201b60201c565b5050565b6000620001c4836000018373ffffffffffffffffffffffffffffffffffffffff1660001b620002bd60201b60201c565b905092915050565b620001de82826200033760201b60201c565b620002b957600160008084815260200190815260200160002060000160008373ffffffffffffffffffffffffffffffffffffffff1673ffffffffffffffffffffffffffffffffffffffff16815260200190815260200160002060006101000a81548160ff0219169083151502179055506200025e6200012e60201b60201c565b73ffffffffffffffffffffffffffffffffffffffff168173ffffffffffffffffffffffffffffffffffffffff16837f2f8788117e7eff1d82e926ec794901d17c78024a50270940304540a733656f0d60405160405180910390a45b5050565b6000620002d18383620003a160201b60201c565b6200032c57826000018290806001815401808255809150506001900390600052602060002001600090919091909150558260000180549050836001016000848152602001908152602001600020819055506001905062000331565b600090505b92915050565b600080600084815260200190815260200160002060000160008373ffffffffffffffffffffffffffffffffffffffff1673ffffffffffffffffffffffffffffffffffffffff16815260200190815260200160002060009054906101000a900460ff16905092915050565b600080836001016000848152602001908152602001600020541415905092915050565b828054620003d290620005c0565b90600052602060002090601f016020900481019282620003f6576000855562000442565b82601f106200041157805160ff191683800117855562000442565b8280016001018555821562000442579182015b828111156200044157825182559160200191906001019062000424565b5b50905062000451919062000455565b5090565b5b808211156200047057600081600090555060010162000456565b5090565b60006200048b620004858462000554565b6200052b565b905082815260208101848484011115620004a457600080fd5b620004b18482856200058a565b509392505050565b600082601f830112620004cb57600080fd5b8151620004dd84826020860162000474565b91505092915050565b600060208284031215620004f957600080fd5b600082015167ffffffffffffffff8111156200051457600080fd5b6200052284828501620004b9565b91505092915050565b6000620005376200054a565b9050620005458282620005f6565b919050565b6000604051905090565b600067ffffffffffffffff8211156200057257620005716200065b565b5b6200057d826200068a565b9050602081019050919050565b60005b83811015620005aa5780820151818401526020810190506200058d565b83811115620005ba576000848401525b50505050565b60006002820490506001821680620005d957607f821691505b60208210811415620005f057620005ef6200062c565b5b50919050565b62000601826200068a565b810181811067ffffffffffffffff821117156200062357620006226200065b565b5b80604052505050565b7f4e487b7100000000000000000000000000000000000000000000000000000000600052602260045260246000fd5b7f4e487b7100000000000000000000000000000000000000000000000000000000600052604160045260246000fd5b6000601f19601f8301169050919050565b614eef80620006ab6000396000f3fe608060405234801561001057600080fd5b50600436106101725760003560e01c8063731133e9116100de578063ca15c87311610097578063e63ab1e911610071578063e63ab1e914610445578063e985e9c514610463578063f242432a14610493578063f5298aca146104af57610172565b8063ca15c873146103db578063d53913931461040b578063d547741f1461042957610172565b8063731133e91461031b5780638456cb59146103375780639010d07c1461034157806391d1485414610371578063a217fddf146103a1578063a22cb465146103bf57610172565b80632f2ff15d116101305780632f2ff15d1461026f57806336568abe1461028b5780633f4ba83a146102a75780634e1273f4146102b15780635c975abb146102e15780636b20c454146102ff57610172565b8062fdd58e1461017757806301ffc9a7146101a75780630e89341c146101d75780631f7fdffa14610207578063248a9ca3146102235780632eb2c2d614610253575b600080fd5b610191600480360381019061018c919061368f565b6104cb565b60405161019e9190614251565b60405180910390f35b6101c160048036038101906101bc91906138a2565b610595565b6040516101ce9190613f39565b60405180910390f35b6101f160048036038101906101ec91906138f4565b6105a7565b6040516101fe9190613f6f565b60405180910390f35b610221600480360381019061021c91906135a8565b61063b565b005b61023d60048036038101906102389190613801565b6106bd565b60405161024a9190613f54565b60405180910390f35b61026d600480360381019061026891906133db565b6106dc565b005b6102896004803603810190610284919061382a565b610ad5565b005b6102a560048036038101906102a0919061382a565b610b09565b005b6102af610b3d565b005b6102cb60048036038101906102c69190613795565b610bb7565b6040516102d89190613ee0565b60405180910390f35b6102e9610d68565b6040516102f69190613f39565b60405180910390f35b61031960048036038101906103149190613529565b610d7f565b005b6103356004803603810190610330919061371a565b610e1c565b005b61033f610e9e565b005b61035b60048036038101906103569190613866565b610f18565b6040516103689190613e03565b60405180910390f35b61038b6004803603810190610386919061382a565b610f47565b6040516103989190613f39565b60405180910390f35b6103a9610fb1565b6040516103b69190613f54565b60405180910390f35b6103d960048036038101906103d49190613653565b610fb8565b005b6103f560048036038101906103f09190613801565b611139565b6040516104029190614251565b60405180910390f35b61041361115d565b6040516104209190613f54565b60405180910390f35b610443600480360381019061043e919061382a565b611181565b005b61044d6111b5565b60405161045a9190613f54565b60405180910390f35b61047d6004803603810190610478919061339f565b6111d9565b60405161048a9190613f39565b60405180910390f35b6104ad60048036038101906104a8919061349a565b61126d565b005b6104c960048036038101906104c491906136cb565b611588565b005b60008073ffffffffffffffffffffffffffffffffffffffff168373ffffffffffffffffffffffffffffffffffffffff16141561053c576040517f08c379a000000000000000000000000000000000000000000000000000000000815260040161053390614031565b60405180910390fd5b6002600083815260200190815260200160002060008473ffffffffffffffffffffffffffffffffffffffff1673ffffffffffffffffffffffffffffffffffffffff16815260200190815260200160002054905092915050565b60006105a082611663565b9050919050565b6060600480546105b69061458d565b80601f01602080910402602001604051908101604052809291908181526020018280546105e29061458d565b801561062f5780601f106106045761010080835404028352916020019161062f565b820191906000526020600020905b81548152906001019060200180831161061257829003601f168201915b50505050509050919050565b61066c7f9f2df0fed2c77648de5860a4cc508cd0818c85b8b8a1ab4ceeef8d981c8956a6610667611745565b610f47565b6106ab576040517f08c379a00000000000000000000000000000000000000000000000000000000081526004016106a290614131565b60405180910390fd5b6106b78484848461174d565b50505050565b6000806000838152602001908152602001600020600101549050919050565b8151835114610720576040517f08c379a0000000000000000000000000000000000000000000000000000000008152600401610717906141f1565b60405180910390fd5b600073ffffffffffffffffffffffffffffffffffffffff168473ffffffffffffffffffffffffffffffffffffffff161415610790576040517f08c379a0000000000000000000000000000000000000000000000000000000008152600401610787906140d1565b60405180910390fd5b610798611745565b73ffffffffffffffffffffffffffffffffffffffff168573ffffffffffffffffffffffffffffffffffffffff1614806107de57506107dd856107d8611745565b6111d9565b5b61081d576040517f08c379a0000000000000000000000000000000000000000000000000000000008152600401610814906140f1565b60405180910390fd5b6000610827611745565b90506108378187878787876119b8565b60005b8451811015610a4057600085828151811061087e577f4e487b7100000000000000000000000000000000000000000000000000000000600052603260045260246000fd5b6020026020010151905060008583815181106108c3577f4e487b7100000000000000000000000000000000000000000000000000000000600052603260045260246000fd5b6020026020010151905060006002600084815260200190815260200160002060008b73ffffffffffffffffffffffffffffffffffffffff1673ffffffffffffffffffffffffffffffffffffffff16815260200190815260200160002054905081811015610965576040517f08c379a000000000000000000000000000000000000000000000000000000000815260040161095c90614151565b60405180910390fd5b8181610971919061446f565b6002600085815260200190815260200160002060008c73ffffffffffffffffffffffffffffffffffffffff1673ffffffffffffffffffffffffffffffffffffffff16815260200190815260200160002081905550816002600085815260200190815260200160002060008b73ffffffffffffffffffffffffffffffffffffffff1673ffffffffffffffffffffffffffffffffffffffff1681526020019081526020016000206000828254610a2591906143bf565b9250508190555050505080610a39906145f0565b905061083a565b508473ffffffffffffffffffffffffffffffffffffffff168673ffffffffffffffffffffffffffffffffffffffff168273ffffffffffffffffffffffffffffffffffffffff167f4a39dc06d4c0dbc64b70af90fd698a233a518aa5d07e595d983b8c0526c8f7fb8787604051610ab7929190613f02565b60405180910390a4610acd8187878787876119ce565b505050505050565b610adf8282611bb5565b610b04816001600085815260200190815260200160002061163390919063ffffffff16565b505050565b610b138282611bde565b610b388160016000858152602001908152602001600020611c6190919063ffffffff16565b505050565b610b6e7f65d7a28e3265b37a6474929f336521b332c1681b933f6cb9f3376673440d862a610b69611745565b610f47565b610bad576040517f08c379a0000000000000000000000000000000000000000000000000000000008152600401610ba490614171565b60405180910390fd5b610bb5611c91565b565b60608151835114610bfd576040517f08c379a0000000000000000000000000000000000000000000000000000000008152600401610bf4906141d1565b60405180910390fd5b6000835167ffffffffffffffff811115610c40577f4e487b7100000000000000000000000000000000000000000000000000000000600052604160045260246000fd5b604051908082528060200260200182016040528015610c6e5781602001602082028036833780820191505090505b50905060005b8451811015610d5d57610d07858281518110610cb9577f4e487b7100000000000000000000000000000000000000000000000000000000600052603260045260246000fd5b6020026020010151858381518110610cfa577f4e487b7100000000000000000000000000000000000000000000000000000000600052603260045260246000fd5b60200260200101516104cb565b828281518110610d40577f4e487b7100000000000000000000000000000000000000000000000000000000600052603260045260246000fd5b60200260200101818152505080610d56906145f0565b9050610c74565b508091505092915050565b6000600560009054906101000a900460ff16905090565b610d87611745565b73ffffffffffffffffffffffffffffffffffffffff168373ffffffffffffffffffffffffffffffffffffffff161480610dcd5750610dcc83610dc7611745565b6111d9565b5b610e0c576040517f08c379a0000000000000000000000000000000000000000000000000000000008152600401610e0390614091565b60405180910390fd5b610e17838383611d33565b505050565b610e4d7f9f2df0fed2c77648de5860a4cc508cd0818c85b8b8a1ab4ceeef8d981c8956a6610e48611745565b610f47565b610e8c576040517f08c379a0000000000000000000000000000000000000000000000000000000008152600401610e8390614131565b60405180910390fd5b610e988484848461203b565b50505050565b610ecf7f65d7a28e3265b37a6474929f336521b332c1681b933f6cb9f3376673440d862a610eca611745565b610f47565b610f0e576040517f08c379a0000000000000000000000000000000000000000000000000000000008152600401610f0590614191565b60405180910390fd5b610f166121d2565b565b6000610f3f826001600086815260200190815260200160002061227590919063ffffffff16565b905092915050565b600080600084815260200190815260200160002060000160008373ffffffffffffffffffffffffffffffffffffffff1673ffffffffffffffffffffffffffffffffffffffff16815260200190815260200160002060009054906101000a900460ff16905092915050565b6000801b81565b8173ffffffffffffffffffffffffffffffffffffffff16610fd7611745565b73ffffffffffffffffffffffffffffffffffffffff16141561102e576040517f08c379a0000000000000000000000000000000000000000000000000000000008152600401611025906141b1565b60405180910390fd5b806003600061103b611745565b73ffffffffffffffffffffffffffffffffffffffff1673ffffffffffffffffffffffffffffffffffffffff16815260200190815260200160002060008473ffffffffffffffffffffffffffffffffffffffff1673ffffffffffffffffffffffffffffffffffffffff16815260200190815260200160002060006101000a81548160ff0219169083151502179055508173ffffffffffffffffffffffffffffffffffffffff166110e8611745565b73ffffffffffffffffffffffffffffffffffffffff167f17307eab39ab6107e8899845ad3d59bd9653f200f220920489ca2b5937696c318360405161112d9190613f39565b60405180910390a35050565b60006111566001600084815260200190815260200160002061228f565b9050919050565b7f9f2df0fed2c77648de5860a4cc508cd0818c85b8b8a1ab4ceeef8d981c8956a681565b61118b82826122a4565b6111b08160016000858152602001908152602001600020611c6190919063ffffffff16565b505050565b7f65d7a28e3265b37a6474929f336521b332c1681b933f6cb9f3376673440d862a81565b6000600360008473ffffffffffffffffffffffffffffffffffffffff1673ffffffffffffffffffffffffffffffffffffffff16815260200190815260200160002060008373ffffffffffffffffffffffffffffffffffffffff1673ffffffffffffffffffffffffffffffffffffffff16815260200190815260200160002060009054906101000a900460ff16905092915050565b600073ffffffffffffffffffffffffffffffffffffffff168473ffffffffffffffffffffffffffffffffffffffff1614156112dd576040517f08c379a00000000000000000000000000000000000000000000000000000000081526004016112d4906140d1565b60405180910390fd5b6112e5611745565b73ffffffffffffffffffffffffffffffffffffffff168573ffffffffffffffffffffffffffffffffffffffff16148061132b575061132a85611325611745565b6111d9565b5b61136a576040517f08c379a000000000000000000000000000000000000000000000000000000000815260040161136190614091565b60405180910390fd5b6000611374611745565b9050611394818787611385886122cd565b61138e886122cd565b876119b8565b60006002600086815260200190815260200160002060008873ffffffffffffffffffffffffffffffffffffffff1673ffffffffffffffffffffffffffffffffffffffff1681526020019081526020016000205490508381101561142c576040517f08c379a000000000000000000000000000000000000000000000000000000000815260040161142390614151565b60405180910390fd5b8381611438919061446f565b6002600087815260200190815260200160002060008973ffffffffffffffffffffffffffffffffffffffff1673ffffffffffffffffffffffffffffffffffffffff16815260200190815260200160002081905550836002600087815260200190815260200160002060008873ffffffffffffffffffffffffffffffffffffffff1673ffffffffffffffffffffffffffffffffffffffff16815260200190815260200160002060008282546114ec91906143bf565b925050819055508573ffffffffffffffffffffffffffffffffffffffff168773ffffffffffffffffffffffffffffffffffffffff168373ffffffffffffffffffffffffffffffffffffffff167fc3d58168c5ae7397731d063d5bbf3d657854427343f4c083240f7aacaa2d0f62888860405161156992919061426c565b60405180910390a461157f828888888888612393565b50505050505050565b611590611745565b73ffffffffffffffffffffffffffffffffffffffff168373ffffffffffffffffffffffffffffffffffffffff1614806115d657506115d5836115d0611745565b6111d9565b5b611615576040517f08c379a000000000000000000000000000000000000000000000000000000000815260040161160c90614091565b60405180910390fd5b61162083838361257a565b505050565b61162f82826127a2565b5050565b600061165b836000018373ffffffffffffffffffffffffffffffffffffffff1660001b612882565b905092915050565b60007fd9b67a26000000000000000000000000000000000000000000000000000000007bffffffffffffffffffffffffffffffffffffffffffffffffffffffff1916827bffffffffffffffffffffffffffffffffffffffffffffffffffffffff1916148061172e57507f0e89341c000000000000000000000000000000000000000000000000000000007bffffffffffffffffffffffffffffffffffffffffffffffffffffffff1916827bffffffffffffffffffffffffffffffffffffffffffffffffffffffff1916145b8061173e575061173d826128f2565b5b9050919050565b600033905090565b600073ffffffffffffffffffffffffffffffffffffffff168473ffffffffffffffffffffffffffffffffffffffff1614156117bd576040517f08c379a00000000000000000000000000000000000000000000000000000000081526004016117b490614211565b60405180910390fd5b8151835114611801576040517f08c379a00000000000000000000000000000000000000000000000000000000081526004016117f8906141f1565b60405180910390fd5b600061180b611745565b905061181c816000878787876119b8565b60005b845181101561192257838181518110611861577f4e487b7100000000000000000000000000000000000000000000000000000000600052603260045260246000fd5b6020026020010151600260008784815181106118a6577f4e487b7100000000000000000000000000000000000000000000000000000000600052603260045260246000fd5b6020026020010151815260200190815260200160002060008873ffffffffffffffffffffffffffffffffffffffff1673ffffffffffffffffffffffffffffffffffffffff168152602001908152602001600020600082825461190891906143bf565b92505081905550808061191a906145f0565b91505061181f565b508473ffffffffffffffffffffffffffffffffffffffff16600073ffffffffffffffffffffffffffffffffffffffff168273ffffffffffffffffffffffffffffffffffffffff167f4a39dc06d4c0dbc64b70af90fd698a233a518aa5d07e595d983b8c0526c8f7fb878760405161199a929190613f02565b60405180910390a46119b1816000878787876119ce565b5050505050565b6119c686868686868661296c565b505050505050565b6119ed8473ffffffffffffffffffffffffffffffffffffffff166129ca565b15611bad578373ffffffffffffffffffffffffffffffffffffffff1663bc197c8187878686866040518663ffffffff1660e01b8152600401611a33959493929190613e1e565b602060405180830381600087803b158015611a4d57600080fd5b505af1925050508015611a7e57506040513d601f19601f82011682018060405250810190611a7b91906138cb565b60015b611b2457611a8a6146c6565b806308c379a01415611ae75750611a9f614db0565b80611aaa5750611ae9565b806040517f08c379a0000000000000000000000000000000000000000000000000000000008152600401611ade9190613f6f565b60405180910390fd5b505b6040517f08c379a0000000000000000000000000000000000000000000000000000000008152600401611b1b90613f91565b60405180910390fd5b63bc197c8160e01b7bffffffffffffffffffffffffffffffffffffffffffffffffffffffff1916817bffffffffffffffffffffffffffffffffffffffffffffffffffffffff191614611bab576040517f08c379a0000000000000000000000000000000000000000000000000000000008152600401611ba290613ff1565b60405180910390fd5b505b505050505050565b611bbe826106bd565b611bcf81611bca611745565b6129dd565b611bd983836127a2565b505050565b611be6611745565b73ffffffffffffffffffffffffffffffffffffffff168173ffffffffffffffffffffffffffffffffffffffff1614611c53576040517f08c379a0000000000000000000000000000000000000000000000000000000008152600401611c4a90614231565b60405180910390fd5b611c5d8282612a7a565b5050565b6000611c89836000018373ffffffffffffffffffffffffffffffffffffffff1660001b612b5b565b905092915050565b611c99610d68565b611cd8576040517f08c379a0000000000000000000000000000000000000000000000000000000008152600401611ccf90614011565b60405180910390fd5b6000600560006101000a81548160ff0219169083151502179055507f5db9ee0a495bf2e6ff9c91a7834c1ba4fdd244a5e8aa4e537bd38aeae4b073aa611d1c611745565b604051611d299190613e03565b60405180910390a1565b600073ffffffffffffffffffffffffffffffffffffffff168373ffffffffffffffffffffffffffffffffffffffff161415611da3576040517f08c379a0000000000000000000000000000000000000000000000000000000008152600401611d9a90614111565b60405180910390fd5b8051825114611de7576040517f08c379a0000000000000000000000000000000000000000000000000000000008152600401611dde906141f1565b60405180910390fd5b6000611df1611745565b9050611e11818560008686604051806020016040528060008152506119b8565b60005b8351811015611fb5576000848281518110611e58577f4e487b7100000000000000000000000000000000000000000000000000000000600052603260045260246000fd5b602002602001015190506000848381518110611e9d577f4e487b7100000000000000000000000000000000000000000000000000000000600052603260045260246000fd5b6020026020010151905060006002600084815260200190815260200160002060008973ffffffffffffffffffffffffffffffffffffffff1673ffffffffffffffffffffffffffffffffffffffff16815260200190815260200160002054905081811015611f3f576040517f08c379a0000000000000000000000000000000000000000000000000000000008152600401611f3690614051565b60405180910390fd5b8181611f4b919061446f565b6002600085815260200190815260200160002060008a73ffffffffffffffffffffffffffffffffffffffff1673ffffffffffffffffffffffffffffffffffffffff168152602001908152602001600020819055505050508080611fad906145f0565b915050611e14565b50600073ffffffffffffffffffffffffffffffffffffffff168473ffffffffffffffffffffffffffffffffffffffff168273ffffffffffffffffffffffffffffffffffffffff167f4a39dc06d4c0dbc64b70af90fd698a233a518aa5d07e595d983b8c0526c8f7fb868660405161202d929190613f02565b60405180910390a450505050565b600073ffffffffffffffffffffffffffffffffffffffff168473ffffffffffffffffffffffffffffffffffffffff1614156120ab576040517f08c379a00000000000000000000000000000000000000000000000000000000081526004016120a290614211565b60405180910390fd5b60006120b5611745565b90506120d6816000876120c7886122cd565b6120d0886122cd565b876119b8565b826002600086815260200190815260200160002060008773ffffffffffffffffffffffffffffffffffffffff1673ffffffffffffffffffffffffffffffffffffffff168152602001908152602001600020600082825461213691906143bf565b925050819055508473ffffffffffffffffffffffffffffffffffffffff16600073ffffffffffffffffffffffffffffffffffffffff168273ffffffffffffffffffffffffffffffffffffffff167fc3d58168c5ae7397731d063d5bbf3d657854427343f4c083240f7aacaa2d0f6287876040516121b492919061426c565b60405180910390a46121cb81600087878787612393565b5050505050565b6121da610d68565b1561221a576040517f08c379a0000000000000000000000000000000000000000000000000000000008152600401612211906140b1565b60405180910390fd5b6001600560006101000a81548160ff0219169083151502179055507f62e78cea01bee320cd4e420270b5ea74000d11b0c9f74754ebdbfc544b05a25861225e611745565b60405161226b9190613e03565b60405180910390a1565b60006122848360000183612cd9565b60001c905092915050565b600061229d82600001612d73565b9050919050565b6122ad826106bd565b6122be816122b9611745565b6129dd565b6122c88383612a7a565b505050565b60606000600167ffffffffffffffff811115612312577f4e487b7100000000000000000000000000000000000000000000000000000000600052604160045260246000fd5b6040519080825280602002602001820160405280156123405781602001602082028036833780820191505090505b509050828160008151811061237e577f4e487b7100000000000000000000000000000000000000000000000000000000600052603260045260246000fd5b60200260200101818152505080915050919050565b6123b28473ffffffffffffffffffffffffffffffffffffffff166129ca565b15612572578373ffffffffffffffffffffffffffffffffffffffff1663f23a6e6187878686866040518663ffffffff1660e01b81526004016123f8959493929190613e86565b602060405180830381600087803b15801561241257600080fd5b505af192505050801561244357506040513d601f19601f8201168201806040525081019061244091906138cb565b60015b6124e95761244f6146c6565b806308c379a014156124ac5750612464614db0565b8061246f57506124ae565b806040517f08c379a00000000000000000000000000000000000000000000000000000000081526004016124a39190613f6f565b60405180910390fd5b505b6040517f08c379a00000000000000000000000000000000000000000000000000000000081526004016124e090613f91565b60405180910390fd5b63f23a6e6160e01b7bffffffffffffffffffffffffffffffffffffffffffffffffffffffff1916817bffffffffffffffffffffffffffffffffffffffffffffffffffffffff191614612570576040517f08c379a000000000000000000000000000000000000000000000000000000000815260040161256790613ff1565b60405180910390fd5b505b505050505050565b600073ffffffffffffffffffffffffffffffffffffffff168373ffffffffffffffffffffffffffffffffffffffff1614156125ea576040517f08c379a00000000000000000000000000000000000000000000000000000000081526004016125e190614111565b60405180910390fd5b60006125f4611745565b905061262481856000612606876122cd565b61260f876122cd565b604051806020016040528060008152506119b8565b60006002600085815260200190815260200160002060008673ffffffffffffffffffffffffffffffffffffffff1673ffffffffffffffffffffffffffffffffffffffff168152602001908152602001600020549050828110156126bc576040517f08c379a00000000000000000000000000000000000000000000000000000000081526004016126b390614051565b60405180910390fd5b82816126c8919061446f565b6002600086815260200190815260200160002060008773ffffffffffffffffffffffffffffffffffffffff1673ffffffffffffffffffffffffffffffffffffffff16815260200190815260200160002081905550600073ffffffffffffffffffffffffffffffffffffffff168573ffffffffffffffffffffffffffffffffffffffff168373ffffffffffffffffffffffffffffffffffffffff167fc3d58168c5ae7397731d063d5bbf3d657854427343f4c083240f7aacaa2d0f62878760405161279392919061426c565b60405180910390a45050505050565b6127ac8282610f47565b61287e57600160008084815260200190815260200160002060000160008373ffffffffffffffffffffffffffffffffffffffff1673ffffffffffffffffffffffffffffffffffffffff16815260200190815260200160002060006101000a81548160ff021916908315150217905550612823611745565b73ffffffffffffffffffffffffffffffffffffffff168173ffffffffffffffffffffffffffffffffffffffff16837f2f8788117e7eff1d82e926ec794901d17c78024a50270940304540a733656f0d60405160405180910390a45b5050565b600061288e8383612d84565b6128e75782600001829080600181540180825580915050600190039060005260206000200160009091909190915055826000018054905083600101600084815260200190815260200160002081905550600190506128ec565b600090505b92915050565b60007f5a05180f000000000000000000000000000000000000000000000000000000007bffffffffffffffffffffffffffffffffffffffffffffffffffffffff1916827bffffffffffffffffffffffffffffffffffffffffffffffffffffffff19161480612965575061296482612da7565b5b9050919050565b61297a868686868686612e21565b612982610d68565b156129c2576040517f08c379a00000000000000000000000000000000000000000000000000000000081526004016129b990614071565b60405180910390fd5b505050505050565b600080823b905060008111915050919050565b6129e78282610f47565b612a7657612a0c8173ffffffffffffffffffffffffffffffffffffffff166014612e29565b612a1a8360001c6020612e29565b604051602001612a2b929190613dc9565b6040516020818303038152906040526040517f08c379a0000000000000000000000000000000000000000000000000000000008152600401612a6d9190613f6f565b60405180910390fd5b5050565b612a848282610f47565b15612b5757600080600084815260200190815260200160002060000160008373ffffffffffffffffffffffffffffffffffffffff1673ffffffffffffffffffffffffffffffffffffffff16815260200190815260200160002060006101000a81548160ff021916908315150217905550612afc611745565b73ffffffffffffffffffffffffffffffffffffffff168173ffffffffffffffffffffffffffffffffffffffff16837ff6391f5c32d9c69d2a47ea670b442974b53935d1edc7fd64eb21e047a839171b60405160405180910390a45b5050565b60008083600101600084815260200190815260200160002054905060008114612ccd576000600182612b8d919061446f565b9050600060018660000180549050612ba5919061446f565b90506000866000018281548110612be5577f4e487b7100000000000000000000000000000000000000000000000000000000600052603260045260246000fd5b9060005260206000200154905080876000018481548110612c2f577f4e487b7100000000000000000000000000000000000000000000000000000000600052603260045260246000fd5b9060005260206000200181905550838760010160008381526020019081526020016000208190555086600001805480612c91577f4e487b7100000000000000000000000000000000000000000000000000000000600052603160045260246000fd5b60019003818190600052602060002001600090559055866001016000878152602001908152602001600020600090556001945050505050612cd3565b60009150505b92915050565b600081836000018054905011612d24576040517f08c379a0000000000000000000000000000000000000000000000000000000008152600401612d1b90613fb1565b60405180910390fd5b826000018281548110612d60577f4e487b7100000000000000000000000000000000000000000000000000000000600052603260045260246000fd5b9060005260206000200154905092915050565b600081600001805490509050919050565b600080836001016000848152602001908152602001600020541415905092915050565b60007f7965db0b000000000000000000000000000000000000000000000000000000007bffffffffffffffffffffffffffffffffffffffffffffffffffffffff1916827bffffffffffffffffffffffffffffffffffffffffffffffffffffffff19161480612e1a5750612e1982613123565b5b9050919050565b505050505050565b606060006002836002612e3c9190614415565b612e4691906143bf565b67ffffffffffffffff811115612e85577f4e487b7100000000000000000000000000000000000000000000000000000000600052604160045260246000fd5b6040519080825280601f01601f191660200182016040528015612eb75781602001600182028036833780820191505090505b5090507f300000000000000000000000000000000000000000000000000000000000000081600081518110612f15577f4e487b7100000000000000000000000000000000000000000000000000000000600052603260045260246000fd5b60200101907effffffffffffffffffffffffffffffffffffffffffffffffffffffffffffff1916908160001a9053507f780000000000000000000000000000000000000000000000000000000000000081600181518110612f9f577f4e487b7100000000000000000000000000000000000000000000000000000000600052603260045260246000fd5b60200101907effffffffffffffffffffffffffffffffffffffffffffffffffffffffffffff1916908160001a90535060006001846002612fdf9190614415565b612fe991906143bf565b90505b60018111156130d5577f3031323334353637383961626364656600000000000000000000000000000000600f861660108110613051577f4e487b7100000000000000000000000000000000000000000000000000000000600052603260045260246000fd5b1a60f81b82828151811061308e577f4e487b7100000000000000000000000000000000000000000000000000000000600052603260045260246000fd5b60200101907effffffffffffffffffffffffffffffffffffffffffffffffffffffffffffff1916908160001a905350600485901c9450806130ce90614563565b9050612fec565b5060008414613119576040517f08c379a000000000000000000000000000000000000000000000000000000000815260040161311090613fd1565b60405180910390fd5b8091505092915050565b60007f01ffc9a7000000000000000000000000000000000000000000000000000000007bffffffffffffffffffffffffffffffffffffffffffffffffffffffff1916827bffffffffffffffffffffffffffffffffffffffffffffffffffffffff1916149050919050565b60006131a061319b846142ba565b614295565b905080838252602082019050828560208602820111156131bf57600080fd5b60005b858110156131ef57816131d588826132a3565b8452602084019350602083019250506001810190506131c2565b5050509392505050565b600061320c613207846142e6565b614295565b9050808382526020820190508285602086028201111561322b57600080fd5b60005b8581101561325b5781613241888261338a565b84526020840193506020830192505060018101905061322e565b5050509392505050565b600061327861327384614312565b614295565b90508281526020810184848401111561329057600080fd5b61329b848285614521565b509392505050565b6000813590506132b281614e46565b92915050565b600082601f8301126132c957600080fd5b81356132d984826020860161318d565b91505092915050565b600082601f8301126132f357600080fd5b81356133038482602086016131f9565b91505092915050565b60008135905061331b81614e5d565b92915050565b60008135905061333081614e74565b92915050565b60008135905061334581614e8b565b92915050565b60008151905061335a81614e8b565b92915050565b600082601f83011261337157600080fd5b8135613381848260208601613265565b91505092915050565b60008135905061339981614ea2565b92915050565b600080604083850312156133b257600080fd5b60006133c0858286016132a3565b92505060206133d1858286016132a3565b9150509250929050565b600080600080600060a086880312156133f357600080fd5b6000613401888289016132a3565b9550506020613412888289016132a3565b945050604086013567ffffffffffffffff81111561342f57600080fd5b61343b888289016132e2565b935050606086013567ffffffffffffffff81111561345857600080fd5b613464888289016132e2565b925050608086013567ffffffffffffffff81111561348157600080fd5b61348d88828901613360565b9150509295509295909350565b600080600080600060a086880312156134b257600080fd5b60006134c0888289016132a3565b95505060206134d1888289016132a3565b94505060406134e28882890161338a565b93505060606134f38882890161338a565b925050608086013567ffffffffffffffff81111561351057600080fd5b61351c88828901613360565b9150509295509295909350565b60008060006060848603121561353e57600080fd5b600061354c868287016132a3565b935050602084013567ffffffffffffffff81111561356957600080fd5b613575868287016132e2565b925050604084013567ffffffffffffffff81111561359257600080fd5b61359e868287016132e2565b9150509250925092565b600080600080608085870312156135be57600080fd5b60006135cc878288016132a3565b945050602085013567ffffffffffffffff8111156135e957600080fd5b6135f5878288016132e2565b935050604085013567ffffffffffffffff81111561361257600080fd5b61361e878288016132e2565b925050606085013567ffffffffffffffff81111561363b57600080fd5b61364787828801613360565b91505092959194509250565b6000806040838503121561366657600080fd5b6000613674858286016132a3565b92505060206136858582860161330c565b9150509250929050565b600080604083850312156136a257600080fd5b60006136b0858286016132a3565b92505060206136c18582860161338a565b9150509250929050565b6000806000606084860312156136e057600080fd5b60006136ee868287016132a3565b93505060206136ff8682870161338a565b92505060406137108682870161338a565b9150509250925092565b6000806000806080858703121561373057600080fd5b600061373e878288016132a3565b945050602061374f8782880161338a565b93505060406137608782880161338a565b925050606085013567ffffffffffffffff81111561377d57600080fd5b61378987828801613360565b91505092959194509250565b600080604083850312156137a857600080fd5b600083013567ffffffffffffffff8111156137c257600080fd5b6137ce858286016132b8565b925050602083013567ffffffffffffffff8111156137eb57600080fd5b6137f7858286016132e2565b9150509250929050565b60006020828403121561381357600080fd5b600061382184828501613321565b91505092915050565b6000806040838503121561383d57600080fd5b600061384b85828601613321565b925050602061385c858286016132a3565b9150509250929050565b6000806040838503121561387957600080fd5b600061388785828601613321565b92505060206138988582860161338a565b9150509250929050565b6000602082840312156138b457600080fd5b60006138c284828501613336565b91505092915050565b6000602082840312156138dd57600080fd5b60006138eb8482850161334b565b91505092915050565b60006020828403121561390657600080fd5b60006139148482850161338a565b91505092915050565b60006139298383613dab565b60208301905092915050565b61393e816144a3565b82525050565b600061394f82614353565b6139598185614381565b935061396483614343565b8060005b8381101561399557815161397c888261391d565b975061398783614374565b925050600181019050613968565b5085935050505092915050565b6139ab816144b5565b82525050565b6139ba816144c1565b82525050565b60006139cb8261435e565b6139d58185614392565b93506139e5818560208601614530565b6139ee816146e8565b840191505092915050565b6000613a0482614369565b613a0e81856143a3565b9350613a1e818560208601614530565b613a27816146e8565b840191505092915050565b6000613a3d82614369565b613a4781856143b4565b9350613a57818560208601614530565b80840191505092915050565b6000613a706034836143a3565b9150613a7b82614706565b604082019050919050565b6000613a936022836143a3565b9150613a9e82614755565b604082019050919050565b6000613ab66020836143a3565b9150613ac1826147a4565b602082019050919050565b6000613ad96028836143a3565b9150613ae4826147cd565b604082019050919050565b6000613afc6014836143a3565b9150613b078261481c565b602082019050919050565b6000613b1f602b836143a3565b9150613b2a82614845565b604082019050919050565b6000613b426024836143a3565b9150613b4d82614894565b604082019050919050565b6000613b65602c836143a3565b9150613b70826148e3565b604082019050919050565b6000613b886029836143a3565b9150613b9382614932565b604082019050919050565b6000613bab6010836143a3565b9150613bb682614981565b602082019050919050565b6000613bce6025836143a3565b9150613bd9826149aa565b604082019050919050565b6000613bf16032836143a3565b9150613bfc826149f9565b604082019050919050565b6000613c146023836143a3565b9150613c1f82614a48565b604082019050919050565b6000613c376038836143a3565b9150613c4282614a97565b604082019050919050565b6000613c5a602a836143a3565b9150613c6582614ae6565b604082019050919050565b6000613c7d603b836143a3565b9150613c8882614b35565b604082019050919050565b6000613ca06039836143a3565b9150613cab82614b84565b604082019050919050565b6000613cc36017836143b4565b9150613cce82614bd3565b601782019050919050565b6000613ce66029836143a3565b9150613cf182614bfc565b604082019050919050565b6000613d096029836143a3565b9150613d1482614c4b565b604082019050919050565b6000613d2c6028836143a3565b9150613d3782614c9a565b604082019050919050565b6000613d4f6021836143a3565b9150613d5a82614ce9565b604082019050919050565b6000613d726011836143b4565b9150613d7d82614d38565b601182019050919050565b6000613d95602f836143a3565b9150613da082614d61565b604082019050919050565b613db481614517565b82525050565b613dc381614517565b82525050565b6000613dd482613cb6565b9150613de08285613a32565b9150613deb82613d65565b9150613df78284613a32565b91508190509392505050565b6000602082019050613e186000830184613935565b92915050565b600060a082019050613e336000830188613935565b613e406020830187613935565b8181036040830152613e528186613944565b90508181036060830152613e668185613944565b90508181036080830152613e7a81846139c0565b90509695505050505050565b600060a082019050613e9b6000830188613935565b613ea86020830187613935565b613eb56040830186613dba565b613ec26060830185613dba565b8181036080830152613ed481846139c0565b90509695505050505050565b60006020820190508181036000830152613efa8184613944565b905092915050565b60006040820190508181036000830152613f1c8185613944565b90508181036020830152613f308184613944565b90509392505050565b6000602082019050613f4e60008301846139a2565b92915050565b6000602082019050613f6960008301846139b1565b92915050565b60006020820190508181036000830152613f8981846139f9565b905092915050565b60006020820190508181036000830152613faa81613a63565b9050919050565b60006020820190508181036000830152613fca81613a86565b9050919050565b60006020820190508181036000830152613fea81613aa9565b9050919050565b6000602082019050818103600083015261400a81613acc565b9050919050565b6000602082019050818103600083015261402a81613aef565b9050919050565b6000602082019050818103600083015261404a81613b12565b9050919050565b6000602082019050818103600083015261406a81613b35565b9050919050565b6000602082019050818103600083015261408a81613b58565b9050919050565b600060208201905081810360008301526140aa81613b7b565b9050919050565b600060208201905081810360008301526140ca81613b9e565b9050919050565b600060208201905081810360008301526140ea81613bc1565b9050919050565b6000602082019050818103600083015261410a81613be4565b9050919050565b6000602082019050818103600083015261412a81613c07565b9050919050565b6000602082019050818103600083015261414a81613c2a565b9050919050565b6000602082019050818103600083015261416a81613c4d565b9050919050565b6000602082019050818103600083015261418a81613c70565b9050919050565b600060208201905081810360008301526141aa81613c93565b9050919050565b600060208201905081810360008301526141ca81613cd9565b9050919050565b600060208201905081810360008301526141ea81613cfc565b9050919050565b6000602082019050818103600083015261420a81613d1f565b9050919050565b6000602082019050818103600083015261422a81613d42565b9050919050565b6000602082019050818103600083015261424a81613d88565b9050919050565b60006020820190506142666000830184613dba565b92915050565b60006040820190506142816000830185613dba565b61428e6020830184613dba565b9392505050565b600061429f6142b0565b90506142ab82826145bf565b919050565b6000604051905090565b600067ffffffffffffffff8211156142d5576142d4614697565b5b602082029050602081019050919050565b600067ffffffffffffffff82111561430157614300614697565b5b602082029050602081019050919050565b600067ffffffffffffffff82111561432d5761432c614697565b5b614336826146e8565b9050602081019050919050565b6000819050602082019050919050565b600081519050919050565b600081519050919050565b600081519050919050565b6000602082019050919050565b600082825260208201905092915050565b600082825260208201905092915050565b600082825260208201905092915050565b600081905092915050565b60006143ca82614517565b91506143d583614517565b9250827fffffffffffffffffffffffffffffffffffffffffffffffffffffffffffffffff0382111561440a57614409614639565b5b828201905092915050565b600061442082614517565b915061442b83614517565b9250817fffffffffffffffffffffffffffffffffffffffffffffffffffffffffffffffff048311821515161561446457614463614639565b5b828202905092915050565b600061447a82614517565b915061448583614517565b92508282101561449857614497614639565b5b828203905092915050565b60006144ae826144f7565b9050919050565b60008115159050919050565b6000819050919050565b60007fffffffff0000000000000000000000000000000000000000000000000000000082169050919050565b600073ffffffffffffffffffffffffffffffffffffffff82169050919050565b6000819050919050565b82818337600083830152505050565b60005b8381101561454e578082015181840152602081019050614533565b8381111561455d576000848401525b50505050565b600061456e82614517565b9150600082141561458257614581614639565b5b600182039050919050565b600060028204905060018216806145a557607f821691505b602082108114156145b9576145b8614668565b5b50919050565b6145c8826146e8565b810181811067ffffffffffffffff821117156145e7576145e6614697565b5b80604052505050565b60006145fb82614517565b91507fffffffffffffffffffffffffffffffffffffffffffffffffffffffffffffffff82141561462e5761462d614639565b5b600182019050919050565b7f4e487b7100000000000000000000000000000000000000000000000000000000600052601160045260246000fd5b7f4e487b7100000000000000000000000000000000000000000000000000000000600052602260045260246000fd5b7f4e487b7100000000000000000000000000000000000000000000000000000000600052604160045260246000fd5b600060033d11156146e55760046000803e6146e26000516146f9565b90505b90565b6000601f19601f8301169050919050565b60008160e01c9050919050565b7f455243313135353a207472616e7366657220746f206e6f6e204552433131353560008201527f526563656976657220696d706c656d656e746572000000000000000000000000602082015250565b7f456e756d657261626c655365743a20696e646578206f7574206f6620626f756e60008201527f6473000000000000000000000000000000000000000000000000000000000000602082015250565b7f537472696e67733a20686578206c656e67746820696e73756666696369656e74600082015250565b7f455243313135353a204552433131353552656365697665722072656a6563746560008201527f6420746f6b656e73000000000000000000000000000000000000000000000000602082015250565b7f5061757361626c653a206e6f7420706175736564000000000000000000000000600082015250565b7f455243313135353a2062616c616e636520717565727920666f7220746865207a60008201527f65726f2061646472657373000000000000000000000000000000000000000000602082015250565b7f455243313135353a206275726e20616d6f756e7420657863656564732062616c60008201527f616e636500000000000000000000000000000000000000000000000000000000602082015250565b7f455243313135355061757361626c653a20746f6b656e207472616e736665722060008201527f7768696c65207061757365640000000000000000000000000000000000000000602082015250565b7f455243313135353a2063616c6c6572206973206e6f74206f776e6572206e6f7260008201527f20617070726f7665640000000000000000000000000000000000000000000000602082015250565b7f5061757361626c653a2070617573656400000000000000000000000000000000600082015250565b7f455243313135353a207472616e7366657220746f20746865207a65726f20616460008201527f6472657373000000000000000000000000000000000000000000000000000000602082015250565b7f455243313135353a207472616e736665722063616c6c6572206973206e6f742060008201527f6f776e6572206e6f7220617070726f7665640000000000000000000000000000602082015250565b7f455243313135353a206275726e2066726f6d20746865207a65726f206164647260008201527f6573730000000000000000000000000000000000000000000000000000000000602082015250565b7f455243313135355072657365744d696e7465725061757365723a206d7573742060008201527f68617665206d696e74657220726f6c6520746f206d696e740000000000000000602082015250565b7f455243313135353a20696e73756666696369656e742062616c616e636520666f60008201527f72207472616e7366657200000000000000000000000000000000000000000000602082015250565b7f455243313135355072657365744d696e7465725061757365723a206d7573742060008201527f686176652070617573657220726f6c6520746f20756e70617573650000000000602082015250565b7f455243313135355072657365744d696e7465725061757365723a206d7573742060008201527f686176652070617573657220726f6c6520746f20706175736500000000000000602082015250565b7f416363657373436f6e74726f6c3a206163636f756e7420000000000000000000600082015250565b7f455243313135353a2073657474696e6720617070726f76616c2073746174757360008201527f20666f722073656c660000000000000000000000000000000000000000000000602082015250565b7f455243313135353a206163636f756e747320616e6420696473206c656e67746860008201527f206d69736d617463680000000000000000000000000000000000000000000000602082015250565b7f455243313135353a2069647320616e6420616d6f756e7473206c656e6774682060008201527f6d69736d61746368000000000000000000000000000000000000000000000000602082015250565b7f455243313135353a206d696e7420746f20746865207a65726f2061646472657360008201527f7300000000000000000000000000000000000000000000000000000000000000602082015250565b7f206973206d697373696e6720726f6c6520000000000000000000000000000000600082015250565b7f416363657373436f6e74726f6c3a2063616e206f6e6c792072656e6f756e636560008201527f20726f6c657320666f722073656c660000000000000000000000000000000000602082015250565b600060443d1015614dc057614e43565b614dc86142b0565b60043d036004823e80513d602482011167ffffffffffffffff82111715614df0575050614e43565b808201805167ffffffffffffffff811115614e0e5750505050614e43565b80602083010160043d038501811115614e2b575050505050614e43565b614e3a826020018501866145bf565b82955050505050505b90565b614e4f816144a3565b8114614e5a57600080fd5b50565b614e66816144b5565b8114614e7157600080fd5b50565b614e7d816144c1565b8114614e8857600080fd5b50565b614e94816144cb565b8114614e9f57600080fd5b50565b614eab81614517565b8114614eb657600080fd5b5056fea2646970667358221220d708c0e54c176660356e8c1480b87d3ef3a15a15cfc81c12ff7bd4c645b46c1964736f6c63430008040033",
  "immutableReferences": {},
  "source": "// SPDX-License-Identifier: MIT\r\n\r\npragma solidity ^0.8.0;\r\n\r\nimport \"../ERC1155.sol\";\r\nimport \"../extensions/ERC1155Burnable.sol\";\r\nimport \"../extensions/ERC1155Pausable.sol\";\r\nimport \"../../../access/AccessControlEnumerable.sol\";\r\nimport \"../../../utils/Context.sol\";\r\n\r\n/**\r\n * @dev {ERC1155} token, including:\r\n *\r\n *  - ability for holders to burn (destroy) their tokens\r\n *  - a minter role that allows for token minting (creation)\r\n *  - a pauser role that allows to stop all token transfers\r\n *\r\n * This contract uses {AccessControl} to lock permissioned functions using the\r\n * different roles - head to its documentation for details.\r\n *\r\n * The account that deploys the contract will be granted the minter and pauser\r\n * roles, as well as the default admin role, which will let it grant both minter\r\n * and pauser roles to other accounts.\r\n */\r\ncontract ERC1155PresetMinterPauser is Context, AccessControlEnumerable, ERC1155Burnable, ERC1155Pausable {\r\n    bytes32 public constant MINTER_ROLE = keccak256(\"MINTER_ROLE\");\r\n    bytes32 public constant PAUSER_ROLE = keccak256(\"PAUSER_ROLE\");\r\n\r\n    /**\r\n     * @dev Grants `DEFAULT_ADMIN_ROLE`, `MINTER_ROLE`, and `PAUSER_ROLE` to the account that\r\n     * deploys the contract.\r\n     */\r\n    constructor(string memory uri) ERC1155(uri) {\r\n        _setupRole(DEFAULT_ADMIN_ROLE, _msgSender());\r\n\r\n        _setupRole(MINTER_ROLE, _msgSender());\r\n        _setupRole(PAUSER_ROLE, _msgSender());\r\n    }\r\n\r\n    /**\r\n     * @dev Creates `amount` new tokens for `to`, of token type `id`.\r\n     *\r\n     * See {ERC1155-_mint}.\r\n     *\r\n     * Requirements:\r\n     *\r\n     * - the caller must have the `MINTER_ROLE`.\r\n     */\r\n    function mint(address to, uint256 id, uint256 amount, bytes memory data) public virtual {\r\n        require(hasRole(MINTER_ROLE, _msgSender()), \"ERC1155PresetMinterPauser: must have minter role to mint\");\r\n\r\n        _mint(to, id, amount, data);\r\n    }\r\n\r\n    /**\r\n     * @dev xref:ROOT:erc1155.adoc#batch-operations[Batched] variant of {mint}.\r\n     */\r\n    function mintBatch(address to, uint256[] memory ids, uint256[] memory amounts, bytes memory data) public virtual {\r\n        require(hasRole(MINTER_ROLE, _msgSender()), \"ERC1155PresetMinterPauser: must have minter role to mint\");\r\n\r\n        _mintBatch(to, ids, amounts, data);\r\n    }\r\n\r\n    /**\r\n     * @dev Pauses all token transfers.\r\n     *\r\n     * See {ERC1155Pausable} and {Pausable-_pause}.\r\n     *\r\n     * Requirements:\r\n     *\r\n     * - the caller must have the `PAUSER_ROLE`.\r\n     */\r\n    function pause() public virtual {\r\n        require(hasRole(PAUSER_ROLE, _msgSender()), \"ERC1155PresetMinterPauser: must have pauser role to pause\");\r\n        _pause();\r\n    }\r\n\r\n    /**\r\n     * @dev Unpauses all token transfers.\r\n     *\r\n     * See {ERC1155Pausable} and {Pausable-_unpause}.\r\n     *\r\n     * Requirements:\r\n     *\r\n     * - the caller must have the `PAUSER_ROLE`.\r\n     */\r\n    function unpause() public virtual {\r\n        require(hasRole(PAUSER_ROLE, _msgSender()), \"ERC1155PresetMinterPauser: must have pauser role to unpause\");\r\n        _unpause();\r\n    }\r\n\r\n    /**\r\n     * @dev See {IERC165-supportsInterface}.\r\n     */\r\n    function supportsInterface(bytes4 interfaceId) public view virtual override(AccessControlEnumerable, ERC1155) returns (bool) {\r\n        return super.supportsInterface(interfaceId);\r\n    }\r\n\r\n    function _beforeTokenTransfer(\r\n        address operator,\r\n        address from,\r\n        address to,\r\n        uint256[] memory ids,\r\n        uint256[] memory amounts,\r\n        bytes memory data\r\n    )\r\n        internal virtual override(ERC1155, ERC1155Pausable)\r\n    {\r\n        super._beforeTokenTransfer(operator, from, to, ids, amounts, data);\r\n    }\r\n}\r\n",
  "sourcePath": "D:/00_TauDefi/github/taudefi-nft/contracts/lib/token/ERC1155/presets/ERC1155PresetMinterPauser.sol",
  "compiler": {
    "name": "solc",
    "version": "0.8.4+commit.c7e474f2.Emscripten.clang"
  },
  "schemaVersion": "3.4.1",
  "updatedAt": "2021-07-11T01:47:46.668Z",
  "devdoc": {
    "details": "{ERC1155} token, including:  - ability for holders to burn (destroy) their tokens  - a minter role that allows for token minting (creation)  - a pauser role that allows to stop all token transfers This contract uses {AccessControl} to lock permissioned functions using the different roles - head to its documentation for details. The account that deploys the contract will be granted the minter and pauser roles, as well as the default admin role, which will let it grant both minter and pauser roles to other accounts.",
    "kind": "dev",
    "methods": {
      "balanceOf(address,uint256)": {
        "details": "See {IERC1155-balanceOf}. Requirements: - `account` cannot be the zero address."
      },
      "balanceOfBatch(address[],uint256[])": {
        "details": "See {IERC1155-balanceOfBatch}. Requirements: - `accounts` and `ids` must have the same length."
      },
      "constructor": {
        "details": "Grants `DEFAULT_ADMIN_ROLE`, `MINTER_ROLE`, and `PAUSER_ROLE` to the account that deploys the contract."
      },
      "getRoleAdmin(bytes32)": {
        "details": "Returns the admin role that controls `role`. See {grantRole} and {revokeRole}. To change a role's admin, use {_setRoleAdmin}."
      },
      "getRoleMember(bytes32,uint256)": {
        "details": "Returns one of the accounts that have `role`. `index` must be a value between 0 and {getRoleMemberCount}, non-inclusive. Role bearers are not sorted in any particular way, and their ordering may change at any point. WARNING: When using {getRoleMember} and {getRoleMemberCount}, make sure you perform all queries on the same block. See the following https://forum.openzeppelin.com/t/iterating-over-elements-on-enumerableset-in-openzeppelin-contracts/2296[forum post] for more information."
      },
      "getRoleMemberCount(bytes32)": {
        "details": "Returns the number of accounts that have `role`. Can be used together with {getRoleMember} to enumerate all bearers of a role."
      },
      "grantRole(bytes32,address)": {
        "details": "Overload {grantRole} to track enumerable memberships"
      },
      "hasRole(bytes32,address)": {
        "details": "Returns `true` if `account` has been granted `role`."
      },
      "isApprovedForAll(address,address)": {
        "details": "See {IERC1155-isApprovedForAll}."
      },
      "mint(address,uint256,uint256,bytes)": {
        "details": "Creates `amount` new tokens for `to`, of token type `id`. See {ERC1155-_mint}. Requirements: - the caller must have the `MINTER_ROLE`."
      },
      "mintBatch(address,uint256[],uint256[],bytes)": {
        "details": "xref:ROOT:erc1155.adoc#batch-operations[Batched] variant of {mint}."
      },
      "pause()": {
        "details": "Pauses all token transfers. See {ERC1155Pausable} and {Pausable-_pause}. Requirements: - the caller must have the `PAUSER_ROLE`."
      },
      "paused()": {
        "details": "Returns true if the contract is paused, and false otherwise."
      },
      "renounceRole(bytes32,address)": {
        "details": "Overload {renounceRole} to track enumerable memberships"
      },
      "revokeRole(bytes32,address)": {
        "details": "Overload {revokeRole} to track enumerable memberships"
      },
      "safeBatchTransferFrom(address,address,uint256[],uint256[],bytes)": {
        "details": "See {IERC1155-safeBatchTransferFrom}."
      },
      "safeTransferFrom(address,address,uint256,uint256,bytes)": {
        "details": "See {IERC1155-safeTransferFrom}."
      },
      "setApprovalForAll(address,bool)": {
        "details": "See {IERC1155-setApprovalForAll}."
      },
      "supportsInterface(bytes4)": {
        "details": "See {IERC165-supportsInterface}."
      },
      "unpause()": {
        "details": "Unpauses all token transfers. See {ERC1155Pausable} and {Pausable-_unpause}. Requirements: - the caller must have the `PAUSER_ROLE`."
      },
      "uri(uint256)": {
        "details": "See {IERC1155MetadataURI-uri}. This implementation returns the same URI for *all* token types. It relies on the token type ID substitution mechanism https://eips.ethereum.org/EIPS/eip-1155#metadata[defined in the EIP]. Clients calling this function must replace the `\\{id\\}` substring with the actual token type ID."
      }
    },
    "version": 1
  },
  "userdoc": {
    "kind": "user",
    "methods": {},
    "version": 1
  }
}