{
  "contractName": "ERC721ReceiverMock",
  "abi": [
    {
      "inputs": [
        {
          "internalType": "bytes4",
          "name": "retval",
          "type": "bytes4"
        },
        {
          "internalType": "enum ERC721ReceiverMock.Error",
          "name": "error",
          "type": "uint8"
        }
      ],
      "stateMutability": "nonpayable",
      "type": "constructor"
    },
    {
      "anonymous": false,
      "inputs": [
        {
          "indexed": false,
          "internalType": "address",
          "name": "operator",
          "type": "address"
        },
        {
          "indexed": false,
          "internalType": "address",
          "name": "from",
          "type": "address"
        },
        {
          "indexed": false,
          "internalType": "uint256",
          "name": "tokenId",
          "type": "uint256"
        },
        {
          "indexed": false,
          "internalType": "bytes",
          "name": "data",
          "type": "bytes"
        },
        {
          "indexed": false,
          "internalType": "uint256",
          "name": "gas",
          "type": "uint256"
        }
      ],
      "name": "Received",
      "type": "event"
    },
    {
      "inputs": [
        {
          "internalType": "address",
          "name": "operator",
          "type": "address"
        },
        {
          "internalType": "address",
          "name": "from",
          "type": "address"
        },
        {
          "internalType": "uint256",
          "name": "tokenId",
          "type": "uint256"
        },
        {
          "internalType": "bytes",
          "name": "data",
          "type": "bytes"
        }
      ],
      "name": "onERC721Received",
      "outputs": [
        {
          "internalType": "bytes4",
          "name": "",
          "type": "bytes4"
        }
      ],
      "stateMutability": "nonpayable",
      "type": "function"
    }
  ],
  "bytecode": "0x60c060405234801561001057600080fd5b5060405161098d38038061098d83398181016040528101906100329190610124565b817bffffffffffffffffffffffffffffffffffffffffffffffffffffffff19166080817bffffffffffffffffffffffffffffffffffffffffffffffffffffffff1916815250508060038111156100b1577f4e487b7100000000000000000000000000000000000000000000000000000000600052602160045260246000fd5b60a08160038111156100ec577f4e487b7100000000000000000000000000000000000000000000000000000000600052602160045260246000fd5b60f81b8152505050506101b3565b6000815190506101098161018c565b92915050565b60008151905061011e816101a3565b92915050565b6000806040838503121561013757600080fd5b6000610145858286016100fa565b92505060206101568582860161010f565b9150509250929050565b60007fffffffff0000000000000000000000000000000000000000000000000000000082169050919050565b61019581610160565b81146101a057600080fd5b50565b600481106101b057600080fd5b50565b60805160e01c60e01b60a05160f81c61079f6101ee60003960008181609e01528181610172015261020f015260006102c0015261079f6000f3fe608060405234801561001057600080fd5b506004361061002b5760003560e01c8063150b7a0214610030575b600080fd5b61004a6004803603810190610045919061037b565b610060565b60405161005791906104d9565b60405180910390f35b60006001600381111561009c577f4e487b7100000000000000000000000000000000000000000000000000000000600052602160045260246000fd5b7f000000000000000000000000000000000000000000000000000000000000000060038111156100f5577f4e487b7100000000000000000000000000000000000000000000000000000000600052602160045260246000fd5b1415610136576040517f08c379a000000000000000000000000000000000000000000000000000000000815260040161012d906104f4565b60405180910390fd5b60026003811115610170577f4e487b7100000000000000000000000000000000000000000000000000000000600052602160045260246000fd5b7f000000000000000000000000000000000000000000000000000000000000000060038111156101c9577f4e487b7100000000000000000000000000000000000000000000000000000000600052602160045260246000fd5b14156101d457600080fd5b60038081111561020d577f4e487b7100000000000000000000000000000000000000000000000000000000600052602160045260246000fd5b7f00000000000000000000000000000000000000000000000000000000000000006003811115610266577f4e487b7100000000000000000000000000000000000000000000000000000000600052602160045260246000fd5b141561027f57600080600061027b9190610597565b9050505b7f28fa6e16458f9c24aa59ddd4085264573006dbe30304837873c7deafc702b038858585855a6040516102b695949392919061047f565b60405180910390a17f00000000000000000000000000000000000000000000000000000000000000009050949350505050565b60006102fc6102f784610539565b610514565b90508281526020810184848401111561031457600080fd5b61031f848285610630565b509392505050565b6000813590506103368161073b565b92915050565b600082601f83011261034d57600080fd5b813561035d8482602086016102e9565b91505092915050565b60008135905061037581610752565b92915050565b6000806000806080858703121561039157600080fd5b600061039f87828801610327565b94505060206103b087828801610327565b93505060406103c187828801610366565b925050606085013567ffffffffffffffff8111156103de57600080fd5b6103ea8782880161033c565b91505092959194509250565b6103ff816105c8565b82525050565b61040e816105da565b82525050565b600061041f8261056a565b6104298185610575565b935061043981856020860161063f565b61044281610701565b840191505092915050565b600061045a601d83610586565b915061046582610712565b602082019050919050565b61047981610626565b82525050565b600060a08201905061049460008301886103f6565b6104a160208301876103f6565b6104ae6040830186610470565b81810360608301526104c08185610414565b90506104cf6080830184610470565b9695505050505050565b60006020820190506104ee6000830184610405565b92915050565b6000602082019050818103600083015261050d8161044d565b9050919050565b600061051e61052f565b905061052a8282610672565b919050565b6000604051905090565b600067ffffffffffffffff821115610554576105536106d2565b5b61055d82610701565b9050602081019050919050565b600081519050919050565b600082825260208201905092915050565b600082825260208201905092915050565b60006105a282610626565b91506105ad83610626565b9250826105bd576105bc6106a3565b5b828204905092915050565b60006105d382610606565b9050919050565b60007fffffffff0000000000000000000000000000000000000000000000000000000082169050919050565b600073ffffffffffffffffffffffffffffffffffffffff82169050919050565b6000819050919050565b82818337600083830152505050565b60005b8381101561065d578082015181840152602081019050610642565b8381111561066c576000848401525b50505050565b61067b82610701565b810181811067ffffffffffffffff8211171561069a576106996106d2565b5b80604052505050565b7f4e487b7100000000000000000000000000000000000000000000000000000000600052601260045260246000fd5b7f4e487b7100000000000000000000000000000000000000000000000000000000600052604160045260246000fd5b6000601f19601f8301169050919050565b7f45524337323152656365697665724d6f636b3a20726576657274696e67000000600082015250565b610744816105c8565b811461074f57600080fd5b50565b61075b81610626565b811461076657600080fd5b5056fea2646970667358221220f643f832efce34a07a03d88ee6ccb10342879c6a55d73fd9051c7016f6f8b34e64736f6c63430008040033",
  "immutableReferences": {
    "614": [
      {
        "length": 32,
        "start": 704
      }
    ],
    "617": [
      {
        "length": 32,
        "start": 158
      },
      {
        "length": 32,
        "start": 370
      },
      {
        "length": 32,
        "start": 527
      }
    ]
  },
  "source": "// SPDX-License-Identifier: MIT\n\npragma solidity ^0.8.0;\n\nimport \"../token/ERC721/IERC721Receiver.sol\";\n\ncontract ERC721ReceiverMock is IERC721Receiver {\n    enum Error {\n        None,\n        RevertWithMessage,\n        RevertWithoutMessage,\n        Panic\n    }\n\n    bytes4 private immutable _retval;\n    Error private immutable _error;\n\n    event Received(address operator, address from, uint256 tokenId, bytes data, uint256 gas);\n\n    constructor(bytes4 retval, Error error) {\n        _retval = retval;\n        _error = error;\n    }\n\n    function onERC721Received(\n        address operator,\n        address from,\n        uint256 tokenId,\n        bytes memory data\n    ) public override returns (bytes4) {\n        if (_error == Error.RevertWithMessage) {\n            revert(\"ERC721ReceiverMock: reverting\");\n        } else if (_error == Error.RevertWithoutMessage) {\n            revert();\n        } else if (_error == Error.Panic) {\n            uint256 a = uint256(0) / uint256(0);\n            a;\n        }\n        emit Received(operator, from, tokenId, data, gasleft());\n        return _retval;\n    }\n}\n",
  "sourcePath": "/home/toor/nodejs/truffle/nft_demo/taudefi/taudefi-nft/contracts/lib/mocks/ERC721ReceiverMock.sol",
  "compiler": {
    "name": "solc",
    "version": "0.8.4+commit.c7e474f2.Emscripten.clang"
  },
  "schemaVersion": "3.4.1",
  "updatedAt": "2021-07-25T11:30:13.651Z",
  "devdoc": {
    "kind": "dev",
    "methods": {
      "onERC721Received(address,address,uint256,bytes)": {
        "details": "Whenever an {IERC721} `tokenId` token is transferred to this contract via {IERC721-safeTransferFrom} by `operator` from `from`, this function is called. It must return its Solidity selector to confirm the token transfer. If any other value is returned or the interface is not implemented by the recipient, the transfer will be reverted. The selector can be obtained in Solidity with `IERC721.onERC721Received.selector`."
      }
    },
    "version": 1
  },
  "userdoc": {
    "kind": "user",
    "methods": {},
    "version": 1
  }
}