{
  "contractName": "TaureumERC721Enumerable",
  "abi": [
    {
      "inputs": [],
      "stateMutability": "nonpayable",
      "type": "constructor"
    },
    {
      "anonymous": false,
      "inputs": [
        {
          "indexed": true,
          "internalType": "address",
          "name": "owner",
          "type": "address"
        },
        {
          "indexed": true,
          "internalType": "address",
          "name": "approved",
          "type": "address"
        },
        {
          "indexed": true,
          "internalType": "uint256",
          "name": "tokenId",
          "type": "uint256"
        }
      ],
      "name": "Approval",
      "type": "event"
    },
    {
      "anonymous": false,
      "inputs": [
        {
          "indexed": true,
          "internalType": "address",
          "name": "owner",
          "type": "address"
        },
        {
          "indexed": true,
          "internalType": "address",
          "name": "operator",
          "type": "address"
        },
        {
          "indexed": false,
          "internalType": "bool",
          "name": "approved",
          "type": "bool"
        }
      ],
      "name": "ApprovalForAll",
      "type": "event"
    },
    {
      "anonymous": false,
      "inputs": [
        {
          "indexed": true,
          "internalType": "address",
          "name": "previousOwner",
          "type": "address"
        },
        {
          "indexed": true,
          "internalType": "address",
          "name": "newOwner",
          "type": "address"
        }
      ],
      "name": "OwnershipTransferred",
      "type": "event"
    },
    {
      "anonymous": false,
      "inputs": [
        {
          "indexed": false,
          "internalType": "address",
          "name": "account",
          "type": "address"
        }
      ],
      "name": "Paused",
      "type": "event"
    },
    {
      "anonymous": false,
      "inputs": [
        {
          "indexed": true,
          "internalType": "address",
          "name": "from",
          "type": "address"
        },
        {
          "indexed": true,
          "internalType": "address",
          "name": "to",
          "type": "address"
        },
        {
          "indexed": true,
          "internalType": "uint256",
          "name": "tokenId",
          "type": "uint256"
        }
      ],
      "name": "Transfer",
      "type": "event"
    },
    {
      "anonymous": false,
      "inputs": [
        {
          "indexed": false,
          "internalType": "address",
          "name": "account",
          "type": "address"
        }
      ],
      "name": "Unpaused",
      "type": "event"
    },
    {
      "inputs": [
        {
          "internalType": "address",
          "name": "to",
          "type": "address"
        },
        {
          "internalType": "uint256",
          "name": "tokenId",
          "type": "uint256"
        }
      ],
      "name": "approve",
      "outputs": [],
      "stateMutability": "nonpayable",
      "type": "function"
    },
    {
      "inputs": [
        {
          "internalType": "address",
          "name": "owner",
          "type": "address"
        }
      ],
      "name": "balanceOf",
      "outputs": [
        {
          "internalType": "uint256",
          "name": "",
          "type": "uint256"
        }
      ],
      "stateMutability": "view",
      "type": "function",
      "constant": true
    },
    {
      "inputs": [],
      "name": "baseURI",
      "outputs": [
        {
          "internalType": "string",
          "name": "",
          "type": "string"
        }
      ],
      "stateMutability": "view",
      "type": "function",
      "constant": true
    },
    {
      "inputs": [
        {
          "internalType": "uint256",
          "name": "tokenId",
          "type": "uint256"
        }
      ],
      "name": "getApproved",
      "outputs": [
        {
          "internalType": "address",
          "name": "",
          "type": "address"
        }
      ],
      "stateMutability": "view",
      "type": "function",
      "constant": true
    },
    {
      "inputs": [
        {
          "internalType": "address",
          "name": "owner",
          "type": "address"
        },
        {
          "internalType": "address",
          "name": "operator",
          "type": "address"
        }
      ],
      "name": "isApprovedForAll",
      "outputs": [
        {
          "internalType": "bool",
          "name": "",
          "type": "bool"
        }
      ],
      "stateMutability": "view",
      "type": "function",
      "constant": true
    },
    {
      "inputs": [
        {
          "internalType": "address",
          "name": "to",
          "type": "address"
        },
        {
          "internalType": "string",
          "name": "uri",
          "type": "string"
        }
      ],
      "name": "mint",
      "outputs": [
        {
          "internalType": "uint256",
          "name": "",
          "type": "uint256"
        }
      ],
      "stateMutability": "nonpayable",
      "type": "function"
    },
    {
      "inputs": [],
      "name": "name",
      "outputs": [
        {
          "internalType": "string",
          "name": "",
          "type": "string"
        }
      ],
      "stateMutability": "view",
      "type": "function",
      "constant": true
    },
    {
      "inputs": [],
      "name": "owner",
      "outputs": [
        {
          "internalType": "address",
          "name": "",
          "type": "address"
        }
      ],
      "stateMutability": "view",
      "type": "function",
      "constant": true
    },
    {
      "inputs": [
        {
          "internalType": "uint256",
          "name": "tokenId",
          "type": "uint256"
        }
      ],
      "name": "ownerOf",
      "outputs": [
        {
          "internalType": "address",
          "name": "",
          "type": "address"
        }
      ],
      "stateMutability": "view",
      "type": "function",
      "constant": true
    },
    {
      "inputs": [],
      "name": "pause",
      "outputs": [],
      "stateMutability": "nonpayable",
      "type": "function"
    },
    {
      "inputs": [],
      "name": "paused",
      "outputs": [
        {
          "internalType": "bool",
          "name": "",
          "type": "bool"
        }
      ],
      "stateMutability": "view",
      "type": "function",
      "constant": true
    },
    {
      "inputs": [],
      "name": "renounceOwnership",
      "outputs": [],
      "stateMutability": "nonpayable",
      "type": "function"
    },
    {
      "inputs": [
        {
          "internalType": "address",
          "name": "to",
          "type": "address"
        },
        {
          "internalType": "string",
          "name": "uri",
          "type": "string"
        }
      ],
      "name": "safeMint",
      "outputs": [
        {
          "internalType": "uint256",
          "name": "",
          "type": "uint256"
        }
      ],
      "stateMutability": "nonpayable",
      "type": "function"
    },
    {
      "inputs": [
        {
          "internalType": "address",
          "name": "from",
          "type": "address"
        },
        {
          "internalType": "address",
          "name": "to",
          "type": "address"
        },
        {
          "internalType": "uint256",
          "name": "tokenId",
          "type": "uint256"
        }
      ],
      "name": "safeTransferFrom",
      "outputs": [],
      "stateMutability": "nonpayable",
      "type": "function"
    },
    {
      "inputs": [
        {
          "internalType": "address",
          "name": "from",
          "type": "address"
        },
        {
          "internalType": "address",
          "name": "to",
          "type": "address"
        },
        {
          "internalType": "uint256",
          "name": "tokenId",
          "type": "uint256"
        },
        {
          "internalType": "bytes",
          "name": "_data",
          "type": "bytes"
        }
      ],
      "name": "safeTransferFrom",
      "outputs": [],
      "stateMutability": "nonpayable",
      "type": "function"
    },
    {
      "inputs": [
        {
          "internalType": "address",
          "name": "operator",
          "type": "address"
        },
        {
          "internalType": "bool",
          "name": "approved",
          "type": "bool"
        }
      ],
      "name": "setApprovalForAll",
      "outputs": [],
      "stateMutability": "nonpayable",
      "type": "function"
    },
    {
      "inputs": [
        {
          "internalType": "string",
          "name": "newBaseURI",
          "type": "string"
        }
      ],
      "name": "setBaseURI",
      "outputs": [],
      "stateMutability": "nonpayable",
      "type": "function"
    },
    {
      "inputs": [],
      "name": "symbol",
      "outputs": [
        {
          "internalType": "string",
          "name": "",
          "type": "string"
        }
      ],
      "stateMutability": "view",
      "type": "function",
      "constant": true
    },
    {
      "inputs": [
        {
          "internalType": "uint256",
          "name": "index",
          "type": "uint256"
        }
      ],
      "name": "tokenByIndex",
      "outputs": [
        {
          "internalType": "uint256",
          "name": "",
          "type": "uint256"
        }
      ],
      "stateMutability": "view",
      "type": "function",
      "constant": true
    },
    {
      "inputs": [
        {
          "internalType": "address",
          "name": "owner",
          "type": "address"
        },
        {
          "internalType": "uint256",
          "name": "index",
          "type": "uint256"
        }
      ],
      "name": "tokenOfOwnerByIndex",
      "outputs": [
        {
          "internalType": "uint256",
          "name": "",
          "type": "uint256"
        }
      ],
      "stateMutability": "view",
      "type": "function",
      "constant": true
    },
    {
      "inputs": [],
      "name": "totalSupply",
      "outputs": [
        {
          "internalType": "uint256",
          "name": "",
          "type": "uint256"
        }
      ],
      "stateMutability": "view",
      "type": "function",
      "constant": true
    },
    {
      "inputs": [
        {
          "internalType": "address",
          "name": "from",
          "type": "address"
        },
        {
          "internalType": "address",
          "name": "to",
          "type": "address"
        },
        {
          "internalType": "uint256",
          "name": "tokenId",
          "type": "uint256"
        }
      ],
      "name": "transferFrom",
      "outputs": [],
      "stateMutability": "nonpayable",
      "type": "function"
    },
    {
      "inputs": [
        {
          "internalType": "address",
          "name": "newOwner",
          "type": "address"
        }
      ],
      "name": "transferOwnership",
      "outputs": [],
      "stateMutability": "nonpayable",
      "type": "function"
    },
    {
      "inputs": [],
      "name": "unPause",
      "outputs": [],
      "stateMutability": "nonpayable",
      "type": "function"
    },
    {
      "inputs": [
        {
          "internalType": "bytes4",
          "name": "interfaceId",
          "type": "bytes4"
        }
      ],
      "name": "supportsInterface",
      "outputs": [
        {
          "internalType": "bool",
          "name": "",
          "type": "bool"
        }
      ],
      "stateMutability": "view",
      "type": "function",
      "constant": true
    },
    {
      "inputs": [
        {
          "internalType": "uint256",
          "name": "tokenId",
          "type": "uint256"
        }
      ],
      "name": "tokenURI",
      "outputs": [
        {
          "internalType": "string",
          "name": "",
          "type": "string"
        }
      ],
      "stateMutability": "view",
      "type": "function",
      "constant": true
    }
  ],
  "bytecode": "0x60806040523480156200001157600080fd5b506040518060400160405280600e81526020017f5461757265756d204552433732310000000000000000000000000000000000008152506040518060400160405280600781526020017f5461757265756d00000000000000000000000000000000000000000000000000815250816000908051906020019062000096929190620001b4565b508060019080519060200190620000af929190620001b4565b5050506000600660006101000a81548160ff0219169083151502179055506000620000df620001ac60201b60201c565b905080600660016101000a81548173ffffffffffffffffffffffffffffffffffffffff021916908373ffffffffffffffffffffffffffffffffffffffff1602179055508073ffffffffffffffffffffffffffffffffffffffff16600073ffffffffffffffffffffffffffffffffffffffff167f8be0079c531659141344cd1fd0a4f28419497f9722a3daafe3b4186f6b6457e060405160405180910390a3506040518060200160405280600081525060089080519060200190620001a5929190620001b4565b50620002c9565b600033905090565b828054620001c29062000264565b90600052602060002090601f016020900481019282620001e6576000855562000232565b82601f106200020157805160ff191683800117855562000232565b8280016001018555821562000232579182015b828111156200023157825182559160200191906001019062000214565b5b50905062000241919062000245565b5090565b5b808211156200026057600081600090555060010162000246565b5090565b600060028204905060018216806200027d57607f821691505b602082108114156200029457620002936200029a565b5b50919050565b7f4e487b7100000000000000000000000000000000000000000000000000000000600052602260045260246000fd5b613e1580620002d96000396000f3fe608060405234801561001057600080fd5b506004361061018e5760003560e01c806370a08231116100de578063b88d4fde11610097578063d204c45e11610071578063d204c45e14610483578063e985e9c5146104b3578063f2fde38b146104e3578063f7b188a5146104ff5761018e565b8063b88d4fde14610407578063c87b56dd14610423578063d0def521146104535761018e565b806370a082311461036b578063715018a61461039b5780638456cb59146103a55780638da5cb5b146103af57806395d89b41146103cd578063a22cb465146103eb5761018e565b80632f745c591161014b57806355f804b31161012557806355f804b3146102e35780635c975abb146102ff5780636352211e1461031d5780636c0360eb1461034d5761018e565b80632f745c591461026757806342842e0e146102975780634f6ccce7146102b35761018e565b806301ffc9a71461019357806306fdde03146101c3578063081812fc146101e1578063095ea7b31461021157806318160ddd1461022d57806323b872dd1461024b575b600080fd5b6101ad60048036038101906101a89190612bc5565b610509565b6040516101ba919061318b565b60405180910390f35b6101cb6105eb565b6040516101d891906131a6565b60405180910390f35b6101fb60048036038101906101f69190612c58565b61067d565b60405161020891906130f2565b60405180910390f35b61022b60048036038101906102269190612b89565b610702565b005b61023561081a565b6040516102429190613488565b60405180910390f35b61026560048036038101906102609190612a2b565b610827565b005b610281600480360381019061027c9190612b89565b610887565b60405161028e9190613488565b60405180910390f35b6102b160048036038101906102ac9190612a2b565b61092c565b005b6102cd60048036038101906102c89190612c58565b61094c565b6040516102da9190613488565b60405180910390f35b6102fd60048036038101906102f89190612c17565b6109e3565b005b610307610ac1565b604051610314919061318b565b60405180910390f35b61033760048036038101906103329190612c58565b610ad8565b60405161034491906130f2565b60405180910390f35b610355610b8a565b60405161036291906131a6565b60405180910390f35b610385600480360381019061038091906129c6565b610c1c565b6040516103929190613488565b60405180910390f35b6103a3610cd4565b005b6103ad610e11565b005b6103b7610e97565b6040516103c491906130f2565b60405180910390f35b6103d5610ec1565b6040516103e291906131a6565b60405180910390f35b61040560048036038101906104009190612af5565b610f53565b005b610421600480360381019061041c9190612a7a565b6110d4565b005b61043d60048036038101906104389190612c58565b611136565b60405161044a91906131a6565b60405180910390f35b61046d60048036038101906104689190612b31565b611148565b60405161047a9190613488565b60405180910390f35b61049d60048036038101906104989190612b31565b61119b565b6040516104aa9190613488565b60405180910390f35b6104cd60048036038101906104c891906129ef565b6111ee565b6040516104da919061318b565b60405180910390f35b6104fd60048036038101906104f891906129c6565b611282565b005b61050761142e565b005b60007f80ac58cd000000000000000000000000000000000000000000000000000000007bffffffffffffffffffffffffffffffffffffffffffffffffffffffff1916827bffffffffffffffffffffffffffffffffffffffffffffffffffffffff191614806105d457507f5b5e139f000000000000000000000000000000000000000000000000000000007bffffffffffffffffffffffffffffffffffffffffffffffffffffffff1916827bffffffffffffffffffffffffffffffffffffffffffffffffffffffff1916145b806105e457506105e3826114b4565b5b9050919050565b6060600080546105fa906136c2565b80601f0160208091040260200160405190810160405280929190818152602001828054610626906136c2565b80156106735780601f1061064857610100808354040283529160200191610673565b820191906000526020600020905b81548152906001019060200180831161065657829003601f168201915b5050505050905090565b60006106888261152e565b6106c7576040517f08c379a00000000000000000000000000000000000000000000000000000000081526004016106be90613388565b60405180910390fd5b6004600083815260200190815260200160002060009054906101000a900473ffffffffffffffffffffffffffffffffffffffff169050919050565b600061070d82610ad8565b90508073ffffffffffffffffffffffffffffffffffffffff168373ffffffffffffffffffffffffffffffffffffffff16141561077e576040517f08c379a000000000000000000000000000000000000000000000000000000000815260040161077590613408565b60405180910390fd5b8073ffffffffffffffffffffffffffffffffffffffff1661079d61159a565b73ffffffffffffffffffffffffffffffffffffffff1614806107cc57506107cb816107c661159a565b6111ee565b5b61080b576040517f08c379a000000000000000000000000000000000000000000000000000000000815260040161080290613308565b60405180910390fd5b61081583836115a2565b505050565b6000600b80549050905090565b61083861083261159a565b8261165b565b610877576040517f08c379a000000000000000000000000000000000000000000000000000000000815260040161086e90613428565b60405180910390fd5b610882838383611739565b505050565b600061089283610c1c565b82106108d3576040517f08c379a00000000000000000000000000000000000000000000000000000000081526004016108ca90613208565b60405180910390fd5b600960008473ffffffffffffffffffffffffffffffffffffffff1673ffffffffffffffffffffffffffffffffffffffff168152602001908152602001600020600083815260200190815260200160002054905092915050565b610947838383604051806020016040528060008152506110d4565b505050565b600061095661081a565b8210610997576040517f08c379a000000000000000000000000000000000000000000000000000000000815260040161098e90613448565b60405180910390fd5b600b82815481106109d1577f4e487b7100000000000000000000000000000000000000000000000000000000600052603260045260246000fd5b90600052602060002001549050919050565b6109eb61159a565b73ffffffffffffffffffffffffffffffffffffffff16610a09610e97565b73ffffffffffffffffffffffffffffffffffffffff1614610a5f576040517f08c379a0000000000000000000000000000000000000000000000000000000008152600401610a56906133a8565b60405180910390fd5b610a67610ac1565b15610aa7576040517f08c379a0000000000000000000000000000000000000000000000000000000008152600401610a9e906132e8565b60405180910390fd5b8060089080519060200190610abd92919061271a565b5050565b6000600660009054906101000a900460ff16905090565b6000806002600084815260200190815260200160002060009054906101000a900473ffffffffffffffffffffffffffffffffffffffff169050600073ffffffffffffffffffffffffffffffffffffffff168173ffffffffffffffffffffffffffffffffffffffff161415610b81576040517f08c379a0000000000000000000000000000000000000000000000000000000008152600401610b7890613348565b60405180910390fd5b80915050919050565b606060088054610b99906136c2565b80601f0160208091040260200160405190810160405280929190818152602001828054610bc5906136c2565b8015610c125780601f10610be757610100808354040283529160200191610c12565b820191906000526020600020905b815481529060010190602001808311610bf557829003601f168201915b5050505050905090565b60008073ffffffffffffffffffffffffffffffffffffffff168273ffffffffffffffffffffffffffffffffffffffff161415610c8d576040517f08c379a0000000000000000000000000000000000000000000000000000000008152600401610c8490613328565b60405180910390fd5b600360008373ffffffffffffffffffffffffffffffffffffffff1673ffffffffffffffffffffffffffffffffffffffff168152602001908152602001600020549050919050565b610cdc61159a565b73ffffffffffffffffffffffffffffffffffffffff16610cfa610e97565b73ffffffffffffffffffffffffffffffffffffffff1614610d50576040517f08c379a0000000000000000000000000000000000000000000000000000000008152600401610d47906133a8565b60405180910390fd5b600073ffffffffffffffffffffffffffffffffffffffff16600660019054906101000a900473ffffffffffffffffffffffffffffffffffffffff1673ffffffffffffffffffffffffffffffffffffffff167f8be0079c531659141344cd1fd0a4f28419497f9722a3daafe3b4186f6b6457e060405160405180910390a36000600660016101000a81548173ffffffffffffffffffffffffffffffffffffffff021916908373ffffffffffffffffffffffffffffffffffffffff160217905550565b610e1961159a565b73ffffffffffffffffffffffffffffffffffffffff16610e37610e97565b73ffffffffffffffffffffffffffffffffffffffff1614610e8d576040517f08c379a0000000000000000000000000000000000000000000000000000000008152600401610e84906133a8565b60405180910390fd5b610e95611995565b565b6000600660019054906101000a900473ffffffffffffffffffffffffffffffffffffffff16905090565b606060018054610ed0906136c2565b80601f0160208091040260200160405190810160405280929190818152602001828054610efc906136c2565b8015610f495780601f10610f1e57610100808354040283529160200191610f49565b820191906000526020600020905b815481529060010190602001808311610f2c57829003601f168201915b5050505050905090565b610f5b61159a565b73ffffffffffffffffffffffffffffffffffffffff168273ffffffffffffffffffffffffffffffffffffffff161415610fc9576040517f08c379a0000000000000000000000000000000000000000000000000000000008152600401610fc0906132a8565b60405180910390fd5b8060056000610fd661159a565b73ffffffffffffffffffffffffffffffffffffffff1673ffffffffffffffffffffffffffffffffffffffff16815260200190815260200160002060008473ffffffffffffffffffffffffffffffffffffffff1673ffffffffffffffffffffffffffffffffffffffff16815260200190815260200160002060006101000a81548160ff0219169083151502179055508173ffffffffffffffffffffffffffffffffffffffff1661108361159a565b73ffffffffffffffffffffffffffffffffffffffff167f17307eab39ab6107e8899845ad3d59bd9653f200f220920489ca2b5937696c31836040516110c8919061318b565b60405180910390a35050565b6110e56110df61159a565b8361165b565b611124576040517f08c379a000000000000000000000000000000000000000000000000000000000815260040161111b90613428565b60405180910390fd5b61113084848484611a38565b50505050565b606061114182611a94565b9050919050565b60008084848460405160200161116093929190613159565b6040516020818303038152906040528051906020012060001c90506111858582611bd2565b611190818585611da0565b809150509392505050565b6000808484846040516020016111b393929190613159565b6040516020818303038152906040528051906020012060001c90506111d88582611e10565b6111e3818585611da0565b809150509392505050565b6000600560008473ffffffffffffffffffffffffffffffffffffffff1673ffffffffffffffffffffffffffffffffffffffff16815260200190815260200160002060008373ffffffffffffffffffffffffffffffffffffffff1673ffffffffffffffffffffffffffffffffffffffff16815260200190815260200160002060009054906101000a900460ff16905092915050565b61128a61159a565b73ffffffffffffffffffffffffffffffffffffffff166112a8610e97565b73ffffffffffffffffffffffffffffffffffffffff16146112fe576040517f08c379a00000000000000000000000000000000000000000000000000000000081526004016112f5906133a8565b60405180910390fd5b600073ffffffffffffffffffffffffffffffffffffffff168173ffffffffffffffffffffffffffffffffffffffff16141561136e576040517f08c379a000000000000000000000000000000000000000000000000000000000815260040161136590613248565b60405180910390fd5b8073ffffffffffffffffffffffffffffffffffffffff16600660019054906101000a900473ffffffffffffffffffffffffffffffffffffffff1673ffffffffffffffffffffffffffffffffffffffff167f8be0079c531659141344cd1fd0a4f28419497f9722a3daafe3b4186f6b6457e060405160405180910390a380600660016101000a81548173ffffffffffffffffffffffffffffffffffffffff021916908373ffffffffffffffffffffffffffffffffffffffff16021790555050565b61143661159a565b73ffffffffffffffffffffffffffffffffffffffff16611454610e97565b73ffffffffffffffffffffffffffffffffffffffff16146114aa576040517f08c379a00000000000000000000000000000000000000000000000000000000081526004016114a1906133a8565b60405180910390fd5b6114b2611e2e565b565b60007f780e9d63000000000000000000000000000000000000000000000000000000007bffffffffffffffffffffffffffffffffffffffffffffffffffffffff1916827bffffffffffffffffffffffffffffffffffffffffffffffffffffffff19161480611527575061152682611ed0565b5b9050919050565b60008073ffffffffffffffffffffffffffffffffffffffff166002600084815260200190815260200160002060009054906101000a900473ffffffffffffffffffffffffffffffffffffffff1673ffffffffffffffffffffffffffffffffffffffff1614159050919050565b600033905090565b816004600083815260200190815260200160002060006101000a81548173ffffffffffffffffffffffffffffffffffffffff021916908373ffffffffffffffffffffffffffffffffffffffff160217905550808273ffffffffffffffffffffffffffffffffffffffff1661161583610ad8565b73ffffffffffffffffffffffffffffffffffffffff167f8c5be1e5ebec7d5bd14f71427d1e84f3dd0314c0f7b2291e5b200ac8c7c3b92560405160405180910390a45050565b60006116668261152e565b6116a5576040517f08c379a000000000000000000000000000000000000000000000000000000000815260040161169c906132c8565b60405180910390fd5b60006116b083610ad8565b90508073ffffffffffffffffffffffffffffffffffffffff168473ffffffffffffffffffffffffffffffffffffffff16148061171f57508373ffffffffffffffffffffffffffffffffffffffff166117078461067d565b73ffffffffffffffffffffffffffffffffffffffff16145b80611730575061172f81856111ee565b5b91505092915050565b8273ffffffffffffffffffffffffffffffffffffffff1661175982610ad8565b73ffffffffffffffffffffffffffffffffffffffff16146117af576040517f08c379a00000000000000000000000000000000000000000000000000000000081526004016117a6906133c8565b60405180910390fd5b600073ffffffffffffffffffffffffffffffffffffffff168273ffffffffffffffffffffffffffffffffffffffff16141561181f576040517f08c379a000000000000000000000000000000000000000000000000000000000815260040161181690613288565b60405180910390fd5b61182a838383611fb2565b6118356000826115a2565b6001600360008573ffffffffffffffffffffffffffffffffffffffff1673ffffffffffffffffffffffffffffffffffffffff168152602001908152602001600020600082825461188591906135d8565b925050819055506001600360008473ffffffffffffffffffffffffffffffffffffffff1673ffffffffffffffffffffffffffffffffffffffff16815260200190815260200160002060008282546118dc9190613582565b92505081905550816002600083815260200190815260200160002060006101000a81548173ffffffffffffffffffffffffffffffffffffffff021916908373ffffffffffffffffffffffffffffffffffffffff160217905550808273ffffffffffffffffffffffffffffffffffffffff168473ffffffffffffffffffffffffffffffffffffffff167fddf252ad1be2c89b69c2b068fc378daa952ba7f163c4a11628f55a4df523b3ef60405160405180910390a4505050565b61199d610ac1565b156119dd576040517f08c379a00000000000000000000000000000000000000000000000000000000081526004016119d4906132e8565b60405180910390fd5b6001600660006101000a81548160ff0219169083151502179055507f62e78cea01bee320cd4e420270b5ea74000d11b0c9f74754ebdbfc544b05a258611a2161159a565b604051611a2e91906130f2565b60405180910390a1565b611a43848484611739565b611a4f84848484611fc2565b611a8e576040517f08c379a0000000000000000000000000000000000000000000000000000000008152600401611a8590613228565b60405180910390fd5b50505050565b6060611a9f8261152e565b611ade576040517f08c379a0000000000000000000000000000000000000000000000000000000008152600401611ad5906133e8565b60405180910390fd5b600060088054611aed906136c2565b905011611b9557600760008381526020019081526020016000208054611b12906136c2565b80601f0160208091040260200160405190810160405280929190818152602001828054611b3e906136c2565b8015611b8b5780601f10611b6057610100808354040283529160200191611b8b565b820191906000526020600020905b815481529060010190602001808311611b6e57829003601f168201915b5050505050611bcb565b600860076000848152602001908152602001600020604051602001611bbb9291906130ce565b6040516020818303038152906040525b9050919050565b600073ffffffffffffffffffffffffffffffffffffffff168273ffffffffffffffffffffffffffffffffffffffff161415611c42576040517f08c379a0000000000000000000000000000000000000000000000000000000008152600401611c3990613368565b60405180910390fd5b611c4b8161152e565b15611c8b576040517f08c379a0000000000000000000000000000000000000000000000000000000008152600401611c8290613268565b60405180910390fd5b611c9760008383611fb2565b6001600360008473ffffffffffffffffffffffffffffffffffffffff1673ffffffffffffffffffffffffffffffffffffffff1681526020019081526020016000206000828254611ce79190613582565b92505081905550816002600083815260200190815260200160002060006101000a81548173ffffffffffffffffffffffffffffffffffffffff021916908373ffffffffffffffffffffffffffffffffffffffff160217905550808273ffffffffffffffffffffffffffffffffffffffff16600073ffffffffffffffffffffffffffffffffffffffff167fddf252ad1be2c89b69c2b068fc378daa952ba7f163c4a11628f55a4df523b3ef60405160405180910390a45050565b611da98361152e565b611de8576040517f08c379a0000000000000000000000000000000000000000000000000000000008152600401611ddf90613468565b60405180910390fd5b8181600760008681526020019081526020016000209190611e0a9291906127a0565b50505050565b611e2a828260405180602001604052806000815250612159565b5050565b611e36610ac1565b611e75576040517f08c379a0000000000000000000000000000000000000000000000000000000008152600401611e6c906131e8565b60405180910390fd5b6000600660006101000a81548160ff0219169083151502179055507f5db9ee0a495bf2e6ff9c91a7834c1ba4fdd244a5e8aa4e537bd38aeae4b073aa611eb961159a565b604051611ec691906130f2565b60405180910390a1565b60007f80ac58cd000000000000000000000000000000000000000000000000000000007bffffffffffffffffffffffffffffffffffffffffffffffffffffffff1916827bffffffffffffffffffffffffffffffffffffffffffffffffffffffff19161480611f9b57507f5b5e139f000000000000000000000000000000000000000000000000000000007bffffffffffffffffffffffffffffffffffffffffffffffffffffffff1916827bffffffffffffffffffffffffffffffffffffffffffffffffffffffff1916145b80611fab5750611faa826121b4565b5b9050919050565b611fbd83838361221e565b505050565b6000611fe38473ffffffffffffffffffffffffffffffffffffffff16612332565b1561214c578373ffffffffffffffffffffffffffffffffffffffff1663150b7a0261200c61159a565b8786866040518563ffffffff1660e01b815260040161202e949392919061310d565b602060405180830381600087803b15801561204857600080fd5b505af192505050801561207957506040513d601f19601f820116820180604052508101906120769190612bee565b60015b6120fc573d80600081146120a9576040519150601f19603f3d011682016040523d82523d6000602084013e6120ae565b606091505b506000815114156120f4576040517f08c379a00000000000000000000000000000000000000000000000000000000081526004016120eb90613228565b60405180910390fd5b805181602001fd5b63150b7a0260e01b7bffffffffffffffffffffffffffffffffffffffffffffffffffffffff1916817bffffffffffffffffffffffffffffffffffffffffffffffffffffffff191614915050612151565b600190505b949350505050565b6121638383611bd2565b6121706000848484611fc2565b6121af576040517f08c379a00000000000000000000000000000000000000000000000000000000081526004016121a690613228565b60405180910390fd5b505050565b60007f01ffc9a7000000000000000000000000000000000000000000000000000000007bffffffffffffffffffffffffffffffffffffffffffffffffffffffff1916827bffffffffffffffffffffffffffffffffffffffffffffffffffffffff1916149050919050565b612229838383612345565b600073ffffffffffffffffffffffffffffffffffffffff168373ffffffffffffffffffffffffffffffffffffffff16141561226c576122678161239d565b6122ab565b8173ffffffffffffffffffffffffffffffffffffffff168373ffffffffffffffffffffffffffffffffffffffff16146122aa576122a983826123e6565b5b5b600073ffffffffffffffffffffffffffffffffffffffff168273ffffffffffffffffffffffffffffffffffffffff1614156122ee576122e981612553565b61232d565b8273ffffffffffffffffffffffffffffffffffffffff168273ffffffffffffffffffffffffffffffffffffffff161461232c5761232b8282612696565b5b5b505050565b600080823b905060008111915050919050565b612350838383612715565b612358610ac1565b15612398576040517f08c379a000000000000000000000000000000000000000000000000000000000815260040161238f906131c8565b60405180910390fd5b505050565b600b80549050600c600083815260200190815260200160002081905550600b81908060018154018082558091505060019003906000526020600020016000909190919091505550565b600060016123f384610c1c565b6123fd91906135d8565b90506000600a60008481526020019081526020016000205490508181146124e2576000600960008673ffffffffffffffffffffffffffffffffffffffff1673ffffffffffffffffffffffffffffffffffffffff168152602001908152602001600020600084815260200190815260200160002054905080600960008773ffffffffffffffffffffffffffffffffffffffff1673ffffffffffffffffffffffffffffffffffffffff16815260200190815260200160002060008481526020019081526020016000208190555081600a600083815260200190815260200160002081905550505b600a600084815260200190815260200160002060009055600960008573ffffffffffffffffffffffffffffffffffffffff1673ffffffffffffffffffffffffffffffffffffffff16815260200190815260200160002060008381526020019081526020016000206000905550505050565b60006001600b8054905061256791906135d8565b90506000600c60008481526020019081526020016000205490506000600b83815481106125bd577f4e487b7100000000000000000000000000000000000000000000000000000000600052603260045260246000fd5b9060005260206000200154905080600b8381548110612605577f4e487b7100000000000000000000000000000000000000000000000000000000600052603260045260246000fd5b906000526020600020018190555081600c600083815260200190815260200160002081905550600c600085815260200190815260200160002060009055600b80548061267a577f4e487b7100000000000000000000000000000000000000000000000000000000600052603160045260246000fd5b6001900381819060005260206000200160009055905550505050565b60006126a183610c1c565b905081600960008573ffffffffffffffffffffffffffffffffffffffff1673ffffffffffffffffffffffffffffffffffffffff16815260200190815260200160002060008381526020019081526020016000208190555080600a600084815260200190815260200160002081905550505050565b505050565b828054612726906136c2565b90600052602060002090601f016020900481019282612748576000855561278f565b82601f1061276157805160ff191683800117855561278f565b8280016001018555821561278f579182015b8281111561278e578251825591602001919060010190612773565b5b50905061279c9190612826565b5090565b8280546127ac906136c2565b90600052602060002090601f0160209004810192826127ce5760008555612815565b82601f106127e757803560ff1916838001178555612815565b82800160010185558215612815579182015b828111156128145782358255916020019190600101906127f9565b5b5090506128229190612826565b5090565b5b8082111561283f576000816000905550600101612827565b5090565b6000612856612851846134c8565b6134a3565b90508281526020810184848401111561286e57600080fd5b612879848285613680565b509392505050565b600061289461288f846134f9565b6134a3565b9050828152602081018484840111156128ac57600080fd5b6128b7848285613680565b509392505050565b6000813590506128ce81613d83565b92915050565b6000813590506128e381613d9a565b92915050565b6000813590506128f881613db1565b92915050565b60008151905061290d81613db1565b92915050565b600082601f83011261292457600080fd5b8135612934848260208601612843565b91505092915050565b60008083601f84011261294f57600080fd5b8235905067ffffffffffffffff81111561296857600080fd5b60208301915083600182028301111561298057600080fd5b9250929050565b600082601f83011261299857600080fd5b81356129a8848260208601612881565b91505092915050565b6000813590506129c081613dc8565b92915050565b6000602082840312156129d857600080fd5b60006129e6848285016128bf565b91505092915050565b60008060408385031215612a0257600080fd5b6000612a10858286016128bf565b9250506020612a21858286016128bf565b9150509250929050565b600080600060608486031215612a4057600080fd5b6000612a4e868287016128bf565b9350506020612a5f868287016128bf565b9250506040612a70868287016129b1565b9150509250925092565b60008060008060808587031215612a9057600080fd5b6000612a9e878288016128bf565b9450506020612aaf878288016128bf565b9350506040612ac0878288016129b1565b925050606085013567ffffffffffffffff811115612add57600080fd5b612ae987828801612913565b91505092959194509250565b60008060408385031215612b0857600080fd5b6000612b16858286016128bf565b9250506020612b27858286016128d4565b9150509250929050565b600080600060408486031215612b4657600080fd5b6000612b54868287016128bf565b935050602084013567ffffffffffffffff811115612b7157600080fd5b612b7d8682870161293d565b92509250509250925092565b60008060408385031215612b9c57600080fd5b6000612baa858286016128bf565b9250506020612bbb858286016129b1565b9150509250929050565b600060208284031215612bd757600080fd5b6000612be5848285016128e9565b91505092915050565b600060208284031215612c0057600080fd5b6000612c0e848285016128fe565b91505092915050565b600060208284031215612c2957600080fd5b600082013567ffffffffffffffff811115612c4357600080fd5b612c4f84828501612987565b91505092915050565b600060208284031215612c6a57600080fd5b6000612c78848285016129b1565b91505092915050565b612c8a8161360c565b82525050565b612c998161361e565b82525050565b6000612caa8261353f565b612cb48185613555565b9350612cc481856020860161368f565b612ccd816137b2565b840191505092915050565b6000612ce48385613566565b9350612cf1838584613680565b612cfa836137b2565b840190509392505050565b6000612d108261354a565b612d1a8185613566565b9350612d2a81856020860161368f565b612d33816137b2565b840191505092915050565b60008154612d4b816136c2565b612d558186613577565b94506001821660008114612d705760018114612d8157612db4565b60ff19831686528186019350612db4565b612d8a8561352a565b60005b83811015612dac57815481890152600182019150602081019050612d8d565b838801955050505b50505092915050565b6000612dca602b83613566565b9150612dd5826137c3565b604082019050919050565b6000612ded601483613566565b9150612df882613812565b602082019050919050565b6000612e10602b83613566565b9150612e1b8261383b565b604082019050919050565b6000612e33603283613566565b9150612e3e8261388a565b604082019050919050565b6000612e56602683613566565b9150612e61826138d9565b604082019050919050565b6000612e79601c83613566565b9150612e8482613928565b602082019050919050565b6000612e9c602483613566565b9150612ea782613951565b604082019050919050565b6000612ebf601983613566565b9150612eca826139a0565b602082019050919050565b6000612ee2602c83613566565b9150612eed826139c9565b604082019050919050565b6000612f05601083613566565b9150612f1082613a18565b602082019050919050565b6000612f28603883613566565b9150612f3382613a41565b604082019050919050565b6000612f4b602a83613566565b9150612f5682613a90565b604082019050919050565b6000612f6e602983613566565b9150612f7982613adf565b604082019050919050565b6000612f91602083613566565b9150612f9c82613b2e565b602082019050919050565b6000612fb4602c83613566565b9150612fbf82613b57565b604082019050919050565b6000612fd7602083613566565b9150612fe282613ba6565b602082019050919050565b6000612ffa602983613566565b915061300582613bcf565b604082019050919050565b600061301d602f83613566565b915061302882613c1e565b604082019050919050565b6000613040602183613566565b915061304b82613c6d565b604082019050919050565b6000613063603183613566565b915061306e82613cbc565b604082019050919050565b6000613086602c83613566565b915061309182613d0b565b604082019050919050565b60006130a9601483613566565b91506130b482613d5a565b602082019050919050565b6130c881613676565b82525050565b60006130da8285612d3e565b91506130e68284612d3e565b91508190509392505050565b60006020820190506131076000830184612c81565b92915050565b60006080820190506131226000830187612c81565b61312f6020830186612c81565b61313c60408301856130bf565b818103606083015261314e8184612c9f565b905095945050505050565b600060408201905061316e6000830186612c81565b8181036020830152613181818486612cd8565b9050949350505050565b60006020820190506131a06000830184612c90565b92915050565b600060208201905081810360008301526131c08184612d05565b905092915050565b600060208201905081810360008301526131e181612dbd565b9050919050565b6000602082019050818103600083015261320181612de0565b9050919050565b6000602082019050818103600083015261322181612e03565b9050919050565b6000602082019050818103600083015261324181612e26565b9050919050565b6000602082019050818103600083015261326181612e49565b9050919050565b6000602082019050818103600083015261328181612e6c565b9050919050565b600060208201905081810360008301526132a181612e8f565b9050919050565b600060208201905081810360008301526132c181612eb2565b9050919050565b600060208201905081810360008301526132e181612ed5565b9050919050565b6000602082019050818103600083015261330181612ef8565b9050919050565b6000602082019050818103600083015261332181612f1b565b9050919050565b6000602082019050818103600083015261334181612f3e565b9050919050565b6000602082019050818103600083015261336181612f61565b9050919050565b6000602082019050818103600083015261338181612f84565b9050919050565b600060208201905081810360008301526133a181612fa7565b9050919050565b600060208201905081810360008301526133c181612fca565b9050919050565b600060208201905081810360008301526133e181612fed565b9050919050565b6000602082019050818103600083015261340181613010565b9050919050565b6000602082019050818103600083015261342181613033565b9050919050565b6000602082019050818103600083015261344181613056565b9050919050565b6000602082019050818103600083015261346181613079565b9050919050565b600060208201905081810360008301526134818161309c565b9050919050565b600060208201905061349d60008301846130bf565b92915050565b60006134ad6134be565b90506134b982826136f4565b919050565b6000604051905090565b600067ffffffffffffffff8211156134e3576134e2613783565b5b6134ec826137b2565b9050602081019050919050565b600067ffffffffffffffff82111561351457613513613783565b5b61351d826137b2565b9050602081019050919050565b60008190508160005260206000209050919050565b600081519050919050565b600081519050919050565b600082825260208201905092915050565b600082825260208201905092915050565b600081905092915050565b600061358d82613676565b915061359883613676565b9250827fffffffffffffffffffffffffffffffffffffffffffffffffffffffffffffffff038211156135cd576135cc613725565b5b828201905092915050565b60006135e382613676565b91506135ee83613676565b92508282101561360157613600613725565b5b828203905092915050565b600061361782613656565b9050919050565b60008115159050919050565b60007fffffffff0000000000000000000000000000000000000000000000000000000082169050919050565b600073ffffffffffffffffffffffffffffffffffffffff82169050919050565b6000819050919050565b82818337600083830152505050565b60005b838110156136ad578082015181840152602081019050613692565b838111156136bc576000848401525b50505050565b600060028204905060018216806136da57607f821691505b602082108114156136ee576136ed613754565b5b50919050565b6136fd826137b2565b810181811067ffffffffffffffff8211171561371c5761371b613783565b5b80604052505050565b7f4e487b7100000000000000000000000000000000000000000000000000000000600052601160045260246000fd5b7f4e487b7100000000000000000000000000000000000000000000000000000000600052602260045260246000fd5b7f4e487b7100000000000000000000000000000000000000000000000000000000600052604160045260246000fd5b6000601f19601f8301169050919050565b7f4552433732315061757361626c653a20746f6b656e207472616e73666572207760008201527f68696c6520706175736564000000000000000000000000000000000000000000602082015250565b7f5061757361626c653a206e6f7420706175736564000000000000000000000000600082015250565b7f455243373231456e756d657261626c653a206f776e657220696e646578206f7560008201527f74206f6620626f756e6473000000000000000000000000000000000000000000602082015250565b7f4552433732313a207472616e7366657220746f206e6f6e20455243373231526560008201527f63656976657220696d706c656d656e7465720000000000000000000000000000602082015250565b7f4f776e61626c653a206e6577206f776e657220697320746865207a65726f206160008201527f6464726573730000000000000000000000000000000000000000000000000000602082015250565b7f4552433732313a20746f6b656e20616c7265616479206d696e74656400000000600082015250565b7f4552433732313a207472616e7366657220746f20746865207a65726f2061646460008201527f7265737300000000000000000000000000000000000000000000000000000000602082015250565b7f4552433732313a20617070726f766520746f2063616c6c657200000000000000600082015250565b7f4552433732313a206f70657261746f7220717565727920666f72206e6f6e657860008201527f697374656e7420746f6b656e0000000000000000000000000000000000000000602082015250565b7f5061757361626c653a2070617573656400000000000000000000000000000000600082015250565b7f4552433732313a20617070726f76652063616c6c6572206973206e6f74206f7760008201527f6e6572206e6f7220617070726f76656420666f7220616c6c0000000000000000602082015250565b7f4552433732313a2062616c616e636520717565727920666f7220746865207a6560008201527f726f206164647265737300000000000000000000000000000000000000000000602082015250565b7f4552433732313a206f776e657220717565727920666f72206e6f6e657869737460008201527f656e7420746f6b656e0000000000000000000000000000000000000000000000602082015250565b7f4552433732313a206d696e7420746f20746865207a65726f2061646472657373600082015250565b7f4552433732313a20617070726f76656420717565727920666f72206e6f6e657860008201527f697374656e7420746f6b656e0000000000000000000000000000000000000000602082015250565b7f4f776e61626c653a2063616c6c6572206973206e6f7420746865206f776e6572600082015250565b7f4552433732313a207472616e73666572206f6620746f6b656e2074686174206960008201527f73206e6f74206f776e0000000000000000000000000000000000000000000000602082015250565b7f4552433732314d657461646174613a2055524920717565727920666f72206e6f60008201527f6e6578697374656e7420746f6b656e0000000000000000000000000000000000602082015250565b7f4552433732313a20617070726f76616c20746f2063757272656e74206f776e6560008201527f7200000000000000000000000000000000000000000000000000000000000000602082015250565b7f4552433732313a207472616e736665722063616c6c6572206973206e6f74206f60008201527f776e6572206e6f7220617070726f766564000000000000000000000000000000602082015250565b7f455243373231456e756d657261626c653a20676c6f62616c20696e646578206f60008201527f7574206f6620626f756e64730000000000000000000000000000000000000000602082015250565b7f544f4b454e5f49445f4e4f545f45584953544544000000000000000000000000600082015250565b613d8c8161360c565b8114613d9757600080fd5b50565b613da38161361e565b8114613dae57600080fd5b50565b613dba8161362a565b8114613dc557600080fd5b50565b613dd181613676565b8114613ddc57600080fd5b5056fea264697066735822122081f3db0c8048fd94da34445499ebb023532a945392df884e74529452756dd30064736f6c63430008040033",
  "immutableReferences": {},
  "source": "// SPDX-License-Identifier: UNLICENSED\n\npragma solidity ^0.8.4;\n\nimport \"./TaureumERC721.sol\";\nimport \"../../lib/token/ERC721/extensions/ERC721Enumerable.sol\";\n\ncontract TaureumERC721Enumerable is TaureumERC721, ERC721Enumerable {\n    /**\n     * @dev Create a new TaureumERC721Enumerable contract.\n     *\n     */\n    constructor() TaureumERC721() {}\n\n    /**\n     * @dev See {IERC165-supportsInterface}.\n     */\n    function supportsInterface(bytes4 interfaceId) public view virtual override(ERC721, ERC721Enumerable) returns (bool) {\n        return\n        interfaceId == type(IERC721).interfaceId ||\n        interfaceId == type(IERC721Metadata).interfaceId ||\n        ERC721Enumerable.supportsInterface(interfaceId);\n    }\n\n    /**\n     * @dev See {IERC721Metadata-tokenURI}.\n     */\n    function tokenURI(uint256 tokenId) public view override(ERC721, TaureumERC721) returns (string memory) {\n        return TaureumERC721.tokenURI(tokenId);\n    }\n\n    /**\n     * @dev Base URI for computing {tokenURI}. If set, the resulting URI for each\n     * token will be the concatenation of the `baseURI` and the `tokenId`.\n     */\n    function _baseURI() internal view override(ERC721, TaureumERC721) returns (string memory) {\n        return TaureumERC721._baseURI();\n    }\n\n    /**\n     * @dev Hook that is called before any token transfer. This includes minting\n     * and burning.\n     *\n     * Calling conditions:\n     *\n     * - When `from` and `to` are both non-zero, ``from``'s `tokenId` will be\n     * transferred to `to`.\n     * - When `from` is zero, `tokenId` will be minted for `to`.\n     * - When `to` is zero, ``from``'s `tokenId` will be burned.\n     * - `from` cannot be the zero address.\n     * - `to` cannot be the zero address.\n     *\n     * To learn more about hooks, head to xref:ROOT:extending-contracts.adoc#using-hooks[Using Hooks].\n     */\n    function _beforeTokenTransfer(address from, address to, uint256 tokenId) internal override(ERC721Pausable, ERC721Enumerable) {\n        ERC721Enumerable._beforeTokenTransfer(from, to, tokenId);\n    }\n}\n",
  "sourcePath": "/home/toor/nodejs/truffle/nft_demo/taureum/taureum-nft-sc/contracts/tokens/ERC721/TaureumERC721Enumerable.sol",
  "compiler": {
    "name": "solc",
    "version": "0.8.4+commit.c7e474f2.Emscripten.clang"
  },
  "schemaVersion": "3.4.1",
  "updatedAt": "2021-08-29T07:21:15.103Z",
  "networkType": "ethereum",
  "devdoc": {
    "kind": "dev",
    "methods": {
      "approve(address,uint256)": {
        "details": "See {IERC721-approve}."
      },
      "balanceOf(address)": {
        "details": "See {IERC721-balanceOf}."
      },
      "baseURI()": {
        "details": "Returns `__baseURI`."
      },
      "constructor": {
        "details": "Create a new TaureumERC721Enumerable contract."
      },
      "getApproved(uint256)": {
        "details": "See {IERC721-getApproved}."
      },
      "isApprovedForAll(address,address)": {
        "details": "See {IERC721-isApprovedForAll}."
      },
      "mint(address,string)": {
        "details": "Mint a new NFT.",
        "params": {
          "to": "The address that will own the minted NFT.",
          "uri": "The URI consists of metadata description of the minting NFT on the IPFS (without prefix)."
        }
      },
      "name()": {
        "details": "See {IERC721Metadata-name}."
      },
      "owner()": {
        "details": "Returns the address of the current owner."
      },
      "ownerOf(uint256)": {
        "details": "See {IERC721-ownerOf}."
      },
      "pause()": {
        "details": "Pause the contract in case of bugs/attacks."
      },
      "paused()": {
        "details": "Returns true if the contract is paused, and false otherwise."
      },
      "renounceOwnership()": {
        "details": "Leaves the contract without owner. It will not be possible to call `onlyOwner` functions anymore. Can only be called by the current owner. NOTE: Renouncing ownership will leave the contract without an owner, thereby removing any functionality that is only available to the owner."
      },
      "safeMint(address,string)": {
        "details": "Safely mint a new NFT.",
        "params": {
          "to": "The address that will own the minted NFT.",
          "uri": "The URI consists of metadata description of the minting NFT on the IPFS (without prefix)."
        }
      },
      "safeTransferFrom(address,address,uint256)": {
        "details": "See {IERC721-safeTransferFrom}."
      },
      "safeTransferFrom(address,address,uint256,bytes)": {
        "details": "See {IERC721-safeTransferFrom}."
      },
      "setApprovalForAll(address,bool)": {
        "details": "See {IERC721-setApprovalForAll}."
      },
      "setBaseURI(string)": {
        "details": "Sets new value for the `__baseURI`. This operation can only been done by the owner of this contract."
      },
      "supportsInterface(bytes4)": {
        "details": "See {IERC165-supportsInterface}."
      },
      "symbol()": {
        "details": "See {IERC721Metadata-symbol}."
      },
      "tokenByIndex(uint256)": {
        "details": "See {IERC721Enumerable-tokenByIndex}."
      },
      "tokenOfOwnerByIndex(address,uint256)": {
        "details": "See {IERC721Enumerable-tokenOfOwnerByIndex}."
      },
      "tokenURI(uint256)": {
        "details": "See {IERC721Metadata-tokenURI}."
      },
      "totalSupply()": {
        "details": "See {IERC721Enumerable-totalSupply}."
      },
      "transferFrom(address,address,uint256)": {
        "details": "See {IERC721-transferFrom}."
      },
      "transferOwnership(address)": {
        "details": "Transfers ownership of the contract to a new account (`newOwner`). Can only be called by the current owner."
      },
      "unPause()": {
        "details": "Resume the contract after being paused."
      }
    },
    "version": 1
  },
  "userdoc": {
    "kind": "user",
    "methods": {
      "mint(address,string)": {
        "notice": "It throws an exception if    - `to` is a \"ZERO_ADDRESS."
      },
      "pause()": {
        "notice": "Only the owner can call this method."
      },
      "safeMint(address,string)": {
        "notice": "It throws an exception if    - `to` is a \"ZERO_ADDRESS.    - If `to` refers to a smart contract, it must implement {IERC721Receiver-onERC721Received}, which is called upon a safe transfer."
      },
      "unPause()": {
        "notice": "Only the owner can call this method."
      }
    },
    "version": 1
  }
}