{
  "contractName": "TaureumERC721Enumerable",
  "abi": [
    {
      "inputs": [],
      "stateMutability": "nonpayable",
      "type": "constructor"
    },
    {
      "anonymous": false,
      "inputs": [
        {
          "indexed": true,
          "internalType": "address",
          "name": "owner",
          "type": "address"
        },
        {
          "indexed": true,
          "internalType": "address",
          "name": "approved",
          "type": "address"
        },
        {
          "indexed": true,
          "internalType": "uint256",
          "name": "tokenId",
          "type": "uint256"
        }
      ],
      "name": "Approval",
      "type": "event"
    },
    {
      "anonymous": false,
      "inputs": [
        {
          "indexed": true,
          "internalType": "address",
          "name": "owner",
          "type": "address"
        },
        {
          "indexed": true,
          "internalType": "address",
          "name": "operator",
          "type": "address"
        },
        {
          "indexed": false,
          "internalType": "bool",
          "name": "approved",
          "type": "bool"
        }
      ],
      "name": "ApprovalForAll",
      "type": "event"
    },
    {
      "anonymous": false,
      "inputs": [
        {
          "indexed": true,
          "internalType": "address",
          "name": "previousOwner",
          "type": "address"
        },
        {
          "indexed": true,
          "internalType": "address",
          "name": "newOwner",
          "type": "address"
        }
      ],
      "name": "OwnershipTransferred",
      "type": "event"
    },
    {
      "anonymous": false,
      "inputs": [
        {
          "indexed": true,
          "internalType": "address",
          "name": "from",
          "type": "address"
        },
        {
          "indexed": true,
          "internalType": "address",
          "name": "to",
          "type": "address"
        },
        {
          "indexed": true,
          "internalType": "uint256",
          "name": "tokenId",
          "type": "uint256"
        }
      ],
      "name": "Transfer",
      "type": "event"
    },
    {
      "inputs": [
        {
          "internalType": "address",
          "name": "to",
          "type": "address"
        },
        {
          "internalType": "uint256",
          "name": "tokenId",
          "type": "uint256"
        }
      ],
      "name": "approve",
      "outputs": [],
      "stateMutability": "nonpayable",
      "type": "function"
    },
    {
      "inputs": [
        {
          "internalType": "address",
          "name": "owner",
          "type": "address"
        }
      ],
      "name": "balanceOf",
      "outputs": [
        {
          "internalType": "uint256",
          "name": "",
          "type": "uint256"
        }
      ],
      "stateMutability": "view",
      "type": "function",
      "constant": true
    },
    {
      "inputs": [
        {
          "internalType": "uint256",
          "name": "tokenId",
          "type": "uint256"
        }
      ],
      "name": "getApproved",
      "outputs": [
        {
          "internalType": "address",
          "name": "",
          "type": "address"
        }
      ],
      "stateMutability": "view",
      "type": "function",
      "constant": true
    },
    {
      "inputs": [
        {
          "internalType": "address",
          "name": "owner",
          "type": "address"
        },
        {
          "internalType": "address",
          "name": "operator",
          "type": "address"
        }
      ],
      "name": "isApprovedForAll",
      "outputs": [
        {
          "internalType": "bool",
          "name": "",
          "type": "bool"
        }
      ],
      "stateMutability": "view",
      "type": "function",
      "constant": true
    },
    {
      "inputs": [],
      "name": "name",
      "outputs": [
        {
          "internalType": "string",
          "name": "",
          "type": "string"
        }
      ],
      "stateMutability": "view",
      "type": "function",
      "constant": true
    },
    {
      "inputs": [],
      "name": "owner",
      "outputs": [
        {
          "internalType": "address",
          "name": "",
          "type": "address"
        }
      ],
      "stateMutability": "view",
      "type": "function",
      "constant": true
    },
    {
      "inputs": [
        {
          "internalType": "uint256",
          "name": "tokenId",
          "type": "uint256"
        }
      ],
      "name": "ownerOf",
      "outputs": [
        {
          "internalType": "address",
          "name": "",
          "type": "address"
        }
      ],
      "stateMutability": "view",
      "type": "function",
      "constant": true
    },
    {
      "inputs": [],
      "name": "renounceOwnership",
      "outputs": [],
      "stateMutability": "nonpayable",
      "type": "function"
    },
    {
      "inputs": [
        {
          "internalType": "address",
          "name": "operator",
          "type": "address"
        },
        {
          "internalType": "bool",
          "name": "approved",
          "type": "bool"
        }
      ],
      "name": "setApprovalForAll",
      "outputs": [],
      "stateMutability": "nonpayable",
      "type": "function"
    },
    {
      "inputs": [],
      "name": "symbol",
      "outputs": [
        {
          "internalType": "string",
          "name": "",
          "type": "string"
        }
      ],
      "stateMutability": "view",
      "type": "function",
      "constant": true
    },
    {
      "inputs": [
        {
          "internalType": "uint256",
          "name": "index",
          "type": "uint256"
        }
      ],
      "name": "tokenByIndex",
      "outputs": [
        {
          "internalType": "uint256",
          "name": "",
          "type": "uint256"
        }
      ],
      "stateMutability": "view",
      "type": "function",
      "constant": true
    },
    {
      "inputs": [
        {
          "internalType": "address",
          "name": "owner",
          "type": "address"
        },
        {
          "internalType": "uint256",
          "name": "index",
          "type": "uint256"
        }
      ],
      "name": "tokenOfOwnerByIndex",
      "outputs": [
        {
          "internalType": "uint256",
          "name": "",
          "type": "uint256"
        }
      ],
      "stateMutability": "view",
      "type": "function",
      "constant": true
    },
    {
      "inputs": [],
      "name": "totalSupply",
      "outputs": [
        {
          "internalType": "uint256",
          "name": "",
          "type": "uint256"
        }
      ],
      "stateMutability": "view",
      "type": "function",
      "constant": true
    },
    {
      "inputs": [
        {
          "internalType": "address",
          "name": "newOwner",
          "type": "address"
        }
      ],
      "name": "transferOwnership",
      "outputs": [],
      "stateMutability": "nonpayable",
      "type": "function"
    },
    {
      "inputs": [
        {
          "internalType": "bytes4",
          "name": "interfaceId",
          "type": "bytes4"
        }
      ],
      "name": "supportsInterface",
      "outputs": [
        {
          "internalType": "bool",
          "name": "",
          "type": "bool"
        }
      ],
      "stateMutability": "view",
      "type": "function",
      "constant": true
    },
    {
      "inputs": [
        {
          "internalType": "address",
          "name": "to",
          "type": "address"
        },
        {
          "internalType": "string",
          "name": "uri",
          "type": "string"
        }
      ],
      "name": "mint",
      "outputs": [
        {
          "internalType": "uint256",
          "name": "",
          "type": "uint256"
        }
      ],
      "stateMutability": "nonpayable",
      "type": "function"
    },
    {
      "inputs": [
        {
          "internalType": "uint256",
          "name": "tokenId",
          "type": "uint256"
        }
      ],
      "name": "tokenURI",
      "outputs": [
        {
          "internalType": "string",
          "name": "",
          "type": "string"
        }
      ],
      "stateMutability": "view",
      "type": "function",
      "constant": true
    },
    {
      "inputs": [
        {
          "internalType": "address",
          "name": "from",
          "type": "address"
        },
        {
          "internalType": "address",
          "name": "to",
          "type": "address"
        },
        {
          "internalType": "uint256",
          "name": "tokenId",
          "type": "uint256"
        }
      ],
      "name": "transferFrom",
      "outputs": [],
      "stateMutability": "nonpayable",
      "type": "function"
    },
    {
      "inputs": [
        {
          "internalType": "address",
          "name": "from",
          "type": "address"
        },
        {
          "internalType": "address",
          "name": "to",
          "type": "address"
        },
        {
          "internalType": "uint256",
          "name": "tokenId",
          "type": "uint256"
        }
      ],
      "name": "safeTransferFrom",
      "outputs": [],
      "stateMutability": "nonpayable",
      "type": "function"
    },
    {
      "inputs": [
        {
          "internalType": "address",
          "name": "from",
          "type": "address"
        },
        {
          "internalType": "address",
          "name": "to",
          "type": "address"
        },
        {
          "internalType": "uint256",
          "name": "tokenId",
          "type": "uint256"
        },
        {
          "internalType": "bytes",
          "name": "_data",
          "type": "bytes"
        }
      ],
      "name": "safeTransferFrom",
      "outputs": [],
      "stateMutability": "nonpayable",
      "type": "function"
    }
  ],
  "bytecode": "0x60806040523480156200001157600080fd5b506040518060400160405280601881526020017f5461757265756d20455243373231456e756d657261626c6500000000000000008152506040518060400160405280600781526020017f5461757265756d0000000000000000000000000000000000000000000000000081525081600090805190602001906200009692919062000171565b508060019080519060200190620000af92919062000171565b5050506000620000c46200016960201b60201c565b905080600a60006101000a81548173ffffffffffffffffffffffffffffffffffffffff021916908373ffffffffffffffffffffffffffffffffffffffff1602179055508073ffffffffffffffffffffffffffffffffffffffff16600073ffffffffffffffffffffffffffffffffffffffff167f8be0079c531659141344cd1fd0a4f28419497f9722a3daafe3b4186f6b6457e060405160405180910390a35062000286565b600033905090565b8280546200017f9062000221565b90600052602060002090601f016020900481019282620001a35760008555620001ef565b82601f10620001be57805160ff1916838001178555620001ef565b82800160010185558215620001ef579182015b82811115620001ee578251825591602001919060010190620001d1565b5b509050620001fe919062000202565b5090565b5b808211156200021d57600081600090555060010162000203565b5090565b600060028204905060018216806200023a57607f821691505b6020821081141562000251576200025062000257565b5b50919050565b7f4e487b7100000000000000000000000000000000000000000000000000000000600052602260045260246000fd5b61369d80620002966000396000f3fe608060405234801561001057600080fd5b506004361061012c5760003560e01c806370a08231116100ad578063b88d4fde11610071578063b88d4fde14610343578063c87b56dd1461035f578063d0def5211461038f578063e985e9c5146103bf578063f2fde38b146103ef5761012c565b806370a08231146102b1578063715018a6146102e15780638da5cb5b146102eb57806395d89b4114610309578063a22cb465146103275761012c565b806323b872dd116100f457806323b872dd146101e95780632f745c591461020557806342842e0e146102355780634f6ccce7146102515780636352211e146102815761012c565b806301ffc9a71461013157806306fdde0314610161578063081812fc1461017f578063095ea7b3146101af57806318160ddd146101cb575b600080fd5b61014b6004803603810190610146919061258c565b61040b565b6040516101589190612afc565b60405180910390f35b6101696104ed565b6040516101769190612b17565b60405180910390f35b610199600480360381019061019491906125de565b61057f565b6040516101a69190612a63565b60405180910390f35b6101c960048036038101906101c49190612550565b610604565b005b6101d361071c565b6040516101e09190612db9565b60405180910390f35b61020360048036038101906101fe91906123f2565b610729565b005b61021f600480360381019061021a9190612550565b610789565b60405161022c9190612db9565b60405180910390f35b61024f600480360381019061024a91906123f2565b61082e565b005b61026b600480360381019061026691906125de565b61084e565b6040516102789190612db9565b60405180910390f35b61029b600480360381019061029691906125de565b6108e5565b6040516102a89190612a63565b60405180910390f35b6102cb60048036038101906102c6919061238d565b610997565b6040516102d89190612db9565b60405180910390f35b6102e9610a4f565b005b6102f3610b8c565b6040516103009190612a63565b60405180910390f35b610311610bb6565b60405161031e9190612b17565b60405180910390f35b610341600480360381019061033c91906124bc565b610c48565b005b61035d60048036038101906103589190612441565b610dc9565b005b610379600480360381019061037491906125de565b610e2b565b6040516103869190612b17565b60405180910390f35b6103a960048036038101906103a491906124f8565b610f68565b6040516103b69190612db9565b60405180910390f35b6103d960048036038101906103d491906123b6565b610fed565b6040516103e69190612afc565b60405180910390f35b6104096004803603810190610404919061238d565b611081565b005b60007f80ac58cd000000000000000000000000000000000000000000000000000000007bffffffffffffffffffffffffffffffffffffffffffffffffffffffff1916827bffffffffffffffffffffffffffffffffffffffffffffffffffffffff191614806104d657507f5b5e139f000000000000000000000000000000000000000000000000000000007bffffffffffffffffffffffffffffffffffffffffffffffffffffffff1916827bffffffffffffffffffffffffffffffffffffffffffffffffffffffff1916145b806104e657506104e58261122d565b5b9050919050565b6060600080546104fc90612fc2565b80601f016020809104026020016040519081016040528092919081815260200182805461052890612fc2565b80156105755780601f1061054a57610100808354040283529160200191610575565b820191906000526020600020905b81548152906001019060200180831161055857829003601f168201915b5050505050905090565b600061058a826112a7565b6105c9576040517f08c379a00000000000000000000000000000000000000000000000000000000081526004016105c090612cb9565b60405180910390fd5b6004600083815260200190815260200160002060009054906101000a900473ffffffffffffffffffffffffffffffffffffffff169050919050565b600061060f826108e5565b90508073ffffffffffffffffffffffffffffffffffffffff168373ffffffffffffffffffffffffffffffffffffffff161415610680576040517f08c379a000000000000000000000000000000000000000000000000000000000815260040161067790612d39565b60405180910390fd5b8073ffffffffffffffffffffffffffffffffffffffff1661069f611313565b73ffffffffffffffffffffffffffffffffffffffff1614806106ce57506106cd816106c8611313565b610fed565b5b61070d576040517f08c379a000000000000000000000000000000000000000000000000000000000815260040161070490612c19565b60405180910390fd5b610717838361131b565b505050565b6000600880549050905090565b61073a610734611313565b826113d4565b610779576040517f08c379a000000000000000000000000000000000000000000000000000000000815260040161077090612d59565b60405180910390fd5b6107848383836114b2565b505050565b600061079483610997565b82106107d5576040517f08c379a00000000000000000000000000000000000000000000000000000000081526004016107cc90612b39565b60405180910390fd5b600660008473ffffffffffffffffffffffffffffffffffffffff1673ffffffffffffffffffffffffffffffffffffffff168152602001908152602001600020600083815260200190815260200160002054905092915050565b61084983838360405180602001604052806000815250610dc9565b505050565b600061085861071c565b8210610899576040517f08c379a000000000000000000000000000000000000000000000000000000000815260040161089090612d79565b60405180910390fd5b600882815481106108d3577f4e487b7100000000000000000000000000000000000000000000000000000000600052603260045260246000fd5b90600052602060002001549050919050565b6000806002600084815260200190815260200160002060009054906101000a900473ffffffffffffffffffffffffffffffffffffffff169050600073ffffffffffffffffffffffffffffffffffffffff168173ffffffffffffffffffffffffffffffffffffffff16141561098e576040517f08c379a000000000000000000000000000000000000000000000000000000000815260040161098590612c79565b60405180910390fd5b80915050919050565b60008073ffffffffffffffffffffffffffffffffffffffff168273ffffffffffffffffffffffffffffffffffffffff161415610a08576040517f08c379a00000000000000000000000000000000000000000000000000000000081526004016109ff90612c59565b60405180910390fd5b600360008373ffffffffffffffffffffffffffffffffffffffff1673ffffffffffffffffffffffffffffffffffffffff168152602001908152602001600020549050919050565b610a57611313565b73ffffffffffffffffffffffffffffffffffffffff16610a75610b8c565b73ffffffffffffffffffffffffffffffffffffffff1614610acb576040517f08c379a0000000000000000000000000000000000000000000000000000000008152600401610ac290612cd9565b60405180910390fd5b600073ffffffffffffffffffffffffffffffffffffffff16600a60009054906101000a900473ffffffffffffffffffffffffffffffffffffffff1673ffffffffffffffffffffffffffffffffffffffff167f8be0079c531659141344cd1fd0a4f28419497f9722a3daafe3b4186f6b6457e060405160405180910390a36000600a60006101000a81548173ffffffffffffffffffffffffffffffffffffffff021916908373ffffffffffffffffffffffffffffffffffffffff160217905550565b6000600a60009054906101000a900473ffffffffffffffffffffffffffffffffffffffff16905090565b606060018054610bc590612fc2565b80601f0160208091040260200160405190810160405280929190818152602001828054610bf190612fc2565b8015610c3e5780601f10610c1357610100808354040283529160200191610c3e565b820191906000526020600020905b815481529060010190602001808311610c2157829003601f168201915b5050505050905090565b610c50611313565b73ffffffffffffffffffffffffffffffffffffffff168273ffffffffffffffffffffffffffffffffffffffff161415610cbe576040517f08c379a0000000000000000000000000000000000000000000000000000000008152600401610cb590612bd9565b60405180910390fd5b8060056000610ccb611313565b73ffffffffffffffffffffffffffffffffffffffff1673ffffffffffffffffffffffffffffffffffffffff16815260200190815260200160002060008473ffffffffffffffffffffffffffffffffffffffff1673ffffffffffffffffffffffffffffffffffffffff16815260200190815260200160002060006101000a81548160ff0219169083151502179055508173ffffffffffffffffffffffffffffffffffffffff16610d78611313565b73ffffffffffffffffffffffffffffffffffffffff167f17307eab39ab6107e8899845ad3d59bd9653f200f220920489ca2b5937696c3183604051610dbd9190612afc565b60405180910390a35050565b610dda610dd4611313565b836113d4565b610e19576040517f08c379a0000000000000000000000000000000000000000000000000000000008152600401610e1090612d59565b60405180910390fd5b610e258484848461170e565b50505050565b6060610e36826112a7565b610e75576040517f08c379a0000000000000000000000000000000000000000000000000000000008152600401610e6c90612d19565b60405180910390fd5b6000610e7f61176a565b90506000815111610f2b57600b60008481526020019081526020016000208054610ea890612fc2565b80601f0160208091040260200160405190810160405280929190818152602001828054610ed490612fc2565b8015610f215780601f10610ef657610100808354040283529160200191610f21565b820191906000526020600020905b815481529060010190602001808311610f0457829003601f168201915b5050505050610f60565b80600b6000858152602001908152602001600020604051602001610f50929190612a3f565b6040516020818303038152906040525b915050919050565b60008073ffffffffffffffffffffffffffffffffffffffff168473ffffffffffffffffffffffffffffffffffffffff161415610fd9576040517f08c379a0000000000000000000000000000000000000000000000000000000008152600401610fd090612c39565b60405180910390fd5b610fe48484846117a7565b90509392505050565b6000600560008473ffffffffffffffffffffffffffffffffffffffff1673ffffffffffffffffffffffffffffffffffffffff16815260200190815260200160002060008373ffffffffffffffffffffffffffffffffffffffff1673ffffffffffffffffffffffffffffffffffffffff16815260200190815260200160002060009054906101000a900460ff16905092915050565b611089611313565b73ffffffffffffffffffffffffffffffffffffffff166110a7610b8c565b73ffffffffffffffffffffffffffffffffffffffff16146110fd576040517f08c379a00000000000000000000000000000000000000000000000000000000081526004016110f490612cd9565b60405180910390fd5b600073ffffffffffffffffffffffffffffffffffffffff168173ffffffffffffffffffffffffffffffffffffffff16141561116d576040517f08c379a000000000000000000000000000000000000000000000000000000000815260040161116490612b79565b60405180910390fd5b8073ffffffffffffffffffffffffffffffffffffffff16600a60009054906101000a900473ffffffffffffffffffffffffffffffffffffffff1673ffffffffffffffffffffffffffffffffffffffff167f8be0079c531659141344cd1fd0a4f28419497f9722a3daafe3b4186f6b6457e060405160405180910390a380600a60006101000a81548173ffffffffffffffffffffffffffffffffffffffff021916908373ffffffffffffffffffffffffffffffffffffffff16021790555050565b60007f780e9d63000000000000000000000000000000000000000000000000000000007bffffffffffffffffffffffffffffffffffffffffffffffffffffffff1916827bffffffffffffffffffffffffffffffffffffffffffffffffffffffff191614806112a0575061129f826117fa565b5b9050919050565b60008073ffffffffffffffffffffffffffffffffffffffff166002600084815260200190815260200160002060009054906101000a900473ffffffffffffffffffffffffffffffffffffffff1673ffffffffffffffffffffffffffffffffffffffff1614159050919050565b600033905090565b816004600083815260200190815260200160002060006101000a81548173ffffffffffffffffffffffffffffffffffffffff021916908373ffffffffffffffffffffffffffffffffffffffff160217905550808273ffffffffffffffffffffffffffffffffffffffff1661138e836108e5565b73ffffffffffffffffffffffffffffffffffffffff167f8c5be1e5ebec7d5bd14f71427d1e84f3dd0314c0f7b2291e5b200ac8c7c3b92560405160405180910390a45050565b60006113df826112a7565b61141e576040517f08c379a000000000000000000000000000000000000000000000000000000000815260040161141590612bf9565b60405180910390fd5b6000611429836108e5565b90508073ffffffffffffffffffffffffffffffffffffffff168473ffffffffffffffffffffffffffffffffffffffff16148061149857508373ffffffffffffffffffffffffffffffffffffffff166114808461057f565b73ffffffffffffffffffffffffffffffffffffffff16145b806114a957506114a88185610fed565b5b91505092915050565b8273ffffffffffffffffffffffffffffffffffffffff166114d2826108e5565b73ffffffffffffffffffffffffffffffffffffffff1614611528576040517f08c379a000000000000000000000000000000000000000000000000000000000815260040161151f90612cf9565b60405180910390fd5b600073ffffffffffffffffffffffffffffffffffffffff168273ffffffffffffffffffffffffffffffffffffffff161415611598576040517f08c379a000000000000000000000000000000000000000000000000000000000815260040161158f90612bb9565b60405180910390fd5b6115a38383836118dc565b6115ae60008261131b565b6001600360008573ffffffffffffffffffffffffffffffffffffffff1673ffffffffffffffffffffffffffffffffffffffff16815260200190815260200160002060008282546115fe9190612ed8565b925050819055506001600360008473ffffffffffffffffffffffffffffffffffffffff1673ffffffffffffffffffffffffffffffffffffffff16815260200190815260200160002060008282546116559190612e82565b92505081905550816002600083815260200190815260200160002060006101000a81548173ffffffffffffffffffffffffffffffffffffffff021916908373ffffffffffffffffffffffffffffffffffffffff160217905550808273ffffffffffffffffffffffffffffffffffffffff168473ffffffffffffffffffffffffffffffffffffffff167fddf252ad1be2c89b69c2b068fc378daa952ba7f163c4a11628f55a4df523b3ef60405160405180910390a4505050565b6117198484846114b2565b611725848484846118ec565b611764576040517f08c379a000000000000000000000000000000000000000000000000000000000815260040161175b90612b59565b60405180910390fd5b50505050565b60606040518060400160405280600781526020017f697066733a2f2f00000000000000000000000000000000000000000000000000815250905090565b6000808484846040516020016117bf93929190612aca565b6040516020818303038152906040528051906020012060001c90506117e48582611a83565b6117ef818585611c51565b809150509392505050565b60007f80ac58cd000000000000000000000000000000000000000000000000000000007bffffffffffffffffffffffffffffffffffffffffffffffffffffffff1916827bffffffffffffffffffffffffffffffffffffffffffffffffffffffff191614806118c557507f5b5e139f000000000000000000000000000000000000000000000000000000007bffffffffffffffffffffffffffffffffffffffffffffffffffffffff1916827bffffffffffffffffffffffffffffffffffffffffffffffffffffffff1916145b806118d557506118d482611cc1565b5b9050919050565b6118e7838383611d2b565b505050565b600061190d8473ffffffffffffffffffffffffffffffffffffffff16611e3f565b15611a76578373ffffffffffffffffffffffffffffffffffffffff1663150b7a02611936611313565b8786866040518563ffffffff1660e01b81526004016119589493929190612a7e565b602060405180830381600087803b15801561197257600080fd5b505af19250505080156119a357506040513d601f19601f820116820180604052508101906119a091906125b5565b60015b611a26573d80600081146119d3576040519150601f19603f3d011682016040523d82523d6000602084013e6119d8565b606091505b50600081511415611a1e576040517f08c379a0000000000000000000000000000000000000000000000000000000008152600401611a1590612b59565b60405180910390fd5b805181602001fd5b63150b7a0260e01b7bffffffffffffffffffffffffffffffffffffffffffffffffffffffff1916817bffffffffffffffffffffffffffffffffffffffffffffffffffffffff191614915050611a7b565b600190505b949350505050565b600073ffffffffffffffffffffffffffffffffffffffff168273ffffffffffffffffffffffffffffffffffffffff161415611af3576040517f08c379a0000000000000000000000000000000000000000000000000000000008152600401611aea90612c99565b60405180910390fd5b611afc816112a7565b15611b3c576040517f08c379a0000000000000000000000000000000000000000000000000000000008152600401611b3390612b99565b60405180910390fd5b611b48600083836118dc565b6001600360008473ffffffffffffffffffffffffffffffffffffffff1673ffffffffffffffffffffffffffffffffffffffff1681526020019081526020016000206000828254611b989190612e82565b92505081905550816002600083815260200190815260200160002060006101000a81548173ffffffffffffffffffffffffffffffffffffffff021916908373ffffffffffffffffffffffffffffffffffffffff160217905550808273ffffffffffffffffffffffffffffffffffffffff16600073ffffffffffffffffffffffffffffffffffffffff167fddf252ad1be2c89b69c2b068fc378daa952ba7f163c4a11628f55a4df523b3ef60405160405180910390a45050565b611c5a836112a7565b611c99576040517f08c379a0000000000000000000000000000000000000000000000000000000008152600401611c9090612d99565b60405180910390fd5b8181600b60008681526020019081526020016000209190611cbb9291906121cf565b50505050565b60007f01ffc9a7000000000000000000000000000000000000000000000000000000007bffffffffffffffffffffffffffffffffffffffffffffffffffffffff1916827bffffffffffffffffffffffffffffffffffffffffffffffffffffffff1916149050919050565b611d36838383611e52565b600073ffffffffffffffffffffffffffffffffffffffff168373ffffffffffffffffffffffffffffffffffffffff161415611d7957611d7481611e57565b611db8565b8173ffffffffffffffffffffffffffffffffffffffff168373ffffffffffffffffffffffffffffffffffffffff1614611db757611db68382611ea0565b5b5b600073ffffffffffffffffffffffffffffffffffffffff168273ffffffffffffffffffffffffffffffffffffffff161415611dfb57611df68161200d565b611e3a565b8273ffffffffffffffffffffffffffffffffffffffff168273ffffffffffffffffffffffffffffffffffffffff1614611e3957611e388282612150565b5b5b505050565b600080823b905060008111915050919050565b505050565b6008805490506009600083815260200190815260200160002081905550600881908060018154018082558091505060019003906000526020600020016000909190919091505550565b60006001611ead84610997565b611eb79190612ed8565b9050600060076000848152602001908152602001600020549050818114611f9c576000600660008673ffffffffffffffffffffffffffffffffffffffff1673ffffffffffffffffffffffffffffffffffffffff168152602001908152602001600020600084815260200190815260200160002054905080600660008773ffffffffffffffffffffffffffffffffffffffff1673ffffffffffffffffffffffffffffffffffffffff168152602001908152602001600020600084815260200190815260200160002081905550816007600083815260200190815260200160002081905550505b6007600084815260200190815260200160002060009055600660008573ffffffffffffffffffffffffffffffffffffffff1673ffffffffffffffffffffffffffffffffffffffff16815260200190815260200160002060008381526020019081526020016000206000905550505050565b600060016008805490506120219190612ed8565b9050600060096000848152602001908152602001600020549050600060088381548110612077577f4e487b7100000000000000000000000000000000000000000000000000000000600052603260045260246000fd5b9060005260206000200154905080600883815481106120bf577f4e487b7100000000000000000000000000000000000000000000000000000000600052603260045260246000fd5b906000526020600020018190555081600960008381526020019081526020016000208190555060096000858152602001908152602001600020600090556008805480612134577f4e487b7100000000000000000000000000000000000000000000000000000000600052603160045260246000fd5b6001900381819060005260206000200160009055905550505050565b600061215b83610997565b905081600660008573ffffffffffffffffffffffffffffffffffffffff1673ffffffffffffffffffffffffffffffffffffffff168152602001908152602001600020600083815260200190815260200160002081905550806007600084815260200190815260200160002081905550505050565b8280546121db90612fc2565b90600052602060002090601f0160209004810192826121fd5760008555612244565b82601f1061221657803560ff1916838001178555612244565b82800160010185558215612244579182015b82811115612243578235825591602001919060010190612228565b5b5090506122519190612255565b5090565b5b8082111561226e576000816000905550600101612256565b5090565b600061228561228084612df9565b612dd4565b90508281526020810184848401111561229d57600080fd5b6122a8848285612f80565b509392505050565b6000813590506122bf8161360b565b92915050565b6000813590506122d481613622565b92915050565b6000813590506122e981613639565b92915050565b6000815190506122fe81613639565b92915050565b600082601f83011261231557600080fd5b8135612325848260208601612272565b91505092915050565b60008083601f84011261234057600080fd5b8235905067ffffffffffffffff81111561235957600080fd5b60208301915083600182028301111561237157600080fd5b9250929050565b60008135905061238781613650565b92915050565b60006020828403121561239f57600080fd5b60006123ad848285016122b0565b91505092915050565b600080604083850312156123c957600080fd5b60006123d7858286016122b0565b92505060206123e8858286016122b0565b9150509250929050565b60008060006060848603121561240757600080fd5b6000612415868287016122b0565b9350506020612426868287016122b0565b925050604061243786828701612378565b9150509250925092565b6000806000806080858703121561245757600080fd5b6000612465878288016122b0565b9450506020612476878288016122b0565b935050604061248787828801612378565b925050606085013567ffffffffffffffff8111156124a457600080fd5b6124b087828801612304565b91505092959194509250565b600080604083850312156124cf57600080fd5b60006124dd858286016122b0565b92505060206124ee858286016122c5565b9150509250929050565b60008060006040848603121561250d57600080fd5b600061251b868287016122b0565b935050602084013567ffffffffffffffff81111561253857600080fd5b6125448682870161232e565b92509250509250925092565b6000806040838503121561256357600080fd5b6000612571858286016122b0565b925050602061258285828601612378565b9150509250929050565b60006020828403121561259e57600080fd5b60006125ac848285016122da565b91505092915050565b6000602082840312156125c757600080fd5b60006125d5848285016122ef565b91505092915050565b6000602082840312156125f057600080fd5b60006125fe84828501612378565b91505092915050565b61261081612f0c565b82525050565b61261f81612f1e565b82525050565b600061263082612e3f565b61263a8185612e55565b935061264a818560208601612f8f565b612653816130b2565b840191505092915050565b600061266a8385612e66565b9350612677838584612f80565b612680836130b2565b840190509392505050565b600061269682612e4a565b6126a08185612e66565b93506126b0818560208601612f8f565b6126b9816130b2565b840191505092915050565b60006126cf82612e4a565b6126d98185612e77565b93506126e9818560208601612f8f565b80840191505092915050565b6000815461270281612fc2565b61270c8186612e77565b9450600182166000811461272757600181146127385761276b565b60ff1983168652818601935061276b565b61274185612e2a565b60005b8381101561276357815481890152600182019150602081019050612744565b838801955050505b50505092915050565b6000612781602b83612e66565b915061278c826130c3565b604082019050919050565b60006127a4603283612e66565b91506127af82613112565b604082019050919050565b60006127c7602683612e66565b91506127d282613161565b604082019050919050565b60006127ea601c83612e66565b91506127f5826131b0565b602082019050919050565b600061280d602483612e66565b9150612818826131d9565b604082019050919050565b6000612830601983612e66565b915061283b82613228565b602082019050919050565b6000612853602c83612e66565b915061285e82613251565b604082019050919050565b6000612876603883612e66565b9150612881826132a0565b604082019050919050565b6000612899600c83612e66565b91506128a4826132ef565b602082019050919050565b60006128bc602a83612e66565b91506128c782613318565b604082019050919050565b60006128df602983612e66565b91506128ea82613367565b604082019050919050565b6000612902602083612e66565b915061290d826133b6565b602082019050919050565b6000612925602c83612e66565b9150612930826133df565b604082019050919050565b6000612948602083612e66565b91506129538261342e565b602082019050919050565b600061296b602983612e66565b915061297682613457565b604082019050919050565b600061298e602f83612e66565b9150612999826134a6565b604082019050919050565b60006129b1602183612e66565b91506129bc826134f5565b604082019050919050565b60006129d4603183612e66565b91506129df82613544565b604082019050919050565b60006129f7602c83612e66565b9150612a0282613593565b604082019050919050565b6000612a1a601483612e66565b9150612a25826135e2565b602082019050919050565b612a3981612f76565b82525050565b6000612a4b82856126c4565b9150612a5782846126f5565b91508190509392505050565b6000602082019050612a786000830184612607565b92915050565b6000608082019050612a936000830187612607565b612aa06020830186612607565b612aad6040830185612a30565b8181036060830152612abf8184612625565b905095945050505050565b6000604082019050612adf6000830186612607565b8181036020830152612af281848661265e565b9050949350505050565b6000602082019050612b116000830184612616565b92915050565b60006020820190508181036000830152612b31818461268b565b905092915050565b60006020820190508181036000830152612b5281612774565b9050919050565b60006020820190508181036000830152612b7281612797565b9050919050565b60006020820190508181036000830152612b92816127ba565b9050919050565b60006020820190508181036000830152612bb2816127dd565b9050919050565b60006020820190508181036000830152612bd281612800565b9050919050565b60006020820190508181036000830152612bf281612823565b9050919050565b60006020820190508181036000830152612c1281612846565b9050919050565b60006020820190508181036000830152612c3281612869565b9050919050565b60006020820190508181036000830152612c528161288c565b9050919050565b60006020820190508181036000830152612c72816128af565b9050919050565b60006020820190508181036000830152612c92816128d2565b9050919050565b60006020820190508181036000830152612cb2816128f5565b9050919050565b60006020820190508181036000830152612cd281612918565b9050919050565b60006020820190508181036000830152612cf28161293b565b9050919050565b60006020820190508181036000830152612d128161295e565b9050919050565b60006020820190508181036000830152612d3281612981565b9050919050565b60006020820190508181036000830152612d52816129a4565b9050919050565b60006020820190508181036000830152612d72816129c7565b9050919050565b60006020820190508181036000830152612d92816129ea565b9050919050565b60006020820190508181036000830152612db281612a0d565b9050919050565b6000602082019050612dce6000830184612a30565b92915050565b6000612dde612def565b9050612dea8282612ff4565b919050565b6000604051905090565b600067ffffffffffffffff821115612e1457612e13613083565b5b612e1d826130b2565b9050602081019050919050565b60008190508160005260206000209050919050565b600081519050919050565b600081519050919050565b600082825260208201905092915050565b600082825260208201905092915050565b600081905092915050565b6000612e8d82612f76565b9150612e9883612f76565b9250827fffffffffffffffffffffffffffffffffffffffffffffffffffffffffffffffff03821115612ecd57612ecc613025565b5b828201905092915050565b6000612ee382612f76565b9150612eee83612f76565b925082821015612f0157612f00613025565b5b828203905092915050565b6000612f1782612f56565b9050919050565b60008115159050919050565b60007fffffffff0000000000000000000000000000000000000000000000000000000082169050919050565b600073ffffffffffffffffffffffffffffffffffffffff82169050919050565b6000819050919050565b82818337600083830152505050565b60005b83811015612fad578082015181840152602081019050612f92565b83811115612fbc576000848401525b50505050565b60006002820490506001821680612fda57607f821691505b60208210811415612fee57612fed613054565b5b50919050565b612ffd826130b2565b810181811067ffffffffffffffff8211171561301c5761301b613083565b5b80604052505050565b7f4e487b7100000000000000000000000000000000000000000000000000000000600052601160045260246000fd5b7f4e487b7100000000000000000000000000000000000000000000000000000000600052602260045260246000fd5b7f4e487b7100000000000000000000000000000000000000000000000000000000600052604160045260246000fd5b6000601f19601f8301169050919050565b7f455243373231456e756d657261626c653a206f776e657220696e646578206f7560008201527f74206f6620626f756e6473000000000000000000000000000000000000000000602082015250565b7f4552433732313a207472616e7366657220746f206e6f6e20455243373231526560008201527f63656976657220696d706c656d656e7465720000000000000000000000000000602082015250565b7f4f776e61626c653a206e6577206f776e657220697320746865207a65726f206160008201527f6464726573730000000000000000000000000000000000000000000000000000602082015250565b7f4552433732313a20746f6b656e20616c7265616479206d696e74656400000000600082015250565b7f4552433732313a207472616e7366657220746f20746865207a65726f2061646460008201527f7265737300000000000000000000000000000000000000000000000000000000602082015250565b7f4552433732313a20617070726f766520746f2063616c6c657200000000000000600082015250565b7f4552433732313a206f70657261746f7220717565727920666f72206e6f6e657860008201527f697374656e7420746f6b656e0000000000000000000000000000000000000000602082015250565b7f4552433732313a20617070726f76652063616c6c6572206973206e6f74206f7760008201527f6e6572206e6f7220617070726f76656420666f7220616c6c0000000000000000602082015250565b7f5a45524f5f414444524553530000000000000000000000000000000000000000600082015250565b7f4552433732313a2062616c616e636520717565727920666f7220746865207a6560008201527f726f206164647265737300000000000000000000000000000000000000000000602082015250565b7f4552433732313a206f776e657220717565727920666f72206e6f6e657869737460008201527f656e7420746f6b656e0000000000000000000000000000000000000000000000602082015250565b7f4552433732313a206d696e7420746f20746865207a65726f2061646472657373600082015250565b7f4552433732313a20617070726f76656420717565727920666f72206e6f6e657860008201527f697374656e7420746f6b656e0000000000000000000000000000000000000000602082015250565b7f4f776e61626c653a2063616c6c6572206973206e6f7420746865206f776e6572600082015250565b7f4552433732313a207472616e73666572206f6620746f6b656e2074686174206960008201527f73206e6f74206f776e0000000000000000000000000000000000000000000000602082015250565b7f4552433732314d657461646174613a2055524920717565727920666f72206e6f60008201527f6e6578697374656e7420746f6b656e0000000000000000000000000000000000602082015250565b7f4552433732313a20617070726f76616c20746f2063757272656e74206f776e6560008201527f7200000000000000000000000000000000000000000000000000000000000000602082015250565b7f4552433732313a207472616e736665722063616c6c6572206973206e6f74206f60008201527f776e6572206e6f7220617070726f766564000000000000000000000000000000602082015250565b7f455243373231456e756d657261626c653a20676c6f62616c20696e646578206f60008201527f7574206f6620626f756e64730000000000000000000000000000000000000000602082015250565b7f544f4b454e5f49445f4e4f545f45584953544544000000000000000000000000600082015250565b61361481612f0c565b811461361f57600080fd5b50565b61362b81612f1e565b811461363657600080fd5b50565b61364281612f2a565b811461364d57600080fd5b50565b61365981612f76565b811461366457600080fd5b5056fea2646970667358221220079400b7e4c3b3ef1d18b7e825f7f33cac0c2903d7d6957878f76d57b877d9f864736f6c63430008040033",
  "immutableReferences": {},
  "source": "// SPDX-License-Identifier: UNLICENSED\n\npragma solidity ^0.8.4;\n\nimport \"./lib/token/ERC721/ERC721.sol\";\nimport \"./lib/token/ERC721/extensions/ERC721Enumerable.sol\";\nimport \"./lib/access/Ownable.sol\";\n\ncontract TaureumERC721Enumerable is ERC721, ERC721Enumerable, Ownable {\n    /**\n     * @dev Mapping from NFT ID to metadata uri.\n     */\n    mapping(uint256 => string) internal idToUri;\n\n    /**\n     * @dev Create a new TaureumERC721 contract and assign the KYCAddress to _KYCAddress.\n     *\n     * TODO: change the default name and symbol.\n     */\n    constructor() ERC721(\"Taureum ERC721Enumerable\", \"Taureum\") Ownable() {\n    }\n\n    /**\n     * @dev See {IERC165-supportsInterface}.\n     */\n    function supportsInterface(bytes4 interfaceId) public view virtual override(ERC721, ERC721Enumerable) returns (bool) {\n        return\n        interfaceId == type(IERC721).interfaceId ||\n        interfaceId == type(IERC721Metadata).interfaceId ||\n        super.supportsInterface(interfaceId);\n    }\n\n    /**\n      * @dev Mint a new NFT.\n      * @notice It throws an exception if\n      *    - `to` cannot receive NFTs.\n      * @param to The address that will own the minted NFT.\n      * @param uri The URI consists of metadata description of the minting NFT on the IPFS (without prefix).\n      */\n    function mint(\n        address to,\n        string calldata uri\n    )\n    public\n    returns (uint256)\n    {\n        require(to != address(0), \"ZERO_ADDRESS\");\n        return _mint(to, uri);\n    }\n\n    /**\n     * @dev See {IERC721Metadata-tokenURI}.\n     */\n    function tokenURI(uint256 tokenId) public view override returns (string memory) {\n        require(_exists(tokenId), \"ERC721Metadata: URI query for nonexistent token\");\n\n        string memory baseURI = _baseURI();\n        return bytes(baseURI).length > 0 ? string(abi.encodePacked(baseURI, idToUri[tokenId])) : idToUri[tokenId];\n    }\n\n    /**\n     * @dev See {IERC721-transferFrom}.\n     * @notice It throws an exception if\n     *      - the tokenId is not transferable.\n     *      - the receiver `to` cannot receive more TaureumNFTs.\n     */\n    function transferFrom(\n        address from,\n        address to,\n        uint256 tokenId\n    ) public override {\n        //solhint-disable-next-line max-line-length\n        require(_isApprovedOrOwner(_msgSender(), tokenId), \"ERC721: transfer caller is not owner nor approved\");\n        _transfer(from, to, tokenId);\n    }\n\n    /**\n     * @dev See {IERC721-safeTransferFrom}.\n     * @notice It throws an exception if\n     *      - the tokenId is not transferable.\n     *      - the receiver `to` cannot receive more TaureumNFTs.\n     */\n    function safeTransferFrom(\n        address from,\n        address to,\n        uint256 tokenId,\n        bytes memory _data\n    ) public override {\n        require(_isApprovedOrOwner(_msgSender(), tokenId), \"ERC721: transfer caller is not owner nor approved\");\n        _safeTransfer(from, to, tokenId, _data);\n    }\n\n    /**\n      * @dev Mint a new NFT.\n      * @notice It throws an exception if\n      *    - `license` is not valid.\n      *    - `expiryBlock` is less than the current block number.\n      * @param to The address that will own the minted NFT.\n      * @param uri The URI consists of metadata description of the minting NFT on the IPFS (without prefix).\n      */\n    function _mint(\n        address to,\n        string calldata uri\n    )\n    internal\n    returns (uint256)\n    {\n        uint256 id = uint256(keccak256(abi.encode(to, uri)));\n\n        super._mint(to, id);\n        _setTokenUri(id, uri);\n\n        return id;\n    }\n\n    /**\n     * @dev Hook that is called before any token transfer. This includes minting\n     * and burning.\n     *\n     * Calling conditions:\n     *\n     * - When `from` and `to` are both non-zero, ``from``'s `tokenId` will be\n     * transferred to `to`.\n     * - When `from` is zero, `tokenId` will be minted for `to`.\n     * - When `to` is zero, ``from``'s `tokenId` will be burned.\n     * - `from` cannot be the zero address.\n     * - `to` cannot be the zero address.\n     *\n     * To learn more about hooks, head to xref:ROOT:extending-contracts.adoc#using-hooks[Using Hooks].\n     */\n    function _beforeTokenTransfer(address from, address to, uint256 tokenId) internal override(ERC721, ERC721Enumerable) {\n        super._beforeTokenTransfer(from, to, tokenId);\n    }\n\n    /**\n     * @dev Base URI for computing {tokenURI}. If set, the resulting URI for each\n     * token will be the concatenation of the `baseURI` and the `tokenId`.\n     */\n    function _baseURI() internal pure override returns (string memory) {\n        return \"ipfs://\";\n    }\n\n    /**\n     * @dev Set a distinct URI (RFC 3986) for a given NFT ID.\n     * @notice This is an internal function which should be called from user-implemented external\n     * function.\n     * @notice It throws an exception if the _tokenId does not exist.\n     * @param _tokenId Id for which we want URI.\n     * @param _uri String representing RFC 3986 URI.\n     */\n    function _setTokenUri(\n        uint256 _tokenId,\n        string calldata _uri\n    )\n    internal\n    {\n        require(_exists(_tokenId), \"TOKEN_ID_NOT_EXISTED\");\n        idToUri[_tokenId] = _uri;\n    }\n}\n",
  "sourcePath": "/home/toor/nodejs/truffle/nft_demo/taudefi/taudefi-nft/contracts/TaureumERC721Enumerable.sol",
  "compiler": {
    "name": "solc",
    "version": "0.8.4+commit.c7e474f2.Emscripten.clang"
  },
  "schemaVersion": "3.4.1",
  "updatedAt": "2021-07-24T09:05:56.540Z",
  "networkType": "ethereum",
  "devdoc": {
    "kind": "dev",
    "methods": {
      "approve(address,uint256)": {
        "details": "See {IERC721-approve}."
      },
      "balanceOf(address)": {
        "details": "See {IERC721-balanceOf}."
      },
      "constructor": {
        "details": "Create a new TaureumERC721 contract and assign the KYCAddress to _KYCAddress. TODO: change the default name and symbol."
      },
      "getApproved(uint256)": {
        "details": "See {IERC721-getApproved}."
      },
      "isApprovedForAll(address,address)": {
        "details": "See {IERC721-isApprovedForAll}."
      },
      "mint(address,string)": {
        "details": "Mint a new NFT.",
        "params": {
          "to": "The address that will own the minted NFT.",
          "uri": "The URI consists of metadata description of the minting NFT on the IPFS (without prefix)."
        }
      },
      "name()": {
        "details": "See {IERC721Metadata-name}."
      },
      "owner()": {
        "details": "Returns the address of the current owner."
      },
      "ownerOf(uint256)": {
        "details": "See {IERC721-ownerOf}."
      },
      "renounceOwnership()": {
        "details": "Leaves the contract without owner. It will not be possible to call `onlyOwner` functions anymore. Can only be called by the current owner. NOTE: Renouncing ownership will leave the contract without an owner, thereby removing any functionality that is only available to the owner."
      },
      "safeTransferFrom(address,address,uint256)": {
        "details": "See {IERC721-safeTransferFrom}."
      },
      "safeTransferFrom(address,address,uint256,bytes)": {
        "details": "See {IERC721-safeTransferFrom}."
      },
      "setApprovalForAll(address,bool)": {
        "details": "See {IERC721-setApprovalForAll}."
      },
      "supportsInterface(bytes4)": {
        "details": "See {IERC165-supportsInterface}."
      },
      "symbol()": {
        "details": "See {IERC721Metadata-symbol}."
      },
      "tokenByIndex(uint256)": {
        "details": "See {IERC721Enumerable-tokenByIndex}."
      },
      "tokenOfOwnerByIndex(address,uint256)": {
        "details": "See {IERC721Enumerable-tokenOfOwnerByIndex}."
      },
      "tokenURI(uint256)": {
        "details": "See {IERC721Metadata-tokenURI}."
      },
      "totalSupply()": {
        "details": "See {IERC721Enumerable-totalSupply}."
      },
      "transferFrom(address,address,uint256)": {
        "details": "See {IERC721-transferFrom}."
      },
      "transferOwnership(address)": {
        "details": "Transfers ownership of the contract to a new account (`newOwner`). Can only be called by the current owner."
      }
    },
    "stateVariables": {
      "idToUri": {
        "details": "Mapping from NFT ID to metadata uri."
      }
    },
    "version": 1
  },
  "userdoc": {
    "kind": "user",
    "methods": {
      "mint(address,string)": {
        "notice": "It throws an exception if    - `to` cannot receive NFTs."
      },
      "safeTransferFrom(address,address,uint256,bytes)": {
        "notice": "It throws an exception if      - the tokenId is not transferable.      - the receiver `to` cannot receive more TaureumNFTs."
      },
      "transferFrom(address,address,uint256)": {
        "notice": "It throws an exception if      - the tokenId is not transferable.      - the receiver `to` cannot receive more TaureumNFTs."
      }
    },
    "version": 1
  }
}