{
  "contractName": "TaureumERC721LazyMint",
  "abi": [
    {
      "inputs": [],
      "stateMutability": "nonpayable",
      "type": "constructor"
    },
    {
      "anonymous": false,
      "inputs": [
        {
          "indexed": true,
          "internalType": "address",
          "name": "owner",
          "type": "address"
        },
        {
          "indexed": true,
          "internalType": "address",
          "name": "approved",
          "type": "address"
        },
        {
          "indexed": true,
          "internalType": "uint256",
          "name": "tokenId",
          "type": "uint256"
        }
      ],
      "name": "Approval",
      "type": "event"
    },
    {
      "anonymous": false,
      "inputs": [
        {
          "indexed": true,
          "internalType": "address",
          "name": "owner",
          "type": "address"
        },
        {
          "indexed": true,
          "internalType": "address",
          "name": "operator",
          "type": "address"
        },
        {
          "indexed": false,
          "internalType": "bool",
          "name": "approved",
          "type": "bool"
        }
      ],
      "name": "ApprovalForAll",
      "type": "event"
    },
    {
      "anonymous": false,
      "inputs": [
        {
          "indexed": true,
          "internalType": "address",
          "name": "previousOwner",
          "type": "address"
        },
        {
          "indexed": true,
          "internalType": "address",
          "name": "newOwner",
          "type": "address"
        }
      ],
      "name": "OwnershipTransferred",
      "type": "event"
    },
    {
      "anonymous": false,
      "inputs": [
        {
          "indexed": false,
          "internalType": "address",
          "name": "account",
          "type": "address"
        }
      ],
      "name": "Paused",
      "type": "event"
    },
    {
      "anonymous": false,
      "inputs": [
        {
          "indexed": true,
          "internalType": "address",
          "name": "minter",
          "type": "address"
        },
        {
          "indexed": true,
          "internalType": "address",
          "name": "redeemer",
          "type": "address"
        },
        {
          "indexed": false,
          "internalType": "string",
          "name": "uri",
          "type": "string"
        },
        {
          "indexed": false,
          "internalType": "bytes",
          "name": "signature",
          "type": "bytes"
        }
      ],
      "name": "Redeem",
      "type": "event"
    },
    {
      "anonymous": false,
      "inputs": [
        {
          "indexed": true,
          "internalType": "address",
          "name": "from",
          "type": "address"
        },
        {
          "indexed": true,
          "internalType": "address",
          "name": "to",
          "type": "address"
        },
        {
          "indexed": true,
          "internalType": "uint256",
          "name": "tokenId",
          "type": "uint256"
        }
      ],
      "name": "Transfer",
      "type": "event"
    },
    {
      "anonymous": false,
      "inputs": [
        {
          "indexed": false,
          "internalType": "address",
          "name": "account",
          "type": "address"
        }
      ],
      "name": "Unpaused",
      "type": "event"
    },
    {
      "inputs": [
        {
          "internalType": "address",
          "name": "to",
          "type": "address"
        },
        {
          "internalType": "uint256",
          "name": "tokenId",
          "type": "uint256"
        }
      ],
      "name": "approve",
      "outputs": [],
      "stateMutability": "nonpayable",
      "type": "function"
    },
    {
      "inputs": [
        {
          "internalType": "address",
          "name": "owner",
          "type": "address"
        }
      ],
      "name": "balanceOf",
      "outputs": [
        {
          "internalType": "uint256",
          "name": "",
          "type": "uint256"
        }
      ],
      "stateMutability": "view",
      "type": "function",
      "constant": true
    },
    {
      "inputs": [],
      "name": "baseURI",
      "outputs": [
        {
          "internalType": "string",
          "name": "",
          "type": "string"
        }
      ],
      "stateMutability": "view",
      "type": "function",
      "constant": true
    },
    {
      "inputs": [
        {
          "internalType": "uint256",
          "name": "tokenId",
          "type": "uint256"
        }
      ],
      "name": "getApproved",
      "outputs": [
        {
          "internalType": "address",
          "name": "",
          "type": "address"
        }
      ],
      "stateMutability": "view",
      "type": "function",
      "constant": true
    },
    {
      "inputs": [
        {
          "internalType": "address",
          "name": "owner",
          "type": "address"
        },
        {
          "internalType": "address",
          "name": "operator",
          "type": "address"
        }
      ],
      "name": "isApprovedForAll",
      "outputs": [
        {
          "internalType": "bool",
          "name": "",
          "type": "bool"
        }
      ],
      "stateMutability": "view",
      "type": "function",
      "constant": true
    },
    {
      "inputs": [
        {
          "internalType": "address",
          "name": "to",
          "type": "address"
        },
        {
          "internalType": "string",
          "name": "uri",
          "type": "string"
        }
      ],
      "name": "mint",
      "outputs": [
        {
          "internalType": "uint256",
          "name": "",
          "type": "uint256"
        }
      ],
      "stateMutability": "nonpayable",
      "type": "function"
    },
    {
      "inputs": [],
      "name": "name",
      "outputs": [
        {
          "internalType": "string",
          "name": "",
          "type": "string"
        }
      ],
      "stateMutability": "view",
      "type": "function",
      "constant": true
    },
    {
      "inputs": [],
      "name": "owner",
      "outputs": [
        {
          "internalType": "address",
          "name": "",
          "type": "address"
        }
      ],
      "stateMutability": "view",
      "type": "function",
      "constant": true
    },
    {
      "inputs": [
        {
          "internalType": "uint256",
          "name": "tokenId",
          "type": "uint256"
        }
      ],
      "name": "ownerOf",
      "outputs": [
        {
          "internalType": "address",
          "name": "",
          "type": "address"
        }
      ],
      "stateMutability": "view",
      "type": "function",
      "constant": true
    },
    {
      "inputs": [],
      "name": "pause",
      "outputs": [],
      "stateMutability": "nonpayable",
      "type": "function"
    },
    {
      "inputs": [],
      "name": "paused",
      "outputs": [
        {
          "internalType": "bool",
          "name": "",
          "type": "bool"
        }
      ],
      "stateMutability": "view",
      "type": "function",
      "constant": true
    },
    {
      "inputs": [],
      "name": "renounceOwnership",
      "outputs": [],
      "stateMutability": "nonpayable",
      "type": "function"
    },
    {
      "inputs": [
        {
          "internalType": "address",
          "name": "to",
          "type": "address"
        },
        {
          "internalType": "string",
          "name": "uri",
          "type": "string"
        }
      ],
      "name": "safeMint",
      "outputs": [
        {
          "internalType": "uint256",
          "name": "",
          "type": "uint256"
        }
      ],
      "stateMutability": "nonpayable",
      "type": "function"
    },
    {
      "inputs": [
        {
          "internalType": "address",
          "name": "from",
          "type": "address"
        },
        {
          "internalType": "address",
          "name": "to",
          "type": "address"
        },
        {
          "internalType": "uint256",
          "name": "tokenId",
          "type": "uint256"
        }
      ],
      "name": "safeTransferFrom",
      "outputs": [],
      "stateMutability": "nonpayable",
      "type": "function"
    },
    {
      "inputs": [
        {
          "internalType": "address",
          "name": "from",
          "type": "address"
        },
        {
          "internalType": "address",
          "name": "to",
          "type": "address"
        },
        {
          "internalType": "uint256",
          "name": "tokenId",
          "type": "uint256"
        },
        {
          "internalType": "bytes",
          "name": "_data",
          "type": "bytes"
        }
      ],
      "name": "safeTransferFrom",
      "outputs": [],
      "stateMutability": "nonpayable",
      "type": "function"
    },
    {
      "inputs": [
        {
          "internalType": "address",
          "name": "operator",
          "type": "address"
        },
        {
          "internalType": "bool",
          "name": "approved",
          "type": "bool"
        }
      ],
      "name": "setApprovalForAll",
      "outputs": [],
      "stateMutability": "nonpayable",
      "type": "function"
    },
    {
      "inputs": [
        {
          "internalType": "string",
          "name": "newBaseURI",
          "type": "string"
        }
      ],
      "name": "setBaseURI",
      "outputs": [],
      "stateMutability": "nonpayable",
      "type": "function"
    },
    {
      "inputs": [
        {
          "internalType": "bytes4",
          "name": "interfaceId",
          "type": "bytes4"
        }
      ],
      "name": "supportsInterface",
      "outputs": [
        {
          "internalType": "bool",
          "name": "",
          "type": "bool"
        }
      ],
      "stateMutability": "view",
      "type": "function",
      "constant": true
    },
    {
      "inputs": [],
      "name": "symbol",
      "outputs": [
        {
          "internalType": "string",
          "name": "",
          "type": "string"
        }
      ],
      "stateMutability": "view",
      "type": "function",
      "constant": true
    },
    {
      "inputs": [
        {
          "internalType": "uint256",
          "name": "index",
          "type": "uint256"
        }
      ],
      "name": "tokenByIndex",
      "outputs": [
        {
          "internalType": "uint256",
          "name": "",
          "type": "uint256"
        }
      ],
      "stateMutability": "view",
      "type": "function",
      "constant": true
    },
    {
      "inputs": [
        {
          "internalType": "address",
          "name": "owner",
          "type": "address"
        },
        {
          "internalType": "uint256",
          "name": "index",
          "type": "uint256"
        }
      ],
      "name": "tokenOfOwnerByIndex",
      "outputs": [
        {
          "internalType": "uint256",
          "name": "",
          "type": "uint256"
        }
      ],
      "stateMutability": "view",
      "type": "function",
      "constant": true
    },
    {
      "inputs": [
        {
          "internalType": "uint256",
          "name": "tokenId",
          "type": "uint256"
        }
      ],
      "name": "tokenURI",
      "outputs": [
        {
          "internalType": "string",
          "name": "",
          "type": "string"
        }
      ],
      "stateMutability": "view",
      "type": "function",
      "constant": true
    },
    {
      "inputs": [],
      "name": "totalSupply",
      "outputs": [
        {
          "internalType": "uint256",
          "name": "",
          "type": "uint256"
        }
      ],
      "stateMutability": "view",
      "type": "function",
      "constant": true
    },
    {
      "inputs": [
        {
          "internalType": "address",
          "name": "from",
          "type": "address"
        },
        {
          "internalType": "address",
          "name": "to",
          "type": "address"
        },
        {
          "internalType": "uint256",
          "name": "tokenId",
          "type": "uint256"
        }
      ],
      "name": "transferFrom",
      "outputs": [],
      "stateMutability": "nonpayable",
      "type": "function"
    },
    {
      "inputs": [
        {
          "internalType": "address",
          "name": "newOwner",
          "type": "address"
        }
      ],
      "name": "transferOwnership",
      "outputs": [],
      "stateMutability": "nonpayable",
      "type": "function"
    },
    {
      "inputs": [],
      "name": "unPause",
      "outputs": [],
      "stateMutability": "nonpayable",
      "type": "function"
    },
    {
      "inputs": [
        {
          "internalType": "address",
          "name": "redeemer",
          "type": "address"
        },
        {
          "internalType": "string",
          "name": "uri",
          "type": "string"
        },
        {
          "internalType": "bytes",
          "name": "signature",
          "type": "bytes"
        }
      ],
      "name": "redeem",
      "outputs": [],
      "stateMutability": "nonpayable",
      "type": "function"
    }
  ],
  "bytecode": "0x6101206040523480156200001257600080fd5b506040518060400160405280600a81526020017f5461757265756d4e4654000000000000000000000000000000000000000000008152506040518060400160405280600181526020017f31000000000000000000000000000000000000000000000000000000000000008152506040518060400160405280600e81526020017f5461757265756d204552433732310000000000000000000000000000000000008152506040518060400160405280600781526020017f5461757265756d00000000000000000000000000000000000000000000000000815250816000908051906020019062000103929190620002da565b5080600190805190602001906200011c929190620002da565b5050506000600660006101000a81548160ff02191690831515021790555060006200014c6200029660201b60201c565b905080600660016101000a81548173ffffffffffffffffffffffffffffffffffffffff021916908373ffffffffffffffffffffffffffffffffffffffff1602179055508073ffffffffffffffffffffffffffffffffffffffff16600073ffffffffffffffffffffffffffffffffffffffff167f8be0079c531659141344cd1fd0a4f28419497f9722a3daafe3b4186f6b6457e060405160405180910390a350604051806020016040528060008152506008908051906020019062000212929190620002da565b5060008280519060200120905060008280519060200120905060007f8b73c3c69bb8fe3d512ecc4cf759cc79239f7b179b0ffacaa9a75d522b39400f90508260c081815250508160e081815250504660a081815250506200027b8184846200029e60201b60201c565b608081815250508061010081815250505050505050620004c7565b600033905090565b60008383834630604051602001620002bb959493929190620003bd565b6040516020818303038152906040528051906020012090509392505050565b828054620002e89062000462565b90600052602060002090601f0160209004810192826200030c576000855562000358565b82601f106200032757805160ff191683800117855562000358565b8280016001018555821562000358579182015b82811115620003575782518255916020019190600101906200033a565b5b5090506200036791906200036b565b5090565b5b80821115620003865760008160009055506001016200036c565b5090565b62000395816200041a565b82525050565b620003a6816200042e565b82525050565b620003b78162000458565b82525050565b600060a082019050620003d460008301886200039b565b620003e360208301876200039b565b620003f260408301866200039b565b620004016060830185620003ac565b6200041060808301846200038a565b9695505050505050565b6000620004278262000438565b9050919050565b6000819050919050565b600073ffffffffffffffffffffffffffffffffffffffff82169050919050565b6000819050919050565b600060028204905060018216806200047b57607f821691505b6020821081141562000492576200049162000498565b5b50919050565b7f4e487b7100000000000000000000000000000000000000000000000000000000600052602260045260246000fd5b60805160a05160c05160e05161010051614a306200050c600039600061270a0152600061274c0152600061272b015260006126b7015260006126df0152614a306000f3fe608060405234801561001057600080fd5b50600436106101a95760003560e01c806370a08231116100f9578063b88d4fde11610097578063d204c45e11610071578063d204c45e146104ba578063e985e9c5146104ea578063f2fde38b1461051a578063f7b188a514610536576101a9565b8063b88d4fde1461043e578063c87b56dd1461045a578063d0def5211461048a576101a9565b80638456cb59116100d35780638456cb59146103dc5780638da5cb5b146103e657806395d89b4114610404578063a22cb46514610422576101a9565b806370a0823114610386578063715018a6146103b657806377a9c7ef146103c0576101a9565b80632f745c591161016657806355f804b31161014057806355f804b3146102fe5780635c975abb1461031a5780636352211e146103385780636c0360eb14610368576101a9565b80632f745c591461028257806342842e0e146102b25780634f6ccce7146102ce576101a9565b806301ffc9a7146101ae57806306fdde03146101de578063081812fc146101fc578063095ea7b31461022c57806318160ddd1461024857806323b872dd14610266575b600080fd5b6101c860048036038101906101c391906132d4565b610540565b6040516101d59190613a9c565b60405180910390f35b6101e6610622565b6040516101f39190613bb3565b60405180910390f35b61021660048036038101906102119190613367565b6106b4565b6040516102239190613a03565b60405180910390f35b61024660048036038101906102419190613298565b610739565b005b610250610851565b60405161025d9190613f35565b60405180910390f35b610280600480360381019061027b91906130b1565b61085e565b005b61029c60048036038101906102979190613298565b6108be565b6040516102a99190613f35565b60405180910390f35b6102cc60048036038101906102c791906130b1565b610963565b005b6102e860048036038101906102e39190613367565b610983565b6040516102f59190613f35565b60405180910390f35b61031860048036038101906103139190613326565b610a1a565b005b610322610af8565b60405161032f9190613a9c565b60405180910390f35b610352600480360381019061034d9190613367565b610b0f565b60405161035f9190613a03565b60405180910390f35b610370610bc1565b60405161037d9190613bb3565b60405180910390f35b6103a0600480360381019061039b919061304c565b610c53565b6040516103ad9190613f35565b60405180910390f35b6103be610d0b565b005b6103da60048036038101906103d5919061320f565b610e48565b005b6103e4610fc0565b005b6103ee611046565b6040516103fb9190613a03565b60405180910390f35b61040c611070565b6040516104199190613bb3565b60405180910390f35b61043c6004803603810190610437919061317b565b611102565b005b61045860048036038101906104539190613100565b611283565b005b610474600480360381019061046f9190613367565b6112e5565b6040516104819190613bb3565b60405180910390f35b6104a4600480360381019061049f91906131b7565b6112f7565b6040516104b19190613f35565b60405180910390f35b6104d460048036038101906104cf91906131b7565b61134a565b6040516104e19190613f35565b60405180910390f35b61050460048036038101906104ff9190613075565b61139d565b6040516105119190613a9c565b60405180910390f35b610534600480360381019061052f919061304c565b611431565b005b61053e6115dd565b005b60007f80ac58cd000000000000000000000000000000000000000000000000000000007bffffffffffffffffffffffffffffffffffffffffffffffffffffffff1916827bffffffffffffffffffffffffffffffffffffffffffffffffffffffff1916148061060b57507f5b5e139f000000000000000000000000000000000000000000000000000000007bffffffffffffffffffffffffffffffffffffffffffffffffffffffff1916827bffffffffffffffffffffffffffffffffffffffffffffffffffffffff1916145b8061061b575061061a82611663565b5b9050919050565b60606000805461063190614191565b80601f016020809104026020016040519081016040528092919081815260200182805461065d90614191565b80156106aa5780601f1061067f576101008083540402835291602001916106aa565b820191906000526020600020905b81548152906001019060200180831161068d57829003601f168201915b5050505050905090565b60006106bf826116dd565b6106fe576040517f08c379a00000000000000000000000000000000000000000000000000000000081526004016106f590613e35565b60405180910390fd5b6004600083815260200190815260200160002060009054906101000a900473ffffffffffffffffffffffffffffffffffffffff169050919050565b600061074482610b0f565b90508073ffffffffffffffffffffffffffffffffffffffff168373ffffffffffffffffffffffffffffffffffffffff1614156107b5576040517f08c379a00000000000000000000000000000000000000000000000000000000081526004016107ac90613eb5565b60405180910390fd5b8073ffffffffffffffffffffffffffffffffffffffff166107d4611749565b73ffffffffffffffffffffffffffffffffffffffff1614806108035750610802816107fd611749565b61139d565b5b610842576040517f08c379a000000000000000000000000000000000000000000000000000000000815260040161083990613d95565b60405180910390fd5b61084c8383611751565b505050565b6000600b80549050905090565b61086f610869611749565b8261180a565b6108ae576040517f08c379a00000000000000000000000000000000000000000000000000000000081526004016108a590613ed5565b60405180910390fd5b6108b98383836118e8565b505050565b60006108c983610c53565b821061090a576040517f08c379a000000000000000000000000000000000000000000000000000000000815260040161090190613c55565b60405180910390fd5b600960008473ffffffffffffffffffffffffffffffffffffffff1673ffffffffffffffffffffffffffffffffffffffff168152602001908152602001600020600083815260200190815260200160002054905092915050565b61097e83838360405180602001604052806000815250611283565b505050565b600061098d610851565b82106109ce576040517f08c379a00000000000000000000000000000000000000000000000000000000081526004016109c590613ef5565b60405180910390fd5b600b8281548110610a08577f4e487b7100000000000000000000000000000000000000000000000000000000600052603260045260246000fd5b90600052602060002001549050919050565b610a22611749565b73ffffffffffffffffffffffffffffffffffffffff16610a40611046565b73ffffffffffffffffffffffffffffffffffffffff1614610a96576040517f08c379a0000000000000000000000000000000000000000000000000000000008152600401610a8d90613e55565b60405180910390fd5b610a9e610af8565b15610ade576040517f08c379a0000000000000000000000000000000000000000000000000000000008152600401610ad590613d55565b60405180910390fd5b8060089080519060200190610af4929190612d56565b5050565b6000600660009054906101000a900460ff16905090565b6000806002600084815260200190815260200160002060009054906101000a900473ffffffffffffffffffffffffffffffffffffffff169050600073ffffffffffffffffffffffffffffffffffffffff168173ffffffffffffffffffffffffffffffffffffffff161415610bb8576040517f08c379a0000000000000000000000000000000000000000000000000000000008152600401610baf90613dd5565b60405180910390fd5b80915050919050565b606060088054610bd090614191565b80601f0160208091040260200160405190810160405280929190818152602001828054610bfc90614191565b8015610c495780601f10610c1e57610100808354040283529160200191610c49565b820191906000526020600020905b815481529060010190602001808311610c2c57829003601f168201915b5050505050905090565b60008073ffffffffffffffffffffffffffffffffffffffff168273ffffffffffffffffffffffffffffffffffffffff161415610cc4576040517f08c379a0000000000000000000000000000000000000000000000000000000008152600401610cbb90613db5565b60405180910390fd5b600360008373ffffffffffffffffffffffffffffffffffffffff1673ffffffffffffffffffffffffffffffffffffffff168152602001908152602001600020549050919050565b610d13611749565b73ffffffffffffffffffffffffffffffffffffffff16610d31611046565b73ffffffffffffffffffffffffffffffffffffffff1614610d87576040517f08c379a0000000000000000000000000000000000000000000000000000000008152600401610d7e90613e55565b60405180910390fd5b600073ffffffffffffffffffffffffffffffffffffffff16600660019054906101000a900473ffffffffffffffffffffffffffffffffffffffff1673ffffffffffffffffffffffffffffffffffffffff167f8be0079c531659141344cd1fd0a4f28419497f9722a3daafe3b4186f6b6457e060405160405180910390a36000600660016101000a81548173ffffffffffffffffffffffffffffffffffffffff021916908373ffffffffffffffffffffffffffffffffffffffff160217905550565b6000610ea1610e578686611b44565b84848080601f016020809104026020016040519081016040528093929190818152602001838380828437600081840152601f19601f82011690508083019250505050505050611bb6565b90508073ffffffffffffffffffffffffffffffffffffffff163373ffffffffffffffffffffffffffffffffffffffff161480610ee35750610ee2813361139d565b5b610f22576040517f08c379a0000000000000000000000000000000000000000000000000000000008152600401610f1990613d75565b60405180910390fd5b6000610f2f8287876112f7565b9050610f4c82888360405180602001604052806000815250611c32565b8673ffffffffffffffffffffffffffffffffffffffff168273ffffffffffffffffffffffffffffffffffffffff167fb81d90300775327e5ff9b7e43342852858f8bc3b5dfeb49ba785363e219773dc88888888604051610faf9493929190613b78565b60405180910390a350505050505050565b610fc8611749565b73ffffffffffffffffffffffffffffffffffffffff16610fe6611046565b73ffffffffffffffffffffffffffffffffffffffff161461103c576040517f08c379a000000000000000000000000000000000000000000000000000000000815260040161103390613e55565b60405180910390fd5b611044611c8e565b565b6000600660019054906101000a900473ffffffffffffffffffffffffffffffffffffffff16905090565b60606001805461107f90614191565b80601f01602080910402602001604051908101604052809291908181526020018280546110ab90614191565b80156110f85780601f106110cd576101008083540402835291602001916110f8565b820191906000526020600020905b8154815290600101906020018083116110db57829003601f168201915b5050505050905090565b61110a611749565b73ffffffffffffffffffffffffffffffffffffffff168273ffffffffffffffffffffffffffffffffffffffff161415611178576040517f08c379a000000000000000000000000000000000000000000000000000000000815260040161116f90613cf5565b60405180910390fd5b8060056000611185611749565b73ffffffffffffffffffffffffffffffffffffffff1673ffffffffffffffffffffffffffffffffffffffff16815260200190815260200160002060008473ffffffffffffffffffffffffffffffffffffffff1673ffffffffffffffffffffffffffffffffffffffff16815260200190815260200160002060006101000a81548160ff0219169083151502179055508173ffffffffffffffffffffffffffffffffffffffff16611232611749565b73ffffffffffffffffffffffffffffffffffffffff167f17307eab39ab6107e8899845ad3d59bd9653f200f220920489ca2b5937696c31836040516112779190613a9c565b60405180910390a35050565b61129461128e611749565b8361180a565b6112d3576040517f08c379a00000000000000000000000000000000000000000000000000000000081526004016112ca90613ed5565b60405180910390fd5b6112df84848484611c32565b50505050565b60606112f082611d31565b9050919050565b60008084848460405160200161130f93929190613a6a565b6040516020818303038152906040528051906020012060001c90506113348582611e6f565b61133f81858561203d565b809150509392505050565b60008084848460405160200161136293929190613a6a565b6040516020818303038152906040528051906020012060001c905061138785826120ad565b61139281858561203d565b809150509392505050565b6000600560008473ffffffffffffffffffffffffffffffffffffffff1673ffffffffffffffffffffffffffffffffffffffff16815260200190815260200160002060008373ffffffffffffffffffffffffffffffffffffffff1673ffffffffffffffffffffffffffffffffffffffff16815260200190815260200160002060009054906101000a900460ff16905092915050565b611439611749565b73ffffffffffffffffffffffffffffffffffffffff16611457611046565b73ffffffffffffffffffffffffffffffffffffffff16146114ad576040517f08c379a00000000000000000000000000000000000000000000000000000000081526004016114a490613e55565b60405180910390fd5b600073ffffffffffffffffffffffffffffffffffffffff168173ffffffffffffffffffffffffffffffffffffffff16141561151d576040517f08c379a000000000000000000000000000000000000000000000000000000000815260040161151490613c95565b60405180910390fd5b8073ffffffffffffffffffffffffffffffffffffffff16600660019054906101000a900473ffffffffffffffffffffffffffffffffffffffff1673ffffffffffffffffffffffffffffffffffffffff167f8be0079c531659141344cd1fd0a4f28419497f9722a3daafe3b4186f6b6457e060405160405180910390a380600660016101000a81548173ffffffffffffffffffffffffffffffffffffffff021916908373ffffffffffffffffffffffffffffffffffffffff16021790555050565b6115e5611749565b73ffffffffffffffffffffffffffffffffffffffff16611603611046565b73ffffffffffffffffffffffffffffffffffffffff1614611659576040517f08c379a000000000000000000000000000000000000000000000000000000000815260040161165090613e55565b60405180910390fd5b6116616120cb565b565b60007f780e9d63000000000000000000000000000000000000000000000000000000007bffffffffffffffffffffffffffffffffffffffffffffffffffffffff1916827bffffffffffffffffffffffffffffffffffffffffffffffffffffffff191614806116d657506116d58261216d565b5b9050919050565b60008073ffffffffffffffffffffffffffffffffffffffff166002600084815260200190815260200160002060009054906101000a900473ffffffffffffffffffffffffffffffffffffffff1673ffffffffffffffffffffffffffffffffffffffff1614159050919050565b600033905090565b816004600083815260200190815260200160002060006101000a81548173ffffffffffffffffffffffffffffffffffffffff021916908373ffffffffffffffffffffffffffffffffffffffff160217905550808273ffffffffffffffffffffffffffffffffffffffff166117c483610b0f565b73ffffffffffffffffffffffffffffffffffffffff167f8c5be1e5ebec7d5bd14f71427d1e84f3dd0314c0f7b2291e5b200ac8c7c3b92560405160405180910390a45050565b6000611815826116dd565b611854576040517f08c379a000000000000000000000000000000000000000000000000000000000815260040161184b90613d35565b60405180910390fd5b600061185f83610b0f565b90508073ffffffffffffffffffffffffffffffffffffffff168473ffffffffffffffffffffffffffffffffffffffff1614806118ce57508373ffffffffffffffffffffffffffffffffffffffff166118b6846106b4565b73ffffffffffffffffffffffffffffffffffffffff16145b806118df57506118de818561139d565b5b91505092915050565b8273ffffffffffffffffffffffffffffffffffffffff1661190882610b0f565b73ffffffffffffffffffffffffffffffffffffffff161461195e576040517f08c379a000000000000000000000000000000000000000000000000000000000815260040161195590613e75565b60405180910390fd5b600073ffffffffffffffffffffffffffffffffffffffff168273ffffffffffffffffffffffffffffffffffffffff1614156119ce576040517f08c379a00000000000000000000000000000000000000000000000000000000081526004016119c590613cd5565b60405180910390fd5b6119d983838361224f565b6119e4600082611751565b6001600360008573ffffffffffffffffffffffffffffffffffffffff1673ffffffffffffffffffffffffffffffffffffffff1681526020019081526020016000206000828254611a349190614090565b925050819055506001600360008473ffffffffffffffffffffffffffffffffffffffff1673ffffffffffffffffffffffffffffffffffffffff1681526020019081526020016000206000828254611a8b919061403a565b92505081905550816002600083815260200190815260200160002060006101000a81548173ffffffffffffffffffffffffffffffffffffffff021916908373ffffffffffffffffffffffffffffffffffffffff160217905550808273ffffffffffffffffffffffffffffffffffffffff168473ffffffffffffffffffffffffffffffffffffffff167fddf252ad1be2c89b69c2b068fc378daa952ba7f163c4a11628f55a4df523b3ef60405160405180910390a4505050565b6000611bae7fa6b58c98ea4cc2264b50f22158f7630dd0e4b1d5e79193ec25dcf39653dda06f8484604051611b7a929190613967565b6040518091039020604051602001611b93929190613ab7565b6040516020818303038152906040528051906020012061225f565b905092915050565b6000806040518060400160405280601c81526020017f19457468657265756d205369676e6564204d6573736167653a0a333200000000815250905060008185604051602001611c06929190613980565b604051602081830303815290604052805190602001209050611c288185612279565b9250505092915050565b611c3d8484846118e8565b611c4984848484612343565b611c88576040517f08c379a0000000000000000000000000000000000000000000000000000000008152600401611c7f90613c75565b60405180910390fd5b50505050565b611c96610af8565b15611cd6576040517f08c379a0000000000000000000000000000000000000000000000000000000008152600401611ccd90613d55565b60405180910390fd5b6001600660006101000a81548160ff0219169083151502179055507f62e78cea01bee320cd4e420270b5ea74000d11b0c9f74754ebdbfc544b05a258611d1a611749565b604051611d279190613a03565b60405180910390a1565b6060611d3c826116dd565b611d7b576040517f08c379a0000000000000000000000000000000000000000000000000000000008152600401611d7290613e95565b60405180910390fd5b600060088054611d8a90614191565b905011611e3257600760008381526020019081526020016000208054611daf90614191565b80601f0160208091040260200160405190810160405280929190818152602001828054611ddb90614191565b8015611e285780601f10611dfd57610100808354040283529160200191611e28565b820191906000526020600020905b815481529060010190602001808311611e0b57829003601f168201915b5050505050611e68565b600860076000848152602001908152602001600020604051602001611e589291906139a8565b6040516020818303038152906040525b9050919050565b600073ffffffffffffffffffffffffffffffffffffffff168273ffffffffffffffffffffffffffffffffffffffff161415611edf576040517f08c379a0000000000000000000000000000000000000000000000000000000008152600401611ed690613e15565b60405180910390fd5b611ee8816116dd565b15611f28576040517f08c379a0000000000000000000000000000000000000000000000000000000008152600401611f1f90613cb5565b60405180910390fd5b611f346000838361224f565b6001600360008473ffffffffffffffffffffffffffffffffffffffff1673ffffffffffffffffffffffffffffffffffffffff1681526020019081526020016000206000828254611f84919061403a565b92505081905550816002600083815260200190815260200160002060006101000a81548173ffffffffffffffffffffffffffffffffffffffff021916908373ffffffffffffffffffffffffffffffffffffffff160217905550808273ffffffffffffffffffffffffffffffffffffffff16600073ffffffffffffffffffffffffffffffffffffffff167fddf252ad1be2c89b69c2b068fc378daa952ba7f163c4a11628f55a4df523b3ef60405160405180910390a45050565b612046836116dd565b612085576040517f08c379a000000000000000000000000000000000000000000000000000000000815260040161207c90613f15565b60405180910390fd5b81816007600086815260200190815260200160002091906120a7929190612ddc565b50505050565b6120c78282604051806020016040528060008152506124da565b5050565b6120d3610af8565b612112576040517f08c379a000000000000000000000000000000000000000000000000000000000815260040161210990613c15565b60405180910390fd5b6000600660006101000a81548160ff0219169083151502179055507f5db9ee0a495bf2e6ff9c91a7834c1ba4fdd244a5e8aa4e537bd38aeae4b073aa612156611749565b6040516121639190613a03565b60405180910390a1565b60007f80ac58cd000000000000000000000000000000000000000000000000000000007bffffffffffffffffffffffffffffffffffffffffffffffffffffffff1916827bffffffffffffffffffffffffffffffffffffffffffffffffffffffff1916148061223857507f5b5e139f000000000000000000000000000000000000000000000000000000007bffffffffffffffffffffffffffffffffffffffffffffffffffffffff1916827bffffffffffffffffffffffffffffffffffffffffffffffffffffffff1916145b80612248575061224782612535565b5b9050919050565b61225a83838361259f565b505050565b600061227261226c6126b3565b83612776565b9050919050565b6000806000806041855114156122a6576020850151925060408501519150606085015160001a905061232c565b6040855114156122f0576040850151602086015193507f7fffffffffffffffffffffffffffffffffffffffffffffffffffffffffffffff81169250601b8160ff1c0191505061232b565b6040517f08c379a000000000000000000000000000000000000000000000000000000000815260040161232290613c35565b60405180910390fd5b5b612338868285856127a9565b935050505092915050565b60006123648473ffffffffffffffffffffffffffffffffffffffff16612934565b156124cd578373ffffffffffffffffffffffffffffffffffffffff1663150b7a0261238d611749565b8786866040518563ffffffff1660e01b81526004016123af9493929190613a1e565b602060405180830381600087803b1580156123c957600080fd5b505af19250505080156123fa57506040513d601f19601f820116820180604052508101906123f791906132fd565b60015b61247d573d806000811461242a576040519150601f19603f3d011682016040523d82523d6000602084013e61242f565b606091505b50600081511415612475576040517f08c379a000000000000000000000000000000000000000000000000000000000815260040161246c90613c75565b60405180910390fd5b805181602001fd5b63150b7a0260e01b7bffffffffffffffffffffffffffffffffffffffffffffffffffffffff1916817bffffffffffffffffffffffffffffffffffffffffffffffffffffffff1916149150506124d2565b600190505b949350505050565b6124e48383611e6f565b6124f16000848484612343565b612530576040517f08c379a000000000000000000000000000000000000000000000000000000000815260040161252790613c75565b60405180910390fd5b505050565b60007f01ffc9a7000000000000000000000000000000000000000000000000000000007bffffffffffffffffffffffffffffffffffffffffffffffffffffffff1916827bffffffffffffffffffffffffffffffffffffffffffffffffffffffff1916149050919050565b6125aa838383612947565b600073ffffffffffffffffffffffffffffffffffffffff168373ffffffffffffffffffffffffffffffffffffffff1614156125ed576125e88161299f565b61262c565b8173ffffffffffffffffffffffffffffffffffffffff168373ffffffffffffffffffffffffffffffffffffffff161461262b5761262a83826129e8565b5b5b600073ffffffffffffffffffffffffffffffffffffffff168273ffffffffffffffffffffffffffffffffffffffff16141561266f5761266a81612b55565b6126ae565b8273ffffffffffffffffffffffffffffffffffffffff168273ffffffffffffffffffffffffffffffffffffffff16146126ad576126ac8282612c98565b5b5b505050565b60007f0000000000000000000000000000000000000000000000000000000000000000461415612705577f00000000000000000000000000000000000000000000000000000000000000009050612773565b6127707f00000000000000000000000000000000000000000000000000000000000000007f00000000000000000000000000000000000000000000000000000000000000007f0000000000000000000000000000000000000000000000000000000000000000612d17565b90505b90565b6000828260405160200161278b9291906139cc565b60405160208183030381529060405280519060200120905092915050565b60007f7fffffffffffffffffffffffffffffff5d576e7357a4501ddfe92f46681b20a08260001c1115612811576040517f08c379a000000000000000000000000000000000000000000000000000000000815260040161280890613d15565b60405180910390fd5b601b8460ff1614806128265750601c8460ff16145b612865576040517f08c379a000000000000000000000000000000000000000000000000000000000815260040161285c90613df5565b60405180910390fd5b60006001868686866040516000815260200160405260405161288a9493929190613b33565b6020604051602081039080840390855afa1580156128ac573d6000803e3d6000fd5b505050602060405103519050600073ffffffffffffffffffffffffffffffffffffffff168173ffffffffffffffffffffffffffffffffffffffff161415612928576040517f08c379a000000000000000000000000000000000000000000000000000000000815260040161291f90613bd5565b60405180910390fd5b80915050949350505050565b600080823b905060008111915050919050565b612952838383612d51565b61295a610af8565b1561299a576040517f08c379a000000000000000000000000000000000000000000000000000000000815260040161299190613bf5565b60405180910390fd5b505050565b600b80549050600c600083815260200190815260200160002081905550600b81908060018154018082558091505060019003906000526020600020016000909190919091505550565b600060016129f584610c53565b6129ff9190614090565b90506000600a6000848152602001908152602001600020549050818114612ae4576000600960008673ffffffffffffffffffffffffffffffffffffffff1673ffffffffffffffffffffffffffffffffffffffff168152602001908152602001600020600084815260200190815260200160002054905080600960008773ffffffffffffffffffffffffffffffffffffffff1673ffffffffffffffffffffffffffffffffffffffff16815260200190815260200160002060008481526020019081526020016000208190555081600a600083815260200190815260200160002081905550505b600a600084815260200190815260200160002060009055600960008573ffffffffffffffffffffffffffffffffffffffff1673ffffffffffffffffffffffffffffffffffffffff16815260200190815260200160002060008381526020019081526020016000206000905550505050565b60006001600b80549050612b699190614090565b90506000600c60008481526020019081526020016000205490506000600b8381548110612bbf577f4e487b7100000000000000000000000000000000000000000000000000000000600052603260045260246000fd5b9060005260206000200154905080600b8381548110612c07577f4e487b7100000000000000000000000000000000000000000000000000000000600052603260045260246000fd5b906000526020600020018190555081600c600083815260200190815260200160002081905550600c600085815260200190815260200160002060009055600b805480612c7c577f4e487b7100000000000000000000000000000000000000000000000000000000600052603160045260246000fd5b6001900381819060005260206000200160009055905550505050565b6000612ca383610c53565b905081600960008573ffffffffffffffffffffffffffffffffffffffff1673ffffffffffffffffffffffffffffffffffffffff16815260200190815260200160002060008381526020019081526020016000208190555080600a600084815260200190815260200160002081905550505050565b60008383834630604051602001612d32959493929190613ae0565b6040516020818303038152906040528051906020012090509392505050565b505050565b828054612d6290614191565b90600052602060002090601f016020900481019282612d845760008555612dcb565b82601f10612d9d57805160ff1916838001178555612dcb565b82800160010185558215612dcb579182015b82811115612dca578251825591602001919060010190612daf565b5b509050612dd89190612e62565b5090565b828054612de890614191565b90600052602060002090601f016020900481019282612e0a5760008555612e51565b82601f10612e2357803560ff1916838001178555612e51565b82800160010185558215612e51579182015b82811115612e50578235825591602001919060010190612e35565b5b509050612e5e9190612e62565b5090565b5b80821115612e7b576000816000905550600101612e63565b5090565b6000612e92612e8d84613f75565b613f50565b905082815260208101848484011115612eaa57600080fd5b612eb584828561414f565b509392505050565b6000612ed0612ecb84613fa6565b613f50565b905082815260208101848484011115612ee857600080fd5b612ef384828561414f565b509392505050565b600081359050612f0a8161499e565b92915050565b600081359050612f1f816149b5565b92915050565b600081359050612f34816149cc565b92915050565b600081519050612f49816149cc565b92915050565b60008083601f840112612f6157600080fd5b8235905067ffffffffffffffff811115612f7a57600080fd5b602083019150836001820283011115612f9257600080fd5b9250929050565b600082601f830112612faa57600080fd5b8135612fba848260208601612e7f565b91505092915050565b60008083601f840112612fd557600080fd5b8235905067ffffffffffffffff811115612fee57600080fd5b60208301915083600182028301111561300657600080fd5b9250929050565b600082601f83011261301e57600080fd5b813561302e848260208601612ebd565b91505092915050565b600081359050613046816149e3565b92915050565b60006020828403121561305e57600080fd5b600061306c84828501612efb565b91505092915050565b6000806040838503121561308857600080fd5b600061309685828601612efb565b92505060206130a785828601612efb565b9150509250929050565b6000806000606084860312156130c657600080fd5b60006130d486828701612efb565b93505060206130e586828701612efb565b92505060406130f686828701613037565b9150509250925092565b6000806000806080858703121561311657600080fd5b600061312487828801612efb565b945050602061313587828801612efb565b935050604061314687828801613037565b925050606085013567ffffffffffffffff81111561316357600080fd5b61316f87828801612f99565b91505092959194509250565b6000806040838503121561318e57600080fd5b600061319c85828601612efb565b92505060206131ad85828601612f10565b9150509250929050565b6000806000604084860312156131cc57600080fd5b60006131da86828701612efb565b935050602084013567ffffffffffffffff8111156131f757600080fd5b61320386828701612fc3565b92509250509250925092565b60008060008060006060868803121561322757600080fd5b600061323588828901612efb565b955050602086013567ffffffffffffffff81111561325257600080fd5b61325e88828901612fc3565b9450945050604086013567ffffffffffffffff81111561327d57600080fd5b61328988828901612f4f565b92509250509295509295909350565b600080604083850312156132ab57600080fd5b60006132b985828601612efb565b92505060206132ca85828601613037565b9150509250929050565b6000602082840312156132e657600080fd5b60006132f484828501612f25565b91505092915050565b60006020828403121561330f57600080fd5b600061331d84828501612f3a565b91505092915050565b60006020828403121561333857600080fd5b600082013567ffffffffffffffff81111561335257600080fd5b61335e8482850161300d565b91505092915050565b60006020828403121561337957600080fd5b600061338784828501613037565b91505092915050565b613399816140c4565b82525050565b6133a8816140d6565b82525050565b6133b7816140e2565b82525050565b6133ce6133c9826140e2565b6141f4565b82525050565b60006133e08385614002565b93506133ed83858461414f565b6133f68361428b565b840190509392505050565b600061340d8385614013565b935061341a83858461414f565b82840190509392505050565b600061343182613fec565b61343b8185614002565b935061344b81856020860161415e565b6134548161428b565b840191505092915050565b600061346a82613fec565b6134748185614013565b935061348481856020860161415e565b80840191505092915050565b600061349c838561401e565b93506134a983858461414f565b6134b28361428b565b840190509392505050565b60006134c882613ff7565b6134d2818561401e565b93506134e281856020860161415e565b6134eb8161428b565b840191505092915050565b6000815461350381614191565b61350d818661402f565b9450600182166000811461352857600181146135395761356c565b60ff1983168652818601935061356c565b61354285613fd7565b60005b8381101561356457815481890152600182019150602081019050613545565b838801955050505b50505092915050565b600061358260188361401e565b915061358d8261429c565b602082019050919050565b60006135a5602b8361401e565b91506135b0826142c5565b604082019050919050565b60006135c860148361401e565b91506135d382614314565b602082019050919050565b60006135eb601f8361401e565b91506135f68261433d565b602082019050919050565b600061360e602b8361401e565b915061361982614366565b604082019050919050565b600061363160328361401e565b915061363c826143b5565b604082019050919050565b600061365460268361401e565b915061365f82614404565b604082019050919050565b6000613677601c8361401e565b915061368282614453565b602082019050919050565b600061369a60028361402f565b91506136a58261447c565b600282019050919050565b60006136bd60248361401e565b91506136c8826144a5565b604082019050919050565b60006136e060198361401e565b91506136eb826144f4565b602082019050919050565b600061370360228361401e565b915061370e8261451d565b604082019050919050565b6000613726602c8361401e565b91506137318261456c565b604082019050919050565b600061374960108361401e565b9150613754826145bb565b602082019050919050565b600061376c60198361401e565b9150613777826145e4565b602082019050919050565b600061378f60388361401e565b915061379a8261460d565b604082019050919050565b60006137b2602a8361401e565b91506137bd8261465c565b604082019050919050565b60006137d560298361401e565b91506137e0826146ab565b604082019050919050565b60006137f860228361401e565b9150613803826146fa565b604082019050919050565b600061381b60208361401e565b915061382682614749565b602082019050919050565b600061383e602c8361401e565b915061384982614772565b604082019050919050565b600061386160208361401e565b915061386c826147c1565b602082019050919050565b600061388460298361401e565b915061388f826147ea565b604082019050919050565b60006138a7602f8361401e565b91506138b282614839565b604082019050919050565b60006138ca60218361401e565b91506138d582614888565b604082019050919050565b60006138ed60318361401e565b91506138f8826148d7565b604082019050919050565b6000613910602c8361401e565b915061391b82614926565b604082019050919050565b600061393360148361401e565b915061393e82614975565b602082019050919050565b61395281614138565b82525050565b61396181614142565b82525050565b6000613974828486613401565b91508190509392505050565b600061398c828561345f565b915061399882846133bd565b6020820191508190509392505050565b60006139b482856134f6565b91506139c082846134f6565b91508190509392505050565b60006139d78261368d565b91506139e382856133bd565b6020820191506139f382846133bd565b6020820191508190509392505050565b6000602082019050613a186000830184613390565b92915050565b6000608082019050613a336000830187613390565b613a406020830186613390565b613a4d6040830185613949565b8181036060830152613a5f8184613426565b905095945050505050565b6000604082019050613a7f6000830186613390565b8181036020830152613a92818486613490565b9050949350505050565b6000602082019050613ab1600083018461339f565b92915050565b6000604082019050613acc60008301856133ae565b613ad960208301846133ae565b9392505050565b600060a082019050613af560008301886133ae565b613b0260208301876133ae565b613b0f60408301866133ae565b613b1c6060830185613949565b613b296080830184613390565b9695505050505050565b6000608082019050613b4860008301876133ae565b613b556020830186613958565b613b6260408301856133ae565b613b6f60608301846133ae565b95945050505050565b60006040820190508181036000830152613b93818688613490565b90508181036020830152613ba88184866133d4565b905095945050505050565b60006020820190508181036000830152613bcd81846134bd565b905092915050565b60006020820190508181036000830152613bee81613575565b9050919050565b60006020820190508181036000830152613c0e81613598565b9050919050565b60006020820190508181036000830152613c2e816135bb565b9050919050565b60006020820190508181036000830152613c4e816135de565b9050919050565b60006020820190508181036000830152613c6e81613601565b9050919050565b60006020820190508181036000830152613c8e81613624565b9050919050565b60006020820190508181036000830152613cae81613647565b9050919050565b60006020820190508181036000830152613cce8161366a565b9050919050565b60006020820190508181036000830152613cee816136b0565b9050919050565b60006020820190508181036000830152613d0e816136d3565b9050919050565b60006020820190508181036000830152613d2e816136f6565b9050919050565b60006020820190508181036000830152613d4e81613719565b9050919050565b60006020820190508181036000830152613d6e8161373c565b9050919050565b60006020820190508181036000830152613d8e8161375f565b9050919050565b60006020820190508181036000830152613dae81613782565b9050919050565b60006020820190508181036000830152613dce816137a5565b9050919050565b60006020820190508181036000830152613dee816137c8565b9050919050565b60006020820190508181036000830152613e0e816137eb565b9050919050565b60006020820190508181036000830152613e2e8161380e565b9050919050565b60006020820190508181036000830152613e4e81613831565b9050919050565b60006020820190508181036000830152613e6e81613854565b9050919050565b60006020820190508181036000830152613e8e81613877565b9050919050565b60006020820190508181036000830152613eae8161389a565b9050919050565b60006020820190508181036000830152613ece816138bd565b9050919050565b60006020820190508181036000830152613eee816138e0565b9050919050565b60006020820190508181036000830152613f0e81613903565b9050919050565b60006020820190508181036000830152613f2e81613926565b9050919050565b6000602082019050613f4a6000830184613949565b92915050565b6000613f5a613f6b565b9050613f6682826141c3565b919050565b6000604051905090565b600067ffffffffffffffff821115613f9057613f8f61425c565b5b613f998261428b565b9050602081019050919050565b600067ffffffffffffffff821115613fc157613fc061425c565b5b613fca8261428b565b9050602081019050919050565b60008190508160005260206000209050919050565b600081519050919050565b600081519050919050565b600082825260208201905092915050565b600081905092915050565b600082825260208201905092915050565b600081905092915050565b600061404582614138565b915061405083614138565b9250827fffffffffffffffffffffffffffffffffffffffffffffffffffffffffffffffff03821115614085576140846141fe565b5b828201905092915050565b600061409b82614138565b91506140a683614138565b9250828210156140b9576140b86141fe565b5b828203905092915050565b60006140cf82614118565b9050919050565b60008115159050919050565b6000819050919050565b60007fffffffff0000000000000000000000000000000000000000000000000000000082169050919050565b600073ffffffffffffffffffffffffffffffffffffffff82169050919050565b6000819050919050565b600060ff82169050919050565b82818337600083830152505050565b60005b8381101561417c578082015181840152602081019050614161565b8381111561418b576000848401525b50505050565b600060028204905060018216806141a957607f821691505b602082108114156141bd576141bc61422d565b5b50919050565b6141cc8261428b565b810181811067ffffffffffffffff821117156141eb576141ea61425c565b5b80604052505050565b6000819050919050565b7f4e487b7100000000000000000000000000000000000000000000000000000000600052601160045260246000fd5b7f4e487b7100000000000000000000000000000000000000000000000000000000600052602260045260246000fd5b7f4e487b7100000000000000000000000000000000000000000000000000000000600052604160045260246000fd5b6000601f19601f8301169050919050565b7f45434453413a20696e76616c6964207369676e61747572650000000000000000600082015250565b7f4552433732315061757361626c653a20746f6b656e207472616e73666572207760008201527f68696c6520706175736564000000000000000000000000000000000000000000602082015250565b7f5061757361626c653a206e6f7420706175736564000000000000000000000000600082015250565b7f45434453413a20696e76616c6964207369676e6174757265206c656e67746800600082015250565b7f455243373231456e756d657261626c653a206f776e657220696e646578206f7560008201527f74206f6620626f756e6473000000000000000000000000000000000000000000602082015250565b7f4552433732313a207472616e7366657220746f206e6f6e20455243373231526560008201527f63656976657220696d706c656d656e7465720000000000000000000000000000602082015250565b7f4f776e61626c653a206e6577206f776e657220697320746865207a65726f206160008201527f6464726573730000000000000000000000000000000000000000000000000000602082015250565b7f4552433732313a20746f6b656e20616c7265616479206d696e74656400000000600082015250565b7f1901000000000000000000000000000000000000000000000000000000000000600082015250565b7f4552433732313a207472616e7366657220746f20746865207a65726f2061646460008201527f7265737300000000000000000000000000000000000000000000000000000000602082015250565b7f4552433732313a20617070726f766520746f2063616c6c657200000000000000600082015250565b7f45434453413a20696e76616c6964207369676e6174757265202773272076616c60008201527f7565000000000000000000000000000000000000000000000000000000000000602082015250565b7f4552433732313a206f70657261746f7220717565727920666f72206e6f6e657860008201527f697374656e7420746f6b656e0000000000000000000000000000000000000000602082015250565b7f5061757361626c653a2070617573656400000000000000000000000000000000600082015250565b7f4d5553545f42455f4f574e45525f4f525f415050524f56454400000000000000600082015250565b7f4552433732313a20617070726f76652063616c6c6572206973206e6f74206f7760008201527f6e6572206e6f7220617070726f76656420666f7220616c6c0000000000000000602082015250565b7f4552433732313a2062616c616e636520717565727920666f7220746865207a6560008201527f726f206164647265737300000000000000000000000000000000000000000000602082015250565b7f4552433732313a206f776e657220717565727920666f72206e6f6e657869737460008201527f656e7420746f6b656e0000000000000000000000000000000000000000000000602082015250565b7f45434453413a20696e76616c6964207369676e6174757265202776272076616c60008201527f7565000000000000000000000000000000000000000000000000000000000000602082015250565b7f4552433732313a206d696e7420746f20746865207a65726f2061646472657373600082015250565b7f4552433732313a20617070726f76656420717565727920666f72206e6f6e657860008201527f697374656e7420746f6b656e0000000000000000000000000000000000000000602082015250565b7f4f776e61626c653a2063616c6c6572206973206e6f7420746865206f776e6572600082015250565b7f4552433732313a207472616e73666572206f6620746f6b656e2074686174206960008201527f73206e6f74206f776e0000000000000000000000000000000000000000000000602082015250565b7f4552433732314d657461646174613a2055524920717565727920666f72206e6f60008201527f6e6578697374656e7420746f6b656e0000000000000000000000000000000000602082015250565b7f4552433732313a20617070726f76616c20746f2063757272656e74206f776e6560008201527f7200000000000000000000000000000000000000000000000000000000000000602082015250565b7f4552433732313a207472616e736665722063616c6c6572206973206e6f74206f60008201527f776e6572206e6f7220617070726f766564000000000000000000000000000000602082015250565b7f455243373231456e756d657261626c653a20676c6f62616c20696e646578206f60008201527f7574206f6620626f756e64730000000000000000000000000000000000000000602082015250565b7f544f4b454e5f49445f4e4f545f45584953544544000000000000000000000000600082015250565b6149a7816140c4565b81146149b257600080fd5b50565b6149be816140d6565b81146149c957600080fd5b50565b6149d5816140ec565b81146149e057600080fd5b50565b6149ec81614138565b81146149f757600080fd5b5056fea2646970667358221220193ef29fb626fe27fe9fc45520d928582880dc7dcf9adddd6d7bf3950dbd8b6564736f6c63430008040033",
  "immutableReferences": {
    "3705": [
      {
        "length": 32,
        "start": 9951
      }
    ],
    "3707": [
      {
        "length": 32,
        "start": 9911
      }
    ],
    "3709": [
      {
        "length": 32,
        "start": 10027
      }
    ],
    "3711": [
      {
        "length": 32,
        "start": 10060
      }
    ],
    "3713": [
      {
        "length": 32,
        "start": 9994
      }
    ]
  },
  "source": "// SPDX-License-Identifier: UNLICENSED\n\npragma solidity 0.8.4;\n\nimport \"./TaureumERC721Enumerable.sol\";\nimport \"../../lib/utils/cryptography/draft-EIP712.sol\";\n\ncontract TaureumERC721LazyMint is TaureumERC721Enumerable, EIP712 {\n    string private constant SIGNING_DOMAIN = \"TaureumNFT\";\n    string private constant SIGNATURE_VERSION = \"1\";\n\n    /**\n     * @dev Emitted when a pending token is redeemed in the lazy-minting protocol.\n     */\n    event Redeem(\n        address indexed minter,\n        address indexed redeemer,\n        string uri,\n        bytes signature);\n\n    /**\n     * @dev Create a new TaureumNFTLazyMint contract and and assign `DEFAULT_ADMIN_ROLE, MINTER_ROLE` for the creator.\n     * This construction function should be called from an exchange.\n     *\n     */\n    constructor() TaureumERC721Enumerable() EIP712(SIGNING_DOMAIN, SIGNATURE_VERSION)\n    {}\n\n    /**\n     * @dev Implement a lazy minting mechanism in which the NFT-minting process is delayed until the first order is successful.\n     * This function should be handled by a smart contract which is allowed by the `minter`.\n     * @notice It throws if\n     *      - `msg.sender` is not the `minter` or has not been approved by the `minter`.\n     *      - redeem data and signature are not valid.\n     *      - if the redeemer is a contract and it cannot receive the NFT.\n     * @param redeemer The address that the minted NFT will be transferred to.\n     * @param uri The URI consists of metadata description of the minting NFT on the IPFS (without prefix).\n     * @param signature The signature signed by `to` designating `msg.sender` to mint the NFT for it.\n     */\n    function redeem(address redeemer, string calldata uri, bytes calldata signature)\n    external\n    {\n        address minter = _verify(_hash(uri), signature);\n        require(msg.sender == minter || isApprovedForAll(minter, msg.sender), \"MUST_BE_OWNER_OR_APPROVED\");\n\n        // mint the token to the signer\n        uint256 id = mint(minter, uri);\n\n        // transfer the minted token to the redeemer\n        _safeTransfer(minter, redeemer, id, \"\");\n\n        emit Redeem(minter, redeemer, uri, signature);\n    }\n\n    /// @notice Returns a hash of the given PendingNFT, prepared using EIP712 typed data hashing rules.\n    function _hash(string calldata uri)\n    internal view returns (bytes32)\n    {\n        return _hashTypedDataV4(keccak256(abi.encode(\n                keccak256(\"TaureumNFT(string uri)\"),\n                keccak256(bytes(uri))\n            )));\n    }\n\n    /**\n     * @dev Returns the signer for a pair of digested message and signature.\n     */\n    function _verify(bytes32 digest, bytes memory signature)\n    internal pure returns (address)\n    {\n        bytes memory prefix = \"\\x19Ethereum Signed Message:\\n32\";\n        bytes32 prefixedHash = keccak256(abi.encodePacked(prefix, digest));\n        return ECDSA.recover(prefixedHash, signature);\n    }\n}\n",
  "sourcePath": "/home/toor/nodejs/truffle/nft_demo/taureum/taureum-nft-sc/contracts/tokens/ERC721/TaureumERC721LazyMint.sol",
  "compiler": {
    "name": "solc",
    "version": "0.8.4+commit.c7e474f2.Emscripten.clang"
  },
  "schemaVersion": "3.4.1",
  "updatedAt": "2021-08-29T07:21:15.118Z",
  "networkType": "ethereum",
  "devdoc": {
    "events": {
      "Redeem(address,address,string,bytes)": {
        "details": "Emitted when a pending token is redeemed in the lazy-minting protocol."
      }
    },
    "kind": "dev",
    "methods": {
      "approve(address,uint256)": {
        "details": "See {IERC721-approve}."
      },
      "balanceOf(address)": {
        "details": "See {IERC721-balanceOf}."
      },
      "baseURI()": {
        "details": "Returns `__baseURI`."
      },
      "constructor": {
        "details": "Create a new TaureumNFTLazyMint contract and and assign `DEFAULT_ADMIN_ROLE, MINTER_ROLE` for the creator. This construction function should be called from an exchange."
      },
      "getApproved(uint256)": {
        "details": "See {IERC721-getApproved}."
      },
      "isApprovedForAll(address,address)": {
        "details": "See {IERC721-isApprovedForAll}."
      },
      "mint(address,string)": {
        "details": "Mint a new NFT.",
        "params": {
          "to": "The address that will own the minted NFT.",
          "uri": "The URI consists of metadata description of the minting NFT on the IPFS (without prefix)."
        }
      },
      "name()": {
        "details": "See {IERC721Metadata-name}."
      },
      "owner()": {
        "details": "Returns the address of the current owner."
      },
      "ownerOf(uint256)": {
        "details": "See {IERC721-ownerOf}."
      },
      "pause()": {
        "details": "Pause the contract in case of bugs/attacks."
      },
      "paused()": {
        "details": "Returns true if the contract is paused, and false otherwise."
      },
      "redeem(address,string,bytes)": {
        "details": "Implement a lazy minting mechanism in which the NFT-minting process is delayed until the first order is successful. This function should be handled by a smart contract which is allowed by the `minter`.",
        "params": {
          "redeemer": "The address that the minted NFT will be transferred to.",
          "signature": "The signature signed by `to` designating `msg.sender` to mint the NFT for it.",
          "uri": "The URI consists of metadata description of the minting NFT on the IPFS (without prefix)."
        }
      },
      "renounceOwnership()": {
        "details": "Leaves the contract without owner. It will not be possible to call `onlyOwner` functions anymore. Can only be called by the current owner. NOTE: Renouncing ownership will leave the contract without an owner, thereby removing any functionality that is only available to the owner."
      },
      "safeMint(address,string)": {
        "details": "Safely mint a new NFT.",
        "params": {
          "to": "The address that will own the minted NFT.",
          "uri": "The URI consists of metadata description of the minting NFT on the IPFS (without prefix)."
        }
      },
      "safeTransferFrom(address,address,uint256)": {
        "details": "See {IERC721-safeTransferFrom}."
      },
      "safeTransferFrom(address,address,uint256,bytes)": {
        "details": "See {IERC721-safeTransferFrom}."
      },
      "setApprovalForAll(address,bool)": {
        "details": "See {IERC721-setApprovalForAll}."
      },
      "setBaseURI(string)": {
        "details": "Sets new value for the `__baseURI`. This operation can only been done by the owner of this contract."
      },
      "supportsInterface(bytes4)": {
        "details": "See {IERC165-supportsInterface}."
      },
      "symbol()": {
        "details": "See {IERC721Metadata-symbol}."
      },
      "tokenByIndex(uint256)": {
        "details": "See {IERC721Enumerable-tokenByIndex}."
      },
      "tokenOfOwnerByIndex(address,uint256)": {
        "details": "See {IERC721Enumerable-tokenOfOwnerByIndex}."
      },
      "tokenURI(uint256)": {
        "details": "See {IERC721Metadata-tokenURI}."
      },
      "totalSupply()": {
        "details": "See {IERC721Enumerable-totalSupply}."
      },
      "transferFrom(address,address,uint256)": {
        "details": "See {IERC721-transferFrom}."
      },
      "transferOwnership(address)": {
        "details": "Transfers ownership of the contract to a new account (`newOwner`). Can only be called by the current owner."
      },
      "unPause()": {
        "details": "Resume the contract after being paused."
      }
    },
    "version": 1
  },
  "userdoc": {
    "kind": "user",
    "methods": {
      "mint(address,string)": {
        "notice": "It throws an exception if    - `to` is a \"ZERO_ADDRESS."
      },
      "pause()": {
        "notice": "Only the owner can call this method."
      },
      "redeem(address,string,bytes)": {
        "notice": "It throws if      - `msg.sender` is not the `minter` or has not been approved by the `minter`.      - redeem data and signature are not valid.      - if the redeemer is a contract and it cannot receive the NFT."
      },
      "safeMint(address,string)": {
        "notice": "It throws an exception if    - `to` is a \"ZERO_ADDRESS.    - If `to` refers to a smart contract, it must implement {IERC721Receiver-onERC721Received}, which is called upon a safe transfer."
      },
      "unPause()": {
        "notice": "Only the owner can call this method."
      }
    },
    "version": 1
  }
}