{
  "contractName": "TaureumERC1155",
  "abi": [
    {
      "inputs": [
        {
          "internalType": "string",
          "name": "baseURI_",
          "type": "string"
        }
      ],
      "stateMutability": "nonpayable",
      "type": "constructor"
    },
    {
      "anonymous": false,
      "inputs": [
        {
          "indexed": true,
          "internalType": "address",
          "name": "account",
          "type": "address"
        },
        {
          "indexed": true,
          "internalType": "address",
          "name": "operator",
          "type": "address"
        },
        {
          "indexed": false,
          "internalType": "bool",
          "name": "approved",
          "type": "bool"
        }
      ],
      "name": "ApprovalForAll",
      "type": "event"
    },
    {
      "anonymous": false,
      "inputs": [
        {
          "indexed": true,
          "internalType": "address",
          "name": "previousOwner",
          "type": "address"
        },
        {
          "indexed": true,
          "internalType": "address",
          "name": "newOwner",
          "type": "address"
        }
      ],
      "name": "OwnershipTransferred",
      "type": "event"
    },
    {
      "anonymous": false,
      "inputs": [
        {
          "indexed": false,
          "internalType": "address",
          "name": "account",
          "type": "address"
        }
      ],
      "name": "Paused",
      "type": "event"
    },
    {
      "anonymous": false,
      "inputs": [
        {
          "indexed": true,
          "internalType": "address",
          "name": "operator",
          "type": "address"
        },
        {
          "indexed": true,
          "internalType": "address",
          "name": "from",
          "type": "address"
        },
        {
          "indexed": true,
          "internalType": "address",
          "name": "to",
          "type": "address"
        },
        {
          "indexed": false,
          "internalType": "uint256[]",
          "name": "ids",
          "type": "uint256[]"
        },
        {
          "indexed": false,
          "internalType": "uint256[]",
          "name": "values",
          "type": "uint256[]"
        }
      ],
      "name": "TransferBatch",
      "type": "event"
    },
    {
      "anonymous": false,
      "inputs": [
        {
          "indexed": true,
          "internalType": "address",
          "name": "operator",
          "type": "address"
        },
        {
          "indexed": true,
          "internalType": "address",
          "name": "from",
          "type": "address"
        },
        {
          "indexed": true,
          "internalType": "address",
          "name": "to",
          "type": "address"
        },
        {
          "indexed": false,
          "internalType": "uint256",
          "name": "id",
          "type": "uint256"
        },
        {
          "indexed": false,
          "internalType": "uint256",
          "name": "value",
          "type": "uint256"
        }
      ],
      "name": "TransferSingle",
      "type": "event"
    },
    {
      "anonymous": false,
      "inputs": [
        {
          "indexed": false,
          "internalType": "string",
          "name": "value",
          "type": "string"
        },
        {
          "indexed": true,
          "internalType": "uint256",
          "name": "id",
          "type": "uint256"
        }
      ],
      "name": "URI",
      "type": "event"
    },
    {
      "anonymous": false,
      "inputs": [
        {
          "indexed": false,
          "internalType": "address",
          "name": "account",
          "type": "address"
        }
      ],
      "name": "Unpaused",
      "type": "event"
    },
    {
      "inputs": [
        {
          "internalType": "address",
          "name": "account",
          "type": "address"
        },
        {
          "internalType": "uint256",
          "name": "id",
          "type": "uint256"
        }
      ],
      "name": "balanceOf",
      "outputs": [
        {
          "internalType": "uint256",
          "name": "",
          "type": "uint256"
        }
      ],
      "stateMutability": "view",
      "type": "function"
    },
    {
      "inputs": [
        {
          "internalType": "address[]",
          "name": "accounts",
          "type": "address[]"
        },
        {
          "internalType": "uint256[]",
          "name": "ids",
          "type": "uint256[]"
        }
      ],
      "name": "balanceOfBatch",
      "outputs": [
        {
          "internalType": "uint256[]",
          "name": "",
          "type": "uint256[]"
        }
      ],
      "stateMutability": "view",
      "type": "function"
    },
    {
      "inputs": [
        {
          "internalType": "address",
          "name": "account",
          "type": "address"
        },
        {
          "internalType": "address",
          "name": "operator",
          "type": "address"
        }
      ],
      "name": "isApprovedForAll",
      "outputs": [
        {
          "internalType": "bool",
          "name": "",
          "type": "bool"
        }
      ],
      "stateMutability": "view",
      "type": "function"
    },
    {
      "inputs": [],
      "name": "owner",
      "outputs": [
        {
          "internalType": "address",
          "name": "",
          "type": "address"
        }
      ],
      "stateMutability": "view",
      "type": "function"
    },
    {
      "inputs": [],
      "name": "paused",
      "outputs": [
        {
          "internalType": "bool",
          "name": "",
          "type": "bool"
        }
      ],
      "stateMutability": "view",
      "type": "function"
    },
    {
      "inputs": [],
      "name": "renounceOwnership",
      "outputs": [],
      "stateMutability": "nonpayable",
      "type": "function"
    },
    {
      "inputs": [
        {
          "internalType": "bytes4",
          "name": "interfaceId",
          "type": "bytes4"
        }
      ],
      "name": "supportsInterface",
      "outputs": [
        {
          "internalType": "bool",
          "name": "",
          "type": "bool"
        }
      ],
      "stateMutability": "view",
      "type": "function"
    },
    {
      "inputs": [
        {
          "internalType": "address",
          "name": "newOwner",
          "type": "address"
        }
      ],
      "name": "transferOwnership",
      "outputs": [],
      "stateMutability": "nonpayable",
      "type": "function"
    },
    {
      "inputs": [
        {
          "internalType": "uint256",
          "name": "id",
          "type": "uint256"
        }
      ],
      "name": "totalSupply",
      "outputs": [
        {
          "internalType": "uint256",
          "name": "",
          "type": "uint256"
        }
      ],
      "stateMutability": "view",
      "type": "function"
    },
    {
      "inputs": [
        {
          "internalType": "uint256",
          "name": "_id",
          "type": "uint256"
        }
      ],
      "name": "exists",
      "outputs": [
        {
          "internalType": "bool",
          "name": "",
          "type": "bool"
        }
      ],
      "stateMutability": "view",
      "type": "function"
    },
    {
      "inputs": [
        {
          "internalType": "uint256",
          "name": "_id",
          "type": "uint256"
        }
      ],
      "name": "getCreator",
      "outputs": [
        {
          "internalType": "address",
          "name": "",
          "type": "address"
        }
      ],
      "stateMutability": "view",
      "type": "function"
    },
    {
      "inputs": [],
      "name": "pause",
      "outputs": [],
      "stateMutability": "nonpayable",
      "type": "function"
    },
    {
      "inputs": [],
      "name": "unPause",
      "outputs": [],
      "stateMutability": "nonpayable",
      "type": "function"
    },
    {
      "inputs": [
        {
          "internalType": "address",
          "name": "to",
          "type": "address"
        },
        {
          "internalType": "string",
          "name": "uri_",
          "type": "string"
        },
        {
          "internalType": "uint256",
          "name": "amount",
          "type": "uint256"
        },
        {
          "internalType": "bytes",
          "name": "data",
          "type": "bytes"
        }
      ],
      "name": "mint",
      "outputs": [
        {
          "internalType": "uint256",
          "name": "",
          "type": "uint256"
        }
      ],
      "stateMutability": "nonpayable",
      "type": "function"
    },
    {
      "inputs": [
        {
          "internalType": "address",
          "name": "to",
          "type": "address"
        },
        {
          "internalType": "string[]",
          "name": "uriList",
          "type": "string[]"
        },
        {
          "internalType": "uint256[]",
          "name": "amounts",
          "type": "uint256[]"
        },
        {
          "internalType": "bytes",
          "name": "data",
          "type": "bytes"
        }
      ],
      "name": "mintBatch",
      "outputs": [
        {
          "internalType": "uint256[]",
          "name": "",
          "type": "uint256[]"
        }
      ],
      "stateMutability": "nonpayable",
      "type": "function"
    },
    {
      "inputs": [
        {
          "internalType": "address",
          "name": "operator",
          "type": "address"
        },
        {
          "internalType": "bool",
          "name": "approved",
          "type": "bool"
        }
      ],
      "name": "setApprovalForAll",
      "outputs": [],
      "stateMutability": "nonpayable",
      "type": "function"
    },
    {
      "inputs": [
        {
          "internalType": "address",
          "name": "from",
          "type": "address"
        },
        {
          "internalType": "address",
          "name": "to",
          "type": "address"
        },
        {
          "internalType": "uint256",
          "name": "id",
          "type": "uint256"
        },
        {
          "internalType": "uint256",
          "name": "amount",
          "type": "uint256"
        },
        {
          "internalType": "bytes",
          "name": "data",
          "type": "bytes"
        }
      ],
      "name": "safeTransferFrom",
      "outputs": [],
      "stateMutability": "nonpayable",
      "type": "function"
    },
    {
      "inputs": [
        {
          "internalType": "address",
          "name": "from",
          "type": "address"
        },
        {
          "internalType": "address",
          "name": "to",
          "type": "address"
        },
        {
          "internalType": "uint256[]",
          "name": "ids",
          "type": "uint256[]"
        },
        {
          "internalType": "uint256[]",
          "name": "amounts",
          "type": "uint256[]"
        },
        {
          "internalType": "bytes",
          "name": "data",
          "type": "bytes"
        }
      ],
      "name": "safeBatchTransferFrom",
      "outputs": [],
      "stateMutability": "nonpayable",
      "type": "function"
    },
    {
      "inputs": [
        {
          "internalType": "string",
          "name": "newURI",
          "type": "string"
        }
      ],
      "name": "setURI",
      "outputs": [],
      "stateMutability": "nonpayable",
      "type": "function"
    },
    {
      "inputs": [
        {
          "internalType": "uint256",
          "name": "tokenId",
          "type": "uint256"
        }
      ],
      "name": "uri",
      "outputs": [
        {
          "internalType": "string",
          "name": "",
          "type": "string"
        }
      ],
      "stateMutability": "view",
      "type": "function"
    }
  ],
  "bytecode": "0x60806040523480156200001157600080fd5b5060405162004cea38038062004cea833981810160405281019062000037919062000263565b8062000049816200011d60201b60201c565b5060006200005c6200013960201b60201c565b905080600360006101000a81548173ffffffffffffffffffffffffffffffffffffffff021916908373ffffffffffffffffffffffffffffffffffffffff1602179055508073ffffffffffffffffffffffffffffffffffffffff16600073ffffffffffffffffffffffffffffffffffffffff167f8be0079c531659141344cd1fd0a4f28419497f9722a3daafe3b4186f6b6457e060405160405180910390a3506000600360146101000a81548160ff0219169083151502179055505062000418565b80600290805190602001906200013592919062000141565b5050565b600033905090565b8280546200014f906200033d565b90600052602060002090601f016020900481019282620001735760008555620001bf565b82601f106200018e57805160ff1916838001178555620001bf565b82800160010185558215620001bf579182015b82811115620001be578251825591602001919060010190620001a1565b5b509050620001ce9190620001d2565b5090565b5b80821115620001ed576000816000905550600101620001d3565b5090565b6000620002086200020284620002d1565b620002a8565b9050828152602081018484840111156200022157600080fd5b6200022e84828562000307565b509392505050565b600082601f8301126200024857600080fd5b81516200025a848260208601620001f1565b91505092915050565b6000602082840312156200027657600080fd5b600082015167ffffffffffffffff8111156200029157600080fd5b6200029f8482850162000236565b91505092915050565b6000620002b4620002c7565b9050620002c2828262000373565b919050565b6000604051905090565b600067ffffffffffffffff821115620002ef57620002ee620003d8565b5b620002fa8262000407565b9050602081019050919050565b60005b83811015620003275780820151818401526020810190506200030a565b8381111562000337576000848401525b50505050565b600060028204905060018216806200035657607f821691505b602082108114156200036d576200036c620003a9565b5b50919050565b6200037e8262000407565b810181811067ffffffffffffffff82111715620003a0576200039f620003d8565b5b80604052505050565b7f4e487b7100000000000000000000000000000000000000000000000000000000600052602260045260246000fd5b7f4e487b7100000000000000000000000000000000000000000000000000000000600052604160045260246000fd5b6000601f19601f8301169050919050565b6148c280620004286000396000f3fe608060405234801561001057600080fd5b506004361061012b5760003560e01c8063715018a6116100ad578063d48e638a11610071578063d48e638a14610354578063e985e9c514610384578063f242432a146103b4578063f2fde38b146103d0578063f7b188a5146103ec5761012b565b8063715018a6146102d65780638456cb59146102e05780638da5cb5b146102ea578063a22cb46514610308578063bd85b039146103245761012b565b8063428a328b116100f4578063428a328b146101f85780634e1273f4146102285780634f558e79146102585780635523c250146102885780635c975abb146102b85761012b565b8062fdd58e1461013057806301ffc9a71461016057806302fe5305146101905780630e89341c146101ac5780632eb2c2d6146101dc575b600080fd5b61014a60048036038101906101459190613324565b6103f6565b6040516101579190613d8e565b60405180910390f35b61017a600480360381019061017591906133cc565b6104bf565b6040516101879190613ad1565b60405180910390f35b6101aa60048036038101906101a5919061341e565b6105a1565b005b6101c660048036038101906101c1919061345f565b610671565b6040516101d39190613aec565b60405180910390f35b6101f660048036038101906101f1919061304f565b6107af565b005b610212600480360381019061020d919061319d565b61080b565b60405161021f9190613a78565b60405180910390f35b610242600480360381019061023d9190613360565b610bf1565b60405161024f9190613a78565b60405180910390f35b610272600480360381019061026d919061345f565b610da2565b60405161027f9190613ad1565b60405180910390f35b6102a2600480360381019061029d919061328c565b610dc1565b6040516102af9190613d8e565b60405180910390f35b6102c0610ed4565b6040516102cd9190613ad1565b60405180910390f35b6102de610eeb565b005b6102e8611028565b005b6102f26110ae565b6040516102ff9190613969565b60405180910390f35b610322600480360381019061031d9190613250565b6110d8565b005b61033e6004803603810190610339919061345f565b61112e565b60405161034b9190613d8e565b60405180910390f35b61036e6004803603810190610369919061345f565b61114b565b60405161037b9190613969565b60405180910390f35b61039e60048036038101906103999190613013565b611188565b6040516103ab9190613ad1565b60405180910390f35b6103ce60048036038101906103c9919061310e565b61121c565b005b6103ea60048036038101906103e59190612fea565b611278565b005b6103f4611424565b005b60008073ffffffffffffffffffffffffffffffffffffffff168373ffffffffffffffffffffffffffffffffffffffff161415610467576040517f08c379a000000000000000000000000000000000000000000000000000000000815260040161045e90613bae565b60405180910390fd5b60008083815260200190815260200160002060008473ffffffffffffffffffffffffffffffffffffffff1673ffffffffffffffffffffffffffffffffffffffff16815260200190815260200160002054905092915050565b60007fd9b67a26000000000000000000000000000000000000000000000000000000007bffffffffffffffffffffffffffffffffffffffffffffffffffffffff1916827bffffffffffffffffffffffffffffffffffffffffffffffffffffffff1916148061058a57507f0e89341c000000000000000000000000000000000000000000000000000000007bffffffffffffffffffffffffffffffffffffffffffffffffffffffff1916827bffffffffffffffffffffffffffffffffffffffffffffffffffffffff1916145b8061059a5750610599826114aa565b5b9050919050565b6105a9611514565b73ffffffffffffffffffffffffffffffffffffffff166105c76110ae565b73ffffffffffffffffffffffffffffffffffffffff161461061d576040517f08c379a000000000000000000000000000000000000000000000000000000000815260040161061490613cee565b60405180910390fd5b610625610ed4565b15610665576040517f08c379a000000000000000000000000000000000000000000000000000000000815260040161065c90613c2e565b60405180910390fd5b61066e8161151c565b50565b606061067c82610da2565b6106bb576040517f08c379a00000000000000000000000000000000000000000000000000000000081526004016106b290613cae565b60405180910390fd5b60006106c683611536565b90506000815111610772576006600084815260200190815260200160002080546106ef906140d9565b80601f016020809104026020016040519081016040528092919081815260200182805461071b906140d9565b80156107685780601f1061073d57610100808354040283529160200191610768565b820191906000526020600020905b81548152906001019060200180831161074b57829003601f168201915b50505050506107a7565b8060066000858152602001908152602001600020604051602001610797929190613945565b6040516020818303038152906040525b915050919050565b6107b7610ed4565b156107f7576040517f08c379a00000000000000000000000000000000000000000000000000000000081526004016107ee90613c2e565b60405180910390fd5b61080485858585856115ca565b5050505050565b6060610815610ed4565b15610855576040517f08c379a000000000000000000000000000000000000000000000000000000000815260040161084c90613c2e565b60405180910390fd5b83839050868690501461089d576040517f08c379a000000000000000000000000000000000000000000000000000000000815260040161089490613b8e565b60405180910390fd5b60008686905067ffffffffffffffff8111156108e2577f4e487b7100000000000000000000000000000000000000000000000000000000600052604160045260246000fd5b6040519080825280602002602001820160405280156109105781602001602082028036833780820191505090505b50905060005b878790508110156109ee578888888381811061095b577f4e487b7100000000000000000000000000000000000000000000000000000000600052603260045260246000fd5b905060200281019061096d9190613dd2565b60405160200161097f93929190613a46565b6040516020818303038152906040528051906020012060001c8282815181106109d1577f4e487b7100000000000000000000000000000000000000000000000000000000600052603260045260246000fd5b602002602001018181525050806109e79061413c565b9050610916565b50610a3c8882878780806020026020016040519081016040528093929190818152602001838360200280828437600081840152601f19601f82011690508083019250505050505050866119c0565b60005b87879050811015610be257610ade828281518110610a86577f4e487b7100000000000000000000000000000000000000000000000000000000600052603260045260246000fd5b6020026020010151898984818110610ac7577f4e487b7100000000000000000000000000000000000000000000000000000000600052603260045260246000fd5b9050602002810190610ad99190613dd2565b611a9a565b600073ffffffffffffffffffffffffffffffffffffffff1660046000848481518110610b33577f4e487b7100000000000000000000000000000000000000000000000000000000600052603260045260246000fd5b6020026020010151815260200190815260200160002060009054906101000a900473ffffffffffffffffffffffffffffffffffffffff1673ffffffffffffffffffffffffffffffffffffffff161415610bd157610bd0828281518110610bc2577f4e487b7100000000000000000000000000000000000000000000000000000000600052603260045260246000fd5b60200260200101518a611b0a565b5b80610bdb9061413c565b9050610a3f565b50809150509695505050505050565b60608151835114610c37576040517f08c379a0000000000000000000000000000000000000000000000000000000008152600401610c2e90613d2e565b60405180910390fd5b6000835167ffffffffffffffff811115610c7a577f4e487b7100000000000000000000000000000000000000000000000000000000600052604160045260246000fd5b604051908082528060200260200182016040528015610ca85781602001602082028036833780820191505090505b50905060005b8451811015610d9757610d41858281518110610cf3577f4e487b7100000000000000000000000000000000000000000000000000000000600052603260045260246000fd5b6020026020010151858381518110610d34577f4e487b7100000000000000000000000000000000000000000000000000000000600052603260045260246000fd5b60200260200101516103f6565b828281518110610d7a577f4e487b7100000000000000000000000000000000000000000000000000000000600052603260045260246000fd5b60200260200101818152505080610d909061413c565b9050610cae565b508091505092915050565b6000806005600084815260200190815260200160002054119050919050565b6000610dcb610ed4565b15610e0b576040517f08c379a0000000000000000000000000000000000000000000000000000000008152600401610e0290613c2e565b60405180910390fd5b6000868686604051602001610e2293929190613a46565b6040516020818303038152906040528051906020012060001c9050610e4987828686611c72565b610e54818787611a9a565b600073ffffffffffffffffffffffffffffffffffffffff166004600083815260200190815260200160002060009054906101000a900473ffffffffffffffffffffffffffffffffffffffff1673ffffffffffffffffffffffffffffffffffffffff161415610ec757610ec68188611b0a565b5b8091505095945050505050565b6000600360149054906101000a900460ff16905090565b610ef3611514565b73ffffffffffffffffffffffffffffffffffffffff16610f116110ae565b73ffffffffffffffffffffffffffffffffffffffff1614610f67576040517f08c379a0000000000000000000000000000000000000000000000000000000008152600401610f5e90613cee565b60405180910390fd5b600073ffffffffffffffffffffffffffffffffffffffff16600360009054906101000a900473ffffffffffffffffffffffffffffffffffffffff1673ffffffffffffffffffffffffffffffffffffffff167f8be0079c531659141344cd1fd0a4f28419497f9722a3daafe3b4186f6b6457e060405160405180910390a36000600360006101000a81548173ffffffffffffffffffffffffffffffffffffffff021916908373ffffffffffffffffffffffffffffffffffffffff160217905550565b611030611514565b73ffffffffffffffffffffffffffffffffffffffff1661104e6110ae565b73ffffffffffffffffffffffffffffffffffffffff16146110a4576040517f08c379a000000000000000000000000000000000000000000000000000000000815260040161109b90613cee565b60405180910390fd5b6110ac611cf1565b565b6000600360009054906101000a900473ffffffffffffffffffffffffffffffffffffffff16905090565b6110e0610ed4565b15611120576040517f08c379a000000000000000000000000000000000000000000000000000000000815260040161111790613c2e565b60405180910390fd5b61112a8282611d94565b5050565b600060056000838152602001908152602001600020549050919050565b60006004600083815260200190815260200160002060009054906101000a900473ffffffffffffffffffffffffffffffffffffffff169050919050565b6000600160008473ffffffffffffffffffffffffffffffffffffffff1673ffffffffffffffffffffffffffffffffffffffff16815260200190815260200160002060008373ffffffffffffffffffffffffffffffffffffffff1673ffffffffffffffffffffffffffffffffffffffff16815260200190815260200160002060009054906101000a900460ff16905092915050565b611224610ed4565b15611264576040517f08c379a000000000000000000000000000000000000000000000000000000000815260040161125b90613c2e565b60405180910390fd5b6112718585858585611f15565b5050505050565b611280611514565b73ffffffffffffffffffffffffffffffffffffffff1661129e6110ae565b73ffffffffffffffffffffffffffffffffffffffff16146112f4576040517f08c379a00000000000000000000000000000000000000000000000000000000081526004016112eb90613cee565b60405180910390fd5b600073ffffffffffffffffffffffffffffffffffffffff168173ffffffffffffffffffffffffffffffffffffffff161415611364576040517f08c379a000000000000000000000000000000000000000000000000000000000815260040161135b90613bce565b60405180910390fd5b8073ffffffffffffffffffffffffffffffffffffffff16600360009054906101000a900473ffffffffffffffffffffffffffffffffffffffff1673ffffffffffffffffffffffffffffffffffffffff167f8be0079c531659141344cd1fd0a4f28419497f9722a3daafe3b4186f6b6457e060405160405180910390a380600360006101000a81548173ffffffffffffffffffffffffffffffffffffffff021916908373ffffffffffffffffffffffffffffffffffffffff16021790555050565b61142c611514565b73ffffffffffffffffffffffffffffffffffffffff1661144a6110ae565b73ffffffffffffffffffffffffffffffffffffffff16146114a0576040517f08c379a000000000000000000000000000000000000000000000000000000000815260040161149790613cee565b60405180910390fd5b6114a861222d565b565b60007f01ffc9a7000000000000000000000000000000000000000000000000000000007bffffffffffffffffffffffffffffffffffffffffffffffffffffffff1916827bffffffffffffffffffffffffffffffffffffffffffffffffffffffff1916149050919050565b600033905090565b8060029080519060200190611532929190612b7e565b5050565b606060028054611545906140d9565b80601f0160208091040260200160405190810160405280929190818152602001828054611571906140d9565b80156115be5780601f10611593576101008083540402835291602001916115be565b820191906000526020600020905b8154815290600101906020018083116115a157829003601f168201915b50505050509050919050565b815183511461160e576040517f08c379a000000000000000000000000000000000000000000000000000000000815260040161160590613d4e565b60405180910390fd5b600073ffffffffffffffffffffffffffffffffffffffff168473ffffffffffffffffffffffffffffffffffffffff16141561167e576040517f08c379a000000000000000000000000000000000000000000000000000000000815260040161167590613c4e565b60405180910390fd5b611686611514565b73ffffffffffffffffffffffffffffffffffffffff168573ffffffffffffffffffffffffffffffffffffffff1614806116cc57506116cb856116c6611514565b611188565b5b61170b576040517f08c379a000000000000000000000000000000000000000000000000000000000815260040161170290613c6e565b60405180910390fd5b6000611715611514565b90506117258187878787876122cf565b60005b845181101561192b57600085828151811061176c577f4e487b7100000000000000000000000000000000000000000000000000000000600052603260045260246000fd5b6020026020010151905060008583815181106117b1577f4e487b7100000000000000000000000000000000000000000000000000000000600052603260045260246000fd5b60200260200101519050600080600084815260200190815260200160002060008b73ffffffffffffffffffffffffffffffffffffffff1673ffffffffffffffffffffffffffffffffffffffff16815260200190815260200160002054905081811015611852576040517f08c379a000000000000000000000000000000000000000000000000000000000815260040161184990613cce565b60405180910390fd5b818161185e9190613fef565b60008085815260200190815260200160002060008c73ffffffffffffffffffffffffffffffffffffffff1673ffffffffffffffffffffffffffffffffffffffff168152602001908152602001600020819055508160008085815260200190815260200160002060008b73ffffffffffffffffffffffffffffffffffffffff1673ffffffffffffffffffffffffffffffffffffffff16815260200190815260200160002060008282546119109190613f99565b92505081905550505050806119249061413c565b9050611728565b508473ffffffffffffffffffffffffffffffffffffffff168673ffffffffffffffffffffffffffffffffffffffff168273ffffffffffffffffffffffffffffffffffffffff167f4a39dc06d4c0dbc64b70af90fd698a233a518aa5d07e595d983b8c0526c8f7fb87876040516119a2929190613a9a565b60405180910390a46119b88187878787876122d7565b505050505050565b6119cc848484846124be565b60005b8351811015611a9357828181518110611a11577f4e487b7100000000000000000000000000000000000000000000000000000000600052603260045260246000fd5b602002602001015160056000868481518110611a56577f4e487b7100000000000000000000000000000000000000000000000000000000600052603260045260246000fd5b602002602001015181526020019081526020016000206000828254611a7b9190613f99565b9250508190555080611a8c9061413c565b90506119cf565b5050505050565b611aa383610da2565b611ae2576040517f08c379a0000000000000000000000000000000000000000000000000000000008152600401611ad990613cae565b60405180910390fd5b8181600660008681526020019081526020016000209190611b04929190612c04565b50505050565b600073ffffffffffffffffffffffffffffffffffffffff168173ffffffffffffffffffffffffffffffffffffffff161415611b7a576040517f08c379a0000000000000000000000000000000000000000000000000000000008152600401611b7190613b4e565b60405180910390fd5b600073ffffffffffffffffffffffffffffffffffffffff166004600084815260200190815260200160002060009054906101000a900473ffffffffffffffffffffffffffffffffffffffff1673ffffffffffffffffffffffffffffffffffffffff1614611c1c576040517f08c379a0000000000000000000000000000000000000000000000000000000008152600401611c1390613c0e565b60405180910390fd5b806004600084815260200190815260200160002060006101000a81548173ffffffffffffffffffffffffffffffffffffffff021916908373ffffffffffffffffffffffffffffffffffffffff1602179055505050565b60008211611cb5576040517f08c379a0000000000000000000000000000000000000000000000000000000008152600401611cac90613c8e565b60405180910390fd5b611cc184848484612728565b81600560008581526020019081526020016000206000828254611ce49190613f99565b9250508190555050505050565b611cf9610ed4565b15611d39576040517f08c379a0000000000000000000000000000000000000000000000000000000008152600401611d3090613c2e565b60405180910390fd5b6001600360146101000a81548160ff0219169083151502179055507f62e78cea01bee320cd4e420270b5ea74000d11b0c9f74754ebdbfc544b05a258611d7d611514565b604051611d8a9190613969565b60405180910390a1565b8173ffffffffffffffffffffffffffffffffffffffff16611db3611514565b73ffffffffffffffffffffffffffffffffffffffff161415611e0a576040517f08c379a0000000000000000000000000000000000000000000000000000000008152600401611e0190613d0e565b60405180910390fd5b8060016000611e17611514565b73ffffffffffffffffffffffffffffffffffffffff1673ffffffffffffffffffffffffffffffffffffffff16815260200190815260200160002060008473ffffffffffffffffffffffffffffffffffffffff1673ffffffffffffffffffffffffffffffffffffffff16815260200190815260200160002060006101000a81548160ff0219169083151502179055508173ffffffffffffffffffffffffffffffffffffffff16611ec4611514565b73ffffffffffffffffffffffffffffffffffffffff167f17307eab39ab6107e8899845ad3d59bd9653f200f220920489ca2b5937696c3183604051611f099190613ad1565b60405180910390a35050565b600073ffffffffffffffffffffffffffffffffffffffff168473ffffffffffffffffffffffffffffffffffffffff161415611f85576040517f08c379a0000000000000000000000000000000000000000000000000000000008152600401611f7c90613c4e565b60405180910390fd5b611f8d611514565b73ffffffffffffffffffffffffffffffffffffffff168573ffffffffffffffffffffffffffffffffffffffff161480611fd35750611fd285611fcd611514565b611188565b5b612012576040517f08c379a000000000000000000000000000000000000000000000000000000000815260040161200990613bee565b60405180910390fd5b600061201c611514565b905061203c81878761202d886128be565b612036886128be565b876122cf565b600080600086815260200190815260200160002060008873ffffffffffffffffffffffffffffffffffffffff1673ffffffffffffffffffffffffffffffffffffffff168152602001908152602001600020549050838110156120d3576040517f08c379a00000000000000000000000000000000000000000000000000000000081526004016120ca90613cce565b60405180910390fd5b83816120df9190613fef565b60008087815260200190815260200160002060008973ffffffffffffffffffffffffffffffffffffffff1673ffffffffffffffffffffffffffffffffffffffff168152602001908152602001600020819055508360008087815260200190815260200160002060008873ffffffffffffffffffffffffffffffffffffffff1673ffffffffffffffffffffffffffffffffffffffff16815260200190815260200160002060008282546121919190613f99565b925050819055508573ffffffffffffffffffffffffffffffffffffffff168773ffffffffffffffffffffffffffffffffffffffff168373ffffffffffffffffffffffffffffffffffffffff167fc3d58168c5ae7397731d063d5bbf3d657854427343f4c083240f7aacaa2d0f62888860405161220e929190613da9565b60405180910390a4612224828888888888612984565b50505050505050565b612235610ed4565b612274576040517f08c379a000000000000000000000000000000000000000000000000000000000815260040161226b90613b6e565b60405180910390fd5b6000600360146101000a81548160ff0219169083151502179055507f5db9ee0a495bf2e6ff9c91a7834c1ba4fdd244a5e8aa4e537bd38aeae4b073aa6122b8611514565b6040516122c59190613969565b60405180910390a1565b505050505050565b6122f68473ffffffffffffffffffffffffffffffffffffffff16612b6b565b156124b6578373ffffffffffffffffffffffffffffffffffffffff1663bc197c8187878686866040518663ffffffff1660e01b815260040161233c959493929190613984565b602060405180830381600087803b15801561235657600080fd5b505af192505050801561238757506040513d601f19601f8201168201806040525081019061238491906133f5565b60015b61242d57612393614212565b806308c379a014156123f057506123a861479a565b806123b357506123f2565b806040517f08c379a00000000000000000000000000000000000000000000000000000000081526004016123e79190613aec565b60405180910390fd5b505b6040517f08c379a000000000000000000000000000000000000000000000000000000000815260040161242490613b0e565b60405180910390fd5b63bc197c8160e01b7bffffffffffffffffffffffffffffffffffffffffffffffffffffffff1916817bffffffffffffffffffffffffffffffffffffffffffffffffffffffff1916146124b4576040517f08c379a00000000000000000000000000000000000000000000000000000000081526004016124ab90613b2e565b60405180910390fd5b505b505050505050565b600073ffffffffffffffffffffffffffffffffffffffff168473ffffffffffffffffffffffffffffffffffffffff16141561252e576040517f08c379a000000000000000000000000000000000000000000000000000000000815260040161252590613d6e565b60405180910390fd5b8151835114612572576040517f08c379a000000000000000000000000000000000000000000000000000000000815260040161256990613d4e565b60405180910390fd5b600061257c611514565b905061258d816000878787876122cf565b60005b8451811015612692578381815181106125d2577f4e487b7100000000000000000000000000000000000000000000000000000000600052603260045260246000fd5b6020026020010151600080878481518110612616577f4e487b7100000000000000000000000000000000000000000000000000000000600052603260045260246000fd5b6020026020010151815260200190815260200160002060008873ffffffffffffffffffffffffffffffffffffffff1673ffffffffffffffffffffffffffffffffffffffff16815260200190815260200160002060008282546126789190613f99565b92505081905550808061268a9061413c565b915050612590565b508473ffffffffffffffffffffffffffffffffffffffff16600073ffffffffffffffffffffffffffffffffffffffff168273ffffffffffffffffffffffffffffffffffffffff167f4a39dc06d4c0dbc64b70af90fd698a233a518aa5d07e595d983b8c0526c8f7fb878760405161270a929190613a9a565b60405180910390a4612721816000878787876122d7565b5050505050565b600073ffffffffffffffffffffffffffffffffffffffff168473ffffffffffffffffffffffffffffffffffffffff161415612798576040517f08c379a000000000000000000000000000000000000000000000000000000000815260040161278f90613d6e565b60405180910390fd5b60006127a2611514565b90506127c3816000876127b4886128be565b6127bd886128be565b876122cf565b8260008086815260200190815260200160002060008773ffffffffffffffffffffffffffffffffffffffff1673ffffffffffffffffffffffffffffffffffffffff16815260200190815260200160002060008282546128229190613f99565b925050819055508473ffffffffffffffffffffffffffffffffffffffff16600073ffffffffffffffffffffffffffffffffffffffff168273ffffffffffffffffffffffffffffffffffffffff167fc3d58168c5ae7397731d063d5bbf3d657854427343f4c083240f7aacaa2d0f6287876040516128a0929190613da9565b60405180910390a46128b781600087878787612984565b5050505050565b60606000600167ffffffffffffffff811115612903577f4e487b7100000000000000000000000000000000000000000000000000000000600052604160045260246000fd5b6040519080825280602002602001820160405280156129315781602001602082028036833780820191505090505b509050828160008151811061296f577f4e487b7100000000000000000000000000000000000000000000000000000000600052603260045260246000fd5b60200260200101818152505080915050919050565b6129a38473ffffffffffffffffffffffffffffffffffffffff16612b6b565b15612b63578373ffffffffffffffffffffffffffffffffffffffff1663f23a6e6187878686866040518663ffffffff1660e01b81526004016129e99594939291906139ec565b602060405180830381600087803b158015612a0357600080fd5b505af1925050508015612a3457506040513d601f19601f82011682018060405250810190612a3191906133f5565b60015b612ada57612a40614212565b806308c379a01415612a9d5750612a5561479a565b80612a605750612a9f565b806040517f08c379a0000000000000000000000000000000000000000000000000000000008152600401612a949190613aec565b60405180910390fd5b505b6040517f08c379a0000000000000000000000000000000000000000000000000000000008152600401612ad190613b0e565b60405180910390fd5b63f23a6e6160e01b7bffffffffffffffffffffffffffffffffffffffffffffffffffffffff1916817bffffffffffffffffffffffffffffffffffffffffffffffffffffffff191614612b61576040517f08c379a0000000000000000000000000000000000000000000000000000000008152600401612b5890613b2e565b60405180910390fd5b505b505050505050565b600080823b905060008111915050919050565b828054612b8a906140d9565b90600052602060002090601f016020900481019282612bac5760008555612bf3565b82601f10612bc557805160ff1916838001178555612bf3565b82800160010185558215612bf3579182015b82811115612bf2578251825591602001919060010190612bd7565b5b509050612c009190612c8a565b5090565b828054612c10906140d9565b90600052602060002090601f016020900481019282612c325760008555612c79565b82601f10612c4b57803560ff1916838001178555612c79565b82800160010185558215612c79579182015b82811115612c78578235825591602001919060010190612c5d565b5b509050612c869190612c8a565b5090565b5b80821115612ca3576000816000905550600101612c8b565b5090565b6000612cba612cb584613e4e565b613e29565b90508083825260208201905082856020860282011115612cd957600080fd5b60005b85811015612d095781612cef8882612dfb565b845260208401935060208301925050600181019050612cdc565b5050509392505050565b6000612d26612d2184613e7a565b613e29565b90508083825260208201905082856020860282011115612d4557600080fd5b60005b85811015612d755781612d5b8882612fd5565b845260208401935060208301925050600181019050612d48565b5050509392505050565b6000612d92612d8d84613ea6565b613e29565b905082815260208101848484011115612daa57600080fd5b612db5848285614097565b509392505050565b6000612dd0612dcb84613ed7565b613e29565b905082815260208101848484011115612de857600080fd5b612df3848285614097565b509392505050565b600081359050612e0a81614830565b92915050565b600082601f830112612e2157600080fd5b8135612e31848260208601612ca7565b91505092915050565b60008083601f840112612e4c57600080fd5b8235905067ffffffffffffffff811115612e6557600080fd5b602083019150836020820283011115612e7d57600080fd5b9250929050565b60008083601f840112612e9657600080fd5b8235905067ffffffffffffffff811115612eaf57600080fd5b602083019150836020820283011115612ec757600080fd5b9250929050565b600082601f830112612edf57600080fd5b8135612eef848260208601612d13565b91505092915050565b600081359050612f0781614847565b92915050565b600081359050612f1c8161485e565b92915050565b600081519050612f318161485e565b92915050565b600082601f830112612f4857600080fd5b8135612f58848260208601612d7f565b91505092915050565b60008083601f840112612f7357600080fd5b8235905067ffffffffffffffff811115612f8c57600080fd5b602083019150836001820283011115612fa457600080fd5b9250929050565b600082601f830112612fbc57600080fd5b8135612fcc848260208601612dbd565b91505092915050565b600081359050612fe481614875565b92915050565b600060208284031215612ffc57600080fd5b600061300a84828501612dfb565b91505092915050565b6000806040838503121561302657600080fd5b600061303485828601612dfb565b925050602061304585828601612dfb565b9150509250929050565b600080600080600060a0868803121561306757600080fd5b600061307588828901612dfb565b955050602061308688828901612dfb565b945050604086013567ffffffffffffffff8111156130a357600080fd5b6130af88828901612ece565b935050606086013567ffffffffffffffff8111156130cc57600080fd5b6130d888828901612ece565b925050608086013567ffffffffffffffff8111156130f557600080fd5b61310188828901612f37565b9150509295509295909350565b600080600080600060a0868803121561312657600080fd5b600061313488828901612dfb565b955050602061314588828901612dfb565b945050604061315688828901612fd5565b935050606061316788828901612fd5565b925050608086013567ffffffffffffffff81111561318457600080fd5b61319088828901612f37565b9150509295509295909350565b600080600080600080608087890312156131b657600080fd5b60006131c489828a01612dfb565b965050602087013567ffffffffffffffff8111156131e157600080fd5b6131ed89828a01612e3a565b9550955050604087013567ffffffffffffffff81111561320c57600080fd5b61321889828a01612e84565b9350935050606087013567ffffffffffffffff81111561323757600080fd5b61324389828a01612f37565b9150509295509295509295565b6000806040838503121561326357600080fd5b600061327185828601612dfb565b925050602061328285828601612ef8565b9150509250929050565b6000806000806000608086880312156132a457600080fd5b60006132b288828901612dfb565b955050602086013567ffffffffffffffff8111156132cf57600080fd5b6132db88828901612f61565b945094505060406132ee88828901612fd5565b925050606086013567ffffffffffffffff81111561330b57600080fd5b61331788828901612f37565b9150509295509295909350565b6000806040838503121561333757600080fd5b600061334585828601612dfb565b925050602061335685828601612fd5565b9150509250929050565b6000806040838503121561337357600080fd5b600083013567ffffffffffffffff81111561338d57600080fd5b61339985828601612e10565b925050602083013567ffffffffffffffff8111156133b657600080fd5b6133c285828601612ece565b9150509250929050565b6000602082840312156133de57600080fd5b60006133ec84828501612f0d565b91505092915050565b60006020828403121561340757600080fd5b600061341584828501612f22565b91505092915050565b60006020828403121561343057600080fd5b600082013567ffffffffffffffff81111561344a57600080fd5b61345684828501612fab565b91505092915050565b60006020828403121561347157600080fd5b600061347f84828501612fd5565b91505092915050565b60006134948383613927565b60208301905092915050565b6134a981614023565b82525050565b60006134ba82613f2d565b6134c48185613f5b565b93506134cf83613f08565b8060005b838110156135005781516134e78882613488565b97506134f283613f4e565b9250506001810190506134d3565b5085935050505092915050565b61351681614035565b82525050565b600061352782613f38565b6135318185613f6c565b93506135418185602086016140a6565b61354a81614234565b840191505092915050565b60006135618385613f7d565b935061356e838584614097565b61357783614234565b840190509392505050565b600061358d82613f43565b6135978185613f7d565b93506135a78185602086016140a6565b6135b081614234565b840191505092915050565b60006135c682613f43565b6135d08185613f8e565b93506135e08185602086016140a6565b80840191505092915050565b600081546135f9816140d9565b6136038186613f8e565b9450600182166000811461361e576001811461362f57613662565b60ff19831686528186019350613662565b61363885613f18565b60005b8381101561365a5781548189015260018201915060208101905061363b565b838801955050505b50505092915050565b6000613678603483613f7d565b915061368382614252565b604082019050919050565b600061369b602883613f7d565b91506136a6826142a1565b604082019050919050565b60006136be601d83613f7d565b91506136c9826142f0565b602082019050919050565b60006136e1601483613f7d565b91506136ec82614319565b602082019050919050565b6000613704602383613f7d565b915061370f82614342565b604082019050919050565b6000613727602b83613f7d565b915061373282614391565b604082019050919050565b600061374a602683613f7d565b9150613755826143e0565b604082019050919050565b600061376d602983613f7d565b91506137788261442f565b604082019050919050565b6000613790601e83613f7d565b915061379b8261447e565b602082019050919050565b60006137b3601083613f7d565b91506137be826144a7565b602082019050919050565b60006137d6602583613f7d565b91506137e1826144d0565b604082019050919050565b60006137f9603283613f7d565b91506138048261451f565b604082019050919050565b600061381c601c83613f7d565b91506138278261456e565b602082019050919050565b600061383f602883613f7d565b915061384a82614597565b604082019050919050565b6000613862602a83613f7d565b915061386d826145e6565b604082019050919050565b6000613885602083613f7d565b915061389082614635565b602082019050919050565b60006138a8602983613f7d565b91506138b38261465e565b604082019050919050565b60006138cb602983613f7d565b91506138d6826146ad565b604082019050919050565b60006138ee602883613f7d565b91506138f9826146fc565b604082019050919050565b6000613911602183613f7d565b915061391c8261474b565b604082019050919050565b6139308161408d565b82525050565b61393f8161408d565b82525050565b600061395182856135bb565b915061395d82846135ec565b91508190509392505050565b600060208201905061397e60008301846134a0565b92915050565b600060a08201905061399960008301886134a0565b6139a660208301876134a0565b81810360408301526139b881866134af565b905081810360608301526139cc81856134af565b905081810360808301526139e0818461351c565b90509695505050505050565b600060a082019050613a0160008301886134a0565b613a0e60208301876134a0565b613a1b6040830186613936565b613a286060830185613936565b8181036080830152613a3a818461351c565b90509695505050505050565b6000604082019050613a5b60008301866134a0565b8181036020830152613a6e818486613555565b9050949350505050565b60006020820190508181036000830152613a9281846134af565b905092915050565b60006040820190508181036000830152613ab481856134af565b90508181036020830152613ac881846134af565b90509392505050565b6000602082019050613ae6600083018461350d565b92915050565b60006020820190508181036000830152613b068184613582565b905092915050565b60006020820190508181036000830152613b278161366b565b9050919050565b60006020820190508181036000830152613b478161368e565b9050919050565b60006020820190508181036000830152613b67816136b1565b9050919050565b60006020820190508181036000830152613b87816136d4565b9050919050565b60006020820190508181036000830152613ba7816136f7565b9050919050565b60006020820190508181036000830152613bc78161371a565b9050919050565b60006020820190508181036000830152613be78161373d565b9050919050565b60006020820190508181036000830152613c0781613760565b9050919050565b60006020820190508181036000830152613c2781613783565b9050919050565b60006020820190508181036000830152613c47816137a6565b9050919050565b60006020820190508181036000830152613c67816137c9565b9050919050565b60006020820190508181036000830152613c87816137ec565b9050919050565b60006020820190508181036000830152613ca78161380f565b9050919050565b60006020820190508181036000830152613cc781613832565b9050919050565b60006020820190508181036000830152613ce781613855565b9050919050565b60006020820190508181036000830152613d0781613878565b9050919050565b60006020820190508181036000830152613d278161389b565b9050919050565b60006020820190508181036000830152613d47816138be565b9050919050565b60006020820190508181036000830152613d67816138e1565b9050919050565b60006020820190508181036000830152613d8781613904565b9050919050565b6000602082019050613da36000830184613936565b92915050565b6000604082019050613dbe6000830185613936565b613dcb6020830184613936565b9392505050565b60008083356001602003843603038112613deb57600080fd5b80840192508235915067ffffffffffffffff821115613e0957600080fd5b602083019250600182023603831315613e2157600080fd5b509250929050565b6000613e33613e44565b9050613e3f828261410b565b919050565b6000604051905090565b600067ffffffffffffffff821115613e6957613e686141e3565b5b602082029050602081019050919050565b600067ffffffffffffffff821115613e9557613e946141e3565b5b602082029050602081019050919050565b600067ffffffffffffffff821115613ec157613ec06141e3565b5b613eca82614234565b9050602081019050919050565b600067ffffffffffffffff821115613ef257613ef16141e3565b5b613efb82614234565b9050602081019050919050565b6000819050602082019050919050565b60008190508160005260206000209050919050565b600081519050919050565b600081519050919050565b600081519050919050565b6000602082019050919050565b600082825260208201905092915050565b600082825260208201905092915050565b600082825260208201905092915050565b600081905092915050565b6000613fa48261408d565b9150613faf8361408d565b9250827fffffffffffffffffffffffffffffffffffffffffffffffffffffffffffffffff03821115613fe457613fe3614185565b5b828201905092915050565b6000613ffa8261408d565b91506140058361408d565b92508282101561401857614017614185565b5b828203905092915050565b600061402e8261406d565b9050919050565b60008115159050919050565b60007fffffffff0000000000000000000000000000000000000000000000000000000082169050919050565b600073ffffffffffffffffffffffffffffffffffffffff82169050919050565b6000819050919050565b82818337600083830152505050565b60005b838110156140c45780820151818401526020810190506140a9565b838111156140d3576000848401525b50505050565b600060028204905060018216806140f157607f821691505b60208210811415614105576141046141b4565b5b50919050565b61411482614234565b810181811067ffffffffffffffff82111715614133576141326141e3565b5b80604052505050565b60006141478261408d565b91507fffffffffffffffffffffffffffffffffffffffffffffffffffffffffffffffff82141561417a57614179614185565b5b600182019050919050565b7f4e487b7100000000000000000000000000000000000000000000000000000000600052601160045260246000fd5b7f4e487b7100000000000000000000000000000000000000000000000000000000600052602260045260246000fd5b7f4e487b7100000000000000000000000000000000000000000000000000000000600052604160045260246000fd5b600060033d11156142315760046000803e61422e600051614245565b90505b90565b6000601f19601f8301169050919050565b60008160e01c9050919050565b7f455243313135353a207472616e7366657220746f206e6f6e204552433131353560008201527f526563656976657220696d706c656d656e746572000000000000000000000000602082015250565b7f455243313135353a204552433131353552656365697665722072656a6563746560008201527f6420746f6b656e73000000000000000000000000000000000000000000000000602082015250565b7f455243313135353a207a65726f20616464726573732063726561746f72000000600082015250565b7f5061757361626c653a206e6f7420706175736564000000000000000000000000600082015250565b7f455243313135353a206d696e744261746368206c656e67746873206d69736d6160008201527f7463680000000000000000000000000000000000000000000000000000000000602082015250565b7f455243313135353a2062616c616e636520717565727920666f7220746865207a60008201527f65726f2061646472657373000000000000000000000000000000000000000000602082015250565b7f4f776e61626c653a206e6577206f776e657220697320746865207a65726f206160008201527f6464726573730000000000000000000000000000000000000000000000000000602082015250565b7f455243313135353a2063616c6c6572206973206e6f74206f776e6572206e6f7260008201527f20617070726f7665640000000000000000000000000000000000000000000000602082015250565b7f455243313135353a20616c72656164792068616420612063726561746f720000600082015250565b7f5061757361626c653a2070617573656400000000000000000000000000000000600082015250565b7f455243313135353a207472616e7366657220746f20746865207a65726f20616460008201527f6472657373000000000000000000000000000000000000000000000000000000602082015250565b7f455243313135353a207472616e736665722063616c6c6572206973206e6f742060008201527f6f776e6572206e6f7220617070726f7665640000000000000000000000000000602082015250565b7f455243313135353a206d696e7420616d6f756e74206973207a65726f00000000600082015250565b7f455243313135353a2055524920717565727920666f72206e6f6e65786973746560008201527f6e7420746f6b656e000000000000000000000000000000000000000000000000602082015250565b7f455243313135353a20696e73756666696369656e742062616c616e636520666f60008201527f72207472616e7366657200000000000000000000000000000000000000000000602082015250565b7f4f776e61626c653a2063616c6c6572206973206e6f7420746865206f776e6572600082015250565b7f455243313135353a2073657474696e6720617070726f76616c2073746174757360008201527f20666f722073656c660000000000000000000000000000000000000000000000602082015250565b7f455243313135353a206163636f756e747320616e6420696473206c656e67746860008201527f206d69736d617463680000000000000000000000000000000000000000000000602082015250565b7f455243313135353a2069647320616e6420616d6f756e7473206c656e6774682060008201527f6d69736d61746368000000000000000000000000000000000000000000000000602082015250565b7f455243313135353a206d696e7420746f20746865207a65726f2061646472657360008201527f7300000000000000000000000000000000000000000000000000000000000000602082015250565b600060443d10156147aa5761482d565b6147b2613e44565b60043d036004823e80513d602482011167ffffffffffffffff821117156147da57505061482d565b808201805167ffffffffffffffff8111156147f8575050505061482d565b80602083010160043d03850181111561481557505050505061482d565b6148248260200185018661410b565b82955050505050505b90565b61483981614023565b811461484457600080fd5b50565b61485081614035565b811461485b57600080fd5b50565b61486781614041565b811461487257600080fd5b50565b61487e8161408d565b811461488957600080fd5b5056fea2646970667358221220536e5585eed6fee399df12a0499518a1b22dde8c09b82b7bbb90f63f4fce5e5964736f6c63430008040033",
  "immutableReferences": {},
  "source": "// SPDX-License-Identifier: UNLICENSED\n\npragma solidity 0.8.4;\n\nimport \"../../lib/token/ERC1155/ERC1155.sol\";\nimport \"../../lib/token/ERC1155/extensions/ERC1155Supply.sol\";\nimport \"../../lib/access/Ownable.sol\";\nimport \"../../lib/security/Pausable.sol\";\n\ncontract TaureumERC1155 is ERC1155, Ownable, Pausable {\n    /**\n     * @dev Mapping from token IDs to their creator.\n     */\n    mapping(uint256 => address) internal _creator;\n\n    /**\n     * @dev Mapping from token IDs to their total supplies.\n     */\n    mapping(uint256 => uint256) internal _totalSupply;\n\n    /**\n     * @dev Mapping from NFT ID to metadata uri.\n     */\n    mapping(uint256 => string) internal _idToUri;\n\n    modifier creatorOrApproved(address creator) {\n        address operator = msg.sender;\n        require(operator == creator || isApprovedForAll(creator, msg.sender), \"ERC1155: caller is not creator nor approved\");\n        _;\n    }\n\n    /**\n     * @dev Create a new TaureumERC1155 contract and set the `_uri` value.\n     *\n     */\n    constructor(string memory baseURI_) ERC1155(baseURI_) Ownable() Pausable() {\n    }\n\n    /**\n     * @dev Total amount of tokens in with a given id.\n     */\n    function totalSupply(uint256 id) public view virtual returns (uint256) {\n        return _totalSupply[id];\n    }\n\n    /**\n     * @dev Return the indicator whether a token exists given its id.\n     */\n    function exists(uint256 _id) public view virtual returns (bool) {\n        return _totalSupply[_id] > 0;\n    }\n\n    /**\n     * @dev Return the creator of an NFT given its id.\n     */\n    function getCreator(uint256 _id) external view returns (address) {\n        return _creator[_id];\n    }\n\n    /**\n     * @dev Pause the contract in case of bugs/attacks.\n     * @notice Only the owner can call this method.\n     */\n    function pause() public onlyOwner {\n        _pause();\n    }\n\n    /**\n     * @dev Resume the contract after being paused.\n     * @notice Only the owner can call this method.\n     */\n    function unPause() public onlyOwner {\n        _unpause();\n    }\n\n    /**\n     * @dev Mint a new ERC1155 token. A token can only be minted once.\n     * @notice It reverts if\n     *      - The `msg.sender` is not `to` or approved by `to`.\n     *      - `to` is the zero address.\n     *      - `to` cannot receive the token.\n     */\n    function mint(\n        address to,\n        string calldata uri_,\n        uint256 amount,\n        bytes memory data\n    ) external virtual whenNotPaused returns (uint256){\n        uint256 id = uint256(keccak256(abi.encode(to, uri_)));\n\n        _mint(to, id, amount, data);\n        _setTokenUri(id, uri_);\n\n        // save the creator (if needed)\n        if (_creator[id] == address(0x0)) {\n            _saveCreator(id, to);\n        }\n\n        return id;\n    }\n\n    /**\n     * @dev Mint a batch of tokens.\n     */\n    function mintBatch(\n        address to,\n        string[] calldata uriList,\n        uint256[] calldata amounts,\n        bytes memory data\n    ) external virtual whenNotPaused returns (uint256[] memory) {\n        require(uriList.length == amounts.length, \"ERC1155: mintBatch lengths mismatch\");\n\n        uint256[] memory ids = new uint256[](uriList.length);\n        for (uint256 i = 0; i < uriList.length; ++i) {\n            ids[i] = uint256(keccak256(abi.encode(to, uriList[i])));\n        }\n\n        _mintBatch(to, ids, amounts, data);\n        for (uint256 i = 0; i < uriList.length; ++i) {\n            _setTokenUri(ids[i], uriList[i]);\n\n            // save the creator (if needed)\n            if (_creator[ids[i]] == address(0x0)) {\n                _saveCreator(ids[i], to);\n            }\n        }\n\n        return ids;\n    }\n\n    /**\n     * @dev See {IERC1155-setApprovalForAll}.\n     */\n    function setApprovalForAll(address operator, bool approved) public virtual override whenNotPaused {\n        super.setApprovalForAll(operator, approved);\n    }\n\n    /**\n     * @dev See {IERC1155-safeTransferFrom}.\n     */\n    function safeTransferFrom(\n        address from,\n        address to,\n        uint256 id,\n        uint256 amount,\n        bytes memory data\n    )\n    public\n    virtual\n    override\n    whenNotPaused\n    {\n        super.safeTransferFrom(from, to, id, amount, data);\n    }\n\n    /**\n     * @dev See {IERC1155-safeBatchTransferFrom}.\n     */\n    function safeBatchTransferFrom(\n        address from,\n        address to,\n        uint256[] memory ids,\n        uint256[] memory amounts,\n        bytes memory data\n    )\n    public\n    virtual\n    override\n    whenNotPaused\n    {\n        super.safeBatchTransferFrom(from, to, ids, amounts, data);\n    }\n\n    /**\n     * @dev Sets a new URI for all token types, by relying on the token type ID\n     * substitution mechanism\n     * https://eips.ethereum.org/EIPS/eip-1155#metadata[defined in the EIP].\n     *\n     * By this mechanism, any occurrence of the `\\{id\\}` substring in either the\n     * URI or any of the amounts in the JSON file at said URI will be replaced by\n     * clients with the token type ID.\n     *\n     * For example, the `https://token-cdn-domain/\\{id\\}.json` URI would be\n     * interpreted by clients as\n     * `https://token-cdn-domain/000000000000000000000000000000000000000000000000000000000004cce0.json`\n     * for token type ID 0x4cce0.\n     *\n     * See {uri}.\n     *\n     * Because these URIs cannot be meaningfully represented by the {URI} event,\n     * this function emits no events.\n     */\n    function setURI(string memory newURI) public onlyOwner whenNotPaused {\n        _setURI(newURI);\n    }\n\n    /**\n     * @dev Return the URI of a tokenId.\n     */\n    function uri(uint256 tokenId) public view virtual override returns (string memory) {\n        require(exists(tokenId), \"ERC1155: URI query for nonexistent token\");\n\n        string memory baseURI = super.uri(tokenId);\n\n        return bytes(baseURI).length > 0 ? string(abi.encodePacked(baseURI, _idToUri[tokenId])) : _idToUri[tokenId];\n    }\n\n    /**\n     * @dev Set a distinct URI (RFC 3986) for a given NFT ID.\n     * @notice This is an internal function which should be called from user-implemented external\n     * function.\n     * @notice It throws an exception if the _tokenId does not exist.\n     * @param tokenId_ Id for which we want URI.\n     * @param uri_ String representing RFC 3986 URI.\n     */\n    function _setTokenUri(\n        uint256 tokenId_,\n        string calldata uri_\n    )\n    internal\n    {\n        require(exists(tokenId_), \"ERC1155: URI query for nonexistent token\");\n        _idToUri[tokenId_] = uri_;\n    }\n\n    /**\n     * @dev Save the creator of a token.\n     * @notice It reverts when\n     *   - `_creator` is the zero address; or\n     *   - the tokenId already had a creator.\n     */\n    function _saveCreator(uint256 tokenId, address creator_) internal {\n        require(creator_ != address(0x0), \"ERC1155: zero address creator\");\n        require(_creator[tokenId] == address(0x0), \"ERC1155: already had a creator\");\n        _creator[tokenId] = creator_;\n    }\n\n    /**\n     * @dev See {ERC1155-_mint}.\n     */\n    function _mint(address account, uint256 id, uint256 amount, bytes memory data) internal virtual override {\n        require(amount > 0, \"ERC1155: mint amount is zero\");\n        super._mint(account, id, amount, data);\n        _totalSupply[id] += amount;\n    }\n\n    /**\n     * @dev See {ERC1155-_mintBatch}.\n     */\n    function _mintBatch(\n        address to,\n        uint256[] memory ids,\n        uint256[] memory amounts,\n        bytes memory data\n    ) internal virtual override {\n        super._mintBatch(to, ids, amounts, data);\n        for (uint256 i = 0; i < ids.length; ++i) {\n            _totalSupply[ids[i]] += amounts[i];\n        }\n    }\n\n    /**\n     * @dev See {ERC1155-_burn}.\n     */\n    function _burn(\n        address account,\n        uint256 id,\n        uint256 amount\n    ) internal virtual override {\n        super._burn(account, id, amount);\n        _totalSupply[id] -= amount;\n    }\n\n    /**\n     * @dev See {ERC1155-_burnBatch}.\n     */\n    function _burnBatch(\n        address account,\n        uint256[] memory ids,\n        uint256[] memory amounts\n    ) internal virtual override {\n        super._burnBatch(account, ids, amounts);\n        for (uint256 i = 0; i < ids.length; ++i) {\n            _totalSupply[ids[i]] -= amounts[i];\n        }\n    }\n\n}\n",
  "sourcePath": "/home/toor/nodejs/truffle/nft_demo/taureum/taureum-nft-sc/contracts/tokens/ERC1155/TaureumERC1155.sol",
  "compiler": {
    "name": "solc",
    "version": "0.8.4+commit.c7e474f2.Emscripten.clang"
  },
  "schemaVersion": "3.4.1",
  "updatedAt": "2021-08-29T05:22:14.651Z",
  "devdoc": {
    "kind": "dev",
    "methods": {
      "balanceOf(address,uint256)": {
        "details": "See {IERC1155-balanceOf}. Requirements: - `account` cannot be the zero address."
      },
      "balanceOfBatch(address[],uint256[])": {
        "details": "See {IERC1155-balanceOfBatch}. Requirements: - `accounts` and `ids` must have the same length."
      },
      "constructor": {
        "details": "Create a new TaureumERC1155 contract and set the `_uri` value."
      },
      "exists(uint256)": {
        "details": "Return the indicator whether a token exists given its id."
      },
      "getCreator(uint256)": {
        "details": "Return the creator of an NFT given its id."
      },
      "isApprovedForAll(address,address)": {
        "details": "See {IERC1155-isApprovedForAll}."
      },
      "mint(address,string,uint256,bytes)": {
        "details": "Mint a new ERC1155 token. A token can only be minted once."
      },
      "mintBatch(address,string[],uint256[],bytes)": {
        "details": "Mint a batch of tokens."
      },
      "owner()": {
        "details": "Returns the address of the current owner."
      },
      "pause()": {
        "details": "Pause the contract in case of bugs/attacks."
      },
      "paused()": {
        "details": "Returns true if the contract is paused, and false otherwise."
      },
      "renounceOwnership()": {
        "details": "Leaves the contract without owner. It will not be possible to call `onlyOwner` functions anymore. Can only be called by the current owner. NOTE: Renouncing ownership will leave the contract without an owner, thereby removing any functionality that is only available to the owner."
      },
      "safeBatchTransferFrom(address,address,uint256[],uint256[],bytes)": {
        "details": "See {IERC1155-safeBatchTransferFrom}."
      },
      "safeTransferFrom(address,address,uint256,uint256,bytes)": {
        "details": "See {IERC1155-safeTransferFrom}."
      },
      "setApprovalForAll(address,bool)": {
        "details": "See {IERC1155-setApprovalForAll}."
      },
      "setURI(string)": {
        "details": "Sets a new URI for all token types, by relying on the token type ID substitution mechanism https://eips.ethereum.org/EIPS/eip-1155#metadata[defined in the EIP]. By this mechanism, any occurrence of the `\\{id\\}` substring in either the URI or any of the amounts in the JSON file at said URI will be replaced by clients with the token type ID. For example, the `https://token-cdn-domain/\\{id\\}.json` URI would be interpreted by clients as `https://token-cdn-domain/000000000000000000000000000000000000000000000000000000000004cce0.json` for token type ID 0x4cce0. See {uri}. Because these URIs cannot be meaningfully represented by the {URI} event, this function emits no events."
      },
      "supportsInterface(bytes4)": {
        "details": "See {IERC165-supportsInterface}."
      },
      "totalSupply(uint256)": {
        "details": "Total amount of tokens in with a given id."
      },
      "transferOwnership(address)": {
        "details": "Transfers ownership of the contract to a new account (`newOwner`). Can only be called by the current owner."
      },
      "unPause()": {
        "details": "Resume the contract after being paused."
      },
      "uri(uint256)": {
        "details": "Return the URI of a tokenId."
      }
    },
    "stateVariables": {
      "_creator": {
        "details": "Mapping from token IDs to their creator."
      },
      "_idToUri": {
        "details": "Mapping from NFT ID to metadata uri."
      },
      "_totalSupply": {
        "details": "Mapping from token IDs to their total supplies."
      }
    },
    "version": 1
  },
  "userdoc": {
    "kind": "user",
    "methods": {
      "mint(address,string,uint256,bytes)": {
        "notice": "It reverts if      - The `msg.sender` is not `to` or approved by `to`.      - `to` is the zero address.      - `to` cannot receive the token."
      },
      "pause()": {
        "notice": "Only the owner can call this method."
      },
      "unPause()": {
        "notice": "Only the owner can call this method."
      }
    },
    "version": 1
  }
}