{
  "contractName": "TaureumERC1155",
  "abi": [
    {
      "inputs": [
        {
          "internalType": "string",
          "name": "baseURI_",
          "type": "string"
        }
      ],
      "stateMutability": "nonpayable",
      "type": "constructor"
    },
    {
      "anonymous": false,
      "inputs": [
        {
          "indexed": true,
          "internalType": "address",
          "name": "account",
          "type": "address"
        },
        {
          "indexed": true,
          "internalType": "address",
          "name": "operator",
          "type": "address"
        },
        {
          "indexed": false,
          "internalType": "bool",
          "name": "approved",
          "type": "bool"
        }
      ],
      "name": "ApprovalForAll",
      "type": "event"
    },
    {
      "anonymous": false,
      "inputs": [
        {
          "indexed": true,
          "internalType": "address",
          "name": "previousOwner",
          "type": "address"
        },
        {
          "indexed": true,
          "internalType": "address",
          "name": "newOwner",
          "type": "address"
        }
      ],
      "name": "OwnershipTransferred",
      "type": "event"
    },
    {
      "anonymous": false,
      "inputs": [
        {
          "indexed": true,
          "internalType": "address",
          "name": "operator",
          "type": "address"
        },
        {
          "indexed": true,
          "internalType": "address",
          "name": "from",
          "type": "address"
        },
        {
          "indexed": true,
          "internalType": "address",
          "name": "to",
          "type": "address"
        },
        {
          "indexed": false,
          "internalType": "uint256[]",
          "name": "ids",
          "type": "uint256[]"
        },
        {
          "indexed": false,
          "internalType": "uint256[]",
          "name": "values",
          "type": "uint256[]"
        }
      ],
      "name": "TransferBatch",
      "type": "event"
    },
    {
      "anonymous": false,
      "inputs": [
        {
          "indexed": true,
          "internalType": "address",
          "name": "operator",
          "type": "address"
        },
        {
          "indexed": true,
          "internalType": "address",
          "name": "from",
          "type": "address"
        },
        {
          "indexed": true,
          "internalType": "address",
          "name": "to",
          "type": "address"
        },
        {
          "indexed": false,
          "internalType": "uint256",
          "name": "id",
          "type": "uint256"
        },
        {
          "indexed": false,
          "internalType": "uint256",
          "name": "value",
          "type": "uint256"
        }
      ],
      "name": "TransferSingle",
      "type": "event"
    },
    {
      "anonymous": false,
      "inputs": [
        {
          "indexed": false,
          "internalType": "string",
          "name": "value",
          "type": "string"
        },
        {
          "indexed": true,
          "internalType": "uint256",
          "name": "id",
          "type": "uint256"
        }
      ],
      "name": "URI",
      "type": "event"
    },
    {
      "inputs": [
        {
          "internalType": "address",
          "name": "account",
          "type": "address"
        },
        {
          "internalType": "uint256",
          "name": "id",
          "type": "uint256"
        }
      ],
      "name": "balanceOf",
      "outputs": [
        {
          "internalType": "uint256",
          "name": "",
          "type": "uint256"
        }
      ],
      "stateMutability": "view",
      "type": "function"
    },
    {
      "inputs": [
        {
          "internalType": "address[]",
          "name": "accounts",
          "type": "address[]"
        },
        {
          "internalType": "uint256[]",
          "name": "ids",
          "type": "uint256[]"
        }
      ],
      "name": "balanceOfBatch",
      "outputs": [
        {
          "internalType": "uint256[]",
          "name": "",
          "type": "uint256[]"
        }
      ],
      "stateMutability": "view",
      "type": "function"
    },
    {
      "inputs": [
        {
          "internalType": "address",
          "name": "account",
          "type": "address"
        },
        {
          "internalType": "address",
          "name": "operator",
          "type": "address"
        }
      ],
      "name": "isApprovedForAll",
      "outputs": [
        {
          "internalType": "bool",
          "name": "",
          "type": "bool"
        }
      ],
      "stateMutability": "view",
      "type": "function"
    },
    {
      "inputs": [],
      "name": "owner",
      "outputs": [
        {
          "internalType": "address",
          "name": "",
          "type": "address"
        }
      ],
      "stateMutability": "view",
      "type": "function"
    },
    {
      "inputs": [],
      "name": "renounceOwnership",
      "outputs": [],
      "stateMutability": "nonpayable",
      "type": "function"
    },
    {
      "inputs": [
        {
          "internalType": "address",
          "name": "from",
          "type": "address"
        },
        {
          "internalType": "address",
          "name": "to",
          "type": "address"
        },
        {
          "internalType": "uint256[]",
          "name": "ids",
          "type": "uint256[]"
        },
        {
          "internalType": "uint256[]",
          "name": "amounts",
          "type": "uint256[]"
        },
        {
          "internalType": "bytes",
          "name": "data",
          "type": "bytes"
        }
      ],
      "name": "safeBatchTransferFrom",
      "outputs": [],
      "stateMutability": "nonpayable",
      "type": "function"
    },
    {
      "inputs": [
        {
          "internalType": "address",
          "name": "from",
          "type": "address"
        },
        {
          "internalType": "address",
          "name": "to",
          "type": "address"
        },
        {
          "internalType": "uint256",
          "name": "id",
          "type": "uint256"
        },
        {
          "internalType": "uint256",
          "name": "amount",
          "type": "uint256"
        },
        {
          "internalType": "bytes",
          "name": "data",
          "type": "bytes"
        }
      ],
      "name": "safeTransferFrom",
      "outputs": [],
      "stateMutability": "nonpayable",
      "type": "function"
    },
    {
      "inputs": [
        {
          "internalType": "address",
          "name": "operator",
          "type": "address"
        },
        {
          "internalType": "bool",
          "name": "approved",
          "type": "bool"
        }
      ],
      "name": "setApprovalForAll",
      "outputs": [],
      "stateMutability": "nonpayable",
      "type": "function"
    },
    {
      "inputs": [
        {
          "internalType": "bytes4",
          "name": "interfaceId",
          "type": "bytes4"
        }
      ],
      "name": "supportsInterface",
      "outputs": [
        {
          "internalType": "bool",
          "name": "",
          "type": "bool"
        }
      ],
      "stateMutability": "view",
      "type": "function"
    },
    {
      "inputs": [
        {
          "internalType": "address",
          "name": "newOwner",
          "type": "address"
        }
      ],
      "name": "transferOwnership",
      "outputs": [],
      "stateMutability": "nonpayable",
      "type": "function"
    },
    {
      "inputs": [
        {
          "internalType": "uint256",
          "name": "",
          "type": "uint256"
        }
      ],
      "name": "uri",
      "outputs": [
        {
          "internalType": "string",
          "name": "",
          "type": "string"
        }
      ],
      "stateMutability": "view",
      "type": "function"
    },
    {
      "inputs": [
        {
          "internalType": "uint256",
          "name": "id",
          "type": "uint256"
        }
      ],
      "name": "totalSupply",
      "outputs": [
        {
          "internalType": "uint256",
          "name": "",
          "type": "uint256"
        }
      ],
      "stateMutability": "view",
      "type": "function"
    },
    {
      "inputs": [
        {
          "internalType": "uint256",
          "name": "_id",
          "type": "uint256"
        }
      ],
      "name": "exists",
      "outputs": [
        {
          "internalType": "bool",
          "name": "",
          "type": "bool"
        }
      ],
      "stateMutability": "view",
      "type": "function"
    },
    {
      "inputs": [
        {
          "internalType": "uint256",
          "name": "_id",
          "type": "uint256"
        }
      ],
      "name": "getCreator",
      "outputs": [
        {
          "internalType": "address",
          "name": "",
          "type": "address"
        }
      ],
      "stateMutability": "view",
      "type": "function"
    },
    {
      "inputs": [
        {
          "internalType": "address",
          "name": "to",
          "type": "address"
        },
        {
          "internalType": "string",
          "name": "uri",
          "type": "string"
        },
        {
          "internalType": "uint256",
          "name": "amount",
          "type": "uint256"
        },
        {
          "internalType": "bytes",
          "name": "data",
          "type": "bytes"
        }
      ],
      "name": "mint",
      "outputs": [
        {
          "internalType": "uint256",
          "name": "",
          "type": "uint256"
        }
      ],
      "stateMutability": "nonpayable",
      "type": "function"
    },
    {
      "inputs": [
        {
          "internalType": "address",
          "name": "to",
          "type": "address"
        },
        {
          "internalType": "string[]",
          "name": "uriList",
          "type": "string[]"
        },
        {
          "internalType": "uint256[]",
          "name": "amounts",
          "type": "uint256[]"
        },
        {
          "internalType": "bytes",
          "name": "data",
          "type": "bytes"
        }
      ],
      "name": "mintBatch",
      "outputs": [
        {
          "internalType": "uint256[]",
          "name": "",
          "type": "uint256[]"
        }
      ],
      "stateMutability": "nonpayable",
      "type": "function"
    },
    {
      "inputs": [
        {
          "internalType": "string",
          "name": "newURI",
          "type": "string"
        }
      ],
      "name": "setURI",
      "outputs": [],
      "stateMutability": "nonpayable",
      "type": "function"
    },
    {
      "inputs": [
        {
          "internalType": "uint256",
          "name": "tokenId",
          "type": "uint256"
        }
      ],
      "name": "tokenURI",
      "outputs": [
        {
          "internalType": "string",
          "name": "",
          "type": "string"
        }
      ],
      "stateMutability": "view",
      "type": "function"
    }
  ],
  "bytecode": "0x60806040523480156200001157600080fd5b50604051620045a2380380620045a2833981810160405281019062000037919062000248565b8062000049816200010260201b60201c565b5060006200005c6200011e60201b60201c565b905080600360006101000a81548173ffffffffffffffffffffffffffffffffffffffff021916908373ffffffffffffffffffffffffffffffffffffffff1602179055508073ffffffffffffffffffffffffffffffffffffffff16600073ffffffffffffffffffffffffffffffffffffffff167f8be0079c531659141344cd1fd0a4f28419497f9722a3daafe3b4186f6b6457e060405160405180910390a35050620003fd565b80600290805190602001906200011a92919062000126565b5050565b600033905090565b828054620001349062000322565b90600052602060002090601f016020900481019282620001585760008555620001a4565b82601f106200017357805160ff1916838001178555620001a4565b82800160010185558215620001a4579182015b82811115620001a357825182559160200191906001019062000186565b5b509050620001b39190620001b7565b5090565b5b80821115620001d2576000816000905550600101620001b8565b5090565b6000620001ed620001e784620002b6565b6200028d565b9050828152602081018484840111156200020657600080fd5b62000213848285620002ec565b509392505050565b600082601f8301126200022d57600080fd5b81516200023f848260208601620001d6565b91505092915050565b6000602082840312156200025b57600080fd5b600082015167ffffffffffffffff8111156200027657600080fd5b62000284848285016200021b565b91505092915050565b600062000299620002ac565b9050620002a7828262000358565b919050565b6000604051905090565b600067ffffffffffffffff821115620002d457620002d3620003bd565b5b620002df82620003ec565b9050602081019050919050565b60005b838110156200030c578082015181840152602081019050620002ef565b838111156200031c576000848401525b50505050565b600060028204905060018216806200033b57607f821691505b602082108114156200035257620003516200038e565b5b50919050565b6200036382620003ec565b810181811067ffffffffffffffff82111715620003855762000384620003bd565b5b80604052505050565b7f4e487b7100000000000000000000000000000000000000000000000000000000600052602260045260246000fd5b7f4e487b7100000000000000000000000000000000000000000000000000000000600052604160045260246000fd5b6000601f19601f8301169050919050565b614195806200040d6000396000f3fe608060405234801561001057600080fd5b50600436106101155760003560e01c8063715018a6116100a2578063c87b56dd11610071578063c87b56dd14610316578063d48e638a14610346578063e985e9c514610376578063f242432a146103a6578063f2fde38b146103c257610115565b8063715018a6146102a25780638da5cb5b146102ac578063a22cb465146102ca578063bd85b039146102e657610115565b80632eb2c2d6116100e95780632eb2c2d6146101c6578063428a328b146101e25780634e1273f4146102125780634f558e79146102425780635523c2501461027257610115565b8062fdd58e1461011a57806301ffc9a71461014a57806302fe53051461017a5780630e89341c14610196575b600080fd5b610134600480360381019061012f9190612d3b565b6103de565b60405161014191906136dc565b60405180910390f35b610164600480360381019061015f9190612de3565b6104a7565b604051610171919061347f565b60405180910390f35b610194600480360381019061018f9190612e35565b610589565b005b6101b060048036038101906101ab9190612e76565b610611565b6040516101bd919061349a565b60405180910390f35b6101e060048036038101906101db9190612a66565b6106a5565b005b6101fc60048036038101906101f79190612bb4565b610a9b565b6040516102099190613426565b60405180910390f35b61022c60048036038101906102279190612d77565b610d46565b6040516102399190613426565b60405180910390f35b61025c60048036038101906102579190612e76565b610ef7565b604051610269919061347f565b60405180910390f35b61028c60048036038101906102879190612ca3565b610f16565b60405161029991906136dc565b60405180910390f35b6102aa610f94565b005b6102b46110d1565b6040516102c19190613317565b60405180910390f35b6102e460048036038101906102df9190612c67565b6110fb565b005b61030060048036038101906102fb9190612e76565b61127c565b60405161030d91906136dc565b60405180910390f35b610330600480360381019061032b9190612e76565b611299565b60405161033d919061349a565b60405180910390f35b610360600480360381019061035b9190612e76565b6113d7565b60405161036d9190613317565b60405180910390f35b610390600480360381019061038b9190612a2a565b611414565b60405161039d919061347f565b60405180910390f35b6103c060048036038101906103bb9190612b25565b6114a8565b005b6103dc60048036038101906103d79190612a01565b6117c0565b005b60008073ffffffffffffffffffffffffffffffffffffffff168373ffffffffffffffffffffffffffffffffffffffff16141561044f576040517f08c379a00000000000000000000000000000000000000000000000000000000081526004016104469061353c565b60405180910390fd5b60008083815260200190815260200160002060008473ffffffffffffffffffffffffffffffffffffffff1673ffffffffffffffffffffffffffffffffffffffff16815260200190815260200160002054905092915050565b60007fd9b67a26000000000000000000000000000000000000000000000000000000007bffffffffffffffffffffffffffffffffffffffffffffffffffffffff1916827bffffffffffffffffffffffffffffffffffffffffffffffffffffffff1916148061057257507f0e89341c000000000000000000000000000000000000000000000000000000007bffffffffffffffffffffffffffffffffffffffffffffffffffffffff1916827bffffffffffffffffffffffffffffffffffffffffffffffffffffffff1916145b8061058257506105818261196c565b5b9050919050565b6105916119d6565b73ffffffffffffffffffffffffffffffffffffffff166105af6110d1565b73ffffffffffffffffffffffffffffffffffffffff1614610605576040517f08c379a00000000000000000000000000000000000000000000000000000000081526004016105fc9061363c565b60405180910390fd5b61060e816119de565b50565b60606002805461062090613a27565b80601f016020809104026020016040519081016040528092919081815260200182805461064c90613a27565b80156106995780601f1061066e57610100808354040283529160200191610699565b820191906000526020600020905b81548152906001019060200180831161067c57829003601f168201915b50505050509050919050565b81518351146106e9576040517f08c379a00000000000000000000000000000000000000000000000000000000081526004016106e09061369c565b60405180910390fd5b600073ffffffffffffffffffffffffffffffffffffffff168473ffffffffffffffffffffffffffffffffffffffff161415610759576040517f08c379a0000000000000000000000000000000000000000000000000000000008152600401610750906135bc565b60405180910390fd5b6107616119d6565b73ffffffffffffffffffffffffffffffffffffffff168573ffffffffffffffffffffffffffffffffffffffff1614806107a757506107a6856107a16119d6565b611414565b5b6107e6576040517f08c379a00000000000000000000000000000000000000000000000000000000081526004016107dd906135dc565b60405180910390fd5b60006107f06119d6565b90506108008187878787876119f8565b60005b8451811015610a06576000858281518110610847577f4e487b7100000000000000000000000000000000000000000000000000000000600052603260045260246000fd5b60200260200101519050600085838151811061088c577f4e487b7100000000000000000000000000000000000000000000000000000000600052603260045260246000fd5b60200260200101519050600080600084815260200190815260200160002060008b73ffffffffffffffffffffffffffffffffffffffff1673ffffffffffffffffffffffffffffffffffffffff1681526020019081526020016000205490508181101561092d576040517f08c379a00000000000000000000000000000000000000000000000000000000081526004016109249061361c565b60405180910390fd5b8181610939919061393d565b60008085815260200190815260200160002060008c73ffffffffffffffffffffffffffffffffffffffff1673ffffffffffffffffffffffffffffffffffffffff168152602001908152602001600020819055508160008085815260200190815260200160002060008b73ffffffffffffffffffffffffffffffffffffffff1673ffffffffffffffffffffffffffffffffffffffff16815260200190815260200160002060008282546109eb91906138e7565b92505081905550505050806109ff90613a8a565b9050610803565b508473ffffffffffffffffffffffffffffffffffffffff168673ffffffffffffffffffffffffffffffffffffffff168273ffffffffffffffffffffffffffffffffffffffff167f4a39dc06d4c0dbc64b70af90fd698a233a518aa5d07e595d983b8c0526c8f7fb8787604051610a7d929190613448565b60405180910390a4610a93818787878787611a00565b505050505050565b6060838390508686905014610ae5576040517f08c379a0000000000000000000000000000000000000000000000000000000008152600401610adc9061351c565b60405180910390fd5b60008686905067ffffffffffffffff811115610b2a577f4e487b7100000000000000000000000000000000000000000000000000000000600052604160045260246000fd5b604051908082528060200260200182016040528015610b585781602001602082028036833780820191505090505b50905060005b87879050811015610c365788888883818110610ba3577f4e487b7100000000000000000000000000000000000000000000000000000000600052603260045260246000fd5b9050602002810190610bb59190613720565b604051602001610bc7939291906133f4565b6040516020818303038152906040528051906020012060001c828281518110610c19577f4e487b7100000000000000000000000000000000000000000000000000000000600052603260045260246000fd5b60200260200101818152505080610c2f90613a8a565b9050610b5e565b50610c848882878780806020026020016040519081016040528093929190818152602001838360200280828437600081840152601f19601f8201169050808301925050505050505086611be7565b60005b87879050811015610d3757610d26828281518110610cce577f4e487b7100000000000000000000000000000000000000000000000000000000600052603260045260246000fd5b6020026020010151898984818110610d0f577f4e487b7100000000000000000000000000000000000000000000000000000000600052603260045260246000fd5b9050602002810190610d219190613720565b611cc1565b80610d3090613a8a565b9050610c87565b50809150509695505050505050565b60608151835114610d8c576040517f08c379a0000000000000000000000000000000000000000000000000000000008152600401610d839061367c565b60405180910390fd5b6000835167ffffffffffffffff811115610dcf577f4e487b7100000000000000000000000000000000000000000000000000000000600052604160045260246000fd5b604051908082528060200260200182016040528015610dfd5781602001602082028036833780820191505090505b50905060005b8451811015610eec57610e96858281518110610e48577f4e487b7100000000000000000000000000000000000000000000000000000000600052603260045260246000fd5b6020026020010151858381518110610e89577f4e487b7100000000000000000000000000000000000000000000000000000000600052603260045260246000fd5b60200260200101516103de565b828281518110610ecf577f4e487b7100000000000000000000000000000000000000000000000000000000600052603260045260246000fd5b60200260200101818152505080610ee590613a8a565b9050610e03565b508091505092915050565b6000806005600084815260200190815260200160002054119050919050565b600080868686604051602001610f2e939291906133f4565b6040516020818303038152906040528051906020012060001c9050600060056000838152602001908152602001600020541415610f7057610f6f8188611d31565b5b610f7c87828686611e99565b610f87818787611cc1565b8091505095945050505050565b610f9c6119d6565b73ffffffffffffffffffffffffffffffffffffffff16610fba6110d1565b73ffffffffffffffffffffffffffffffffffffffff1614611010576040517f08c379a00000000000000000000000000000000000000000000000000000000081526004016110079061363c565b60405180910390fd5b600073ffffffffffffffffffffffffffffffffffffffff16600360009054906101000a900473ffffffffffffffffffffffffffffffffffffffff1673ffffffffffffffffffffffffffffffffffffffff167f8be0079c531659141344cd1fd0a4f28419497f9722a3daafe3b4186f6b6457e060405160405180910390a36000600360006101000a81548173ffffffffffffffffffffffffffffffffffffffff021916908373ffffffffffffffffffffffffffffffffffffffff160217905550565b6000600360009054906101000a900473ffffffffffffffffffffffffffffffffffffffff16905090565b8173ffffffffffffffffffffffffffffffffffffffff1661111a6119d6565b73ffffffffffffffffffffffffffffffffffffffff161415611171576040517f08c379a00000000000000000000000000000000000000000000000000000000081526004016111689061365c565b60405180910390fd5b806001600061117e6119d6565b73ffffffffffffffffffffffffffffffffffffffff1673ffffffffffffffffffffffffffffffffffffffff16815260200190815260200160002060008473ffffffffffffffffffffffffffffffffffffffff1673ffffffffffffffffffffffffffffffffffffffff16815260200190815260200160002060006101000a81548160ff0219169083151502179055508173ffffffffffffffffffffffffffffffffffffffff1661122b6119d6565b73ffffffffffffffffffffffffffffffffffffffff167f17307eab39ab6107e8899845ad3d59bd9653f200f220920489ca2b5937696c3183604051611270919061347f565b60405180910390a35050565b600060056000838152602001908152602001600020549050919050565b60606112a482610ef7565b6112e3576040517f08c379a00000000000000000000000000000000000000000000000000000000081526004016112da906135fc565b60405180910390fd5b60006112ee83610611565b9050600081511161139a5760066000848152602001908152602001600020805461131790613a27565b80601f016020809104026020016040519081016040528092919081815260200182805461134390613a27565b80156113905780601f1061136557610100808354040283529160200191611390565b820191906000526020600020905b81548152906001019060200180831161137357829003601f168201915b50505050506113cf565b80600660008581526020019081526020016000206040516020016113bf9291906132f3565b6040516020818303038152906040525b915050919050565b60006004600083815260200190815260200160002060009054906101000a900473ffffffffffffffffffffffffffffffffffffffff169050919050565b6000600160008473ffffffffffffffffffffffffffffffffffffffff1673ffffffffffffffffffffffffffffffffffffffff16815260200190815260200160002060008373ffffffffffffffffffffffffffffffffffffffff1673ffffffffffffffffffffffffffffffffffffffff16815260200190815260200160002060009054906101000a900460ff16905092915050565b600073ffffffffffffffffffffffffffffffffffffffff168473ffffffffffffffffffffffffffffffffffffffff161415611518576040517f08c379a000000000000000000000000000000000000000000000000000000000815260040161150f906135bc565b60405180910390fd5b6115206119d6565b73ffffffffffffffffffffffffffffffffffffffff168573ffffffffffffffffffffffffffffffffffffffff1614806115665750611565856115606119d6565b611414565b5b6115a5576040517f08c379a000000000000000000000000000000000000000000000000000000000815260040161159c9061357c565b60405180910390fd5b60006115af6119d6565b90506115cf8187876115c088611ed5565b6115c988611ed5565b876119f8565b600080600086815260200190815260200160002060008873ffffffffffffffffffffffffffffffffffffffff1673ffffffffffffffffffffffffffffffffffffffff16815260200190815260200160002054905083811015611666576040517f08c379a000000000000000000000000000000000000000000000000000000000815260040161165d9061361c565b60405180910390fd5b8381611672919061393d565b60008087815260200190815260200160002060008973ffffffffffffffffffffffffffffffffffffffff1673ffffffffffffffffffffffffffffffffffffffff168152602001908152602001600020819055508360008087815260200190815260200160002060008873ffffffffffffffffffffffffffffffffffffffff1673ffffffffffffffffffffffffffffffffffffffff168152602001908152602001600020600082825461172491906138e7565b925050819055508573ffffffffffffffffffffffffffffffffffffffff168773ffffffffffffffffffffffffffffffffffffffff168373ffffffffffffffffffffffffffffffffffffffff167fc3d58168c5ae7397731d063d5bbf3d657854427343f4c083240f7aacaa2d0f6288886040516117a19291906136f7565b60405180910390a46117b7828888888888611f9b565b50505050505050565b6117c86119d6565b73ffffffffffffffffffffffffffffffffffffffff166117e66110d1565b73ffffffffffffffffffffffffffffffffffffffff161461183c576040517f08c379a00000000000000000000000000000000000000000000000000000000081526004016118339061363c565b60405180910390fd5b600073ffffffffffffffffffffffffffffffffffffffff168173ffffffffffffffffffffffffffffffffffffffff1614156118ac576040517f08c379a00000000000000000000000000000000000000000000000000000000081526004016118a39061355c565b60405180910390fd5b8073ffffffffffffffffffffffffffffffffffffffff16600360009054906101000a900473ffffffffffffffffffffffffffffffffffffffff1673ffffffffffffffffffffffffffffffffffffffff167f8be0079c531659141344cd1fd0a4f28419497f9722a3daafe3b4186f6b6457e060405160405180910390a380600360006101000a81548173ffffffffffffffffffffffffffffffffffffffff021916908373ffffffffffffffffffffffffffffffffffffffff16021790555050565b60007f01ffc9a7000000000000000000000000000000000000000000000000000000007bffffffffffffffffffffffffffffffffffffffffffffffffffffffff1916827bffffffffffffffffffffffffffffffffffffffffffffffffffffffff1916149050919050565b600033905090565b80600290805190602001906119f4929190612595565b5050565b505050505050565b611a1f8473ffffffffffffffffffffffffffffffffffffffff16612182565b15611bdf578373ffffffffffffffffffffffffffffffffffffffff1663bc197c8187878686866040518663ffffffff1660e01b8152600401611a65959493929190613332565b602060405180830381600087803b158015611a7f57600080fd5b505af1925050508015611ab057506040513d601f19601f82011682018060405250810190611aad9190612e0c565b60015b611b5657611abc613b60565b806308c379a01415611b195750611ad161406d565b80611adc5750611b1b565b806040517f08c379a0000000000000000000000000000000000000000000000000000000008152600401611b10919061349a565b60405180910390fd5b505b6040517f08c379a0000000000000000000000000000000000000000000000000000000008152600401611b4d906134bc565b60405180910390fd5b63bc197c8160e01b7bffffffffffffffffffffffffffffffffffffffffffffffffffffffff1916817bffffffffffffffffffffffffffffffffffffffffffffffffffffffff191614611bdd576040517f08c379a0000000000000000000000000000000000000000000000000000000008152600401611bd4906134dc565b60405180910390fd5b505b505050505050565b611bf384848484612195565b60005b8351811015611cba57828181518110611c38577f4e487b7100000000000000000000000000000000000000000000000000000000600052603260045260246000fd5b602002602001015160056000868481518110611c7d577f4e487b7100000000000000000000000000000000000000000000000000000000600052603260045260246000fd5b602002602001015181526020019081526020016000206000828254611ca291906138e7565b9250508190555080611cb390613a8a565b9050611bf6565b5050505050565b611cca83610ef7565b611d09576040517f08c379a0000000000000000000000000000000000000000000000000000000008152600401611d00906135fc565b60405180910390fd5b8181600660008681526020019081526020016000209190611d2b92919061261b565b50505050565b600073ffffffffffffffffffffffffffffffffffffffff168173ffffffffffffffffffffffffffffffffffffffff161415611da1576040517f08c379a0000000000000000000000000000000000000000000000000000000008152600401611d98906134fc565b60405180910390fd5b600073ffffffffffffffffffffffffffffffffffffffff166004600084815260200190815260200160002060009054906101000a900473ffffffffffffffffffffffffffffffffffffffff1673ffffffffffffffffffffffffffffffffffffffff1614611e43576040517f08c379a0000000000000000000000000000000000000000000000000000000008152600401611e3a9061359c565b60405180910390fd5b806004600084815260200190815260200160002060006101000a81548173ffffffffffffffffffffffffffffffffffffffff021916908373ffffffffffffffffffffffffffffffffffffffff1602179055505050565b611ea5848484846123ff565b81600560008581526020019081526020016000206000828254611ec891906138e7565b9250508190555050505050565b60606000600167ffffffffffffffff811115611f1a577f4e487b7100000000000000000000000000000000000000000000000000000000600052604160045260246000fd5b604051908082528060200260200182016040528015611f485781602001602082028036833780820191505090505b5090508281600081518110611f86577f4e487b7100000000000000000000000000000000000000000000000000000000600052603260045260246000fd5b60200260200101818152505080915050919050565b611fba8473ffffffffffffffffffffffffffffffffffffffff16612182565b1561217a578373ffffffffffffffffffffffffffffffffffffffff1663f23a6e6187878686866040518663ffffffff1660e01b815260040161200095949392919061339a565b602060405180830381600087803b15801561201a57600080fd5b505af192505050801561204b57506040513d601f19601f820116820180604052508101906120489190612e0c565b60015b6120f157612057613b60565b806308c379a014156120b4575061206c61406d565b8061207757506120b6565b806040517f08c379a00000000000000000000000000000000000000000000000000000000081526004016120ab919061349a565b60405180910390fd5b505b6040517f08c379a00000000000000000000000000000000000000000000000000000000081526004016120e8906134bc565b60405180910390fd5b63f23a6e6160e01b7bffffffffffffffffffffffffffffffffffffffffffffffffffffffff1916817bffffffffffffffffffffffffffffffffffffffffffffffffffffffff191614612178576040517f08c379a000000000000000000000000000000000000000000000000000000000815260040161216f906134dc565b60405180910390fd5b505b505050505050565b600080823b905060008111915050919050565b600073ffffffffffffffffffffffffffffffffffffffff168473ffffffffffffffffffffffffffffffffffffffff161415612205576040517f08c379a00000000000000000000000000000000000000000000000000000000081526004016121fc906136bc565b60405180910390fd5b8151835114612249576040517f08c379a00000000000000000000000000000000000000000000000000000000081526004016122409061369c565b60405180910390fd5b60006122536119d6565b9050612264816000878787876119f8565b60005b8451811015612369578381815181106122a9577f4e487b7100000000000000000000000000000000000000000000000000000000600052603260045260246000fd5b60200260200101516000808784815181106122ed577f4e487b7100000000000000000000000000000000000000000000000000000000600052603260045260246000fd5b6020026020010151815260200190815260200160002060008873ffffffffffffffffffffffffffffffffffffffff1673ffffffffffffffffffffffffffffffffffffffff168152602001908152602001600020600082825461234f91906138e7565b92505081905550808061236190613a8a565b915050612267565b508473ffffffffffffffffffffffffffffffffffffffff16600073ffffffffffffffffffffffffffffffffffffffff168273ffffffffffffffffffffffffffffffffffffffff167f4a39dc06d4c0dbc64b70af90fd698a233a518aa5d07e595d983b8c0526c8f7fb87876040516123e1929190613448565b60405180910390a46123f881600087878787611a00565b5050505050565b600073ffffffffffffffffffffffffffffffffffffffff168473ffffffffffffffffffffffffffffffffffffffff16141561246f576040517f08c379a0000000000000000000000000000000000000000000000000000000008152600401612466906136bc565b60405180910390fd5b60006124796119d6565b905061249a8160008761248b88611ed5565b61249488611ed5565b876119f8565b8260008086815260200190815260200160002060008773ffffffffffffffffffffffffffffffffffffffff1673ffffffffffffffffffffffffffffffffffffffff16815260200190815260200160002060008282546124f991906138e7565b925050819055508473ffffffffffffffffffffffffffffffffffffffff16600073ffffffffffffffffffffffffffffffffffffffff168273ffffffffffffffffffffffffffffffffffffffff167fc3d58168c5ae7397731d063d5bbf3d657854427343f4c083240f7aacaa2d0f6287876040516125779291906136f7565b60405180910390a461258e81600087878787611f9b565b5050505050565b8280546125a190613a27565b90600052602060002090601f0160209004810192826125c3576000855561260a565b82601f106125dc57805160ff191683800117855561260a565b8280016001018555821561260a579182015b828111156126095782518255916020019190600101906125ee565b5b50905061261791906126a1565b5090565b82805461262790613a27565b90600052602060002090601f0160209004810192826126495760008555612690565b82601f1061266257803560ff1916838001178555612690565b82800160010185558215612690579182015b8281111561268f578235825591602001919060010190612674565b5b50905061269d91906126a1565b5090565b5b808211156126ba5760008160009055506001016126a2565b5090565b60006126d16126cc8461379c565b613777565b905080838252602082019050828560208602820111156126f057600080fd5b60005b8581101561272057816127068882612812565b8452602084019350602083019250506001810190506126f3565b5050509392505050565b600061273d612738846137c8565b613777565b9050808382526020820190508285602086028201111561275c57600080fd5b60005b8581101561278c578161277288826129ec565b84526020840193506020830192505060018101905061275f565b5050509392505050565b60006127a96127a4846137f4565b613777565b9050828152602081018484840111156127c157600080fd5b6127cc8482856139e5565b509392505050565b60006127e76127e284613825565b613777565b9050828152602081018484840111156127ff57600080fd5b61280a8482856139e5565b509392505050565b60008135905061282181614103565b92915050565b600082601f83011261283857600080fd5b81356128488482602086016126be565b91505092915050565b60008083601f84011261286357600080fd5b8235905067ffffffffffffffff81111561287c57600080fd5b60208301915083602082028301111561289457600080fd5b9250929050565b60008083601f8401126128ad57600080fd5b8235905067ffffffffffffffff8111156128c657600080fd5b6020830191508360208202830111156128de57600080fd5b9250929050565b600082601f8301126128f657600080fd5b813561290684826020860161272a565b91505092915050565b60008135905061291e8161411a565b92915050565b60008135905061293381614131565b92915050565b60008151905061294881614131565b92915050565b600082601f83011261295f57600080fd5b813561296f848260208601612796565b91505092915050565b60008083601f84011261298a57600080fd5b8235905067ffffffffffffffff8111156129a357600080fd5b6020830191508360018202830111156129bb57600080fd5b9250929050565b600082601f8301126129d357600080fd5b81356129e38482602086016127d4565b91505092915050565b6000813590506129fb81614148565b92915050565b600060208284031215612a1357600080fd5b6000612a2184828501612812565b91505092915050565b60008060408385031215612a3d57600080fd5b6000612a4b85828601612812565b9250506020612a5c85828601612812565b9150509250929050565b600080600080600060a08688031215612a7e57600080fd5b6000612a8c88828901612812565b9550506020612a9d88828901612812565b945050604086013567ffffffffffffffff811115612aba57600080fd5b612ac6888289016128e5565b935050606086013567ffffffffffffffff811115612ae357600080fd5b612aef888289016128e5565b925050608086013567ffffffffffffffff811115612b0c57600080fd5b612b188882890161294e565b9150509295509295909350565b600080600080600060a08688031215612b3d57600080fd5b6000612b4b88828901612812565b9550506020612b5c88828901612812565b9450506040612b6d888289016129ec565b9350506060612b7e888289016129ec565b925050608086013567ffffffffffffffff811115612b9b57600080fd5b612ba78882890161294e565b9150509295509295909350565b60008060008060008060808789031215612bcd57600080fd5b6000612bdb89828a01612812565b965050602087013567ffffffffffffffff811115612bf857600080fd5b612c0489828a01612851565b9550955050604087013567ffffffffffffffff811115612c2357600080fd5b612c2f89828a0161289b565b9350935050606087013567ffffffffffffffff811115612c4e57600080fd5b612c5a89828a0161294e565b9150509295509295509295565b60008060408385031215612c7a57600080fd5b6000612c8885828601612812565b9250506020612c998582860161290f565b9150509250929050565b600080600080600060808688031215612cbb57600080fd5b6000612cc988828901612812565b955050602086013567ffffffffffffffff811115612ce657600080fd5b612cf288828901612978565b94509450506040612d05888289016129ec565b925050606086013567ffffffffffffffff811115612d2257600080fd5b612d2e8882890161294e565b9150509295509295909350565b60008060408385031215612d4e57600080fd5b6000612d5c85828601612812565b9250506020612d6d858286016129ec565b9150509250929050565b60008060408385031215612d8a57600080fd5b600083013567ffffffffffffffff811115612da457600080fd5b612db085828601612827565b925050602083013567ffffffffffffffff811115612dcd57600080fd5b612dd9858286016128e5565b9150509250929050565b600060208284031215612df557600080fd5b6000612e0384828501612924565b91505092915050565b600060208284031215612e1e57600080fd5b6000612e2c84828501612939565b91505092915050565b600060208284031215612e4757600080fd5b600082013567ffffffffffffffff811115612e6157600080fd5b612e6d848285016129c2565b91505092915050565b600060208284031215612e8857600080fd5b6000612e96848285016129ec565b91505092915050565b6000612eab83836132d5565b60208301905092915050565b612ec081613971565b82525050565b6000612ed18261387b565b612edb81856138a9565b9350612ee683613856565b8060005b83811015612f17578151612efe8882612e9f565b9750612f098361389c565b925050600181019050612eea565b5085935050505092915050565b612f2d81613983565b82525050565b6000612f3e82613886565b612f4881856138ba565b9350612f588185602086016139f4565b612f6181613b82565b840191505092915050565b6000612f7883856138cb565b9350612f858385846139e5565b612f8e83613b82565b840190509392505050565b6000612fa482613891565b612fae81856138cb565b9350612fbe8185602086016139f4565b612fc781613b82565b840191505092915050565b6000612fdd82613891565b612fe781856138dc565b9350612ff78185602086016139f4565b80840191505092915050565b6000815461301081613a27565b61301a81866138dc565b94506001821660008114613035576001811461304657613079565b60ff19831686528186019350613079565b61304f85613866565b60005b8381101561307157815481890152600182019150602081019050613052565b838801955050505b50505092915050565b600061308f6034836138cb565b915061309a82613ba0565b604082019050919050565b60006130b26028836138cb565b91506130bd82613bef565b604082019050919050565b60006130d5601d836138cb565b91506130e082613c3e565b602082019050919050565b60006130f86023836138cb565b915061310382613c67565b604082019050919050565b600061311b602b836138cb565b915061312682613cb6565b604082019050919050565b600061313e6026836138cb565b915061314982613d05565b604082019050919050565b60006131616029836138cb565b915061316c82613d54565b604082019050919050565b6000613184601e836138cb565b915061318f82613da3565b602082019050919050565b60006131a76025836138cb565b91506131b282613dcc565b604082019050919050565b60006131ca6032836138cb565b91506131d582613e1b565b604082019050919050565b60006131ed6028836138cb565b91506131f882613e6a565b604082019050919050565b6000613210602a836138cb565b915061321b82613eb9565b604082019050919050565b60006132336020836138cb565b915061323e82613f08565b602082019050919050565b60006132566029836138cb565b915061326182613f31565b604082019050919050565b60006132796029836138cb565b915061328482613f80565b604082019050919050565b600061329c6028836138cb565b91506132a782613fcf565b604082019050919050565b60006132bf6021836138cb565b91506132ca8261401e565b604082019050919050565b6132de816139db565b82525050565b6132ed816139db565b82525050565b60006132ff8285612fd2565b915061330b8284613003565b91508190509392505050565b600060208201905061332c6000830184612eb7565b92915050565b600060a0820190506133476000830188612eb7565b6133546020830187612eb7565b81810360408301526133668186612ec6565b9050818103606083015261337a8185612ec6565b9050818103608083015261338e8184612f33565b90509695505050505050565b600060a0820190506133af6000830188612eb7565b6133bc6020830187612eb7565b6133c960408301866132e4565b6133d660608301856132e4565b81810360808301526133e88184612f33565b90509695505050505050565b60006040820190506134096000830186612eb7565b818103602083015261341c818486612f6c565b9050949350505050565b600060208201905081810360008301526134408184612ec6565b905092915050565b600060408201905081810360008301526134628185612ec6565b905081810360208301526134768184612ec6565b90509392505050565b60006020820190506134946000830184612f24565b92915050565b600060208201905081810360008301526134b48184612f99565b905092915050565b600060208201905081810360008301526134d581613082565b9050919050565b600060208201905081810360008301526134f5816130a5565b9050919050565b60006020820190508181036000830152613515816130c8565b9050919050565b60006020820190508181036000830152613535816130eb565b9050919050565b600060208201905081810360008301526135558161310e565b9050919050565b6000602082019050818103600083015261357581613131565b9050919050565b6000602082019050818103600083015261359581613154565b9050919050565b600060208201905081810360008301526135b581613177565b9050919050565b600060208201905081810360008301526135d58161319a565b9050919050565b600060208201905081810360008301526135f5816131bd565b9050919050565b60006020820190508181036000830152613615816131e0565b9050919050565b6000602082019050818103600083015261363581613203565b9050919050565b6000602082019050818103600083015261365581613226565b9050919050565b6000602082019050818103600083015261367581613249565b9050919050565b600060208201905081810360008301526136958161326c565b9050919050565b600060208201905081810360008301526136b58161328f565b9050919050565b600060208201905081810360008301526136d5816132b2565b9050919050565b60006020820190506136f160008301846132e4565b92915050565b600060408201905061370c60008301856132e4565b61371960208301846132e4565b9392505050565b6000808335600160200384360303811261373957600080fd5b80840192508235915067ffffffffffffffff82111561375757600080fd5b60208301925060018202360383131561376f57600080fd5b509250929050565b6000613781613792565b905061378d8282613a59565b919050565b6000604051905090565b600067ffffffffffffffff8211156137b7576137b6613b31565b5b602082029050602081019050919050565b600067ffffffffffffffff8211156137e3576137e2613b31565b5b602082029050602081019050919050565b600067ffffffffffffffff82111561380f5761380e613b31565b5b61381882613b82565b9050602081019050919050565b600067ffffffffffffffff8211156138405761383f613b31565b5b61384982613b82565b9050602081019050919050565b6000819050602082019050919050565b60008190508160005260206000209050919050565b600081519050919050565b600081519050919050565b600081519050919050565b6000602082019050919050565b600082825260208201905092915050565b600082825260208201905092915050565b600082825260208201905092915050565b600081905092915050565b60006138f2826139db565b91506138fd836139db565b9250827fffffffffffffffffffffffffffffffffffffffffffffffffffffffffffffffff0382111561393257613931613ad3565b5b828201905092915050565b6000613948826139db565b9150613953836139db565b92508282101561396657613965613ad3565b5b828203905092915050565b600061397c826139bb565b9050919050565b60008115159050919050565b60007fffffffff0000000000000000000000000000000000000000000000000000000082169050919050565b600073ffffffffffffffffffffffffffffffffffffffff82169050919050565b6000819050919050565b82818337600083830152505050565b60005b83811015613a125780820151818401526020810190506139f7565b83811115613a21576000848401525b50505050565b60006002820490506001821680613a3f57607f821691505b60208210811415613a5357613a52613b02565b5b50919050565b613a6282613b82565b810181811067ffffffffffffffff82111715613a8157613a80613b31565b5b80604052505050565b6000613a95826139db565b91507fffffffffffffffffffffffffffffffffffffffffffffffffffffffffffffffff821415613ac857613ac7613ad3565b5b600182019050919050565b7f4e487b7100000000000000000000000000000000000000000000000000000000600052601160045260246000fd5b7f4e487b7100000000000000000000000000000000000000000000000000000000600052602260045260246000fd5b7f4e487b7100000000000000000000000000000000000000000000000000000000600052604160045260246000fd5b600060033d1115613b7f5760046000803e613b7c600051613b93565b90505b90565b6000601f19601f8301169050919050565b60008160e01c9050919050565b7f455243313135353a207472616e7366657220746f206e6f6e204552433131353560008201527f526563656976657220696d706c656d656e746572000000000000000000000000602082015250565b7f455243313135353a204552433131353552656365697665722072656a6563746560008201527f6420746f6b656e73000000000000000000000000000000000000000000000000602082015250565b7f455243313135353a207a65726f20616464726573732063726561746f72000000600082015250565b7f455243313135353a206d696e744261746368206c656e67746873206d69736d6160008201527f7463680000000000000000000000000000000000000000000000000000000000602082015250565b7f455243313135353a2062616c616e636520717565727920666f7220746865207a60008201527f65726f2061646472657373000000000000000000000000000000000000000000602082015250565b7f4f776e61626c653a206e6577206f776e657220697320746865207a65726f206160008201527f6464726573730000000000000000000000000000000000000000000000000000602082015250565b7f455243313135353a2063616c6c6572206973206e6f74206f776e6572206e6f7260008201527f20617070726f7665640000000000000000000000000000000000000000000000602082015250565b7f455243313135353a20616c72656164792068616420612063726561746f720000600082015250565b7f455243313135353a207472616e7366657220746f20746865207a65726f20616460008201527f6472657373000000000000000000000000000000000000000000000000000000602082015250565b7f455243313135353a207472616e736665722063616c6c6572206973206e6f742060008201527f6f776e6572206e6f7220617070726f7665640000000000000000000000000000602082015250565b7f455243313135353a2055524920717565727920666f72206e6f6e65786973746560008201527f6e7420746f6b656e000000000000000000000000000000000000000000000000602082015250565b7f455243313135353a20696e73756666696369656e742062616c616e636520666f60008201527f72207472616e7366657200000000000000000000000000000000000000000000602082015250565b7f4f776e61626c653a2063616c6c6572206973206e6f7420746865206f776e6572600082015250565b7f455243313135353a2073657474696e6720617070726f76616c2073746174757360008201527f20666f722073656c660000000000000000000000000000000000000000000000602082015250565b7f455243313135353a206163636f756e747320616e6420696473206c656e67746860008201527f206d69736d617463680000000000000000000000000000000000000000000000602082015250565b7f455243313135353a2069647320616e6420616d6f756e7473206c656e6774682060008201527f6d69736d61746368000000000000000000000000000000000000000000000000602082015250565b7f455243313135353a206d696e7420746f20746865207a65726f2061646472657360008201527f7300000000000000000000000000000000000000000000000000000000000000602082015250565b600060443d101561407d57614100565b614085613792565b60043d036004823e80513d602482011167ffffffffffffffff821117156140ad575050614100565b808201805167ffffffffffffffff8111156140cb5750505050614100565b80602083010160043d0385018111156140e8575050505050614100565b6140f782602001850186613a59565b82955050505050505b90565b61410c81613971565b811461411757600080fd5b50565b61412381613983565b811461412e57600080fd5b50565b61413a8161398f565b811461414557600080fd5b50565b614151816139db565b811461415c57600080fd5b5056fea2646970667358221220e7ef546d95a08a9fe54e65783b8465cf77c11b50f9469f342a2a039eeef9b2d664736f6c63430008040033",
  "immutableReferences": {},
  "source": "// SPDX-License-Identifier: UNLICENSED\n\npragma solidity 0.8.4;\n\nimport \"../../lib/token/ERC1155/ERC1155.sol\";\nimport \"../../lib/token/ERC1155/extensions/ERC1155Supply.sol\";\nimport \"../../lib/access/Ownable.sol\";\n\ncontract TaureumERC1155 is ERC1155, Ownable {\n    /**\n     * @dev Mapping from token IDs to their creator.\n     */\n    mapping(uint256 => address) private _creator;\n\n    /**\n     * @dev Mapping from token IDs to their total supplies.\n     */\n    mapping(uint256 => uint256) internal _totalSupply;\n\n    /**\n     * @dev Mapping from NFT ID to metadata uri.\n     */\n    mapping(uint256 => string) internal _idToUri;\n\n    /**\n     * @dev Create a new TaureumERC1155 contract and set the `_uri` value.\n     *\n     */\n    constructor(string memory baseURI_) ERC1155(baseURI_) Ownable() {\n    }\n\n    /**\n     * @dev Total amount of tokens in with a given id.\n     */\n    function totalSupply(uint256 id) public view virtual returns (uint256) {\n        return _totalSupply[id];\n    }\n\n    /**\n     * @dev Return the indicator whether a token exists given its id.\n     */\n    function exists(uint256 _id) public view virtual returns (bool) {\n        return _totalSupply[_id] > 0;\n    }\n\n    /**\n     * @dev Return the creator of an NFT given its id.\n     */\n    function getCreator(uint256 _id) external view returns (address) {\n        return _creator[_id];\n    }\n\n    /**\n     * @dev Mint a new ERC1155 token. A token can only be minted once.\n     */\n    function mint(\n        address to,\n        string calldata uri,\n        uint256 amount,\n        bytes memory data\n    ) external virtual returns (uint256){\n        uint256 id = uint256(keccak256(abi.encode(to, uri)));\n\n        if (_totalSupply[id] == 0) {\n            _saveCreator(id, to);\n        }\n        _mint(to, id, amount, data);\n        _setTokenUri(id, uri);\n\n        return id;\n    }\n\n    /**\n     * @dev Mint a batch of tokens.\n     */\n    function mintBatch(\n        address to,\n        string[] calldata uriList,\n        uint256[] calldata amounts,\n        bytes memory data\n    ) external virtual returns (uint256[] memory) {\n        require(uriList.length == amounts.length, \"ERC1155: mintBatch lengths mismatch\");\n\n        uint256[] memory ids = new uint256[](uriList.length);\n        for (uint256 i = 0; i < uriList.length; ++i) {\n            ids[i] = uint256(keccak256(abi.encode(to, uriList[i])));\n        }\n\n        _mintBatch(to, ids, amounts, data);\n        for (uint256 i = 0; i < uriList.length; ++i) {\n            _setTokenUri(ids[i], uriList[i]);\n        }\n\n        return ids;\n    }\n\n    /**\n     * @dev Sets a new URI for all token types, by relying on the token type ID\n     * substitution mechanism\n     * https://eips.ethereum.org/EIPS/eip-1155#metadata[defined in the EIP].\n     *\n     * By this mechanism, any occurrence of the `\\{id\\}` substring in either the\n     * URI or any of the amounts in the JSON file at said URI will be replaced by\n     * clients with the token type ID.\n     *\n     * For example, the `https://token-cdn-domain/\\{id\\}.json` URI would be\n     * interpreted by clients as\n     * `https://token-cdn-domain/000000000000000000000000000000000000000000000000000000000004cce0.json`\n     * for token type ID 0x4cce0.\n     *\n     * See {uri}.\n     *\n     * Because these URIs cannot be meaningfully represented by the {URI} event,\n     * this function emits no events.\n     */\n    function setURI(string memory newURI) public onlyOwner {\n        _setURI(newURI);\n    }\n\n    /**\n     * @dev Return the URI of a tokenId.\n     */\n    function tokenURI(uint256 tokenId) public view virtual returns (string memory) {\n        require(exists(tokenId), \"ERC1155: URI query for nonexistent token\");\n\n        string memory baseURI = uri(tokenId);\n\n        return bytes(baseURI).length > 0 ? string(abi.encodePacked(baseURI, _idToUri[tokenId])) : _idToUri[tokenId];\n    }\n\n    /**\n     * @dev Set a distinct URI (RFC 3986) for a given NFT ID.\n     * @notice This is an internal function which should be called from user-implemented external\n     * function.\n     * @notice It throws an exception if the _tokenId does not exist.\n     * @param tokenId_ Id for which we want URI.\n     * @param uri_ String representing RFC 3986 URI.\n     */\n    function _setTokenUri(\n        uint256 tokenId_,\n        string calldata uri_\n    )\n    internal\n    {\n        require(exists(tokenId_), \"ERC1155: URI query for nonexistent token\");\n        _idToUri[tokenId_] = uri_;\n    }\n\n    /**\n     * @dev Save the creator of a token.\n     * @notice It reverts when\n     *   - `_creator` is the zero address; or\n     *   - the tokenId already had a creator.\n     */\n    function _saveCreator(uint256 tokenId, address creator_) internal {\n        require(creator_ != address(0x0), \"ERC1155: zero address creator\");\n        require(_creator[tokenId] == address(0x0), \"ERC1155: already had a creator\");\n        _creator[tokenId] = creator_;\n    }\n\n    /**\n     * @dev See {ERC1155-_mint}.\n     */\n    function _mint(address account, uint256 id, uint256 amount, bytes memory data) internal virtual override {\n        super._mint(account, id, amount, data);\n        _totalSupply[id] += amount;\n    }\n\n    /**\n     * @dev See {ERC1155-_mintBatch}.\n     */\n    function _mintBatch(\n        address to,\n        uint256[] memory ids,\n        uint256[] memory amounts,\n        bytes memory data\n    ) internal virtual override {\n        super._mintBatch(to, ids, amounts, data);\n        for (uint256 i = 0; i < ids.length; ++i) {\n            _totalSupply[ids[i]] += amounts[i];\n        }\n    }\n\n    /**\n     * @dev See {ERC1155-_burn}.\n     */\n    function _burn(\n        address account,\n        uint256 id,\n        uint256 amount\n    ) internal virtual override {\n        super._burn(account, id, amount);\n        _totalSupply[id] -= amount;\n    }\n\n    /**\n     * @dev See {ERC1155-_burnBatch}.\n     */\n    function _burnBatch(\n        address account,\n        uint256[] memory ids,\n        uint256[] memory amounts\n    ) internal virtual override {\n        super._burnBatch(account, ids, amounts);\n        for (uint256 i = 0; i < ids.length; ++i) {\n            _totalSupply[ids[i]] -= amounts[i];\n        }\n    }\n\n}\n",
  "sourcePath": "/home/toor/nodejs/truffle/nft_demo/taudefi/taudefi-nft/contracts/tokens/ERC1155/TaureumERC1155.sol",
  "compiler": {
    "name": "solc",
    "version": "0.8.4+commit.c7e474f2.Emscripten.clang"
  },
  "schemaVersion": "3.4.1",
  "updatedAt": "2021-08-07T10:26:43.446Z",
  "devdoc": {
    "kind": "dev",
    "methods": {
      "balanceOf(address,uint256)": {
        "details": "See {IERC1155-balanceOf}. Requirements: - `account` cannot be the zero address."
      },
      "balanceOfBatch(address[],uint256[])": {
        "details": "See {IERC1155-balanceOfBatch}. Requirements: - `accounts` and `ids` must have the same length."
      },
      "constructor": {
        "details": "Create a new TaureumERC1155 contract and set the `_uri` value."
      },
      "exists(uint256)": {
        "details": "Return the indicator whether a token exists given its id."
      },
      "getCreator(uint256)": {
        "details": "Return the creator of an NFT given its id."
      },
      "isApprovedForAll(address,address)": {
        "details": "See {IERC1155-isApprovedForAll}."
      },
      "mint(address,string,uint256,bytes)": {
        "details": "Mint a new ERC1155 token. A token can only be minted once."
      },
      "mintBatch(address,string[],uint256[],bytes)": {
        "details": "Mint a batch of tokens."
      },
      "owner()": {
        "details": "Returns the address of the current owner."
      },
      "renounceOwnership()": {
        "details": "Leaves the contract without owner. It will not be possible to call `onlyOwner` functions anymore. Can only be called by the current owner. NOTE: Renouncing ownership will leave the contract without an owner, thereby removing any functionality that is only available to the owner."
      },
      "safeBatchTransferFrom(address,address,uint256[],uint256[],bytes)": {
        "details": "See {IERC1155-safeBatchTransferFrom}."
      },
      "safeTransferFrom(address,address,uint256,uint256,bytes)": {
        "details": "See {IERC1155-safeTransferFrom}."
      },
      "setApprovalForAll(address,bool)": {
        "details": "See {IERC1155-setApprovalForAll}."
      },
      "setURI(string)": {
        "details": "Sets a new URI for all token types, by relying on the token type ID substitution mechanism https://eips.ethereum.org/EIPS/eip-1155#metadata[defined in the EIP]. By this mechanism, any occurrence of the `\\{id\\}` substring in either the URI or any of the amounts in the JSON file at said URI will be replaced by clients with the token type ID. For example, the `https://token-cdn-domain/\\{id\\}.json` URI would be interpreted by clients as `https://token-cdn-domain/000000000000000000000000000000000000000000000000000000000004cce0.json` for token type ID 0x4cce0. See {uri}. Because these URIs cannot be meaningfully represented by the {URI} event, this function emits no events."
      },
      "supportsInterface(bytes4)": {
        "details": "See {IERC165-supportsInterface}."
      },
      "tokenURI(uint256)": {
        "details": "Return the URI of a tokenId."
      },
      "totalSupply(uint256)": {
        "details": "Total amount of tokens in with a given id."
      },
      "transferOwnership(address)": {
        "details": "Transfers ownership of the contract to a new account (`newOwner`). Can only be called by the current owner."
      },
      "uri(uint256)": {
        "details": "See {IERC1155MetadataURI-uri}. This implementation returns the same URI for *all* token types. It relies on the token type ID substitution mechanism https://eips.ethereum.org/EIPS/eip-1155#metadata[defined in the EIP]. Clients calling this function must replace the `\\{id\\}` substring with the actual token type ID."
      }
    },
    "stateVariables": {
      "_creator": {
        "details": "Mapping from token IDs to their creator."
      },
      "_idToUri": {
        "details": "Mapping from NFT ID to metadata uri."
      },
      "_totalSupply": {
        "details": "Mapping from token IDs to their total supplies."
      }
    },
    "version": 1
  },
  "userdoc": {
    "kind": "user",
    "methods": {},
    "version": 1
  }
}