{
  "contractName": "TaureumERC1155",
  "abi": [
    {
      "inputs": [
        {
          "internalType": "string",
          "name": "uri_",
          "type": "string"
        }
      ],
      "stateMutability": "nonpayable",
      "type": "constructor"
    },
    {
      "anonymous": false,
      "inputs": [
        {
          "indexed": true,
          "internalType": "address",
          "name": "account",
          "type": "address"
        },
        {
          "indexed": true,
          "internalType": "address",
          "name": "operator",
          "type": "address"
        },
        {
          "indexed": false,
          "internalType": "bool",
          "name": "approved",
          "type": "bool"
        }
      ],
      "name": "ApprovalForAll",
      "type": "event"
    },
    {
      "anonymous": false,
      "inputs": [
        {
          "indexed": true,
          "internalType": "address",
          "name": "previousOwner",
          "type": "address"
        },
        {
          "indexed": true,
          "internalType": "address",
          "name": "newOwner",
          "type": "address"
        }
      ],
      "name": "OwnershipTransferred",
      "type": "event"
    },
    {
      "anonymous": false,
      "inputs": [
        {
          "indexed": true,
          "internalType": "address",
          "name": "operator",
          "type": "address"
        },
        {
          "indexed": true,
          "internalType": "address",
          "name": "from",
          "type": "address"
        },
        {
          "indexed": true,
          "internalType": "address",
          "name": "to",
          "type": "address"
        },
        {
          "indexed": false,
          "internalType": "uint256[]",
          "name": "ids",
          "type": "uint256[]"
        },
        {
          "indexed": false,
          "internalType": "uint256[]",
          "name": "values",
          "type": "uint256[]"
        }
      ],
      "name": "TransferBatch",
      "type": "event"
    },
    {
      "anonymous": false,
      "inputs": [
        {
          "indexed": true,
          "internalType": "address",
          "name": "operator",
          "type": "address"
        },
        {
          "indexed": true,
          "internalType": "address",
          "name": "from",
          "type": "address"
        },
        {
          "indexed": true,
          "internalType": "address",
          "name": "to",
          "type": "address"
        },
        {
          "indexed": false,
          "internalType": "uint256",
          "name": "id",
          "type": "uint256"
        },
        {
          "indexed": false,
          "internalType": "uint256",
          "name": "value",
          "type": "uint256"
        }
      ],
      "name": "TransferSingle",
      "type": "event"
    },
    {
      "anonymous": false,
      "inputs": [
        {
          "indexed": false,
          "internalType": "string",
          "name": "value",
          "type": "string"
        },
        {
          "indexed": true,
          "internalType": "uint256",
          "name": "id",
          "type": "uint256"
        }
      ],
      "name": "URI",
      "type": "event"
    },
    {
      "inputs": [
        {
          "internalType": "address",
          "name": "account",
          "type": "address"
        },
        {
          "internalType": "uint256",
          "name": "id",
          "type": "uint256"
        }
      ],
      "name": "balanceOf",
      "outputs": [
        {
          "internalType": "uint256",
          "name": "",
          "type": "uint256"
        }
      ],
      "stateMutability": "view",
      "type": "function"
    },
    {
      "inputs": [
        {
          "internalType": "address[]",
          "name": "accounts",
          "type": "address[]"
        },
        {
          "internalType": "uint256[]",
          "name": "ids",
          "type": "uint256[]"
        }
      ],
      "name": "balanceOfBatch",
      "outputs": [
        {
          "internalType": "uint256[]",
          "name": "",
          "type": "uint256[]"
        }
      ],
      "stateMutability": "view",
      "type": "function"
    },
    {
      "inputs": [
        {
          "internalType": "uint256",
          "name": "id",
          "type": "uint256"
        }
      ],
      "name": "exists",
      "outputs": [
        {
          "internalType": "bool",
          "name": "",
          "type": "bool"
        }
      ],
      "stateMutability": "view",
      "type": "function"
    },
    {
      "inputs": [
        {
          "internalType": "address",
          "name": "account",
          "type": "address"
        },
        {
          "internalType": "address",
          "name": "operator",
          "type": "address"
        }
      ],
      "name": "isApprovedForAll",
      "outputs": [
        {
          "internalType": "bool",
          "name": "",
          "type": "bool"
        }
      ],
      "stateMutability": "view",
      "type": "function"
    },
    {
      "inputs": [],
      "name": "owner",
      "outputs": [
        {
          "internalType": "address",
          "name": "",
          "type": "address"
        }
      ],
      "stateMutability": "view",
      "type": "function"
    },
    {
      "inputs": [],
      "name": "renounceOwnership",
      "outputs": [],
      "stateMutability": "nonpayable",
      "type": "function"
    },
    {
      "inputs": [
        {
          "internalType": "address",
          "name": "from",
          "type": "address"
        },
        {
          "internalType": "address",
          "name": "to",
          "type": "address"
        },
        {
          "internalType": "uint256[]",
          "name": "ids",
          "type": "uint256[]"
        },
        {
          "internalType": "uint256[]",
          "name": "amounts",
          "type": "uint256[]"
        },
        {
          "internalType": "bytes",
          "name": "data",
          "type": "bytes"
        }
      ],
      "name": "safeBatchTransferFrom",
      "outputs": [],
      "stateMutability": "nonpayable",
      "type": "function"
    },
    {
      "inputs": [
        {
          "internalType": "address",
          "name": "from",
          "type": "address"
        },
        {
          "internalType": "address",
          "name": "to",
          "type": "address"
        },
        {
          "internalType": "uint256",
          "name": "id",
          "type": "uint256"
        },
        {
          "internalType": "uint256",
          "name": "amount",
          "type": "uint256"
        },
        {
          "internalType": "bytes",
          "name": "data",
          "type": "bytes"
        }
      ],
      "name": "safeTransferFrom",
      "outputs": [],
      "stateMutability": "nonpayable",
      "type": "function"
    },
    {
      "inputs": [
        {
          "internalType": "address",
          "name": "operator",
          "type": "address"
        },
        {
          "internalType": "bool",
          "name": "approved",
          "type": "bool"
        }
      ],
      "name": "setApprovalForAll",
      "outputs": [],
      "stateMutability": "nonpayable",
      "type": "function"
    },
    {
      "inputs": [
        {
          "internalType": "bytes4",
          "name": "interfaceId",
          "type": "bytes4"
        }
      ],
      "name": "supportsInterface",
      "outputs": [
        {
          "internalType": "bool",
          "name": "",
          "type": "bool"
        }
      ],
      "stateMutability": "view",
      "type": "function"
    },
    {
      "inputs": [
        {
          "internalType": "uint256",
          "name": "id",
          "type": "uint256"
        }
      ],
      "name": "totalSupply",
      "outputs": [
        {
          "internalType": "uint256",
          "name": "",
          "type": "uint256"
        }
      ],
      "stateMutability": "view",
      "type": "function"
    },
    {
      "inputs": [
        {
          "internalType": "address",
          "name": "newOwner",
          "type": "address"
        }
      ],
      "name": "transferOwnership",
      "outputs": [],
      "stateMutability": "nonpayable",
      "type": "function"
    },
    {
      "inputs": [
        {
          "internalType": "uint256",
          "name": "",
          "type": "uint256"
        }
      ],
      "name": "uri",
      "outputs": [
        {
          "internalType": "string",
          "name": "",
          "type": "string"
        }
      ],
      "stateMutability": "view",
      "type": "function"
    },
    {
      "inputs": [
        {
          "internalType": "address",
          "name": "to",
          "type": "address"
        },
        {
          "internalType": "string",
          "name": "uri",
          "type": "string"
        },
        {
          "internalType": "uint256",
          "name": "supply",
          "type": "uint256"
        },
        {
          "internalType": "bytes",
          "name": "data",
          "type": "bytes"
        }
      ],
      "name": "mint",
      "outputs": [
        {
          "internalType": "uint256",
          "name": "",
          "type": "uint256"
        }
      ],
      "stateMutability": "nonpayable",
      "type": "function"
    },
    {
      "inputs": [
        {
          "internalType": "string",
          "name": "newURI",
          "type": "string"
        }
      ],
      "name": "setURI",
      "outputs": [],
      "stateMutability": "nonpayable",
      "type": "function"
    },
    {
      "inputs": [
        {
          "internalType": "uint256",
          "name": "tokenId",
          "type": "uint256"
        }
      ],
      "name": "tokenURI",
      "outputs": [
        {
          "internalType": "string",
          "name": "",
          "type": "string"
        }
      ],
      "stateMutability": "view",
      "type": "function"
    }
  ],
  "bytecode": "0x60806040523480156200001157600080fd5b5060405162003b1338038062003b13833981810160405281019062000037919062000248565b8062000049816200010260201b60201c565b5060006200005c6200011e60201b60201c565b905080600460006101000a81548173ffffffffffffffffffffffffffffffffffffffff021916908373ffffffffffffffffffffffffffffffffffffffff1602179055508073ffffffffffffffffffffffffffffffffffffffff16600073ffffffffffffffffffffffffffffffffffffffff167f8be0079c531659141344cd1fd0a4f28419497f9722a3daafe3b4186f6b6457e060405160405180910390a35050620003fd565b80600290805190602001906200011a92919062000126565b5050565b600033905090565b828054620001349062000322565b90600052602060002090601f016020900481019282620001585760008555620001a4565b82601f106200017357805160ff1916838001178555620001a4565b82800160010185558215620001a4579182015b82811115620001a357825182559160200191906001019062000186565b5b509050620001b39190620001b7565b5090565b5b80821115620001d2576000816000905550600101620001b8565b5090565b6000620001ed620001e784620002b6565b6200028d565b9050828152602081018484840111156200020657600080fd5b62000213848285620002ec565b509392505050565b600082601f8301126200022d57600080fd5b81516200023f848260208601620001d6565b91505092915050565b6000602082840312156200025b57600080fd5b600082015167ffffffffffffffff8111156200027657600080fd5b62000284848285016200021b565b91505092915050565b600062000299620002ac565b9050620002a7828262000358565b919050565b6000604051905090565b600067ffffffffffffffff821115620002d457620002d3620003bd565b5b620002df82620003ec565b9050602081019050919050565b60005b838110156200030c578082015181840152602081019050620002ef565b838111156200031c576000848401525b50505050565b600060028204905060018216806200033b57607f821691505b602082108114156200035257620003516200038e565b5b50919050565b6200036382620003ec565b810181811067ffffffffffffffff82111715620003855762000384620003bd565b5b80604052505050565b7f4e487b7100000000000000000000000000000000000000000000000000000000600052602260045260246000fd5b7f4e487b7100000000000000000000000000000000000000000000000000000000600052604160045260246000fd5b6000601f19601f8301169050919050565b613706806200040d6000396000f3fe608060405234801561001057600080fd5b50600436106100ff5760003560e01c8063715018a611610097578063c87b56dd11610066578063c87b56dd146102d0578063e985e9c514610300578063f242432a14610330578063f2fde38b1461034c576100ff565b8063715018a61461025c5780638da5cb5b14610266578063a22cb46514610284578063bd85b039146102a0576100ff565b80632eb2c2d6116100d35780632eb2c2d6146101b05780634e1273f4146101cc5780634f558e79146101fc5780635523c2501461022c576100ff565b8062fdd58e1461010457806301ffc9a71461013457806302fe5305146101645780630e89341c14610180575b600080fd5b61011e60048036038101906101199190612401565b610368565b60405161012b9190612d1c565b60405180910390f35b61014e600480360381019061014991906124a9565b610431565b60405161015b9190612aff565b60405180910390f35b61017e600480360381019061017991906124fb565b610513565b005b61019a6004803603810190610195919061253c565b61059b565b6040516101a79190612b1a565b60405180910390f35b6101ca60048036038101906101c591906121df565b61062f565b005b6101e660048036038101906101e1919061243d565b610a25565b6040516101f39190612aa6565b60405180910390f35b6102166004803603810190610211919061253c565b610bd6565b6040516102239190612aff565b60405180910390f35b61024660048036038101906102419190612369565b610bea565b6040516102539190612d1c565b60405180910390f35b610264610c8a565b005b61026e610dc7565b60405161027b9190612997565b60405180910390f35b61029e6004803603810190610299919061232d565b610df1565b005b6102ba60048036038101906102b5919061253c565b610f72565b6040516102c79190612d1c565b60405180910390f35b6102ea60048036038101906102e5919061253c565b610f8f565b6040516102f79190612b1a565b60405180910390f35b61031a600480360381019061031591906121a3565b6110cd565b6040516103279190612aff565b60405180910390f35b61034a6004803603810190610345919061229e565b611161565b005b6103666004803603810190610361919061217a565b611479565b005b60008073ffffffffffffffffffffffffffffffffffffffff168373ffffffffffffffffffffffffffffffffffffffff1614156103d9576040517f08c379a00000000000000000000000000000000000000000000000000000000081526004016103d090612b7c565b60405180910390fd5b60008083815260200190815260200160002060008473ffffffffffffffffffffffffffffffffffffffff1673ffffffffffffffffffffffffffffffffffffffff16815260200190815260200160002054905092915050565b60007fd9b67a26000000000000000000000000000000000000000000000000000000007bffffffffffffffffffffffffffffffffffffffffffffffffffffffff1916827bffffffffffffffffffffffffffffffffffffffffffffffffffffffff191614806104fc57507f0e89341c000000000000000000000000000000000000000000000000000000007bffffffffffffffffffffffffffffffffffffffffffffffffffffffff1916827bffffffffffffffffffffffffffffffffffffffffffffffffffffffff1916145b8061050c575061050b82611625565b5b9050919050565b61051b61168f565b73ffffffffffffffffffffffffffffffffffffffff16610539610dc7565b73ffffffffffffffffffffffffffffffffffffffff161461058f576040517f08c379a000000000000000000000000000000000000000000000000000000000815260040161058690612c5c565b60405180910390fd5b61059881611697565b50565b6060600280546105aa90613010565b80601f01602080910402602001604051908101604052809291908181526020018280546105d690613010565b80156106235780601f106105f857610100808354040283529160200191610623565b820191906000526020600020905b81548152906001019060200180831161060657829003601f168201915b50505050509050919050565b8151835114610673576040517f08c379a000000000000000000000000000000000000000000000000000000000815260040161066a90612cbc565b60405180910390fd5b600073ffffffffffffffffffffffffffffffffffffffff168473ffffffffffffffffffffffffffffffffffffffff1614156106e3576040517f08c379a00000000000000000000000000000000000000000000000000000000081526004016106da90612bdc565b60405180910390fd5b6106eb61168f565b73ffffffffffffffffffffffffffffffffffffffff168573ffffffffffffffffffffffffffffffffffffffff16148061073157506107308561072b61168f565b6110cd565b5b610770576040517f08c379a000000000000000000000000000000000000000000000000000000000815260040161076790612bfc565b60405180910390fd5b600061077a61168f565b905061078a8187878787876116b1565b60005b84518110156109905760008582815181106107d1577f4e487b7100000000000000000000000000000000000000000000000000000000600052603260045260246000fd5b602002602001015190506000858381518110610816577f4e487b7100000000000000000000000000000000000000000000000000000000600052603260045260246000fd5b60200260200101519050600080600084815260200190815260200160002060008b73ffffffffffffffffffffffffffffffffffffffff1673ffffffffffffffffffffffffffffffffffffffff168152602001908152602001600020549050818110156108b7576040517f08c379a00000000000000000000000000000000000000000000000000000000081526004016108ae90612c3c565b60405180910390fd5b81816108c39190612f26565b60008085815260200190815260200160002060008c73ffffffffffffffffffffffffffffffffffffffff1673ffffffffffffffffffffffffffffffffffffffff168152602001908152602001600020819055508160008085815260200190815260200160002060008b73ffffffffffffffffffffffffffffffffffffffff1673ffffffffffffffffffffffffffffffffffffffff16815260200190815260200160002060008282546109759190612ed0565b925050819055505050508061098990613073565b905061078d565b508473ffffffffffffffffffffffffffffffffffffffff168673ffffffffffffffffffffffffffffffffffffffff168273ffffffffffffffffffffffffffffffffffffffff167f4a39dc06d4c0dbc64b70af90fd698a233a518aa5d07e595d983b8c0526c8f7fb8787604051610a07929190612ac8565b60405180910390a4610a1d8187878787876116b9565b505050505050565b60608151835114610a6b576040517f08c379a0000000000000000000000000000000000000000000000000000000008152600401610a6290612c9c565b60405180910390fd5b6000835167ffffffffffffffff811115610aae577f4e487b7100000000000000000000000000000000000000000000000000000000600052604160045260246000fd5b604051908082528060200260200182016040528015610adc5781602001602082028036833780820191505090505b50905060005b8451811015610bcb57610b75858281518110610b27577f4e487b7100000000000000000000000000000000000000000000000000000000600052603260045260246000fd5b6020026020010151858381518110610b68577f4e487b7100000000000000000000000000000000000000000000000000000000600052603260045260246000fd5b6020026020010151610368565b828281518110610bae577f4e487b7100000000000000000000000000000000000000000000000000000000600052603260045260246000fd5b60200260200101818152505080610bc490613073565b9050610ae2565b508091505092915050565b600080610be283610f72565b119050919050565b600080868686604051602001610c0293929190612a74565b6040516020818303038152906040528051906020012060001c9050610c2681610bd6565b15610c66576040517f08c379a0000000000000000000000000000000000000000000000000000000008152600401610c5d90612cfc565b60405180910390fd5b610c72878286866118a0565b610c7d8187876118dc565b8091505095945050505050565b610c9261168f565b73ffffffffffffffffffffffffffffffffffffffff16610cb0610dc7565b73ffffffffffffffffffffffffffffffffffffffff1614610d06576040517f08c379a0000000000000000000000000000000000000000000000000000000008152600401610cfd90612c5c565b60405180910390fd5b600073ffffffffffffffffffffffffffffffffffffffff16600460009054906101000a900473ffffffffffffffffffffffffffffffffffffffff1673ffffffffffffffffffffffffffffffffffffffff167f8be0079c531659141344cd1fd0a4f28419497f9722a3daafe3b4186f6b6457e060405160405180910390a36000600460006101000a81548173ffffffffffffffffffffffffffffffffffffffff021916908373ffffffffffffffffffffffffffffffffffffffff160217905550565b6000600460009054906101000a900473ffffffffffffffffffffffffffffffffffffffff16905090565b8173ffffffffffffffffffffffffffffffffffffffff16610e1061168f565b73ffffffffffffffffffffffffffffffffffffffff161415610e67576040517f08c379a0000000000000000000000000000000000000000000000000000000008152600401610e5e90612c7c565b60405180910390fd5b8060016000610e7461168f565b73ffffffffffffffffffffffffffffffffffffffff1673ffffffffffffffffffffffffffffffffffffffff16815260200190815260200160002060008473ffffffffffffffffffffffffffffffffffffffff1673ffffffffffffffffffffffffffffffffffffffff16815260200190815260200160002060006101000a81548160ff0219169083151502179055508173ffffffffffffffffffffffffffffffffffffffff16610f2161168f565b73ffffffffffffffffffffffffffffffffffffffff167f17307eab39ab6107e8899845ad3d59bd9653f200f220920489ca2b5937696c3183604051610f669190612aff565b60405180910390a35050565b600060036000838152602001908152602001600020549050919050565b6060610f9a82610bd6565b610fd9576040517f08c379a0000000000000000000000000000000000000000000000000000000008152600401610fd090612c1c565b60405180910390fd5b6000610fe48361059b565b905060008151116110905760056000848152602001908152602001600020805461100d90613010565b80601f016020809104026020016040519081016040528092919081815260200182805461103990613010565b80156110865780601f1061105b57610100808354040283529160200191611086565b820191906000526020600020905b81548152906001019060200180831161106957829003601f168201915b50505050506110c5565b80600560008581526020019081526020016000206040516020016110b5929190612973565b6040516020818303038152906040525b915050919050565b6000600160008473ffffffffffffffffffffffffffffffffffffffff1673ffffffffffffffffffffffffffffffffffffffff16815260200190815260200160002060008373ffffffffffffffffffffffffffffffffffffffff1673ffffffffffffffffffffffffffffffffffffffff16815260200190815260200160002060009054906101000a900460ff16905092915050565b600073ffffffffffffffffffffffffffffffffffffffff168473ffffffffffffffffffffffffffffffffffffffff1614156111d1576040517f08c379a00000000000000000000000000000000000000000000000000000000081526004016111c890612bdc565b60405180910390fd5b6111d961168f565b73ffffffffffffffffffffffffffffffffffffffff168573ffffffffffffffffffffffffffffffffffffffff16148061121f575061121e8561121961168f565b6110cd565b5b61125e576040517f08c379a000000000000000000000000000000000000000000000000000000000815260040161125590612bbc565b60405180910390fd5b600061126861168f565b90506112888187876112798861194c565b6112828861194c565b876116b1565b600080600086815260200190815260200160002060008873ffffffffffffffffffffffffffffffffffffffff1673ffffffffffffffffffffffffffffffffffffffff1681526020019081526020016000205490508381101561131f576040517f08c379a000000000000000000000000000000000000000000000000000000000815260040161131690612c3c565b60405180910390fd5b838161132b9190612f26565b60008087815260200190815260200160002060008973ffffffffffffffffffffffffffffffffffffffff1673ffffffffffffffffffffffffffffffffffffffff168152602001908152602001600020819055508360008087815260200190815260200160002060008873ffffffffffffffffffffffffffffffffffffffff1673ffffffffffffffffffffffffffffffffffffffff16815260200190815260200160002060008282546113dd9190612ed0565b925050819055508573ffffffffffffffffffffffffffffffffffffffff168773ffffffffffffffffffffffffffffffffffffffff168373ffffffffffffffffffffffffffffffffffffffff167fc3d58168c5ae7397731d063d5bbf3d657854427343f4c083240f7aacaa2d0f62888860405161145a929190612d37565b60405180910390a4611470828888888888611a12565b50505050505050565b61148161168f565b73ffffffffffffffffffffffffffffffffffffffff1661149f610dc7565b73ffffffffffffffffffffffffffffffffffffffff16146114f5576040517f08c379a00000000000000000000000000000000000000000000000000000000081526004016114ec90612c5c565b60405180910390fd5b600073ffffffffffffffffffffffffffffffffffffffff168173ffffffffffffffffffffffffffffffffffffffff161415611565576040517f08c379a000000000000000000000000000000000000000000000000000000000815260040161155c90612b9c565b60405180910390fd5b8073ffffffffffffffffffffffffffffffffffffffff16600460009054906101000a900473ffffffffffffffffffffffffffffffffffffffff1673ffffffffffffffffffffffffffffffffffffffff167f8be0079c531659141344cd1fd0a4f28419497f9722a3daafe3b4186f6b6457e060405160405180910390a380600460006101000a81548173ffffffffffffffffffffffffffffffffffffffff021916908373ffffffffffffffffffffffffffffffffffffffff16021790555050565b60007f01ffc9a7000000000000000000000000000000000000000000000000000000007bffffffffffffffffffffffffffffffffffffffffffffffffffffffff1916827bffffffffffffffffffffffffffffffffffffffffffffffffffffffff1916149050919050565b600033905090565b80600290805190602001906116ad929190611da2565b5050565b505050505050565b6116d88473ffffffffffffffffffffffffffffffffffffffff16611bf9565b15611898578373ffffffffffffffffffffffffffffffffffffffff1663bc197c8187878686866040518663ffffffff1660e01b815260040161171e9594939291906129b2565b602060405180830381600087803b15801561173857600080fd5b505af192505050801561176957506040513d601f19601f8201168201806040525081019061176691906124d2565b60015b61180f57611775613149565b806308c379a014156117d2575061178a6135de565b8061179557506117d4565b806040517f08c379a00000000000000000000000000000000000000000000000000000000081526004016117c99190612b1a565b60405180910390fd5b505b6040517f08c379a000000000000000000000000000000000000000000000000000000000815260040161180690612b3c565b60405180910390fd5b63bc197c8160e01b7bffffffffffffffffffffffffffffffffffffffffffffffffffffffff1916817bffffffffffffffffffffffffffffffffffffffffffffffffffffffff191614611896576040517f08c379a000000000000000000000000000000000000000000000000000000000815260040161188d90612b5c565b60405180910390fd5b505b505050505050565b6118ac84848484611c0c565b816003600085815260200190815260200160002060008282546118cf9190612ed0565b9250508190555050505050565b6118e583610bd6565b611924576040517f08c379a000000000000000000000000000000000000000000000000000000000815260040161191b90612c1c565b60405180910390fd5b8181600560008681526020019081526020016000209190611946929190611e28565b50505050565b60606000600167ffffffffffffffff811115611991577f4e487b7100000000000000000000000000000000000000000000000000000000600052604160045260246000fd5b6040519080825280602002602001820160405280156119bf5781602001602082028036833780820191505090505b50905082816000815181106119fd577f4e487b7100000000000000000000000000000000000000000000000000000000600052603260045260246000fd5b60200260200101818152505080915050919050565b611a318473ffffffffffffffffffffffffffffffffffffffff16611bf9565b15611bf1578373ffffffffffffffffffffffffffffffffffffffff1663f23a6e6187878686866040518663ffffffff1660e01b8152600401611a77959493929190612a1a565b602060405180830381600087803b158015611a9157600080fd5b505af1925050508015611ac257506040513d601f19601f82011682018060405250810190611abf91906124d2565b60015b611b6857611ace613149565b806308c379a01415611b2b5750611ae36135de565b80611aee5750611b2d565b806040517f08c379a0000000000000000000000000000000000000000000000000000000008152600401611b229190612b1a565b60405180910390fd5b505b6040517f08c379a0000000000000000000000000000000000000000000000000000000008152600401611b5f90612b3c565b60405180910390fd5b63f23a6e6160e01b7bffffffffffffffffffffffffffffffffffffffffffffffffffffffff1916817bffffffffffffffffffffffffffffffffffffffffffffffffffffffff191614611bef576040517f08c379a0000000000000000000000000000000000000000000000000000000008152600401611be690612b5c565b60405180910390fd5b505b505050505050565b600080823b905060008111915050919050565b600073ffffffffffffffffffffffffffffffffffffffff168473ffffffffffffffffffffffffffffffffffffffff161415611c7c576040517f08c379a0000000000000000000000000000000000000000000000000000000008152600401611c7390612cdc565b60405180910390fd5b6000611c8661168f565b9050611ca781600087611c988861194c565b611ca18861194c565b876116b1565b8260008086815260200190815260200160002060008773ffffffffffffffffffffffffffffffffffffffff1673ffffffffffffffffffffffffffffffffffffffff1681526020019081526020016000206000828254611d069190612ed0565b925050819055508473ffffffffffffffffffffffffffffffffffffffff16600073ffffffffffffffffffffffffffffffffffffffff168273ffffffffffffffffffffffffffffffffffffffff167fc3d58168c5ae7397731d063d5bbf3d657854427343f4c083240f7aacaa2d0f628787604051611d84929190612d37565b60405180910390a4611d9b81600087878787611a12565b5050505050565b828054611dae90613010565b90600052602060002090601f016020900481019282611dd05760008555611e17565b82601f10611de957805160ff1916838001178555611e17565b82800160010185558215611e17579182015b82811115611e16578251825591602001919060010190611dfb565b5b509050611e249190611eae565b5090565b828054611e3490613010565b90600052602060002090601f016020900481019282611e565760008555611e9d565b82601f10611e6f57803560ff1916838001178555611e9d565b82800160010185558215611e9d579182015b82811115611e9c578235825591602001919060010190611e81565b5b509050611eaa9190611eae565b5090565b5b80821115611ec7576000816000905550600101611eaf565b5090565b6000611ede611ed984612d85565b612d60565b90508083825260208201905082856020860282011115611efd57600080fd5b60005b85811015611f2d5781611f13888261201f565b845260208401935060208301925050600181019050611f00565b5050509392505050565b6000611f4a611f4584612db1565b612d60565b90508083825260208201905082856020860282011115611f6957600080fd5b60005b85811015611f995781611f7f8882612165565b845260208401935060208301925050600181019050611f6c565b5050509392505050565b6000611fb6611fb184612ddd565b612d60565b905082815260208101848484011115611fce57600080fd5b611fd9848285612fce565b509392505050565b6000611ff4611fef84612e0e565b612d60565b90508281526020810184848401111561200c57600080fd5b612017848285612fce565b509392505050565b60008135905061202e81613674565b92915050565b600082601f83011261204557600080fd5b8135612055848260208601611ecb565b91505092915050565b600082601f83011261206f57600080fd5b813561207f848260208601611f37565b91505092915050565b6000813590506120978161368b565b92915050565b6000813590506120ac816136a2565b92915050565b6000815190506120c1816136a2565b92915050565b600082601f8301126120d857600080fd5b81356120e8848260208601611fa3565b91505092915050565b60008083601f84011261210357600080fd5b8235905067ffffffffffffffff81111561211c57600080fd5b60208301915083600182028301111561213457600080fd5b9250929050565b600082601f83011261214c57600080fd5b813561215c848260208601611fe1565b91505092915050565b600081359050612174816136b9565b92915050565b60006020828403121561218c57600080fd5b600061219a8482850161201f565b91505092915050565b600080604083850312156121b657600080fd5b60006121c48582860161201f565b92505060206121d58582860161201f565b9150509250929050565b600080600080600060a086880312156121f757600080fd5b60006122058882890161201f565b95505060206122168882890161201f565b945050604086013567ffffffffffffffff81111561223357600080fd5b61223f8882890161205e565b935050606086013567ffffffffffffffff81111561225c57600080fd5b6122688882890161205e565b925050608086013567ffffffffffffffff81111561228557600080fd5b612291888289016120c7565b9150509295509295909350565b600080600080600060a086880312156122b657600080fd5b60006122c48882890161201f565b95505060206122d58882890161201f565b94505060406122e688828901612165565b93505060606122f788828901612165565b925050608086013567ffffffffffffffff81111561231457600080fd5b612320888289016120c7565b9150509295509295909350565b6000806040838503121561234057600080fd5b600061234e8582860161201f565b925050602061235f85828601612088565b9150509250929050565b60008060008060006080868803121561238157600080fd5b600061238f8882890161201f565b955050602086013567ffffffffffffffff8111156123ac57600080fd5b6123b8888289016120f1565b945094505060406123cb88828901612165565b925050606086013567ffffffffffffffff8111156123e857600080fd5b6123f4888289016120c7565b9150509295509295909350565b6000806040838503121561241457600080fd5b60006124228582860161201f565b925050602061243385828601612165565b9150509250929050565b6000806040838503121561245057600080fd5b600083013567ffffffffffffffff81111561246a57600080fd5b61247685828601612034565b925050602083013567ffffffffffffffff81111561249357600080fd5b61249f8582860161205e565b9150509250929050565b6000602082840312156124bb57600080fd5b60006124c98482850161209d565b91505092915050565b6000602082840312156124e457600080fd5b60006124f2848285016120b2565b91505092915050565b60006020828403121561250d57600080fd5b600082013567ffffffffffffffff81111561252757600080fd5b6125338482850161213b565b91505092915050565b60006020828403121561254e57600080fd5b600061255c84828501612165565b91505092915050565b60006125718383612955565b60208301905092915050565b61258681612f5a565b82525050565b600061259782612e64565b6125a18185612e92565b93506125ac83612e3f565b8060005b838110156125dd5781516125c48882612565565b97506125cf83612e85565b9250506001810190506125b0565b5085935050505092915050565b6125f381612f6c565b82525050565b600061260482612e6f565b61260e8185612ea3565b935061261e818560208601612fdd565b6126278161316b565b840191505092915050565b600061263e8385612eb4565b935061264b838584612fce565b6126548361316b565b840190509392505050565b600061266a82612e7a565b6126748185612eb4565b9350612684818560208601612fdd565b61268d8161316b565b840191505092915050565b60006126a382612e7a565b6126ad8185612ec5565b93506126bd818560208601612fdd565b80840191505092915050565b600081546126d681613010565b6126e08186612ec5565b945060018216600081146126fb576001811461270c5761273f565b60ff1983168652818601935061273f565b61271585612e4f565b60005b8381101561273757815481890152600182019150602081019050612718565b838801955050505b50505092915050565b6000612755603483612eb4565b915061276082613189565b604082019050919050565b6000612778602883612eb4565b9150612783826131d8565b604082019050919050565b600061279b602b83612eb4565b91506127a682613227565b604082019050919050565b60006127be602683612eb4565b91506127c982613276565b604082019050919050565b60006127e1602983612eb4565b91506127ec826132c5565b604082019050919050565b6000612804602583612eb4565b915061280f82613314565b604082019050919050565b6000612827603283612eb4565b915061283282613363565b604082019050919050565b600061284a602883612eb4565b9150612855826133b2565b604082019050919050565b600061286d602a83612eb4565b915061287882613401565b604082019050919050565b6000612890602083612eb4565b915061289b82613450565b602082019050919050565b60006128b3602983612eb4565b91506128be82613479565b604082019050919050565b60006128d6602983612eb4565b91506128e1826134c8565b604082019050919050565b60006128f9602883612eb4565b915061290482613517565b604082019050919050565b600061291c602183612eb4565b915061292782613566565b604082019050919050565b600061293f601d83612eb4565b915061294a826135b5565b602082019050919050565b61295e81612fc4565b82525050565b61296d81612fc4565b82525050565b600061297f8285612698565b915061298b82846126c9565b91508190509392505050565b60006020820190506129ac600083018461257d565b92915050565b600060a0820190506129c7600083018861257d565b6129d4602083018761257d565b81810360408301526129e6818661258c565b905081810360608301526129fa818561258c565b90508181036080830152612a0e81846125f9565b90509695505050505050565b600060a082019050612a2f600083018861257d565b612a3c602083018761257d565b612a496040830186612964565b612a566060830185612964565b8181036080830152612a6881846125f9565b90509695505050505050565b6000604082019050612a89600083018661257d565b8181036020830152612a9c818486612632565b9050949350505050565b60006020820190508181036000830152612ac0818461258c565b905092915050565b60006040820190508181036000830152612ae2818561258c565b90508181036020830152612af6818461258c565b90509392505050565b6000602082019050612b1460008301846125ea565b92915050565b60006020820190508181036000830152612b34818461265f565b905092915050565b60006020820190508181036000830152612b5581612748565b9050919050565b60006020820190508181036000830152612b758161276b565b9050919050565b60006020820190508181036000830152612b958161278e565b9050919050565b60006020820190508181036000830152612bb5816127b1565b9050919050565b60006020820190508181036000830152612bd5816127d4565b9050919050565b60006020820190508181036000830152612bf5816127f7565b9050919050565b60006020820190508181036000830152612c158161281a565b9050919050565b60006020820190508181036000830152612c358161283d565b9050919050565b60006020820190508181036000830152612c5581612860565b9050919050565b60006020820190508181036000830152612c7581612883565b9050919050565b60006020820190508181036000830152612c95816128a6565b9050919050565b60006020820190508181036000830152612cb5816128c9565b9050919050565b60006020820190508181036000830152612cd5816128ec565b9050919050565b60006020820190508181036000830152612cf58161290f565b9050919050565b60006020820190508181036000830152612d1581612932565b9050919050565b6000602082019050612d316000830184612964565b92915050565b6000604082019050612d4c6000830185612964565b612d596020830184612964565b9392505050565b6000612d6a612d7b565b9050612d768282613042565b919050565b6000604051905090565b600067ffffffffffffffff821115612da057612d9f61311a565b5b602082029050602081019050919050565b600067ffffffffffffffff821115612dcc57612dcb61311a565b5b602082029050602081019050919050565b600067ffffffffffffffff821115612df857612df761311a565b5b612e018261316b565b9050602081019050919050565b600067ffffffffffffffff821115612e2957612e2861311a565b5b612e328261316b565b9050602081019050919050565b6000819050602082019050919050565b60008190508160005260206000209050919050565b600081519050919050565b600081519050919050565b600081519050919050565b6000602082019050919050565b600082825260208201905092915050565b600082825260208201905092915050565b600082825260208201905092915050565b600081905092915050565b6000612edb82612fc4565b9150612ee683612fc4565b9250827fffffffffffffffffffffffffffffffffffffffffffffffffffffffffffffffff03821115612f1b57612f1a6130bc565b5b828201905092915050565b6000612f3182612fc4565b9150612f3c83612fc4565b925082821015612f4f57612f4e6130bc565b5b828203905092915050565b6000612f6582612fa4565b9050919050565b60008115159050919050565b60007fffffffff0000000000000000000000000000000000000000000000000000000082169050919050565b600073ffffffffffffffffffffffffffffffffffffffff82169050919050565b6000819050919050565b82818337600083830152505050565b60005b83811015612ffb578082015181840152602081019050612fe0565b8381111561300a576000848401525b50505050565b6000600282049050600182168061302857607f821691505b6020821081141561303c5761303b6130eb565b5b50919050565b61304b8261316b565b810181811067ffffffffffffffff8211171561306a5761306961311a565b5b80604052505050565b600061307e82612fc4565b91507fffffffffffffffffffffffffffffffffffffffffffffffffffffffffffffffff8214156130b1576130b06130bc565b5b600182019050919050565b7f4e487b7100000000000000000000000000000000000000000000000000000000600052601160045260246000fd5b7f4e487b7100000000000000000000000000000000000000000000000000000000600052602260045260246000fd5b7f4e487b7100000000000000000000000000000000000000000000000000000000600052604160045260246000fd5b600060033d11156131685760046000803e61316560005161317c565b90505b90565b6000601f19601f8301169050919050565b60008160e01c9050919050565b7f455243313135353a207472616e7366657220746f206e6f6e204552433131353560008201527f526563656976657220696d706c656d656e746572000000000000000000000000602082015250565b7f455243313135353a204552433131353552656365697665722072656a6563746560008201527f6420746f6b656e73000000000000000000000000000000000000000000000000602082015250565b7f455243313135353a2062616c616e636520717565727920666f7220746865207a60008201527f65726f2061646472657373000000000000000000000000000000000000000000602082015250565b7f4f776e61626c653a206e6577206f776e657220697320746865207a65726f206160008201527f6464726573730000000000000000000000000000000000000000000000000000602082015250565b7f455243313135353a2063616c6c6572206973206e6f74206f776e6572206e6f7260008201527f20617070726f7665640000000000000000000000000000000000000000000000602082015250565b7f455243313135353a207472616e7366657220746f20746865207a65726f20616460008201527f6472657373000000000000000000000000000000000000000000000000000000602082015250565b7f455243313135353a207472616e736665722063616c6c6572206973206e6f742060008201527f6f776e6572206e6f7220617070726f7665640000000000000000000000000000602082015250565b7f455243313135353a2055524920717565727920666f72206e6f6e65786973746560008201527f6e7420746f6b656e000000000000000000000000000000000000000000000000602082015250565b7f455243313135353a20696e73756666696369656e742062616c616e636520666f60008201527f72207472616e7366657200000000000000000000000000000000000000000000602082015250565b7f4f776e61626c653a2063616c6c6572206973206e6f7420746865206f776e6572600082015250565b7f455243313135353a2073657474696e6720617070726f76616c2073746174757360008201527f20666f722073656c660000000000000000000000000000000000000000000000602082015250565b7f455243313135353a206163636f756e747320616e6420696473206c656e67746860008201527f206d69736d617463680000000000000000000000000000000000000000000000602082015250565b7f455243313135353a2069647320616e6420616d6f756e7473206c656e6774682060008201527f6d69736d61746368000000000000000000000000000000000000000000000000602082015250565b7f455243313135353a206d696e7420746f20746865207a65726f2061646472657360008201527f7300000000000000000000000000000000000000000000000000000000000000602082015250565b7f455243313135353a20746f6b656e20616c7265616479206d696e746564000000600082015250565b600060443d10156135ee57613671565b6135f6612d7b565b60043d036004823e80513d602482011167ffffffffffffffff8211171561361e575050613671565b808201805167ffffffffffffffff81111561363c5750505050613671565b80602083010160043d038501811115613659575050505050613671565b61366882602001850186613042565b82955050505050505b90565b61367d81612f5a565b811461368857600080fd5b50565b61369481612f6c565b811461369f57600080fd5b50565b6136ab81612f78565b81146136b657600080fd5b50565b6136c281612fc4565b81146136cd57600080fd5b5056fea2646970667358221220572e24249da6e8bd43b802400ae49f29cd60de136f32ad6819701413f3bc044764736f6c63430008040033",
  "immutableReferences": {},
  "source": "// SPDX-License-Identifier: UNLICENSED\n\npragma solidity 0.8.4;\n\nimport \"../../lib/token/ERC1155/ERC1155.sol\";\nimport \"../../lib/token/ERC1155/extensions/ERC1155Supply.sol\";\nimport \"../../lib/access/Ownable.sol\";\n\ncontract TaureumERC1155 is ERC1155Supply, Ownable {\n    /**\n     * @dev Mapping from NFT ID to metadata uri.\n     */\n    mapping(uint256 => string) internal idToUri;\n\n    /**\n     * @dev Create a new TaureumERC1155 contract.\n     *\n     */\n    constructor(string memory uri_) ERC1155(uri_) Ownable() {\n    }\n\n    /**\n     * @dev Mint a new ERC1155 token.\n     */\n    function mint(\n        address to,\n        string calldata uri,\n        uint256 supply,\n        bytes memory data\n    ) external returns (uint256){\n        uint256 id = uint256(keccak256(abi.encode(to, uri)));\n        require(!exists(id), \"ERC1155: token already minted\");\n\n        _mint(to, id, supply, data);\n        _setTokenUri(id, uri);\n\n        return id;\n    }\n\n//    /**\n//     * @dev Mint a batch of tokens.\n//     */\n//    function mintBatch(\n//        address to,\n//        string[] memory uriList,\n//        uint256[] memory supplies,\n//        bytes memory data\n//    ) internal virtual override {\n//        require(uriList.length == supplies.length, \"ERC1155: mintBatch lengths mismatch\");\n//\n//        uint256[] ids = new uint256[](0);\n//        for (uint256 i = 0; i < uriList.length; ++i) {\n//            uint256 id = uint256(keccak256(abi.encode(to, uriList[i])));\n//            require(!exists(id), \"ERC1155: token already minted\");\n//            ids.push(id);\n//        }\n//    }\n\n    /**\n     * @dev Sets a new URI for all token types, by relying on the token type ID\n     * substitution mechanism\n     * https://eips.ethereum.org/EIPS/eip-1155#metadata[defined in the EIP].\n     *\n     * By this mechanism, any occurrence of the `\\{id\\}` substring in either the\n     * URI or any of the amounts in the JSON file at said URI will be replaced by\n     * clients with the token type ID.\n     *\n     * For example, the `https://token-cdn-domain/\\{id\\}.json` URI would be\n     * interpreted by clients as\n     * `https://token-cdn-domain/000000000000000000000000000000000000000000000000000000000004cce0.json`\n     * for token type ID 0x4cce0.\n     *\n     * See {uri}.\n     *\n     * Because these URIs cannot be meaningfully represented by the {URI} event,\n     * this function emits no events.\n     */\n    function setURI(string memory newURI) external onlyOwner {\n        _setURI(newURI);\n    }\n\n    /**\n     * @dev Return the URI of a tokenId.\n     */\n    function tokenURI(uint256 tokenId) public view virtual returns (string memory) {\n        require(exists(tokenId), \"ERC1155: URI query for nonexistent token\");\n\n        string memory baseURI = uri(tokenId);\n\n        return bytes(baseURI).length > 0 ? string(abi.encodePacked(baseURI, idToUri[tokenId])) : idToUri[tokenId];\n    }\n\n    /**\n     * @dev Set a distinct URI (RFC 3986) for a given NFT ID.\n     * @notice This is an internal function which should be called from user-implemented external\n     * function.\n     * @notice It throws an exception if the _tokenId does not exist.\n     * @param tokenId_ Id for which we want URI.\n     * @param uri_ String representing RFC 3986 URI.\n     */\n    function _setTokenUri(\n        uint256 tokenId_,\n        string calldata uri_\n    )\n    internal\n    {\n        require(exists(tokenId_), \"ERC1155: URI query for nonexistent token\");\n        idToUri[tokenId_] = uri_;\n    }\n\n}\n",
  "sourcePath": "/home/toor/nodejs/truffle/nft_demo/taudefi/taudefi-nft/contracts/tokens/ERC1155/TaureumERC1155.sol",
  "compiler": {
    "name": "solc",
    "version": "0.8.4+commit.c7e474f2.Emscripten.clang"
  },
  "schemaVersion": "3.4.1",
  "updatedAt": "2021-07-30T01:47:45.562Z",
  "devdoc": {
    "kind": "dev",
    "methods": {
      "balanceOf(address,uint256)": {
        "details": "See {IERC1155-balanceOf}. Requirements: - `account` cannot be the zero address."
      },
      "balanceOfBatch(address[],uint256[])": {
        "details": "See {IERC1155-balanceOfBatch}. Requirements: - `accounts` and `ids` must have the same length."
      },
      "constructor": {
        "details": "Create a new TaureumERC1155 contract."
      },
      "exists(uint256)": {
        "details": "Indicates weither any token exist with a given id, or not."
      },
      "isApprovedForAll(address,address)": {
        "details": "See {IERC1155-isApprovedForAll}."
      },
      "mint(address,string,uint256,bytes)": {
        "details": "Mint a new ERC1155 token."
      },
      "owner()": {
        "details": "Returns the address of the current owner."
      },
      "renounceOwnership()": {
        "details": "Leaves the contract without owner. It will not be possible to call `onlyOwner` functions anymore. Can only be called by the current owner. NOTE: Renouncing ownership will leave the contract without an owner, thereby removing any functionality that is only available to the owner."
      },
      "safeBatchTransferFrom(address,address,uint256[],uint256[],bytes)": {
        "details": "See {IERC1155-safeBatchTransferFrom}."
      },
      "safeTransferFrom(address,address,uint256,uint256,bytes)": {
        "details": "See {IERC1155-safeTransferFrom}."
      },
      "setApprovalForAll(address,bool)": {
        "details": "See {IERC1155-setApprovalForAll}."
      },
      "setURI(string)": {
        "details": "Sets a new URI for all token types, by relying on the token type ID substitution mechanism https://eips.ethereum.org/EIPS/eip-1155#metadata[defined in the EIP]. By this mechanism, any occurrence of the `\\{id\\}` substring in either the URI or any of the amounts in the JSON file at said URI will be replaced by clients with the token type ID. For example, the `https://token-cdn-domain/\\{id\\}.json` URI would be interpreted by clients as `https://token-cdn-domain/000000000000000000000000000000000000000000000000000000000004cce0.json` for token type ID 0x4cce0. See {uri}. Because these URIs cannot be meaningfully represented by the {URI} event, this function emits no events."
      },
      "supportsInterface(bytes4)": {
        "details": "See {IERC165-supportsInterface}."
      },
      "tokenURI(uint256)": {
        "details": "Return the URI of a tokenId."
      },
      "totalSupply(uint256)": {
        "details": "Total amount of tokens in with a given id."
      },
      "transferOwnership(address)": {
        "details": "Transfers ownership of the contract to a new account (`newOwner`). Can only be called by the current owner."
      },
      "uri(uint256)": {
        "details": "See {IERC1155MetadataURI-uri}. This implementation returns the same URI for *all* token types. It relies on the token type ID substitution mechanism https://eips.ethereum.org/EIPS/eip-1155#metadata[defined in the EIP]. Clients calling this function must replace the `\\{id\\}` substring with the actual token type ID."
      }
    },
    "stateVariables": {
      "idToUri": {
        "details": "Mapping from NFT ID to metadata uri."
      }
    },
    "version": 1
  },
  "userdoc": {
    "kind": "user",
    "methods": {},
    "version": 1
  }
}