{
  "contractName": "TaureumERC721Enumerable",
  "abi": [
    {
      "inputs": [],
      "stateMutability": "nonpayable",
      "type": "constructor"
    },
    {
      "anonymous": false,
      "inputs": [
        {
          "indexed": true,
          "internalType": "address",
          "name": "owner",
          "type": "address"
        },
        {
          "indexed": true,
          "internalType": "address",
          "name": "approved",
          "type": "address"
        },
        {
          "indexed": true,
          "internalType": "uint256",
          "name": "tokenId",
          "type": "uint256"
        }
      ],
      "name": "Approval",
      "type": "event"
    },
    {
      "anonymous": false,
      "inputs": [
        {
          "indexed": true,
          "internalType": "address",
          "name": "owner",
          "type": "address"
        },
        {
          "indexed": true,
          "internalType": "address",
          "name": "operator",
          "type": "address"
        },
        {
          "indexed": false,
          "internalType": "bool",
          "name": "approved",
          "type": "bool"
        }
      ],
      "name": "ApprovalForAll",
      "type": "event"
    },
    {
      "anonymous": false,
      "inputs": [
        {
          "indexed": true,
          "internalType": "address",
          "name": "previousOwner",
          "type": "address"
        },
        {
          "indexed": true,
          "internalType": "address",
          "name": "newOwner",
          "type": "address"
        }
      ],
      "name": "OwnershipTransferred",
      "type": "event"
    },
    {
      "anonymous": false,
      "inputs": [
        {
          "indexed": true,
          "internalType": "address",
          "name": "from",
          "type": "address"
        },
        {
          "indexed": true,
          "internalType": "address",
          "name": "to",
          "type": "address"
        },
        {
          "indexed": true,
          "internalType": "uint256",
          "name": "tokenId",
          "type": "uint256"
        }
      ],
      "name": "Transfer",
      "type": "event"
    },
    {
      "inputs": [
        {
          "internalType": "address",
          "name": "to",
          "type": "address"
        },
        {
          "internalType": "uint256",
          "name": "tokenId",
          "type": "uint256"
        }
      ],
      "name": "approve",
      "outputs": [],
      "stateMutability": "nonpayable",
      "type": "function"
    },
    {
      "inputs": [
        {
          "internalType": "address",
          "name": "owner",
          "type": "address"
        }
      ],
      "name": "balanceOf",
      "outputs": [
        {
          "internalType": "uint256",
          "name": "",
          "type": "uint256"
        }
      ],
      "stateMutability": "view",
      "type": "function"
    },
    {
      "inputs": [
        {
          "internalType": "uint256",
          "name": "tokenId",
          "type": "uint256"
        }
      ],
      "name": "getApproved",
      "outputs": [
        {
          "internalType": "address",
          "name": "",
          "type": "address"
        }
      ],
      "stateMutability": "view",
      "type": "function"
    },
    {
      "inputs": [
        {
          "internalType": "address",
          "name": "owner",
          "type": "address"
        },
        {
          "internalType": "address",
          "name": "operator",
          "type": "address"
        }
      ],
      "name": "isApprovedForAll",
      "outputs": [
        {
          "internalType": "bool",
          "name": "",
          "type": "bool"
        }
      ],
      "stateMutability": "view",
      "type": "function"
    },
    {
      "inputs": [
        {
          "internalType": "address",
          "name": "to",
          "type": "address"
        },
        {
          "internalType": "string",
          "name": "uri",
          "type": "string"
        }
      ],
      "name": "mint",
      "outputs": [
        {
          "internalType": "uint256",
          "name": "",
          "type": "uint256"
        }
      ],
      "stateMutability": "nonpayable",
      "type": "function"
    },
    {
      "inputs": [],
      "name": "name",
      "outputs": [
        {
          "internalType": "string",
          "name": "",
          "type": "string"
        }
      ],
      "stateMutability": "view",
      "type": "function"
    },
    {
      "inputs": [],
      "name": "owner",
      "outputs": [
        {
          "internalType": "address",
          "name": "",
          "type": "address"
        }
      ],
      "stateMutability": "view",
      "type": "function"
    },
    {
      "inputs": [
        {
          "internalType": "uint256",
          "name": "tokenId",
          "type": "uint256"
        }
      ],
      "name": "ownerOf",
      "outputs": [
        {
          "internalType": "address",
          "name": "",
          "type": "address"
        }
      ],
      "stateMutability": "view",
      "type": "function"
    },
    {
      "inputs": [],
      "name": "renounceOwnership",
      "outputs": [],
      "stateMutability": "nonpayable",
      "type": "function"
    },
    {
      "inputs": [
        {
          "internalType": "address",
          "name": "to",
          "type": "address"
        },
        {
          "internalType": "string",
          "name": "uri",
          "type": "string"
        }
      ],
      "name": "safeMint",
      "outputs": [
        {
          "internalType": "uint256",
          "name": "",
          "type": "uint256"
        }
      ],
      "stateMutability": "nonpayable",
      "type": "function"
    },
    {
      "inputs": [
        {
          "internalType": "address",
          "name": "from",
          "type": "address"
        },
        {
          "internalType": "address",
          "name": "to",
          "type": "address"
        },
        {
          "internalType": "uint256",
          "name": "tokenId",
          "type": "uint256"
        }
      ],
      "name": "safeTransferFrom",
      "outputs": [],
      "stateMutability": "nonpayable",
      "type": "function"
    },
    {
      "inputs": [
        {
          "internalType": "address",
          "name": "from",
          "type": "address"
        },
        {
          "internalType": "address",
          "name": "to",
          "type": "address"
        },
        {
          "internalType": "uint256",
          "name": "tokenId",
          "type": "uint256"
        },
        {
          "internalType": "bytes",
          "name": "_data",
          "type": "bytes"
        }
      ],
      "name": "safeTransferFrom",
      "outputs": [],
      "stateMutability": "nonpayable",
      "type": "function"
    },
    {
      "inputs": [
        {
          "internalType": "address",
          "name": "operator",
          "type": "address"
        },
        {
          "internalType": "bool",
          "name": "approved",
          "type": "bool"
        }
      ],
      "name": "setApprovalForAll",
      "outputs": [],
      "stateMutability": "nonpayable",
      "type": "function"
    },
    {
      "inputs": [
        {
          "internalType": "string",
          "name": "newBaseURI",
          "type": "string"
        }
      ],
      "name": "setBaseURI",
      "outputs": [],
      "stateMutability": "nonpayable",
      "type": "function"
    },
    {
      "inputs": [],
      "name": "symbol",
      "outputs": [
        {
          "internalType": "string",
          "name": "",
          "type": "string"
        }
      ],
      "stateMutability": "view",
      "type": "function"
    },
    {
      "inputs": [
        {
          "internalType": "uint256",
          "name": "index",
          "type": "uint256"
        }
      ],
      "name": "tokenByIndex",
      "outputs": [
        {
          "internalType": "uint256",
          "name": "",
          "type": "uint256"
        }
      ],
      "stateMutability": "view",
      "type": "function"
    },
    {
      "inputs": [
        {
          "internalType": "address",
          "name": "owner",
          "type": "address"
        },
        {
          "internalType": "uint256",
          "name": "index",
          "type": "uint256"
        }
      ],
      "name": "tokenOfOwnerByIndex",
      "outputs": [
        {
          "internalType": "uint256",
          "name": "",
          "type": "uint256"
        }
      ],
      "stateMutability": "view",
      "type": "function"
    },
    {
      "inputs": [],
      "name": "totalSupply",
      "outputs": [
        {
          "internalType": "uint256",
          "name": "",
          "type": "uint256"
        }
      ],
      "stateMutability": "view",
      "type": "function"
    },
    {
      "inputs": [
        {
          "internalType": "address",
          "name": "from",
          "type": "address"
        },
        {
          "internalType": "address",
          "name": "to",
          "type": "address"
        },
        {
          "internalType": "uint256",
          "name": "tokenId",
          "type": "uint256"
        }
      ],
      "name": "transferFrom",
      "outputs": [],
      "stateMutability": "nonpayable",
      "type": "function"
    },
    {
      "inputs": [
        {
          "internalType": "address",
          "name": "newOwner",
          "type": "address"
        }
      ],
      "name": "transferOwnership",
      "outputs": [],
      "stateMutability": "nonpayable",
      "type": "function"
    },
    {
      "inputs": [
        {
          "internalType": "bytes4",
          "name": "interfaceId",
          "type": "bytes4"
        }
      ],
      "name": "supportsInterface",
      "outputs": [
        {
          "internalType": "bool",
          "name": "",
          "type": "bool"
        }
      ],
      "stateMutability": "view",
      "type": "function"
    },
    {
      "inputs": [
        {
          "internalType": "uint256",
          "name": "tokenId",
          "type": "uint256"
        }
      ],
      "name": "tokenURI",
      "outputs": [
        {
          "internalType": "string",
          "name": "",
          "type": "string"
        }
      ],
      "stateMutability": "view",
      "type": "function"
    }
  ],
  "bytecode": "0x60806040523480156200001157600080fd5b506040518060400160405280600e81526020017f5461757265756d204552433732310000000000000000000000000000000000008152506040518060400160405280600781526020017f5461757265756d0000000000000000000000000000000000000000000000000081525081600090805190602001906200009692919062000199565b508060019080519060200190620000af92919062000199565b5050506000620000c46200019160201b60201c565b905080600660006101000a81548173ffffffffffffffffffffffffffffffffffffffff021916908373ffffffffffffffffffffffffffffffffffffffff1602179055508073ffffffffffffffffffffffffffffffffffffffff16600073ffffffffffffffffffffffffffffffffffffffff167f8be0079c531659141344cd1fd0a4f28419497f9722a3daafe3b4186f6b6457e060405160405180910390a35060405180602001604052806000815250600890805190602001906200018a92919062000199565b50620002ae565b600033905090565b828054620001a79062000249565b90600052602060002090601f016020900481019282620001cb576000855562000217565b82601f10620001e657805160ff191683800117855562000217565b8280016001018555821562000217579182015b8281111562000216578251825591602001919060010190620001f9565b5b5090506200022691906200022a565b5090565b5b80821115620002455760008160009055506001016200022b565b5090565b600060028204905060018216806200026257607f821691505b602082108114156200027957620002786200027f565b5b50919050565b7f4e487b7100000000000000000000000000000000000000000000000000000000600052602260045260246000fd5b61394680620002be6000396000f3fe608060405234801561001057600080fd5b50600436106101425760003560e01c806370a08231116100b8578063b88d4fde1161007c578063b88d4fde14610375578063c87b56dd14610391578063d0def521146103c1578063d204c45e146103f1578063e985e9c514610421578063f2fde38b1461045157610142565b806370a08231146102e3578063715018a6146103135780638da5cb5b1461031d57806395d89b411461033b578063a22cb4651461035957610142565b806323b872dd1161010a57806323b872dd146101ff5780632f745c591461021b57806342842e0e1461024b5780634f6ccce71461026757806355f804b3146102975780636352211e146102b357610142565b806301ffc9a71461014757806306fdde0314610177578063081812fc14610195578063095ea7b3146101c557806318160ddd146101e1575b600080fd5b610161600480360381019061015c919061282f565b61046d565b60405161016e9190612dbd565b60405180910390f35b61017f61054f565b60405161018c9190612dd8565b60405180910390f35b6101af60048036038101906101aa91906128c2565b6105e1565b6040516101bc9190612d24565b60405180910390f35b6101df60048036038101906101da91906127f3565b610666565b005b6101e961077e565b6040516101f6919061305a565b60405180910390f35b61021960048036038101906102149190612695565b61078b565b005b610235600480360381019061023091906127f3565b6107eb565b604051610242919061305a565b60405180910390f35b61026560048036038101906102609190612695565b610890565b005b610281600480360381019061027c91906128c2565b6108b0565b60405161028e919061305a565b60405180910390f35b6102b160048036038101906102ac9190612881565b610947565b005b6102cd60048036038101906102c891906128c2565b6109dd565b6040516102da9190612d24565b60405180910390f35b6102fd60048036038101906102f89190612630565b610a8f565b60405161030a919061305a565b60405180910390f35b61031b610b47565b005b610325610c84565b6040516103329190612d24565b60405180910390f35b610343610cae565b6040516103509190612dd8565b60405180910390f35b610373600480360381019061036e919061275f565b610d40565b005b61038f600480360381019061038a91906126e4565b610ec1565b005b6103ab60048036038101906103a691906128c2565b610f23565b6040516103b89190612dd8565b60405180910390f35b6103db60048036038101906103d6919061279b565b610f35565b6040516103e8919061305a565b60405180910390f35b61040b6004803603810190610406919061279b565b610f88565b604051610418919061305a565b60405180910390f35b61043b60048036038101906104369190612659565b610fdb565b6040516104489190612dbd565b60405180910390f35b61046b60048036038101906104669190612630565b61106f565b005b60007f80ac58cd000000000000000000000000000000000000000000000000000000007bffffffffffffffffffffffffffffffffffffffffffffffffffffffff1916827bffffffffffffffffffffffffffffffffffffffffffffffffffffffff1916148061053857507f5b5e139f000000000000000000000000000000000000000000000000000000007bffffffffffffffffffffffffffffffffffffffffffffffffffffffff1916827bffffffffffffffffffffffffffffffffffffffffffffffffffffffff1916145b8061054857506105478261121b565b5b9050919050565b60606000805461055e90613294565b80601f016020809104026020016040519081016040528092919081815260200182805461058a90613294565b80156105d75780601f106105ac576101008083540402835291602001916105d7565b820191906000526020600020905b8154815290600101906020018083116105ba57829003601f168201915b5050505050905090565b60006105ec82611295565b61062b576040517f08c379a000000000000000000000000000000000000000000000000000000000815260040161062290612f5a565b60405180910390fd5b6004600083815260200190815260200160002060009054906101000a900473ffffffffffffffffffffffffffffffffffffffff169050919050565b6000610671826109dd565b90508073ffffffffffffffffffffffffffffffffffffffff168373ffffffffffffffffffffffffffffffffffffffff1614156106e2576040517f08c379a00000000000000000000000000000000000000000000000000000000081526004016106d990612fda565b60405180910390fd5b8073ffffffffffffffffffffffffffffffffffffffff16610701611301565b73ffffffffffffffffffffffffffffffffffffffff161480610730575061072f8161072a611301565b610fdb565b5b61076f576040517f08c379a000000000000000000000000000000000000000000000000000000000815260040161076690612eda565b60405180910390fd5b6107798383611309565b505050565b6000600b80549050905090565b61079c610796611301565b826113c2565b6107db576040517f08c379a00000000000000000000000000000000000000000000000000000000081526004016107d290612ffa565b60405180910390fd5b6107e68383836114a0565b505050565b60006107f683610a8f565b8210610837576040517f08c379a000000000000000000000000000000000000000000000000000000000815260040161082e90612dfa565b60405180910390fd5b600960008473ffffffffffffffffffffffffffffffffffffffff1673ffffffffffffffffffffffffffffffffffffffff168152602001908152602001600020600083815260200190815260200160002054905092915050565b6108ab83838360405180602001604052806000815250610ec1565b505050565b60006108ba61077e565b82106108fb576040517f08c379a00000000000000000000000000000000000000000000000000000000081526004016108f29061301a565b60405180910390fd5b600b8281548110610935577f4e487b7100000000000000000000000000000000000000000000000000000000600052603260045260246000fd5b90600052602060002001549050919050565b61094f611301565b73ffffffffffffffffffffffffffffffffffffffff1661096d610c84565b73ffffffffffffffffffffffffffffffffffffffff16146109c3576040517f08c379a00000000000000000000000000000000000000000000000000000000081526004016109ba90612f7a565b60405180910390fd5b80600890805190602001906109d9929190612384565b5050565b6000806002600084815260200190815260200160002060009054906101000a900473ffffffffffffffffffffffffffffffffffffffff169050600073ffffffffffffffffffffffffffffffffffffffff168173ffffffffffffffffffffffffffffffffffffffff161415610a86576040517f08c379a0000000000000000000000000000000000000000000000000000000008152600401610a7d90612f1a565b60405180910390fd5b80915050919050565b60008073ffffffffffffffffffffffffffffffffffffffff168273ffffffffffffffffffffffffffffffffffffffff161415610b00576040517f08c379a0000000000000000000000000000000000000000000000000000000008152600401610af790612efa565b60405180910390fd5b600360008373ffffffffffffffffffffffffffffffffffffffff1673ffffffffffffffffffffffffffffffffffffffff168152602001908152602001600020549050919050565b610b4f611301565b73ffffffffffffffffffffffffffffffffffffffff16610b6d610c84565b73ffffffffffffffffffffffffffffffffffffffff1614610bc3576040517f08c379a0000000000000000000000000000000000000000000000000000000008152600401610bba90612f7a565b60405180910390fd5b600073ffffffffffffffffffffffffffffffffffffffff16600660009054906101000a900473ffffffffffffffffffffffffffffffffffffffff1673ffffffffffffffffffffffffffffffffffffffff167f8be0079c531659141344cd1fd0a4f28419497f9722a3daafe3b4186f6b6457e060405160405180910390a36000600660006101000a81548173ffffffffffffffffffffffffffffffffffffffff021916908373ffffffffffffffffffffffffffffffffffffffff160217905550565b6000600660009054906101000a900473ffffffffffffffffffffffffffffffffffffffff16905090565b606060018054610cbd90613294565b80601f0160208091040260200160405190810160405280929190818152602001828054610ce990613294565b8015610d365780601f10610d0b57610100808354040283529160200191610d36565b820191906000526020600020905b815481529060010190602001808311610d1957829003601f168201915b5050505050905090565b610d48611301565b73ffffffffffffffffffffffffffffffffffffffff168273ffffffffffffffffffffffffffffffffffffffff161415610db6576040517f08c379a0000000000000000000000000000000000000000000000000000000008152600401610dad90612e9a565b60405180910390fd5b8060056000610dc3611301565b73ffffffffffffffffffffffffffffffffffffffff1673ffffffffffffffffffffffffffffffffffffffff16815260200190815260200160002060008473ffffffffffffffffffffffffffffffffffffffff1673ffffffffffffffffffffffffffffffffffffffff16815260200190815260200160002060006101000a81548160ff0219169083151502179055508173ffffffffffffffffffffffffffffffffffffffff16610e70611301565b73ffffffffffffffffffffffffffffffffffffffff167f17307eab39ab6107e8899845ad3d59bd9653f200f220920489ca2b5937696c3183604051610eb59190612dbd565b60405180910390a35050565b610ed2610ecc611301565b836113c2565b610f11576040517f08c379a0000000000000000000000000000000000000000000000000000000008152600401610f0890612ffa565b60405180910390fd5b610f1d848484846116fc565b50505050565b6060610f2e82611758565b9050919050565b600080848484604051602001610f4d93929190612d8b565b6040516020818303038152906040528051906020012060001c9050610f728582611895565b610f7d818585611a63565b809150509392505050565b600080848484604051602001610fa093929190612d8b565b6040516020818303038152906040528051906020012060001c9050610fc58582611ad3565b610fd0818585611a63565b809150509392505050565b6000600560008473ffffffffffffffffffffffffffffffffffffffff1673ffffffffffffffffffffffffffffffffffffffff16815260200190815260200160002060008373ffffffffffffffffffffffffffffffffffffffff1673ffffffffffffffffffffffffffffffffffffffff16815260200190815260200160002060009054906101000a900460ff16905092915050565b611077611301565b73ffffffffffffffffffffffffffffffffffffffff16611095610c84565b73ffffffffffffffffffffffffffffffffffffffff16146110eb576040517f08c379a00000000000000000000000000000000000000000000000000000000081526004016110e290612f7a565b60405180910390fd5b600073ffffffffffffffffffffffffffffffffffffffff168173ffffffffffffffffffffffffffffffffffffffff16141561115b576040517f08c379a000000000000000000000000000000000000000000000000000000000815260040161115290612e3a565b60405180910390fd5b8073ffffffffffffffffffffffffffffffffffffffff16600660009054906101000a900473ffffffffffffffffffffffffffffffffffffffff1673ffffffffffffffffffffffffffffffffffffffff167f8be0079c531659141344cd1fd0a4f28419497f9722a3daafe3b4186f6b6457e060405160405180910390a380600660006101000a81548173ffffffffffffffffffffffffffffffffffffffff021916908373ffffffffffffffffffffffffffffffffffffffff16021790555050565b60007f780e9d63000000000000000000000000000000000000000000000000000000007bffffffffffffffffffffffffffffffffffffffffffffffffffffffff1916827bffffffffffffffffffffffffffffffffffffffffffffffffffffffff1916148061128e575061128d82611af1565b5b9050919050565b60008073ffffffffffffffffffffffffffffffffffffffff166002600084815260200190815260200160002060009054906101000a900473ffffffffffffffffffffffffffffffffffffffff1673ffffffffffffffffffffffffffffffffffffffff1614159050919050565b600033905090565b816004600083815260200190815260200160002060006101000a81548173ffffffffffffffffffffffffffffffffffffffff021916908373ffffffffffffffffffffffffffffffffffffffff160217905550808273ffffffffffffffffffffffffffffffffffffffff1661137c836109dd565b73ffffffffffffffffffffffffffffffffffffffff167f8c5be1e5ebec7d5bd14f71427d1e84f3dd0314c0f7b2291e5b200ac8c7c3b92560405160405180910390a45050565b60006113cd82611295565b61140c576040517f08c379a000000000000000000000000000000000000000000000000000000000815260040161140390612eba565b60405180910390fd5b6000611417836109dd565b90508073ffffffffffffffffffffffffffffffffffffffff168473ffffffffffffffffffffffffffffffffffffffff16148061148657508373ffffffffffffffffffffffffffffffffffffffff1661146e846105e1565b73ffffffffffffffffffffffffffffffffffffffff16145b8061149757506114968185610fdb565b5b91505092915050565b8273ffffffffffffffffffffffffffffffffffffffff166114c0826109dd565b73ffffffffffffffffffffffffffffffffffffffff1614611516576040517f08c379a000000000000000000000000000000000000000000000000000000000815260040161150d90612f9a565b60405180910390fd5b600073ffffffffffffffffffffffffffffffffffffffff168273ffffffffffffffffffffffffffffffffffffffff161415611586576040517f08c379a000000000000000000000000000000000000000000000000000000000815260040161157d90612e7a565b60405180910390fd5b611591838383611bd3565b61159c600082611309565b6001600360008573ffffffffffffffffffffffffffffffffffffffff1673ffffffffffffffffffffffffffffffffffffffff16815260200190815260200160002060008282546115ec91906131aa565b925050819055506001600360008473ffffffffffffffffffffffffffffffffffffffff1673ffffffffffffffffffffffffffffffffffffffff16815260200190815260200160002060008282546116439190613154565b92505081905550816002600083815260200190815260200160002060006101000a81548173ffffffffffffffffffffffffffffffffffffffff021916908373ffffffffffffffffffffffffffffffffffffffff160217905550808273ffffffffffffffffffffffffffffffffffffffff168473ffffffffffffffffffffffffffffffffffffffff167fddf252ad1be2c89b69c2b068fc378daa952ba7f163c4a11628f55a4df523b3ef60405160405180910390a4505050565b6117078484846114a0565b61171384848484611be3565b611752576040517f08c379a000000000000000000000000000000000000000000000000000000000815260040161174990612e1a565b60405180910390fd5b50505050565b606061176382611295565b6117a2576040517f08c379a000000000000000000000000000000000000000000000000000000000815260040161179990612fba565b60405180910390fd5b60006117ac611d7a565b90506000815111611858576007600084815260200190815260200160002080546117d590613294565b80601f016020809104026020016040519081016040528092919081815260200182805461180190613294565b801561184e5780601f106118235761010080835404028352916020019161184e565b820191906000526020600020905b81548152906001019060200180831161183157829003601f168201915b505050505061188d565b806007600085815260200190815260200160002060405160200161187d929190612d00565b6040516020818303038152906040525b915050919050565b600073ffffffffffffffffffffffffffffffffffffffff168273ffffffffffffffffffffffffffffffffffffffff161415611905576040517f08c379a00000000000000000000000000000000000000000000000000000000081526004016118fc90612f3a565b60405180910390fd5b61190e81611295565b1561194e576040517f08c379a000000000000000000000000000000000000000000000000000000000815260040161194590612e5a565b60405180910390fd5b61195a60008383611bd3565b6001600360008473ffffffffffffffffffffffffffffffffffffffff1673ffffffffffffffffffffffffffffffffffffffff16815260200190815260200160002060008282546119aa9190613154565b92505081905550816002600083815260200190815260200160002060006101000a81548173ffffffffffffffffffffffffffffffffffffffff021916908373ffffffffffffffffffffffffffffffffffffffff160217905550808273ffffffffffffffffffffffffffffffffffffffff16600073ffffffffffffffffffffffffffffffffffffffff167fddf252ad1be2c89b69c2b068fc378daa952ba7f163c4a11628f55a4df523b3ef60405160405180910390a45050565b611a6c83611295565b611aab576040517f08c379a0000000000000000000000000000000000000000000000000000000008152600401611aa29061303a565b60405180910390fd5b8181600760008681526020019081526020016000209190611acd92919061240a565b50505050565b611aed828260405180602001604052806000815250611d89565b5050565b60007f80ac58cd000000000000000000000000000000000000000000000000000000007bffffffffffffffffffffffffffffffffffffffffffffffffffffffff1916827bffffffffffffffffffffffffffffffffffffffffffffffffffffffff19161480611bbc57507f5b5e139f000000000000000000000000000000000000000000000000000000007bffffffffffffffffffffffffffffffffffffffffffffffffffffffff1916827bffffffffffffffffffffffffffffffffffffffffffffffffffffffff1916145b80611bcc5750611bcb82611de4565b5b9050919050565b611bde838383611e4e565b505050565b6000611c048473ffffffffffffffffffffffffffffffffffffffff16611f62565b15611d6d578373ffffffffffffffffffffffffffffffffffffffff1663150b7a02611c2d611301565b8786866040518563ffffffff1660e01b8152600401611c4f9493929190612d3f565b602060405180830381600087803b158015611c6957600080fd5b505af1925050508015611c9a57506040513d601f19601f82011682018060405250810190611c979190612858565b60015b611d1d573d8060008114611cca576040519150601f19603f3d011682016040523d82523d6000602084013e611ccf565b606091505b50600081511415611d15576040517f08c379a0000000000000000000000000000000000000000000000000000000008152600401611d0c90612e1a565b60405180910390fd5b805181602001fd5b63150b7a0260e01b7bffffffffffffffffffffffffffffffffffffffffffffffffffffffff1916817bffffffffffffffffffffffffffffffffffffffffffffffffffffffff191614915050611d72565b600190505b949350505050565b6060611d84611f75565b905090565b611d938383611895565b611da06000848484611be3565b611ddf576040517f08c379a0000000000000000000000000000000000000000000000000000000008152600401611dd690612e1a565b60405180910390fd5b505050565b60007f01ffc9a7000000000000000000000000000000000000000000000000000000007bffffffffffffffffffffffffffffffffffffffffffffffffffffffff1916827bffffffffffffffffffffffffffffffffffffffffffffffffffffffff1916149050919050565b611e59838383612007565b600073ffffffffffffffffffffffffffffffffffffffff168373ffffffffffffffffffffffffffffffffffffffff161415611e9c57611e978161200c565b611edb565b8173ffffffffffffffffffffffffffffffffffffffff168373ffffffffffffffffffffffffffffffffffffffff1614611eda57611ed98382612055565b5b5b600073ffffffffffffffffffffffffffffffffffffffff168273ffffffffffffffffffffffffffffffffffffffff161415611f1e57611f19816121c2565b611f5d565b8273ffffffffffffffffffffffffffffffffffffffff168273ffffffffffffffffffffffffffffffffffffffff1614611f5c57611f5b8282612305565b5b5b505050565b600080823b905060008111915050919050565b606060088054611f8490613294565b80601f0160208091040260200160405190810160405280929190818152602001828054611fb090613294565b8015611ffd5780601f10611fd257610100808354040283529160200191611ffd565b820191906000526020600020905b815481529060010190602001808311611fe057829003601f168201915b5050505050905090565b505050565b600b80549050600c600083815260200190815260200160002081905550600b81908060018154018082558091505060019003906000526020600020016000909190919091505550565b6000600161206284610a8f565b61206c91906131aa565b90506000600a6000848152602001908152602001600020549050818114612151576000600960008673ffffffffffffffffffffffffffffffffffffffff1673ffffffffffffffffffffffffffffffffffffffff168152602001908152602001600020600084815260200190815260200160002054905080600960008773ffffffffffffffffffffffffffffffffffffffff1673ffffffffffffffffffffffffffffffffffffffff16815260200190815260200160002060008481526020019081526020016000208190555081600a600083815260200190815260200160002081905550505b600a600084815260200190815260200160002060009055600960008573ffffffffffffffffffffffffffffffffffffffff1673ffffffffffffffffffffffffffffffffffffffff16815260200190815260200160002060008381526020019081526020016000206000905550505050565b60006001600b805490506121d691906131aa565b90506000600c60008481526020019081526020016000205490506000600b838154811061222c577f4e487b7100000000000000000000000000000000000000000000000000000000600052603260045260246000fd5b9060005260206000200154905080600b8381548110612274577f4e487b7100000000000000000000000000000000000000000000000000000000600052603260045260246000fd5b906000526020600020018190555081600c600083815260200190815260200160002081905550600c600085815260200190815260200160002060009055600b8054806122e9577f4e487b7100000000000000000000000000000000000000000000000000000000600052603160045260246000fd5b6001900381819060005260206000200160009055905550505050565b600061231083610a8f565b905081600960008573ffffffffffffffffffffffffffffffffffffffff1673ffffffffffffffffffffffffffffffffffffffff16815260200190815260200160002060008381526020019081526020016000208190555080600a600084815260200190815260200160002081905550505050565b82805461239090613294565b90600052602060002090601f0160209004810192826123b257600085556123f9565b82601f106123cb57805160ff19168380011785556123f9565b828001600101855582156123f9579182015b828111156123f85782518255916020019190600101906123dd565b5b5090506124069190612490565b5090565b82805461241690613294565b90600052602060002090601f016020900481019282612438576000855561247f565b82601f1061245157803560ff191683800117855561247f565b8280016001018555821561247f579182015b8281111561247e578235825591602001919060010190612463565b5b50905061248c9190612490565b5090565b5b808211156124a9576000816000905550600101612491565b5090565b60006124c06124bb8461309a565b613075565b9050828152602081018484840111156124d857600080fd5b6124e3848285613252565b509392505050565b60006124fe6124f9846130cb565b613075565b90508281526020810184848401111561251657600080fd5b612521848285613252565b509392505050565b600081359050612538816138b4565b92915050565b60008135905061254d816138cb565b92915050565b600081359050612562816138e2565b92915050565b600081519050612577816138e2565b92915050565b600082601f83011261258e57600080fd5b813561259e8482602086016124ad565b91505092915050565b60008083601f8401126125b957600080fd5b8235905067ffffffffffffffff8111156125d257600080fd5b6020830191508360018202830111156125ea57600080fd5b9250929050565b600082601f83011261260257600080fd5b81356126128482602086016124eb565b91505092915050565b60008135905061262a816138f9565b92915050565b60006020828403121561264257600080fd5b600061265084828501612529565b91505092915050565b6000806040838503121561266c57600080fd5b600061267a85828601612529565b925050602061268b85828601612529565b9150509250929050565b6000806000606084860312156126aa57600080fd5b60006126b886828701612529565b93505060206126c986828701612529565b92505060406126da8682870161261b565b9150509250925092565b600080600080608085870312156126fa57600080fd5b600061270887828801612529565b945050602061271987828801612529565b935050604061272a8782880161261b565b925050606085013567ffffffffffffffff81111561274757600080fd5b6127538782880161257d565b91505092959194509250565b6000806040838503121561277257600080fd5b600061278085828601612529565b92505060206127918582860161253e565b9150509250929050565b6000806000604084860312156127b057600080fd5b60006127be86828701612529565b935050602084013567ffffffffffffffff8111156127db57600080fd5b6127e7868287016125a7565b92509250509250925092565b6000806040838503121561280657600080fd5b600061281485828601612529565b92505060206128258582860161261b565b9150509250929050565b60006020828403121561284157600080fd5b600061284f84828501612553565b91505092915050565b60006020828403121561286a57600080fd5b600061287884828501612568565b91505092915050565b60006020828403121561289357600080fd5b600082013567ffffffffffffffff8111156128ad57600080fd5b6128b9848285016125f1565b91505092915050565b6000602082840312156128d457600080fd5b60006128e28482850161261b565b91505092915050565b6128f4816131de565b82525050565b612903816131f0565b82525050565b600061291482613111565b61291e8185613127565b935061292e818560208601613261565b61293781613384565b840191505092915050565b600061294e8385613138565b935061295b838584613252565b61296483613384565b840190509392505050565b600061297a8261311c565b6129848185613138565b9350612994818560208601613261565b61299d81613384565b840191505092915050565b60006129b38261311c565b6129bd8185613149565b93506129cd818560208601613261565b80840191505092915050565b600081546129e681613294565b6129f08186613149565b94506001821660008114612a0b5760018114612a1c57612a4f565b60ff19831686528186019350612a4f565b612a25856130fc565b60005b83811015612a4757815481890152600182019150602081019050612a28565b838801955050505b50505092915050565b6000612a65602b83613138565b9150612a7082613395565b604082019050919050565b6000612a88603283613138565b9150612a93826133e4565b604082019050919050565b6000612aab602683613138565b9150612ab682613433565b604082019050919050565b6000612ace601c83613138565b9150612ad982613482565b602082019050919050565b6000612af1602483613138565b9150612afc826134ab565b604082019050919050565b6000612b14601983613138565b9150612b1f826134fa565b602082019050919050565b6000612b37602c83613138565b9150612b4282613523565b604082019050919050565b6000612b5a603883613138565b9150612b6582613572565b604082019050919050565b6000612b7d602a83613138565b9150612b88826135c1565b604082019050919050565b6000612ba0602983613138565b9150612bab82613610565b604082019050919050565b6000612bc3602083613138565b9150612bce8261365f565b602082019050919050565b6000612be6602c83613138565b9150612bf182613688565b604082019050919050565b6000612c09602083613138565b9150612c14826136d7565b602082019050919050565b6000612c2c602983613138565b9150612c3782613700565b604082019050919050565b6000612c4f602f83613138565b9150612c5a8261374f565b604082019050919050565b6000612c72602183613138565b9150612c7d8261379e565b604082019050919050565b6000612c95603183613138565b9150612ca0826137ed565b604082019050919050565b6000612cb8602c83613138565b9150612cc38261383c565b604082019050919050565b6000612cdb601483613138565b9150612ce68261388b565b602082019050919050565b612cfa81613248565b82525050565b6000612d0c82856129a8565b9150612d1882846129d9565b91508190509392505050565b6000602082019050612d3960008301846128eb565b92915050565b6000608082019050612d5460008301876128eb565b612d6160208301866128eb565b612d6e6040830185612cf1565b8181036060830152612d808184612909565b905095945050505050565b6000604082019050612da060008301866128eb565b8181036020830152612db3818486612942565b9050949350505050565b6000602082019050612dd260008301846128fa565b92915050565b60006020820190508181036000830152612df2818461296f565b905092915050565b60006020820190508181036000830152612e1381612a58565b9050919050565b60006020820190508181036000830152612e3381612a7b565b9050919050565b60006020820190508181036000830152612e5381612a9e565b9050919050565b60006020820190508181036000830152612e7381612ac1565b9050919050565b60006020820190508181036000830152612e9381612ae4565b9050919050565b60006020820190508181036000830152612eb381612b07565b9050919050565b60006020820190508181036000830152612ed381612b2a565b9050919050565b60006020820190508181036000830152612ef381612b4d565b9050919050565b60006020820190508181036000830152612f1381612b70565b9050919050565b60006020820190508181036000830152612f3381612b93565b9050919050565b60006020820190508181036000830152612f5381612bb6565b9050919050565b60006020820190508181036000830152612f7381612bd9565b9050919050565b60006020820190508181036000830152612f9381612bfc565b9050919050565b60006020820190508181036000830152612fb381612c1f565b9050919050565b60006020820190508181036000830152612fd381612c42565b9050919050565b60006020820190508181036000830152612ff381612c65565b9050919050565b6000602082019050818103600083015261301381612c88565b9050919050565b6000602082019050818103600083015261303381612cab565b9050919050565b6000602082019050818103600083015261305381612cce565b9050919050565b600060208201905061306f6000830184612cf1565b92915050565b600061307f613090565b905061308b82826132c6565b919050565b6000604051905090565b600067ffffffffffffffff8211156130b5576130b4613355565b5b6130be82613384565b9050602081019050919050565b600067ffffffffffffffff8211156130e6576130e5613355565b5b6130ef82613384565b9050602081019050919050565b60008190508160005260206000209050919050565b600081519050919050565b600081519050919050565b600082825260208201905092915050565b600082825260208201905092915050565b600081905092915050565b600061315f82613248565b915061316a83613248565b9250827fffffffffffffffffffffffffffffffffffffffffffffffffffffffffffffffff0382111561319f5761319e6132f7565b5b828201905092915050565b60006131b582613248565b91506131c083613248565b9250828210156131d3576131d26132f7565b5b828203905092915050565b60006131e982613228565b9050919050565b60008115159050919050565b60007fffffffff0000000000000000000000000000000000000000000000000000000082169050919050565b600073ffffffffffffffffffffffffffffffffffffffff82169050919050565b6000819050919050565b82818337600083830152505050565b60005b8381101561327f578082015181840152602081019050613264565b8381111561328e576000848401525b50505050565b600060028204905060018216806132ac57607f821691505b602082108114156132c0576132bf613326565b5b50919050565b6132cf82613384565b810181811067ffffffffffffffff821117156132ee576132ed613355565b5b80604052505050565b7f4e487b7100000000000000000000000000000000000000000000000000000000600052601160045260246000fd5b7f4e487b7100000000000000000000000000000000000000000000000000000000600052602260045260246000fd5b7f4e487b7100000000000000000000000000000000000000000000000000000000600052604160045260246000fd5b6000601f19601f8301169050919050565b7f455243373231456e756d657261626c653a206f776e657220696e646578206f7560008201527f74206f6620626f756e6473000000000000000000000000000000000000000000602082015250565b7f4552433732313a207472616e7366657220746f206e6f6e20455243373231526560008201527f63656976657220696d706c656d656e7465720000000000000000000000000000602082015250565b7f4f776e61626c653a206e6577206f776e657220697320746865207a65726f206160008201527f6464726573730000000000000000000000000000000000000000000000000000602082015250565b7f4552433732313a20746f6b656e20616c7265616479206d696e74656400000000600082015250565b7f4552433732313a207472616e7366657220746f20746865207a65726f2061646460008201527f7265737300000000000000000000000000000000000000000000000000000000602082015250565b7f4552433732313a20617070726f766520746f2063616c6c657200000000000000600082015250565b7f4552433732313a206f70657261746f7220717565727920666f72206e6f6e657860008201527f697374656e7420746f6b656e0000000000000000000000000000000000000000602082015250565b7f4552433732313a20617070726f76652063616c6c6572206973206e6f74206f7760008201527f6e6572206e6f7220617070726f76656420666f7220616c6c0000000000000000602082015250565b7f4552433732313a2062616c616e636520717565727920666f7220746865207a6560008201527f726f206164647265737300000000000000000000000000000000000000000000602082015250565b7f4552433732313a206f776e657220717565727920666f72206e6f6e657869737460008201527f656e7420746f6b656e0000000000000000000000000000000000000000000000602082015250565b7f4552433732313a206d696e7420746f20746865207a65726f2061646472657373600082015250565b7f4552433732313a20617070726f76656420717565727920666f72206e6f6e657860008201527f697374656e7420746f6b656e0000000000000000000000000000000000000000602082015250565b7f4f776e61626c653a2063616c6c6572206973206e6f7420746865206f776e6572600082015250565b7f4552433732313a207472616e73666572206f6620746f6b656e2074686174206960008201527f73206e6f74206f776e0000000000000000000000000000000000000000000000602082015250565b7f4552433732314d657461646174613a2055524920717565727920666f72206e6f60008201527f6e6578697374656e7420746f6b656e0000000000000000000000000000000000602082015250565b7f4552433732313a20617070726f76616c20746f2063757272656e74206f776e6560008201527f7200000000000000000000000000000000000000000000000000000000000000602082015250565b7f4552433732313a207472616e736665722063616c6c6572206973206e6f74206f60008201527f776e6572206e6f7220617070726f766564000000000000000000000000000000602082015250565b7f455243373231456e756d657261626c653a20676c6f62616c20696e646578206f60008201527f7574206f6620626f756e64730000000000000000000000000000000000000000602082015250565b7f544f4b454e5f49445f4e4f545f45584953544544000000000000000000000000600082015250565b6138bd816131de565b81146138c857600080fd5b50565b6138d4816131f0565b81146138df57600080fd5b50565b6138eb816131fc565b81146138f657600080fd5b50565b61390281613248565b811461390d57600080fd5b5056fea2646970667358221220375efa2ee2aa530b6d38c16233caa16349568003cdd696d86ce5b18fb4727a7964736f6c63430008040033",
  "immutableReferences": {},
  "source": "// SPDX-License-Identifier: UNLICENSED\n\npragma solidity ^0.8.4;\n\nimport \"./lib/token/ERC721/extensions/ERC721Enumerable.sol\";\nimport \"./TaureumERC721.sol\";\n\ncontract TaureumERC721Enumerable is TaureumERC721, ERC721Enumerable {\n    /**\n     * @dev Create a new TaureumERC721Enumerable contract.\n     *\n     */\n    constructor() TaureumERC721() {}\n\n    /**\n     * @dev See {IERC165-supportsInterface}.\n     */\n    function supportsInterface(bytes4 interfaceId) public view virtual override(ERC721, ERC721Enumerable) returns (bool) {\n        return\n        interfaceId == type(IERC721).interfaceId ||\n        interfaceId == type(IERC721Metadata).interfaceId ||\n        ERC721Enumerable.supportsInterface(interfaceId);\n    }\n\n    /**\n     * @dev See {IERC721Metadata-tokenURI}.\n     */\n    function tokenURI(uint256 tokenId) public view override(ERC721, TaureumERC721) returns (string memory) {\n        return TaureumERC721.tokenURI(tokenId);\n    }\n\n    /**\n     * @dev Base URI for computing {tokenURI}. If set, the resulting URI for each\n     * token will be the concatenation of the `baseURI` and the `tokenId`.\n     */\n    function _baseURI() internal view override(ERC721, TaureumERC721) returns (string memory) {\n        return TaureumERC721._baseURI();\n    }\n\n    /**\n     * @dev Hook that is called before any token transfer. This includes minting\n     * and burning.\n     *\n     * Calling conditions:\n     *\n     * - When `from` and `to` are both non-zero, ``from``'s `tokenId` will be\n     * transferred to `to`.\n     * - When `from` is zero, `tokenId` will be minted for `to`.\n     * - When `to` is zero, ``from``'s `tokenId` will be burned.\n     * - `from` cannot be the zero address.\n     * - `to` cannot be the zero address.\n     *\n     * To learn more about hooks, head to xref:ROOT:extending-contracts.adoc#using-hooks[Using Hooks].\n     */\n    function _beforeTokenTransfer(address from, address to, uint256 tokenId) internal override(ERC721, ERC721Enumerable) {\n        ERC721Enumerable._beforeTokenTransfer(from, to, tokenId);\n    }\n}\n",
  "sourcePath": "/home/toor/nodejs/truffle/nft_demo/taudefi/taudefi-nft/contracts/TaureumERC721Enumerable.sol",
  "compiler": {
    "name": "solc",
    "version": "0.8.4+commit.c7e474f2.Emscripten.clang"
  },
  "schemaVersion": "3.4.1",
  "updatedAt": "2021-07-27T15:28:31.376Z",
  "devdoc": {
    "kind": "dev",
    "methods": {
      "approve(address,uint256)": {
        "details": "See {IERC721-approve}."
      },
      "balanceOf(address)": {
        "details": "See {IERC721-balanceOf}."
      },
      "constructor": {
        "details": "Create a new TaureumERC721Enumerable contract."
      },
      "getApproved(uint256)": {
        "details": "See {IERC721-getApproved}."
      },
      "isApprovedForAll(address,address)": {
        "details": "See {IERC721-isApprovedForAll}."
      },
      "mint(address,string)": {
        "details": "Mint a new NFT.",
        "params": {
          "to": "The address that will own the minted NFT.",
          "uri": "The URI consists of metadata description of the minting NFT on the IPFS (without prefix)."
        }
      },
      "name()": {
        "details": "See {IERC721Metadata-name}."
      },
      "owner()": {
        "details": "Returns the address of the current owner."
      },
      "ownerOf(uint256)": {
        "details": "See {IERC721-ownerOf}."
      },
      "renounceOwnership()": {
        "details": "Leaves the contract without owner. It will not be possible to call `onlyOwner` functions anymore. Can only be called by the current owner. NOTE: Renouncing ownership will leave the contract without an owner, thereby removing any functionality that is only available to the owner."
      },
      "safeMint(address,string)": {
        "details": "Safely mint a new NFT.",
        "params": {
          "to": "The address that will own the minted NFT.",
          "uri": "The URI consists of metadata description of the minting NFT on the IPFS (without prefix)."
        }
      },
      "safeTransferFrom(address,address,uint256)": {
        "details": "See {IERC721-safeTransferFrom}."
      },
      "safeTransferFrom(address,address,uint256,bytes)": {
        "details": "See {IERC721-safeTransferFrom}."
      },
      "setApprovalForAll(address,bool)": {
        "details": "See {IERC721-setApprovalForAll}."
      },
      "setBaseURI(string)": {
        "details": "Sets new value for the `baseURI`. This operation can only been done by the owner of this contract."
      },
      "supportsInterface(bytes4)": {
        "details": "See {IERC165-supportsInterface}."
      },
      "symbol()": {
        "details": "See {IERC721Metadata-symbol}."
      },
      "tokenByIndex(uint256)": {
        "details": "See {IERC721Enumerable-tokenByIndex}."
      },
      "tokenOfOwnerByIndex(address,uint256)": {
        "details": "See {IERC721Enumerable-tokenOfOwnerByIndex}."
      },
      "tokenURI(uint256)": {
        "details": "See {IERC721Metadata-tokenURI}."
      },
      "totalSupply()": {
        "details": "See {IERC721Enumerable-totalSupply}."
      },
      "transferFrom(address,address,uint256)": {
        "details": "See {IERC721-transferFrom}."
      },
      "transferOwnership(address)": {
        "details": "Transfers ownership of the contract to a new account (`newOwner`). Can only be called by the current owner."
      }
    },
    "version": 1
  },
  "userdoc": {
    "kind": "user",
    "methods": {
      "mint(address,string)": {
        "notice": "It throws an exception if    - `to` is a \"ZERO_ADDRESS."
      },
      "safeMint(address,string)": {
        "notice": "It throws an exception if    - `to` is a \"ZERO_ADDRESS.    - If `to` refers to a smart contract, it must implement {IERC721Receiver-onERC721Received}, which is called upon a safe transfer."
      }
    },
    "version": 1
  }
}