{
  "contractName": "TaureumNFT",
  "abi": [
    {
      "inputs": [
        {
          "internalType": "address",
          "name": "KYCAddress",
          "type": "address"
        }
      ],
      "stateMutability": "nonpayable",
      "type": "constructor"
    },
    {
      "anonymous": false,
      "inputs": [
        {
          "indexed": true,
          "internalType": "address",
          "name": "owner",
          "type": "address"
        },
        {
          "indexed": true,
          "internalType": "address",
          "name": "approved",
          "type": "address"
        },
        {
          "indexed": true,
          "internalType": "uint256",
          "name": "tokenId",
          "type": "uint256"
        }
      ],
      "name": "Approval",
      "type": "event"
    },
    {
      "anonymous": false,
      "inputs": [
        {
          "indexed": true,
          "internalType": "address",
          "name": "owner",
          "type": "address"
        },
        {
          "indexed": true,
          "internalType": "address",
          "name": "operator",
          "type": "address"
        },
        {
          "indexed": false,
          "internalType": "bool",
          "name": "approved",
          "type": "bool"
        }
      ],
      "name": "ApprovalForAll",
      "type": "event"
    },
    {
      "anonymous": false,
      "inputs": [
        {
          "indexed": true,
          "internalType": "address",
          "name": "to",
          "type": "address"
        },
        {
          "indexed": true,
          "internalType": "uint256",
          "name": "tokenId",
          "type": "uint256"
        },
        {
          "indexed": false,
          "internalType": "string",
          "name": "uri",
          "type": "string"
        },
        {
          "indexed": false,
          "internalType": "uint8",
          "name": "license",
          "type": "uint8"
        },
        {
          "indexed": false,
          "internalType": "uint256",
          "name": "expiryDate",
          "type": "uint256"
        }
      ],
      "name": "Mint",
      "type": "event"
    },
    {
      "anonymous": false,
      "inputs": [
        {
          "indexed": true,
          "internalType": "address",
          "name": "from",
          "type": "address"
        },
        {
          "indexed": true,
          "internalType": "address",
          "name": "to",
          "type": "address"
        },
        {
          "indexed": true,
          "internalType": "uint256",
          "name": "tokenId",
          "type": "uint256"
        }
      ],
      "name": "Transfer",
      "type": "event"
    },
    {
      "inputs": [
        {
          "internalType": "address",
          "name": "to",
          "type": "address"
        },
        {
          "internalType": "uint256",
          "name": "tokenId",
          "type": "uint256"
        }
      ],
      "name": "approve",
      "outputs": [],
      "stateMutability": "nonpayable",
      "type": "function"
    },
    {
      "inputs": [
        {
          "internalType": "address",
          "name": "owner",
          "type": "address"
        }
      ],
      "name": "balanceOf",
      "outputs": [
        {
          "internalType": "uint256",
          "name": "",
          "type": "uint256"
        }
      ],
      "stateMutability": "view",
      "type": "function"
    },
    {
      "inputs": [
        {
          "internalType": "uint256",
          "name": "tokenId",
          "type": "uint256"
        }
      ],
      "name": "getApproved",
      "outputs": [
        {
          "internalType": "address",
          "name": "",
          "type": "address"
        }
      ],
      "stateMutability": "view",
      "type": "function"
    },
    {
      "inputs": [
        {
          "internalType": "address",
          "name": "owner",
          "type": "address"
        },
        {
          "internalType": "address",
          "name": "operator",
          "type": "address"
        }
      ],
      "name": "isApprovedForAll",
      "outputs": [
        {
          "internalType": "bool",
          "name": "",
          "type": "bool"
        }
      ],
      "stateMutability": "view",
      "type": "function"
    },
    {
      "inputs": [],
      "name": "name",
      "outputs": [
        {
          "internalType": "string",
          "name": "",
          "type": "string"
        }
      ],
      "stateMutability": "view",
      "type": "function"
    },
    {
      "inputs": [
        {
          "internalType": "uint256",
          "name": "tokenId",
          "type": "uint256"
        }
      ],
      "name": "ownerOf",
      "outputs": [
        {
          "internalType": "address",
          "name": "",
          "type": "address"
        }
      ],
      "stateMutability": "view",
      "type": "function"
    },
    {
      "inputs": [
        {
          "internalType": "address",
          "name": "operator",
          "type": "address"
        },
        {
          "internalType": "bool",
          "name": "approved",
          "type": "bool"
        }
      ],
      "name": "setApprovalForAll",
      "outputs": [],
      "stateMutability": "nonpayable",
      "type": "function"
    },
    {
      "inputs": [],
      "name": "symbol",
      "outputs": [
        {
          "internalType": "string",
          "name": "",
          "type": "string"
        }
      ],
      "stateMutability": "view",
      "type": "function"
    },
    {
      "inputs": [
        {
          "internalType": "bytes4",
          "name": "interfaceId",
          "type": "bytes4"
        }
      ],
      "name": "supportsInterface",
      "outputs": [
        {
          "internalType": "bool",
          "name": "",
          "type": "bool"
        }
      ],
      "stateMutability": "view",
      "type": "function"
    },
    {
      "inputs": [
        {
          "internalType": "address",
          "name": "to",
          "type": "address"
        },
        {
          "internalType": "string",
          "name": "uri",
          "type": "string"
        },
        {
          "internalType": "uint8",
          "name": "license",
          "type": "uint8"
        },
        {
          "internalType": "uint256",
          "name": "expiryDate",
          "type": "uint256"
        }
      ],
      "name": "mint",
      "outputs": [],
      "stateMutability": "nonpayable",
      "type": "function"
    },
    {
      "inputs": [
        {
          "internalType": "uint256",
          "name": "tokenId",
          "type": "uint256"
        }
      ],
      "name": "tokenURI",
      "outputs": [
        {
          "internalType": "string",
          "name": "",
          "type": "string"
        }
      ],
      "stateMutability": "view",
      "type": "function"
    },
    {
      "inputs": [
        {
          "internalType": "uint256",
          "name": "_tokenId",
          "type": "uint256"
        }
      ],
      "name": "getTokenData",
      "outputs": [
        {
          "internalType": "bytes",
          "name": "tokenData",
          "type": "bytes"
        }
      ],
      "stateMutability": "view",
      "type": "function"
    },
    {
      "inputs": [
        {
          "internalType": "address",
          "name": "from",
          "type": "address"
        },
        {
          "internalType": "address",
          "name": "to",
          "type": "address"
        },
        {
          "internalType": "uint256",
          "name": "tokenId",
          "type": "uint256"
        }
      ],
      "name": "transferFrom",
      "outputs": [],
      "stateMutability": "nonpayable",
      "type": "function"
    },
    {
      "inputs": [
        {
          "internalType": "address",
          "name": "from",
          "type": "address"
        },
        {
          "internalType": "address",
          "name": "to",
          "type": "address"
        },
        {
          "internalType": "uint256",
          "name": "tokenId",
          "type": "uint256"
        }
      ],
      "name": "safeTransferFrom",
      "outputs": [],
      "stateMutability": "nonpayable",
      "type": "function"
    },
    {
      "inputs": [
        {
          "internalType": "address",
          "name": "from",
          "type": "address"
        },
        {
          "internalType": "address",
          "name": "to",
          "type": "address"
        },
        {
          "internalType": "uint256",
          "name": "tokenId",
          "type": "uint256"
        },
        {
          "internalType": "bytes",
          "name": "_data",
          "type": "bytes"
        }
      ],
      "name": "safeTransferFrom",
      "outputs": [],
      "stateMutability": "nonpayable",
      "type": "function"
    }
  ],
  "bytecode": "0x60806040523480156200001157600080fd5b50604051620038d6380380620038d68339818101604052810190620000379190620001e6565b6040518060400160405280600b81526020017f5461757265756d204e46540000000000000000000000000000000000000000008152506040518060400160405280600781526020017f5461757265756d000000000000000000000000000000000000000000000000008152508160009080519060200190620000bb9291906200011f565b508060019080519060200190620000d49291906200011f565b50505080600760006101000a81548173ffffffffffffffffffffffffffffffffffffffff021916908373ffffffffffffffffffffffffffffffffffffffff16021790555050620002c5565b8280546200012d9062000246565b90600052602060002090601f0160209004810192826200015157600085556200019d565b82601f106200016c57805160ff19168380011785556200019d565b828001600101855582156200019d579182015b828111156200019c5782518255916020019190600101906200017f565b5b509050620001ac9190620001b0565b5090565b5b80821115620001cb576000816000905550600101620001b1565b5090565b600081519050620001e081620002ab565b92915050565b600060208284031215620001f957600080fd5b60006200020984828501620001cf565b91505092915050565b60006200021f8262000226565b9050919050565b600073ffffffffffffffffffffffffffffffffffffffff82169050919050565b600060028204905060018216806200025f57607f821691505b602082108114156200027657620002756200027c565b5b50919050565b7f4e487b7100000000000000000000000000000000000000000000000000000000600052602260045260246000fd5b620002b68162000212565b8114620002c257600080fd5b50565b61360180620002d56000396000f3fe608060405234801561001057600080fd5b50600436106100f55760003560e01c806370a0823111610097578063b88d4fde11610066578063b88d4fde14610296578063c87b56dd146102b2578063e985e9c5146102e2578063f67e3c4a14610312576100f5565b806370a08231146101fc57806395d89b411461022c578063a22cb4651461024a578063b09afec114610266576100f5565b8063095ea7b3116100d3578063095ea7b31461017857806323b872dd1461019457806342842e0e146101b05780636352211e146101cc576100f5565b806301ffc9a7146100fa57806306fdde031461012a578063081812fc14610148575b600080fd5b610114600480360381019061010f91906123bb565b61032e565b60405161012191906129da565b60405180910390f35b610132610410565b60405161013f9190612a57565b60405180910390f35b610162600480360381019061015d919061240d565b6104a2565b60405161016f9190612973565b60405180910390f35b610192600480360381019061018d9190612356565b610527565b005b6101ae60048036038101906101a991906121d0565b61063f565b005b6101ca60048036038101906101c591906121d0565b6107f4565b005b6101e660048036038101906101e1919061240d565b610814565b6040516101f39190612973565b60405180910390f35b6102166004803603810190610211919061216b565b6108c6565b6040516102239190612d19565b60405180910390f35b61023461097e565b6040516102419190612a57565b60405180910390f35b610264600480360381019061025f919061229a565b610a10565b005b610280600480360381019061027b919061240d565b610b91565b60405161028d91906129f5565b60405180910390f35b6102b060048036038101906102ab919061221f565b610c7a565b005b6102cc60048036038101906102c7919061240d565b610e31565b6040516102d99190612a57565b60405180910390f35b6102fc60048036038101906102f79190612194565b610f6e565b60405161030991906129da565b60405180910390f35b61032c600480360381019061032791906122d6565b611002565b005b60007f80ac58cd000000000000000000000000000000000000000000000000000000007bffffffffffffffffffffffffffffffffffffffffffffffffffffffff1916827bffffffffffffffffffffffffffffffffffffffffffffffffffffffff191614806103f957507f5b5e139f000000000000000000000000000000000000000000000000000000007bffffffffffffffffffffffffffffffffffffffffffffffffffffffff1916827bffffffffffffffffffffffffffffffffffffffffffffffffffffffff1916145b806104095750610408826113a5565b5b9050919050565b60606000805461041f90612f2f565b80601f016020809104026020016040519081016040528092919081815260200182805461044b90612f2f565b80156104985780601f1061046d57610100808354040283529160200191610498565b820191906000526020600020905b81548152906001019060200180831161047b57829003601f168201915b5050505050905090565b60006104ad82611487565b6104ec576040517f08c379a00000000000000000000000000000000000000000000000000000000081526004016104e390612bf9565b60405180910390fd5b6004600083815260200190815260200160002060009054906101000a900473ffffffffffffffffffffffffffffffffffffffff169050919050565b600061053282610814565b90508073ffffffffffffffffffffffffffffffffffffffff168373ffffffffffffffffffffffffffffffffffffffff1614156105a3576040517f08c379a000000000000000000000000000000000000000000000000000000000815260040161059a90612c99565b60405180910390fd5b8073ffffffffffffffffffffffffffffffffffffffff166105c26114f3565b73ffffffffffffffffffffffffffffffffffffffff1614806105f157506105f0816105eb6114f3565b610f6e565b5b610630576040517f08c379a000000000000000000000000000000000000000000000000000000000815260040161062790612b39565b60405180910390fd5b61063a83836114fb565b505050565b80610649816115b4565b610688576040517f08c379a000000000000000000000000000000000000000000000000000000000815260040161067f90612c19565b60405180910390fd5b826000610694826108c6565b90506000600760009054906101000a900473ffffffffffffffffffffffffffffffffffffffff1673ffffffffffffffffffffffffffffffffffffffff16633da1c0c3846040518263ffffffff1660e01b81526004016106f39190612973565b60206040518083038186803b15801561070b57600080fd5b505afa15801561071f573d6000803e3d6000fd5b505050506040513d601f19601f820116820180604052508101906107439190612392565b905080806107515750600a82105b610790576040517f08c379a000000000000000000000000000000000000000000000000000000000815260040161078790612ab9565b60405180910390fd5b6107a161079b6114f3565b866116af565b6107e0576040517f08c379a00000000000000000000000000000000000000000000000000000000081526004016107d790612cb9565b60405180910390fd5b6107eb87878761178d565b50505050505050565b61080f83838360405180602001604052806000815250610c7a565b505050565b6000806002600084815260200190815260200160002060009054906101000a900473ffffffffffffffffffffffffffffffffffffffff169050600073ffffffffffffffffffffffffffffffffffffffff168173ffffffffffffffffffffffffffffffffffffffff1614156108bd576040517f08c379a00000000000000000000000000000000000000000000000000000000081526004016108b490612b79565b60405180910390fd5b80915050919050565b60008073ffffffffffffffffffffffffffffffffffffffff168273ffffffffffffffffffffffffffffffffffffffff161415610937576040517f08c379a000000000000000000000000000000000000000000000000000000000815260040161092e90612b59565b60405180910390fd5b600360008373ffffffffffffffffffffffffffffffffffffffff1673ffffffffffffffffffffffffffffffffffffffff168152602001908152602001600020549050919050565b60606001805461098d90612f2f565b80601f01602080910402602001604051908101604052809291908181526020018280546109b990612f2f565b8015610a065780601f106109db57610100808354040283529160200191610a06565b820191906000526020600020905b8154815290600101906020018083116109e957829003601f168201915b5050505050905090565b610a186114f3565b73ffffffffffffffffffffffffffffffffffffffff168273ffffffffffffffffffffffffffffffffffffffff161415610a86576040517f08c379a0000000000000000000000000000000000000000000000000000000008152600401610a7d90612af9565b60405180910390fd5b8060056000610a936114f3565b73ffffffffffffffffffffffffffffffffffffffff1673ffffffffffffffffffffffffffffffffffffffff16815260200190815260200160002060008473ffffffffffffffffffffffffffffffffffffffff1673ffffffffffffffffffffffffffffffffffffffff16815260200190815260200160002060006101000a81548160ff0219169083151502179055508173ffffffffffffffffffffffffffffffffffffffff16610b406114f3565b73ffffffffffffffffffffffffffffffffffffffff167f17307eab39ab6107e8899845ad3d59bd9653f200f220920489ca2b5937696c3183604051610b8591906129da565b60405180910390a35050565b6060600b60008381526020019081526020016000208054610bb190612f2f565b80601f0160208091040260200160405190810160405280929190818152602001828054610bdd90612f2f565b8015610c2a5780601f10610bff57610100808354040283529160200191610c2a565b820191906000526020600020905b815481529060010190602001808311610c0d57829003601f168201915b505050505090506021815114610c75576040517f08c379a0000000000000000000000000000000000000000000000000000000008152600401610c6c90612bb9565b60405180910390fd5b919050565b81610c84816115b4565b610cc3576040517f08c379a0000000000000000000000000000000000000000000000000000000008152600401610cba90612c19565b60405180910390fd5b836000610ccf826108c6565b90506000600760009054906101000a900473ffffffffffffffffffffffffffffffffffffffff1673ffffffffffffffffffffffffffffffffffffffff16633da1c0c3846040518263ffffffff1660e01b8152600401610d2e9190612973565b60206040518083038186803b158015610d4657600080fd5b505afa158015610d5a573d6000803e3d6000fd5b505050506040513d601f19601f82011682018060405250810190610d7e9190612392565b90508080610d8c5750600a82105b610dcb576040517f08c379a0000000000000000000000000000000000000000000000000000000008152600401610dc290612ab9565b60405180910390fd5b610ddc610dd66114f3565b876116af565b610e1b576040517f08c379a0000000000000000000000000000000000000000000000000000000008152600401610e1290612cb9565b60405180910390fd5b610e27888888886119e9565b5050505050505050565b6060610e3c82611487565b610e7b576040517f08c379a0000000000000000000000000000000000000000000000000000000008152600401610e7290612c59565b60405180910390fd5b6000610e85611a45565b90506000815111610f3157600860008481526020019081526020016000208054610eae90612f2f565b80601f0160208091040260200160405190810160405280929190818152602001828054610eda90612f2f565b8015610f275780601f10610efc57610100808354040283529160200191610f27565b820191906000526020600020905b815481529060010190602001808311610f0a57829003601f168201915b5050505050610f66565b8060086000858152602001908152602001600020604051602001610f56929190612923565b6040516020818303038152906040525b915050919050565b6000600560008473ffffffffffffffffffffffffffffffffffffffff1673ffffffffffffffffffffffffffffffffffffffff16815260200190815260200160002060008373ffffffffffffffffffffffffffffffffffffffff1673ffffffffffffffffffffffffffffffffffffffff16815260200190815260200160002060009054906101000a900460ff16905092915050565b83838080601f016020809104026020016040519081016040528093929190818152602001838380828437600081840152601f19601f82011690508083019250505050505050600a81604051611057919061290c565b908152602001604051809103902060009054906101000a900460ff16156110b3576040517f08c379a00000000000000000000000000000000000000000000000000000000081526004016110aa90612b99565b60405180910390fd5b8560006110bf826108c6565b90506000600760009054906101000a900473ffffffffffffffffffffffffffffffffffffffff1673ffffffffffffffffffffffffffffffffffffffff16633da1c0c3846040518263ffffffff1660e01b815260040161111e9190612973565b60206040518083038186803b15801561113657600080fd5b505afa15801561114a573d6000803e3d6000fd5b505050506040513d601f19601f8201168201806040525081019061116e9190612392565b9050808061117c5750600a82105b6111bb576040517f08c379a00000000000000000000000000000000000000000000000000000000081526004016111b290612ab9565b60405180910390fd5b60028660ff1610611201576040517f08c379a00000000000000000000000000000000000000000000000000000000081526004016111f890612cd9565b60405180910390fd5b428511611243576040517f08c379a000000000000000000000000000000000000000000000000000000000815260040161123a90612c79565b60405180910390fd5b61124d6006611a82565b60006112596006611a98565b90506112658a82611aa6565b611270818a8a611c74565b6001600a8a8a6040516112849291906128f3565b908152602001604051809103902060006101000a81548160ff021916908315150217905550896009600083815260200190815260200160002060006101000a81548173ffffffffffffffffffffffffffffffffffffffff021916908373ffffffffffffffffffffffffffffffffffffffff160217905550868660405160200161130e929190612947565b604051602081830303815290604052600b60008381526020019081526020016000209080519060200190611343929190611efd565b50808a73ffffffffffffffffffffffffffffffffffffffff167fccbcb07cf06b8a099e496dbfa2587fe374eae5d9d190458b1bc39890d9fd78428b8b8b8b6040516113919493929190612a17565b60405180910390a350505050505050505050565b60007f80ac58cd000000000000000000000000000000000000000000000000000000007bffffffffffffffffffffffffffffffffffffffffffffffffffffffff1916827bffffffffffffffffffffffffffffffffffffffffffffffffffffffff1916148061147057507f5b5e139f000000000000000000000000000000000000000000000000000000007bffffffffffffffffffffffffffffffffffffffffffffffffffffffff1916827bffffffffffffffffffffffffffffffffffffffffffffffffffffffff1916145b80611480575061147f82611ce4565b5b9050919050565b60008073ffffffffffffffffffffffffffffffffffffffff166002600084815260200190815260200160002060009054906101000a900473ffffffffffffffffffffffffffffffffffffffff1673ffffffffffffffffffffffffffffffffffffffff1614159050919050565b600033905090565b816004600083815260200190815260200160002060006101000a81548173ffffffffffffffffffffffffffffffffffffffff021916908373ffffffffffffffffffffffffffffffffffffffff160217905550808273ffffffffffffffffffffffffffffffffffffffff1661156e83610814565b73ffffffffffffffffffffffffffffffffffffffff167f8c5be1e5ebec7d5bd14f71427d1e84f3dd0314c0f7b2291e5b200ac8c7c3b92560405160405180910390a45050565b6000806009600084815260200190815260200160002060009054906101000a900473ffffffffffffffffffffffffffffffffffffffff16905060006115f884610b91565b9050600081600081518110611636577f4e487b7100000000000000000000000000000000000000000000000000000000600052603260045260246000fd5b602001015160f81c60f81b60f81c905060018160ff161415801561168657508273ffffffffffffffffffffffffffffffffffffffff163373ffffffffffffffffffffffffffffffffffffffff1614155b1561169757600093505050506116aa565b6000602083015190508042109450505050505b919050565b60006116ba82611487565b6116f9576040517f08c379a00000000000000000000000000000000000000000000000000000000081526004016116f090612b19565b60405180910390fd5b600061170483610814565b90508073ffffffffffffffffffffffffffffffffffffffff168473ffffffffffffffffffffffffffffffffffffffff16148061177357508373ffffffffffffffffffffffffffffffffffffffff1661175b846104a2565b73ffffffffffffffffffffffffffffffffffffffff16145b8061178457506117838185610f6e565b5b91505092915050565b8273ffffffffffffffffffffffffffffffffffffffff166117ad82610814565b73ffffffffffffffffffffffffffffffffffffffff1614611803576040517f08c379a00000000000000000000000000000000000000000000000000000000081526004016117fa90612c39565b60405180910390fd5b600073ffffffffffffffffffffffffffffffffffffffff168273ffffffffffffffffffffffffffffffffffffffff161415611873576040517f08c379a000000000000000000000000000000000000000000000000000000000815260040161186a90612ad9565b60405180910390fd5b61187e838383611d4e565b6118896000826114fb565b6001600360008573ffffffffffffffffffffffffffffffffffffffff1673ffffffffffffffffffffffffffffffffffffffff16815260200190815260200160002060008282546118d99190612e38565b925050819055506001600360008473ffffffffffffffffffffffffffffffffffffffff1673ffffffffffffffffffffffffffffffffffffffff16815260200190815260200160002060008282546119309190612de2565b92505081905550816002600083815260200190815260200160002060006101000a81548173ffffffffffffffffffffffffffffffffffffffff021916908373ffffffffffffffffffffffffffffffffffffffff160217905550808273ffffffffffffffffffffffffffffffffffffffff168473ffffffffffffffffffffffffffffffffffffffff167fddf252ad1be2c89b69c2b068fc378daa952ba7f163c4a11628f55a4df523b3ef60405160405180910390a4505050565b6119f484848461178d565b611a0084848484611d53565b611a3f576040517f08c379a0000000000000000000000000000000000000000000000000000000008152600401611a3690612a79565b60405180910390fd5b50505050565b60606040518060400160405280600781526020017f697066733a2f2f00000000000000000000000000000000000000000000000000815250905090565b6001816000016000828254019250508190555050565b600081600001549050919050565b600073ffffffffffffffffffffffffffffffffffffffff168273ffffffffffffffffffffffffffffffffffffffff161415611b16576040517f08c379a0000000000000000000000000000000000000000000000000000000008152600401611b0d90612bd9565b60405180910390fd5b611b1f81611487565b15611b5f576040517f08c379a0000000000000000000000000000000000000000000000000000000008152600401611b5690612a99565b60405180910390fd5b611b6b60008383611d4e565b6001600360008473ffffffffffffffffffffffffffffffffffffffff1673ffffffffffffffffffffffffffffffffffffffff1681526020019081526020016000206000828254611bbb9190612de2565b92505081905550816002600083815260200190815260200160002060006101000a81548173ffffffffffffffffffffffffffffffffffffffff021916908373ffffffffffffffffffffffffffffffffffffffff160217905550808273ffffffffffffffffffffffffffffffffffffffff16600073ffffffffffffffffffffffffffffffffffffffff167fddf252ad1be2c89b69c2b068fc378daa952ba7f163c4a11628f55a4df523b3ef60405160405180910390a45050565b611c7d83611487565b611cbc576040517f08c379a0000000000000000000000000000000000000000000000000000000008152600401611cb390612cf9565b60405180910390fd5b8181600860008681526020019081526020016000209190611cde929190611f83565b50505050565b60007f01ffc9a7000000000000000000000000000000000000000000000000000000007bffffffffffffffffffffffffffffffffffffffffffffffffffffffff1916827bffffffffffffffffffffffffffffffffffffffffffffffffffffffff1916149050919050565b505050565b6000611d748473ffffffffffffffffffffffffffffffffffffffff16611eea565b15611edd578373ffffffffffffffffffffffffffffffffffffffff1663150b7a02611d9d6114f3565b8786866040518563ffffffff1660e01b8152600401611dbf949392919061298e565b602060405180830381600087803b158015611dd957600080fd5b505af1925050508015611e0a57506040513d601f19601f82011682018060405250810190611e0791906123e4565b60015b611e8d573d8060008114611e3a576040519150601f19603f3d011682016040523d82523d6000602084013e611e3f565b606091505b50600081511415611e85576040517f08c379a0000000000000000000000000000000000000000000000000000000008152600401611e7c90612a79565b60405180910390fd5b805181602001fd5b63150b7a0260e01b7bffffffffffffffffffffffffffffffffffffffffffffffffffffffff1916817bffffffffffffffffffffffffffffffffffffffffffffffffffffffff191614915050611ee2565b600190505b949350505050565b600080823b905060008111915050919050565b828054611f0990612f2f565b90600052602060002090601f016020900481019282611f2b5760008555611f72565b82601f10611f4457805160ff1916838001178555611f72565b82800160010185558215611f72579182015b82811115611f71578251825591602001919060010190611f56565b5b509050611f7f9190612009565b5090565b828054611f8f90612f2f565b90600052602060002090601f016020900481019282611fb15760008555611ff8565b82601f10611fca57803560ff1916838001178555611ff8565b82800160010185558215611ff8579182015b82811115611ff7578235825591602001919060010190611fdc565b5b5090506120059190612009565b5090565b5b8082111561202257600081600090555060010161200a565b5090565b600061203961203484612d59565b612d34565b90508281526020810184848401111561205157600080fd5b61205c848285612eed565b509392505050565b60008135905061207381613558565b92915050565b6000813590506120888161356f565b92915050565b60008151905061209d8161356f565b92915050565b6000813590506120b281613586565b92915050565b6000815190506120c781613586565b92915050565b600082601f8301126120de57600080fd5b81356120ee848260208601612026565b91505092915050565b60008083601f84011261210957600080fd5b8235905067ffffffffffffffff81111561212257600080fd5b60208301915083600182028301111561213a57600080fd5b9250929050565b6000813590506121508161359d565b92915050565b600081359050612165816135b4565b92915050565b60006020828403121561217d57600080fd5b600061218b84828501612064565b91505092915050565b600080604083850312156121a757600080fd5b60006121b585828601612064565b92505060206121c685828601612064565b9150509250929050565b6000806000606084860312156121e557600080fd5b60006121f386828701612064565b935050602061220486828701612064565b925050604061221586828701612141565b9150509250925092565b6000806000806080858703121561223557600080fd5b600061224387828801612064565b945050602061225487828801612064565b935050604061226587828801612141565b925050606085013567ffffffffffffffff81111561228257600080fd5b61228e878288016120cd565b91505092959194509250565b600080604083850312156122ad57600080fd5b60006122bb85828601612064565b92505060206122cc85828601612079565b9150509250929050565b6000806000806000608086880312156122ee57600080fd5b60006122fc88828901612064565b955050602086013567ffffffffffffffff81111561231957600080fd5b612325888289016120f7565b9450945050604061233888828901612156565b925050606061234988828901612141565b9150509295509295909350565b6000806040838503121561236957600080fd5b600061237785828601612064565b925050602061238885828601612141565b9150509250929050565b6000602082840312156123a457600080fd5b60006123b28482850161208e565b91505092915050565b6000602082840312156123cd57600080fd5b60006123db848285016120a3565b91505092915050565b6000602082840312156123f657600080fd5b6000612404848285016120b8565b91505092915050565b60006020828403121561241f57600080fd5b600061242d84828501612141565b91505092915050565b61243f81612e6c565b82525050565b61244e81612e7e565b82525050565b600061245f82612d9f565b6124698185612db5565b9350612479818560208601612efc565b6124828161303b565b840191505092915050565b60006124998385612dc6565b93506124a6838584612eed565b6124af8361303b565b840190509392505050565b60006124c68385612dd7565b93506124d3838584612eed565b82840190509392505050565b60006124ea82612daa565b6124f48185612dc6565b9350612504818560208601612efc565b61250d8161303b565b840191505092915050565b600061252382612daa565b61252d8185612dd7565b935061253d818560208601612efc565b80840191505092915050565b6000815461255681612f2f565b6125608186612dd7565b9450600182166000811461257b576001811461258c576125bf565b60ff198316865281860193506125bf565b61259585612d8a565b60005b838110156125b757815481890152600182019150602081019050612598565b838801955050505b50505092915050565b60006125d5603283612dc6565b91506125e082613059565b604082019050919050565b60006125f8601c83612dc6565b9150612603826130a8565b602082019050919050565b600061261b601683612dc6565b9150612626826130d1565b602082019050919050565b600061263e602483612dc6565b9150612649826130fa565b604082019050919050565b6000612661601983612dc6565b915061266c82613149565b602082019050919050565b6000612684602c83612dc6565b915061268f82613172565b604082019050919050565b60006126a7603883612dc6565b91506126b2826131c1565b604082019050919050565b60006126ca602a83612dc6565b91506126d582613210565b604082019050919050565b60006126ed602983612dc6565b91506126f88261325f565b604082019050919050565b6000612710600a83612dc6565b915061271b826132ae565b602082019050919050565b6000612733600f83612dc6565b915061273e826132d7565b602082019050919050565b6000612756602083612dc6565b915061276182613300565b602082019050919050565b6000612779602c83612dc6565b915061278482613329565b604082019050919050565b600061279c601683612dc6565b91506127a782613378565b602082019050919050565b60006127bf602983612dc6565b91506127ca826133a1565b604082019050919050565b60006127e2602f83612dc6565b91506127ed826133f0565b604082019050919050565b6000612805601583612dc6565b91506128108261343f565b602082019050919050565b6000612828602183612dc6565b915061283382613468565b604082019050919050565b600061284b603183612dc6565b9150612856826134b7565b604082019050919050565b600061286e601683612dc6565b915061287982613506565b602082019050919050565b6000612891601483612dc6565b915061289c8261352f565b602082019050919050565b6128b081612ed6565b82525050565b6128c76128c282612ed6565b612f92565b82525050565b6128d681612ee0565b82525050565b6128ed6128e882612ee0565b612f9c565b82525050565b60006129008284866124ba565b91508190509392505050565b60006129188284612518565b915081905092915050565b600061292f8285612518565b915061293b8284612549565b91508190509392505050565b600061295382856128dc565b60018201915061296382846128b6565b6020820191508190509392505050565b60006020820190506129886000830184612436565b92915050565b60006080820190506129a36000830187612436565b6129b06020830186612436565b6129bd60408301856128a7565b81810360608301526129cf8184612454565b905095945050505050565b60006020820190506129ef6000830184612445565b92915050565b60006020820190508181036000830152612a0f8184612454565b905092915050565b60006060820190508181036000830152612a3281868861248d565b9050612a4160208301856128cd565b612a4e60408301846128a7565b95945050505050565b60006020820190508181036000830152612a7181846124df565b905092915050565b60006020820190508181036000830152612a92816125c8565b9050919050565b60006020820190508181036000830152612ab2816125eb565b9050919050565b60006020820190508181036000830152612ad28161260e565b9050919050565b60006020820190508181036000830152612af281612631565b9050919050565b60006020820190508181036000830152612b1281612654565b9050919050565b60006020820190508181036000830152612b3281612677565b9050919050565b60006020820190508181036000830152612b528161269a565b9050919050565b60006020820190508181036000830152612b72816126bd565b9050919050565b60006020820190508181036000830152612b92816126e0565b9050919050565b60006020820190508181036000830152612bb281612703565b9050919050565b60006020820190508181036000830152612bd281612726565b9050919050565b60006020820190508181036000830152612bf281612749565b9050919050565b60006020820190508181036000830152612c128161276c565b9050919050565b60006020820190508181036000830152612c328161278f565b9050919050565b60006020820190508181036000830152612c52816127b2565b9050919050565b60006020820190508181036000830152612c72816127d5565b9050919050565b60006020820190508181036000830152612c92816127f8565b9050919050565b60006020820190508181036000830152612cb28161281b565b9050919050565b60006020820190508181036000830152612cd28161283e565b9050919050565b60006020820190508181036000830152612cf281612861565b9050919050565b60006020820190508181036000830152612d1281612884565b9050919050565b6000602082019050612d2e60008301846128a7565b92915050565b6000612d3e612d4f565b9050612d4a8282612f61565b919050565b6000604051905090565b600067ffffffffffffffff821115612d7457612d7361300c565b5b612d7d8261303b565b9050602081019050919050565b60008190508160005260206000209050919050565b600081519050919050565b600081519050919050565b600082825260208201905092915050565b600082825260208201905092915050565b600081905092915050565b6000612ded82612ed6565b9150612df883612ed6565b9250827fffffffffffffffffffffffffffffffffffffffffffffffffffffffffffffffff03821115612e2d57612e2c612fae565b5b828201905092915050565b6000612e4382612ed6565b9150612e4e83612ed6565b925082821015612e6157612e60612fae565b5b828203905092915050565b6000612e7782612eb6565b9050919050565b60008115159050919050565b60007fffffffff0000000000000000000000000000000000000000000000000000000082169050919050565b600073ffffffffffffffffffffffffffffffffffffffff82169050919050565b6000819050919050565b600060ff82169050919050565b82818337600083830152505050565b60005b83811015612f1a578082015181840152602081019050612eff565b83811115612f29576000848401525b50505050565b60006002820490506001821680612f4757607f821691505b60208210811415612f5b57612f5a612fdd565b5b50919050565b612f6a8261303b565b810181811067ffffffffffffffff82111715612f8957612f8861300c565b5b80604052505050565b6000819050919050565b6000612fa78261304c565b9050919050565b7f4e487b7100000000000000000000000000000000000000000000000000000000600052601160045260246000fd5b7f4e487b7100000000000000000000000000000000000000000000000000000000600052602260045260246000fd5b7f4e487b7100000000000000000000000000000000000000000000000000000000600052604160045260246000fd5b6000601f19601f8301169050919050565b60008160f81b9050919050565b7f4552433732313a207472616e7366657220746f206e6f6e20455243373231526560008201527f63656976657220696d706c656d656e7465720000000000000000000000000000602082015250565b7f4552433732313a20746f6b656e20616c7265616479206d696e74656400000000600082015250565b7f4e46545f434f554e545f4d41585f455843454544454400000000000000000000600082015250565b7f4552433732313a207472616e7366657220746f20746865207a65726f2061646460008201527f7265737300000000000000000000000000000000000000000000000000000000602082015250565b7f4552433732313a20617070726f766520746f2063616c6c657200000000000000600082015250565b7f4552433732313a206f70657261746f7220717565727920666f72206e6f6e657860008201527f697374656e7420746f6b656e0000000000000000000000000000000000000000602082015250565b7f4552433732313a20617070726f76652063616c6c6572206973206e6f74206f7760008201527f6e6572206e6f7220617070726f76656420666f7220616c6c0000000000000000602082015250565b7f4552433732313a2062616c616e636520717565727920666f7220746865207a6560008201527f726f206164647265737300000000000000000000000000000000000000000000602082015250565b7f4552433732313a206f776e657220717565727920666f72206e6f6e657869737460008201527f656e7420746f6b656e0000000000000000000000000000000000000000000000602082015250565b7f5552495f45584953545300000000000000000000000000000000000000000000600082015250565b7f544f4b454e5f4e4f545f45584953540000000000000000000000000000000000600082015250565b7f4552433732313a206d696e7420746f20746865207a65726f2061646472657373600082015250565b7f4552433732313a20617070726f76656420717565727920666f72206e6f6e657860008201527f697374656e7420746f6b656e0000000000000000000000000000000000000000602082015250565b7f544f4b454e5f4e4f545f5452414e5346455241424c4500000000000000000000600082015250565b7f4552433732313a207472616e73666572206f6620746f6b656e2074686174206960008201527f73206e6f74206f776e0000000000000000000000000000000000000000000000602082015250565b7f4552433732314d657461646174613a2055524920717565727920666f72206e6f60008201527f6e6578697374656e7420746f6b656e0000000000000000000000000000000000602082015250565b7f4558504952595f444154455f4e4f545f56414c49440000000000000000000000600082015250565b7f4552433732313a20617070726f76616c20746f2063757272656e74206f776e6560008201527f7200000000000000000000000000000000000000000000000000000000000000602082015250565b7f4552433732313a207472616e736665722063616c6c6572206973206e6f74206f60008201527f776e6572206e6f7220617070726f766564000000000000000000000000000000602082015250565b7f4c4943454e53455f4d5553545f42455f4f5f4f525f3100000000000000000000600082015250565b7f544f4b454e5f49445f4e4f545f45584953544544000000000000000000000000600082015250565b61356181612e6c565b811461356c57600080fd5b50565b61357881612e7e565b811461358357600080fd5b50565b61358f81612e8a565b811461359a57600080fd5b50565b6135a681612ed6565b81146135b157600080fd5b50565b6135bd81612ee0565b81146135c857600080fd5b5056fea264697066735822122057385c4c9c56054c0e7b09ec591937820ea20470d31dd6cc33428d1d0f0c39c064736f6c63430008040033",
  "immutableReferences": {},
  "source": "// SPDX-License-Identifier: UNLICENSED\r\n\r\npragma solidity 0.8.4;\r\n\r\nimport \"./lib/token/ERC721/ERC721.sol\";\r\nimport \"./lib/access/AccessControl.sol\";\r\nimport \"./ITaureumKYC.sol\";\r\nimport \"./lib/utils/Counters.sol\";\r\n\r\ncontract TaureumNFT is ERC721 {\r\n    using Counters for Counters.Counter;\r\n    /**\r\n     * @dev A counter to track tokenId.\r\n     */\r\n    Counters.Counter private _tokenIds;\r\n\r\n    /**\r\n     * @dev The contract address for the KYC entry.\r\n     */\r\n    address _KYCAddress;\r\n\r\n    /**\r\n     * @dev Mapping from NFT ID to metadata uri.\r\n     */\r\n    mapping(uint256 => string) internal idToUri;\r\n\r\n    /**\r\n     * @dev Mapping from NFT ID to its first owner.\r\n     */\r\n    mapping(uint256 => address) internal idToFirstOwner;\r\n\r\n    /**\r\n     * @dev Mapping from NFT URI to its existence.\r\n     */\r\n    mapping(string => bool) internal uriExists;\r\n\r\n    /**\r\n     * @dev Mapping from NFT ID to the NFT property (encode the tokenData struct).\r\n     *  - 1st byte determines the license type: 0 => personal license, 1 => full license).\r\n     *  - Next 32 bytes determine the expiry date: MaxUint => no expiry date.\r\n     *\r\n     * TODO: consider adding the URI to this mapping.\r\n     */\r\n    mapping(uint256 => bytes) internal idToProperty;\r\n\r\n    /**\r\n   * @dev Guarantee that _to is able to receive more NFTs.\r\n   * @param _to Owner address to validate.\r\n   */\r\n    modifier canReceiveNFT(\r\n        address _to\r\n    )\r\n    {\r\n        uint256 balance = balanceOf(_to);\r\n        bool isVerifiedUser = ITaureumKYC(_KYCAddress).isVerifiedUser(_to);\r\n\r\n        require(isVerifiedUser || balance < 10, \"NFT_COUNT_MAX_EXCEEDED\");\r\n        _;\r\n    }\r\n\r\n    /**\r\n     * @dev Guarantee the _uri does not exist.\r\n     * @param _uri The IPFS URI of the NFT.\r\n     */\r\n    modifier notExists(\r\n        string memory _uri\r\n    )\r\n    {\r\n        require(!uriExists[_uri], \"URI_EXISTS\");\r\n        _;\r\n    }\r\n\r\n    /**\r\n     * @dev Guarantee the _tokenId is not expired and transferable.\r\n     * @param _tokenId The NFT token ID to validate.\r\n     */\r\n    modifier transferable(\r\n        uint256 _tokenId\r\n    ) {\r\n        require(isTransferable(_tokenId), \"TOKEN_NOT_TRANSFERABLE\");\r\n        _;\r\n    }\r\n\r\n    /**\r\n     * @dev Emitted when `tokenId` token is minted for `to`.\r\n     */\r\n    event Mint(address indexed to, uint256 indexed tokenId, string uri, uint8 license, uint expiryDate);\r\n\r\n    /**\r\n     * @dev Create a new TaureumNFT contract and assign the KYCAddress to _KYCAddress.\r\n     *\r\n     * TODO: change the default name and symbol.\r\n     */\r\n    constructor(address KYCAddress) ERC721(\"Taureum NFT\", \"Taureum\") {\r\n        _KYCAddress = KYCAddress;\r\n    }\r\n\r\n    /**\r\n     * @dev See {IERC165-supportsInterface}.\r\n     */\r\n    function supportsInterface(bytes4 interfaceId) public view virtual override returns (bool) {\r\n        return\r\n        interfaceId == type(IERC721).interfaceId ||\r\n        interfaceId == type(IERC721Metadata).interfaceId ||\r\n        super.supportsInterface(interfaceId);\r\n    }\r\n\r\n    /**\r\n      * @dev Mint a new NFT.\r\n      * It throws an exception if\r\n      *    - uri does not exist.\r\n      *    - to cannot receive NFTs.\r\n      * @param to The address that will own the minted NFT.\r\n      * @param uri The URI consists of metadata description of the minting NFT on the IPFS (without prefix).\r\n      * @param license The license of the minting NFT (0 or 1).\r\n      * @param expiryDate The expiry date of the minting NFT.\r\n      */\r\n    function mint(\r\n        address to,\r\n        string calldata uri,\r\n        uint8 license,\r\n        uint expiryDate\r\n    )\r\n    public\r\n    notExists(uri)\r\n    canReceiveNFT(to)\r\n    {\r\n        require(license < 2, \"LICENSE_MUST_BE_O_OR_1\");\r\n        require(expiryDate > block.timestamp, \"EXPIRY_DATE_NOT_VALID\");\r\n        _tokenIds.increment();\r\n\r\n        uint256 id = _tokenIds.current();\r\n        super._mint(to, id);\r\n        _setTokenUri(id, uri);\r\n        uriExists[uri] = true;\r\n        idToFirstOwner[id] = to;\r\n        idToProperty[id] = abi.encodePacked(license, expiryDate);\r\n\r\n        emit Mint(to, id, uri, license, expiryDate);\r\n    }\r\n\r\n    /**\r\n     * @dev See {IERC721Metadata-tokenURI}.\r\n     */\r\n    function tokenURI(uint256 tokenId) public view override returns (string memory) {\r\n        require(_exists(tokenId), \"ERC721Metadata: URI query for nonexistent token\");\r\n\r\n        string memory baseURI = _baseURI();\r\n        return bytes(baseURI).length > 0 ? string(abi.encodePacked(baseURI, idToUri[tokenId])) : idToUri[tokenId];\r\n    }\r\n\r\n    /**\r\n     * @dev Check if an NFT token is transferable.\r\n     * @param _tokenId The NFT tokenID to check.\r\n     */\r\n    function isTransferable(uint256 _tokenId) internal view returns (bool) {\r\n        address firstOwner = idToFirstOwner[_tokenId];\r\n        bytes memory tokenData = getTokenData(_tokenId);\r\n\r\n        uint8 licenseType = uint8(tokenData[0]);\r\n        if (licenseType != 1 && msg.sender != firstOwner) {\r\n            return false;\r\n        }\r\n\r\n        uint expiryDate;\r\n        assembly {\r\n            expiryDate := mload(add(tokenData, 0x20)) // tokenData[1:33]\r\n        }\r\n        return block.timestamp < expiryDate;\r\n    }\r\n\r\n    /**\r\n     * @dev Return the properties of an NFT token.\r\n     * @notice It throws if the tokenId does not exist.\r\n     * @param _tokenId The NFT tokenID to check.\r\n     */\r\n    function getTokenData(uint256 _tokenId) public view returns(bytes memory tokenData) {\r\n        tokenData = idToProperty[_tokenId];\r\n        require(tokenData.length == 33, \"TOKEN_NOT_EXIST\");\r\n        return tokenData;\r\n    }\r\n\r\n    /**\r\n     * @dev See {IERC721-transferFrom}.\r\n     * @notice It throws an exception if\r\n     *      - the tokenId is not transferable.\r\n     *      - the receiver `to` cannot receive more TaureumNFTs.\r\n     */\r\n    function transferFrom(\r\n        address from,\r\n        address to,\r\n        uint256 tokenId\r\n    ) public override transferable(tokenId) canReceiveNFT(to) {\r\n        //solhint-disable-next-line max-line-length\r\n        require(_isApprovedOrOwner(_msgSender(), tokenId), \"ERC721: transfer caller is not owner nor approved\");\r\n\r\n        _transfer(from, to, tokenId);\r\n    }\r\n\r\n    /**\r\n     * @dev See {IERC721-safeTransferFrom}.\r\n     * @notice It throws an exception if\r\n     *      - the tokenId is not transferable.\r\n     *      - the receiver `to` cannot receive more TaureumNFTs.\r\n     */\r\n    function safeTransferFrom(\r\n        address from,\r\n        address to,\r\n        uint256 tokenId,\r\n        bytes memory _data\r\n    ) public override transferable(tokenId) canReceiveNFT(to) {\r\n        require(_isApprovedOrOwner(_msgSender(), tokenId), \"ERC721: transfer caller is not owner nor approved\");\r\n        _safeTransfer(from, to, tokenId, _data);\r\n    }\r\n\r\n    /**\r\n     * @dev Base URI for computing {tokenURI}. If set, the resulting URI for each\r\n     * token will be the concatenation of the `baseURI` and the `tokenId`.\r\n     */\r\n    function _baseURI() internal pure override returns (string memory) {\r\n        return \"ipfs://\";\r\n    }\r\n\r\n    /**\r\n     * @dev Set a distinct URI (RFC 3986) for a given NFT ID.\r\n     * @notice This is an internal function which should be called from user-implemented external\r\n     * function.\r\n     * @notice It throws an exception if the _tokenId does not exist.\r\n     * @param _tokenId Id for which we want URI.\r\n     * @param _uri String representing RFC 3986 URI.\r\n     */\r\n    function _setTokenUri(\r\n        uint256 _tokenId,\r\n        string calldata _uri\r\n    )\r\n    internal\r\n    {\r\n        require(_exists(_tokenId), \"TOKEN_ID_NOT_EXISTED\");\r\n        idToUri[_tokenId] = _uri;\r\n    }\r\n\r\n}\r\n",
  "sourcePath": "D:/00_TauDefi/github/taudefi-nft/contracts/TaureumNFT.sol",
  "compiler": {
    "name": "solc",
    "version": "0.8.4+commit.c7e474f2.Emscripten.clang"
  },
  "schemaVersion": "3.4.1",
  "updatedAt": "2021-07-11T01:47:46.493Z",
  "devdoc": {
    "events": {
      "Mint(address,uint256,string,uint8,uint256)": {
        "details": "Emitted when `tokenId` token is minted for `to`."
      }
    },
    "kind": "dev",
    "methods": {
      "approve(address,uint256)": {
        "details": "See {IERC721-approve}."
      },
      "balanceOf(address)": {
        "details": "See {IERC721-balanceOf}."
      },
      "constructor": {
        "details": "Create a new TaureumNFT contract and assign the KYCAddress to _KYCAddress. TODO: change the default name and symbol."
      },
      "getApproved(uint256)": {
        "details": "See {IERC721-getApproved}."
      },
      "getTokenData(uint256)": {
        "details": "Return the properties of an NFT token.",
        "params": {
          "_tokenId": "The NFT tokenID to check."
        }
      },
      "isApprovedForAll(address,address)": {
        "details": "See {IERC721-isApprovedForAll}."
      },
      "mint(address,string,uint8,uint256)": {
        "details": "Mint a new NFT. It throws an exception if    - uri does not exist.    - to cannot receive NFTs.",
        "params": {
          "expiryDate": "The expiry date of the minting NFT.",
          "license": "The license of the minting NFT (0 or 1).",
          "to": "The address that will own the minted NFT.",
          "uri": "The URI consists of metadata description of the minting NFT on the IPFS (without prefix)."
        }
      },
      "name()": {
        "details": "See {IERC721Metadata-name}."
      },
      "ownerOf(uint256)": {
        "details": "See {IERC721-ownerOf}."
      },
      "safeTransferFrom(address,address,uint256)": {
        "details": "See {IERC721-safeTransferFrom}."
      },
      "safeTransferFrom(address,address,uint256,bytes)": {
        "details": "See {IERC721-safeTransferFrom}."
      },
      "setApprovalForAll(address,bool)": {
        "details": "See {IERC721-setApprovalForAll}."
      },
      "supportsInterface(bytes4)": {
        "details": "See {IERC165-supportsInterface}."
      },
      "symbol()": {
        "details": "See {IERC721Metadata-symbol}."
      },
      "tokenURI(uint256)": {
        "details": "See {IERC721Metadata-tokenURI}."
      },
      "transferFrom(address,address,uint256)": {
        "details": "See {IERC721-transferFrom}."
      }
    },
    "stateVariables": {
      "_KYCAddress": {
        "details": "The contract address for the KYC entry."
      },
      "_tokenIds": {
        "details": "A counter to track tokenId."
      },
      "idToFirstOwner": {
        "details": "Mapping from NFT ID to its first owner."
      },
      "idToProperty": {
        "details": "Mapping from NFT ID to the NFT property (encode the tokenData struct).  - 1st byte determines the license type: 0 => personal license, 1 => full license).  - Next 32 bytes determine the expiry date: MaxUint => no expiry date. TODO: consider adding the URI to this mapping."
      },
      "idToUri": {
        "details": "Mapping from NFT ID to metadata uri."
      },
      "uriExists": {
        "details": "Mapping from NFT URI to its existence."
      }
    },
    "version": 1
  },
  "userdoc": {
    "kind": "user",
    "methods": {
      "getTokenData(uint256)": {
        "notice": "It throws if the tokenId does not exist."
      },
      "safeTransferFrom(address,address,uint256,bytes)": {
        "notice": "It throws an exception if      - the tokenId is not transferable.      - the receiver `to` cannot receive more TaureumNFTs."
      },
      "transferFrom(address,address,uint256)": {
        "notice": "It throws an exception if      - the tokenId is not transferable.      - the receiver `to` cannot receive more TaureumNFTs."
      }
    },
    "version": 1
  }
}