{
  "contractName": "TaureumERC1155",
  "abi": [
    {
      "inputs": [
        {
          "internalType": "string",
          "name": "baseURI_",
          "type": "string"
        }
      ],
      "stateMutability": "nonpayable",
      "type": "constructor"
    },
    {
      "anonymous": false,
      "inputs": [
        {
          "indexed": true,
          "internalType": "address",
          "name": "account",
          "type": "address"
        },
        {
          "indexed": true,
          "internalType": "address",
          "name": "operator",
          "type": "address"
        },
        {
          "indexed": false,
          "internalType": "bool",
          "name": "approved",
          "type": "bool"
        }
      ],
      "name": "ApprovalForAll",
      "type": "event"
    },
    {
      "anonymous": false,
      "inputs": [
        {
          "indexed": true,
          "internalType": "address",
          "name": "previousOwner",
          "type": "address"
        },
        {
          "indexed": true,
          "internalType": "address",
          "name": "newOwner",
          "type": "address"
        }
      ],
      "name": "OwnershipTransferred",
      "type": "event"
    },
    {
      "anonymous": false,
      "inputs": [
        {
          "indexed": true,
          "internalType": "address",
          "name": "operator",
          "type": "address"
        },
        {
          "indexed": true,
          "internalType": "address",
          "name": "from",
          "type": "address"
        },
        {
          "indexed": true,
          "internalType": "address",
          "name": "to",
          "type": "address"
        },
        {
          "indexed": false,
          "internalType": "uint256[]",
          "name": "ids",
          "type": "uint256[]"
        },
        {
          "indexed": false,
          "internalType": "uint256[]",
          "name": "values",
          "type": "uint256[]"
        }
      ],
      "name": "TransferBatch",
      "type": "event"
    },
    {
      "anonymous": false,
      "inputs": [
        {
          "indexed": true,
          "internalType": "address",
          "name": "operator",
          "type": "address"
        },
        {
          "indexed": true,
          "internalType": "address",
          "name": "from",
          "type": "address"
        },
        {
          "indexed": true,
          "internalType": "address",
          "name": "to",
          "type": "address"
        },
        {
          "indexed": false,
          "internalType": "uint256",
          "name": "id",
          "type": "uint256"
        },
        {
          "indexed": false,
          "internalType": "uint256",
          "name": "value",
          "type": "uint256"
        }
      ],
      "name": "TransferSingle",
      "type": "event"
    },
    {
      "anonymous": false,
      "inputs": [
        {
          "indexed": false,
          "internalType": "string",
          "name": "value",
          "type": "string"
        },
        {
          "indexed": true,
          "internalType": "uint256",
          "name": "id",
          "type": "uint256"
        }
      ],
      "name": "URI",
      "type": "event"
    },
    {
      "inputs": [
        {
          "internalType": "address",
          "name": "account",
          "type": "address"
        },
        {
          "internalType": "uint256",
          "name": "id",
          "type": "uint256"
        }
      ],
      "name": "balanceOf",
      "outputs": [
        {
          "internalType": "uint256",
          "name": "",
          "type": "uint256"
        }
      ],
      "stateMutability": "view",
      "type": "function"
    },
    {
      "inputs": [
        {
          "internalType": "address[]",
          "name": "accounts",
          "type": "address[]"
        },
        {
          "internalType": "uint256[]",
          "name": "ids",
          "type": "uint256[]"
        }
      ],
      "name": "balanceOfBatch",
      "outputs": [
        {
          "internalType": "uint256[]",
          "name": "",
          "type": "uint256[]"
        }
      ],
      "stateMutability": "view",
      "type": "function"
    },
    {
      "inputs": [
        {
          "internalType": "address",
          "name": "account",
          "type": "address"
        },
        {
          "internalType": "address",
          "name": "operator",
          "type": "address"
        }
      ],
      "name": "isApprovedForAll",
      "outputs": [
        {
          "internalType": "bool",
          "name": "",
          "type": "bool"
        }
      ],
      "stateMutability": "view",
      "type": "function"
    },
    {
      "inputs": [],
      "name": "owner",
      "outputs": [
        {
          "internalType": "address",
          "name": "",
          "type": "address"
        }
      ],
      "stateMutability": "view",
      "type": "function"
    },
    {
      "inputs": [],
      "name": "renounceOwnership",
      "outputs": [],
      "stateMutability": "nonpayable",
      "type": "function"
    },
    {
      "inputs": [
        {
          "internalType": "address",
          "name": "from",
          "type": "address"
        },
        {
          "internalType": "address",
          "name": "to",
          "type": "address"
        },
        {
          "internalType": "uint256[]",
          "name": "ids",
          "type": "uint256[]"
        },
        {
          "internalType": "uint256[]",
          "name": "amounts",
          "type": "uint256[]"
        },
        {
          "internalType": "bytes",
          "name": "data",
          "type": "bytes"
        }
      ],
      "name": "safeBatchTransferFrom",
      "outputs": [],
      "stateMutability": "nonpayable",
      "type": "function"
    },
    {
      "inputs": [
        {
          "internalType": "address",
          "name": "from",
          "type": "address"
        },
        {
          "internalType": "address",
          "name": "to",
          "type": "address"
        },
        {
          "internalType": "uint256",
          "name": "id",
          "type": "uint256"
        },
        {
          "internalType": "uint256",
          "name": "amount",
          "type": "uint256"
        },
        {
          "internalType": "bytes",
          "name": "data",
          "type": "bytes"
        }
      ],
      "name": "safeTransferFrom",
      "outputs": [],
      "stateMutability": "nonpayable",
      "type": "function"
    },
    {
      "inputs": [
        {
          "internalType": "address",
          "name": "operator",
          "type": "address"
        },
        {
          "internalType": "bool",
          "name": "approved",
          "type": "bool"
        }
      ],
      "name": "setApprovalForAll",
      "outputs": [],
      "stateMutability": "nonpayable",
      "type": "function"
    },
    {
      "inputs": [
        {
          "internalType": "bytes4",
          "name": "interfaceId",
          "type": "bytes4"
        }
      ],
      "name": "supportsInterface",
      "outputs": [
        {
          "internalType": "bool",
          "name": "",
          "type": "bool"
        }
      ],
      "stateMutability": "view",
      "type": "function"
    },
    {
      "inputs": [
        {
          "internalType": "address",
          "name": "newOwner",
          "type": "address"
        }
      ],
      "name": "transferOwnership",
      "outputs": [],
      "stateMutability": "nonpayable",
      "type": "function"
    },
    {
      "inputs": [
        {
          "internalType": "uint256",
          "name": "id",
          "type": "uint256"
        }
      ],
      "name": "totalSupply",
      "outputs": [
        {
          "internalType": "uint256",
          "name": "",
          "type": "uint256"
        }
      ],
      "stateMutability": "view",
      "type": "function"
    },
    {
      "inputs": [
        {
          "internalType": "uint256",
          "name": "_id",
          "type": "uint256"
        }
      ],
      "name": "exists",
      "outputs": [
        {
          "internalType": "bool",
          "name": "",
          "type": "bool"
        }
      ],
      "stateMutability": "view",
      "type": "function"
    },
    {
      "inputs": [
        {
          "internalType": "uint256",
          "name": "_id",
          "type": "uint256"
        }
      ],
      "name": "getCreator",
      "outputs": [
        {
          "internalType": "address",
          "name": "",
          "type": "address"
        }
      ],
      "stateMutability": "view",
      "type": "function"
    },
    {
      "inputs": [
        {
          "internalType": "address",
          "name": "to",
          "type": "address"
        },
        {
          "internalType": "string",
          "name": "uri_",
          "type": "string"
        },
        {
          "internalType": "uint256",
          "name": "amount",
          "type": "uint256"
        },
        {
          "internalType": "bytes",
          "name": "data",
          "type": "bytes"
        }
      ],
      "name": "mint",
      "outputs": [
        {
          "internalType": "uint256",
          "name": "",
          "type": "uint256"
        }
      ],
      "stateMutability": "nonpayable",
      "type": "function"
    },
    {
      "inputs": [
        {
          "internalType": "address",
          "name": "to",
          "type": "address"
        },
        {
          "internalType": "string[]",
          "name": "uriList",
          "type": "string[]"
        },
        {
          "internalType": "uint256[]",
          "name": "amounts",
          "type": "uint256[]"
        },
        {
          "internalType": "bytes",
          "name": "data",
          "type": "bytes"
        }
      ],
      "name": "mintBatch",
      "outputs": [
        {
          "internalType": "uint256[]",
          "name": "",
          "type": "uint256[]"
        }
      ],
      "stateMutability": "nonpayable",
      "type": "function"
    },
    {
      "inputs": [
        {
          "internalType": "string",
          "name": "newURI",
          "type": "string"
        }
      ],
      "name": "setURI",
      "outputs": [],
      "stateMutability": "nonpayable",
      "type": "function"
    },
    {
      "inputs": [
        {
          "internalType": "uint256",
          "name": "tokenId",
          "type": "uint256"
        }
      ],
      "name": "uri",
      "outputs": [
        {
          "internalType": "string",
          "name": "",
          "type": "string"
        }
      ],
      "stateMutability": "view",
      "type": "function"
    }
  ],
  "bytecode": "0x60806040523480156200001157600080fd5b506040516200475538038062004755833981810160405281019062000037919062000248565b8062000049816200010260201b60201c565b5060006200005c6200011e60201b60201c565b905080600360006101000a81548173ffffffffffffffffffffffffffffffffffffffff021916908373ffffffffffffffffffffffffffffffffffffffff1602179055508073ffffffffffffffffffffffffffffffffffffffff16600073ffffffffffffffffffffffffffffffffffffffff167f8be0079c531659141344cd1fd0a4f28419497f9722a3daafe3b4186f6b6457e060405160405180910390a35050620003fd565b80600290805190602001906200011a92919062000126565b5050565b600033905090565b828054620001349062000322565b90600052602060002090601f016020900481019282620001585760008555620001a4565b82601f106200017357805160ff1916838001178555620001a4565b82800160010185558215620001a4579182015b82811115620001a357825182559160200191906001019062000186565b5b509050620001b39190620001b7565b5090565b5b80821115620001d2576000816000905550600101620001b8565b5090565b6000620001ed620001e784620002b6565b6200028d565b9050828152602081018484840111156200020657600080fd5b62000213848285620002ec565b509392505050565b600082601f8301126200022d57600080fd5b81516200023f848260208601620001d6565b91505092915050565b6000602082840312156200025b57600080fd5b600082015167ffffffffffffffff8111156200027657600080fd5b62000284848285016200021b565b91505092915050565b600062000299620002ac565b9050620002a7828262000358565b919050565b6000604051905090565b600067ffffffffffffffff821115620002d457620002d3620003bd565b5b620002df82620003ec565b9050602081019050919050565b60005b838110156200030c578082015181840152602081019050620002ef565b838111156200031c576000848401525b50505050565b600060028204905060018216806200033b57607f821691505b602082108114156200035257620003516200038e565b5b50919050565b6200036382620003ec565b810181811067ffffffffffffffff82111715620003855762000384620003bd565b5b80604052505050565b7f4e487b7100000000000000000000000000000000000000000000000000000000600052602260045260246000fd5b7f4e487b7100000000000000000000000000000000000000000000000000000000600052604160045260246000fd5b6000601f19601f8301169050919050565b614348806200040d6000396000f3fe608060405234801561001057600080fd5b506004361061010a5760003560e01c80635523c250116100a2578063bd85b03911610071578063bd85b039146102db578063d48e638a1461030b578063e985e9c51461033b578063f242432a1461036b578063f2fde38b146103875761010a565b80635523c25014610267578063715018a6146102975780638da5cb5b146102a1578063a22cb465146102bf5761010a565b80632eb2c2d6116100de5780632eb2c2d6146101bb578063428a328b146101d75780634e1273f4146102075780634f558e79146102375761010a565b8062fdd58e1461010f57806301ffc9a71461013f57806302fe53051461016f5780630e89341c1461018b575b600080fd5b61012960048036038101906101249190612e82565b6103a3565b6040516101369190613866565b60405180910390f35b61015960048036038101906101549190612f2a565b61046c565b60405161016691906135e9565b60405180910390f35b61018960048036038101906101849190612f7c565b61054e565b005b6101a560048036038101906101a09190612fbd565b6105d6565b6040516101b29190613604565b60405180910390f35b6101d560048036038101906101d09190612bad565b610714565b005b6101f160048036038101906101ec9190612cfb565b610b0a565b6040516101fe9190613590565b60405180910390f35b610221600480360381019061021c9190612ebe565b610ea8565b60405161022e9190613590565b60405180910390f35b610251600480360381019061024c9190612fbd565b611059565b60405161025e91906135e9565b60405180910390f35b610281600480360381019061027c9190612dea565b611078565b60405161028e9190613866565b60405180910390f35b61029f611142565b005b6102a961127f565b6040516102b69190613481565b60405180910390f35b6102d960048036038101906102d49190612dae565b6112a9565b005b6102f560048036038101906102f09190612fbd565b61142a565b6040516103029190613866565b60405180910390f35b61032560048036038101906103209190612fbd565b611447565b6040516103329190613481565b60405180910390f35b61035560048036038101906103509190612b71565b611484565b60405161036291906135e9565b60405180910390f35b61038560048036038101906103809190612c6c565b611518565b005b6103a1600480360381019061039c9190612b48565b611830565b005b60008073ffffffffffffffffffffffffffffffffffffffff168373ffffffffffffffffffffffffffffffffffffffff161415610414576040517f08c379a000000000000000000000000000000000000000000000000000000000815260040161040b906136a6565b60405180910390fd5b60008083815260200190815260200160002060008473ffffffffffffffffffffffffffffffffffffffff1673ffffffffffffffffffffffffffffffffffffffff16815260200190815260200160002054905092915050565b60007fd9b67a26000000000000000000000000000000000000000000000000000000007bffffffffffffffffffffffffffffffffffffffffffffffffffffffff1916827bffffffffffffffffffffffffffffffffffffffffffffffffffffffff1916148061053757507f0e89341c000000000000000000000000000000000000000000000000000000007bffffffffffffffffffffffffffffffffffffffffffffffffffffffff1916827bffffffffffffffffffffffffffffffffffffffffffffffffffffffff1916145b806105475750610546826119dc565b5b9050919050565b610556611a46565b73ffffffffffffffffffffffffffffffffffffffff1661057461127f565b73ffffffffffffffffffffffffffffffffffffffff16146105ca576040517f08c379a00000000000000000000000000000000000000000000000000000000081526004016105c1906137c6565b60405180910390fd5b6105d381611a4e565b50565b60606105e182611059565b610620576040517f08c379a000000000000000000000000000000000000000000000000000000000815260040161061790613786565b60405180910390fd5b600061062b83611a68565b905060008151116106d75760066000848152602001908152602001600020805461065490613bb1565b80601f016020809104026020016040519081016040528092919081815260200182805461068090613bb1565b80156106cd5780601f106106a2576101008083540402835291602001916106cd565b820191906000526020600020905b8154815290600101906020018083116106b057829003601f168201915b505050505061070c565b80600660008581526020019081526020016000206040516020016106fc92919061345d565b6040516020818303038152906040525b915050919050565b8151835114610758576040517f08c379a000000000000000000000000000000000000000000000000000000000815260040161074f90613826565b60405180910390fd5b600073ffffffffffffffffffffffffffffffffffffffff168473ffffffffffffffffffffffffffffffffffffffff1614156107c8576040517f08c379a00000000000000000000000000000000000000000000000000000000081526004016107bf90613726565b60405180910390fd5b6107d0611a46565b73ffffffffffffffffffffffffffffffffffffffff168573ffffffffffffffffffffffffffffffffffffffff161480610816575061081585610810611a46565b611484565b5b610855576040517f08c379a000000000000000000000000000000000000000000000000000000000815260040161084c90613746565b60405180910390fd5b600061085f611a46565b905061086f818787878787611afc565b60005b8451811015610a755760008582815181106108b6577f4e487b7100000000000000000000000000000000000000000000000000000000600052603260045260246000fd5b6020026020010151905060008583815181106108fb577f4e487b7100000000000000000000000000000000000000000000000000000000600052603260045260246000fd5b60200260200101519050600080600084815260200190815260200160002060008b73ffffffffffffffffffffffffffffffffffffffff1673ffffffffffffffffffffffffffffffffffffffff1681526020019081526020016000205490508181101561099c576040517f08c379a0000000000000000000000000000000000000000000000000000000008152600401610993906137a6565b60405180910390fd5b81816109a89190613ac7565b60008085815260200190815260200160002060008c73ffffffffffffffffffffffffffffffffffffffff1673ffffffffffffffffffffffffffffffffffffffff168152602001908152602001600020819055508160008085815260200190815260200160002060008b73ffffffffffffffffffffffffffffffffffffffff1673ffffffffffffffffffffffffffffffffffffffff1681526020019081526020016000206000828254610a5a9190613a71565b9250508190555050505080610a6e90613c14565b9050610872565b508473ffffffffffffffffffffffffffffffffffffffff168673ffffffffffffffffffffffffffffffffffffffff168273ffffffffffffffffffffffffffffffffffffffff167f4a39dc06d4c0dbc64b70af90fd698a233a518aa5d07e595d983b8c0526c8f7fb8787604051610aec9291906135b2565b60405180910390a4610b02818787878787611b04565b505050505050565b6060838390508686905014610b54576040517f08c379a0000000000000000000000000000000000000000000000000000000008152600401610b4b90613686565b60405180910390fd5b60008686905067ffffffffffffffff811115610b99577f4e487b7100000000000000000000000000000000000000000000000000000000600052604160045260246000fd5b604051908082528060200260200182016040528015610bc75781602001602082028036833780820191505090505b50905060005b87879050811015610ca55788888883818110610c12577f4e487b7100000000000000000000000000000000000000000000000000000000600052603260045260246000fd5b9050602002810190610c2491906138aa565b604051602001610c369392919061355e565b6040516020818303038152906040528051906020012060001c828281518110610c88577f4e487b7100000000000000000000000000000000000000000000000000000000600052603260045260246000fd5b60200260200101818152505080610c9e90613c14565b9050610bcd565b50610cf38882878780806020026020016040519081016040528093929190818152602001838360200280828437600081840152601f19601f8201169050808301925050505050505086611ceb565b60005b87879050811015610e9957610d95828281518110610d3d577f4e487b7100000000000000000000000000000000000000000000000000000000600052603260045260246000fd5b6020026020010151898984818110610d7e577f4e487b7100000000000000000000000000000000000000000000000000000000600052603260045260246000fd5b9050602002810190610d9091906138aa565b611dc5565b600073ffffffffffffffffffffffffffffffffffffffff1660046000848481518110610dea577f4e487b7100000000000000000000000000000000000000000000000000000000600052603260045260246000fd5b6020026020010151815260200190815260200160002060009054906101000a900473ffffffffffffffffffffffffffffffffffffffff1673ffffffffffffffffffffffffffffffffffffffff161415610e8857610e87828281518110610e79577f4e487b7100000000000000000000000000000000000000000000000000000000600052603260045260246000fd5b60200260200101518a611e35565b5b80610e9290613c14565b9050610cf6565b50809150509695505050505050565b60608151835114610eee576040517f08c379a0000000000000000000000000000000000000000000000000000000008152600401610ee590613806565b60405180910390fd5b6000835167ffffffffffffffff811115610f31577f4e487b7100000000000000000000000000000000000000000000000000000000600052604160045260246000fd5b604051908082528060200260200182016040528015610f5f5781602001602082028036833780820191505090505b50905060005b845181101561104e57610ff8858281518110610faa577f4e487b7100000000000000000000000000000000000000000000000000000000600052603260045260246000fd5b6020026020010151858381518110610feb577f4e487b7100000000000000000000000000000000000000000000000000000000600052603260045260246000fd5b60200260200101516103a3565b828281518110611031577f4e487b7100000000000000000000000000000000000000000000000000000000600052603260045260246000fd5b6020026020010181815250508061104790613c14565b9050610f65565b508091505092915050565b6000806005600084815260200190815260200160002054119050919050565b6000808686866040516020016110909392919061355e565b6040516020818303038152906040528051906020012060001c90506110b787828686611f9d565b6110c2818787611dc5565b600073ffffffffffffffffffffffffffffffffffffffff166004600083815260200190815260200160002060009054906101000a900473ffffffffffffffffffffffffffffffffffffffff1673ffffffffffffffffffffffffffffffffffffffff161415611135576111348188611e35565b5b8091505095945050505050565b61114a611a46565b73ffffffffffffffffffffffffffffffffffffffff1661116861127f565b73ffffffffffffffffffffffffffffffffffffffff16146111be576040517f08c379a00000000000000000000000000000000000000000000000000000000081526004016111b5906137c6565b60405180910390fd5b600073ffffffffffffffffffffffffffffffffffffffff16600360009054906101000a900473ffffffffffffffffffffffffffffffffffffffff1673ffffffffffffffffffffffffffffffffffffffff167f8be0079c531659141344cd1fd0a4f28419497f9722a3daafe3b4186f6b6457e060405160405180910390a36000600360006101000a81548173ffffffffffffffffffffffffffffffffffffffff021916908373ffffffffffffffffffffffffffffffffffffffff160217905550565b6000600360009054906101000a900473ffffffffffffffffffffffffffffffffffffffff16905090565b8173ffffffffffffffffffffffffffffffffffffffff166112c8611a46565b73ffffffffffffffffffffffffffffffffffffffff16141561131f576040517f08c379a0000000000000000000000000000000000000000000000000000000008152600401611316906137e6565b60405180910390fd5b806001600061132c611a46565b73ffffffffffffffffffffffffffffffffffffffff1673ffffffffffffffffffffffffffffffffffffffff16815260200190815260200160002060008473ffffffffffffffffffffffffffffffffffffffff1673ffffffffffffffffffffffffffffffffffffffff16815260200190815260200160002060006101000a81548160ff0219169083151502179055508173ffffffffffffffffffffffffffffffffffffffff166113d9611a46565b73ffffffffffffffffffffffffffffffffffffffff167f17307eab39ab6107e8899845ad3d59bd9653f200f220920489ca2b5937696c318360405161141e91906135e9565b60405180910390a35050565b600060056000838152602001908152602001600020549050919050565b60006004600083815260200190815260200160002060009054906101000a900473ffffffffffffffffffffffffffffffffffffffff169050919050565b6000600160008473ffffffffffffffffffffffffffffffffffffffff1673ffffffffffffffffffffffffffffffffffffffff16815260200190815260200160002060008373ffffffffffffffffffffffffffffffffffffffff1673ffffffffffffffffffffffffffffffffffffffff16815260200190815260200160002060009054906101000a900460ff16905092915050565b600073ffffffffffffffffffffffffffffffffffffffff168473ffffffffffffffffffffffffffffffffffffffff161415611588576040517f08c379a000000000000000000000000000000000000000000000000000000000815260040161157f90613726565b60405180910390fd5b611590611a46565b73ffffffffffffffffffffffffffffffffffffffff168573ffffffffffffffffffffffffffffffffffffffff1614806115d657506115d5856115d0611a46565b611484565b5b611615576040517f08c379a000000000000000000000000000000000000000000000000000000000815260040161160c906136e6565b60405180910390fd5b600061161f611a46565b905061163f8187876116308861201c565b6116398861201c565b87611afc565b600080600086815260200190815260200160002060008873ffffffffffffffffffffffffffffffffffffffff1673ffffffffffffffffffffffffffffffffffffffff168152602001908152602001600020549050838110156116d6576040517f08c379a00000000000000000000000000000000000000000000000000000000081526004016116cd906137a6565b60405180910390fd5b83816116e29190613ac7565b60008087815260200190815260200160002060008973ffffffffffffffffffffffffffffffffffffffff1673ffffffffffffffffffffffffffffffffffffffff168152602001908152602001600020819055508360008087815260200190815260200160002060008873ffffffffffffffffffffffffffffffffffffffff1673ffffffffffffffffffffffffffffffffffffffff16815260200190815260200160002060008282546117949190613a71565b925050819055508573ffffffffffffffffffffffffffffffffffffffff168773ffffffffffffffffffffffffffffffffffffffff168373ffffffffffffffffffffffffffffffffffffffff167fc3d58168c5ae7397731d063d5bbf3d657854427343f4c083240f7aacaa2d0f628888604051611811929190613881565b60405180910390a46118278288888888886120e2565b50505050505050565b611838611a46565b73ffffffffffffffffffffffffffffffffffffffff1661185661127f565b73ffffffffffffffffffffffffffffffffffffffff16146118ac576040517f08c379a00000000000000000000000000000000000000000000000000000000081526004016118a3906137c6565b60405180910390fd5b600073ffffffffffffffffffffffffffffffffffffffff168173ffffffffffffffffffffffffffffffffffffffff16141561191c576040517f08c379a0000000000000000000000000000000000000000000000000000000008152600401611913906136c6565b60405180910390fd5b8073ffffffffffffffffffffffffffffffffffffffff16600360009054906101000a900473ffffffffffffffffffffffffffffffffffffffff1673ffffffffffffffffffffffffffffffffffffffff167f8be0079c531659141344cd1fd0a4f28419497f9722a3daafe3b4186f6b6457e060405160405180910390a380600360006101000a81548173ffffffffffffffffffffffffffffffffffffffff021916908373ffffffffffffffffffffffffffffffffffffffff16021790555050565b60007f01ffc9a7000000000000000000000000000000000000000000000000000000007bffffffffffffffffffffffffffffffffffffffffffffffffffffffff1916827bffffffffffffffffffffffffffffffffffffffffffffffffffffffff1916149050919050565b600033905090565b8060029080519060200190611a649291906126dc565b5050565b606060028054611a7790613bb1565b80601f0160208091040260200160405190810160405280929190818152602001828054611aa390613bb1565b8015611af05780601f10611ac557610100808354040283529160200191611af0565b820191906000526020600020905b815481529060010190602001808311611ad357829003601f168201915b50505050509050919050565b505050505050565b611b238473ffffffffffffffffffffffffffffffffffffffff166122c9565b15611ce3578373ffffffffffffffffffffffffffffffffffffffff1663bc197c8187878686866040518663ffffffff1660e01b8152600401611b6995949392919061349c565b602060405180830381600087803b158015611b8357600080fd5b505af1925050508015611bb457506040513d601f19601f82011682018060405250810190611bb19190612f53565b60015b611c5a57611bc0613cea565b806308c379a01415611c1d5750611bd5614220565b80611be05750611c1f565b806040517f08c379a0000000000000000000000000000000000000000000000000000000008152600401611c149190613604565b60405180910390fd5b505b6040517f08c379a0000000000000000000000000000000000000000000000000000000008152600401611c5190613626565b60405180910390fd5b63bc197c8160e01b7bffffffffffffffffffffffffffffffffffffffffffffffffffffffff1916817bffffffffffffffffffffffffffffffffffffffffffffffffffffffff191614611ce1576040517f08c379a0000000000000000000000000000000000000000000000000000000008152600401611cd890613646565b60405180910390fd5b505b505050505050565b611cf7848484846122dc565b60005b8351811015611dbe57828181518110611d3c577f4e487b7100000000000000000000000000000000000000000000000000000000600052603260045260246000fd5b602002602001015160056000868481518110611d81577f4e487b7100000000000000000000000000000000000000000000000000000000600052603260045260246000fd5b602002602001015181526020019081526020016000206000828254611da69190613a71565b9250508190555080611db790613c14565b9050611cfa565b5050505050565b611dce83611059565b611e0d576040517f08c379a0000000000000000000000000000000000000000000000000000000008152600401611e0490613786565b60405180910390fd5b8181600660008681526020019081526020016000209190611e2f929190612762565b50505050565b600073ffffffffffffffffffffffffffffffffffffffff168173ffffffffffffffffffffffffffffffffffffffff161415611ea5576040517f08c379a0000000000000000000000000000000000000000000000000000000008152600401611e9c90613666565b60405180910390fd5b600073ffffffffffffffffffffffffffffffffffffffff166004600084815260200190815260200160002060009054906101000a900473ffffffffffffffffffffffffffffffffffffffff1673ffffffffffffffffffffffffffffffffffffffff1614611f47576040517f08c379a0000000000000000000000000000000000000000000000000000000008152600401611f3e90613706565b60405180910390fd5b806004600084815260200190815260200160002060006101000a81548173ffffffffffffffffffffffffffffffffffffffff021916908373ffffffffffffffffffffffffffffffffffffffff1602179055505050565b60008211611fe0576040517f08c379a0000000000000000000000000000000000000000000000000000000008152600401611fd790613766565b60405180910390fd5b611fec84848484612546565b8160056000858152602001908152602001600020600082825461200f9190613a71565b9250508190555050505050565b60606000600167ffffffffffffffff811115612061577f4e487b7100000000000000000000000000000000000000000000000000000000600052604160045260246000fd5b60405190808252806020026020018201604052801561208f5781602001602082028036833780820191505090505b50905082816000815181106120cd577f4e487b7100000000000000000000000000000000000000000000000000000000600052603260045260246000fd5b60200260200101818152505080915050919050565b6121018473ffffffffffffffffffffffffffffffffffffffff166122c9565b156122c1578373ffffffffffffffffffffffffffffffffffffffff1663f23a6e6187878686866040518663ffffffff1660e01b8152600401612147959493929190613504565b602060405180830381600087803b15801561216157600080fd5b505af192505050801561219257506040513d601f19601f8201168201806040525081019061218f9190612f53565b60015b6122385761219e613cea565b806308c379a014156121fb57506121b3614220565b806121be57506121fd565b806040517f08c379a00000000000000000000000000000000000000000000000000000000081526004016121f29190613604565b60405180910390fd5b505b6040517f08c379a000000000000000000000000000000000000000000000000000000000815260040161222f90613626565b60405180910390fd5b63f23a6e6160e01b7bffffffffffffffffffffffffffffffffffffffffffffffffffffffff1916817bffffffffffffffffffffffffffffffffffffffffffffffffffffffff1916146122bf576040517f08c379a00000000000000000000000000000000000000000000000000000000081526004016122b690613646565b60405180910390fd5b505b505050505050565b600080823b905060008111915050919050565b600073ffffffffffffffffffffffffffffffffffffffff168473ffffffffffffffffffffffffffffffffffffffff16141561234c576040517f08c379a000000000000000000000000000000000000000000000000000000000815260040161234390613846565b60405180910390fd5b8151835114612390576040517f08c379a000000000000000000000000000000000000000000000000000000000815260040161238790613826565b60405180910390fd5b600061239a611a46565b90506123ab81600087878787611afc565b60005b84518110156124b0578381815181106123f0577f4e487b7100000000000000000000000000000000000000000000000000000000600052603260045260246000fd5b6020026020010151600080878481518110612434577f4e487b7100000000000000000000000000000000000000000000000000000000600052603260045260246000fd5b6020026020010151815260200190815260200160002060008873ffffffffffffffffffffffffffffffffffffffff1673ffffffffffffffffffffffffffffffffffffffff16815260200190815260200160002060008282546124969190613a71565b9250508190555080806124a890613c14565b9150506123ae565b508473ffffffffffffffffffffffffffffffffffffffff16600073ffffffffffffffffffffffffffffffffffffffff168273ffffffffffffffffffffffffffffffffffffffff167f4a39dc06d4c0dbc64b70af90fd698a233a518aa5d07e595d983b8c0526c8f7fb87876040516125289291906135b2565b60405180910390a461253f81600087878787611b04565b5050505050565b600073ffffffffffffffffffffffffffffffffffffffff168473ffffffffffffffffffffffffffffffffffffffff1614156125b6576040517f08c379a00000000000000000000000000000000000000000000000000000000081526004016125ad90613846565b60405180910390fd5b60006125c0611a46565b90506125e1816000876125d28861201c565b6125db8861201c565b87611afc565b8260008086815260200190815260200160002060008773ffffffffffffffffffffffffffffffffffffffff1673ffffffffffffffffffffffffffffffffffffffff16815260200190815260200160002060008282546126409190613a71565b925050819055508473ffffffffffffffffffffffffffffffffffffffff16600073ffffffffffffffffffffffffffffffffffffffff168273ffffffffffffffffffffffffffffffffffffffff167fc3d58168c5ae7397731d063d5bbf3d657854427343f4c083240f7aacaa2d0f6287876040516126be929190613881565b60405180910390a46126d5816000878787876120e2565b5050505050565b8280546126e890613bb1565b90600052602060002090601f01602090048101928261270a5760008555612751565b82601f1061272357805160ff1916838001178555612751565b82800160010185558215612751579182015b82811115612750578251825591602001919060010190612735565b5b50905061275e91906127e8565b5090565b82805461276e90613bb1565b90600052602060002090601f01602090048101928261279057600085556127d7565b82601f106127a957803560ff19168380011785556127d7565b828001600101855582156127d7579182015b828111156127d65782358255916020019190600101906127bb565b5b5090506127e491906127e8565b5090565b5b808211156128015760008160009055506001016127e9565b5090565b600061281861281384613926565b613901565b9050808382526020820190508285602086028201111561283757600080fd5b60005b85811015612867578161284d8882612959565b84526020840193506020830192505060018101905061283a565b5050509392505050565b600061288461287f84613952565b613901565b905080838252602082019050828560208602820111156128a357600080fd5b60005b858110156128d357816128b98882612b33565b8452602084019350602083019250506001810190506128a6565b5050509392505050565b60006128f06128eb8461397e565b613901565b90508281526020810184848401111561290857600080fd5b612913848285613b6f565b509392505050565b600061292e612929846139af565b613901565b90508281526020810184848401111561294657600080fd5b612951848285613b6f565b509392505050565b600081359050612968816142b6565b92915050565b600082601f83011261297f57600080fd5b813561298f848260208601612805565b91505092915050565b60008083601f8401126129aa57600080fd5b8235905067ffffffffffffffff8111156129c357600080fd5b6020830191508360208202830111156129db57600080fd5b9250929050565b60008083601f8401126129f457600080fd5b8235905067ffffffffffffffff811115612a0d57600080fd5b602083019150836020820283011115612a2557600080fd5b9250929050565b600082601f830112612a3d57600080fd5b8135612a4d848260208601612871565b91505092915050565b600081359050612a65816142cd565b92915050565b600081359050612a7a816142e4565b92915050565b600081519050612a8f816142e4565b92915050565b600082601f830112612aa657600080fd5b8135612ab68482602086016128dd565b91505092915050565b60008083601f840112612ad157600080fd5b8235905067ffffffffffffffff811115612aea57600080fd5b602083019150836001820283011115612b0257600080fd5b9250929050565b600082601f830112612b1a57600080fd5b8135612b2a84826020860161291b565b91505092915050565b600081359050612b42816142fb565b92915050565b600060208284031215612b5a57600080fd5b6000612b6884828501612959565b91505092915050565b60008060408385031215612b8457600080fd5b6000612b9285828601612959565b9250506020612ba385828601612959565b9150509250929050565b600080600080600060a08688031215612bc557600080fd5b6000612bd388828901612959565b9550506020612be488828901612959565b945050604086013567ffffffffffffffff811115612c0157600080fd5b612c0d88828901612a2c565b935050606086013567ffffffffffffffff811115612c2a57600080fd5b612c3688828901612a2c565b925050608086013567ffffffffffffffff811115612c5357600080fd5b612c5f88828901612a95565b9150509295509295909350565b600080600080600060a08688031215612c8457600080fd5b6000612c9288828901612959565b9550506020612ca388828901612959565b9450506040612cb488828901612b33565b9350506060612cc588828901612b33565b925050608086013567ffffffffffffffff811115612ce257600080fd5b612cee88828901612a95565b9150509295509295909350565b60008060008060008060808789031215612d1457600080fd5b6000612d2289828a01612959565b965050602087013567ffffffffffffffff811115612d3f57600080fd5b612d4b89828a01612998565b9550955050604087013567ffffffffffffffff811115612d6a57600080fd5b612d7689828a016129e2565b9350935050606087013567ffffffffffffffff811115612d9557600080fd5b612da189828a01612a95565b9150509295509295509295565b60008060408385031215612dc157600080fd5b6000612dcf85828601612959565b9250506020612de085828601612a56565b9150509250929050565b600080600080600060808688031215612e0257600080fd5b6000612e1088828901612959565b955050602086013567ffffffffffffffff811115612e2d57600080fd5b612e3988828901612abf565b94509450506040612e4c88828901612b33565b925050606086013567ffffffffffffffff811115612e6957600080fd5b612e7588828901612a95565b9150509295509295909350565b60008060408385031215612e9557600080fd5b6000612ea385828601612959565b9250506020612eb485828601612b33565b9150509250929050565b60008060408385031215612ed157600080fd5b600083013567ffffffffffffffff811115612eeb57600080fd5b612ef78582860161296e565b925050602083013567ffffffffffffffff811115612f1457600080fd5b612f2085828601612a2c565b9150509250929050565b600060208284031215612f3c57600080fd5b6000612f4a84828501612a6b565b91505092915050565b600060208284031215612f6557600080fd5b6000612f7384828501612a80565b91505092915050565b600060208284031215612f8e57600080fd5b600082013567ffffffffffffffff811115612fa857600080fd5b612fb484828501612b09565b91505092915050565b600060208284031215612fcf57600080fd5b6000612fdd84828501612b33565b91505092915050565b6000612ff2838361343f565b60208301905092915050565b61300781613afb565b82525050565b600061301882613a05565b6130228185613a33565b935061302d836139e0565b8060005b8381101561305e5781516130458882612fe6565b975061305083613a26565b925050600181019050613031565b5085935050505092915050565b61307481613b0d565b82525050565b600061308582613a10565b61308f8185613a44565b935061309f818560208601613b7e565b6130a881613d0c565b840191505092915050565b60006130bf8385613a55565b93506130cc838584613b6f565b6130d583613d0c565b840190509392505050565b60006130eb82613a1b565b6130f58185613a55565b9350613105818560208601613b7e565b61310e81613d0c565b840191505092915050565b600061312482613a1b565b61312e8185613a66565b935061313e818560208601613b7e565b80840191505092915050565b6000815461315781613bb1565b6131618186613a66565b9450600182166000811461317c576001811461318d576131c0565b60ff198316865281860193506131c0565b613196856139f0565b60005b838110156131b857815481890152600182019150602081019050613199565b838801955050505b50505092915050565b60006131d6603483613a55565b91506131e182613d2a565b604082019050919050565b60006131f9602883613a55565b915061320482613d79565b604082019050919050565b600061321c601d83613a55565b915061322782613dc8565b602082019050919050565b600061323f602383613a55565b915061324a82613df1565b604082019050919050565b6000613262602b83613a55565b915061326d82613e40565b604082019050919050565b6000613285602683613a55565b915061329082613e8f565b604082019050919050565b60006132a8602983613a55565b91506132b382613ede565b604082019050919050565b60006132cb601e83613a55565b91506132d682613f2d565b602082019050919050565b60006132ee602583613a55565b91506132f982613f56565b604082019050919050565b6000613311603283613a55565b915061331c82613fa5565b604082019050919050565b6000613334601c83613a55565b915061333f82613ff4565b602082019050919050565b6000613357602883613a55565b91506133628261401d565b604082019050919050565b600061337a602a83613a55565b91506133858261406c565b604082019050919050565b600061339d602083613a55565b91506133a8826140bb565b602082019050919050565b60006133c0602983613a55565b91506133cb826140e4565b604082019050919050565b60006133e3602983613a55565b91506133ee82614133565b604082019050919050565b6000613406602883613a55565b915061341182614182565b604082019050919050565b6000613429602183613a55565b9150613434826141d1565b604082019050919050565b61344881613b65565b82525050565b61345781613b65565b82525050565b60006134698285613119565b9150613475828461314a565b91508190509392505050565b60006020820190506134966000830184612ffe565b92915050565b600060a0820190506134b16000830188612ffe565b6134be6020830187612ffe565b81810360408301526134d0818661300d565b905081810360608301526134e4818561300d565b905081810360808301526134f8818461307a565b90509695505050505050565b600060a0820190506135196000830188612ffe565b6135266020830187612ffe565b613533604083018661344e565b613540606083018561344e565b8181036080830152613552818461307a565b90509695505050505050565b60006040820190506135736000830186612ffe565b81810360208301526135868184866130b3565b9050949350505050565b600060208201905081810360008301526135aa818461300d565b905092915050565b600060408201905081810360008301526135cc818561300d565b905081810360208301526135e0818461300d565b90509392505050565b60006020820190506135fe600083018461306b565b92915050565b6000602082019050818103600083015261361e81846130e0565b905092915050565b6000602082019050818103600083015261363f816131c9565b9050919050565b6000602082019050818103600083015261365f816131ec565b9050919050565b6000602082019050818103600083015261367f8161320f565b9050919050565b6000602082019050818103600083015261369f81613232565b9050919050565b600060208201905081810360008301526136bf81613255565b9050919050565b600060208201905081810360008301526136df81613278565b9050919050565b600060208201905081810360008301526136ff8161329b565b9050919050565b6000602082019050818103600083015261371f816132be565b9050919050565b6000602082019050818103600083015261373f816132e1565b9050919050565b6000602082019050818103600083015261375f81613304565b9050919050565b6000602082019050818103600083015261377f81613327565b9050919050565b6000602082019050818103600083015261379f8161334a565b9050919050565b600060208201905081810360008301526137bf8161336d565b9050919050565b600060208201905081810360008301526137df81613390565b9050919050565b600060208201905081810360008301526137ff816133b3565b9050919050565b6000602082019050818103600083015261381f816133d6565b9050919050565b6000602082019050818103600083015261383f816133f9565b9050919050565b6000602082019050818103600083015261385f8161341c565b9050919050565b600060208201905061387b600083018461344e565b92915050565b6000604082019050613896600083018561344e565b6138a3602083018461344e565b9392505050565b600080833560016020038436030381126138c357600080fd5b80840192508235915067ffffffffffffffff8211156138e157600080fd5b6020830192506001820236038313156138f957600080fd5b509250929050565b600061390b61391c565b90506139178282613be3565b919050565b6000604051905090565b600067ffffffffffffffff82111561394157613940613cbb565b5b602082029050602081019050919050565b600067ffffffffffffffff82111561396d5761396c613cbb565b5b602082029050602081019050919050565b600067ffffffffffffffff82111561399957613998613cbb565b5b6139a282613d0c565b9050602081019050919050565b600067ffffffffffffffff8211156139ca576139c9613cbb565b5b6139d382613d0c565b9050602081019050919050565b6000819050602082019050919050565b60008190508160005260206000209050919050565b600081519050919050565b600081519050919050565b600081519050919050565b6000602082019050919050565b600082825260208201905092915050565b600082825260208201905092915050565b600082825260208201905092915050565b600081905092915050565b6000613a7c82613b65565b9150613a8783613b65565b9250827fffffffffffffffffffffffffffffffffffffffffffffffffffffffffffffffff03821115613abc57613abb613c5d565b5b828201905092915050565b6000613ad282613b65565b9150613add83613b65565b925082821015613af057613aef613c5d565b5b828203905092915050565b6000613b0682613b45565b9050919050565b60008115159050919050565b60007fffffffff0000000000000000000000000000000000000000000000000000000082169050919050565b600073ffffffffffffffffffffffffffffffffffffffff82169050919050565b6000819050919050565b82818337600083830152505050565b60005b83811015613b9c578082015181840152602081019050613b81565b83811115613bab576000848401525b50505050565b60006002820490506001821680613bc957607f821691505b60208210811415613bdd57613bdc613c8c565b5b50919050565b613bec82613d0c565b810181811067ffffffffffffffff82111715613c0b57613c0a613cbb565b5b80604052505050565b6000613c1f82613b65565b91507fffffffffffffffffffffffffffffffffffffffffffffffffffffffffffffffff821415613c5257613c51613c5d565b5b600182019050919050565b7f4e487b7100000000000000000000000000000000000000000000000000000000600052601160045260246000fd5b7f4e487b7100000000000000000000000000000000000000000000000000000000600052602260045260246000fd5b7f4e487b7100000000000000000000000000000000000000000000000000000000600052604160045260246000fd5b600060033d1115613d095760046000803e613d06600051613d1d565b90505b90565b6000601f19601f8301169050919050565b60008160e01c9050919050565b7f455243313135353a207472616e7366657220746f206e6f6e204552433131353560008201527f526563656976657220696d706c656d656e746572000000000000000000000000602082015250565b7f455243313135353a204552433131353552656365697665722072656a6563746560008201527f6420746f6b656e73000000000000000000000000000000000000000000000000602082015250565b7f455243313135353a207a65726f20616464726573732063726561746f72000000600082015250565b7f455243313135353a206d696e744261746368206c656e67746873206d69736d6160008201527f7463680000000000000000000000000000000000000000000000000000000000602082015250565b7f455243313135353a2062616c616e636520717565727920666f7220746865207a60008201527f65726f2061646472657373000000000000000000000000000000000000000000602082015250565b7f4f776e61626c653a206e6577206f776e657220697320746865207a65726f206160008201527f6464726573730000000000000000000000000000000000000000000000000000602082015250565b7f455243313135353a2063616c6c6572206973206e6f74206f776e6572206e6f7260008201527f20617070726f7665640000000000000000000000000000000000000000000000602082015250565b7f455243313135353a20616c72656164792068616420612063726561746f720000600082015250565b7f455243313135353a207472616e7366657220746f20746865207a65726f20616460008201527f6472657373000000000000000000000000000000000000000000000000000000602082015250565b7f455243313135353a207472616e736665722063616c6c6572206973206e6f742060008201527f6f776e6572206e6f7220617070726f7665640000000000000000000000000000602082015250565b7f455243313135353a206d696e7420616d6f756e74206973207a65726f00000000600082015250565b7f455243313135353a2055524920717565727920666f72206e6f6e65786973746560008201527f6e7420746f6b656e000000000000000000000000000000000000000000000000602082015250565b7f455243313135353a20696e73756666696369656e742062616c616e636520666f60008201527f72207472616e7366657200000000000000000000000000000000000000000000602082015250565b7f4f776e61626c653a2063616c6c6572206973206e6f7420746865206f776e6572600082015250565b7f455243313135353a2073657474696e6720617070726f76616c2073746174757360008201527f20666f722073656c660000000000000000000000000000000000000000000000602082015250565b7f455243313135353a206163636f756e747320616e6420696473206c656e67746860008201527f206d69736d617463680000000000000000000000000000000000000000000000602082015250565b7f455243313135353a2069647320616e6420616d6f756e7473206c656e6774682060008201527f6d69736d61746368000000000000000000000000000000000000000000000000602082015250565b7f455243313135353a206d696e7420746f20746865207a65726f2061646472657360008201527f7300000000000000000000000000000000000000000000000000000000000000602082015250565b600060443d1015614230576142b3565b61423861391c565b60043d036004823e80513d602482011167ffffffffffffffff821117156142605750506142b3565b808201805167ffffffffffffffff81111561427e57505050506142b3565b80602083010160043d03850181111561429b5750505050506142b3565b6142aa82602001850186613be3565b82955050505050505b90565b6142bf81613afb565b81146142ca57600080fd5b50565b6142d681613b0d565b81146142e157600080fd5b50565b6142ed81613b19565b81146142f857600080fd5b50565b61430481613b65565b811461430f57600080fd5b5056fea26469706673582212209e93b60740b1e1af2451c0a70a197174c4c0d3f4b67395a5ba07967e0716fa6764736f6c63430008040033",
  "immutableReferences": {},
  "source": "// SPDX-License-Identifier: UNLICENSED\n\npragma solidity 0.8.4;\n\nimport \"../../lib/token/ERC1155/ERC1155.sol\";\nimport \"../../lib/token/ERC1155/extensions/ERC1155Supply.sol\";\nimport \"../../lib/access/Ownable.sol\";\n\ncontract TaureumERC1155 is ERC1155, Ownable {\n    /**\n     * @dev Mapping from token IDs to their creator.\n     */\n    mapping(uint256 => address) internal _creator;\n\n    /**\n     * @dev Mapping from token IDs to their total supplies.\n     */\n    mapping(uint256 => uint256) internal _totalSupply;\n\n    /**\n     * @dev Mapping from NFT ID to metadata uri.\n     */\n    mapping(uint256 => string) internal _idToUri;\n\n    modifier creatorOrApproved(address creator) {\n        address operator = msg.sender;\n        require(operator == creator || isApprovedForAll(creator, msg.sender), \"ERC1155: caller is not creator nor approved\");\n        _;\n    }\n\n    /**\n     * @dev Create a new TaureumERC1155 contract and set the `_uri` value.\n     *\n     */\n    constructor(string memory baseURI_) ERC1155(baseURI_) Ownable() {\n    }\n\n    /**\n     * @dev Total amount of tokens in with a given id.\n     */\n    function totalSupply(uint256 id) public view virtual returns (uint256) {\n        return _totalSupply[id];\n    }\n\n    /**\n     * @dev Return the indicator whether a token exists given its id.\n     */\n    function exists(uint256 _id) public view virtual returns (bool) {\n        return _totalSupply[_id] > 0;\n    }\n\n    /**\n     * @dev Return the creator of an NFT given its id.\n     */\n    function getCreator(uint256 _id) external view returns (address) {\n        return _creator[_id];\n    }\n\n    /**\n     * @dev Mint a new ERC1155 token. A token can only be minted once.\n     * @notice It reverts if\n     *      - The `msg.sender` is not `to` or approved by `to`.\n     *      - `to` is the zero address.\n     *      - `to` cannot receive the token.\n     */\n    function mint(\n        address to,\n        string calldata uri_,\n        uint256 amount,\n        bytes memory data\n    ) external virtual returns (uint256){\n        uint256 id = uint256(keccak256(abi.encode(to, uri_)));\n\n        _mint(to, id, amount, data);\n        _setTokenUri(id, uri_);\n\n        // save the creator (if needed)\n        if (_creator[id] == address(0x0)) {\n            _saveCreator(id, to);\n        }\n\n        return id;\n    }\n\n    /**\n     * @dev Mint a batch of tokens.\n     */\n    function mintBatch(\n        address to,\n        string[] calldata uriList,\n        uint256[] calldata amounts,\n        bytes memory data\n    ) external virtual returns (uint256[] memory) {\n        require(uriList.length == amounts.length, \"ERC1155: mintBatch lengths mismatch\");\n\n        uint256[] memory ids = new uint256[](uriList.length);\n        for (uint256 i = 0; i < uriList.length; ++i) {\n            ids[i] = uint256(keccak256(abi.encode(to, uriList[i])));\n        }\n\n        _mintBatch(to, ids, amounts, data);\n        for (uint256 i = 0; i < uriList.length; ++i) {\n            _setTokenUri(ids[i], uriList[i]);\n\n            // save the creator (if needed)\n            if (_creator[ids[i]] == address(0x0)) {\n                _saveCreator(ids[i], to);\n            }\n        }\n\n        return ids;\n    }\n\n    /**\n     * @dev Sets a new URI for all token types, by relying on the token type ID\n     * substitution mechanism\n     * https://eips.ethereum.org/EIPS/eip-1155#metadata[defined in the EIP].\n     *\n     * By this mechanism, any occurrence of the `\\{id\\}` substring in either the\n     * URI or any of the amounts in the JSON file at said URI will be replaced by\n     * clients with the token type ID.\n     *\n     * For example, the `https://token-cdn-domain/\\{id\\}.json` URI would be\n     * interpreted by clients as\n     * `https://token-cdn-domain/000000000000000000000000000000000000000000000000000000000004cce0.json`\n     * for token type ID 0x4cce0.\n     *\n     * See {uri}.\n     *\n     * Because these URIs cannot be meaningfully represented by the {URI} event,\n     * this function emits no events.\n     */\n    function setURI(string memory newURI) public onlyOwner {\n        _setURI(newURI);\n    }\n\n    /**\n     * @dev Return the URI of a tokenId.\n     */\n    function uri(uint256 tokenId) public view virtual override returns (string memory) {\n        require(exists(tokenId), \"ERC1155: URI query for nonexistent token\");\n\n        string memory baseURI = super.uri(tokenId);\n\n        return bytes(baseURI).length > 0 ? string(abi.encodePacked(baseURI, _idToUri[tokenId])) : _idToUri[tokenId];\n    }\n\n    /**\n     * @dev Set a distinct URI (RFC 3986) for a given NFT ID.\n     * @notice This is an internal function which should be called from user-implemented external\n     * function.\n     * @notice It throws an exception if the _tokenId does not exist.\n     * @param tokenId_ Id for which we want URI.\n     * @param uri_ String representing RFC 3986 URI.\n     */\n    function _setTokenUri(\n        uint256 tokenId_,\n        string calldata uri_\n    )\n    internal\n    {\n        require(exists(tokenId_), \"ERC1155: URI query for nonexistent token\");\n        _idToUri[tokenId_] = uri_;\n    }\n\n    /**\n     * @dev Save the creator of a token.\n     * @notice It reverts when\n     *   - `_creator` is the zero address; or\n     *   - the tokenId already had a creator.\n     */\n    function _saveCreator(uint256 tokenId, address creator_) internal {\n        require(creator_ != address(0x0), \"ERC1155: zero address creator\");\n        require(_creator[tokenId] == address(0x0), \"ERC1155: already had a creator\");\n        _creator[tokenId] = creator_;\n    }\n\n    /**\n     * @dev See {ERC1155-_mint}.\n     */\n    function _mint(address account, uint256 id, uint256 amount, bytes memory data) internal virtual override {\n        require(amount > 0, \"ERC1155: mint amount is zero\");\n        super._mint(account, id, amount, data);\n        _totalSupply[id] += amount;\n    }\n\n    /**\n     * @dev See {ERC1155-_mintBatch}.\n     */\n    function _mintBatch(\n        address to,\n        uint256[] memory ids,\n        uint256[] memory amounts,\n        bytes memory data\n    ) internal virtual override {\n        super._mintBatch(to, ids, amounts, data);\n        for (uint256 i = 0; i < ids.length; ++i) {\n            _totalSupply[ids[i]] += amounts[i];\n        }\n    }\n\n    /**\n     * @dev See {ERC1155-_burn}.\n     */\n    function _burn(\n        address account,\n        uint256 id,\n        uint256 amount\n    ) internal virtual override {\n        super._burn(account, id, amount);\n        _totalSupply[id] -= amount;\n    }\n\n    /**\n     * @dev See {ERC1155-_burnBatch}.\n     */\n    function _burnBatch(\n        address account,\n        uint256[] memory ids,\n        uint256[] memory amounts\n    ) internal virtual override {\n        super._burnBatch(account, ids, amounts);\n        for (uint256 i = 0; i < ids.length; ++i) {\n            _totalSupply[ids[i]] -= amounts[i];\n        }\n    }\n\n}\n",
  "sourcePath": "/home/toor/nodejs/truffle/nft_demo/taureum/taureum-nft-sc/contracts/tokens/ERC1155/TaureumERC1155.sol",
  "compiler": {
    "name": "solc",
    "version": "0.8.4+commit.c7e474f2.Emscripten.clang"
  },
  "schemaVersion": "3.4.1",
  "updatedAt": "2021-08-29T03:51:06.620Z",
  "networkType": "ethereum",
  "devdoc": {
    "kind": "dev",
    "methods": {
      "balanceOf(address,uint256)": {
        "details": "See {IERC1155-balanceOf}. Requirements: - `account` cannot be the zero address."
      },
      "balanceOfBatch(address[],uint256[])": {
        "details": "See {IERC1155-balanceOfBatch}. Requirements: - `accounts` and `ids` must have the same length."
      },
      "constructor": {
        "details": "Create a new TaureumERC1155 contract and set the `_uri` value."
      },
      "exists(uint256)": {
        "details": "Return the indicator whether a token exists given its id."
      },
      "getCreator(uint256)": {
        "details": "Return the creator of an NFT given its id."
      },
      "isApprovedForAll(address,address)": {
        "details": "See {IERC1155-isApprovedForAll}."
      },
      "mint(address,string,uint256,bytes)": {
        "details": "Mint a new ERC1155 token. A token can only be minted once."
      },
      "mintBatch(address,string[],uint256[],bytes)": {
        "details": "Mint a batch of tokens."
      },
      "owner()": {
        "details": "Returns the address of the current owner."
      },
      "renounceOwnership()": {
        "details": "Leaves the contract without owner. It will not be possible to call `onlyOwner` functions anymore. Can only be called by the current owner. NOTE: Renouncing ownership will leave the contract without an owner, thereby removing any functionality that is only available to the owner."
      },
      "safeBatchTransferFrom(address,address,uint256[],uint256[],bytes)": {
        "details": "See {IERC1155-safeBatchTransferFrom}."
      },
      "safeTransferFrom(address,address,uint256,uint256,bytes)": {
        "details": "See {IERC1155-safeTransferFrom}."
      },
      "setApprovalForAll(address,bool)": {
        "details": "See {IERC1155-setApprovalForAll}."
      },
      "setURI(string)": {
        "details": "Sets a new URI for all token types, by relying on the token type ID substitution mechanism https://eips.ethereum.org/EIPS/eip-1155#metadata[defined in the EIP]. By this mechanism, any occurrence of the `\\{id\\}` substring in either the URI or any of the amounts in the JSON file at said URI will be replaced by clients with the token type ID. For example, the `https://token-cdn-domain/\\{id\\}.json` URI would be interpreted by clients as `https://token-cdn-domain/000000000000000000000000000000000000000000000000000000000004cce0.json` for token type ID 0x4cce0. See {uri}. Because these URIs cannot be meaningfully represented by the {URI} event, this function emits no events."
      },
      "supportsInterface(bytes4)": {
        "details": "See {IERC165-supportsInterface}."
      },
      "totalSupply(uint256)": {
        "details": "Total amount of tokens in with a given id."
      },
      "transferOwnership(address)": {
        "details": "Transfers ownership of the contract to a new account (`newOwner`). Can only be called by the current owner."
      },
      "uri(uint256)": {
        "details": "Return the URI of a tokenId."
      }
    },
    "stateVariables": {
      "_creator": {
        "details": "Mapping from token IDs to their creator."
      },
      "_idToUri": {
        "details": "Mapping from NFT ID to metadata uri."
      },
      "_totalSupply": {
        "details": "Mapping from token IDs to their total supplies."
      }
    },
    "version": 1
  },
  "userdoc": {
    "kind": "user",
    "methods": {
      "mint(address,string,uint256,bytes)": {
        "notice": "It reverts if      - The `msg.sender` is not `to` or approved by `to`.      - `to` is the zero address.      - `to` cannot receive the token."
      }
    },
    "version": 1
  }
}