{
  "contractName": "TaureumERC721LazyMint",
  "abi": [
    {
      "inputs": [],
      "stateMutability": "nonpayable",
      "type": "constructor"
    },
    {
      "anonymous": false,
      "inputs": [
        {
          "indexed": true,
          "internalType": "address",
          "name": "owner",
          "type": "address"
        },
        {
          "indexed": true,
          "internalType": "address",
          "name": "approved",
          "type": "address"
        },
        {
          "indexed": true,
          "internalType": "uint256",
          "name": "tokenId",
          "type": "uint256"
        }
      ],
      "name": "Approval",
      "type": "event"
    },
    {
      "anonymous": false,
      "inputs": [
        {
          "indexed": true,
          "internalType": "address",
          "name": "owner",
          "type": "address"
        },
        {
          "indexed": true,
          "internalType": "address",
          "name": "operator",
          "type": "address"
        },
        {
          "indexed": false,
          "internalType": "bool",
          "name": "approved",
          "type": "bool"
        }
      ],
      "name": "ApprovalForAll",
      "type": "event"
    },
    {
      "anonymous": false,
      "inputs": [
        {
          "indexed": true,
          "internalType": "address",
          "name": "minter",
          "type": "address"
        },
        {
          "indexed": true,
          "internalType": "address",
          "name": "redeemer",
          "type": "address"
        },
        {
          "indexed": false,
          "internalType": "string",
          "name": "uri",
          "type": "string"
        },
        {
          "indexed": false,
          "internalType": "bytes",
          "name": "signature",
          "type": "bytes"
        }
      ],
      "name": "Redeem",
      "type": "event"
    },
    {
      "anonymous": false,
      "inputs": [
        {
          "indexed": true,
          "internalType": "bytes32",
          "name": "role",
          "type": "bytes32"
        },
        {
          "indexed": true,
          "internalType": "bytes32",
          "name": "previousAdminRole",
          "type": "bytes32"
        },
        {
          "indexed": true,
          "internalType": "bytes32",
          "name": "newAdminRole",
          "type": "bytes32"
        }
      ],
      "name": "RoleAdminChanged",
      "type": "event"
    },
    {
      "anonymous": false,
      "inputs": [
        {
          "indexed": true,
          "internalType": "bytes32",
          "name": "role",
          "type": "bytes32"
        },
        {
          "indexed": true,
          "internalType": "address",
          "name": "account",
          "type": "address"
        },
        {
          "indexed": true,
          "internalType": "address",
          "name": "sender",
          "type": "address"
        }
      ],
      "name": "RoleGranted",
      "type": "event"
    },
    {
      "anonymous": false,
      "inputs": [
        {
          "indexed": true,
          "internalType": "bytes32",
          "name": "role",
          "type": "bytes32"
        },
        {
          "indexed": true,
          "internalType": "address",
          "name": "account",
          "type": "address"
        },
        {
          "indexed": true,
          "internalType": "address",
          "name": "sender",
          "type": "address"
        }
      ],
      "name": "RoleRevoked",
      "type": "event"
    },
    {
      "anonymous": false,
      "inputs": [
        {
          "indexed": true,
          "internalType": "address",
          "name": "from",
          "type": "address"
        },
        {
          "indexed": true,
          "internalType": "address",
          "name": "to",
          "type": "address"
        },
        {
          "indexed": true,
          "internalType": "uint256",
          "name": "tokenId",
          "type": "uint256"
        }
      ],
      "name": "Transfer",
      "type": "event"
    },
    {
      "inputs": [],
      "name": "DEFAULT_ADMIN_ROLE",
      "outputs": [
        {
          "internalType": "bytes32",
          "name": "",
          "type": "bytes32"
        }
      ],
      "stateMutability": "view",
      "type": "function",
      "constant": true
    },
    {
      "inputs": [],
      "name": "MINTER_ROLE",
      "outputs": [
        {
          "internalType": "bytes32",
          "name": "",
          "type": "bytes32"
        }
      ],
      "stateMutability": "view",
      "type": "function",
      "constant": true
    },
    {
      "inputs": [
        {
          "internalType": "address",
          "name": "to",
          "type": "address"
        },
        {
          "internalType": "uint256",
          "name": "tokenId",
          "type": "uint256"
        }
      ],
      "name": "approve",
      "outputs": [],
      "stateMutability": "nonpayable",
      "type": "function"
    },
    {
      "inputs": [
        {
          "internalType": "address",
          "name": "owner",
          "type": "address"
        }
      ],
      "name": "balanceOf",
      "outputs": [
        {
          "internalType": "uint256",
          "name": "",
          "type": "uint256"
        }
      ],
      "stateMutability": "view",
      "type": "function",
      "constant": true
    },
    {
      "inputs": [
        {
          "internalType": "uint256",
          "name": "tokenId",
          "type": "uint256"
        }
      ],
      "name": "getApproved",
      "outputs": [
        {
          "internalType": "address",
          "name": "",
          "type": "address"
        }
      ],
      "stateMutability": "view",
      "type": "function",
      "constant": true
    },
    {
      "inputs": [
        {
          "internalType": "bytes32",
          "name": "role",
          "type": "bytes32"
        }
      ],
      "name": "getRoleAdmin",
      "outputs": [
        {
          "internalType": "bytes32",
          "name": "",
          "type": "bytes32"
        }
      ],
      "stateMutability": "view",
      "type": "function",
      "constant": true
    },
    {
      "inputs": [
        {
          "internalType": "bytes32",
          "name": "role",
          "type": "bytes32"
        },
        {
          "internalType": "address",
          "name": "account",
          "type": "address"
        }
      ],
      "name": "grantRole",
      "outputs": [],
      "stateMutability": "nonpayable",
      "type": "function"
    },
    {
      "inputs": [
        {
          "internalType": "bytes32",
          "name": "role",
          "type": "bytes32"
        },
        {
          "internalType": "address",
          "name": "account",
          "type": "address"
        }
      ],
      "name": "hasRole",
      "outputs": [
        {
          "internalType": "bool",
          "name": "",
          "type": "bool"
        }
      ],
      "stateMutability": "view",
      "type": "function",
      "constant": true
    },
    {
      "inputs": [
        {
          "internalType": "address",
          "name": "owner",
          "type": "address"
        },
        {
          "internalType": "address",
          "name": "operator",
          "type": "address"
        }
      ],
      "name": "isApprovedForAll",
      "outputs": [
        {
          "internalType": "bool",
          "name": "",
          "type": "bool"
        }
      ],
      "stateMutability": "view",
      "type": "function",
      "constant": true
    },
    {
      "inputs": [
        {
          "internalType": "address",
          "name": "to",
          "type": "address"
        },
        {
          "internalType": "string",
          "name": "uri",
          "type": "string"
        }
      ],
      "name": "mint",
      "outputs": [
        {
          "internalType": "uint256",
          "name": "",
          "type": "uint256"
        }
      ],
      "stateMutability": "nonpayable",
      "type": "function"
    },
    {
      "inputs": [],
      "name": "name",
      "outputs": [
        {
          "internalType": "string",
          "name": "",
          "type": "string"
        }
      ],
      "stateMutability": "view",
      "type": "function",
      "constant": true
    },
    {
      "inputs": [
        {
          "internalType": "uint256",
          "name": "tokenId",
          "type": "uint256"
        }
      ],
      "name": "ownerOf",
      "outputs": [
        {
          "internalType": "address",
          "name": "",
          "type": "address"
        }
      ],
      "stateMutability": "view",
      "type": "function",
      "constant": true
    },
    {
      "inputs": [
        {
          "internalType": "bytes32",
          "name": "role",
          "type": "bytes32"
        },
        {
          "internalType": "address",
          "name": "account",
          "type": "address"
        }
      ],
      "name": "renounceRole",
      "outputs": [],
      "stateMutability": "nonpayable",
      "type": "function"
    },
    {
      "inputs": [
        {
          "internalType": "bytes32",
          "name": "role",
          "type": "bytes32"
        },
        {
          "internalType": "address",
          "name": "account",
          "type": "address"
        }
      ],
      "name": "revokeRole",
      "outputs": [],
      "stateMutability": "nonpayable",
      "type": "function"
    },
    {
      "inputs": [
        {
          "internalType": "address",
          "name": "to",
          "type": "address"
        },
        {
          "internalType": "string",
          "name": "uri",
          "type": "string"
        }
      ],
      "name": "safeMint",
      "outputs": [
        {
          "internalType": "uint256",
          "name": "",
          "type": "uint256"
        }
      ],
      "stateMutability": "nonpayable",
      "type": "function"
    },
    {
      "inputs": [
        {
          "internalType": "address",
          "name": "from",
          "type": "address"
        },
        {
          "internalType": "address",
          "name": "to",
          "type": "address"
        },
        {
          "internalType": "uint256",
          "name": "tokenId",
          "type": "uint256"
        }
      ],
      "name": "safeTransferFrom",
      "outputs": [],
      "stateMutability": "nonpayable",
      "type": "function"
    },
    {
      "inputs": [
        {
          "internalType": "address",
          "name": "from",
          "type": "address"
        },
        {
          "internalType": "address",
          "name": "to",
          "type": "address"
        },
        {
          "internalType": "uint256",
          "name": "tokenId",
          "type": "uint256"
        },
        {
          "internalType": "bytes",
          "name": "_data",
          "type": "bytes"
        }
      ],
      "name": "safeTransferFrom",
      "outputs": [],
      "stateMutability": "nonpayable",
      "type": "function"
    },
    {
      "inputs": [
        {
          "internalType": "address",
          "name": "operator",
          "type": "address"
        },
        {
          "internalType": "bool",
          "name": "approved",
          "type": "bool"
        }
      ],
      "name": "setApprovalForAll",
      "outputs": [],
      "stateMutability": "nonpayable",
      "type": "function"
    },
    {
      "inputs": [],
      "name": "symbol",
      "outputs": [
        {
          "internalType": "string",
          "name": "",
          "type": "string"
        }
      ],
      "stateMutability": "view",
      "type": "function",
      "constant": true
    },
    {
      "inputs": [
        {
          "internalType": "uint256",
          "name": "index",
          "type": "uint256"
        }
      ],
      "name": "tokenByIndex",
      "outputs": [
        {
          "internalType": "uint256",
          "name": "",
          "type": "uint256"
        }
      ],
      "stateMutability": "view",
      "type": "function",
      "constant": true
    },
    {
      "inputs": [
        {
          "internalType": "address",
          "name": "owner",
          "type": "address"
        },
        {
          "internalType": "uint256",
          "name": "index",
          "type": "uint256"
        }
      ],
      "name": "tokenOfOwnerByIndex",
      "outputs": [
        {
          "internalType": "uint256",
          "name": "",
          "type": "uint256"
        }
      ],
      "stateMutability": "view",
      "type": "function",
      "constant": true
    },
    {
      "inputs": [
        {
          "internalType": "uint256",
          "name": "tokenId",
          "type": "uint256"
        }
      ],
      "name": "tokenURI",
      "outputs": [
        {
          "internalType": "string",
          "name": "",
          "type": "string"
        }
      ],
      "stateMutability": "view",
      "type": "function",
      "constant": true
    },
    {
      "inputs": [],
      "name": "totalSupply",
      "outputs": [
        {
          "internalType": "uint256",
          "name": "",
          "type": "uint256"
        }
      ],
      "stateMutability": "view",
      "type": "function",
      "constant": true
    },
    {
      "inputs": [
        {
          "internalType": "address",
          "name": "from",
          "type": "address"
        },
        {
          "internalType": "address",
          "name": "to",
          "type": "address"
        },
        {
          "internalType": "uint256",
          "name": "tokenId",
          "type": "uint256"
        }
      ],
      "name": "transferFrom",
      "outputs": [],
      "stateMutability": "nonpayable",
      "type": "function"
    },
    {
      "inputs": [
        {
          "internalType": "bytes4",
          "name": "interfaceId",
          "type": "bytes4"
        }
      ],
      "name": "supportsInterface",
      "outputs": [
        {
          "internalType": "bool",
          "name": "",
          "type": "bool"
        }
      ],
      "stateMutability": "view",
      "type": "function",
      "constant": true
    },
    {
      "inputs": [
        {
          "internalType": "address",
          "name": "minter",
          "type": "address"
        },
        {
          "internalType": "address",
          "name": "redeemer",
          "type": "address"
        },
        {
          "internalType": "string",
          "name": "uri",
          "type": "string"
        },
        {
          "internalType": "bytes",
          "name": "signature",
          "type": "bytes"
        }
      ],
      "name": "redeem",
      "outputs": [],
      "stateMutability": "nonpayable",
      "type": "function"
    }
  ],
  "bytecode": "0x6101206040523480156200001257600080fd5b506040518060400160405280600a81526020017f5461757265756d4e4654000000000000000000000000000000000000000000008152506040518060400160405280600181526020017f31000000000000000000000000000000000000000000000000000000000000008152506040518060400160405280600e81526020017f5461757265756d204552433732310000000000000000000000000000000000008152506040518060400160405280600781526020017f5461757265756d00000000000000000000000000000000000000000000000000815250816000908051906020019062000103929190620003a0565b5080600190805190602001906200011c929190620003a0565b50505060008280519060200120905060008280519060200120905060007f8b73c3c69bb8fe3d512ecc4cf759cc79239f7b179b0ffacaa9a75d522b39400f90508260c081815250508160e081815250504660a0818152505062000187818484620001e960201b60201c565b608081815250508061010081815250505050505050620001ce7f9f2df0fed2c77648de5860a4cc508cd0818c85b8b8a1ab4ceeef8d981c8956a6336200022560201b60201c565b620001e36000801b336200022560201b60201c565b6200058d565b600083838346306040516020016200020695949392919062000483565b6040516020818303038152906040528051906020012090509392505050565b6200023782826200023b60201b60201c565b5050565b6200024d82826200032d60201b60201c565b62000329576001600b600084815260200190815260200160002060000160008373ffffffffffffffffffffffffffffffffffffffff1673ffffffffffffffffffffffffffffffffffffffff16815260200190815260200160002060006101000a81548160ff021916908315150217905550620002ce6200039860201b60201c565b73ffffffffffffffffffffffffffffffffffffffff168173ffffffffffffffffffffffffffffffffffffffff16837f2f8788117e7eff1d82e926ec794901d17c78024a50270940304540a733656f0d60405160405180910390a45b5050565b6000600b600084815260200190815260200160002060000160008373ffffffffffffffffffffffffffffffffffffffff1673ffffffffffffffffffffffffffffffffffffffff16815260200190815260200160002060009054906101000a900460ff16905092915050565b600033905090565b828054620003ae9062000528565b90600052602060002090601f016020900481019282620003d257600085556200041e565b82601f10620003ed57805160ff19168380011785556200041e565b828001600101855582156200041e579182015b828111156200041d57825182559160200191906001019062000400565b5b5090506200042d919062000431565b5090565b5b808211156200044c57600081600090555060010162000432565b5090565b6200045b81620004e0565b82525050565b6200046c81620004f4565b82525050565b6200047d816200051e565b82525050565b600060a0820190506200049a600083018862000461565b620004a9602083018762000461565b620004b8604083018662000461565b620004c7606083018562000472565b620004d6608083018462000450565b9695505050505050565b6000620004ed82620004fe565b9050919050565b6000819050919050565b600073ffffffffffffffffffffffffffffffffffffffff82169050919050565b6000819050919050565b600060028204905060018216806200054157607f821691505b602082108114156200055857620005576200055e565b5b50919050565b7f4e487b7100000000000000000000000000000000000000000000000000000000600052602260045260246000fd5b60805160a05160c05160e05161010051614995620005d2600039600061261c0152600061265e0152600061263d015260006125c9015260006125f101526149956000f3fe608060405234801561001057600080fd5b506004361061018e5760003560e01c806370a08231116100de578063b88d4fde11610097578063d204c45e11610071578063d204c45e146104cb578063d5391393146104fb578063d547741f14610519578063e985e9c5146105355761018e565b8063b88d4fde1461044f578063c87b56dd1461046b578063d0def5211461049b5761018e565b806370a082311461037b57806391d14854146103ab57806395d89b41146103db5780639b796a05146103f9578063a217fddf14610415578063a22cb465146104335761018e565b8063248a9ca31161014b57806336568abe1161012557806336568abe146102e357806342842e0e146102ff5780634f6ccce71461031b5780636352211e1461034b5761018e565b8063248a9ca3146102675780632f2ff15d146102975780632f745c59146102b35761018e565b806301ffc9a71461019357806306fdde03146101c3578063081812fc146101e1578063095ea7b31461021157806318160ddd1461022d57806323b872dd1461024b575b600080fd5b6101ad60048036038101906101a891906132b5565b610565565b6040516101ba9190613a2b565b60405180910390f35b6101cb610577565b6040516101d89190613b5d565b60405180910390f35b6101fb60048036038101906101f69190613307565b610609565b6040516102089190613992565b60405180910390f35b61022b60048036038101906102269190613214565b61068e565b005b6102356107a6565b6040516102429190613e7f565b60405180910390f35b610265600480360381019061026091906130b6565b6107b3565b005b610281600480360381019061027c9190613250565b610813565b60405161028e9190613a46565b60405180910390f35b6102b160048036038101906102ac9190613279565b610833565b005b6102cd60048036038101906102c89190613214565b61085c565b6040516102da9190613e7f565b60405180910390f35b6102fd60048036038101906102f89190613279565b610901565b005b610319600480360381019061031491906130b6565b610984565b005b61033560048036038101906103309190613307565b6109a4565b6040516103429190613e7f565b60405180910390f35b61036560048036038101906103609190613307565b610a3b565b6040516103729190613992565b60405180910390f35b61039560048036038101906103909190612fb6565b610aed565b6040516103a29190613e7f565b60405180910390f35b6103c560048036038101906103c09190613279565b610ba5565b6040516103d29190613a2b565b60405180910390f35b6103e3610c10565b6040516103f09190613b5d565b60405180910390f35b610413600480360381019061040e919061301b565b610ca2565b005b61041d610e27565b60405161042a9190613a46565b60405180910390f35b61044d60048036038101906104489190613180565b610e2e565b005b61046960048036038101906104649190613105565b610faf565b005b61048560048036038101906104809190613307565b611011565b6040516104929190613b5d565b60405180910390f35b6104b560048036038101906104b091906131bc565b611023565b6040516104c29190613e7f565b60405180910390f35b6104e560048036038101906104e091906131bc565b611076565b6040516104f29190613e7f565b60405180910390f35b6105036110c9565b6040516105109190613a46565b60405180910390f35b610533600480360381019061052e9190613279565b6110ed565b005b61054f600480360381019061054a9190612fdf565b611116565b60405161055c9190613a2b565b60405180910390f35b6000610570826111aa565b9050919050565b6060600080546105869061412e565b80601f01602080910402602001604051908101604052809291908181526020018280546105b29061412e565b80156105ff5780601f106105d4576101008083540402835291602001916105ff565b820191906000526020600020905b8154815290600101906020018083116105e257829003601f168201915b5050505050905090565b600061061482611224565b610653576040517f08c379a000000000000000000000000000000000000000000000000000000000815260040161064a90613d5f565b60405180910390fd5b6004600083815260200190815260200160002060009054906101000a900473ffffffffffffffffffffffffffffffffffffffff169050919050565b600061069982610a3b565b90508073ffffffffffffffffffffffffffffffffffffffff168373ffffffffffffffffffffffffffffffffffffffff16141561070a576040517f08c379a000000000000000000000000000000000000000000000000000000000815260040161070190613dbf565b60405180910390fd5b8073ffffffffffffffffffffffffffffffffffffffff16610729611290565b73ffffffffffffffffffffffffffffffffffffffff161480610758575061075781610752611290565b611116565b5b610797576040517f08c379a000000000000000000000000000000000000000000000000000000000815260040161078e90613cbf565b60405180910390fd5b6107a18383611298565b505050565b6000600980549050905090565b6107c46107be611290565b82611351565b610803576040517f08c379a00000000000000000000000000000000000000000000000000000000081526004016107fa90613ddf565b60405180910390fd5b61080e83838361142f565b505050565b6000600b6000838152602001908152602001600020600101549050919050565b61083c82610813565b61084d81610848611290565b61168b565b6108578383611728565b505050565b600061086783610aed565b82106108a8576040517f08c379a000000000000000000000000000000000000000000000000000000000815260040161089f90613bdf565b60405180910390fd5b600760008473ffffffffffffffffffffffffffffffffffffffff1673ffffffffffffffffffffffffffffffffffffffff168152602001908152602001600020600083815260200190815260200160002054905092915050565b610909611290565b73ffffffffffffffffffffffffffffffffffffffff168173ffffffffffffffffffffffffffffffffffffffff1614610976576040517f08c379a000000000000000000000000000000000000000000000000000000000815260040161096d90613e5f565b60405180910390fd5b6109808282611809565b5050565b61099f83838360405180602001604052806000815250610faf565b505050565b60006109ae6107a6565b82106109ef576040517f08c379a00000000000000000000000000000000000000000000000000000000081526004016109e690613dff565b60405180910390fd5b60098281548110610a29577f4e487b7100000000000000000000000000000000000000000000000000000000600052603260045260246000fd5b90600052602060002001549050919050565b6000806002600084815260200190815260200160002060009054906101000a900473ffffffffffffffffffffffffffffffffffffffff169050600073ffffffffffffffffffffffffffffffffffffffff168173ffffffffffffffffffffffffffffffffffffffff161415610ae4576040517f08c379a0000000000000000000000000000000000000000000000000000000008152600401610adb90613cff565b60405180910390fd5b80915050919050565b60008073ffffffffffffffffffffffffffffffffffffffff168273ffffffffffffffffffffffffffffffffffffffff161415610b5e576040517f08c379a0000000000000000000000000000000000000000000000000000000008152600401610b5590613cdf565b60405180910390fd5b600360008373ffffffffffffffffffffffffffffffffffffffff1673ffffffffffffffffffffffffffffffffffffffff168152602001908152602001600020549050919050565b6000600b600084815260200190815260200160002060000160008373ffffffffffffffffffffffffffffffffffffffff1673ffffffffffffffffffffffffffffffffffffffff16815260200190815260200160002060009054906101000a900460ff16905092915050565b606060018054610c1f9061412e565b80601f0160208091040260200160405190810160405280929190818152602001828054610c4b9061412e565b8015610c985780601f10610c6d57610100808354040283529160200191610c98565b820191906000526020600020905b815481529060010190602001808311610c7b57829003601f168201915b5050505050905090565b610cf9610caf85856118eb565b83838080601f016020809104026020016040519081016040528093929190818152602001838380828437600081840152601f19601f8201169050808301925050505050505061195d565b73ffffffffffffffffffffffffffffffffffffffff168673ffffffffffffffffffffffffffffffffffffffff1614610d3057600080fd5b610d5a7f9f2df0fed2c77648de5860a4cc508cd0818c85b8b8a1ab4ceeef8d981c8956a687610ba5565b610d99576040517f08c379a0000000000000000000000000000000000000000000000000000000008152600401610d9090613e1f565b60405180910390fd5b6000610da6878686611023565b9050610db387878361142f565b8573ffffffffffffffffffffffffffffffffffffffff168773ffffffffffffffffffffffffffffffffffffffff167fb81d90300775327e5ff9b7e43342852858f8bc3b5dfeb49ba785363e219773dc87878787604051610e169493929190613b22565b60405180910390a350505050505050565b6000801b81565b610e36611290565b73ffffffffffffffffffffffffffffffffffffffff168273ffffffffffffffffffffffffffffffffffffffff161415610ea4576040517f08c379a0000000000000000000000000000000000000000000000000000000008152600401610e9b90613c5f565b60405180910390fd5b8060056000610eb1611290565b73ffffffffffffffffffffffffffffffffffffffff1673ffffffffffffffffffffffffffffffffffffffff16815260200190815260200160002060008473ffffffffffffffffffffffffffffffffffffffff1673ffffffffffffffffffffffffffffffffffffffff16815260200190815260200160002060006101000a81548160ff0219169083151502179055508173ffffffffffffffffffffffffffffffffffffffff16610f5e611290565b73ffffffffffffffffffffffffffffffffffffffff167f17307eab39ab6107e8899845ad3d59bd9653f200f220920489ca2b5937696c3183604051610fa39190613a2b565b60405180910390a35050565b610fc0610fba611290565b83611351565b610fff576040517f08c379a0000000000000000000000000000000000000000000000000000000008152600401610ff690613ddf565b60405180910390fd5b61100b84848484611971565b50505050565b606061101c826119cd565b9050919050565b60008084848460405160200161103b939291906139f9565b6040516020818303038152906040528051906020012060001c90506110608582611b0a565b61106b818585611cd8565b809150509392505050565b60008084848460405160200161108e939291906139f9565b6040516020818303038152906040528051906020012060001c90506110b38582611d48565b6110be818585611cd8565b809150509392505050565b7f9f2df0fed2c77648de5860a4cc508cd0818c85b8b8a1ab4ceeef8d981c8956a681565b6110f682610813565b61110781611102611290565b61168b565b6111118383611809565b505050565b6000600560008473ffffffffffffffffffffffffffffffffffffffff1673ffffffffffffffffffffffffffffffffffffffff16815260200190815260200160002060008373ffffffffffffffffffffffffffffffffffffffff1673ffffffffffffffffffffffffffffffffffffffff16815260200190815260200160002060009054906101000a900460ff16905092915050565b60007f7965db0b000000000000000000000000000000000000000000000000000000007bffffffffffffffffffffffffffffffffffffffffffffffffffffffff1916827bffffffffffffffffffffffffffffffffffffffffffffffffffffffff1916148061121d575061121c82611d66565b5b9050919050565b60008073ffffffffffffffffffffffffffffffffffffffff166002600084815260200190815260200160002060009054906101000a900473ffffffffffffffffffffffffffffffffffffffff1673ffffffffffffffffffffffffffffffffffffffff1614159050919050565b600033905090565b816004600083815260200190815260200160002060006101000a81548173ffffffffffffffffffffffffffffffffffffffff021916908373ffffffffffffffffffffffffffffffffffffffff160217905550808273ffffffffffffffffffffffffffffffffffffffff1661130b83610a3b565b73ffffffffffffffffffffffffffffffffffffffff167f8c5be1e5ebec7d5bd14f71427d1e84f3dd0314c0f7b2291e5b200ac8c7c3b92560405160405180910390a45050565b600061135c82611224565b61139b576040517f08c379a000000000000000000000000000000000000000000000000000000000815260040161139290613c9f565b60405180910390fd5b60006113a683610a3b565b90508073ffffffffffffffffffffffffffffffffffffffff168473ffffffffffffffffffffffffffffffffffffffff16148061141557508373ffffffffffffffffffffffffffffffffffffffff166113fd84610609565b73ffffffffffffffffffffffffffffffffffffffff16145b8061142657506114258185611116565b5b91505092915050565b8273ffffffffffffffffffffffffffffffffffffffff1661144f82610a3b565b73ffffffffffffffffffffffffffffffffffffffff16146114a5576040517f08c379a000000000000000000000000000000000000000000000000000000000815260040161149c90613d7f565b60405180910390fd5b600073ffffffffffffffffffffffffffffffffffffffff168273ffffffffffffffffffffffffffffffffffffffff161415611515576040517f08c379a000000000000000000000000000000000000000000000000000000000815260040161150c90613c3f565b60405180910390fd5b611520838383611e48565b61152b600082611298565b6001600360008573ffffffffffffffffffffffffffffffffffffffff1673ffffffffffffffffffffffffffffffffffffffff168152602001908152602001600020600082825461157b9190614003565b925050819055506001600360008473ffffffffffffffffffffffffffffffffffffffff1673ffffffffffffffffffffffffffffffffffffffff16815260200190815260200160002060008282546115d29190613f53565b92505081905550816002600083815260200190815260200160002060006101000a81548173ffffffffffffffffffffffffffffffffffffffff021916908373ffffffffffffffffffffffffffffffffffffffff160217905550808273ffffffffffffffffffffffffffffffffffffffff168473ffffffffffffffffffffffffffffffffffffffff167fddf252ad1be2c89b69c2b068fc378daa952ba7f163c4a11628f55a4df523b3ef60405160405180910390a4505050565b6116958282610ba5565b611724576116ba8173ffffffffffffffffffffffffffffffffffffffff166014611e58565b6116c88360001c6020611e58565b6040516020016116d9929190613958565b6040516020818303038152906040526040517f08c379a000000000000000000000000000000000000000000000000000000000815260040161171b9190613b5d565b60405180910390fd5b5050565b6117328282610ba5565b611805576001600b600084815260200190815260200160002060000160008373ffffffffffffffffffffffffffffffffffffffff1673ffffffffffffffffffffffffffffffffffffffff16815260200190815260200160002060006101000a81548160ff0219169083151502179055506117aa611290565b73ffffffffffffffffffffffffffffffffffffffff168173ffffffffffffffffffffffffffffffffffffffff16837f2f8788117e7eff1d82e926ec794901d17c78024a50270940304540a733656f0d60405160405180910390a45b5050565b6118138282610ba5565b156118e7576000600b600084815260200190815260200160002060000160008373ffffffffffffffffffffffffffffffffffffffff1673ffffffffffffffffffffffffffffffffffffffff16815260200190815260200160002060006101000a81548160ff02191690831515021790555061188c611290565b73ffffffffffffffffffffffffffffffffffffffff168173ffffffffffffffffffffffffffffffffffffffff16837ff6391f5c32d9c69d2a47ea670b442974b53935d1edc7fd64eb21e047a839171b60405160405180910390a45b5050565b60006119557fa6b58c98ea4cc2264b50f22158f7630dd0e4b1d5e79193ec25dcf39653dda06f84846040516119219291906138e4565b604051809103902060405160200161193a929190613a61565b60405160208183030381529060405280519060200120612152565b905092915050565b6000611969838361216c565b905092915050565b61197c84848461142f565b61198884848484612236565b6119c7576040517f08c379a00000000000000000000000000000000000000000000000000000000081526004016119be90613bff565b60405180910390fd5b50505050565b60606119d882611224565b611a17576040517f08c379a0000000000000000000000000000000000000000000000000000000008152600401611a0e90613d9f565b60405180910390fd5b6000611a216123cd565b90506000815111611acd57600660008481526020019081526020016000208054611a4a9061412e565b80601f0160208091040260200160405190810160405280929190818152602001828054611a769061412e565b8015611ac35780601f10611a9857610100808354040283529160200191611ac3565b820191906000526020600020905b815481529060010190602001808311611aa657829003601f168201915b5050505050611b02565b8060066000858152602001908152602001600020604051602001611af29291906138fd565b6040516020818303038152906040525b915050919050565b600073ffffffffffffffffffffffffffffffffffffffff168273ffffffffffffffffffffffffffffffffffffffff161415611b7a576040517f08c379a0000000000000000000000000000000000000000000000000000000008152600401611b7190613d3f565b60405180910390fd5b611b8381611224565b15611bc3576040517f08c379a0000000000000000000000000000000000000000000000000000000008152600401611bba90613c1f565b60405180910390fd5b611bcf60008383611e48565b6001600360008473ffffffffffffffffffffffffffffffffffffffff1673ffffffffffffffffffffffffffffffffffffffff1681526020019081526020016000206000828254611c1f9190613f53565b92505081905550816002600083815260200190815260200160002060006101000a81548173ffffffffffffffffffffffffffffffffffffffff021916908373ffffffffffffffffffffffffffffffffffffffff160217905550808273ffffffffffffffffffffffffffffffffffffffff16600073ffffffffffffffffffffffffffffffffffffffff167fddf252ad1be2c89b69c2b068fc378daa952ba7f163c4a11628f55a4df523b3ef60405160405180910390a45050565b611ce183611224565b611d20576040517f08c379a0000000000000000000000000000000000000000000000000000000008152600401611d1790613e3f565b60405180910390fd5b8181600660008681526020019081526020016000209190611d42929190612d99565b50505050565b611d628282604051806020016040528060008152506123dc565b5050565b60007f80ac58cd000000000000000000000000000000000000000000000000000000007bffffffffffffffffffffffffffffffffffffffffffffffffffffffff1916827bffffffffffffffffffffffffffffffffffffffffffffffffffffffff19161480611e3157507f5b5e139f000000000000000000000000000000000000000000000000000000007bffffffffffffffffffffffffffffffffffffffffffffffffffffffff1916827bffffffffffffffffffffffffffffffffffffffffffffffffffffffff1916145b80611e415750611e4082612437565b5b9050919050565b611e538383836124b1565b505050565b606060006002836002611e6b9190613fa9565b611e759190613f53565b67ffffffffffffffff811115611eb4577f4e487b7100000000000000000000000000000000000000000000000000000000600052604160045260246000fd5b6040519080825280601f01601f191660200182016040528015611ee65781602001600182028036833780820191505090505b5090507f300000000000000000000000000000000000000000000000000000000000000081600081518110611f44577f4e487b7100000000000000000000000000000000000000000000000000000000600052603260045260246000fd5b60200101907effffffffffffffffffffffffffffffffffffffffffffffffffffffffffffff1916908160001a9053507f780000000000000000000000000000000000000000000000000000000000000081600181518110611fce577f4e487b7100000000000000000000000000000000000000000000000000000000600052603260045260246000fd5b60200101907effffffffffffffffffffffffffffffffffffffffffffffffffffffffffffff1916908160001a9053506000600184600261200e9190613fa9565b6120189190613f53565b90505b6001811115612104577f3031323334353637383961626364656600000000000000000000000000000000600f861660108110612080577f4e487b7100000000000000000000000000000000000000000000000000000000600052603260045260246000fd5b1a60f81b8282815181106120bd577f4e487b7100000000000000000000000000000000000000000000000000000000600052603260045260246000fd5b60200101907effffffffffffffffffffffffffffffffffffffffffffffffffffffffffffff1916908160001a905350600485901c9450806120fd90614104565b905061201b565b5060008414612148576040517f08c379a000000000000000000000000000000000000000000000000000000000815260040161213f90613b9f565b60405180910390fd5b8091505092915050565b600061216561215f6125c5565b83612688565b9050919050565b600080600080604185511415612199576020850151925060408501519150606085015160001a905061221f565b6040855114156121e3576040850151602086015193507f7fffffffffffffffffffffffffffffffffffffffffffffffffffffffffffffff81169250601b8160ff1c0191505061221e565b6040517f08c379a000000000000000000000000000000000000000000000000000000000815260040161221590613bbf565b60405180910390fd5b5b61222b868285856126bb565b935050505092915050565b60006122578473ffffffffffffffffffffffffffffffffffffffff16612846565b156123c0578373ffffffffffffffffffffffffffffffffffffffff1663150b7a02612280611290565b8786866040518563ffffffff1660e01b81526004016122a294939291906139ad565b602060405180830381600087803b1580156122bc57600080fd5b505af19250505080156122ed57506040513d601f19601f820116820180604052508101906122ea91906132de565b60015b612370573d806000811461231d576040519150601f19603f3d011682016040523d82523d6000602084013e612322565b606091505b50600081511415612368576040517f08c379a000000000000000000000000000000000000000000000000000000000815260040161235f90613bff565b60405180910390fd5b805181602001fd5b63150b7a0260e01b7bffffffffffffffffffffffffffffffffffffffffffffffffffffffff1916817bffffffffffffffffffffffffffffffffffffffffffffffffffffffff1916149150506123c5565b600190505b949350505050565b60606123d7612859565b905090565b6123e68383611b0a565b6123f36000848484612236565b612432576040517f08c379a000000000000000000000000000000000000000000000000000000000815260040161242990613bff565b60405180910390fd5b505050565b60007f780e9d63000000000000000000000000000000000000000000000000000000007bffffffffffffffffffffffffffffffffffffffffffffffffffffffff1916827bffffffffffffffffffffffffffffffffffffffffffffffffffffffff191614806124aa57506124a982612896565b5b9050919050565b6124bc838383612978565b600073ffffffffffffffffffffffffffffffffffffffff168373ffffffffffffffffffffffffffffffffffffffff1614156124ff576124fa8161297d565b61253e565b8173ffffffffffffffffffffffffffffffffffffffff168373ffffffffffffffffffffffffffffffffffffffff161461253d5761253c83826129c6565b5b5b600073ffffffffffffffffffffffffffffffffffffffff168273ffffffffffffffffffffffffffffffffffffffff1614156125815761257c81612b33565b6125c0565b8273ffffffffffffffffffffffffffffffffffffffff168273ffffffffffffffffffffffffffffffffffffffff16146125bf576125be8282612c76565b5b5b505050565b60007f0000000000000000000000000000000000000000000000000000000000000000461415612617577f00000000000000000000000000000000000000000000000000000000000000009050612685565b6126827f00000000000000000000000000000000000000000000000000000000000000007f00000000000000000000000000000000000000000000000000000000000000007f0000000000000000000000000000000000000000000000000000000000000000612cf5565b90505b90565b6000828260405160200161269d929190613921565b60405160208183030381529060405280519060200120905092915050565b60007f7fffffffffffffffffffffffffffffff5d576e7357a4501ddfe92f46681b20a08260001c1115612723576040517f08c379a000000000000000000000000000000000000000000000000000000000815260040161271a90613c7f565b60405180910390fd5b601b8460ff1614806127385750601c8460ff16145b612777576040517f08c379a000000000000000000000000000000000000000000000000000000000815260040161276e90613d1f565b60405180910390fd5b60006001868686866040516000815260200160405260405161279c9493929190613add565b6020604051602081039080840390855afa1580156127be573d6000803e3d6000fd5b505050602060405103519050600073ffffffffffffffffffffffffffffffffffffffff168173ffffffffffffffffffffffffffffffffffffffff16141561283a576040517f08c379a000000000000000000000000000000000000000000000000000000000815260040161283190613b7f565b60405180910390fd5b80915050949350505050565b600080823b905060008111915050919050565b60606040518060400160405280600781526020017f697066733a2f2f00000000000000000000000000000000000000000000000000815250905090565b60007f80ac58cd000000000000000000000000000000000000000000000000000000007bffffffffffffffffffffffffffffffffffffffffffffffffffffffff1916827bffffffffffffffffffffffffffffffffffffffffffffffffffffffff1916148061296157507f5b5e139f000000000000000000000000000000000000000000000000000000007bffffffffffffffffffffffffffffffffffffffffffffffffffffffff1916827bffffffffffffffffffffffffffffffffffffffffffffffffffffffff1916145b80612971575061297082612d2f565b5b9050919050565b505050565b600980549050600a600083815260200190815260200160002081905550600981908060018154018082558091505060019003906000526020600020016000909190919091505550565b600060016129d384610aed565b6129dd9190614003565b9050600060086000848152602001908152602001600020549050818114612ac2576000600760008673ffffffffffffffffffffffffffffffffffffffff1673ffffffffffffffffffffffffffffffffffffffff168152602001908152602001600020600084815260200190815260200160002054905080600760008773ffffffffffffffffffffffffffffffffffffffff1673ffffffffffffffffffffffffffffffffffffffff168152602001908152602001600020600084815260200190815260200160002081905550816008600083815260200190815260200160002081905550505b6008600084815260200190815260200160002060009055600760008573ffffffffffffffffffffffffffffffffffffffff1673ffffffffffffffffffffffffffffffffffffffff16815260200190815260200160002060008381526020019081526020016000206000905550505050565b60006001600980549050612b479190614003565b90506000600a6000848152602001908152602001600020549050600060098381548110612b9d577f4e487b7100000000000000000000000000000000000000000000000000000000600052603260045260246000fd5b906000526020600020015490508060098381548110612be5577f4e487b7100000000000000000000000000000000000000000000000000000000600052603260045260246000fd5b906000526020600020018190555081600a600083815260200190815260200160002081905550600a6000858152602001908152602001600020600090556009805480612c5a577f4e487b7100000000000000000000000000000000000000000000000000000000600052603160045260246000fd5b6001900381819060005260206000200160009055905550505050565b6000612c8183610aed565b905081600760008573ffffffffffffffffffffffffffffffffffffffff1673ffffffffffffffffffffffffffffffffffffffff168152602001908152602001600020600083815260200190815260200160002081905550806008600084815260200190815260200160002081905550505050565b60008383834630604051602001612d10959493929190613a8a565b6040516020818303038152906040528051906020012090509392505050565b60007f01ffc9a7000000000000000000000000000000000000000000000000000000007bffffffffffffffffffffffffffffffffffffffffffffffffffffffff1916827bffffffffffffffffffffffffffffffffffffffffffffffffffffffff1916149050919050565b828054612da59061412e565b90600052602060002090601f016020900481019282612dc75760008555612e0e565b82601f10612de057803560ff1916838001178555612e0e565b82800160010185558215612e0e579182015b82811115612e0d578235825591602001919060010190612df2565b5b509050612e1b9190612e1f565b5090565b5b80821115612e38576000816000905550600101612e20565b5090565b6000612e4f612e4a84613ebf565b613e9a565b905082815260208101848484011115612e6757600080fd5b612e728482856140c2565b509392505050565b600081359050612e89816148ec565b92915050565b600081359050612e9e81614903565b92915050565b600081359050612eb38161491a565b92915050565b600081359050612ec881614931565b92915050565b600081519050612edd81614931565b92915050565b60008083601f840112612ef557600080fd5b8235905067ffffffffffffffff811115612f0e57600080fd5b602083019150836001820283011115612f2657600080fd5b9250929050565b600082601f830112612f3e57600080fd5b8135612f4e848260208601612e3c565b91505092915050565b60008083601f840112612f6957600080fd5b8235905067ffffffffffffffff811115612f8257600080fd5b602083019150836001820283011115612f9a57600080fd5b9250929050565b600081359050612fb081614948565b92915050565b600060208284031215612fc857600080fd5b6000612fd684828501612e7a565b91505092915050565b60008060408385031215612ff257600080fd5b600061300085828601612e7a565b925050602061301185828601612e7a565b9150509250929050565b6000806000806000806080878903121561303457600080fd5b600061304289828a01612e7a565b965050602061305389828a01612e7a565b955050604087013567ffffffffffffffff81111561307057600080fd5b61307c89828a01612f57565b9450945050606087013567ffffffffffffffff81111561309b57600080fd5b6130a789828a01612ee3565b92509250509295509295509295565b6000806000606084860312156130cb57600080fd5b60006130d986828701612e7a565b93505060206130ea86828701612e7a565b92505060406130fb86828701612fa1565b9150509250925092565b6000806000806080858703121561311b57600080fd5b600061312987828801612e7a565b945050602061313a87828801612e7a565b935050604061314b87828801612fa1565b925050606085013567ffffffffffffffff81111561316857600080fd5b61317487828801612f2d565b91505092959194509250565b6000806040838503121561319357600080fd5b60006131a185828601612e7a565b92505060206131b285828601612e8f565b9150509250929050565b6000806000604084860312156131d157600080fd5b60006131df86828701612e7a565b935050602084013567ffffffffffffffff8111156131fc57600080fd5b61320886828701612f57565b92509250509250925092565b6000806040838503121561322757600080fd5b600061323585828601612e7a565b925050602061324685828601612fa1565b9150509250929050565b60006020828403121561326257600080fd5b600061327084828501612ea4565b91505092915050565b6000806040838503121561328c57600080fd5b600061329a85828601612ea4565b92505060206132ab85828601612e7a565b9150509250929050565b6000602082840312156132c757600080fd5b60006132d584828501612eb9565b91505092915050565b6000602082840312156132f057600080fd5b60006132fe84828501612ece565b91505092915050565b60006020828403121561331957600080fd5b600061332784828501612fa1565b91505092915050565b61333981614037565b82525050565b61334881614049565b82525050565b61335781614055565b82525050565b61336e61336982614055565b614191565b82525050565b60006133808385613f1b565b935061338d8385846140c2565b61339683614228565b840190509392505050565b60006133ad8385613f2c565b93506133ba8385846140c2565b82840190509392505050565b60006133d182613f05565b6133db8185613f1b565b93506133eb8185602086016140d1565b6133f481614228565b840191505092915050565b600061340b8385613f37565b93506134188385846140c2565b61342183614228565b840190509392505050565b600061343782613f10565b6134418185613f37565b93506134518185602086016140d1565b61345a81614228565b840191505092915050565b600061347082613f10565b61347a8185613f48565b935061348a8185602086016140d1565b80840191505092915050565b600081546134a38161412e565b6134ad8186613f48565b945060018216600081146134c857600181146134d95761350c565b60ff1983168652818601935061350c565b6134e285613ef0565b60005b83811015613504578154818901526001820191506020810190506134e5565b838801955050505b50505092915050565b6000613522601883613f37565b915061352d82614239565b602082019050919050565b6000613545602083613f37565b915061355082614262565b602082019050919050565b6000613568601f83613f37565b91506135738261428b565b602082019050919050565b600061358b602b83613f37565b9150613596826142b4565b604082019050919050565b60006135ae603283613f37565b91506135b982614303565b604082019050919050565b60006135d1601c83613f37565b91506135dc82614352565b602082019050919050565b60006135f4600283613f48565b91506135ff8261437b565b600282019050919050565b6000613617602483613f37565b9150613622826143a4565b604082019050919050565b600061363a601983613f37565b9150613645826143f3565b602082019050919050565b600061365d602283613f37565b91506136688261441c565b604082019050919050565b6000613680602c83613f37565b915061368b8261446b565b604082019050919050565b60006136a3603883613f37565b91506136ae826144ba565b604082019050919050565b60006136c6602a83613f37565b91506136d182614509565b604082019050919050565b60006136e9602983613f37565b91506136f482614558565b604082019050919050565b600061370c602283613f37565b9150613717826145a7565b604082019050919050565b600061372f602083613f37565b915061373a826145f6565b602082019050919050565b6000613752602c83613f37565b915061375d8261461f565b604082019050919050565b6000613775602983613f37565b91506137808261466e565b604082019050919050565b6000613798602f83613f37565b91506137a3826146bd565b604082019050919050565b60006137bb602183613f37565b91506137c68261470c565b604082019050919050565b60006137de603183613f37565b91506137e98261475b565b604082019050919050565b6000613801602c83613f37565b915061380c826147aa565b604082019050919050565b6000613824601783613f48565b915061382f826147f9565b601782019050919050565b6000613847601383613f37565b915061385282614822565b602082019050919050565b600061386a601183613f48565b91506138758261484b565b601182019050919050565b600061388d601483613f37565b915061389882614874565b602082019050919050565b60006138b0602f83613f37565b91506138bb8261489d565b604082019050919050565b6138cf816140ab565b82525050565b6138de816140b5565b82525050565b60006138f18284866133a1565b91508190509392505050565b60006139098285613465565b91506139158284613496565b91508190509392505050565b600061392c826135e7565b9150613938828561335d565b602082019150613948828461335d565b6020820191508190509392505050565b600061396382613817565b915061396f8285613465565b915061397a8261385d565b91506139868284613465565b91508190509392505050565b60006020820190506139a76000830184613330565b92915050565b60006080820190506139c26000830187613330565b6139cf6020830186613330565b6139dc60408301856138c6565b81810360608301526139ee81846133c6565b905095945050505050565b6000604082019050613a0e6000830186613330565b8181036020830152613a218184866133ff565b9050949350505050565b6000602082019050613a40600083018461333f565b92915050565b6000602082019050613a5b600083018461334e565b92915050565b6000604082019050613a76600083018561334e565b613a83602083018461334e565b9392505050565b600060a082019050613a9f600083018861334e565b613aac602083018761334e565b613ab9604083018661334e565b613ac660608301856138c6565b613ad36080830184613330565b9695505050505050565b6000608082019050613af2600083018761334e565b613aff60208301866138d5565b613b0c604083018561334e565b613b19606083018461334e565b95945050505050565b60006040820190508181036000830152613b3d8186886133ff565b90508181036020830152613b52818486613374565b905095945050505050565b60006020820190508181036000830152613b77818461342c565b905092915050565b60006020820190508181036000830152613b9881613515565b9050919050565b60006020820190508181036000830152613bb881613538565b9050919050565b60006020820190508181036000830152613bd88161355b565b9050919050565b60006020820190508181036000830152613bf88161357e565b9050919050565b60006020820190508181036000830152613c18816135a1565b9050919050565b60006020820190508181036000830152613c38816135c4565b9050919050565b60006020820190508181036000830152613c588161360a565b9050919050565b60006020820190508181036000830152613c788161362d565b9050919050565b60006020820190508181036000830152613c9881613650565b9050919050565b60006020820190508181036000830152613cb881613673565b9050919050565b60006020820190508181036000830152613cd881613696565b9050919050565b60006020820190508181036000830152613cf8816136b9565b9050919050565b60006020820190508181036000830152613d18816136dc565b9050919050565b60006020820190508181036000830152613d38816136ff565b9050919050565b60006020820190508181036000830152613d5881613722565b9050919050565b60006020820190508181036000830152613d7881613745565b9050919050565b60006020820190508181036000830152613d9881613768565b9050919050565b60006020820190508181036000830152613db88161378b565b9050919050565b60006020820190508181036000830152613dd8816137ae565b9050919050565b60006020820190508181036000830152613df8816137d1565b9050919050565b60006020820190508181036000830152613e18816137f4565b9050919050565b60006020820190508181036000830152613e388161383a565b9050919050565b60006020820190508181036000830152613e5881613880565b9050919050565b60006020820190508181036000830152613e78816138a3565b9050919050565b6000602082019050613e9460008301846138c6565b92915050565b6000613ea4613eb5565b9050613eb08282614160565b919050565b6000604051905090565b600067ffffffffffffffff821115613eda57613ed96141f9565b5b613ee382614228565b9050602081019050919050565b60008190508160005260206000209050919050565b600081519050919050565b600081519050919050565b600082825260208201905092915050565b600081905092915050565b600082825260208201905092915050565b600081905092915050565b6000613f5e826140ab565b9150613f69836140ab565b9250827fffffffffffffffffffffffffffffffffffffffffffffffffffffffffffffffff03821115613f9e57613f9d61419b565b5b828201905092915050565b6000613fb4826140ab565b9150613fbf836140ab565b9250817fffffffffffffffffffffffffffffffffffffffffffffffffffffffffffffffff0483118215151615613ff857613ff761419b565b5b828202905092915050565b600061400e826140ab565b9150614019836140ab565b92508282101561402c5761402b61419b565b5b828203905092915050565b60006140428261408b565b9050919050565b60008115159050919050565b6000819050919050565b60007fffffffff0000000000000000000000000000000000000000000000000000000082169050919050565b600073ffffffffffffffffffffffffffffffffffffffff82169050919050565b6000819050919050565b600060ff82169050919050565b82818337600083830152505050565b60005b838110156140ef5780820151818401526020810190506140d4565b838111156140fe576000848401525b50505050565b600061410f826140ab565b915060008214156141235761412261419b565b5b600182039050919050565b6000600282049050600182168061414657607f821691505b6020821081141561415a576141596141ca565b5b50919050565b61416982614228565b810181811067ffffffffffffffff82111715614188576141876141f9565b5b80604052505050565b6000819050919050565b7f4e487b7100000000000000000000000000000000000000000000000000000000600052601160045260246000fd5b7f4e487b7100000000000000000000000000000000000000000000000000000000600052602260045260246000fd5b7f4e487b7100000000000000000000000000000000000000000000000000000000600052604160045260246000fd5b6000601f19601f8301169050919050565b7f45434453413a20696e76616c6964207369676e61747572650000000000000000600082015250565b7f537472696e67733a20686578206c656e67746820696e73756666696369656e74600082015250565b7f45434453413a20696e76616c6964207369676e6174757265206c656e67746800600082015250565b7f455243373231456e756d657261626c653a206f776e657220696e646578206f7560008201527f74206f6620626f756e6473000000000000000000000000000000000000000000602082015250565b7f4552433732313a207472616e7366657220746f206e6f6e20455243373231526560008201527f63656976657220696d706c656d656e7465720000000000000000000000000000602082015250565b7f4552433732313a20746f6b656e20616c7265616479206d696e74656400000000600082015250565b7f1901000000000000000000000000000000000000000000000000000000000000600082015250565b7f4552433732313a207472616e7366657220746f20746865207a65726f2061646460008201527f7265737300000000000000000000000000000000000000000000000000000000602082015250565b7f4552433732313a20617070726f766520746f2063616c6c657200000000000000600082015250565b7f45434453413a20696e76616c6964207369676e6174757265202773272076616c60008201527f7565000000000000000000000000000000000000000000000000000000000000602082015250565b7f4552433732313a206f70657261746f7220717565727920666f72206e6f6e657860008201527f697374656e7420746f6b656e0000000000000000000000000000000000000000602082015250565b7f4552433732313a20617070726f76652063616c6c6572206973206e6f74206f7760008201527f6e6572206e6f7220617070726f76656420666f7220616c6c0000000000000000602082015250565b7f4552433732313a2062616c616e636520717565727920666f7220746865207a6560008201527f726f206164647265737300000000000000000000000000000000000000000000602082015250565b7f4552433732313a206f776e657220717565727920666f72206e6f6e657869737460008201527f656e7420746f6b656e0000000000000000000000000000000000000000000000602082015250565b7f45434453413a20696e76616c6964207369676e6174757265202776272076616c60008201527f7565000000000000000000000000000000000000000000000000000000000000602082015250565b7f4552433732313a206d696e7420746f20746865207a65726f2061646472657373600082015250565b7f4552433732313a20617070726f76656420717565727920666f72206e6f6e657860008201527f697374656e7420746f6b656e0000000000000000000000000000000000000000602082015250565b7f4552433732313a207472616e73666572206f6620746f6b656e2074686174206960008201527f73206e6f74206f776e0000000000000000000000000000000000000000000000602082015250565b7f4552433732314d657461646174613a2055524920717565727920666f72206e6f60008201527f6e6578697374656e7420746f6b656e0000000000000000000000000000000000602082015250565b7f4552433732313a20617070726f76616c20746f2063757272656e74206f776e6560008201527f7200000000000000000000000000000000000000000000000000000000000000602082015250565b7f4552433732313a207472616e736665722063616c6c6572206973206e6f74206f60008201527f776e6572206e6f7220617070726f766564000000000000000000000000000000602082015250565b7f455243373231456e756d657261626c653a20676c6f62616c20696e646578206f60008201527f7574206f6620626f756e64730000000000000000000000000000000000000000602082015250565b7f416363657373436f6e74726f6c3a206163636f756e7420000000000000000000600082015250565b7f494e56414c49445f4d494e5445525f524f4c4500000000000000000000000000600082015250565b7f206973206d697373696e6720726f6c6520000000000000000000000000000000600082015250565b7f544f4b454e5f49445f4e4f545f45584953544544000000000000000000000000600082015250565b7f416363657373436f6e74726f6c3a2063616e206f6e6c792072656e6f756e636560008201527f20726f6c657320666f722073656c660000000000000000000000000000000000602082015250565b6148f581614037565b811461490057600080fd5b50565b61490c81614049565b811461491757600080fd5b50565b61492381614055565b811461492e57600080fd5b50565b61493a8161405f565b811461494557600080fd5b50565b614951816140ab565b811461495c57600080fd5b5056fea26469706673582212200ed2bdd3c6284b96e1cfe50599d6c2ed73e80ed0e5d1ed4c2e41b45fad5f601164736f6c63430008040033",
  "immutableReferences": {
    "2826": [
      {
        "length": 32,
        "start": 9713
      }
    ],
    "2828": [
      {
        "length": 32,
        "start": 9673
      }
    ],
    "2830": [
      {
        "length": 32,
        "start": 9789
      }
    ],
    "2832": [
      {
        "length": 32,
        "start": 9822
      }
    ],
    "2834": [
      {
        "length": 32,
        "start": 9756
      }
    ]
  },
  "source": "// SPDX-License-Identifier: UNLICENSED\n\npragma solidity 0.8.4;\n\nimport \"./lib/access/AccessControl.sol\";\nimport \"./lib/utils/cryptography/ECDSA.sol\";\nimport \"./lib/utils/cryptography/draft-EIP712.sol\";\nimport \"./TaureumERC721Enumerable.sol\";\n\ncontract TaureumERC721LazyMint is TaureumERC721Enumerable, EIP712, AccessControl {\n    bytes32 public constant MINTER_ROLE = keccak256(\"MINTER_ROLE\");\n    string private constant SIGNING_DOMAIN = \"TaureumNFT\";\n    string private constant SIGNATURE_VERSION = \"1\";\n\n    /**\n     * @dev Emitted when a pending token is redeemed in the lazy-minting protocol.\n     */\n    event Redeem(\n        address indexed minter,\n        address indexed redeemer,\n        string uri,\n        bytes signature);\n\n    /**\n     * @dev Create a new TaureumNFTLazyMint contract and and assign `DEFAULT_ADMIN_ROLE, MINTER_ROLE` for the creator.\n     * This construction function should be called from an exchange.\n     *\n     */\n    constructor() TaureumERC721Enumerable() EIP712(SIGNING_DOMAIN, SIGNATURE_VERSION)\n    {\n        _setupRole(MINTER_ROLE, msg.sender);\n        _setupRole(DEFAULT_ADMIN_ROLE, msg.sender);\n    }\n\n    /**\n     * @dev See {IERC165-supportsInterface}.\n     */\n    function supportsInterface(bytes4 interfaceId) public view virtual override(TaureumERC721Enumerable, AccessControl) returns (bool) {\n        return\n        super.supportsInterface(interfaceId);\n    }\n\n    /**\n     * @dev Implement a lazy minting mechanism in which the NFT-minting process is delayed until the first order is successful.\n     * This function should be handled by a smart contract which creates this contract.\n     * @notice It throws if\n     *      - `msg.sender` does not have the `MINTER_ROLE`.\n     *      - redeem data and signature are not valid.\n     * @param minter The address that the sells this NFT, or the first of owner of the NFT.\n     * @param redeemer The address that the minted NFT will be transferred to.\n     * @param uri The URI consists of metadata description of the minting NFT on the IPFS (without prefix).\n     * @param signature The signature signed by `to` designating `msg.sender` to mint the NFT for it.\n     */\n    function redeem(address minter, address redeemer, string calldata uri, bytes calldata signature)\n    external\n    {\n        require(minter == _verify(_hash(uri), signature));\n        require(hasRole(MINTER_ROLE, minter), \"INVALID_MINTER_ROLE\");\n\n        // mint the token to the signer\n        uint256 id = mint(minter, uri);\n\n        // transfer the minted token to the redeemer\n        _transfer(minter, redeemer, id);\n\n        emit Redeem(minter, redeemer, uri, signature);\n    }\n\n    /// @notice Returns a hash of the given PendingNFT, prepared using EIP712 typed data hashing rules.\n    function _hash(string calldata uri)\n    internal view returns (bytes32)\n    {\n        return _hashTypedDataV4(keccak256(abi.encode(\n                keccak256(\"TaureumNFT(string uri)\"),\n                keccak256(bytes(uri))\n            )));\n    }\n\n    /**\n     * @dev Returns the signer for a pair of digested message and signature.\n     */\n    function _verify(bytes32 digest, bytes memory signature)\n    internal pure returns (address)\n    {\n        return ECDSA.recover(digest, signature);\n    }\n}\n",
  "sourcePath": "/home/toor/nodejs/truffle/nft_demo/taudefi/taudefi-nft/contracts/TaureumERC721LazyMint.sol",
  "compiler": {
    "name": "solc",
    "version": "0.8.4+commit.c7e474f2.Emscripten.clang"
  },
  "schemaVersion": "3.4.1",
  "updatedAt": "2021-07-26T13:18:45.288Z",
  "networkType": "ethereum",
  "devdoc": {
    "events": {
      "Redeem(address,address,string,bytes)": {
        "details": "Emitted when a pending token is redeemed in the lazy-minting protocol."
      }
    },
    "kind": "dev",
    "methods": {
      "approve(address,uint256)": {
        "details": "See {IERC721-approve}."
      },
      "balanceOf(address)": {
        "details": "See {IERC721-balanceOf}."
      },
      "constructor": {
        "details": "Create a new TaureumNFTLazyMint contract and and assign `DEFAULT_ADMIN_ROLE, MINTER_ROLE` for the creator. This construction function should be called from an exchange."
      },
      "getApproved(uint256)": {
        "details": "See {IERC721-getApproved}."
      },
      "getRoleAdmin(bytes32)": {
        "details": "Returns the admin role that controls `role`. See {grantRole} and {revokeRole}. To change a role's admin, use {_setRoleAdmin}."
      },
      "grantRole(bytes32,address)": {
        "details": "Grants `role` to `account`. If `account` had not been already granted `role`, emits a {RoleGranted} event. Requirements: - the caller must have ``role``'s admin role."
      },
      "hasRole(bytes32,address)": {
        "details": "Returns `true` if `account` has been granted `role`."
      },
      "isApprovedForAll(address,address)": {
        "details": "See {IERC721-isApprovedForAll}."
      },
      "mint(address,string)": {
        "details": "Mint a new NFT.",
        "params": {
          "to": "The address that will own the minted NFT.",
          "uri": "The URI consists of metadata description of the minting NFT on the IPFS (without prefix)."
        }
      },
      "name()": {
        "details": "See {IERC721Metadata-name}."
      },
      "ownerOf(uint256)": {
        "details": "See {IERC721-ownerOf}."
      },
      "redeem(address,address,string,bytes)": {
        "details": "Implement a lazy minting mechanism in which the NFT-minting process is delayed until the first order is successful. This function should be handled by a smart contract which creates this contract.",
        "params": {
          "minter": "The address that the sells this NFT, or the first of owner of the NFT.",
          "redeemer": "The address that the minted NFT will be transferred to.",
          "signature": "The signature signed by `to` designating `msg.sender` to mint the NFT for it.",
          "uri": "The URI consists of metadata description of the minting NFT on the IPFS (without prefix)."
        }
      },
      "renounceRole(bytes32,address)": {
        "details": "Revokes `role` from the calling account. Roles are often managed via {grantRole} and {revokeRole}: this function's purpose is to provide a mechanism for accounts to lose their privileges if they are compromised (such as when a trusted device is misplaced). If the calling account had been granted `role`, emits a {RoleRevoked} event. Requirements: - the caller must be `account`."
      },
      "revokeRole(bytes32,address)": {
        "details": "Revokes `role` from `account`. If `account` had been granted `role`, emits a {RoleRevoked} event. Requirements: - the caller must have ``role``'s admin role."
      },
      "safeMint(address,string)": {
        "details": "Safely mint a new NFT.",
        "params": {
          "to": "The address that will own the minted NFT.",
          "uri": "The URI consists of metadata description of the minting NFT on the IPFS (without prefix)."
        }
      },
      "safeTransferFrom(address,address,uint256)": {
        "details": "See {IERC721-safeTransferFrom}."
      },
      "safeTransferFrom(address,address,uint256,bytes)": {
        "details": "See {IERC721-safeTransferFrom}."
      },
      "setApprovalForAll(address,bool)": {
        "details": "See {IERC721-setApprovalForAll}."
      },
      "supportsInterface(bytes4)": {
        "details": "See {IERC165-supportsInterface}."
      },
      "symbol()": {
        "details": "See {IERC721Metadata-symbol}."
      },
      "tokenByIndex(uint256)": {
        "details": "See {IERC721Enumerable-tokenByIndex}."
      },
      "tokenOfOwnerByIndex(address,uint256)": {
        "details": "See {IERC721Enumerable-tokenOfOwnerByIndex}."
      },
      "tokenURI(uint256)": {
        "details": "See {IERC721Metadata-tokenURI}."
      },
      "totalSupply()": {
        "details": "See {IERC721Enumerable-totalSupply}."
      },
      "transferFrom(address,address,uint256)": {
        "details": "See {IERC721-transferFrom}."
      }
    },
    "version": 1
  },
  "userdoc": {
    "kind": "user",
    "methods": {
      "mint(address,string)": {
        "notice": "It throws an exception if    - `to` is a \"ZERO_ADDRESS."
      },
      "redeem(address,address,string,bytes)": {
        "notice": "It throws if      - `msg.sender` does not have the `MINTER_ROLE`.      - redeem data and signature are not valid."
      },
      "safeMint(address,string)": {
        "notice": "It throws an exception if    - `to` is a \"ZERO_ADDRESS.    - If `to` refers to a smart contract, it must implement {IERC721Receiver-onERC721Received}, which is called upon a safe transfer."
      }
    },
    "version": 1
  }
}