{
  "contractName": "TaureumERC721",
  "abi": [
    {
      "inputs": [],
      "stateMutability": "nonpayable",
      "type": "constructor"
    },
    {
      "anonymous": false,
      "inputs": [
        {
          "indexed": true,
          "internalType": "address",
          "name": "owner",
          "type": "address"
        },
        {
          "indexed": true,
          "internalType": "address",
          "name": "approved",
          "type": "address"
        },
        {
          "indexed": true,
          "internalType": "uint256",
          "name": "tokenId",
          "type": "uint256"
        }
      ],
      "name": "Approval",
      "type": "event"
    },
    {
      "anonymous": false,
      "inputs": [
        {
          "indexed": true,
          "internalType": "address",
          "name": "owner",
          "type": "address"
        },
        {
          "indexed": true,
          "internalType": "address",
          "name": "operator",
          "type": "address"
        },
        {
          "indexed": false,
          "internalType": "bool",
          "name": "approved",
          "type": "bool"
        }
      ],
      "name": "ApprovalForAll",
      "type": "event"
    },
    {
      "anonymous": false,
      "inputs": [
        {
          "indexed": true,
          "internalType": "address",
          "name": "previousOwner",
          "type": "address"
        },
        {
          "indexed": true,
          "internalType": "address",
          "name": "newOwner",
          "type": "address"
        }
      ],
      "name": "OwnershipTransferred",
      "type": "event"
    },
    {
      "anonymous": false,
      "inputs": [
        {
          "indexed": true,
          "internalType": "address",
          "name": "from",
          "type": "address"
        },
        {
          "indexed": true,
          "internalType": "address",
          "name": "to",
          "type": "address"
        },
        {
          "indexed": true,
          "internalType": "uint256",
          "name": "tokenId",
          "type": "uint256"
        }
      ],
      "name": "Transfer",
      "type": "event"
    },
    {
      "inputs": [
        {
          "internalType": "address",
          "name": "to",
          "type": "address"
        },
        {
          "internalType": "uint256",
          "name": "tokenId",
          "type": "uint256"
        }
      ],
      "name": "approve",
      "outputs": [],
      "stateMutability": "nonpayable",
      "type": "function"
    },
    {
      "inputs": [
        {
          "internalType": "address",
          "name": "owner",
          "type": "address"
        }
      ],
      "name": "balanceOf",
      "outputs": [
        {
          "internalType": "uint256",
          "name": "",
          "type": "uint256"
        }
      ],
      "stateMutability": "view",
      "type": "function"
    },
    {
      "inputs": [
        {
          "internalType": "uint256",
          "name": "tokenId",
          "type": "uint256"
        }
      ],
      "name": "getApproved",
      "outputs": [
        {
          "internalType": "address",
          "name": "",
          "type": "address"
        }
      ],
      "stateMutability": "view",
      "type": "function"
    },
    {
      "inputs": [
        {
          "internalType": "address",
          "name": "owner",
          "type": "address"
        },
        {
          "internalType": "address",
          "name": "operator",
          "type": "address"
        }
      ],
      "name": "isApprovedForAll",
      "outputs": [
        {
          "internalType": "bool",
          "name": "",
          "type": "bool"
        }
      ],
      "stateMutability": "view",
      "type": "function"
    },
    {
      "inputs": [],
      "name": "name",
      "outputs": [
        {
          "internalType": "string",
          "name": "",
          "type": "string"
        }
      ],
      "stateMutability": "view",
      "type": "function"
    },
    {
      "inputs": [],
      "name": "owner",
      "outputs": [
        {
          "internalType": "address",
          "name": "",
          "type": "address"
        }
      ],
      "stateMutability": "view",
      "type": "function"
    },
    {
      "inputs": [
        {
          "internalType": "uint256",
          "name": "tokenId",
          "type": "uint256"
        }
      ],
      "name": "ownerOf",
      "outputs": [
        {
          "internalType": "address",
          "name": "",
          "type": "address"
        }
      ],
      "stateMutability": "view",
      "type": "function"
    },
    {
      "inputs": [],
      "name": "renounceOwnership",
      "outputs": [],
      "stateMutability": "nonpayable",
      "type": "function"
    },
    {
      "inputs": [
        {
          "internalType": "address",
          "name": "from",
          "type": "address"
        },
        {
          "internalType": "address",
          "name": "to",
          "type": "address"
        },
        {
          "internalType": "uint256",
          "name": "tokenId",
          "type": "uint256"
        }
      ],
      "name": "safeTransferFrom",
      "outputs": [],
      "stateMutability": "nonpayable",
      "type": "function"
    },
    {
      "inputs": [
        {
          "internalType": "address",
          "name": "from",
          "type": "address"
        },
        {
          "internalType": "address",
          "name": "to",
          "type": "address"
        },
        {
          "internalType": "uint256",
          "name": "tokenId",
          "type": "uint256"
        },
        {
          "internalType": "bytes",
          "name": "_data",
          "type": "bytes"
        }
      ],
      "name": "safeTransferFrom",
      "outputs": [],
      "stateMutability": "nonpayable",
      "type": "function"
    },
    {
      "inputs": [
        {
          "internalType": "address",
          "name": "operator",
          "type": "address"
        },
        {
          "internalType": "bool",
          "name": "approved",
          "type": "bool"
        }
      ],
      "name": "setApprovalForAll",
      "outputs": [],
      "stateMutability": "nonpayable",
      "type": "function"
    },
    {
      "inputs": [
        {
          "internalType": "bytes4",
          "name": "interfaceId",
          "type": "bytes4"
        }
      ],
      "name": "supportsInterface",
      "outputs": [
        {
          "internalType": "bool",
          "name": "",
          "type": "bool"
        }
      ],
      "stateMutability": "view",
      "type": "function"
    },
    {
      "inputs": [],
      "name": "symbol",
      "outputs": [
        {
          "internalType": "string",
          "name": "",
          "type": "string"
        }
      ],
      "stateMutability": "view",
      "type": "function"
    },
    {
      "inputs": [
        {
          "internalType": "address",
          "name": "from",
          "type": "address"
        },
        {
          "internalType": "address",
          "name": "to",
          "type": "address"
        },
        {
          "internalType": "uint256",
          "name": "tokenId",
          "type": "uint256"
        }
      ],
      "name": "transferFrom",
      "outputs": [],
      "stateMutability": "nonpayable",
      "type": "function"
    },
    {
      "inputs": [
        {
          "internalType": "address",
          "name": "newOwner",
          "type": "address"
        }
      ],
      "name": "transferOwnership",
      "outputs": [],
      "stateMutability": "nonpayable",
      "type": "function"
    },
    {
      "inputs": [
        {
          "internalType": "address",
          "name": "to",
          "type": "address"
        },
        {
          "internalType": "string",
          "name": "uri",
          "type": "string"
        }
      ],
      "name": "safeMint",
      "outputs": [
        {
          "internalType": "uint256",
          "name": "",
          "type": "uint256"
        }
      ],
      "stateMutability": "nonpayable",
      "type": "function"
    },
    {
      "inputs": [
        {
          "internalType": "address",
          "name": "to",
          "type": "address"
        },
        {
          "internalType": "string",
          "name": "uri",
          "type": "string"
        }
      ],
      "name": "mint",
      "outputs": [
        {
          "internalType": "uint256",
          "name": "",
          "type": "uint256"
        }
      ],
      "stateMutability": "nonpayable",
      "type": "function"
    },
    {
      "inputs": [
        {
          "internalType": "uint256",
          "name": "tokenId",
          "type": "uint256"
        }
      ],
      "name": "tokenURI",
      "outputs": [
        {
          "internalType": "string",
          "name": "",
          "type": "string"
        }
      ],
      "stateMutability": "view",
      "type": "function"
    },
    {
      "inputs": [
        {
          "internalType": "string",
          "name": "newBaseURI",
          "type": "string"
        }
      ],
      "name": "setBaseURI",
      "outputs": [],
      "stateMutability": "nonpayable",
      "type": "function"
    },
    {
      "inputs": [],
      "name": "baseURI",
      "outputs": [
        {
          "internalType": "string",
          "name": "",
          "type": "string"
        }
      ],
      "stateMutability": "view",
      "type": "function"
    }
  ],
  "bytecode": "0x60806040523480156200001157600080fd5b506040518060400160405280600e81526020017f5461757265756d204552433732310000000000000000000000000000000000008152506040518060400160405280600781526020017f5461757265756d0000000000000000000000000000000000000000000000000081525081600090805190602001906200009692919062000199565b508060019080519060200190620000af92919062000199565b5050506000620000c46200019160201b60201c565b905080600660006101000a81548173ffffffffffffffffffffffffffffffffffffffff021916908373ffffffffffffffffffffffffffffffffffffffff1602179055508073ffffffffffffffffffffffffffffffffffffffff16600073ffffffffffffffffffffffffffffffffffffffff167f8be0079c531659141344cd1fd0a4f28419497f9722a3daafe3b4186f6b6457e060405160405180910390a35060405180602001604052806000815250600890805190602001906200018a92919062000199565b50620002ae565b600033905090565b828054620001a79062000249565b90600052602060002090601f016020900481019282620001cb576000855562000217565b82601f10620001e657805160ff191683800117855562000217565b8280016001018555821562000217579182015b8281111562000216578251825591602001919060010190620001f9565b5b5090506200022691906200022a565b5090565b5b80821115620002455760008160009055506001016200022b565b5090565b600060028204905060018216806200026257607f821691505b602082108114156200027957620002786200027f565b5b50919050565b7f4e487b7100000000000000000000000000000000000000000000000000000000600052602260045260246000fd5b61301a80620002be6000396000f3fe608060405234801561001057600080fd5b506004361061012c5760003560e01c8063715018a6116100ad578063c87b56dd11610071578063c87b56dd1461031b578063d0def5211461034b578063d204c45e1461037b578063e985e9c5146103ab578063f2fde38b146103db5761012c565b8063715018a61461029d5780638da5cb5b146102a757806395d89b41146102c5578063a22cb465146102e3578063b88d4fde146102ff5761012c565b806342842e0e116100f457806342842e0e146101e757806355f804b3146102035780636352211e1461021f5780636c0360eb1461024f57806370a082311461026d5761012c565b806301ffc9a71461013157806306fdde0314610161578063081812fc1461017f578063095ea7b3146101af57806323b872dd146101cb575b600080fd5b61014b60048036038101906101469190612058565b6103f7565b604051610158919061256f565b60405180910390f35b6101696104d9565b604051610176919061258a565b60405180910390f35b610199600480360381019061019491906120eb565b61056b565b6040516101a691906124d6565b60405180910390f35b6101c960048036038101906101c4919061201c565b6105f0565b005b6101e560048036038101906101e09190611ebe565b610708565b005b61020160048036038101906101fc9190611ebe565b610768565b005b61021d600480360381019061021891906120aa565b610788565b005b610239600480360381019061023491906120eb565b61081e565b60405161024691906124d6565b60405180910390f35b6102576108d0565b604051610264919061258a565b60405180910390f35b61028760048036038101906102829190611e59565b610962565b60405161029491906127cc565b60405180910390f35b6102a5610a1a565b005b6102af610b57565b6040516102bc91906124d6565b60405180910390f35b6102cd610b81565b6040516102da919061258a565b60405180910390f35b6102fd60048036038101906102f89190611f88565b610c13565b005b61031960048036038101906103149190611f0d565b610d94565b005b610335600480360381019061033091906120eb565b610df6565b604051610342919061258a565b60405180910390f35b61036560048036038101906103609190611fc4565b610f34565b60405161037291906127cc565b60405180910390f35b61039560048036038101906103909190611fc4565b610f87565b6040516103a291906127cc565b60405180910390f35b6103c560048036038101906103c09190611e82565b610fda565b6040516103d2919061256f565b60405180910390f35b6103f560048036038101906103f09190611e59565b61106e565b005b60007f80ac58cd000000000000000000000000000000000000000000000000000000007bffffffffffffffffffffffffffffffffffffffffffffffffffffffff1916827bffffffffffffffffffffffffffffffffffffffffffffffffffffffff191614806104c257507f5b5e139f000000000000000000000000000000000000000000000000000000007bffffffffffffffffffffffffffffffffffffffffffffffffffffffff1916827bffffffffffffffffffffffffffffffffffffffffffffffffffffffff1916145b806104d257506104d18261121a565b5b9050919050565b6060600080546104e890612a06565b80601f016020809104026020016040519081016040528092919081815260200182805461051490612a06565b80156105615780601f1061053657610100808354040283529160200191610561565b820191906000526020600020905b81548152906001019060200180831161054457829003601f168201915b5050505050905090565b600061057682611284565b6105b5576040517f08c379a00000000000000000000000000000000000000000000000000000000081526004016105ac906126ec565b60405180910390fd5b6004600083815260200190815260200160002060009054906101000a900473ffffffffffffffffffffffffffffffffffffffff169050919050565b60006105fb8261081e565b90508073ffffffffffffffffffffffffffffffffffffffff168373ffffffffffffffffffffffffffffffffffffffff16141561066c576040517f08c379a00000000000000000000000000000000000000000000000000000000081526004016106639061276c565b60405180910390fd5b8073ffffffffffffffffffffffffffffffffffffffff1661068b6112f0565b73ffffffffffffffffffffffffffffffffffffffff1614806106ba57506106b9816106b46112f0565b610fda565b5b6106f9576040517f08c379a00000000000000000000000000000000000000000000000000000000081526004016106f09061266c565b60405180910390fd5b61070383836112f8565b505050565b6107196107136112f0565b826113b1565b610758576040517f08c379a000000000000000000000000000000000000000000000000000000000815260040161074f9061278c565b60405180910390fd5b61076383838361148f565b505050565b61078383838360405180602001604052806000815250610d94565b505050565b6107906112f0565b73ffffffffffffffffffffffffffffffffffffffff166107ae610b57565b73ffffffffffffffffffffffffffffffffffffffff1614610804576040517f08c379a00000000000000000000000000000000000000000000000000000000081526004016107fb9061270c565b60405180910390fd5b806008908051906020019061081a929190611bad565b5050565b6000806002600084815260200190815260200160002060009054906101000a900473ffffffffffffffffffffffffffffffffffffffff169050600073ffffffffffffffffffffffffffffffffffffffff168173ffffffffffffffffffffffffffffffffffffffff1614156108c7576040517f08c379a00000000000000000000000000000000000000000000000000000000081526004016108be906126ac565b60405180910390fd5b80915050919050565b6060600880546108df90612a06565b80601f016020809104026020016040519081016040528092919081815260200182805461090b90612a06565b80156109585780601f1061092d57610100808354040283529160200191610958565b820191906000526020600020905b81548152906001019060200180831161093b57829003601f168201915b5050505050905090565b60008073ffffffffffffffffffffffffffffffffffffffff168273ffffffffffffffffffffffffffffffffffffffff1614156109d3576040517f08c379a00000000000000000000000000000000000000000000000000000000081526004016109ca9061268c565b60405180910390fd5b600360008373ffffffffffffffffffffffffffffffffffffffff1673ffffffffffffffffffffffffffffffffffffffff168152602001908152602001600020549050919050565b610a226112f0565b73ffffffffffffffffffffffffffffffffffffffff16610a40610b57565b73ffffffffffffffffffffffffffffffffffffffff1614610a96576040517f08c379a0000000000000000000000000000000000000000000000000000000008152600401610a8d9061270c565b60405180910390fd5b600073ffffffffffffffffffffffffffffffffffffffff16600660009054906101000a900473ffffffffffffffffffffffffffffffffffffffff1673ffffffffffffffffffffffffffffffffffffffff167f8be0079c531659141344cd1fd0a4f28419497f9722a3daafe3b4186f6b6457e060405160405180910390a36000600660006101000a81548173ffffffffffffffffffffffffffffffffffffffff021916908373ffffffffffffffffffffffffffffffffffffffff160217905550565b6000600660009054906101000a900473ffffffffffffffffffffffffffffffffffffffff16905090565b606060018054610b9090612a06565b80601f0160208091040260200160405190810160405280929190818152602001828054610bbc90612a06565b8015610c095780601f10610bde57610100808354040283529160200191610c09565b820191906000526020600020905b815481529060010190602001808311610bec57829003601f168201915b5050505050905090565b610c1b6112f0565b73ffffffffffffffffffffffffffffffffffffffff168273ffffffffffffffffffffffffffffffffffffffff161415610c89576040517f08c379a0000000000000000000000000000000000000000000000000000000008152600401610c809061262c565b60405180910390fd5b8060056000610c966112f0565b73ffffffffffffffffffffffffffffffffffffffff1673ffffffffffffffffffffffffffffffffffffffff16815260200190815260200160002060008473ffffffffffffffffffffffffffffffffffffffff1673ffffffffffffffffffffffffffffffffffffffff16815260200190815260200160002060006101000a81548160ff0219169083151502179055508173ffffffffffffffffffffffffffffffffffffffff16610d436112f0565b73ffffffffffffffffffffffffffffffffffffffff167f17307eab39ab6107e8899845ad3d59bd9653f200f220920489ca2b5937696c3183604051610d88919061256f565b60405180910390a35050565b610da5610d9f6112f0565b836113b1565b610de4576040517f08c379a0000000000000000000000000000000000000000000000000000000008152600401610ddb9061278c565b60405180910390fd5b610df0848484846116eb565b50505050565b6060610e0182611284565b610e40576040517f08c379a0000000000000000000000000000000000000000000000000000000008152600401610e379061274c565b60405180910390fd5b600060088054610e4f90612a06565b905011610ef757600760008381526020019081526020016000208054610e7490612a06565b80601f0160208091040260200160405190810160405280929190818152602001828054610ea090612a06565b8015610eed5780601f10610ec257610100808354040283529160200191610eed565b820191906000526020600020905b815481529060010190602001808311610ed057829003601f168201915b5050505050610f2d565b600860076000848152602001908152602001600020604051602001610f1d9291906124b2565b6040516020818303038152906040525b9050919050565b600080848484604051602001610f4c9392919061253d565b6040516020818303038152906040528051906020012060001c9050610f718582611747565b610f7c818585611915565b809150509392505050565b600080848484604051602001610f9f9392919061253d565b6040516020818303038152906040528051906020012060001c9050610fc48582611985565b610fcf818585611915565b809150509392505050565b6000600560008473ffffffffffffffffffffffffffffffffffffffff1673ffffffffffffffffffffffffffffffffffffffff16815260200190815260200160002060008373ffffffffffffffffffffffffffffffffffffffff1673ffffffffffffffffffffffffffffffffffffffff16815260200190815260200160002060009054906101000a900460ff16905092915050565b6110766112f0565b73ffffffffffffffffffffffffffffffffffffffff16611094610b57565b73ffffffffffffffffffffffffffffffffffffffff16146110ea576040517f08c379a00000000000000000000000000000000000000000000000000000000081526004016110e19061270c565b60405180910390fd5b600073ffffffffffffffffffffffffffffffffffffffff168173ffffffffffffffffffffffffffffffffffffffff16141561115a576040517f08c379a0000000000000000000000000000000000000000000000000000000008152600401611151906125cc565b60405180910390fd5b8073ffffffffffffffffffffffffffffffffffffffff16600660009054906101000a900473ffffffffffffffffffffffffffffffffffffffff1673ffffffffffffffffffffffffffffffffffffffff167f8be0079c531659141344cd1fd0a4f28419497f9722a3daafe3b4186f6b6457e060405160405180910390a380600660006101000a81548173ffffffffffffffffffffffffffffffffffffffff021916908373ffffffffffffffffffffffffffffffffffffffff16021790555050565b60007f01ffc9a7000000000000000000000000000000000000000000000000000000007bffffffffffffffffffffffffffffffffffffffffffffffffffffffff1916827bffffffffffffffffffffffffffffffffffffffffffffffffffffffff1916149050919050565b60008073ffffffffffffffffffffffffffffffffffffffff166002600084815260200190815260200160002060009054906101000a900473ffffffffffffffffffffffffffffffffffffffff1673ffffffffffffffffffffffffffffffffffffffff1614159050919050565b600033905090565b816004600083815260200190815260200160002060006101000a81548173ffffffffffffffffffffffffffffffffffffffff021916908373ffffffffffffffffffffffffffffffffffffffff160217905550808273ffffffffffffffffffffffffffffffffffffffff1661136b8361081e565b73ffffffffffffffffffffffffffffffffffffffff167f8c5be1e5ebec7d5bd14f71427d1e84f3dd0314c0f7b2291e5b200ac8c7c3b92560405160405180910390a45050565b60006113bc82611284565b6113fb576040517f08c379a00000000000000000000000000000000000000000000000000000000081526004016113f29061264c565b60405180910390fd5b60006114068361081e565b90508073ffffffffffffffffffffffffffffffffffffffff168473ffffffffffffffffffffffffffffffffffffffff16148061147557508373ffffffffffffffffffffffffffffffffffffffff1661145d8461056b565b73ffffffffffffffffffffffffffffffffffffffff16145b8061148657506114858185610fda565b5b91505092915050565b8273ffffffffffffffffffffffffffffffffffffffff166114af8261081e565b73ffffffffffffffffffffffffffffffffffffffff1614611505576040517f08c379a00000000000000000000000000000000000000000000000000000000081526004016114fc9061272c565b60405180910390fd5b600073ffffffffffffffffffffffffffffffffffffffff168273ffffffffffffffffffffffffffffffffffffffff161415611575576040517f08c379a000000000000000000000000000000000000000000000000000000000815260040161156c9061260c565b60405180910390fd5b6115808383836119a3565b61158b6000826112f8565b6001600360008573ffffffffffffffffffffffffffffffffffffffff1673ffffffffffffffffffffffffffffffffffffffff16815260200190815260200160002060008282546115db919061291c565b925050819055506001600360008473ffffffffffffffffffffffffffffffffffffffff1673ffffffffffffffffffffffffffffffffffffffff168152602001908152602001600020600082825461163291906128c6565b92505081905550816002600083815260200190815260200160002060006101000a81548173ffffffffffffffffffffffffffffffffffffffff021916908373ffffffffffffffffffffffffffffffffffffffff160217905550808273ffffffffffffffffffffffffffffffffffffffff168473ffffffffffffffffffffffffffffffffffffffff167fddf252ad1be2c89b69c2b068fc378daa952ba7f163c4a11628f55a4df523b3ef60405160405180910390a4505050565b6116f684848461148f565b611702848484846119a8565b611741576040517f08c379a0000000000000000000000000000000000000000000000000000000008152600401611738906125ac565b60405180910390fd5b50505050565b600073ffffffffffffffffffffffffffffffffffffffff168273ffffffffffffffffffffffffffffffffffffffff1614156117b7576040517f08c379a00000000000000000000000000000000000000000000000000000000081526004016117ae906126cc565b60405180910390fd5b6117c081611284565b15611800576040517f08c379a00000000000000000000000000000000000000000000000000000000081526004016117f7906125ec565b60405180910390fd5b61180c600083836119a3565b6001600360008473ffffffffffffffffffffffffffffffffffffffff1673ffffffffffffffffffffffffffffffffffffffff168152602001908152602001600020600082825461185c91906128c6565b92505081905550816002600083815260200190815260200160002060006101000a81548173ffffffffffffffffffffffffffffffffffffffff021916908373ffffffffffffffffffffffffffffffffffffffff160217905550808273ffffffffffffffffffffffffffffffffffffffff16600073ffffffffffffffffffffffffffffffffffffffff167fddf252ad1be2c89b69c2b068fc378daa952ba7f163c4a11628f55a4df523b3ef60405160405180910390a45050565b61191e83611284565b61195d576040517f08c379a0000000000000000000000000000000000000000000000000000000008152600401611954906127ac565b60405180910390fd5b818160076000868152602001908152602001600020919061197f929190611c33565b50505050565b61199f828260405180602001604052806000815250611b3f565b5050565b505050565b60006119c98473ffffffffffffffffffffffffffffffffffffffff16611b9a565b15611b32578373ffffffffffffffffffffffffffffffffffffffff1663150b7a026119f26112f0565b8786866040518563ffffffff1660e01b8152600401611a1494939291906124f1565b602060405180830381600087803b158015611a2e57600080fd5b505af1925050508015611a5f57506040513d601f19601f82011682018060405250810190611a5c9190612081565b60015b611ae2573d8060008114611a8f576040519150601f19603f3d011682016040523d82523d6000602084013e611a94565b606091505b50600081511415611ada576040517f08c379a0000000000000000000000000000000000000000000000000000000008152600401611ad1906125ac565b60405180910390fd5b805181602001fd5b63150b7a0260e01b7bffffffffffffffffffffffffffffffffffffffffffffffffffffffff1916817bffffffffffffffffffffffffffffffffffffffffffffffffffffffff191614915050611b37565b600190505b949350505050565b611b498383611747565b611b5660008484846119a8565b611b95576040517f08c379a0000000000000000000000000000000000000000000000000000000008152600401611b8c906125ac565b60405180910390fd5b505050565b600080823b905060008111915050919050565b828054611bb990612a06565b90600052602060002090601f016020900481019282611bdb5760008555611c22565b82601f10611bf457805160ff1916838001178555611c22565b82800160010185558215611c22579182015b82811115611c21578251825591602001919060010190611c06565b5b509050611c2f9190611cb9565b5090565b828054611c3f90612a06565b90600052602060002090601f016020900481019282611c615760008555611ca8565b82601f10611c7a57803560ff1916838001178555611ca8565b82800160010185558215611ca8579182015b82811115611ca7578235825591602001919060010190611c8c565b5b509050611cb59190611cb9565b5090565b5b80821115611cd2576000816000905550600101611cba565b5090565b6000611ce9611ce48461280c565b6127e7565b905082815260208101848484011115611d0157600080fd5b611d0c8482856129c4565b509392505050565b6000611d27611d228461283d565b6127e7565b905082815260208101848484011115611d3f57600080fd5b611d4a8482856129c4565b509392505050565b600081359050611d6181612f88565b92915050565b600081359050611d7681612f9f565b92915050565b600081359050611d8b81612fb6565b92915050565b600081519050611da081612fb6565b92915050565b600082601f830112611db757600080fd5b8135611dc7848260208601611cd6565b91505092915050565b60008083601f840112611de257600080fd5b8235905067ffffffffffffffff811115611dfb57600080fd5b602083019150836001820283011115611e1357600080fd5b9250929050565b600082601f830112611e2b57600080fd5b8135611e3b848260208601611d14565b91505092915050565b600081359050611e5381612fcd565b92915050565b600060208284031215611e6b57600080fd5b6000611e7984828501611d52565b91505092915050565b60008060408385031215611e9557600080fd5b6000611ea385828601611d52565b9250506020611eb485828601611d52565b9150509250929050565b600080600060608486031215611ed357600080fd5b6000611ee186828701611d52565b9350506020611ef286828701611d52565b9250506040611f0386828701611e44565b9150509250925092565b60008060008060808587031215611f2357600080fd5b6000611f3187828801611d52565b9450506020611f4287828801611d52565b9350506040611f5387828801611e44565b925050606085013567ffffffffffffffff811115611f7057600080fd5b611f7c87828801611da6565b91505092959194509250565b60008060408385031215611f9b57600080fd5b6000611fa985828601611d52565b9250506020611fba85828601611d67565b9150509250929050565b600080600060408486031215611fd957600080fd5b6000611fe786828701611d52565b935050602084013567ffffffffffffffff81111561200457600080fd5b61201086828701611dd0565b92509250509250925092565b6000806040838503121561202f57600080fd5b600061203d85828601611d52565b925050602061204e85828601611e44565b9150509250929050565b60006020828403121561206a57600080fd5b600061207884828501611d7c565b91505092915050565b60006020828403121561209357600080fd5b60006120a184828501611d91565b91505092915050565b6000602082840312156120bc57600080fd5b600082013567ffffffffffffffff8111156120d657600080fd5b6120e284828501611e1a565b91505092915050565b6000602082840312156120fd57600080fd5b600061210b84828501611e44565b91505092915050565b61211d81612950565b82525050565b61212c81612962565b82525050565b600061213d82612883565b6121478185612899565b93506121578185602086016129d3565b61216081612af6565b840191505092915050565b600061217783856128aa565b93506121848385846129c4565b61218d83612af6565b840190509392505050565b60006121a38261288e565b6121ad81856128aa565b93506121bd8185602086016129d3565b6121c681612af6565b840191505092915050565b600081546121de81612a06565b6121e881866128bb565b94506001821660008114612203576001811461221457612247565b60ff19831686528186019350612247565b61221d8561286e565b60005b8381101561223f57815481890152600182019150602081019050612220565b838801955050505b50505092915050565b600061225d6032836128aa565b915061226882612b07565b604082019050919050565b60006122806026836128aa565b915061228b82612b56565b604082019050919050565b60006122a3601c836128aa565b91506122ae82612ba5565b602082019050919050565b60006122c66024836128aa565b91506122d182612bce565b604082019050919050565b60006122e96019836128aa565b91506122f482612c1d565b602082019050919050565b600061230c602c836128aa565b915061231782612c46565b604082019050919050565b600061232f6038836128aa565b915061233a82612c95565b604082019050919050565b6000612352602a836128aa565b915061235d82612ce4565b604082019050919050565b60006123756029836128aa565b915061238082612d33565b604082019050919050565b60006123986020836128aa565b91506123a382612d82565b602082019050919050565b60006123bb602c836128aa565b91506123c682612dab565b604082019050919050565b60006123de6020836128aa565b91506123e982612dfa565b602082019050919050565b60006124016029836128aa565b915061240c82612e23565b604082019050919050565b6000612424602f836128aa565b915061242f82612e72565b604082019050919050565b60006124476021836128aa565b915061245282612ec1565b604082019050919050565b600061246a6031836128aa565b915061247582612f10565b604082019050919050565b600061248d6014836128aa565b915061249882612f5f565b602082019050919050565b6124ac816129ba565b82525050565b60006124be82856121d1565b91506124ca82846121d1565b91508190509392505050565b60006020820190506124eb6000830184612114565b92915050565b60006080820190506125066000830187612114565b6125136020830186612114565b61252060408301856124a3565b81810360608301526125328184612132565b905095945050505050565b60006040820190506125526000830186612114565b818103602083015261256581848661216b565b9050949350505050565b60006020820190506125846000830184612123565b92915050565b600060208201905081810360008301526125a48184612198565b905092915050565b600060208201905081810360008301526125c581612250565b9050919050565b600060208201905081810360008301526125e581612273565b9050919050565b6000602082019050818103600083015261260581612296565b9050919050565b60006020820190508181036000830152612625816122b9565b9050919050565b60006020820190508181036000830152612645816122dc565b9050919050565b60006020820190508181036000830152612665816122ff565b9050919050565b6000602082019050818103600083015261268581612322565b9050919050565b600060208201905081810360008301526126a581612345565b9050919050565b600060208201905081810360008301526126c581612368565b9050919050565b600060208201905081810360008301526126e58161238b565b9050919050565b60006020820190508181036000830152612705816123ae565b9050919050565b60006020820190508181036000830152612725816123d1565b9050919050565b60006020820190508181036000830152612745816123f4565b9050919050565b6000602082019050818103600083015261276581612417565b9050919050565b600060208201905081810360008301526127858161243a565b9050919050565b600060208201905081810360008301526127a58161245d565b9050919050565b600060208201905081810360008301526127c581612480565b9050919050565b60006020820190506127e160008301846124a3565b92915050565b60006127f1612802565b90506127fd8282612a38565b919050565b6000604051905090565b600067ffffffffffffffff82111561282757612826612ac7565b5b61283082612af6565b9050602081019050919050565b600067ffffffffffffffff82111561285857612857612ac7565b5b61286182612af6565b9050602081019050919050565b60008190508160005260206000209050919050565b600081519050919050565b600081519050919050565b600082825260208201905092915050565b600082825260208201905092915050565b600081905092915050565b60006128d1826129ba565b91506128dc836129ba565b9250827fffffffffffffffffffffffffffffffffffffffffffffffffffffffffffffffff0382111561291157612910612a69565b5b828201905092915050565b6000612927826129ba565b9150612932836129ba565b92508282101561294557612944612a69565b5b828203905092915050565b600061295b8261299a565b9050919050565b60008115159050919050565b60007fffffffff0000000000000000000000000000000000000000000000000000000082169050919050565b600073ffffffffffffffffffffffffffffffffffffffff82169050919050565b6000819050919050565b82818337600083830152505050565b60005b838110156129f15780820151818401526020810190506129d6565b83811115612a00576000848401525b50505050565b60006002820490506001821680612a1e57607f821691505b60208210811415612a3257612a31612a98565b5b50919050565b612a4182612af6565b810181811067ffffffffffffffff82111715612a6057612a5f612ac7565b5b80604052505050565b7f4e487b7100000000000000000000000000000000000000000000000000000000600052601160045260246000fd5b7f4e487b7100000000000000000000000000000000000000000000000000000000600052602260045260246000fd5b7f4e487b7100000000000000000000000000000000000000000000000000000000600052604160045260246000fd5b6000601f19601f8301169050919050565b7f4552433732313a207472616e7366657220746f206e6f6e20455243373231526560008201527f63656976657220696d706c656d656e7465720000000000000000000000000000602082015250565b7f4f776e61626c653a206e6577206f776e657220697320746865207a65726f206160008201527f6464726573730000000000000000000000000000000000000000000000000000602082015250565b7f4552433732313a20746f6b656e20616c7265616479206d696e74656400000000600082015250565b7f4552433732313a207472616e7366657220746f20746865207a65726f2061646460008201527f7265737300000000000000000000000000000000000000000000000000000000602082015250565b7f4552433732313a20617070726f766520746f2063616c6c657200000000000000600082015250565b7f4552433732313a206f70657261746f7220717565727920666f72206e6f6e657860008201527f697374656e7420746f6b656e0000000000000000000000000000000000000000602082015250565b7f4552433732313a20617070726f76652063616c6c6572206973206e6f74206f7760008201527f6e6572206e6f7220617070726f76656420666f7220616c6c0000000000000000602082015250565b7f4552433732313a2062616c616e636520717565727920666f7220746865207a6560008201527f726f206164647265737300000000000000000000000000000000000000000000602082015250565b7f4552433732313a206f776e657220717565727920666f72206e6f6e657869737460008201527f656e7420746f6b656e0000000000000000000000000000000000000000000000602082015250565b7f4552433732313a206d696e7420746f20746865207a65726f2061646472657373600082015250565b7f4552433732313a20617070726f76656420717565727920666f72206e6f6e657860008201527f697374656e7420746f6b656e0000000000000000000000000000000000000000602082015250565b7f4f776e61626c653a2063616c6c6572206973206e6f7420746865206f776e6572600082015250565b7f4552433732313a207472616e73666572206f6620746f6b656e2074686174206960008201527f73206e6f74206f776e0000000000000000000000000000000000000000000000602082015250565b7f4552433732314d657461646174613a2055524920717565727920666f72206e6f60008201527f6e6578697374656e7420746f6b656e0000000000000000000000000000000000602082015250565b7f4552433732313a20617070726f76616c20746f2063757272656e74206f776e6560008201527f7200000000000000000000000000000000000000000000000000000000000000602082015250565b7f4552433732313a207472616e736665722063616c6c6572206973206e6f74206f60008201527f776e6572206e6f7220617070726f766564000000000000000000000000000000602082015250565b7f544f4b454e5f49445f4e4f545f45584953544544000000000000000000000000600082015250565b612f9181612950565b8114612f9c57600080fd5b50565b612fa881612962565b8114612fb357600080fd5b50565b612fbf8161296e565b8114612fca57600080fd5b50565b612fd6816129ba565b8114612fe157600080fd5b5056fea2646970667358221220a55eeeec21d7e065905a5e6b4a899039707bae63d7360c8db7a710563d46f80164736f6c63430008040033",
  "immutableReferences": {},
  "source": "// SPDX-License-Identifier: UNLICENSED\n\npragma solidity 0.8.4;\n\nimport \"../../lib/token/ERC721/ERC721.sol\";\nimport \"../../lib/access/Ownable.sol\";\n\ncontract TaureumERC721 is ERC721, Ownable {\n    /**\n     * @dev Mapping from NFT ID to metadata uri.\n     */\n    mapping(uint256 => string) internal idToUri;\n\n    /**\n     * @dev The base URI for all NFT.\n     */\n    string private __baseURI;\n\n    /**\n     * @dev Create a new TaureumERC721 contract.\n     *\n     */\n    constructor() ERC721(\"Taureum ERC721\", \"Taureum\") Ownable() {\n        __baseURI = \"\";\n    }\n\n    /**\n      * @dev Safely mint a new NFT.\n      * @notice It throws an exception if\n      *    - `to` is a \"ZERO_ADDRESS.\n      *    - If `to` refers to a smart contract, it must implement {IERC721Receiver-onERC721Received}, which is called upon a safe transfer.\n      * @param to The address that will own the minted NFT.\n      * @param uri The URI consists of metadata description of the minting NFT on the IPFS (without prefix).\n      */\n    function safeMint(\n        address to,\n        string calldata uri\n    )\n    public\n    returns (uint256)\n    {\n        uint256 id = uint256(keccak256(abi.encode(to, uri)));\n\n        _safeMint(to, id);\n        _setTokenUri(id, uri);\n\n        return id;\n    }\n\n    /**\n      * @dev Mint a new NFT.\n      * @notice It throws an exception if\n      *    - `to` is a \"ZERO_ADDRESS.\n      * @param to The address that will own the minted NFT.\n      * @param uri The URI consists of metadata description of the minting NFT on the IPFS (without prefix).\n      */\n    function mint(\n        address to,\n        string calldata uri\n    )\n    public\n    returns (uint256)\n    {\n        uint256 id = uint256(keccak256(abi.encode(to, uri)));\n\n        _mint(to, id);\n        _setTokenUri(id, uri);\n\n        return id;\n    }\n\n    /**\n     * @dev See {IERC721Metadata-tokenURI}.\n     */\n    function tokenURI(uint256 tokenId) public view virtual override returns (string memory) {\n        require(_exists(tokenId), \"ERC721Metadata: URI query for nonexistent token\");\n\n        return bytes(__baseURI).length > 0 ? string(abi.encodePacked(__baseURI, idToUri[tokenId])) : idToUri[tokenId];\n    }\n\n    /**\n     * @dev Sets new value for the `__baseURI`. This operation can only been done by the owner of this contract.\n     */\n    function setBaseURI(string memory newBaseURI) external onlyOwner {\n        __baseURI = newBaseURI;\n    }\n\n    /**\n     * @dev Returns `__baseURI`.\n     */\n    function baseURI() external view returns(string memory) {\n        return __baseURI;\n    }\n\n    /**\n     * @dev Base URI for computing {tokenURI}. If set, the resulting URI for each\n     * token will be the concatenation of the `baseURI` and the `tokenId`.\n     */\n    function _baseURI() internal view virtual override returns (string memory) {\n        return __baseURI;\n    }\n\n    /**\n     * @dev Set a distinct URI (RFC 3986) for a given NFT ID.\n     * @notice This is an internal function which should be called from user-implemented external\n     * function.\n     * @notice It throws an exception if the _tokenId does not exist.\n     * @param _tokenId Id for which we want URI.\n     * @param _uri String representing RFC 3986 URI.\n     */\n    function _setTokenUri(\n        uint256 _tokenId,\n        string calldata _uri\n    )\n    internal\n    {\n        require(_exists(_tokenId), \"TOKEN_ID_NOT_EXISTED\");\n        idToUri[_tokenId] = _uri;\n    }\n\n}\n",
  "sourcePath": "/home/toor/nodejs/truffle/nft_demo/taureum/taureum-nft-sc/contracts/tokens/ERC721/TaureumERC721.sol",
  "compiler": {
    "name": "solc",
    "version": "0.8.4+commit.c7e474f2.Emscripten.clang"
  },
  "schemaVersion": "3.4.1",
  "updatedAt": "2021-08-24T07:00:09.032Z",
  "devdoc": {
    "kind": "dev",
    "methods": {
      "approve(address,uint256)": {
        "details": "See {IERC721-approve}."
      },
      "balanceOf(address)": {
        "details": "See {IERC721-balanceOf}."
      },
      "baseURI()": {
        "details": "Returns `__baseURI`."
      },
      "constructor": {
        "details": "Create a new TaureumERC721 contract."
      },
      "getApproved(uint256)": {
        "details": "See {IERC721-getApproved}."
      },
      "isApprovedForAll(address,address)": {
        "details": "See {IERC721-isApprovedForAll}."
      },
      "mint(address,string)": {
        "details": "Mint a new NFT.",
        "params": {
          "to": "The address that will own the minted NFT.",
          "uri": "The URI consists of metadata description of the minting NFT on the IPFS (without prefix)."
        }
      },
      "name()": {
        "details": "See {IERC721Metadata-name}."
      },
      "owner()": {
        "details": "Returns the address of the current owner."
      },
      "ownerOf(uint256)": {
        "details": "See {IERC721-ownerOf}."
      },
      "renounceOwnership()": {
        "details": "Leaves the contract without owner. It will not be possible to call `onlyOwner` functions anymore. Can only be called by the current owner. NOTE: Renouncing ownership will leave the contract without an owner, thereby removing any functionality that is only available to the owner."
      },
      "safeMint(address,string)": {
        "details": "Safely mint a new NFT.",
        "params": {
          "to": "The address that will own the minted NFT.",
          "uri": "The URI consists of metadata description of the minting NFT on the IPFS (without prefix)."
        }
      },
      "safeTransferFrom(address,address,uint256)": {
        "details": "See {IERC721-safeTransferFrom}."
      },
      "safeTransferFrom(address,address,uint256,bytes)": {
        "details": "See {IERC721-safeTransferFrom}."
      },
      "setApprovalForAll(address,bool)": {
        "details": "See {IERC721-setApprovalForAll}."
      },
      "setBaseURI(string)": {
        "details": "Sets new value for the `__baseURI`. This operation can only been done by the owner of this contract."
      },
      "supportsInterface(bytes4)": {
        "details": "See {IERC165-supportsInterface}."
      },
      "symbol()": {
        "details": "See {IERC721Metadata-symbol}."
      },
      "tokenURI(uint256)": {
        "details": "See {IERC721Metadata-tokenURI}."
      },
      "transferFrom(address,address,uint256)": {
        "details": "See {IERC721-transferFrom}."
      },
      "transferOwnership(address)": {
        "details": "Transfers ownership of the contract to a new account (`newOwner`). Can only be called by the current owner."
      }
    },
    "stateVariables": {
      "__baseURI": {
        "details": "The base URI for all NFT."
      },
      "idToUri": {
        "details": "Mapping from NFT ID to metadata uri."
      }
    },
    "version": 1
  },
  "userdoc": {
    "kind": "user",
    "methods": {
      "mint(address,string)": {
        "notice": "It throws an exception if    - `to` is a \"ZERO_ADDRESS."
      },
      "safeMint(address,string)": {
        "notice": "It throws an exception if    - `to` is a \"ZERO_ADDRESS.    - If `to` refers to a smart contract, it must implement {IERC721Receiver-onERC721Received}, which is called upon a safe transfer."
      }
    },
    "version": 1
  }
}