{
  "contractName": "TaureumERC721Enumerable",
  "abi": [
    {
      "inputs": [],
      "stateMutability": "nonpayable",
      "type": "constructor"
    },
    {
      "anonymous": false,
      "inputs": [
        {
          "indexed": true,
          "internalType": "address",
          "name": "owner",
          "type": "address"
        },
        {
          "indexed": true,
          "internalType": "address",
          "name": "approved",
          "type": "address"
        },
        {
          "indexed": true,
          "internalType": "uint256",
          "name": "tokenId",
          "type": "uint256"
        }
      ],
      "name": "Approval",
      "type": "event"
    },
    {
      "anonymous": false,
      "inputs": [
        {
          "indexed": true,
          "internalType": "address",
          "name": "owner",
          "type": "address"
        },
        {
          "indexed": true,
          "internalType": "address",
          "name": "operator",
          "type": "address"
        },
        {
          "indexed": false,
          "internalType": "bool",
          "name": "approved",
          "type": "bool"
        }
      ],
      "name": "ApprovalForAll",
      "type": "event"
    },
    {
      "anonymous": false,
      "inputs": [
        {
          "indexed": true,
          "internalType": "address",
          "name": "from",
          "type": "address"
        },
        {
          "indexed": true,
          "internalType": "address",
          "name": "to",
          "type": "address"
        },
        {
          "indexed": true,
          "internalType": "uint256",
          "name": "tokenId",
          "type": "uint256"
        }
      ],
      "name": "Transfer",
      "type": "event"
    },
    {
      "inputs": [
        {
          "internalType": "address",
          "name": "to",
          "type": "address"
        },
        {
          "internalType": "uint256",
          "name": "tokenId",
          "type": "uint256"
        }
      ],
      "name": "approve",
      "outputs": [],
      "stateMutability": "nonpayable",
      "type": "function"
    },
    {
      "inputs": [
        {
          "internalType": "address",
          "name": "owner",
          "type": "address"
        }
      ],
      "name": "balanceOf",
      "outputs": [
        {
          "internalType": "uint256",
          "name": "",
          "type": "uint256"
        }
      ],
      "stateMutability": "view",
      "type": "function",
      "constant": true
    },
    {
      "inputs": [
        {
          "internalType": "uint256",
          "name": "tokenId",
          "type": "uint256"
        }
      ],
      "name": "getApproved",
      "outputs": [
        {
          "internalType": "address",
          "name": "",
          "type": "address"
        }
      ],
      "stateMutability": "view",
      "type": "function",
      "constant": true
    },
    {
      "inputs": [
        {
          "internalType": "address",
          "name": "owner",
          "type": "address"
        },
        {
          "internalType": "address",
          "name": "operator",
          "type": "address"
        }
      ],
      "name": "isApprovedForAll",
      "outputs": [
        {
          "internalType": "bool",
          "name": "",
          "type": "bool"
        }
      ],
      "stateMutability": "view",
      "type": "function",
      "constant": true
    },
    {
      "inputs": [
        {
          "internalType": "address",
          "name": "to",
          "type": "address"
        },
        {
          "internalType": "string",
          "name": "uri",
          "type": "string"
        }
      ],
      "name": "mint",
      "outputs": [
        {
          "internalType": "uint256",
          "name": "",
          "type": "uint256"
        }
      ],
      "stateMutability": "nonpayable",
      "type": "function"
    },
    {
      "inputs": [],
      "name": "name",
      "outputs": [
        {
          "internalType": "string",
          "name": "",
          "type": "string"
        }
      ],
      "stateMutability": "view",
      "type": "function",
      "constant": true
    },
    {
      "inputs": [
        {
          "internalType": "uint256",
          "name": "tokenId",
          "type": "uint256"
        }
      ],
      "name": "ownerOf",
      "outputs": [
        {
          "internalType": "address",
          "name": "",
          "type": "address"
        }
      ],
      "stateMutability": "view",
      "type": "function",
      "constant": true
    },
    {
      "inputs": [
        {
          "internalType": "address",
          "name": "to",
          "type": "address"
        },
        {
          "internalType": "string",
          "name": "uri",
          "type": "string"
        }
      ],
      "name": "safeMint",
      "outputs": [
        {
          "internalType": "uint256",
          "name": "",
          "type": "uint256"
        }
      ],
      "stateMutability": "nonpayable",
      "type": "function"
    },
    {
      "inputs": [
        {
          "internalType": "address",
          "name": "from",
          "type": "address"
        },
        {
          "internalType": "address",
          "name": "to",
          "type": "address"
        },
        {
          "internalType": "uint256",
          "name": "tokenId",
          "type": "uint256"
        }
      ],
      "name": "safeTransferFrom",
      "outputs": [],
      "stateMutability": "nonpayable",
      "type": "function"
    },
    {
      "inputs": [
        {
          "internalType": "address",
          "name": "from",
          "type": "address"
        },
        {
          "internalType": "address",
          "name": "to",
          "type": "address"
        },
        {
          "internalType": "uint256",
          "name": "tokenId",
          "type": "uint256"
        },
        {
          "internalType": "bytes",
          "name": "_data",
          "type": "bytes"
        }
      ],
      "name": "safeTransferFrom",
      "outputs": [],
      "stateMutability": "nonpayable",
      "type": "function"
    },
    {
      "inputs": [
        {
          "internalType": "address",
          "name": "operator",
          "type": "address"
        },
        {
          "internalType": "bool",
          "name": "approved",
          "type": "bool"
        }
      ],
      "name": "setApprovalForAll",
      "outputs": [],
      "stateMutability": "nonpayable",
      "type": "function"
    },
    {
      "inputs": [],
      "name": "symbol",
      "outputs": [
        {
          "internalType": "string",
          "name": "",
          "type": "string"
        }
      ],
      "stateMutability": "view",
      "type": "function",
      "constant": true
    },
    {
      "inputs": [
        {
          "internalType": "uint256",
          "name": "index",
          "type": "uint256"
        }
      ],
      "name": "tokenByIndex",
      "outputs": [
        {
          "internalType": "uint256",
          "name": "",
          "type": "uint256"
        }
      ],
      "stateMutability": "view",
      "type": "function",
      "constant": true
    },
    {
      "inputs": [
        {
          "internalType": "address",
          "name": "owner",
          "type": "address"
        },
        {
          "internalType": "uint256",
          "name": "index",
          "type": "uint256"
        }
      ],
      "name": "tokenOfOwnerByIndex",
      "outputs": [
        {
          "internalType": "uint256",
          "name": "",
          "type": "uint256"
        }
      ],
      "stateMutability": "view",
      "type": "function",
      "constant": true
    },
    {
      "inputs": [],
      "name": "totalSupply",
      "outputs": [
        {
          "internalType": "uint256",
          "name": "",
          "type": "uint256"
        }
      ],
      "stateMutability": "view",
      "type": "function",
      "constant": true
    },
    {
      "inputs": [
        {
          "internalType": "address",
          "name": "from",
          "type": "address"
        },
        {
          "internalType": "address",
          "name": "to",
          "type": "address"
        },
        {
          "internalType": "uint256",
          "name": "tokenId",
          "type": "uint256"
        }
      ],
      "name": "transferFrom",
      "outputs": [],
      "stateMutability": "nonpayable",
      "type": "function"
    },
    {
      "inputs": [
        {
          "internalType": "bytes4",
          "name": "interfaceId",
          "type": "bytes4"
        }
      ],
      "name": "supportsInterface",
      "outputs": [
        {
          "internalType": "bool",
          "name": "",
          "type": "bool"
        }
      ],
      "stateMutability": "view",
      "type": "function",
      "constant": true
    },
    {
      "inputs": [
        {
          "internalType": "uint256",
          "name": "tokenId",
          "type": "uint256"
        }
      ],
      "name": "tokenURI",
      "outputs": [
        {
          "internalType": "string",
          "name": "",
          "type": "string"
        }
      ],
      "stateMutability": "view",
      "type": "function",
      "constant": true
    }
  ],
  "bytecode": "0x60806040523480156200001157600080fd5b506040518060400160405280600e81526020017f5461757265756d204552433732310000000000000000000000000000000000008152506040518060400160405280600781526020017f5461757265756d00000000000000000000000000000000000000000000000000815250816000908051906020019062000096929190620000b8565b508060019080519060200190620000af929190620000b8565b505050620001cd565b828054620000c69062000168565b90600052602060002090601f016020900481019282620000ea576000855562000136565b82601f106200010557805160ff191683800117855562000136565b8280016001018555821562000136579182015b828111156200013557825182559160200191906001019062000118565b5b50905062000145919062000149565b5090565b5b80821115620001645760008160009055506001016200014a565b5090565b600060028204905060018216806200018157607f821691505b602082108114156200019857620001976200019e565b5b50919050565b7f4e487b7100000000000000000000000000000000000000000000000000000000600052602260045260246000fd5b61325e80620001dd6000396000f3fe608060405234801561001057600080fd5b50600436106101165760003560e01c80636352211e116100a2578063b88d4fde11610071578063b88d4fde14610305578063c87b56dd14610321578063d0def52114610351578063d204c45e14610381578063e985e9c5146103b157610116565b80636352211e1461026b57806370a082311461029b57806395d89b41146102cb578063a22cb465146102e957610116565b806318160ddd116100e957806318160ddd146101b557806323b872dd146101d35780632f745c59146101ef57806342842e0e1461021f5780634f6ccce71461023b57610116565b806301ffc9a71461011b57806306fdde031461014b578063081812fc14610169578063095ea7b314610199575b600080fd5b610135600480360381019061013091906122b7565b6103e1565b60405161014291906127be565b60405180910390f35b6101536104c3565b60405161016091906127d9565b60405180910390f35b610183600480360381019061017e9190612309565b610555565b6040516101909190612725565b60405180910390f35b6101b360048036038101906101ae919061227b565b6105da565b005b6101bd6106f2565b6040516101ca9190612a1b565b60405180910390f35b6101ed60048036038101906101e8919061211d565b6106ff565b005b6102096004803603810190610204919061227b565b61075f565b6040516102169190612a1b565b60405180910390f35b6102396004803603810190610234919061211d565b610804565b005b61025560048036038101906102509190612309565b610824565b6040516102629190612a1b565b60405180910390f35b61028560048036038101906102809190612309565b6108bb565b6040516102929190612725565b60405180910390f35b6102b560048036038101906102b091906120b8565b61096d565b6040516102c29190612a1b565b60405180910390f35b6102d3610a25565b6040516102e091906127d9565b60405180910390f35b61030360048036038101906102fe91906121e7565b610ab7565b005b61031f600480360381019061031a919061216c565b610c38565b005b61033b60048036038101906103369190612309565b610c9a565b60405161034891906127d9565b60405180910390f35b61036b60048036038101906103669190612223565b610cac565b6040516103789190612a1b565b60405180910390f35b61039b60048036038101906103969190612223565b610cff565b6040516103a89190612a1b565b60405180910390f35b6103cb60048036038101906103c691906120e1565b610d52565b6040516103d891906127be565b60405180910390f35b60007f80ac58cd000000000000000000000000000000000000000000000000000000007bffffffffffffffffffffffffffffffffffffffffffffffffffffffff1916827bffffffffffffffffffffffffffffffffffffffffffffffffffffffff191614806104ac57507f5b5e139f000000000000000000000000000000000000000000000000000000007bffffffffffffffffffffffffffffffffffffffffffffffffffffffff1916827bffffffffffffffffffffffffffffffffffffffffffffffffffffffff1916145b806104bc57506104bb82610de6565b5b9050919050565b6060600080546104d290612c24565b80601f01602080910402602001604051908101604052809291908181526020018280546104fe90612c24565b801561054b5780601f106105205761010080835404028352916020019161054b565b820191906000526020600020905b81548152906001019060200180831161052e57829003601f168201915b5050505050905090565b600061056082610e60565b61059f576040517f08c379a00000000000000000000000000000000000000000000000000000000081526004016105969061293b565b60405180910390fd5b6004600083815260200190815260200160002060009054906101000a900473ffffffffffffffffffffffffffffffffffffffff169050919050565b60006105e5826108bb565b90508073ffffffffffffffffffffffffffffffffffffffff168373ffffffffffffffffffffffffffffffffffffffff161415610656576040517f08c379a000000000000000000000000000000000000000000000000000000000815260040161064d9061299b565b60405180910390fd5b8073ffffffffffffffffffffffffffffffffffffffff16610675610ecc565b73ffffffffffffffffffffffffffffffffffffffff1614806106a457506106a38161069e610ecc565b610d52565b5b6106e3576040517f08c379a00000000000000000000000000000000000000000000000000000000081526004016106da906128bb565b60405180910390fd5b6106ed8383610ed4565b505050565b6000600980549050905090565b61071061070a610ecc565b82610f8d565b61074f576040517f08c379a0000000000000000000000000000000000000000000000000000000008152600401610746906129bb565b60405180910390fd5b61075a83838361106b565b505050565b600061076a8361096d565b82106107ab576040517f08c379a00000000000000000000000000000000000000000000000000000000081526004016107a2906127fb565b60405180910390fd5b600760008473ffffffffffffffffffffffffffffffffffffffff1673ffffffffffffffffffffffffffffffffffffffff168152602001908152602001600020600083815260200190815260200160002054905092915050565b61081f83838360405180602001604052806000815250610c38565b505050565b600061082e6106f2565b821061086f576040517f08c379a0000000000000000000000000000000000000000000000000000000008152600401610866906129db565b60405180910390fd5b600982815481106108a9577f4e487b7100000000000000000000000000000000000000000000000000000000600052603260045260246000fd5b90600052602060002001549050919050565b6000806002600084815260200190815260200160002060009054906101000a900473ffffffffffffffffffffffffffffffffffffffff169050600073ffffffffffffffffffffffffffffffffffffffff168173ffffffffffffffffffffffffffffffffffffffff161415610964576040517f08c379a000000000000000000000000000000000000000000000000000000000815260040161095b906128fb565b60405180910390fd5b80915050919050565b60008073ffffffffffffffffffffffffffffffffffffffff168273ffffffffffffffffffffffffffffffffffffffff1614156109de576040517f08c379a00000000000000000000000000000000000000000000000000000000081526004016109d5906128db565b60405180910390fd5b600360008373ffffffffffffffffffffffffffffffffffffffff1673ffffffffffffffffffffffffffffffffffffffff168152602001908152602001600020549050919050565b606060018054610a3490612c24565b80601f0160208091040260200160405190810160405280929190818152602001828054610a6090612c24565b8015610aad5780601f10610a8257610100808354040283529160200191610aad565b820191906000526020600020905b815481529060010190602001808311610a9057829003601f168201915b5050505050905090565b610abf610ecc565b73ffffffffffffffffffffffffffffffffffffffff168273ffffffffffffffffffffffffffffffffffffffff161415610b2d576040517f08c379a0000000000000000000000000000000000000000000000000000000008152600401610b249061287b565b60405180910390fd5b8060056000610b3a610ecc565b73ffffffffffffffffffffffffffffffffffffffff1673ffffffffffffffffffffffffffffffffffffffff16815260200190815260200160002060008473ffffffffffffffffffffffffffffffffffffffff1673ffffffffffffffffffffffffffffffffffffffff16815260200190815260200160002060006101000a81548160ff0219169083151502179055508173ffffffffffffffffffffffffffffffffffffffff16610be7610ecc565b73ffffffffffffffffffffffffffffffffffffffff167f17307eab39ab6107e8899845ad3d59bd9653f200f220920489ca2b5937696c3183604051610c2c91906127be565b60405180910390a35050565b610c49610c43610ecc565b83610f8d565b610c88576040517f08c379a0000000000000000000000000000000000000000000000000000000008152600401610c7f906129bb565b60405180910390fd5b610c94848484846112c7565b50505050565b6060610ca582611323565b9050919050565b600080848484604051602001610cc49392919061278c565b6040516020818303038152906040528051906020012060001c9050610ce98582611460565b610cf481858561162e565b809150509392505050565b600080848484604051602001610d179392919061278c565b6040516020818303038152906040528051906020012060001c9050610d3c858261169e565b610d4781858561162e565b809150509392505050565b6000600560008473ffffffffffffffffffffffffffffffffffffffff1673ffffffffffffffffffffffffffffffffffffffff16815260200190815260200160002060008373ffffffffffffffffffffffffffffffffffffffff1673ffffffffffffffffffffffffffffffffffffffff16815260200190815260200160002060009054906101000a900460ff16905092915050565b60007f780e9d63000000000000000000000000000000000000000000000000000000007bffffffffffffffffffffffffffffffffffffffffffffffffffffffff1916827bffffffffffffffffffffffffffffffffffffffffffffffffffffffff19161480610e595750610e58826116bc565b5b9050919050565b60008073ffffffffffffffffffffffffffffffffffffffff166002600084815260200190815260200160002060009054906101000a900473ffffffffffffffffffffffffffffffffffffffff1673ffffffffffffffffffffffffffffffffffffffff1614159050919050565b600033905090565b816004600083815260200190815260200160002060006101000a81548173ffffffffffffffffffffffffffffffffffffffff021916908373ffffffffffffffffffffffffffffffffffffffff160217905550808273ffffffffffffffffffffffffffffffffffffffff16610f47836108bb565b73ffffffffffffffffffffffffffffffffffffffff167f8c5be1e5ebec7d5bd14f71427d1e84f3dd0314c0f7b2291e5b200ac8c7c3b92560405160405180910390a45050565b6000610f9882610e60565b610fd7576040517f08c379a0000000000000000000000000000000000000000000000000000000008152600401610fce9061289b565b60405180910390fd5b6000610fe2836108bb565b90508073ffffffffffffffffffffffffffffffffffffffff168473ffffffffffffffffffffffffffffffffffffffff16148061105157508373ffffffffffffffffffffffffffffffffffffffff1661103984610555565b73ffffffffffffffffffffffffffffffffffffffff16145b8061106257506110618185610d52565b5b91505092915050565b8273ffffffffffffffffffffffffffffffffffffffff1661108b826108bb565b73ffffffffffffffffffffffffffffffffffffffff16146110e1576040517f08c379a00000000000000000000000000000000000000000000000000000000081526004016110d89061295b565b60405180910390fd5b600073ffffffffffffffffffffffffffffffffffffffff168273ffffffffffffffffffffffffffffffffffffffff161415611151576040517f08c379a00000000000000000000000000000000000000000000000000000000081526004016111489061285b565b60405180910390fd5b61115c83838361179e565b611167600082610ed4565b6001600360008573ffffffffffffffffffffffffffffffffffffffff1673ffffffffffffffffffffffffffffffffffffffff16815260200190815260200160002060008282546111b79190612b3a565b925050819055506001600360008473ffffffffffffffffffffffffffffffffffffffff1673ffffffffffffffffffffffffffffffffffffffff168152602001908152602001600020600082825461120e9190612ae4565b92505081905550816002600083815260200190815260200160002060006101000a81548173ffffffffffffffffffffffffffffffffffffffff021916908373ffffffffffffffffffffffffffffffffffffffff160217905550808273ffffffffffffffffffffffffffffffffffffffff168473ffffffffffffffffffffffffffffffffffffffff167fddf252ad1be2c89b69c2b068fc378daa952ba7f163c4a11628f55a4df523b3ef60405160405180910390a4505050565b6112d284848461106b565b6112de848484846117ae565b61131d576040517f08c379a00000000000000000000000000000000000000000000000000000000081526004016113149061281b565b60405180910390fd5b50505050565b606061132e82610e60565b61136d576040517f08c379a00000000000000000000000000000000000000000000000000000000081526004016113649061297b565b60405180910390fd5b6000611377611945565b90506000815111611423576006600084815260200190815260200160002080546113a090612c24565b80601f01602080910402602001604051908101604052809291908181526020018280546113cc90612c24565b80156114195780601f106113ee57610100808354040283529160200191611419565b820191906000526020600020905b8154815290600101906020018083116113fc57829003601f168201915b5050505050611458565b8060066000858152602001908152602001600020604051602001611448929190612701565b6040516020818303038152906040525b915050919050565b600073ffffffffffffffffffffffffffffffffffffffff168273ffffffffffffffffffffffffffffffffffffffff1614156114d0576040517f08c379a00000000000000000000000000000000000000000000000000000000081526004016114c79061291b565b60405180910390fd5b6114d981610e60565b15611519576040517f08c379a00000000000000000000000000000000000000000000000000000000081526004016115109061283b565b60405180910390fd5b6115256000838361179e565b6001600360008473ffffffffffffffffffffffffffffffffffffffff1673ffffffffffffffffffffffffffffffffffffffff16815260200190815260200160002060008282546115759190612ae4565b92505081905550816002600083815260200190815260200160002060006101000a81548173ffffffffffffffffffffffffffffffffffffffff021916908373ffffffffffffffffffffffffffffffffffffffff160217905550808273ffffffffffffffffffffffffffffffffffffffff16600073ffffffffffffffffffffffffffffffffffffffff167fddf252ad1be2c89b69c2b068fc378daa952ba7f163c4a11628f55a4df523b3ef60405160405180910390a45050565b61163783610e60565b611676576040517f08c379a000000000000000000000000000000000000000000000000000000000815260040161166d906129fb565b60405180910390fd5b8181600660008681526020019081526020016000209190611698929190611efa565b50505050565b6116b8828260405180602001604052806000815250611954565b5050565b60007f80ac58cd000000000000000000000000000000000000000000000000000000007bffffffffffffffffffffffffffffffffffffffffffffffffffffffff1916827bffffffffffffffffffffffffffffffffffffffffffffffffffffffff1916148061178757507f5b5e139f000000000000000000000000000000000000000000000000000000007bffffffffffffffffffffffffffffffffffffffffffffffffffffffff1916827bffffffffffffffffffffffffffffffffffffffffffffffffffffffff1916145b806117975750611796826119af565b5b9050919050565b6117a9838383611a19565b505050565b60006117cf8473ffffffffffffffffffffffffffffffffffffffff16611b2d565b15611938578373ffffffffffffffffffffffffffffffffffffffff1663150b7a026117f8610ecc565b8786866040518563ffffffff1660e01b815260040161181a9493929190612740565b602060405180830381600087803b15801561183457600080fd5b505af192505050801561186557506040513d601f19601f8201168201806040525081019061186291906122e0565b60015b6118e8573d8060008114611895576040519150601f19603f3d011682016040523d82523d6000602084013e61189a565b606091505b506000815114156118e0576040517f08c379a00000000000000000000000000000000000000000000000000000000081526004016118d79061281b565b60405180910390fd5b805181602001fd5b63150b7a0260e01b7bffffffffffffffffffffffffffffffffffffffffffffffffffffffff1916817bffffffffffffffffffffffffffffffffffffffffffffffffffffffff19161491505061193d565b600190505b949350505050565b606061194f611b40565b905090565b61195e8383611460565b61196b60008484846117ae565b6119aa576040517f08c379a00000000000000000000000000000000000000000000000000000000081526004016119a19061281b565b60405180910390fd5b505050565b60007f01ffc9a7000000000000000000000000000000000000000000000000000000007bffffffffffffffffffffffffffffffffffffffffffffffffffffffff1916827bffffffffffffffffffffffffffffffffffffffffffffffffffffffff1916149050919050565b611a24838383611b7d565b600073ffffffffffffffffffffffffffffffffffffffff168373ffffffffffffffffffffffffffffffffffffffff161415611a6757611a6281611b82565b611aa6565b8173ffffffffffffffffffffffffffffffffffffffff168373ffffffffffffffffffffffffffffffffffffffff1614611aa557611aa48382611bcb565b5b5b600073ffffffffffffffffffffffffffffffffffffffff168273ffffffffffffffffffffffffffffffffffffffff161415611ae957611ae481611d38565b611b28565b8273ffffffffffffffffffffffffffffffffffffffff168273ffffffffffffffffffffffffffffffffffffffff1614611b2757611b268282611e7b565b5b5b505050565b600080823b905060008111915050919050565b60606040518060400160405280600781526020017f697066733a2f2f00000000000000000000000000000000000000000000000000815250905090565b505050565b600980549050600a600083815260200190815260200160002081905550600981908060018154018082558091505060019003906000526020600020016000909190919091505550565b60006001611bd88461096d565b611be29190612b3a565b9050600060086000848152602001908152602001600020549050818114611cc7576000600760008673ffffffffffffffffffffffffffffffffffffffff1673ffffffffffffffffffffffffffffffffffffffff168152602001908152602001600020600084815260200190815260200160002054905080600760008773ffffffffffffffffffffffffffffffffffffffff1673ffffffffffffffffffffffffffffffffffffffff168152602001908152602001600020600084815260200190815260200160002081905550816008600083815260200190815260200160002081905550505b6008600084815260200190815260200160002060009055600760008573ffffffffffffffffffffffffffffffffffffffff1673ffffffffffffffffffffffffffffffffffffffff16815260200190815260200160002060008381526020019081526020016000206000905550505050565b60006001600980549050611d4c9190612b3a565b90506000600a6000848152602001908152602001600020549050600060098381548110611da2577f4e487b7100000000000000000000000000000000000000000000000000000000600052603260045260246000fd5b906000526020600020015490508060098381548110611dea577f4e487b7100000000000000000000000000000000000000000000000000000000600052603260045260246000fd5b906000526020600020018190555081600a600083815260200190815260200160002081905550600a6000858152602001908152602001600020600090556009805480611e5f577f4e487b7100000000000000000000000000000000000000000000000000000000600052603160045260246000fd5b6001900381819060005260206000200160009055905550505050565b6000611e868361096d565b905081600760008573ffffffffffffffffffffffffffffffffffffffff1673ffffffffffffffffffffffffffffffffffffffff168152602001908152602001600020600083815260200190815260200160002081905550806008600084815260200190815260200160002081905550505050565b828054611f0690612c24565b90600052602060002090601f016020900481019282611f285760008555611f6f565b82601f10611f4157803560ff1916838001178555611f6f565b82800160010185558215611f6f579182015b82811115611f6e578235825591602001919060010190611f53565b5b509050611f7c9190611f80565b5090565b5b80821115611f99576000816000905550600101611f81565b5090565b6000611fb0611fab84612a5b565b612a36565b905082815260208101848484011115611fc857600080fd5b611fd3848285612be2565b509392505050565b600081359050611fea816131cc565b92915050565b600081359050611fff816131e3565b92915050565b600081359050612014816131fa565b92915050565b600081519050612029816131fa565b92915050565b600082601f83011261204057600080fd5b8135612050848260208601611f9d565b91505092915050565b60008083601f84011261206b57600080fd5b8235905067ffffffffffffffff81111561208457600080fd5b60208301915083600182028301111561209c57600080fd5b9250929050565b6000813590506120b281613211565b92915050565b6000602082840312156120ca57600080fd5b60006120d884828501611fdb565b91505092915050565b600080604083850312156120f457600080fd5b600061210285828601611fdb565b925050602061211385828601611fdb565b9150509250929050565b60008060006060848603121561213257600080fd5b600061214086828701611fdb565b935050602061215186828701611fdb565b9250506040612162868287016120a3565b9150509250925092565b6000806000806080858703121561218257600080fd5b600061219087828801611fdb565b94505060206121a187828801611fdb565b93505060406121b2878288016120a3565b925050606085013567ffffffffffffffff8111156121cf57600080fd5b6121db8782880161202f565b91505092959194509250565b600080604083850312156121fa57600080fd5b600061220885828601611fdb565b925050602061221985828601611ff0565b9150509250929050565b60008060006040848603121561223857600080fd5b600061224686828701611fdb565b935050602084013567ffffffffffffffff81111561226357600080fd5b61226f86828701612059565b92509250509250925092565b6000806040838503121561228e57600080fd5b600061229c85828601611fdb565b92505060206122ad858286016120a3565b9150509250929050565b6000602082840312156122c957600080fd5b60006122d784828501612005565b91505092915050565b6000602082840312156122f257600080fd5b60006123008482850161201a565b91505092915050565b60006020828403121561231b57600080fd5b6000612329848285016120a3565b91505092915050565b61233b81612b6e565b82525050565b61234a81612b80565b82525050565b600061235b82612aa1565b6123658185612ab7565b9350612375818560208601612bf1565b61237e81612d14565b840191505092915050565b60006123958385612ac8565b93506123a2838584612be2565b6123ab83612d14565b840190509392505050565b60006123c182612aac565b6123cb8185612ac8565b93506123db818560208601612bf1565b6123e481612d14565b840191505092915050565b60006123fa82612aac565b6124048185612ad9565b9350612414818560208601612bf1565b80840191505092915050565b6000815461242d81612c24565b6124378186612ad9565b94506001821660008114612452576001811461246357612496565b60ff19831686528186019350612496565b61246c85612a8c565b60005b8381101561248e5781548189015260018201915060208101905061246f565b838801955050505b50505092915050565b60006124ac602b83612ac8565b91506124b782612d25565b604082019050919050565b60006124cf603283612ac8565b91506124da82612d74565b604082019050919050565b60006124f2601c83612ac8565b91506124fd82612dc3565b602082019050919050565b6000612515602483612ac8565b915061252082612dec565b604082019050919050565b6000612538601983612ac8565b915061254382612e3b565b602082019050919050565b600061255b602c83612ac8565b915061256682612e64565b604082019050919050565b600061257e603883612ac8565b915061258982612eb3565b604082019050919050565b60006125a1602a83612ac8565b91506125ac82612f02565b604082019050919050565b60006125c4602983612ac8565b91506125cf82612f51565b604082019050919050565b60006125e7602083612ac8565b91506125f282612fa0565b602082019050919050565b600061260a602c83612ac8565b915061261582612fc9565b604082019050919050565b600061262d602983612ac8565b915061263882613018565b604082019050919050565b6000612650602f83612ac8565b915061265b82613067565b604082019050919050565b6000612673602183612ac8565b915061267e826130b6565b604082019050919050565b6000612696603183612ac8565b91506126a182613105565b604082019050919050565b60006126b9602c83612ac8565b91506126c482613154565b604082019050919050565b60006126dc601483612ac8565b91506126e7826131a3565b602082019050919050565b6126fb81612bd8565b82525050565b600061270d82856123ef565b91506127198284612420565b91508190509392505050565b600060208201905061273a6000830184612332565b92915050565b60006080820190506127556000830187612332565b6127626020830186612332565b61276f60408301856126f2565b81810360608301526127818184612350565b905095945050505050565b60006040820190506127a16000830186612332565b81810360208301526127b4818486612389565b9050949350505050565b60006020820190506127d36000830184612341565b92915050565b600060208201905081810360008301526127f381846123b6565b905092915050565b600060208201905081810360008301526128148161249f565b9050919050565b60006020820190508181036000830152612834816124c2565b9050919050565b60006020820190508181036000830152612854816124e5565b9050919050565b6000602082019050818103600083015261287481612508565b9050919050565b600060208201905081810360008301526128948161252b565b9050919050565b600060208201905081810360008301526128b48161254e565b9050919050565b600060208201905081810360008301526128d481612571565b9050919050565b600060208201905081810360008301526128f481612594565b9050919050565b60006020820190508181036000830152612914816125b7565b9050919050565b60006020820190508181036000830152612934816125da565b9050919050565b60006020820190508181036000830152612954816125fd565b9050919050565b6000602082019050818103600083015261297481612620565b9050919050565b6000602082019050818103600083015261299481612643565b9050919050565b600060208201905081810360008301526129b481612666565b9050919050565b600060208201905081810360008301526129d481612689565b9050919050565b600060208201905081810360008301526129f4816126ac565b9050919050565b60006020820190508181036000830152612a14816126cf565b9050919050565b6000602082019050612a3060008301846126f2565b92915050565b6000612a40612a51565b9050612a4c8282612c56565b919050565b6000604051905090565b600067ffffffffffffffff821115612a7657612a75612ce5565b5b612a7f82612d14565b9050602081019050919050565b60008190508160005260206000209050919050565b600081519050919050565b600081519050919050565b600082825260208201905092915050565b600082825260208201905092915050565b600081905092915050565b6000612aef82612bd8565b9150612afa83612bd8565b9250827fffffffffffffffffffffffffffffffffffffffffffffffffffffffffffffffff03821115612b2f57612b2e612c87565b5b828201905092915050565b6000612b4582612bd8565b9150612b5083612bd8565b925082821015612b6357612b62612c87565b5b828203905092915050565b6000612b7982612bb8565b9050919050565b60008115159050919050565b60007fffffffff0000000000000000000000000000000000000000000000000000000082169050919050565b600073ffffffffffffffffffffffffffffffffffffffff82169050919050565b6000819050919050565b82818337600083830152505050565b60005b83811015612c0f578082015181840152602081019050612bf4565b83811115612c1e576000848401525b50505050565b60006002820490506001821680612c3c57607f821691505b60208210811415612c5057612c4f612cb6565b5b50919050565b612c5f82612d14565b810181811067ffffffffffffffff82111715612c7e57612c7d612ce5565b5b80604052505050565b7f4e487b7100000000000000000000000000000000000000000000000000000000600052601160045260246000fd5b7f4e487b7100000000000000000000000000000000000000000000000000000000600052602260045260246000fd5b7f4e487b7100000000000000000000000000000000000000000000000000000000600052604160045260246000fd5b6000601f19601f8301169050919050565b7f455243373231456e756d657261626c653a206f776e657220696e646578206f7560008201527f74206f6620626f756e6473000000000000000000000000000000000000000000602082015250565b7f4552433732313a207472616e7366657220746f206e6f6e20455243373231526560008201527f63656976657220696d706c656d656e7465720000000000000000000000000000602082015250565b7f4552433732313a20746f6b656e20616c7265616479206d696e74656400000000600082015250565b7f4552433732313a207472616e7366657220746f20746865207a65726f2061646460008201527f7265737300000000000000000000000000000000000000000000000000000000602082015250565b7f4552433732313a20617070726f766520746f2063616c6c657200000000000000600082015250565b7f4552433732313a206f70657261746f7220717565727920666f72206e6f6e657860008201527f697374656e7420746f6b656e0000000000000000000000000000000000000000602082015250565b7f4552433732313a20617070726f76652063616c6c6572206973206e6f74206f7760008201527f6e6572206e6f7220617070726f76656420666f7220616c6c0000000000000000602082015250565b7f4552433732313a2062616c616e636520717565727920666f7220746865207a6560008201527f726f206164647265737300000000000000000000000000000000000000000000602082015250565b7f4552433732313a206f776e657220717565727920666f72206e6f6e657869737460008201527f656e7420746f6b656e0000000000000000000000000000000000000000000000602082015250565b7f4552433732313a206d696e7420746f20746865207a65726f2061646472657373600082015250565b7f4552433732313a20617070726f76656420717565727920666f72206e6f6e657860008201527f697374656e7420746f6b656e0000000000000000000000000000000000000000602082015250565b7f4552433732313a207472616e73666572206f6620746f6b656e2074686174206960008201527f73206e6f74206f776e0000000000000000000000000000000000000000000000602082015250565b7f4552433732314d657461646174613a2055524920717565727920666f72206e6f60008201527f6e6578697374656e7420746f6b656e0000000000000000000000000000000000602082015250565b7f4552433732313a20617070726f76616c20746f2063757272656e74206f776e6560008201527f7200000000000000000000000000000000000000000000000000000000000000602082015250565b7f4552433732313a207472616e736665722063616c6c6572206973206e6f74206f60008201527f776e6572206e6f7220617070726f766564000000000000000000000000000000602082015250565b7f455243373231456e756d657261626c653a20676c6f62616c20696e646578206f60008201527f7574206f6620626f756e64730000000000000000000000000000000000000000602082015250565b7f544f4b454e5f49445f4e4f545f45584953544544000000000000000000000000600082015250565b6131d581612b6e565b81146131e057600080fd5b50565b6131ec81612b80565b81146131f757600080fd5b50565b61320381612b8c565b811461320e57600080fd5b50565b61321a81612bd8565b811461322557600080fd5b5056fea26469706673582212202881aa4d665d1c11bae6f65c27d2540cc6e2733776350304619e03d6e7d9f62d64736f6c63430008040033",
  "immutableReferences": {},
  "source": "// SPDX-License-Identifier: UNLICENSED\n\npragma solidity ^0.8.4;\n\nimport \"./lib/token/ERC721/extensions/ERC721Enumerable.sol\";\nimport \"./TaureumERC721.sol\";\n\ncontract TaureumERC721Enumerable is TaureumERC721, ERC721Enumerable {\n    /**\n     * @dev Create a new TaureumERC721Enumerable contract.\n     *\n     */\n    constructor() TaureumERC721() {}\n\n    /**\n     * @dev See {IERC165-supportsInterface}.\n     */\n    function supportsInterface(bytes4 interfaceId) public view virtual override(ERC721, ERC721Enumerable) returns (bool) {\n        return\n        interfaceId == type(IERC721).interfaceId ||\n        interfaceId == type(IERC721Metadata).interfaceId ||\n        ERC721Enumerable.supportsInterface(interfaceId);\n    }\n\n    /**\n     * @dev See {IERC721Metadata-tokenURI}.\n     */\n    function tokenURI(uint256 tokenId) public view override(ERC721, TaureumERC721) returns (string memory) {\n        return TaureumERC721.tokenURI(tokenId);\n    }\n\n    /**\n     * @dev Base URI for computing {tokenURI}. If set, the resulting URI for each\n     * token will be the concatenation of the `baseURI` and the `tokenId`.\n     */\n    function _baseURI() internal pure override(ERC721, TaureumERC721) returns (string memory) {\n        return TaureumERC721._baseURI();\n    }\n\n    /**\n     * @dev Hook that is called before any token transfer. This includes minting\n     * and burning.\n     *\n     * Calling conditions:\n     *\n     * - When `from` and `to` are both non-zero, ``from``'s `tokenId` will be\n     * transferred to `to`.\n     * - When `from` is zero, `tokenId` will be minted for `to`.\n     * - When `to` is zero, ``from``'s `tokenId` will be burned.\n     * - `from` cannot be the zero address.\n     * - `to` cannot be the zero address.\n     *\n     * To learn more about hooks, head to xref:ROOT:extending-contracts.adoc#using-hooks[Using Hooks].\n     */\n    function _beforeTokenTransfer(address from, address to, uint256 tokenId) internal override(ERC721, ERC721Enumerable) {\n        ERC721Enumerable._beforeTokenTransfer(from, to, tokenId);\n    }\n}\n",
  "sourcePath": "/home/toor/nodejs/truffle/nft_demo/taudefi/taudefi-nft/contracts/TaureumERC721Enumerable.sol",
  "compiler": {
    "name": "solc",
    "version": "0.8.4+commit.c7e474f2.Emscripten.clang"
  },
  "schemaVersion": "3.4.1",
  "updatedAt": "2021-07-26T13:18:45.248Z",
  "networkType": "ethereum",
  "devdoc": {
    "kind": "dev",
    "methods": {
      "approve(address,uint256)": {
        "details": "See {IERC721-approve}."
      },
      "balanceOf(address)": {
        "details": "See {IERC721-balanceOf}."
      },
      "constructor": {
        "details": "Create a new TaureumERC721Enumerable contract."
      },
      "getApproved(uint256)": {
        "details": "See {IERC721-getApproved}."
      },
      "isApprovedForAll(address,address)": {
        "details": "See {IERC721-isApprovedForAll}."
      },
      "mint(address,string)": {
        "details": "Mint a new NFT.",
        "params": {
          "to": "The address that will own the minted NFT.",
          "uri": "The URI consists of metadata description of the minting NFT on the IPFS (without prefix)."
        }
      },
      "name()": {
        "details": "See {IERC721Metadata-name}."
      },
      "ownerOf(uint256)": {
        "details": "See {IERC721-ownerOf}."
      },
      "safeMint(address,string)": {
        "details": "Safely mint a new NFT.",
        "params": {
          "to": "The address that will own the minted NFT.",
          "uri": "The URI consists of metadata description of the minting NFT on the IPFS (without prefix)."
        }
      },
      "safeTransferFrom(address,address,uint256)": {
        "details": "See {IERC721-safeTransferFrom}."
      },
      "safeTransferFrom(address,address,uint256,bytes)": {
        "details": "See {IERC721-safeTransferFrom}."
      },
      "setApprovalForAll(address,bool)": {
        "details": "See {IERC721-setApprovalForAll}."
      },
      "supportsInterface(bytes4)": {
        "details": "See {IERC165-supportsInterface}."
      },
      "symbol()": {
        "details": "See {IERC721Metadata-symbol}."
      },
      "tokenByIndex(uint256)": {
        "details": "See {IERC721Enumerable-tokenByIndex}."
      },
      "tokenOfOwnerByIndex(address,uint256)": {
        "details": "See {IERC721Enumerable-tokenOfOwnerByIndex}."
      },
      "tokenURI(uint256)": {
        "details": "See {IERC721Metadata-tokenURI}."
      },
      "totalSupply()": {
        "details": "See {IERC721Enumerable-totalSupply}."
      },
      "transferFrom(address,address,uint256)": {
        "details": "See {IERC721-transferFrom}."
      }
    },
    "version": 1
  },
  "userdoc": {
    "kind": "user",
    "methods": {
      "mint(address,string)": {
        "notice": "It throws an exception if    - `to` is a \"ZERO_ADDRESS."
      },
      "safeMint(address,string)": {
        "notice": "It throws an exception if    - `to` is a \"ZERO_ADDRESS.    - If `to` refers to a smart contract, it must implement {IERC721Receiver-onERC721Received}, which is called upon a safe transfer."
      }
    },
    "version": 1
  }
}