{
  "contractName": "TaureumERC721LazyMint",
  "abi": [
    {
      "inputs": [],
      "stateMutability": "nonpayable",
      "type": "constructor"
    },
    {
      "anonymous": false,
      "inputs": [
        {
          "indexed": true,
          "internalType": "address",
          "name": "owner",
          "type": "address"
        },
        {
          "indexed": true,
          "internalType": "address",
          "name": "approved",
          "type": "address"
        },
        {
          "indexed": true,
          "internalType": "uint256",
          "name": "tokenId",
          "type": "uint256"
        }
      ],
      "name": "Approval",
      "type": "event"
    },
    {
      "anonymous": false,
      "inputs": [
        {
          "indexed": true,
          "internalType": "address",
          "name": "owner",
          "type": "address"
        },
        {
          "indexed": true,
          "internalType": "address",
          "name": "operator",
          "type": "address"
        },
        {
          "indexed": false,
          "internalType": "bool",
          "name": "approved",
          "type": "bool"
        }
      ],
      "name": "ApprovalForAll",
      "type": "event"
    },
    {
      "anonymous": false,
      "inputs": [
        {
          "indexed": true,
          "internalType": "address",
          "name": "previousOwner",
          "type": "address"
        },
        {
          "indexed": true,
          "internalType": "address",
          "name": "newOwner",
          "type": "address"
        }
      ],
      "name": "OwnershipTransferred",
      "type": "event"
    },
    {
      "anonymous": false,
      "inputs": [
        {
          "indexed": true,
          "internalType": "address",
          "name": "minter",
          "type": "address"
        },
        {
          "indexed": true,
          "internalType": "address",
          "name": "redeemer",
          "type": "address"
        },
        {
          "indexed": false,
          "internalType": "string",
          "name": "uri",
          "type": "string"
        },
        {
          "indexed": false,
          "internalType": "bytes",
          "name": "signature",
          "type": "bytes"
        }
      ],
      "name": "Redeem",
      "type": "event"
    },
    {
      "anonymous": false,
      "inputs": [
        {
          "indexed": true,
          "internalType": "address",
          "name": "from",
          "type": "address"
        },
        {
          "indexed": true,
          "internalType": "address",
          "name": "to",
          "type": "address"
        },
        {
          "indexed": true,
          "internalType": "uint256",
          "name": "tokenId",
          "type": "uint256"
        }
      ],
      "name": "Transfer",
      "type": "event"
    },
    {
      "inputs": [
        {
          "internalType": "address",
          "name": "to",
          "type": "address"
        },
        {
          "internalType": "uint256",
          "name": "tokenId",
          "type": "uint256"
        }
      ],
      "name": "approve",
      "outputs": [],
      "stateMutability": "nonpayable",
      "type": "function"
    },
    {
      "inputs": [
        {
          "internalType": "address",
          "name": "owner",
          "type": "address"
        }
      ],
      "name": "balanceOf",
      "outputs": [
        {
          "internalType": "uint256",
          "name": "",
          "type": "uint256"
        }
      ],
      "stateMutability": "view",
      "type": "function"
    },
    {
      "inputs": [],
      "name": "baseURI",
      "outputs": [
        {
          "internalType": "string",
          "name": "",
          "type": "string"
        }
      ],
      "stateMutability": "view",
      "type": "function"
    },
    {
      "inputs": [
        {
          "internalType": "uint256",
          "name": "tokenId",
          "type": "uint256"
        }
      ],
      "name": "getApproved",
      "outputs": [
        {
          "internalType": "address",
          "name": "",
          "type": "address"
        }
      ],
      "stateMutability": "view",
      "type": "function"
    },
    {
      "inputs": [
        {
          "internalType": "address",
          "name": "owner",
          "type": "address"
        },
        {
          "internalType": "address",
          "name": "operator",
          "type": "address"
        }
      ],
      "name": "isApprovedForAll",
      "outputs": [
        {
          "internalType": "bool",
          "name": "",
          "type": "bool"
        }
      ],
      "stateMutability": "view",
      "type": "function"
    },
    {
      "inputs": [
        {
          "internalType": "address",
          "name": "to",
          "type": "address"
        },
        {
          "internalType": "string",
          "name": "uri",
          "type": "string"
        }
      ],
      "name": "mint",
      "outputs": [
        {
          "internalType": "uint256",
          "name": "",
          "type": "uint256"
        }
      ],
      "stateMutability": "nonpayable",
      "type": "function"
    },
    {
      "inputs": [],
      "name": "name",
      "outputs": [
        {
          "internalType": "string",
          "name": "",
          "type": "string"
        }
      ],
      "stateMutability": "view",
      "type": "function"
    },
    {
      "inputs": [],
      "name": "owner",
      "outputs": [
        {
          "internalType": "address",
          "name": "",
          "type": "address"
        }
      ],
      "stateMutability": "view",
      "type": "function"
    },
    {
      "inputs": [
        {
          "internalType": "uint256",
          "name": "tokenId",
          "type": "uint256"
        }
      ],
      "name": "ownerOf",
      "outputs": [
        {
          "internalType": "address",
          "name": "",
          "type": "address"
        }
      ],
      "stateMutability": "view",
      "type": "function"
    },
    {
      "inputs": [],
      "name": "renounceOwnership",
      "outputs": [],
      "stateMutability": "nonpayable",
      "type": "function"
    },
    {
      "inputs": [
        {
          "internalType": "address",
          "name": "to",
          "type": "address"
        },
        {
          "internalType": "string",
          "name": "uri",
          "type": "string"
        }
      ],
      "name": "safeMint",
      "outputs": [
        {
          "internalType": "uint256",
          "name": "",
          "type": "uint256"
        }
      ],
      "stateMutability": "nonpayable",
      "type": "function"
    },
    {
      "inputs": [
        {
          "internalType": "address",
          "name": "from",
          "type": "address"
        },
        {
          "internalType": "address",
          "name": "to",
          "type": "address"
        },
        {
          "internalType": "uint256",
          "name": "tokenId",
          "type": "uint256"
        }
      ],
      "name": "safeTransferFrom",
      "outputs": [],
      "stateMutability": "nonpayable",
      "type": "function"
    },
    {
      "inputs": [
        {
          "internalType": "address",
          "name": "from",
          "type": "address"
        },
        {
          "internalType": "address",
          "name": "to",
          "type": "address"
        },
        {
          "internalType": "uint256",
          "name": "tokenId",
          "type": "uint256"
        },
        {
          "internalType": "bytes",
          "name": "_data",
          "type": "bytes"
        }
      ],
      "name": "safeTransferFrom",
      "outputs": [],
      "stateMutability": "nonpayable",
      "type": "function"
    },
    {
      "inputs": [
        {
          "internalType": "address",
          "name": "operator",
          "type": "address"
        },
        {
          "internalType": "bool",
          "name": "approved",
          "type": "bool"
        }
      ],
      "name": "setApprovalForAll",
      "outputs": [],
      "stateMutability": "nonpayable",
      "type": "function"
    },
    {
      "inputs": [
        {
          "internalType": "string",
          "name": "newBaseURI",
          "type": "string"
        }
      ],
      "name": "setBaseURI",
      "outputs": [],
      "stateMutability": "nonpayable",
      "type": "function"
    },
    {
      "inputs": [
        {
          "internalType": "bytes4",
          "name": "interfaceId",
          "type": "bytes4"
        }
      ],
      "name": "supportsInterface",
      "outputs": [
        {
          "internalType": "bool",
          "name": "",
          "type": "bool"
        }
      ],
      "stateMutability": "view",
      "type": "function"
    },
    {
      "inputs": [],
      "name": "symbol",
      "outputs": [
        {
          "internalType": "string",
          "name": "",
          "type": "string"
        }
      ],
      "stateMutability": "view",
      "type": "function"
    },
    {
      "inputs": [
        {
          "internalType": "uint256",
          "name": "index",
          "type": "uint256"
        }
      ],
      "name": "tokenByIndex",
      "outputs": [
        {
          "internalType": "uint256",
          "name": "",
          "type": "uint256"
        }
      ],
      "stateMutability": "view",
      "type": "function"
    },
    {
      "inputs": [
        {
          "internalType": "address",
          "name": "owner",
          "type": "address"
        },
        {
          "internalType": "uint256",
          "name": "index",
          "type": "uint256"
        }
      ],
      "name": "tokenOfOwnerByIndex",
      "outputs": [
        {
          "internalType": "uint256",
          "name": "",
          "type": "uint256"
        }
      ],
      "stateMutability": "view",
      "type": "function"
    },
    {
      "inputs": [
        {
          "internalType": "uint256",
          "name": "tokenId",
          "type": "uint256"
        }
      ],
      "name": "tokenURI",
      "outputs": [
        {
          "internalType": "string",
          "name": "",
          "type": "string"
        }
      ],
      "stateMutability": "view",
      "type": "function"
    },
    {
      "inputs": [],
      "name": "totalSupply",
      "outputs": [
        {
          "internalType": "uint256",
          "name": "",
          "type": "uint256"
        }
      ],
      "stateMutability": "view",
      "type": "function"
    },
    {
      "inputs": [
        {
          "internalType": "address",
          "name": "from",
          "type": "address"
        },
        {
          "internalType": "address",
          "name": "to",
          "type": "address"
        },
        {
          "internalType": "uint256",
          "name": "tokenId",
          "type": "uint256"
        }
      ],
      "name": "transferFrom",
      "outputs": [],
      "stateMutability": "nonpayable",
      "type": "function"
    },
    {
      "inputs": [
        {
          "internalType": "address",
          "name": "newOwner",
          "type": "address"
        }
      ],
      "name": "transferOwnership",
      "outputs": [],
      "stateMutability": "nonpayable",
      "type": "function"
    },
    {
      "inputs": [
        {
          "internalType": "address",
          "name": "redeemer",
          "type": "address"
        },
        {
          "internalType": "string",
          "name": "uri",
          "type": "string"
        },
        {
          "internalType": "bytes",
          "name": "signature",
          "type": "bytes"
        }
      ],
      "name": "redeem",
      "outputs": [],
      "stateMutability": "nonpayable",
      "type": "function"
    }
  ],
  "bytecode": "0x6101206040523480156200001257600080fd5b506040518060400160405280600a81526020017f5461757265756d4e4654000000000000000000000000000000000000000000008152506040518060400160405280600181526020017f31000000000000000000000000000000000000000000000000000000000000008152506040518060400160405280600e81526020017f5461757265756d204552433732310000000000000000000000000000000000008152506040518060400160405280600781526020017f5461757265756d00000000000000000000000000000000000000000000000000815250816000908051906020019062000103929190620002bf565b5080600190805190602001906200011c929190620002bf565b5050506000620001316200027b60201b60201c565b905080600660006101000a81548173ffffffffffffffffffffffffffffffffffffffff021916908373ffffffffffffffffffffffffffffffffffffffff1602179055508073ffffffffffffffffffffffffffffffffffffffff16600073ffffffffffffffffffffffffffffffffffffffff167f8be0079c531659141344cd1fd0a4f28419497f9722a3daafe3b4186f6b6457e060405160405180910390a3506040518060200160405280600081525060089080519060200190620001f7929190620002bf565b5060008280519060200120905060008280519060200120905060007f8b73c3c69bb8fe3d512ecc4cf759cc79239f7b179b0ffacaa9a75d522b39400f90508260c081815250508160e081815250504660a08181525050620002608184846200028360201b60201c565b608081815250508061010081815250505050505050620004ac565b600033905090565b60008383834630604051602001620002a0959493929190620003a2565b6040516020818303038152906040528051906020012090509392505050565b828054620002cd9062000447565b90600052602060002090601f016020900481019282620002f157600085556200033d565b82601f106200030c57805160ff19168380011785556200033d565b828001600101855582156200033d579182015b828111156200033c5782518255916020019190600101906200031f565b5b5090506200034c919062000350565b5090565b5b808211156200036b57600081600090555060010162000351565b5090565b6200037a81620003ff565b82525050565b6200038b8162000413565b82525050565b6200039c816200043d565b82525050565b600060a082019050620003b9600083018862000380565b620003c8602083018762000380565b620003d7604083018662000380565b620003e6606083018562000391565b620003f560808301846200036f565b9695505050505050565b60006200040c826200041d565b9050919050565b6000819050919050565b600073ffffffffffffffffffffffffffffffffffffffff82169050919050565b6000819050919050565b600060028204905060018216806200046057607f821691505b602082108114156200047757620004766200047d565b5b50919050565b7f4e487b7100000000000000000000000000000000000000000000000000000000600052602260045260246000fd5b60805160a05160c05160e0516101005161453b620004f160003960006123d701526000612419015260006123f801526000612384015260006123ac015261453b6000f3fe608060405234801561001057600080fd5b50600436106101585760003560e01c806370a08231116100c3578063b88d4fde1161007c578063b88d4fde146103c5578063c87b56dd146103e1578063d0def52114610411578063d204c45e14610441578063e985e9c514610471578063f2fde38b146104a157610158565b806370a0823114610317578063715018a61461034757806377a9c7ef146103515780638da5cb5b1461036d57806395d89b411461038b578063a22cb465146103a957610158565b80632f745c59116101155780632f745c591461023157806342842e0e146102615780634f6ccce71461027d57806355f804b3146102ad5780636352211e146102c95780636c0360eb146102f957610158565b806301ffc9a71461015d57806306fdde031461018d578063081812fc146101ab578063095ea7b3146101db57806318160ddd146101f757806323b872dd14610215575b600080fd5b61017760048036038101906101729190612f49565b6104bd565b60405161018491906136a8565b60405180910390f35b61019561059f565b6040516101a291906137bf565b60405180910390f35b6101c560048036038101906101c09190612fdc565b610631565b6040516101d2919061360f565b60405180910390f35b6101f560048036038101906101f09190612f0d565b6106b6565b005b6101ff6107ce565b60405161020c9190613ae1565b60405180910390f35b61022f600480360381019061022a9190612d26565b6107db565b005b61024b60048036038101906102469190612f0d565b61083b565b6040516102589190613ae1565b60405180910390f35b61027b60048036038101906102769190612d26565b6108e0565b005b61029760048036038101906102929190612fdc565b610900565b6040516102a49190613ae1565b60405180910390f35b6102c760048036038101906102c29190612f9b565b610997565b005b6102e360048036038101906102de9190612fdc565b610a2d565b6040516102f0919061360f565b60405180910390f35b610301610adf565b60405161030e91906137bf565b60405180910390f35b610331600480360381019061032c9190612cc1565b610b71565b60405161033e9190613ae1565b60405180910390f35b61034f610c29565b005b61036b60048036038101906103669190612e84565b610d66565b005b610375610ede565b604051610382919061360f565b60405180910390f35b610393610f08565b6040516103a091906137bf565b60405180910390f35b6103c360048036038101906103be9190612df0565b610f9a565b005b6103df60048036038101906103da9190612d75565b61111b565b005b6103fb60048036038101906103f69190612fdc565b61117d565b60405161040891906137bf565b60405180910390f35b61042b60048036038101906104269190612e2c565b61118f565b6040516104389190613ae1565b60405180910390f35b61045b60048036038101906104569190612e2c565b6111e2565b6040516104689190613ae1565b60405180910390f35b61048b60048036038101906104869190612cea565b611235565b60405161049891906136a8565b60405180910390f35b6104bb60048036038101906104b69190612cc1565b6112c9565b005b60007f80ac58cd000000000000000000000000000000000000000000000000000000007bffffffffffffffffffffffffffffffffffffffffffffffffffffffff1916827bffffffffffffffffffffffffffffffffffffffffffffffffffffffff1916148061058857507f5b5e139f000000000000000000000000000000000000000000000000000000007bffffffffffffffffffffffffffffffffffffffffffffffffffffffff1916827bffffffffffffffffffffffffffffffffffffffffffffffffffffffff1916145b80610598575061059782611475565b5b9050919050565b6060600080546105ae90613d3d565b80601f01602080910402602001604051908101604052809291908181526020018280546105da90613d3d565b80156106275780601f106105fc57610100808354040283529160200191610627565b820191906000526020600020905b81548152906001019060200180831161060a57829003601f168201915b5050505050905090565b600061063c826114ef565b61067b576040517f08c379a0000000000000000000000000000000000000000000000000000000008152600401610672906139e1565b60405180910390fd5b6004600083815260200190815260200160002060009054906101000a900473ffffffffffffffffffffffffffffffffffffffff169050919050565b60006106c182610a2d565b90508073ffffffffffffffffffffffffffffffffffffffff168373ffffffffffffffffffffffffffffffffffffffff161415610732576040517f08c379a000000000000000000000000000000000000000000000000000000000815260040161072990613a61565b60405180910390fd5b8073ffffffffffffffffffffffffffffffffffffffff1661075161155b565b73ffffffffffffffffffffffffffffffffffffffff161480610780575061077f8161077a61155b565b611235565b5b6107bf576040517f08c379a00000000000000000000000000000000000000000000000000000000081526004016107b690613941565b60405180910390fd5b6107c98383611563565b505050565b6000600b80549050905090565b6107ec6107e661155b565b8261161c565b61082b576040517f08c379a000000000000000000000000000000000000000000000000000000000815260040161082290613a81565b60405180910390fd5b6108368383836116fa565b505050565b600061084683610b71565b8210610887576040517f08c379a000000000000000000000000000000000000000000000000000000000815260040161087e90613821565b60405180910390fd5b600960008473ffffffffffffffffffffffffffffffffffffffff1673ffffffffffffffffffffffffffffffffffffffff168152602001908152602001600020600083815260200190815260200160002054905092915050565b6108fb8383836040518060200160405280600081525061111b565b505050565b600061090a6107ce565b821061094b576040517f08c379a000000000000000000000000000000000000000000000000000000000815260040161094290613aa1565b60405180910390fd5b600b8281548110610985577f4e487b7100000000000000000000000000000000000000000000000000000000600052603260045260246000fd5b90600052602060002001549050919050565b61099f61155b565b73ffffffffffffffffffffffffffffffffffffffff166109bd610ede565b73ffffffffffffffffffffffffffffffffffffffff1614610a13576040517f08c379a0000000000000000000000000000000000000000000000000000000008152600401610a0a90613a01565b60405180910390fd5b8060089080519060200190610a299291906129cb565b5050565b6000806002600084815260200190815260200160002060009054906101000a900473ffffffffffffffffffffffffffffffffffffffff169050600073ffffffffffffffffffffffffffffffffffffffff168173ffffffffffffffffffffffffffffffffffffffff161415610ad6576040517f08c379a0000000000000000000000000000000000000000000000000000000008152600401610acd90613981565b60405180910390fd5b80915050919050565b606060088054610aee90613d3d565b80601f0160208091040260200160405190810160405280929190818152602001828054610b1a90613d3d565b8015610b675780601f10610b3c57610100808354040283529160200191610b67565b820191906000526020600020905b815481529060010190602001808311610b4a57829003601f168201915b5050505050905090565b60008073ffffffffffffffffffffffffffffffffffffffff168273ffffffffffffffffffffffffffffffffffffffff161415610be2576040517f08c379a0000000000000000000000000000000000000000000000000000000008152600401610bd990613961565b60405180910390fd5b600360008373ffffffffffffffffffffffffffffffffffffffff1673ffffffffffffffffffffffffffffffffffffffff168152602001908152602001600020549050919050565b610c3161155b565b73ffffffffffffffffffffffffffffffffffffffff16610c4f610ede565b73ffffffffffffffffffffffffffffffffffffffff1614610ca5576040517f08c379a0000000000000000000000000000000000000000000000000000000008152600401610c9c90613a01565b60405180910390fd5b600073ffffffffffffffffffffffffffffffffffffffff16600660009054906101000a900473ffffffffffffffffffffffffffffffffffffffff1673ffffffffffffffffffffffffffffffffffffffff167f8be0079c531659141344cd1fd0a4f28419497f9722a3daafe3b4186f6b6457e060405160405180910390a36000600660006101000a81548173ffffffffffffffffffffffffffffffffffffffff021916908373ffffffffffffffffffffffffffffffffffffffff160217905550565b6000610dbf610d758686611956565b84848080601f016020809104026020016040519081016040528093929190818152602001838380828437600081840152601f19601f820116905080830192505050505050506119c8565b90508073ffffffffffffffffffffffffffffffffffffffff163373ffffffffffffffffffffffffffffffffffffffff161480610e015750610e008133611235565b5b610e40576040517f08c379a0000000000000000000000000000000000000000000000000000000008152600401610e3790613921565b60405180910390fd5b6000610e4d82878761118f565b9050610e6a82888360405180602001604052806000815250611a44565b8673ffffffffffffffffffffffffffffffffffffffff168273ffffffffffffffffffffffffffffffffffffffff167fb81d90300775327e5ff9b7e43342852858f8bc3b5dfeb49ba785363e219773dc88888888604051610ecd9493929190613784565b60405180910390a350505050505050565b6000600660009054906101000a900473ffffffffffffffffffffffffffffffffffffffff16905090565b606060018054610f1790613d3d565b80601f0160208091040260200160405190810160405280929190818152602001828054610f4390613d3d565b8015610f905780601f10610f6557610100808354040283529160200191610f90565b820191906000526020600020905b815481529060010190602001808311610f7357829003601f168201915b5050505050905090565b610fa261155b565b73ffffffffffffffffffffffffffffffffffffffff168273ffffffffffffffffffffffffffffffffffffffff161415611010576040517f08c379a0000000000000000000000000000000000000000000000000000000008152600401611007906138c1565b60405180910390fd5b806005600061101d61155b565b73ffffffffffffffffffffffffffffffffffffffff1673ffffffffffffffffffffffffffffffffffffffff16815260200190815260200160002060008473ffffffffffffffffffffffffffffffffffffffff1673ffffffffffffffffffffffffffffffffffffffff16815260200190815260200160002060006101000a81548160ff0219169083151502179055508173ffffffffffffffffffffffffffffffffffffffff166110ca61155b565b73ffffffffffffffffffffffffffffffffffffffff167f17307eab39ab6107e8899845ad3d59bd9653f200f220920489ca2b5937696c318360405161110f91906136a8565b60405180910390a35050565b61112c61112661155b565b8361161c565b61116b576040517f08c379a000000000000000000000000000000000000000000000000000000000815260040161116290613a81565b60405180910390fd5b61117784848484611a44565b50505050565b606061118882611aa0565b9050919050565b6000808484846040516020016111a793929190613676565b6040516020818303038152906040528051906020012060001c90506111cc8582611bde565b6111d7818585611dac565b809150509392505050565b6000808484846040516020016111fa93929190613676565b6040516020818303038152906040528051906020012060001c905061121f8582611e1c565b61122a818585611dac565b809150509392505050565b6000600560008473ffffffffffffffffffffffffffffffffffffffff1673ffffffffffffffffffffffffffffffffffffffff16815260200190815260200160002060008373ffffffffffffffffffffffffffffffffffffffff1673ffffffffffffffffffffffffffffffffffffffff16815260200190815260200160002060009054906101000a900460ff16905092915050565b6112d161155b565b73ffffffffffffffffffffffffffffffffffffffff166112ef610ede565b73ffffffffffffffffffffffffffffffffffffffff1614611345576040517f08c379a000000000000000000000000000000000000000000000000000000000815260040161133c90613a01565b60405180910390fd5b600073ffffffffffffffffffffffffffffffffffffffff168173ffffffffffffffffffffffffffffffffffffffff1614156113b5576040517f08c379a00000000000000000000000000000000000000000000000000000000081526004016113ac90613861565b60405180910390fd5b8073ffffffffffffffffffffffffffffffffffffffff16600660009054906101000a900473ffffffffffffffffffffffffffffffffffffffff1673ffffffffffffffffffffffffffffffffffffffff167f8be0079c531659141344cd1fd0a4f28419497f9722a3daafe3b4186f6b6457e060405160405180910390a380600660006101000a81548173ffffffffffffffffffffffffffffffffffffffff021916908373ffffffffffffffffffffffffffffffffffffffff16021790555050565b60007f780e9d63000000000000000000000000000000000000000000000000000000007bffffffffffffffffffffffffffffffffffffffffffffffffffffffff1916827bffffffffffffffffffffffffffffffffffffffffffffffffffffffff191614806114e857506114e782611e3a565b5b9050919050565b60008073ffffffffffffffffffffffffffffffffffffffff166002600084815260200190815260200160002060009054906101000a900473ffffffffffffffffffffffffffffffffffffffff1673ffffffffffffffffffffffffffffffffffffffff1614159050919050565b600033905090565b816004600083815260200190815260200160002060006101000a81548173ffffffffffffffffffffffffffffffffffffffff021916908373ffffffffffffffffffffffffffffffffffffffff160217905550808273ffffffffffffffffffffffffffffffffffffffff166115d683610a2d565b73ffffffffffffffffffffffffffffffffffffffff167f8c5be1e5ebec7d5bd14f71427d1e84f3dd0314c0f7b2291e5b200ac8c7c3b92560405160405180910390a45050565b6000611627826114ef565b611666576040517f08c379a000000000000000000000000000000000000000000000000000000000815260040161165d90613901565b60405180910390fd5b600061167183610a2d565b90508073ffffffffffffffffffffffffffffffffffffffff168473ffffffffffffffffffffffffffffffffffffffff1614806116e057508373ffffffffffffffffffffffffffffffffffffffff166116c884610631565b73ffffffffffffffffffffffffffffffffffffffff16145b806116f157506116f08185611235565b5b91505092915050565b8273ffffffffffffffffffffffffffffffffffffffff1661171a82610a2d565b73ffffffffffffffffffffffffffffffffffffffff1614611770576040517f08c379a000000000000000000000000000000000000000000000000000000000815260040161176790613a21565b60405180910390fd5b600073ffffffffffffffffffffffffffffffffffffffff168273ffffffffffffffffffffffffffffffffffffffff1614156117e0576040517f08c379a00000000000000000000000000000000000000000000000000000000081526004016117d7906138a1565b60405180910390fd5b6117eb838383611f1c565b6117f6600082611563565b6001600360008573ffffffffffffffffffffffffffffffffffffffff1673ffffffffffffffffffffffffffffffffffffffff16815260200190815260200160002060008282546118469190613c3c565b925050819055506001600360008473ffffffffffffffffffffffffffffffffffffffff1673ffffffffffffffffffffffffffffffffffffffff168152602001908152602001600020600082825461189d9190613be6565b92505081905550816002600083815260200190815260200160002060006101000a81548173ffffffffffffffffffffffffffffffffffffffff021916908373ffffffffffffffffffffffffffffffffffffffff160217905550808273ffffffffffffffffffffffffffffffffffffffff168473ffffffffffffffffffffffffffffffffffffffff167fddf252ad1be2c89b69c2b068fc378daa952ba7f163c4a11628f55a4df523b3ef60405160405180910390a4505050565b60006119c07fa6b58c98ea4cc2264b50f22158f7630dd0e4b1d5e79193ec25dcf39653dda06f848460405161198c929190613573565b60405180910390206040516020016119a59291906136c3565b60405160208183030381529060405280519060200120611f2c565b905092915050565b6000806040518060400160405280601c81526020017f19457468657265756d205369676e6564204d6573736167653a0a333200000000815250905060008185604051602001611a1892919061358c565b604051602081830303815290604052805190602001209050611a3a8185611f46565b9250505092915050565b611a4f8484846116fa565b611a5b84848484612010565b611a9a576040517f08c379a0000000000000000000000000000000000000000000000000000000008152600401611a9190613841565b60405180910390fd5b50505050565b6060611aab826114ef565b611aea576040517f08c379a0000000000000000000000000000000000000000000000000000000008152600401611ae190613a41565b60405180910390fd5b600060088054611af990613d3d565b905011611ba157600760008381526020019081526020016000208054611b1e90613d3d565b80601f0160208091040260200160405190810160405280929190818152602001828054611b4a90613d3d565b8015611b975780601f10611b6c57610100808354040283529160200191611b97565b820191906000526020600020905b815481529060010190602001808311611b7a57829003601f168201915b5050505050611bd7565b600860076000848152602001908152602001600020604051602001611bc79291906135b4565b6040516020818303038152906040525b9050919050565b600073ffffffffffffffffffffffffffffffffffffffff168273ffffffffffffffffffffffffffffffffffffffff161415611c4e576040517f08c379a0000000000000000000000000000000000000000000000000000000008152600401611c45906139c1565b60405180910390fd5b611c57816114ef565b15611c97576040517f08c379a0000000000000000000000000000000000000000000000000000000008152600401611c8e90613881565b60405180910390fd5b611ca360008383611f1c565b6001600360008473ffffffffffffffffffffffffffffffffffffffff1673ffffffffffffffffffffffffffffffffffffffff1681526020019081526020016000206000828254611cf39190613be6565b92505081905550816002600083815260200190815260200160002060006101000a81548173ffffffffffffffffffffffffffffffffffffffff021916908373ffffffffffffffffffffffffffffffffffffffff160217905550808273ffffffffffffffffffffffffffffffffffffffff16600073ffffffffffffffffffffffffffffffffffffffff167fddf252ad1be2c89b69c2b068fc378daa952ba7f163c4a11628f55a4df523b3ef60405160405180910390a45050565b611db5836114ef565b611df4576040517f08c379a0000000000000000000000000000000000000000000000000000000008152600401611deb90613ac1565b60405180910390fd5b8181600760008681526020019081526020016000209190611e16929190612a51565b50505050565b611e368282604051806020016040528060008152506121a7565b5050565b60007f80ac58cd000000000000000000000000000000000000000000000000000000007bffffffffffffffffffffffffffffffffffffffffffffffffffffffff1916827bffffffffffffffffffffffffffffffffffffffffffffffffffffffff19161480611f0557507f5b5e139f000000000000000000000000000000000000000000000000000000007bffffffffffffffffffffffffffffffffffffffffffffffffffffffff1916827bffffffffffffffffffffffffffffffffffffffffffffffffffffffff1916145b80611f155750611f1482612202565b5b9050919050565b611f2783838361226c565b505050565b6000611f3f611f39612380565b83612443565b9050919050565b600080600080604185511415611f73576020850151925060408501519150606085015160001a9050611ff9565b604085511415611fbd576040850151602086015193507f7fffffffffffffffffffffffffffffffffffffffffffffffffffffffffffffff81169250601b8160ff1c01915050611ff8565b6040517f08c379a0000000000000000000000000000000000000000000000000000000008152600401611fef90613801565b60405180910390fd5b5b61200586828585612476565b935050505092915050565b60006120318473ffffffffffffffffffffffffffffffffffffffff16612601565b1561219a578373ffffffffffffffffffffffffffffffffffffffff1663150b7a0261205a61155b565b8786866040518563ffffffff1660e01b815260040161207c949392919061362a565b602060405180830381600087803b15801561209657600080fd5b505af19250505080156120c757506040513d601f19601f820116820180604052508101906120c49190612f72565b60015b61214a573d80600081146120f7576040519150601f19603f3d011682016040523d82523d6000602084013e6120fc565b606091505b50600081511415612142576040517f08c379a000000000000000000000000000000000000000000000000000000000815260040161213990613841565b60405180910390fd5b805181602001fd5b63150b7a0260e01b7bffffffffffffffffffffffffffffffffffffffffffffffffffffffff1916817bffffffffffffffffffffffffffffffffffffffffffffffffffffffff19161491505061219f565b600190505b949350505050565b6121b18383611bde565b6121be6000848484612010565b6121fd576040517f08c379a00000000000000000000000000000000000000000000000000000000081526004016121f490613841565b60405180910390fd5b505050565b60007f01ffc9a7000000000000000000000000000000000000000000000000000000007bffffffffffffffffffffffffffffffffffffffffffffffffffffffff1916827bffffffffffffffffffffffffffffffffffffffffffffffffffffffff1916149050919050565b612277838383612614565b600073ffffffffffffffffffffffffffffffffffffffff168373ffffffffffffffffffffffffffffffffffffffff1614156122ba576122b581612619565b6122f9565b8173ffffffffffffffffffffffffffffffffffffffff168373ffffffffffffffffffffffffffffffffffffffff16146122f8576122f78382612662565b5b5b600073ffffffffffffffffffffffffffffffffffffffff168273ffffffffffffffffffffffffffffffffffffffff16141561233c57612337816127cf565b61237b565b8273ffffffffffffffffffffffffffffffffffffffff168273ffffffffffffffffffffffffffffffffffffffff161461237a576123798282612912565b5b5b505050565b60007f00000000000000000000000000000000000000000000000000000000000000004614156123d2577f00000000000000000000000000000000000000000000000000000000000000009050612440565b61243d7f00000000000000000000000000000000000000000000000000000000000000007f00000000000000000000000000000000000000000000000000000000000000007f0000000000000000000000000000000000000000000000000000000000000000612991565b90505b90565b600082826040516020016124589291906135d8565b60405160208183030381529060405280519060200120905092915050565b60007f7fffffffffffffffffffffffffffffff5d576e7357a4501ddfe92f46681b20a08260001c11156124de576040517f08c379a00000000000000000000000000000000000000000000000000000000081526004016124d5906138e1565b60405180910390fd5b601b8460ff1614806124f35750601c8460ff16145b612532576040517f08c379a0000000000000000000000000000000000000000000000000000000008152600401612529906139a1565b60405180910390fd5b600060018686868660405160008152602001604052604051612557949392919061373f565b6020604051602081039080840390855afa158015612579573d6000803e3d6000fd5b505050602060405103519050600073ffffffffffffffffffffffffffffffffffffffff168173ffffffffffffffffffffffffffffffffffffffff1614156125f5576040517f08c379a00000000000000000000000000000000000000000000000000000000081526004016125ec906137e1565b60405180910390fd5b80915050949350505050565b600080823b905060008111915050919050565b505050565b600b80549050600c600083815260200190815260200160002081905550600b81908060018154018082558091505060019003906000526020600020016000909190919091505550565b6000600161266f84610b71565b6126799190613c3c565b90506000600a600084815260200190815260200160002054905081811461275e576000600960008673ffffffffffffffffffffffffffffffffffffffff1673ffffffffffffffffffffffffffffffffffffffff168152602001908152602001600020600084815260200190815260200160002054905080600960008773ffffffffffffffffffffffffffffffffffffffff1673ffffffffffffffffffffffffffffffffffffffff16815260200190815260200160002060008481526020019081526020016000208190555081600a600083815260200190815260200160002081905550505b600a600084815260200190815260200160002060009055600960008573ffffffffffffffffffffffffffffffffffffffff1673ffffffffffffffffffffffffffffffffffffffff16815260200190815260200160002060008381526020019081526020016000206000905550505050565b60006001600b805490506127e39190613c3c565b90506000600c60008481526020019081526020016000205490506000600b8381548110612839577f4e487b7100000000000000000000000000000000000000000000000000000000600052603260045260246000fd5b9060005260206000200154905080600b8381548110612881577f4e487b7100000000000000000000000000000000000000000000000000000000600052603260045260246000fd5b906000526020600020018190555081600c600083815260200190815260200160002081905550600c600085815260200190815260200160002060009055600b8054806128f6577f4e487b7100000000000000000000000000000000000000000000000000000000600052603160045260246000fd5b6001900381819060005260206000200160009055905550505050565b600061291d83610b71565b905081600960008573ffffffffffffffffffffffffffffffffffffffff1673ffffffffffffffffffffffffffffffffffffffff16815260200190815260200160002060008381526020019081526020016000208190555080600a600084815260200190815260200160002081905550505050565b600083838346306040516020016129ac9594939291906136ec565b6040516020818303038152906040528051906020012090509392505050565b8280546129d790613d3d565b90600052602060002090601f0160209004810192826129f95760008555612a40565b82601f10612a1257805160ff1916838001178555612a40565b82800160010185558215612a40579182015b82811115612a3f578251825591602001919060010190612a24565b5b509050612a4d9190612ad7565b5090565b828054612a5d90613d3d565b90600052602060002090601f016020900481019282612a7f5760008555612ac6565b82601f10612a9857803560ff1916838001178555612ac6565b82800160010185558215612ac6579182015b82811115612ac5578235825591602001919060010190612aaa565b5b509050612ad39190612ad7565b5090565b5b80821115612af0576000816000905550600101612ad8565b5090565b6000612b07612b0284613b21565b613afc565b905082815260208101848484011115612b1f57600080fd5b612b2a848285613cfb565b509392505050565b6000612b45612b4084613b52565b613afc565b905082815260208101848484011115612b5d57600080fd5b612b68848285613cfb565b509392505050565b600081359050612b7f816144a9565b92915050565b600081359050612b94816144c0565b92915050565b600081359050612ba9816144d7565b92915050565b600081519050612bbe816144d7565b92915050565b60008083601f840112612bd657600080fd5b8235905067ffffffffffffffff811115612bef57600080fd5b602083019150836001820283011115612c0757600080fd5b9250929050565b600082601f830112612c1f57600080fd5b8135612c2f848260208601612af4565b91505092915050565b60008083601f840112612c4a57600080fd5b8235905067ffffffffffffffff811115612c6357600080fd5b602083019150836001820283011115612c7b57600080fd5b9250929050565b600082601f830112612c9357600080fd5b8135612ca3848260208601612b32565b91505092915050565b600081359050612cbb816144ee565b92915050565b600060208284031215612cd357600080fd5b6000612ce184828501612b70565b91505092915050565b60008060408385031215612cfd57600080fd5b6000612d0b85828601612b70565b9250506020612d1c85828601612b70565b9150509250929050565b600080600060608486031215612d3b57600080fd5b6000612d4986828701612b70565b9350506020612d5a86828701612b70565b9250506040612d6b86828701612cac565b9150509250925092565b60008060008060808587031215612d8b57600080fd5b6000612d9987828801612b70565b9450506020612daa87828801612b70565b9350506040612dbb87828801612cac565b925050606085013567ffffffffffffffff811115612dd857600080fd5b612de487828801612c0e565b91505092959194509250565b60008060408385031215612e0357600080fd5b6000612e1185828601612b70565b9250506020612e2285828601612b85565b9150509250929050565b600080600060408486031215612e4157600080fd5b6000612e4f86828701612b70565b935050602084013567ffffffffffffffff811115612e6c57600080fd5b612e7886828701612c38565b92509250509250925092565b600080600080600060608688031215612e9c57600080fd5b6000612eaa88828901612b70565b955050602086013567ffffffffffffffff811115612ec757600080fd5b612ed388828901612c38565b9450945050604086013567ffffffffffffffff811115612ef257600080fd5b612efe88828901612bc4565b92509250509295509295909350565b60008060408385031215612f2057600080fd5b6000612f2e85828601612b70565b9250506020612f3f85828601612cac565b9150509250929050565b600060208284031215612f5b57600080fd5b6000612f6984828501612b9a565b91505092915050565b600060208284031215612f8457600080fd5b6000612f9284828501612baf565b91505092915050565b600060208284031215612fad57600080fd5b600082013567ffffffffffffffff811115612fc757600080fd5b612fd384828501612c82565b91505092915050565b600060208284031215612fee57600080fd5b6000612ffc84828501612cac565b91505092915050565b61300e81613c70565b82525050565b61301d81613c82565b82525050565b61302c81613c8e565b82525050565b61304361303e82613c8e565b613da0565b82525050565b60006130558385613bae565b9350613062838584613cfb565b61306b83613e37565b840190509392505050565b60006130828385613bbf565b935061308f838584613cfb565b82840190509392505050565b60006130a682613b98565b6130b08185613bae565b93506130c0818560208601613d0a565b6130c981613e37565b840191505092915050565b60006130df82613b98565b6130e98185613bbf565b93506130f9818560208601613d0a565b80840191505092915050565b60006131118385613bca565b935061311e838584613cfb565b61312783613e37565b840190509392505050565b600061313d82613ba3565b6131478185613bca565b9350613157818560208601613d0a565b61316081613e37565b840191505092915050565b6000815461317881613d3d565b6131828186613bdb565b9450600182166000811461319d57600181146131ae576131e1565b60ff198316865281860193506131e1565b6131b785613b83565b60005b838110156131d9578154818901526001820191506020810190506131ba565b838801955050505b50505092915050565b60006131f7601883613bca565b915061320282613e48565b602082019050919050565b600061321a601f83613bca565b915061322582613e71565b602082019050919050565b600061323d602b83613bca565b915061324882613e9a565b604082019050919050565b6000613260603283613bca565b915061326b82613ee9565b604082019050919050565b6000613283602683613bca565b915061328e82613f38565b604082019050919050565b60006132a6601c83613bca565b91506132b182613f87565b602082019050919050565b60006132c9600283613bdb565b91506132d482613fb0565b600282019050919050565b60006132ec602483613bca565b91506132f782613fd9565b604082019050919050565b600061330f601983613bca565b915061331a82614028565b602082019050919050565b6000613332602283613bca565b915061333d82614051565b604082019050919050565b6000613355602c83613bca565b9150613360826140a0565b604082019050919050565b6000613378601983613bca565b9150613383826140ef565b602082019050919050565b600061339b603883613bca565b91506133a682614118565b604082019050919050565b60006133be602a83613bca565b91506133c982614167565b604082019050919050565b60006133e1602983613bca565b91506133ec826141b6565b604082019050919050565b6000613404602283613bca565b915061340f82614205565b604082019050919050565b6000613427602083613bca565b915061343282614254565b602082019050919050565b600061344a602c83613bca565b91506134558261427d565b604082019050919050565b600061346d602083613bca565b9150613478826142cc565b602082019050919050565b6000613490602983613bca565b915061349b826142f5565b604082019050919050565b60006134b3602f83613bca565b91506134be82614344565b604082019050919050565b60006134d6602183613bca565b91506134e182614393565b604082019050919050565b60006134f9603183613bca565b9150613504826143e2565b604082019050919050565b600061351c602c83613bca565b915061352782614431565b604082019050919050565b600061353f601483613bca565b915061354a82614480565b602082019050919050565b61355e81613ce4565b82525050565b61356d81613cee565b82525050565b6000613580828486613076565b91508190509392505050565b600061359882856130d4565b91506135a48284613032565b6020820191508190509392505050565b60006135c0828561316b565b91506135cc828461316b565b91508190509392505050565b60006135e3826132bc565b91506135ef8285613032565b6020820191506135ff8284613032565b6020820191508190509392505050565b60006020820190506136246000830184613005565b92915050565b600060808201905061363f6000830187613005565b61364c6020830186613005565b6136596040830185613555565b818103606083015261366b818461309b565b905095945050505050565b600060408201905061368b6000830186613005565b818103602083015261369e818486613105565b9050949350505050565b60006020820190506136bd6000830184613014565b92915050565b60006040820190506136d86000830185613023565b6136e56020830184613023565b9392505050565b600060a0820190506137016000830188613023565b61370e6020830187613023565b61371b6040830186613023565b6137286060830185613555565b6137356080830184613005565b9695505050505050565b60006080820190506137546000830187613023565b6137616020830186613564565b61376e6040830185613023565b61377b6060830184613023565b95945050505050565b6000604082019050818103600083015261379f818688613105565b905081810360208301526137b4818486613049565b905095945050505050565b600060208201905081810360008301526137d98184613132565b905092915050565b600060208201905081810360008301526137fa816131ea565b9050919050565b6000602082019050818103600083015261381a8161320d565b9050919050565b6000602082019050818103600083015261383a81613230565b9050919050565b6000602082019050818103600083015261385a81613253565b9050919050565b6000602082019050818103600083015261387a81613276565b9050919050565b6000602082019050818103600083015261389a81613299565b9050919050565b600060208201905081810360008301526138ba816132df565b9050919050565b600060208201905081810360008301526138da81613302565b9050919050565b600060208201905081810360008301526138fa81613325565b9050919050565b6000602082019050818103600083015261391a81613348565b9050919050565b6000602082019050818103600083015261393a8161336b565b9050919050565b6000602082019050818103600083015261395a8161338e565b9050919050565b6000602082019050818103600083015261397a816133b1565b9050919050565b6000602082019050818103600083015261399a816133d4565b9050919050565b600060208201905081810360008301526139ba816133f7565b9050919050565b600060208201905081810360008301526139da8161341a565b9050919050565b600060208201905081810360008301526139fa8161343d565b9050919050565b60006020820190508181036000830152613a1a81613460565b9050919050565b60006020820190508181036000830152613a3a81613483565b9050919050565b60006020820190508181036000830152613a5a816134a6565b9050919050565b60006020820190508181036000830152613a7a816134c9565b9050919050565b60006020820190508181036000830152613a9a816134ec565b9050919050565b60006020820190508181036000830152613aba8161350f565b9050919050565b60006020820190508181036000830152613ada81613532565b9050919050565b6000602082019050613af66000830184613555565b92915050565b6000613b06613b17565b9050613b128282613d6f565b919050565b6000604051905090565b600067ffffffffffffffff821115613b3c57613b3b613e08565b5b613b4582613e37565b9050602081019050919050565b600067ffffffffffffffff821115613b6d57613b6c613e08565b5b613b7682613e37565b9050602081019050919050565b60008190508160005260206000209050919050565b600081519050919050565b600081519050919050565b600082825260208201905092915050565b600081905092915050565b600082825260208201905092915050565b600081905092915050565b6000613bf182613ce4565b9150613bfc83613ce4565b9250827fffffffffffffffffffffffffffffffffffffffffffffffffffffffffffffffff03821115613c3157613c30613daa565b5b828201905092915050565b6000613c4782613ce4565b9150613c5283613ce4565b925082821015613c6557613c64613daa565b5b828203905092915050565b6000613c7b82613cc4565b9050919050565b60008115159050919050565b6000819050919050565b60007fffffffff0000000000000000000000000000000000000000000000000000000082169050919050565b600073ffffffffffffffffffffffffffffffffffffffff82169050919050565b6000819050919050565b600060ff82169050919050565b82818337600083830152505050565b60005b83811015613d28578082015181840152602081019050613d0d565b83811115613d37576000848401525b50505050565b60006002820490506001821680613d5557607f821691505b60208210811415613d6957613d68613dd9565b5b50919050565b613d7882613e37565b810181811067ffffffffffffffff82111715613d9757613d96613e08565b5b80604052505050565b6000819050919050565b7f4e487b7100000000000000000000000000000000000000000000000000000000600052601160045260246000fd5b7f4e487b7100000000000000000000000000000000000000000000000000000000600052602260045260246000fd5b7f4e487b7100000000000000000000000000000000000000000000000000000000600052604160045260246000fd5b6000601f19601f8301169050919050565b7f45434453413a20696e76616c6964207369676e61747572650000000000000000600082015250565b7f45434453413a20696e76616c6964207369676e6174757265206c656e67746800600082015250565b7f455243373231456e756d657261626c653a206f776e657220696e646578206f7560008201527f74206f6620626f756e6473000000000000000000000000000000000000000000602082015250565b7f4552433732313a207472616e7366657220746f206e6f6e20455243373231526560008201527f63656976657220696d706c656d656e7465720000000000000000000000000000602082015250565b7f4f776e61626c653a206e6577206f776e657220697320746865207a65726f206160008201527f6464726573730000000000000000000000000000000000000000000000000000602082015250565b7f4552433732313a20746f6b656e20616c7265616479206d696e74656400000000600082015250565b7f1901000000000000000000000000000000000000000000000000000000000000600082015250565b7f4552433732313a207472616e7366657220746f20746865207a65726f2061646460008201527f7265737300000000000000000000000000000000000000000000000000000000602082015250565b7f4552433732313a20617070726f766520746f2063616c6c657200000000000000600082015250565b7f45434453413a20696e76616c6964207369676e6174757265202773272076616c60008201527f7565000000000000000000000000000000000000000000000000000000000000602082015250565b7f4552433732313a206f70657261746f7220717565727920666f72206e6f6e657860008201527f697374656e7420746f6b656e0000000000000000000000000000000000000000602082015250565b7f4d5553545f42455f4f574e45525f4f525f415050524f56454400000000000000600082015250565b7f4552433732313a20617070726f76652063616c6c6572206973206e6f74206f7760008201527f6e6572206e6f7220617070726f76656420666f7220616c6c0000000000000000602082015250565b7f4552433732313a2062616c616e636520717565727920666f7220746865207a6560008201527f726f206164647265737300000000000000000000000000000000000000000000602082015250565b7f4552433732313a206f776e657220717565727920666f72206e6f6e657869737460008201527f656e7420746f6b656e0000000000000000000000000000000000000000000000602082015250565b7f45434453413a20696e76616c6964207369676e6174757265202776272076616c60008201527f7565000000000000000000000000000000000000000000000000000000000000602082015250565b7f4552433732313a206d696e7420746f20746865207a65726f2061646472657373600082015250565b7f4552433732313a20617070726f76656420717565727920666f72206e6f6e657860008201527f697374656e7420746f6b656e0000000000000000000000000000000000000000602082015250565b7f4f776e61626c653a2063616c6c6572206973206e6f7420746865206f776e6572600082015250565b7f4552433732313a207472616e73666572206f6620746f6b656e2074686174206960008201527f73206e6f74206f776e0000000000000000000000000000000000000000000000602082015250565b7f4552433732314d657461646174613a2055524920717565727920666f72206e6f60008201527f6e6578697374656e7420746f6b656e0000000000000000000000000000000000602082015250565b7f4552433732313a20617070726f76616c20746f2063757272656e74206f776e6560008201527f7200000000000000000000000000000000000000000000000000000000000000602082015250565b7f4552433732313a207472616e736665722063616c6c6572206973206e6f74206f60008201527f776e6572206e6f7220617070726f766564000000000000000000000000000000602082015250565b7f455243373231456e756d657261626c653a20676c6f62616c20696e646578206f60008201527f7574206f6620626f756e64730000000000000000000000000000000000000000602082015250565b7f544f4b454e5f49445f4e4f545f45584953544544000000000000000000000000600082015250565b6144b281613c70565b81146144bd57600080fd5b50565b6144c981613c82565b81146144d457600080fd5b50565b6144e081613c98565b81146144eb57600080fd5b50565b6144f781613ce4565b811461450257600080fd5b5056fea2646970667358221220a575c295d6cb564edcebc06b7f58160e715e46061c4cbbf76f4c6b7e9750a4aa64736f6c63430008040033",
  "immutableReferences": {
    "2945": [
      {
        "length": 32,
        "start": 9132
      }
    ],
    "2947": [
      {
        "length": 32,
        "start": 9092
      }
    ],
    "2949": [
      {
        "length": 32,
        "start": 9208
      }
    ],
    "2951": [
      {
        "length": 32,
        "start": 9241
      }
    ],
    "2953": [
      {
        "length": 32,
        "start": 9175
      }
    ]
  },
  "source": "// SPDX-License-Identifier: UNLICENSED\n\npragma solidity 0.8.4;\n\nimport \"./lib/access/AccessControl.sol\";\nimport \"./lib/utils/cryptography/ECDSA.sol\";\nimport \"./lib/utils/cryptography/draft-EIP712.sol\";\nimport \"./TaureumERC721Enumerable.sol\";\n\ncontract TaureumERC721LazyMint is TaureumERC721Enumerable, EIP712 {\n    string private constant SIGNING_DOMAIN = \"TaureumNFT\";\n    string private constant SIGNATURE_VERSION = \"1\";\n\n    /**\n     * @dev Emitted when a pending token is redeemed in the lazy-minting protocol.\n     */\n    event Redeem(\n        address indexed minter,\n        address indexed redeemer,\n        string uri,\n        bytes signature);\n\n    /**\n     * @dev Create a new TaureumNFTLazyMint contract and and assign `DEFAULT_ADMIN_ROLE, MINTER_ROLE` for the creator.\n     * This construction function should be called from an exchange.\n     *\n     */\n    constructor() TaureumERC721Enumerable() EIP712(SIGNING_DOMAIN, SIGNATURE_VERSION)\n    {}\n\n    /**\n     * @dev Implement a lazy minting mechanism in which the NFT-minting process is delayed until the first order is successful.\n     * This function should be handled by a smart contract which is allowed by the `minter`.\n     * @notice It throws if\n     *      - `msg.sender` is not the `minter` or has not been approved by the `minter`.\n     *      - redeem data and signature are not valid.\n     *      - if the redeemer is a contract and it cannot receive the NFT.\n     * @param redeemer The address that the minted NFT will be transferred to.\n     * @param uri The URI consists of metadata description of the minting NFT on the IPFS (without prefix).\n     * @param signature The signature signed by `to` designating `msg.sender` to mint the NFT for it.\n     */\n    function redeem(address redeemer, string calldata uri, bytes calldata signature)\n    external\n    {\n        address minter = _verify(_hash(uri), signature);\n        require(msg.sender == minter || isApprovedForAll(minter, msg.sender), \"MUST_BE_OWNER_OR_APPROVED\");\n\n        // mint the token to the signer\n        uint256 id = mint(minter, uri);\n\n        // transfer the minted token to the redeemer\n        _safeTransfer(minter, redeemer, id, \"\");\n\n        emit Redeem(minter, redeemer, uri, signature);\n    }\n\n    /// @notice Returns a hash of the given PendingNFT, prepared using EIP712 typed data hashing rules.\n    function _hash(string calldata uri)\n    internal view returns (bytes32)\n    {\n        return _hashTypedDataV4(keccak256(abi.encode(\n                keccak256(\"TaureumNFT(string uri)\"),\n                keccak256(bytes(uri))\n            )));\n    }\n\n    /**\n     * @dev Returns the signer for a pair of digested message and signature.\n     */\n    function _verify(bytes32 digest, bytes memory signature)\n    internal pure returns (address)\n    {\n        bytes memory prefix = \"\\x19Ethereum Signed Message:\\n32\";\n        bytes32 prefixedHash = keccak256(abi.encodePacked(prefix, digest));\n        return ECDSA.recover(prefixedHash, signature);\n    }\n}\n",
  "sourcePath": "/home/toor/nodejs/truffle/nft_demo/taudefi/taudefi-nft/contracts/TaureumERC721LazyMint.sol",
  "compiler": {
    "name": "solc",
    "version": "0.8.4+commit.c7e474f2.Emscripten.clang"
  },
  "schemaVersion": "3.4.1",
  "updatedAt": "2021-07-29T10:05:48.057Z",
  "devdoc": {
    "events": {
      "Redeem(address,address,string,bytes)": {
        "details": "Emitted when a pending token is redeemed in the lazy-minting protocol."
      }
    },
    "kind": "dev",
    "methods": {
      "approve(address,uint256)": {
        "details": "See {IERC721-approve}."
      },
      "balanceOf(address)": {
        "details": "See {IERC721-balanceOf}."
      },
      "baseURI()": {
        "details": "Returns `__baseURI`."
      },
      "constructor": {
        "details": "Create a new TaureumNFTLazyMint contract and and assign `DEFAULT_ADMIN_ROLE, MINTER_ROLE` for the creator. This construction function should be called from an exchange."
      },
      "getApproved(uint256)": {
        "details": "See {IERC721-getApproved}."
      },
      "isApprovedForAll(address,address)": {
        "details": "See {IERC721-isApprovedForAll}."
      },
      "mint(address,string)": {
        "details": "Mint a new NFT.",
        "params": {
          "to": "The address that will own the minted NFT.",
          "uri": "The URI consists of metadata description of the minting NFT on the IPFS (without prefix)."
        }
      },
      "name()": {
        "details": "See {IERC721Metadata-name}."
      },
      "owner()": {
        "details": "Returns the address of the current owner."
      },
      "ownerOf(uint256)": {
        "details": "See {IERC721-ownerOf}."
      },
      "redeem(address,string,bytes)": {
        "details": "Implement a lazy minting mechanism in which the NFT-minting process is delayed until the first order is successful. This function should be handled by a smart contract which is allowed by the `minter`.",
        "params": {
          "redeemer": "The address that the minted NFT will be transferred to.",
          "signature": "The signature signed by `to` designating `msg.sender` to mint the NFT for it.",
          "uri": "The URI consists of metadata description of the minting NFT on the IPFS (without prefix)."
        }
      },
      "renounceOwnership()": {
        "details": "Leaves the contract without owner. It will not be possible to call `onlyOwner` functions anymore. Can only be called by the current owner. NOTE: Renouncing ownership will leave the contract without an owner, thereby removing any functionality that is only available to the owner."
      },
      "safeMint(address,string)": {
        "details": "Safely mint a new NFT.",
        "params": {
          "to": "The address that will own the minted NFT.",
          "uri": "The URI consists of metadata description of the minting NFT on the IPFS (without prefix)."
        }
      },
      "safeTransferFrom(address,address,uint256)": {
        "details": "See {IERC721-safeTransferFrom}."
      },
      "safeTransferFrom(address,address,uint256,bytes)": {
        "details": "See {IERC721-safeTransferFrom}."
      },
      "setApprovalForAll(address,bool)": {
        "details": "See {IERC721-setApprovalForAll}."
      },
      "setBaseURI(string)": {
        "details": "Sets new value for the `__baseURI`. This operation can only been done by the owner of this contract."
      },
      "supportsInterface(bytes4)": {
        "details": "See {IERC165-supportsInterface}."
      },
      "symbol()": {
        "details": "See {IERC721Metadata-symbol}."
      },
      "tokenByIndex(uint256)": {
        "details": "See {IERC721Enumerable-tokenByIndex}."
      },
      "tokenOfOwnerByIndex(address,uint256)": {
        "details": "See {IERC721Enumerable-tokenOfOwnerByIndex}."
      },
      "tokenURI(uint256)": {
        "details": "See {IERC721Metadata-tokenURI}."
      },
      "totalSupply()": {
        "details": "See {IERC721Enumerable-totalSupply}."
      },
      "transferFrom(address,address,uint256)": {
        "details": "See {IERC721-transferFrom}."
      },
      "transferOwnership(address)": {
        "details": "Transfers ownership of the contract to a new account (`newOwner`). Can only be called by the current owner."
      }
    },
    "version": 1
  },
  "userdoc": {
    "kind": "user",
    "methods": {
      "mint(address,string)": {
        "notice": "It throws an exception if    - `to` is a \"ZERO_ADDRESS."
      },
      "redeem(address,string,bytes)": {
        "notice": "It throws if      - `msg.sender` is not the `minter` or has not been approved by the `minter`.      - redeem data and signature are not valid.      - if the redeemer is a contract and it cannot receive the NFT."
      },
      "safeMint(address,string)": {
        "notice": "It throws an exception if    - `to` is a \"ZERO_ADDRESS.    - If `to` refers to a smart contract, it must implement {IERC721Receiver-onERC721Received}, which is called upon a safe transfer."
      }
    },
    "version": 1
  }
}