{
  "contractName": "TaureumERC721",
  "abi": [
    {
      "inputs": [],
      "stateMutability": "nonpayable",
      "type": "constructor"
    },
    {
      "anonymous": false,
      "inputs": [
        {
          "indexed": true,
          "internalType": "address",
          "name": "owner",
          "type": "address"
        },
        {
          "indexed": true,
          "internalType": "address",
          "name": "approved",
          "type": "address"
        },
        {
          "indexed": true,
          "internalType": "uint256",
          "name": "tokenId",
          "type": "uint256"
        }
      ],
      "name": "Approval",
      "type": "event"
    },
    {
      "anonymous": false,
      "inputs": [
        {
          "indexed": true,
          "internalType": "address",
          "name": "owner",
          "type": "address"
        },
        {
          "indexed": true,
          "internalType": "address",
          "name": "operator",
          "type": "address"
        },
        {
          "indexed": false,
          "internalType": "bool",
          "name": "approved",
          "type": "bool"
        }
      ],
      "name": "ApprovalForAll",
      "type": "event"
    },
    {
      "anonymous": false,
      "inputs": [
        {
          "indexed": true,
          "internalType": "address",
          "name": "from",
          "type": "address"
        },
        {
          "indexed": true,
          "internalType": "address",
          "name": "to",
          "type": "address"
        },
        {
          "indexed": true,
          "internalType": "uint256",
          "name": "tokenId",
          "type": "uint256"
        }
      ],
      "name": "Transfer",
      "type": "event"
    },
    {
      "inputs": [
        {
          "internalType": "address",
          "name": "to",
          "type": "address"
        },
        {
          "internalType": "uint256",
          "name": "tokenId",
          "type": "uint256"
        }
      ],
      "name": "approve",
      "outputs": [],
      "stateMutability": "nonpayable",
      "type": "function"
    },
    {
      "inputs": [
        {
          "internalType": "address",
          "name": "owner",
          "type": "address"
        }
      ],
      "name": "balanceOf",
      "outputs": [
        {
          "internalType": "uint256",
          "name": "",
          "type": "uint256"
        }
      ],
      "stateMutability": "view",
      "type": "function"
    },
    {
      "inputs": [
        {
          "internalType": "uint256",
          "name": "tokenId",
          "type": "uint256"
        }
      ],
      "name": "getApproved",
      "outputs": [
        {
          "internalType": "address",
          "name": "",
          "type": "address"
        }
      ],
      "stateMutability": "view",
      "type": "function"
    },
    {
      "inputs": [
        {
          "internalType": "address",
          "name": "owner",
          "type": "address"
        },
        {
          "internalType": "address",
          "name": "operator",
          "type": "address"
        }
      ],
      "name": "isApprovedForAll",
      "outputs": [
        {
          "internalType": "bool",
          "name": "",
          "type": "bool"
        }
      ],
      "stateMutability": "view",
      "type": "function"
    },
    {
      "inputs": [],
      "name": "name",
      "outputs": [
        {
          "internalType": "string",
          "name": "",
          "type": "string"
        }
      ],
      "stateMutability": "view",
      "type": "function"
    },
    {
      "inputs": [
        {
          "internalType": "uint256",
          "name": "tokenId",
          "type": "uint256"
        }
      ],
      "name": "ownerOf",
      "outputs": [
        {
          "internalType": "address",
          "name": "",
          "type": "address"
        }
      ],
      "stateMutability": "view",
      "type": "function"
    },
    {
      "inputs": [
        {
          "internalType": "address",
          "name": "from",
          "type": "address"
        },
        {
          "internalType": "address",
          "name": "to",
          "type": "address"
        },
        {
          "internalType": "uint256",
          "name": "tokenId",
          "type": "uint256"
        }
      ],
      "name": "safeTransferFrom",
      "outputs": [],
      "stateMutability": "nonpayable",
      "type": "function"
    },
    {
      "inputs": [
        {
          "internalType": "address",
          "name": "from",
          "type": "address"
        },
        {
          "internalType": "address",
          "name": "to",
          "type": "address"
        },
        {
          "internalType": "uint256",
          "name": "tokenId",
          "type": "uint256"
        },
        {
          "internalType": "bytes",
          "name": "_data",
          "type": "bytes"
        }
      ],
      "name": "safeTransferFrom",
      "outputs": [],
      "stateMutability": "nonpayable",
      "type": "function"
    },
    {
      "inputs": [
        {
          "internalType": "address",
          "name": "operator",
          "type": "address"
        },
        {
          "internalType": "bool",
          "name": "approved",
          "type": "bool"
        }
      ],
      "name": "setApprovalForAll",
      "outputs": [],
      "stateMutability": "nonpayable",
      "type": "function"
    },
    {
      "inputs": [
        {
          "internalType": "bytes4",
          "name": "interfaceId",
          "type": "bytes4"
        }
      ],
      "name": "supportsInterface",
      "outputs": [
        {
          "internalType": "bool",
          "name": "",
          "type": "bool"
        }
      ],
      "stateMutability": "view",
      "type": "function"
    },
    {
      "inputs": [],
      "name": "symbol",
      "outputs": [
        {
          "internalType": "string",
          "name": "",
          "type": "string"
        }
      ],
      "stateMutability": "view",
      "type": "function"
    },
    {
      "inputs": [
        {
          "internalType": "address",
          "name": "from",
          "type": "address"
        },
        {
          "internalType": "address",
          "name": "to",
          "type": "address"
        },
        {
          "internalType": "uint256",
          "name": "tokenId",
          "type": "uint256"
        }
      ],
      "name": "transferFrom",
      "outputs": [],
      "stateMutability": "nonpayable",
      "type": "function"
    },
    {
      "inputs": [
        {
          "internalType": "address",
          "name": "to",
          "type": "address"
        },
        {
          "internalType": "string",
          "name": "uri",
          "type": "string"
        }
      ],
      "name": "safeMint",
      "outputs": [
        {
          "internalType": "uint256",
          "name": "",
          "type": "uint256"
        }
      ],
      "stateMutability": "nonpayable",
      "type": "function"
    },
    {
      "inputs": [
        {
          "internalType": "address",
          "name": "to",
          "type": "address"
        },
        {
          "internalType": "string",
          "name": "uri",
          "type": "string"
        }
      ],
      "name": "mint",
      "outputs": [
        {
          "internalType": "uint256",
          "name": "",
          "type": "uint256"
        }
      ],
      "stateMutability": "nonpayable",
      "type": "function"
    },
    {
      "inputs": [
        {
          "internalType": "uint256",
          "name": "tokenId",
          "type": "uint256"
        }
      ],
      "name": "tokenURI",
      "outputs": [
        {
          "internalType": "string",
          "name": "",
          "type": "string"
        }
      ],
      "stateMutability": "view",
      "type": "function"
    }
  ],
  "bytecode": "0x60806040523480156200001157600080fd5b506040518060400160405280600e81526020017f5461757265756d204552433732310000000000000000000000000000000000008152506040518060400160405280600781526020017f5461757265756d00000000000000000000000000000000000000000000000000815250816000908051906020019062000096929190620000b8565b508060019080519060200190620000af929190620000b8565b505050620001cd565b828054620000c69062000168565b90600052602060002090601f016020900481019282620000ea576000855562000136565b82601f106200010557805160ff191683800117855562000136565b8280016001018555821562000136579182015b828111156200013557825182559160200191906001019062000118565b5b50905062000145919062000149565b5090565b5b80821115620001645760008160009055506001016200014a565b5090565b600060028204905060018216806200018157607f821691505b602082108114156200019857620001976200019e565b5b50919050565b7f4e487b7100000000000000000000000000000000000000000000000000000000600052602260045260246000fd5b61293980620001dd6000396000f3fe608060405234801561001057600080fd5b50600436106100f55760003560e01c806370a0823111610097578063c87b56dd11610066578063c87b56dd14610282578063d0def521146102b2578063d204c45e146102e2578063e985e9c514610312576100f5565b806370a08231146101fc57806395d89b411461022c578063a22cb4651461024a578063b88d4fde14610266576100f5565b8063095ea7b3116100d3578063095ea7b31461017857806323b872dd1461019457806342842e0e146101b05780636352211e146101cc576100f5565b806301ffc9a7146100fa57806306fdde031461012a578063081812fc14610148575b600080fd5b610114600480360381019061010f9190611ab6565b610342565b6040516101219190611f77565b60405180910390f35b610132610424565b60405161013f9190611f92565b60405180910390f35b610162600480360381019061015d9190611b08565b6104b6565b60405161016f9190611ede565b60405180910390f35b610192600480360381019061018d9190611a7a565b61053b565b005b6101ae60048036038101906101a9919061191c565b610653565b005b6101ca60048036038101906101c5919061191c565b6106b3565b005b6101e660048036038101906101e19190611b08565b6106d3565b6040516101f39190611ede565b60405180910390f35b610216600480360381019061021191906118b7565b610785565b6040516102239190612194565b60405180910390f35b61023461083d565b6040516102419190611f92565b60405180910390f35b610264600480360381019061025f91906119e6565b6108cf565b005b610280600480360381019061027b919061196b565b610a50565b005b61029c60048036038101906102979190611b08565b610ab2565b6040516102a99190611f92565b60405180910390f35b6102cc60048036038101906102c79190611a22565b610bef565b6040516102d99190612194565b60405180910390f35b6102fc60048036038101906102f79190611a22565b610c42565b6040516103099190612194565b60405180910390f35b61032c600480360381019061032791906118e0565b610c95565b6040516103399190611f77565b60405180910390f35b60007f80ac58cd000000000000000000000000000000000000000000000000000000007bffffffffffffffffffffffffffffffffffffffffffffffffffffffff1916827bffffffffffffffffffffffffffffffffffffffffffffffffffffffff1916148061040d57507f5b5e139f000000000000000000000000000000000000000000000000000000007bffffffffffffffffffffffffffffffffffffffffffffffffffffffff1916827bffffffffffffffffffffffffffffffffffffffffffffffffffffffff1916145b8061041d575061041c82610d29565b5b9050919050565b6060600080546104339061239d565b80601f016020809104026020016040519081016040528092919081815260200182805461045f9061239d565b80156104ac5780601f10610481576101008083540402835291602001916104ac565b820191906000526020600020905b81548152906001019060200180831161048f57829003601f168201915b5050505050905090565b60006104c182610d93565b610500576040517f08c379a00000000000000000000000000000000000000000000000000000000081526004016104f7906120d4565b60405180910390fd5b6004600083815260200190815260200160002060009054906101000a900473ffffffffffffffffffffffffffffffffffffffff169050919050565b6000610546826106d3565b90508073ffffffffffffffffffffffffffffffffffffffff168373ffffffffffffffffffffffffffffffffffffffff1614156105b7576040517f08c379a00000000000000000000000000000000000000000000000000000000081526004016105ae90612134565b60405180910390fd5b8073ffffffffffffffffffffffffffffffffffffffff166105d6610dff565b73ffffffffffffffffffffffffffffffffffffffff1614806106055750610604816105ff610dff565b610c95565b5b610644576040517f08c379a000000000000000000000000000000000000000000000000000000000815260040161063b90612054565b60405180910390fd5b61064e8383610e07565b505050565b61066461065e610dff565b82610ec0565b6106a3576040517f08c379a000000000000000000000000000000000000000000000000000000000815260040161069a90612154565b60405180910390fd5b6106ae838383610f9e565b505050565b6106ce83838360405180602001604052806000815250610a50565b505050565b6000806002600084815260200190815260200160002060009054906101000a900473ffffffffffffffffffffffffffffffffffffffff169050600073ffffffffffffffffffffffffffffffffffffffff168173ffffffffffffffffffffffffffffffffffffffff16141561077c576040517f08c379a000000000000000000000000000000000000000000000000000000000815260040161077390612094565b60405180910390fd5b80915050919050565b60008073ffffffffffffffffffffffffffffffffffffffff168273ffffffffffffffffffffffffffffffffffffffff1614156107f6576040517f08c379a00000000000000000000000000000000000000000000000000000000081526004016107ed90612074565b60405180910390fd5b600360008373ffffffffffffffffffffffffffffffffffffffff1673ffffffffffffffffffffffffffffffffffffffff168152602001908152602001600020549050919050565b60606001805461084c9061239d565b80601f01602080910402602001604051908101604052809291908181526020018280546108789061239d565b80156108c55780601f1061089a576101008083540402835291602001916108c5565b820191906000526020600020905b8154815290600101906020018083116108a857829003601f168201915b5050505050905090565b6108d7610dff565b73ffffffffffffffffffffffffffffffffffffffff168273ffffffffffffffffffffffffffffffffffffffff161415610945576040517f08c379a000000000000000000000000000000000000000000000000000000000815260040161093c90612014565b60405180910390fd5b8060056000610952610dff565b73ffffffffffffffffffffffffffffffffffffffff1673ffffffffffffffffffffffffffffffffffffffff16815260200190815260200160002060008473ffffffffffffffffffffffffffffffffffffffff1673ffffffffffffffffffffffffffffffffffffffff16815260200190815260200160002060006101000a81548160ff0219169083151502179055508173ffffffffffffffffffffffffffffffffffffffff166109ff610dff565b73ffffffffffffffffffffffffffffffffffffffff167f17307eab39ab6107e8899845ad3d59bd9653f200f220920489ca2b5937696c3183604051610a449190611f77565b60405180910390a35050565b610a61610a5b610dff565b83610ec0565b610aa0576040517f08c379a0000000000000000000000000000000000000000000000000000000008152600401610a9790612154565b60405180910390fd5b610aac848484846111fa565b50505050565b6060610abd82610d93565b610afc576040517f08c379a0000000000000000000000000000000000000000000000000000000008152600401610af390612114565b60405180910390fd5b6000610b06611256565b90506000815111610bb257600660008481526020019081526020016000208054610b2f9061239d565b80601f0160208091040260200160405190810160405280929190818152602001828054610b5b9061239d565b8015610ba85780601f10610b7d57610100808354040283529160200191610ba8565b820191906000526020600020905b815481529060010190602001808311610b8b57829003601f168201915b5050505050610be7565b8060066000858152602001908152602001600020604051602001610bd7929190611eba565b6040516020818303038152906040525b915050919050565b600080848484604051602001610c0793929190611f45565b6040516020818303038152906040528051906020012060001c9050610c2c8582611293565b610c37818585611461565b809150509392505050565b600080848484604051602001610c5a93929190611f45565b6040516020818303038152906040528051906020012060001c9050610c7f85826114d1565b610c8a818585611461565b809150509392505050565b6000600560008473ffffffffffffffffffffffffffffffffffffffff1673ffffffffffffffffffffffffffffffffffffffff16815260200190815260200160002060008373ffffffffffffffffffffffffffffffffffffffff1673ffffffffffffffffffffffffffffffffffffffff16815260200190815260200160002060009054906101000a900460ff16905092915050565b60007f01ffc9a7000000000000000000000000000000000000000000000000000000007bffffffffffffffffffffffffffffffffffffffffffffffffffffffff1916827bffffffffffffffffffffffffffffffffffffffffffffffffffffffff1916149050919050565b60008073ffffffffffffffffffffffffffffffffffffffff166002600084815260200190815260200160002060009054906101000a900473ffffffffffffffffffffffffffffffffffffffff1673ffffffffffffffffffffffffffffffffffffffff1614159050919050565b600033905090565b816004600083815260200190815260200160002060006101000a81548173ffffffffffffffffffffffffffffffffffffffff021916908373ffffffffffffffffffffffffffffffffffffffff160217905550808273ffffffffffffffffffffffffffffffffffffffff16610e7a836106d3565b73ffffffffffffffffffffffffffffffffffffffff167f8c5be1e5ebec7d5bd14f71427d1e84f3dd0314c0f7b2291e5b200ac8c7c3b92560405160405180910390a45050565b6000610ecb82610d93565b610f0a576040517f08c379a0000000000000000000000000000000000000000000000000000000008152600401610f0190612034565b60405180910390fd5b6000610f15836106d3565b90508073ffffffffffffffffffffffffffffffffffffffff168473ffffffffffffffffffffffffffffffffffffffff161480610f8457508373ffffffffffffffffffffffffffffffffffffffff16610f6c846104b6565b73ffffffffffffffffffffffffffffffffffffffff16145b80610f955750610f948185610c95565b5b91505092915050565b8273ffffffffffffffffffffffffffffffffffffffff16610fbe826106d3565b73ffffffffffffffffffffffffffffffffffffffff1614611014576040517f08c379a000000000000000000000000000000000000000000000000000000000815260040161100b906120f4565b60405180910390fd5b600073ffffffffffffffffffffffffffffffffffffffff168273ffffffffffffffffffffffffffffffffffffffff161415611084576040517f08c379a000000000000000000000000000000000000000000000000000000000815260040161107b90611ff4565b60405180910390fd5b61108f8383836114ef565b61109a600082610e07565b6001600360008573ffffffffffffffffffffffffffffffffffffffff1673ffffffffffffffffffffffffffffffffffffffff16815260200190815260200160002060008282546110ea91906122b3565b925050819055506001600360008473ffffffffffffffffffffffffffffffffffffffff1673ffffffffffffffffffffffffffffffffffffffff1681526020019081526020016000206000828254611141919061225d565b92505081905550816002600083815260200190815260200160002060006101000a81548173ffffffffffffffffffffffffffffffffffffffff021916908373ffffffffffffffffffffffffffffffffffffffff160217905550808273ffffffffffffffffffffffffffffffffffffffff168473ffffffffffffffffffffffffffffffffffffffff167fddf252ad1be2c89b69c2b068fc378daa952ba7f163c4a11628f55a4df523b3ef60405160405180910390a4505050565b611205848484610f9e565b611211848484846114f4565b611250576040517f08c379a000000000000000000000000000000000000000000000000000000000815260040161124790611fb4565b60405180910390fd5b50505050565b60606040518060400160405280600781526020017f697066733a2f2f00000000000000000000000000000000000000000000000000815250905090565b600073ffffffffffffffffffffffffffffffffffffffff168273ffffffffffffffffffffffffffffffffffffffff161415611303576040517f08c379a00000000000000000000000000000000000000000000000000000000081526004016112fa906120b4565b60405180910390fd5b61130c81610d93565b1561134c576040517f08c379a000000000000000000000000000000000000000000000000000000000815260040161134390611fd4565b60405180910390fd5b611358600083836114ef565b6001600360008473ffffffffffffffffffffffffffffffffffffffff1673ffffffffffffffffffffffffffffffffffffffff16815260200190815260200160002060008282546113a8919061225d565b92505081905550816002600083815260200190815260200160002060006101000a81548173ffffffffffffffffffffffffffffffffffffffff021916908373ffffffffffffffffffffffffffffffffffffffff160217905550808273ffffffffffffffffffffffffffffffffffffffff16600073ffffffffffffffffffffffffffffffffffffffff167fddf252ad1be2c89b69c2b068fc378daa952ba7f163c4a11628f55a4df523b3ef60405160405180910390a45050565b61146a83610d93565b6114a9576040517f08c379a00000000000000000000000000000000000000000000000000000000081526004016114a090612174565b60405180910390fd5b81816006600086815260200190815260200160002091906114cb9291906116f9565b50505050565b6114eb82826040518060200160405280600081525061168b565b5050565b505050565b60006115158473ffffffffffffffffffffffffffffffffffffffff166116e6565b1561167e578373ffffffffffffffffffffffffffffffffffffffff1663150b7a0261153e610dff565b8786866040518563ffffffff1660e01b81526004016115609493929190611ef9565b602060405180830381600087803b15801561157a57600080fd5b505af19250505080156115ab57506040513d601f19601f820116820180604052508101906115a89190611adf565b60015b61162e573d80600081146115db576040519150601f19603f3d011682016040523d82523d6000602084013e6115e0565b606091505b50600081511415611626576040517f08c379a000000000000000000000000000000000000000000000000000000000815260040161161d90611fb4565b60405180910390fd5b805181602001fd5b63150b7a0260e01b7bffffffffffffffffffffffffffffffffffffffffffffffffffffffff1916817bffffffffffffffffffffffffffffffffffffffffffffffffffffffff191614915050611683565b600190505b949350505050565b6116958383611293565b6116a260008484846114f4565b6116e1576040517f08c379a00000000000000000000000000000000000000000000000000000000081526004016116d890611fb4565b60405180910390fd5b505050565b600080823b905060008111915050919050565b8280546117059061239d565b90600052602060002090601f016020900481019282611727576000855561176e565b82601f1061174057803560ff191683800117855561176e565b8280016001018555821561176e579182015b8281111561176d578235825591602001919060010190611752565b5b50905061177b919061177f565b5090565b5b80821115611798576000816000905550600101611780565b5090565b60006117af6117aa846121d4565b6121af565b9050828152602081018484840111156117c757600080fd5b6117d284828561235b565b509392505050565b6000813590506117e9816128a7565b92915050565b6000813590506117fe816128be565b92915050565b600081359050611813816128d5565b92915050565b600081519050611828816128d5565b92915050565b600082601f83011261183f57600080fd5b813561184f84826020860161179c565b91505092915050565b60008083601f84011261186a57600080fd5b8235905067ffffffffffffffff81111561188357600080fd5b60208301915083600182028301111561189b57600080fd5b9250929050565b6000813590506118b1816128ec565b92915050565b6000602082840312156118c957600080fd5b60006118d7848285016117da565b91505092915050565b600080604083850312156118f357600080fd5b6000611901858286016117da565b9250506020611912858286016117da565b9150509250929050565b60008060006060848603121561193157600080fd5b600061193f868287016117da565b9350506020611950868287016117da565b9250506040611961868287016118a2565b9150509250925092565b6000806000806080858703121561198157600080fd5b600061198f878288016117da565b94505060206119a0878288016117da565b93505060406119b1878288016118a2565b925050606085013567ffffffffffffffff8111156119ce57600080fd5b6119da8782880161182e565b91505092959194509250565b600080604083850312156119f957600080fd5b6000611a07858286016117da565b9250506020611a18858286016117ef565b9150509250929050565b600080600060408486031215611a3757600080fd5b6000611a45868287016117da565b935050602084013567ffffffffffffffff811115611a6257600080fd5b611a6e86828701611858565b92509250509250925092565b60008060408385031215611a8d57600080fd5b6000611a9b858286016117da565b9250506020611aac858286016118a2565b9150509250929050565b600060208284031215611ac857600080fd5b6000611ad684828501611804565b91505092915050565b600060208284031215611af157600080fd5b6000611aff84828501611819565b91505092915050565b600060208284031215611b1a57600080fd5b6000611b28848285016118a2565b91505092915050565b611b3a816122e7565b82525050565b611b49816122f9565b82525050565b6000611b5a8261221a565b611b648185612230565b9350611b7481856020860161236a565b611b7d8161248d565b840191505092915050565b6000611b948385612241565b9350611ba183858461235b565b611baa8361248d565b840190509392505050565b6000611bc082612225565b611bca8185612241565b9350611bda81856020860161236a565b611be38161248d565b840191505092915050565b6000611bf982612225565b611c038185612252565b9350611c1381856020860161236a565b80840191505092915050565b60008154611c2c8161239d565b611c368186612252565b94506001821660008114611c515760018114611c6257611c95565b60ff19831686528186019350611c95565b611c6b85612205565b60005b83811015611c8d57815481890152600182019150602081019050611c6e565b838801955050505b50505092915050565b6000611cab603283612241565b9150611cb68261249e565b604082019050919050565b6000611cce601c83612241565b9150611cd9826124ed565b602082019050919050565b6000611cf1602483612241565b9150611cfc82612516565b604082019050919050565b6000611d14601983612241565b9150611d1f82612565565b602082019050919050565b6000611d37602c83612241565b9150611d428261258e565b604082019050919050565b6000611d5a603883612241565b9150611d65826125dd565b604082019050919050565b6000611d7d602a83612241565b9150611d888261262c565b604082019050919050565b6000611da0602983612241565b9150611dab8261267b565b604082019050919050565b6000611dc3602083612241565b9150611dce826126ca565b602082019050919050565b6000611de6602c83612241565b9150611df1826126f3565b604082019050919050565b6000611e09602983612241565b9150611e1482612742565b604082019050919050565b6000611e2c602f83612241565b9150611e3782612791565b604082019050919050565b6000611e4f602183612241565b9150611e5a826127e0565b604082019050919050565b6000611e72603183612241565b9150611e7d8261282f565b604082019050919050565b6000611e95601483612241565b9150611ea08261287e565b602082019050919050565b611eb481612351565b82525050565b6000611ec68285611bee565b9150611ed28284611c1f565b91508190509392505050565b6000602082019050611ef36000830184611b31565b92915050565b6000608082019050611f0e6000830187611b31565b611f1b6020830186611b31565b611f286040830185611eab565b8181036060830152611f3a8184611b4f565b905095945050505050565b6000604082019050611f5a6000830186611b31565b8181036020830152611f6d818486611b88565b9050949350505050565b6000602082019050611f8c6000830184611b40565b92915050565b60006020820190508181036000830152611fac8184611bb5565b905092915050565b60006020820190508181036000830152611fcd81611c9e565b9050919050565b60006020820190508181036000830152611fed81611cc1565b9050919050565b6000602082019050818103600083015261200d81611ce4565b9050919050565b6000602082019050818103600083015261202d81611d07565b9050919050565b6000602082019050818103600083015261204d81611d2a565b9050919050565b6000602082019050818103600083015261206d81611d4d565b9050919050565b6000602082019050818103600083015261208d81611d70565b9050919050565b600060208201905081810360008301526120ad81611d93565b9050919050565b600060208201905081810360008301526120cd81611db6565b9050919050565b600060208201905081810360008301526120ed81611dd9565b9050919050565b6000602082019050818103600083015261210d81611dfc565b9050919050565b6000602082019050818103600083015261212d81611e1f565b9050919050565b6000602082019050818103600083015261214d81611e42565b9050919050565b6000602082019050818103600083015261216d81611e65565b9050919050565b6000602082019050818103600083015261218d81611e88565b9050919050565b60006020820190506121a96000830184611eab565b92915050565b60006121b96121ca565b90506121c582826123cf565b919050565b6000604051905090565b600067ffffffffffffffff8211156121ef576121ee61245e565b5b6121f88261248d565b9050602081019050919050565b60008190508160005260206000209050919050565b600081519050919050565b600081519050919050565b600082825260208201905092915050565b600082825260208201905092915050565b600081905092915050565b600061226882612351565b915061227383612351565b9250827fffffffffffffffffffffffffffffffffffffffffffffffffffffffffffffffff038211156122a8576122a7612400565b5b828201905092915050565b60006122be82612351565b91506122c983612351565b9250828210156122dc576122db612400565b5b828203905092915050565b60006122f282612331565b9050919050565b60008115159050919050565b60007fffffffff0000000000000000000000000000000000000000000000000000000082169050919050565b600073ffffffffffffffffffffffffffffffffffffffff82169050919050565b6000819050919050565b82818337600083830152505050565b60005b8381101561238857808201518184015260208101905061236d565b83811115612397576000848401525b50505050565b600060028204905060018216806123b557607f821691505b602082108114156123c9576123c861242f565b5b50919050565b6123d88261248d565b810181811067ffffffffffffffff821117156123f7576123f661245e565b5b80604052505050565b7f4e487b7100000000000000000000000000000000000000000000000000000000600052601160045260246000fd5b7f4e487b7100000000000000000000000000000000000000000000000000000000600052602260045260246000fd5b7f4e487b7100000000000000000000000000000000000000000000000000000000600052604160045260246000fd5b6000601f19601f8301169050919050565b7f4552433732313a207472616e7366657220746f206e6f6e20455243373231526560008201527f63656976657220696d706c656d656e7465720000000000000000000000000000602082015250565b7f4552433732313a20746f6b656e20616c7265616479206d696e74656400000000600082015250565b7f4552433732313a207472616e7366657220746f20746865207a65726f2061646460008201527f7265737300000000000000000000000000000000000000000000000000000000602082015250565b7f4552433732313a20617070726f766520746f2063616c6c657200000000000000600082015250565b7f4552433732313a206f70657261746f7220717565727920666f72206e6f6e657860008201527f697374656e7420746f6b656e0000000000000000000000000000000000000000602082015250565b7f4552433732313a20617070726f76652063616c6c6572206973206e6f74206f7760008201527f6e6572206e6f7220617070726f76656420666f7220616c6c0000000000000000602082015250565b7f4552433732313a2062616c616e636520717565727920666f7220746865207a6560008201527f726f206164647265737300000000000000000000000000000000000000000000602082015250565b7f4552433732313a206f776e657220717565727920666f72206e6f6e657869737460008201527f656e7420746f6b656e0000000000000000000000000000000000000000000000602082015250565b7f4552433732313a206d696e7420746f20746865207a65726f2061646472657373600082015250565b7f4552433732313a20617070726f76656420717565727920666f72206e6f6e657860008201527f697374656e7420746f6b656e0000000000000000000000000000000000000000602082015250565b7f4552433732313a207472616e73666572206f6620746f6b656e2074686174206960008201527f73206e6f74206f776e0000000000000000000000000000000000000000000000602082015250565b7f4552433732314d657461646174613a2055524920717565727920666f72206e6f60008201527f6e6578697374656e7420746f6b656e0000000000000000000000000000000000602082015250565b7f4552433732313a20617070726f76616c20746f2063757272656e74206f776e6560008201527f7200000000000000000000000000000000000000000000000000000000000000602082015250565b7f4552433732313a207472616e736665722063616c6c6572206973206e6f74206f60008201527f776e6572206e6f7220617070726f766564000000000000000000000000000000602082015250565b7f544f4b454e5f49445f4e4f545f45584953544544000000000000000000000000600082015250565b6128b0816122e7565b81146128bb57600080fd5b50565b6128c7816122f9565b81146128d257600080fd5b50565b6128de81612305565b81146128e957600080fd5b50565b6128f581612351565b811461290057600080fd5b5056fea26469706673582212201dd117068935fd1f71158a5d45fbb12a768d571699064292c49e134e28971bdc64736f6c63430008040033",
  "immutableReferences": {},
  "source": "// SPDX-License-Identifier: UNLICENSED\n\npragma solidity 0.8.4;\n\nimport \"./lib/token/ERC721/ERC721.sol\";\nimport \"./lib/access/AccessControl.sol\";\n\ncontract TaureumERC721 is ERC721 {\n    /**\n     * @dev Mapping from NFT ID to metadata uri.\n     */\n    mapping(uint256 => string) internal idToUri;\n\n    /**\n     * @dev Create a new TaureumERC721 contract.\n     *\n     * TODO: change the default name and symbol.\n     */\n    constructor() ERC721(\"Taureum ERC721\", \"Taureum\") {}\n\n    /**\n      * @dev Safely mint a new NFT.\n      * @notice It throws an exception if\n      *    - `to` is a \"ZERO_ADDRESS.\n      *    - If `to` refers to a smart contract, it must implement {IERC721Receiver-onERC721Received}, which is called upon a safe transfer.\n      * @param to The address that will own the minted NFT.\n      * @param uri The URI consists of metadata description of the minting NFT on the IPFS (without prefix).\n      */\n    function safeMint(\n        address to,\n        string calldata uri\n    )\n    public\n    returns (uint256)\n    {\n        uint256 id = uint256(keccak256(abi.encode(to, uri)));\n\n        _safeMint(to, id);\n        _setTokenUri(id, uri);\n\n        return id;\n    }\n\n    /**\n      * @dev Mint a new NFT.\n      * @notice It throws an exception if\n      *    - `to` is a \"ZERO_ADDRESS.\n      * @param to The address that will own the minted NFT.\n      * @param uri The URI consists of metadata description of the minting NFT on the IPFS (without prefix).\n      */\n    function mint(\n        address to,\n        string calldata uri\n    )\n    public\n    returns (uint256)\n    {\n        uint256 id = uint256(keccak256(abi.encode(to, uri)));\n\n        _mint(to, id);\n        _setTokenUri(id, uri);\n\n        return id;\n    }\n\n    /**\n     * @dev See {IERC721Metadata-tokenURI}.\n     */\n    function tokenURI(uint256 tokenId) public view virtual override returns (string memory) {\n        require(_exists(tokenId), \"ERC721Metadata: URI query for nonexistent token\");\n\n        string memory baseURI = _baseURI();\n        return bytes(baseURI).length > 0 ? string(abi.encodePacked(baseURI, idToUri[tokenId])) : idToUri[tokenId];\n    }\n\n    /**\n     * @dev Base URI for computing {tokenURI}. If set, the resulting URI for each\n     * token will be the concatenation of the `baseURI` and the `tokenId`.\n     */\n    function _baseURI() internal pure virtual override returns (string memory) {\n        return \"ipfs://\";\n    }\n\n    /**\n     * @dev Set a distinct URI (RFC 3986) for a given NFT ID.\n     * @notice This is an internal function which should be called from user-implemented external\n     * function.\n     * @notice It throws an exception if the _tokenId does not exist.\n     * @param _tokenId Id for which we want URI.\n     * @param _uri String representing RFC 3986 URI.\n     */\n    function _setTokenUri(\n        uint256 _tokenId,\n        string calldata _uri\n    )\n    internal\n    {\n        require(_exists(_tokenId), \"TOKEN_ID_NOT_EXISTED\");\n        idToUri[_tokenId] = _uri;\n    }\n\n}\n",
  "sourcePath": "/home/toor/nodejs/truffle/nft_demo/taudefi/taudefi-nft/contracts/TaureumERC721.sol",
  "compiler": {
    "name": "solc",
    "version": "0.8.4+commit.c7e474f2.Emscripten.clang"
  },
  "schemaVersion": "3.4.1",
  "updatedAt": "2021-07-26T10:03:07.955Z",
  "devdoc": {
    "kind": "dev",
    "methods": {
      "approve(address,uint256)": {
        "details": "See {IERC721-approve}."
      },
      "balanceOf(address)": {
        "details": "See {IERC721-balanceOf}."
      },
      "constructor": {
        "details": "Create a new TaureumERC721 contract. TODO: change the default name and symbol."
      },
      "getApproved(uint256)": {
        "details": "See {IERC721-getApproved}."
      },
      "isApprovedForAll(address,address)": {
        "details": "See {IERC721-isApprovedForAll}."
      },
      "mint(address,string)": {
        "details": "Mint a new NFT.",
        "params": {
          "to": "The address that will own the minted NFT.",
          "uri": "The URI consists of metadata description of the minting NFT on the IPFS (without prefix)."
        }
      },
      "name()": {
        "details": "See {IERC721Metadata-name}."
      },
      "ownerOf(uint256)": {
        "details": "See {IERC721-ownerOf}."
      },
      "safeMint(address,string)": {
        "details": "Safely mint a new NFT.",
        "params": {
          "to": "The address that will own the minted NFT.",
          "uri": "The URI consists of metadata description of the minting NFT on the IPFS (without prefix)."
        }
      },
      "safeTransferFrom(address,address,uint256)": {
        "details": "See {IERC721-safeTransferFrom}."
      },
      "safeTransferFrom(address,address,uint256,bytes)": {
        "details": "See {IERC721-safeTransferFrom}."
      },
      "setApprovalForAll(address,bool)": {
        "details": "See {IERC721-setApprovalForAll}."
      },
      "supportsInterface(bytes4)": {
        "details": "See {IERC165-supportsInterface}."
      },
      "symbol()": {
        "details": "See {IERC721Metadata-symbol}."
      },
      "tokenURI(uint256)": {
        "details": "See {IERC721Metadata-tokenURI}."
      },
      "transferFrom(address,address,uint256)": {
        "details": "See {IERC721-transferFrom}."
      }
    },
    "stateVariables": {
      "idToUri": {
        "details": "Mapping from NFT ID to metadata uri."
      }
    },
    "version": 1
  },
  "userdoc": {
    "kind": "user",
    "methods": {
      "mint(address,string)": {
        "notice": "It throws an exception if    - `to` is a \"ZERO_ADDRESS."
      },
      "safeMint(address,string)": {
        "notice": "It throws an exception if    - `to` is a \"ZERO_ADDRESS.    - If `to` refers to a smart contract, it must implement {IERC721Receiver-onERC721Received}, which is called upon a safe transfer."
      }
    },
    "version": 1
  }
}