{
  "contractName": "TaureumERC721",
  "abi": [
    {
      "inputs": [],
      "stateMutability": "nonpayable",
      "type": "constructor"
    },
    {
      "anonymous": false,
      "inputs": [
        {
          "indexed": true,
          "internalType": "address",
          "name": "owner",
          "type": "address"
        },
        {
          "indexed": true,
          "internalType": "address",
          "name": "approved",
          "type": "address"
        },
        {
          "indexed": true,
          "internalType": "uint256",
          "name": "tokenId",
          "type": "uint256"
        }
      ],
      "name": "Approval",
      "type": "event"
    },
    {
      "anonymous": false,
      "inputs": [
        {
          "indexed": true,
          "internalType": "address",
          "name": "owner",
          "type": "address"
        },
        {
          "indexed": true,
          "internalType": "address",
          "name": "operator",
          "type": "address"
        },
        {
          "indexed": false,
          "internalType": "bool",
          "name": "approved",
          "type": "bool"
        }
      ],
      "name": "ApprovalForAll",
      "type": "event"
    },
    {
      "anonymous": false,
      "inputs": [
        {
          "indexed": true,
          "internalType": "address",
          "name": "previousOwner",
          "type": "address"
        },
        {
          "indexed": true,
          "internalType": "address",
          "name": "newOwner",
          "type": "address"
        }
      ],
      "name": "OwnershipTransferred",
      "type": "event"
    },
    {
      "anonymous": false,
      "inputs": [
        {
          "indexed": false,
          "internalType": "address",
          "name": "account",
          "type": "address"
        }
      ],
      "name": "Paused",
      "type": "event"
    },
    {
      "anonymous": false,
      "inputs": [
        {
          "indexed": true,
          "internalType": "address",
          "name": "from",
          "type": "address"
        },
        {
          "indexed": true,
          "internalType": "address",
          "name": "to",
          "type": "address"
        },
        {
          "indexed": true,
          "internalType": "uint256",
          "name": "tokenId",
          "type": "uint256"
        }
      ],
      "name": "Transfer",
      "type": "event"
    },
    {
      "anonymous": false,
      "inputs": [
        {
          "indexed": false,
          "internalType": "address",
          "name": "account",
          "type": "address"
        }
      ],
      "name": "Unpaused",
      "type": "event"
    },
    {
      "inputs": [
        {
          "internalType": "address",
          "name": "to",
          "type": "address"
        },
        {
          "internalType": "uint256",
          "name": "tokenId",
          "type": "uint256"
        }
      ],
      "name": "approve",
      "outputs": [],
      "stateMutability": "nonpayable",
      "type": "function"
    },
    {
      "inputs": [
        {
          "internalType": "address",
          "name": "owner",
          "type": "address"
        }
      ],
      "name": "balanceOf",
      "outputs": [
        {
          "internalType": "uint256",
          "name": "",
          "type": "uint256"
        }
      ],
      "stateMutability": "view",
      "type": "function",
      "constant": true
    },
    {
      "inputs": [
        {
          "internalType": "uint256",
          "name": "tokenId",
          "type": "uint256"
        }
      ],
      "name": "getApproved",
      "outputs": [
        {
          "internalType": "address",
          "name": "",
          "type": "address"
        }
      ],
      "stateMutability": "view",
      "type": "function",
      "constant": true
    },
    {
      "inputs": [
        {
          "internalType": "address",
          "name": "owner",
          "type": "address"
        },
        {
          "internalType": "address",
          "name": "operator",
          "type": "address"
        }
      ],
      "name": "isApprovedForAll",
      "outputs": [
        {
          "internalType": "bool",
          "name": "",
          "type": "bool"
        }
      ],
      "stateMutability": "view",
      "type": "function",
      "constant": true
    },
    {
      "inputs": [],
      "name": "name",
      "outputs": [
        {
          "internalType": "string",
          "name": "",
          "type": "string"
        }
      ],
      "stateMutability": "view",
      "type": "function",
      "constant": true
    },
    {
      "inputs": [],
      "name": "owner",
      "outputs": [
        {
          "internalType": "address",
          "name": "",
          "type": "address"
        }
      ],
      "stateMutability": "view",
      "type": "function",
      "constant": true
    },
    {
      "inputs": [
        {
          "internalType": "uint256",
          "name": "tokenId",
          "type": "uint256"
        }
      ],
      "name": "ownerOf",
      "outputs": [
        {
          "internalType": "address",
          "name": "",
          "type": "address"
        }
      ],
      "stateMutability": "view",
      "type": "function",
      "constant": true
    },
    {
      "inputs": [],
      "name": "paused",
      "outputs": [
        {
          "internalType": "bool",
          "name": "",
          "type": "bool"
        }
      ],
      "stateMutability": "view",
      "type": "function",
      "constant": true
    },
    {
      "inputs": [],
      "name": "renounceOwnership",
      "outputs": [],
      "stateMutability": "nonpayable",
      "type": "function"
    },
    {
      "inputs": [
        {
          "internalType": "address",
          "name": "from",
          "type": "address"
        },
        {
          "internalType": "address",
          "name": "to",
          "type": "address"
        },
        {
          "internalType": "uint256",
          "name": "tokenId",
          "type": "uint256"
        }
      ],
      "name": "safeTransferFrom",
      "outputs": [],
      "stateMutability": "nonpayable",
      "type": "function"
    },
    {
      "inputs": [
        {
          "internalType": "address",
          "name": "from",
          "type": "address"
        },
        {
          "internalType": "address",
          "name": "to",
          "type": "address"
        },
        {
          "internalType": "uint256",
          "name": "tokenId",
          "type": "uint256"
        },
        {
          "internalType": "bytes",
          "name": "_data",
          "type": "bytes"
        }
      ],
      "name": "safeTransferFrom",
      "outputs": [],
      "stateMutability": "nonpayable",
      "type": "function"
    },
    {
      "inputs": [
        {
          "internalType": "address",
          "name": "operator",
          "type": "address"
        },
        {
          "internalType": "bool",
          "name": "approved",
          "type": "bool"
        }
      ],
      "name": "setApprovalForAll",
      "outputs": [],
      "stateMutability": "nonpayable",
      "type": "function"
    },
    {
      "inputs": [
        {
          "internalType": "bytes4",
          "name": "interfaceId",
          "type": "bytes4"
        }
      ],
      "name": "supportsInterface",
      "outputs": [
        {
          "internalType": "bool",
          "name": "",
          "type": "bool"
        }
      ],
      "stateMutability": "view",
      "type": "function",
      "constant": true
    },
    {
      "inputs": [],
      "name": "symbol",
      "outputs": [
        {
          "internalType": "string",
          "name": "",
          "type": "string"
        }
      ],
      "stateMutability": "view",
      "type": "function",
      "constant": true
    },
    {
      "inputs": [
        {
          "internalType": "address",
          "name": "from",
          "type": "address"
        },
        {
          "internalType": "address",
          "name": "to",
          "type": "address"
        },
        {
          "internalType": "uint256",
          "name": "tokenId",
          "type": "uint256"
        }
      ],
      "name": "transferFrom",
      "outputs": [],
      "stateMutability": "nonpayable",
      "type": "function"
    },
    {
      "inputs": [
        {
          "internalType": "address",
          "name": "newOwner",
          "type": "address"
        }
      ],
      "name": "transferOwnership",
      "outputs": [],
      "stateMutability": "nonpayable",
      "type": "function"
    },
    {
      "inputs": [],
      "name": "pause",
      "outputs": [],
      "stateMutability": "nonpayable",
      "type": "function"
    },
    {
      "inputs": [],
      "name": "unPause",
      "outputs": [],
      "stateMutability": "nonpayable",
      "type": "function"
    },
    {
      "inputs": [
        {
          "internalType": "address",
          "name": "to",
          "type": "address"
        },
        {
          "internalType": "string",
          "name": "uri",
          "type": "string"
        }
      ],
      "name": "safeMint",
      "outputs": [
        {
          "internalType": "uint256",
          "name": "",
          "type": "uint256"
        }
      ],
      "stateMutability": "nonpayable",
      "type": "function"
    },
    {
      "inputs": [
        {
          "internalType": "address",
          "name": "to",
          "type": "address"
        },
        {
          "internalType": "string",
          "name": "uri",
          "type": "string"
        }
      ],
      "name": "mint",
      "outputs": [
        {
          "internalType": "uint256",
          "name": "",
          "type": "uint256"
        }
      ],
      "stateMutability": "nonpayable",
      "type": "function"
    },
    {
      "inputs": [
        {
          "internalType": "uint256",
          "name": "tokenId",
          "type": "uint256"
        }
      ],
      "name": "tokenURI",
      "outputs": [
        {
          "internalType": "string",
          "name": "",
          "type": "string"
        }
      ],
      "stateMutability": "view",
      "type": "function",
      "constant": true
    },
    {
      "inputs": [
        {
          "internalType": "string",
          "name": "newBaseURI",
          "type": "string"
        }
      ],
      "name": "setBaseURI",
      "outputs": [],
      "stateMutability": "nonpayable",
      "type": "function"
    },
    {
      "inputs": [],
      "name": "baseURI",
      "outputs": [
        {
          "internalType": "string",
          "name": "",
          "type": "string"
        }
      ],
      "stateMutability": "view",
      "type": "function",
      "constant": true
    }
  ],
  "bytecode": "0x60806040523480156200001157600080fd5b506040518060400160405280600e81526020017f5461757265756d204552433732310000000000000000000000000000000000008152506040518060400160405280600781526020017f5461757265756d00000000000000000000000000000000000000000000000000815250816000908051906020019062000096929190620001b4565b508060019080519060200190620000af929190620001b4565b5050506000600660006101000a81548160ff0219169083151502179055506000620000df620001ac60201b60201c565b905080600660016101000a81548173ffffffffffffffffffffffffffffffffffffffff021916908373ffffffffffffffffffffffffffffffffffffffff1602179055508073ffffffffffffffffffffffffffffffffffffffff16600073ffffffffffffffffffffffffffffffffffffffff167f8be0079c531659141344cd1fd0a4f28419497f9722a3daafe3b4186f6b6457e060405160405180910390a3506040518060200160405280600081525060089080519060200190620001a5929190620001b4565b50620002c9565b600033905090565b828054620001c29062000264565b90600052602060002090601f016020900481019282620001e6576000855562000232565b82601f106200020157805160ff191683800117855562000232565b8280016001018555821562000232579182015b828111156200023157825182559160200191906001019062000214565b5b50905062000241919062000245565b5090565b5b808211156200026057600081600090555060010162000246565b5090565b600060028204905060018216806200027d57607f821691505b602082108114156200029457620002936200029a565b5b50919050565b7f4e487b7100000000000000000000000000000000000000000000000000000000600052602260045260246000fd5b6134df80620002d96000396000f3fe608060405234801561001057600080fd5b506004361061014d5760003560e01c8063715018a6116100c3578063c87b56dd1161007c578063c87b56dd14610364578063d0def52114610394578063d204c45e146103c4578063e985e9c5146103f4578063f2fde38b14610424578063f7b188a5146104405761014d565b8063715018a6146102dc5780638456cb59146102e65780638da5cb5b146102f057806395d89b411461030e578063a22cb4651461032c578063b88d4fde146103485761014d565b806342842e0e1161011557806342842e0e1461020857806355f804b3146102245780635c975abb146102405780636352211e1461025e5780636c0360eb1461028e57806370a08231146102ac5761014d565b806301ffc9a71461015257806306fdde0314610182578063081812fc146101a0578063095ea7b3146101d057806323b872dd146101ec575b600080fd5b61016c600480360381019061016791906123b3565b61044a565b6040516101799190612933565b60405180910390f35b61018a61052c565b604051610197919061294e565b60405180910390f35b6101ba60048036038101906101b59190612446565b6105be565b6040516101c7919061289a565b60405180910390f35b6101ea60048036038101906101e59190612377565b610643565b005b61020660048036038101906102019190612219565b61075b565b005b610222600480360381019061021d9190612219565b6107bb565b005b61023e60048036038101906102399190612405565b6107db565b005b6102486108b9565b6040516102559190612933565b60405180910390f35b61027860048036038101906102739190612446565b6108d0565b604051610285919061289a565b60405180910390f35b610296610982565b6040516102a3919061294e565b60405180910390f35b6102c660048036038101906102c191906121b4565b610a14565b6040516102d39190612bf0565b60405180910390f35b6102e4610acc565b005b6102ee610c09565b005b6102f8610c8f565b604051610305919061289a565b60405180910390f35b610316610cb9565b604051610323919061294e565b60405180910390f35b610346600480360381019061034191906122e3565b610d4b565b005b610362600480360381019061035d9190612268565b610ecc565b005b61037e60048036038101906103799190612446565b610f2e565b60405161038b919061294e565b60405180910390f35b6103ae60048036038101906103a9919061231f565b61106c565b6040516103bb9190612bf0565b60405180910390f35b6103de60048036038101906103d9919061231f565b6110bf565b6040516103eb9190612bf0565b60405180910390f35b61040e600480360381019061040991906121dd565b611112565b60405161041b9190612933565b60405180910390f35b61043e600480360381019061043991906121b4565b6111a6565b005b610448611352565b005b60007f80ac58cd000000000000000000000000000000000000000000000000000000007bffffffffffffffffffffffffffffffffffffffffffffffffffffffff1916827bffffffffffffffffffffffffffffffffffffffffffffffffffffffff1916148061051557507f5b5e139f000000000000000000000000000000000000000000000000000000007bffffffffffffffffffffffffffffffffffffffffffffffffffffffff1916827bffffffffffffffffffffffffffffffffffffffffffffffffffffffff1916145b806105255750610524826113d8565b5b9050919050565b60606000805461053b90612e2a565b80601f016020809104026020016040519081016040528092919081815260200182805461056790612e2a565b80156105b45780601f10610589576101008083540402835291602001916105b4565b820191906000526020600020905b81548152906001019060200180831161059757829003601f168201915b5050505050905090565b60006105c982611442565b610608576040517f08c379a00000000000000000000000000000000000000000000000000000000081526004016105ff90612b10565b60405180910390fd5b6004600083815260200190815260200160002060009054906101000a900473ffffffffffffffffffffffffffffffffffffffff169050919050565b600061064e826108d0565b90508073ffffffffffffffffffffffffffffffffffffffff168373ffffffffffffffffffffffffffffffffffffffff1614156106bf576040517f08c379a00000000000000000000000000000000000000000000000000000000081526004016106b690612b90565b60405180910390fd5b8073ffffffffffffffffffffffffffffffffffffffff166106de6114ae565b73ffffffffffffffffffffffffffffffffffffffff16148061070d575061070c816107076114ae565b611112565b5b61074c576040517f08c379a000000000000000000000000000000000000000000000000000000000815260040161074390612a90565b60405180910390fd5b61075683836114b6565b505050565b61076c6107666114ae565b8261156f565b6107ab576040517f08c379a00000000000000000000000000000000000000000000000000000000081526004016107a290612bb0565b60405180910390fd5b6107b683838361164d565b505050565b6107d683838360405180602001604052806000815250610ecc565b505050565b6107e36114ae565b73ffffffffffffffffffffffffffffffffffffffff16610801610c8f565b73ffffffffffffffffffffffffffffffffffffffff1614610857576040517f08c379a000000000000000000000000000000000000000000000000000000000815260040161084e90612b30565b60405180910390fd5b61085f6108b9565b1561089f576040517f08c379a000000000000000000000000000000000000000000000000000000000815260040161089690612a70565b60405180910390fd5b80600890805190602001906108b5929190611f08565b5050565b6000600660009054906101000a900460ff16905090565b6000806002600084815260200190815260200160002060009054906101000a900473ffffffffffffffffffffffffffffffffffffffff169050600073ffffffffffffffffffffffffffffffffffffffff168173ffffffffffffffffffffffffffffffffffffffff161415610979576040517f08c379a000000000000000000000000000000000000000000000000000000000815260040161097090612ad0565b60405180910390fd5b80915050919050565b60606008805461099190612e2a565b80601f01602080910402602001604051908101604052809291908181526020018280546109bd90612e2a565b8015610a0a5780601f106109df57610100808354040283529160200191610a0a565b820191906000526020600020905b8154815290600101906020018083116109ed57829003601f168201915b5050505050905090565b60008073ffffffffffffffffffffffffffffffffffffffff168273ffffffffffffffffffffffffffffffffffffffff161415610a85576040517f08c379a0000000000000000000000000000000000000000000000000000000008152600401610a7c90612ab0565b60405180910390fd5b600360008373ffffffffffffffffffffffffffffffffffffffff1673ffffffffffffffffffffffffffffffffffffffff168152602001908152602001600020549050919050565b610ad46114ae565b73ffffffffffffffffffffffffffffffffffffffff16610af2610c8f565b73ffffffffffffffffffffffffffffffffffffffff1614610b48576040517f08c379a0000000000000000000000000000000000000000000000000000000008152600401610b3f90612b30565b60405180910390fd5b600073ffffffffffffffffffffffffffffffffffffffff16600660019054906101000a900473ffffffffffffffffffffffffffffffffffffffff1673ffffffffffffffffffffffffffffffffffffffff167f8be0079c531659141344cd1fd0a4f28419497f9722a3daafe3b4186f6b6457e060405160405180910390a36000600660016101000a81548173ffffffffffffffffffffffffffffffffffffffff021916908373ffffffffffffffffffffffffffffffffffffffff160217905550565b610c116114ae565b73ffffffffffffffffffffffffffffffffffffffff16610c2f610c8f565b73ffffffffffffffffffffffffffffffffffffffff1614610c85576040517f08c379a0000000000000000000000000000000000000000000000000000000008152600401610c7c90612b30565b60405180910390fd5b610c8d6118a9565b565b6000600660019054906101000a900473ffffffffffffffffffffffffffffffffffffffff16905090565b606060018054610cc890612e2a565b80601f0160208091040260200160405190810160405280929190818152602001828054610cf490612e2a565b8015610d415780601f10610d1657610100808354040283529160200191610d41565b820191906000526020600020905b815481529060010190602001808311610d2457829003601f168201915b5050505050905090565b610d536114ae565b73ffffffffffffffffffffffffffffffffffffffff168273ffffffffffffffffffffffffffffffffffffffff161415610dc1576040517f08c379a0000000000000000000000000000000000000000000000000000000008152600401610db890612a30565b60405180910390fd5b8060056000610dce6114ae565b73ffffffffffffffffffffffffffffffffffffffff1673ffffffffffffffffffffffffffffffffffffffff16815260200190815260200160002060008473ffffffffffffffffffffffffffffffffffffffff1673ffffffffffffffffffffffffffffffffffffffff16815260200190815260200160002060006101000a81548160ff0219169083151502179055508173ffffffffffffffffffffffffffffffffffffffff16610e7b6114ae565b73ffffffffffffffffffffffffffffffffffffffff167f17307eab39ab6107e8899845ad3d59bd9653f200f220920489ca2b5937696c3183604051610ec09190612933565b60405180910390a35050565b610edd610ed76114ae565b8361156f565b610f1c576040517f08c379a0000000000000000000000000000000000000000000000000000000008152600401610f1390612bb0565b60405180910390fd5b610f288484848461194c565b50505050565b6060610f3982611442565b610f78576040517f08c379a0000000000000000000000000000000000000000000000000000000008152600401610f6f90612b70565b60405180910390fd5b600060088054610f8790612e2a565b90501161102f57600760008381526020019081526020016000208054610fac90612e2a565b80601f0160208091040260200160405190810160405280929190818152602001828054610fd890612e2a565b80156110255780601f10610ffa57610100808354040283529160200191611025565b820191906000526020600020905b81548152906001019060200180831161100857829003601f168201915b5050505050611065565b600860076000848152602001908152602001600020604051602001611055929190612876565b6040516020818303038152906040525b9050919050565b60008084848460405160200161108493929190612901565b6040516020818303038152906040528051906020012060001c90506110a985826119a8565b6110b4818585611b76565b809150509392505050565b6000808484846040516020016110d793929190612901565b6040516020818303038152906040528051906020012060001c90506110fc8582611be6565b611107818585611b76565b809150509392505050565b6000600560008473ffffffffffffffffffffffffffffffffffffffff1673ffffffffffffffffffffffffffffffffffffffff16815260200190815260200160002060008373ffffffffffffffffffffffffffffffffffffffff1673ffffffffffffffffffffffffffffffffffffffff16815260200190815260200160002060009054906101000a900460ff16905092915050565b6111ae6114ae565b73ffffffffffffffffffffffffffffffffffffffff166111cc610c8f565b73ffffffffffffffffffffffffffffffffffffffff1614611222576040517f08c379a000000000000000000000000000000000000000000000000000000000815260040161121990612b30565b60405180910390fd5b600073ffffffffffffffffffffffffffffffffffffffff168173ffffffffffffffffffffffffffffffffffffffff161415611292576040517f08c379a0000000000000000000000000000000000000000000000000000000008152600401611289906129d0565b60405180910390fd5b8073ffffffffffffffffffffffffffffffffffffffff16600660019054906101000a900473ffffffffffffffffffffffffffffffffffffffff1673ffffffffffffffffffffffffffffffffffffffff167f8be0079c531659141344cd1fd0a4f28419497f9722a3daafe3b4186f6b6457e060405160405180910390a380600660016101000a81548173ffffffffffffffffffffffffffffffffffffffff021916908373ffffffffffffffffffffffffffffffffffffffff16021790555050565b61135a6114ae565b73ffffffffffffffffffffffffffffffffffffffff16611378610c8f565b73ffffffffffffffffffffffffffffffffffffffff16146113ce576040517f08c379a00000000000000000000000000000000000000000000000000000000081526004016113c590612b30565b60405180910390fd5b6113d6611c04565b565b60007f01ffc9a7000000000000000000000000000000000000000000000000000000007bffffffffffffffffffffffffffffffffffffffffffffffffffffffff1916827bffffffffffffffffffffffffffffffffffffffffffffffffffffffff1916149050919050565b60008073ffffffffffffffffffffffffffffffffffffffff166002600084815260200190815260200160002060009054906101000a900473ffffffffffffffffffffffffffffffffffffffff1673ffffffffffffffffffffffffffffffffffffffff1614159050919050565b600033905090565b816004600083815260200190815260200160002060006101000a81548173ffffffffffffffffffffffffffffffffffffffff021916908373ffffffffffffffffffffffffffffffffffffffff160217905550808273ffffffffffffffffffffffffffffffffffffffff16611529836108d0565b73ffffffffffffffffffffffffffffffffffffffff167f8c5be1e5ebec7d5bd14f71427d1e84f3dd0314c0f7b2291e5b200ac8c7c3b92560405160405180910390a45050565b600061157a82611442565b6115b9576040517f08c379a00000000000000000000000000000000000000000000000000000000081526004016115b090612a50565b60405180910390fd5b60006115c4836108d0565b90508073ffffffffffffffffffffffffffffffffffffffff168473ffffffffffffffffffffffffffffffffffffffff16148061163357508373ffffffffffffffffffffffffffffffffffffffff1661161b846105be565b73ffffffffffffffffffffffffffffffffffffffff16145b8061164457506116438185611112565b5b91505092915050565b8273ffffffffffffffffffffffffffffffffffffffff1661166d826108d0565b73ffffffffffffffffffffffffffffffffffffffff16146116c3576040517f08c379a00000000000000000000000000000000000000000000000000000000081526004016116ba90612b50565b60405180910390fd5b600073ffffffffffffffffffffffffffffffffffffffff168273ffffffffffffffffffffffffffffffffffffffff161415611733576040517f08c379a000000000000000000000000000000000000000000000000000000000815260040161172a90612a10565b60405180910390fd5b61173e838383611ca6565b6117496000826114b6565b6001600360008573ffffffffffffffffffffffffffffffffffffffff1673ffffffffffffffffffffffffffffffffffffffff16815260200190815260200160002060008282546117999190612d40565b925050819055506001600360008473ffffffffffffffffffffffffffffffffffffffff1673ffffffffffffffffffffffffffffffffffffffff16815260200190815260200160002060008282546117f09190612cea565b92505081905550816002600083815260200190815260200160002060006101000a81548173ffffffffffffffffffffffffffffffffffffffff021916908373ffffffffffffffffffffffffffffffffffffffff160217905550808273ffffffffffffffffffffffffffffffffffffffff168473ffffffffffffffffffffffffffffffffffffffff167fddf252ad1be2c89b69c2b068fc378daa952ba7f163c4a11628f55a4df523b3ef60405160405180910390a4505050565b6118b16108b9565b156118f1576040517f08c379a00000000000000000000000000000000000000000000000000000000081526004016118e890612a70565b60405180910390fd5b6001600660006101000a81548160ff0219169083151502179055507f62e78cea01bee320cd4e420270b5ea74000d11b0c9f74754ebdbfc544b05a2586119356114ae565b604051611942919061289a565b60405180910390a1565b61195784848461164d565b61196384848484611cfe565b6119a2576040517f08c379a0000000000000000000000000000000000000000000000000000000008152600401611999906129b0565b60405180910390fd5b50505050565b600073ffffffffffffffffffffffffffffffffffffffff168273ffffffffffffffffffffffffffffffffffffffff161415611a18576040517f08c379a0000000000000000000000000000000000000000000000000000000008152600401611a0f90612af0565b60405180910390fd5b611a2181611442565b15611a61576040517f08c379a0000000000000000000000000000000000000000000000000000000008152600401611a58906129f0565b60405180910390fd5b611a6d60008383611ca6565b6001600360008473ffffffffffffffffffffffffffffffffffffffff1673ffffffffffffffffffffffffffffffffffffffff1681526020019081526020016000206000828254611abd9190612cea565b92505081905550816002600083815260200190815260200160002060006101000a81548173ffffffffffffffffffffffffffffffffffffffff021916908373ffffffffffffffffffffffffffffffffffffffff160217905550808273ffffffffffffffffffffffffffffffffffffffff16600073ffffffffffffffffffffffffffffffffffffffff167fddf252ad1be2c89b69c2b068fc378daa952ba7f163c4a11628f55a4df523b3ef60405160405180910390a45050565b611b7f83611442565b611bbe576040517f08c379a0000000000000000000000000000000000000000000000000000000008152600401611bb590612bd0565b60405180910390fd5b8181600760008681526020019081526020016000209190611be0929190611f8e565b50505050565b611c00828260405180602001604052806000815250611e95565b5050565b611c0c6108b9565b611c4b576040517f08c379a0000000000000000000000000000000000000000000000000000000008152600401611c4290612990565b60405180910390fd5b6000600660006101000a81548160ff0219169083151502179055507f5db9ee0a495bf2e6ff9c91a7834c1ba4fdd244a5e8aa4e537bd38aeae4b073aa611c8f6114ae565b604051611c9c919061289a565b60405180910390a1565b611cb1838383611ef0565b611cb96108b9565b15611cf9576040517f08c379a0000000000000000000000000000000000000000000000000000000008152600401611cf090612970565b60405180910390fd5b505050565b6000611d1f8473ffffffffffffffffffffffffffffffffffffffff16611ef5565b15611e88578373ffffffffffffffffffffffffffffffffffffffff1663150b7a02611d486114ae565b8786866040518563ffffffff1660e01b8152600401611d6a94939291906128b5565b602060405180830381600087803b158015611d8457600080fd5b505af1925050508015611db557506040513d601f19601f82011682018060405250810190611db291906123dc565b60015b611e38573d8060008114611de5576040519150601f19603f3d011682016040523d82523d6000602084013e611dea565b606091505b50600081511415611e30576040517f08c379a0000000000000000000000000000000000000000000000000000000008152600401611e27906129b0565b60405180910390fd5b805181602001fd5b63150b7a0260e01b7bffffffffffffffffffffffffffffffffffffffffffffffffffffffff1916817bffffffffffffffffffffffffffffffffffffffffffffffffffffffff191614915050611e8d565b600190505b949350505050565b611e9f83836119a8565b611eac6000848484611cfe565b611eeb576040517f08c379a0000000000000000000000000000000000000000000000000000000008152600401611ee2906129b0565b60405180910390fd5b505050565b505050565b600080823b905060008111915050919050565b828054611f1490612e2a565b90600052602060002090601f016020900481019282611f365760008555611f7d565b82601f10611f4f57805160ff1916838001178555611f7d565b82800160010185558215611f7d579182015b82811115611f7c578251825591602001919060010190611f61565b5b509050611f8a9190612014565b5090565b828054611f9a90612e2a565b90600052602060002090601f016020900481019282611fbc5760008555612003565b82601f10611fd557803560ff1916838001178555612003565b82800160010185558215612003579182015b82811115612002578235825591602001919060010190611fe7565b5b5090506120109190612014565b5090565b5b8082111561202d576000816000905550600101612015565b5090565b600061204461203f84612c30565b612c0b565b90508281526020810184848401111561205c57600080fd5b612067848285612de8565b509392505050565b600061208261207d84612c61565b612c0b565b90508281526020810184848401111561209a57600080fd5b6120a5848285612de8565b509392505050565b6000813590506120bc8161344d565b92915050565b6000813590506120d181613464565b92915050565b6000813590506120e68161347b565b92915050565b6000815190506120fb8161347b565b92915050565b600082601f83011261211257600080fd5b8135612122848260208601612031565b91505092915050565b60008083601f84011261213d57600080fd5b8235905067ffffffffffffffff81111561215657600080fd5b60208301915083600182028301111561216e57600080fd5b9250929050565b600082601f83011261218657600080fd5b813561219684826020860161206f565b91505092915050565b6000813590506121ae81613492565b92915050565b6000602082840312156121c657600080fd5b60006121d4848285016120ad565b91505092915050565b600080604083850312156121f057600080fd5b60006121fe858286016120ad565b925050602061220f858286016120ad565b9150509250929050565b60008060006060848603121561222e57600080fd5b600061223c868287016120ad565b935050602061224d868287016120ad565b925050604061225e8682870161219f565b9150509250925092565b6000806000806080858703121561227e57600080fd5b600061228c878288016120ad565b945050602061229d878288016120ad565b93505060406122ae8782880161219f565b925050606085013567ffffffffffffffff8111156122cb57600080fd5b6122d787828801612101565b91505092959194509250565b600080604083850312156122f657600080fd5b6000612304858286016120ad565b9250506020612315858286016120c2565b9150509250929050565b60008060006040848603121561233457600080fd5b6000612342868287016120ad565b935050602084013567ffffffffffffffff81111561235f57600080fd5b61236b8682870161212b565b92509250509250925092565b6000806040838503121561238a57600080fd5b6000612398858286016120ad565b92505060206123a98582860161219f565b9150509250929050565b6000602082840312156123c557600080fd5b60006123d3848285016120d7565b91505092915050565b6000602082840312156123ee57600080fd5b60006123fc848285016120ec565b91505092915050565b60006020828403121561241757600080fd5b600082013567ffffffffffffffff81111561243157600080fd5b61243d84828501612175565b91505092915050565b60006020828403121561245857600080fd5b60006124668482850161219f565b91505092915050565b61247881612d74565b82525050565b61248781612d86565b82525050565b600061249882612ca7565b6124a28185612cbd565b93506124b2818560208601612df7565b6124bb81612f1a565b840191505092915050565b60006124d28385612cce565b93506124df838584612de8565b6124e883612f1a565b840190509392505050565b60006124fe82612cb2565b6125088185612cce565b9350612518818560208601612df7565b61252181612f1a565b840191505092915050565b6000815461253981612e2a565b6125438186612cdf565b9450600182166000811461255e576001811461256f576125a2565b60ff198316865281860193506125a2565b61257885612c92565b60005b8381101561259a5781548189015260018201915060208101905061257b565b838801955050505b50505092915050565b60006125b8602b83612cce565b91506125c382612f2b565b604082019050919050565b60006125db601483612cce565b91506125e682612f7a565b602082019050919050565b60006125fe603283612cce565b915061260982612fa3565b604082019050919050565b6000612621602683612cce565b915061262c82612ff2565b604082019050919050565b6000612644601c83612cce565b915061264f82613041565b602082019050919050565b6000612667602483612cce565b91506126728261306a565b604082019050919050565b600061268a601983612cce565b9150612695826130b9565b602082019050919050565b60006126ad602c83612cce565b91506126b8826130e2565b604082019050919050565b60006126d0601083612cce565b91506126db82613131565b602082019050919050565b60006126f3603883612cce565b91506126fe8261315a565b604082019050919050565b6000612716602a83612cce565b9150612721826131a9565b604082019050919050565b6000612739602983612cce565b9150612744826131f8565b604082019050919050565b600061275c602083612cce565b915061276782613247565b602082019050919050565b600061277f602c83612cce565b915061278a82613270565b604082019050919050565b60006127a2602083612cce565b91506127ad826132bf565b602082019050919050565b60006127c5602983612cce565b91506127d0826132e8565b604082019050919050565b60006127e8602f83612cce565b91506127f382613337565b604082019050919050565b600061280b602183612cce565b915061281682613386565b604082019050919050565b600061282e603183612cce565b9150612839826133d5565b604082019050919050565b6000612851601483612cce565b915061285c82613424565b602082019050919050565b61287081612dde565b82525050565b6000612882828561252c565b915061288e828461252c565b91508190509392505050565b60006020820190506128af600083018461246f565b92915050565b60006080820190506128ca600083018761246f565b6128d7602083018661246f565b6128e46040830185612867565b81810360608301526128f6818461248d565b905095945050505050565b6000604082019050612916600083018661246f565b81810360208301526129298184866124c6565b9050949350505050565b6000602082019050612948600083018461247e565b92915050565b6000602082019050818103600083015261296881846124f3565b905092915050565b60006020820190508181036000830152612989816125ab565b9050919050565b600060208201905081810360008301526129a9816125ce565b9050919050565b600060208201905081810360008301526129c9816125f1565b9050919050565b600060208201905081810360008301526129e981612614565b9050919050565b60006020820190508181036000830152612a0981612637565b9050919050565b60006020820190508181036000830152612a298161265a565b9050919050565b60006020820190508181036000830152612a498161267d565b9050919050565b60006020820190508181036000830152612a69816126a0565b9050919050565b60006020820190508181036000830152612a89816126c3565b9050919050565b60006020820190508181036000830152612aa9816126e6565b9050919050565b60006020820190508181036000830152612ac981612709565b9050919050565b60006020820190508181036000830152612ae98161272c565b9050919050565b60006020820190508181036000830152612b098161274f565b9050919050565b60006020820190508181036000830152612b2981612772565b9050919050565b60006020820190508181036000830152612b4981612795565b9050919050565b60006020820190508181036000830152612b69816127b8565b9050919050565b60006020820190508181036000830152612b89816127db565b9050919050565b60006020820190508181036000830152612ba9816127fe565b9050919050565b60006020820190508181036000830152612bc981612821565b9050919050565b60006020820190508181036000830152612be981612844565b9050919050565b6000602082019050612c056000830184612867565b92915050565b6000612c15612c26565b9050612c218282612e5c565b919050565b6000604051905090565b600067ffffffffffffffff821115612c4b57612c4a612eeb565b5b612c5482612f1a565b9050602081019050919050565b600067ffffffffffffffff821115612c7c57612c7b612eeb565b5b612c8582612f1a565b9050602081019050919050565b60008190508160005260206000209050919050565b600081519050919050565b600081519050919050565b600082825260208201905092915050565b600082825260208201905092915050565b600081905092915050565b6000612cf582612dde565b9150612d0083612dde565b9250827fffffffffffffffffffffffffffffffffffffffffffffffffffffffffffffffff03821115612d3557612d34612e8d565b5b828201905092915050565b6000612d4b82612dde565b9150612d5683612dde565b925082821015612d6957612d68612e8d565b5b828203905092915050565b6000612d7f82612dbe565b9050919050565b60008115159050919050565b60007fffffffff0000000000000000000000000000000000000000000000000000000082169050919050565b600073ffffffffffffffffffffffffffffffffffffffff82169050919050565b6000819050919050565b82818337600083830152505050565b60005b83811015612e15578082015181840152602081019050612dfa565b83811115612e24576000848401525b50505050565b60006002820490506001821680612e4257607f821691505b60208210811415612e5657612e55612ebc565b5b50919050565b612e6582612f1a565b810181811067ffffffffffffffff82111715612e8457612e83612eeb565b5b80604052505050565b7f4e487b7100000000000000000000000000000000000000000000000000000000600052601160045260246000fd5b7f4e487b7100000000000000000000000000000000000000000000000000000000600052602260045260246000fd5b7f4e487b7100000000000000000000000000000000000000000000000000000000600052604160045260246000fd5b6000601f19601f8301169050919050565b7f4552433732315061757361626c653a20746f6b656e207472616e73666572207760008201527f68696c6520706175736564000000000000000000000000000000000000000000602082015250565b7f5061757361626c653a206e6f7420706175736564000000000000000000000000600082015250565b7f4552433732313a207472616e7366657220746f206e6f6e20455243373231526560008201527f63656976657220696d706c656d656e7465720000000000000000000000000000602082015250565b7f4f776e61626c653a206e6577206f776e657220697320746865207a65726f206160008201527f6464726573730000000000000000000000000000000000000000000000000000602082015250565b7f4552433732313a20746f6b656e20616c7265616479206d696e74656400000000600082015250565b7f4552433732313a207472616e7366657220746f20746865207a65726f2061646460008201527f7265737300000000000000000000000000000000000000000000000000000000602082015250565b7f4552433732313a20617070726f766520746f2063616c6c657200000000000000600082015250565b7f4552433732313a206f70657261746f7220717565727920666f72206e6f6e657860008201527f697374656e7420746f6b656e0000000000000000000000000000000000000000602082015250565b7f5061757361626c653a2070617573656400000000000000000000000000000000600082015250565b7f4552433732313a20617070726f76652063616c6c6572206973206e6f74206f7760008201527f6e6572206e6f7220617070726f76656420666f7220616c6c0000000000000000602082015250565b7f4552433732313a2062616c616e636520717565727920666f7220746865207a6560008201527f726f206164647265737300000000000000000000000000000000000000000000602082015250565b7f4552433732313a206f776e657220717565727920666f72206e6f6e657869737460008201527f656e7420746f6b656e0000000000000000000000000000000000000000000000602082015250565b7f4552433732313a206d696e7420746f20746865207a65726f2061646472657373600082015250565b7f4552433732313a20617070726f76656420717565727920666f72206e6f6e657860008201527f697374656e7420746f6b656e0000000000000000000000000000000000000000602082015250565b7f4f776e61626c653a2063616c6c6572206973206e6f7420746865206f776e6572600082015250565b7f4552433732313a207472616e73666572206f6620746f6b656e2074686174206960008201527f73206e6f74206f776e0000000000000000000000000000000000000000000000602082015250565b7f4552433732314d657461646174613a2055524920717565727920666f72206e6f60008201527f6e6578697374656e7420746f6b656e0000000000000000000000000000000000602082015250565b7f4552433732313a20617070726f76616c20746f2063757272656e74206f776e6560008201527f7200000000000000000000000000000000000000000000000000000000000000602082015250565b7f4552433732313a207472616e736665722063616c6c6572206973206e6f74206f60008201527f776e6572206e6f7220617070726f766564000000000000000000000000000000602082015250565b7f544f4b454e5f49445f4e4f545f45584953544544000000000000000000000000600082015250565b61345681612d74565b811461346157600080fd5b50565b61346d81612d86565b811461347857600080fd5b50565b61348481612d92565b811461348f57600080fd5b50565b61349b81612dde565b81146134a657600080fd5b5056fea26469706673582212202343696769f7e36caa44e6804b7126f995e4b9b4760775efe4cb836f4cf2623d64736f6c63430008040033",
  "immutableReferences": {},
  "source": "// SPDX-License-Identifier: UNLICENSED\n\npragma solidity 0.8.4;\n\nimport \"../../lib/token/ERC721/ERC721.sol\";\nimport \"../../lib/access/Ownable.sol\";\nimport \"../../lib/security/Pausable.sol\";\nimport \"../../lib/token/ERC721/extensions/ERC721Pausable.sol\";\n\ncontract TaureumERC721 is ERC721Pausable, Ownable {\n    /**\n     * @dev Mapping from NFT ID to metadata uri.\n     */\n    mapping(uint256 => string) internal idToUri;\n\n    /**\n     * @dev The base URI for all NFT.\n     */\n    string private __baseURI;\n\n    /**\n     * @dev Create a new TaureumERC721 contract.\n     *\n     */\n    constructor() ERC721(\"Taureum ERC721\", \"Taureum\") Ownable() Pausable() {\n        __baseURI = \"\";\n    }\n\n    /**\n     * @dev Pause the contract in case of bugs/attacks.\n     * @notice Only the owner can call this method.\n     */\n    function pause() public onlyOwner {\n        _pause();\n    }\n\n    /**\n     * @dev Resume the contract after being paused.\n     * @notice Only the owner can call this method.\n     */\n    function unPause() public onlyOwner {\n        _unpause();\n    }\n\n    /**\n      * @dev Safely mint a new NFT.\n      * @notice It throws an exception if\n      *    - `to` is a \"ZERO_ADDRESS.\n      *    - If `to` refers to a smart contract, it must implement {IERC721Receiver-onERC721Received}, which is called upon a safe transfer.\n      * @param to The address that will own the minted NFT.\n      * @param uri The URI consists of metadata description of the minting NFT on the IPFS (without prefix).\n      */\n    function safeMint(\n        address to,\n        string calldata uri\n    )\n    public\n    returns (uint256)\n    {\n        uint256 id = uint256(keccak256(abi.encode(to, uri)));\n\n        _safeMint(to, id);\n        _setTokenUri(id, uri);\n\n        return id;\n    }\n\n    /**\n      * @dev Mint a new NFT.\n      * @notice It throws an exception if\n      *    - `to` is a \"ZERO_ADDRESS.\n      * @param to The address that will own the minted NFT.\n      * @param uri The URI consists of metadata description of the minting NFT on the IPFS (without prefix).\n      */\n    function mint(\n        address to,\n        string calldata uri\n    )\n    public\n    returns (uint256)\n    {\n        uint256 id = uint256(keccak256(abi.encode(to, uri)));\n\n        _mint(to, id);\n        _setTokenUri(id, uri);\n\n        return id;\n    }\n\n    /**\n     * @dev See {IERC721Metadata-tokenURI}.\n     */\n    function tokenURI(uint256 tokenId) public view virtual override returns (string memory) {\n        require(_exists(tokenId), \"ERC721Metadata: URI query for nonexistent token\");\n\n        return bytes(__baseURI).length > 0 ? string(abi.encodePacked(__baseURI, idToUri[tokenId])) : idToUri[tokenId];\n    }\n\n    /**\n     * @dev Sets new value for the `__baseURI`. This operation can only been done by the owner of this contract.\n     */\n    function setBaseURI(string memory newBaseURI) external onlyOwner whenNotPaused {\n        __baseURI = newBaseURI;\n    }\n\n    /**\n     * @dev Returns `__baseURI`.\n     */\n    function baseURI() external view returns(string memory) {\n        return __baseURI;\n    }\n\n    /**\n     * @dev Base URI for computing {tokenURI}. If set, the resulting URI for each\n     * token will be the concatenation of the `baseURI` and the `tokenId`.\n     */\n    function _baseURI() internal view virtual override returns (string memory) {\n        return __baseURI;\n    }\n\n    /**\n     * @dev Set a distinct URI (RFC 3986) for a given NFT ID.\n     * @notice This is an internal function which should be called from user-implemented external\n     * function.\n     * @notice It throws an exception if the _tokenId does not exist.\n     * @param _tokenId Id for which we want URI.\n     * @param _uri String representing RFC 3986 URI.\n     */\n    function _setTokenUri(\n        uint256 _tokenId,\n        string calldata _uri\n    )\n    internal\n    {\n        require(_exists(_tokenId), \"TOKEN_ID_NOT_EXISTED\");\n        idToUri[_tokenId] = _uri;\n    }\n\n}\n",
  "sourcePath": "/home/toor/nodejs/truffle/nft_demo/taureum/taureum-nft-sc/contracts/tokens/ERC721/TaureumERC721.sol",
  "compiler": {
    "name": "solc",
    "version": "0.8.4+commit.c7e474f2.Emscripten.clang"
  },
  "schemaVersion": "3.4.1",
  "updatedAt": "2021-08-29T07:21:15.082Z",
  "networkType": "ethereum",
  "devdoc": {
    "kind": "dev",
    "methods": {
      "approve(address,uint256)": {
        "details": "See {IERC721-approve}."
      },
      "balanceOf(address)": {
        "details": "See {IERC721-balanceOf}."
      },
      "baseURI()": {
        "details": "Returns `__baseURI`."
      },
      "constructor": {
        "details": "Create a new TaureumERC721 contract."
      },
      "getApproved(uint256)": {
        "details": "See {IERC721-getApproved}."
      },
      "isApprovedForAll(address,address)": {
        "details": "See {IERC721-isApprovedForAll}."
      },
      "mint(address,string)": {
        "details": "Mint a new NFT.",
        "params": {
          "to": "The address that will own the minted NFT.",
          "uri": "The URI consists of metadata description of the minting NFT on the IPFS (without prefix)."
        }
      },
      "name()": {
        "details": "See {IERC721Metadata-name}."
      },
      "owner()": {
        "details": "Returns the address of the current owner."
      },
      "ownerOf(uint256)": {
        "details": "See {IERC721-ownerOf}."
      },
      "pause()": {
        "details": "Pause the contract in case of bugs/attacks."
      },
      "paused()": {
        "details": "Returns true if the contract is paused, and false otherwise."
      },
      "renounceOwnership()": {
        "details": "Leaves the contract without owner. It will not be possible to call `onlyOwner` functions anymore. Can only be called by the current owner. NOTE: Renouncing ownership will leave the contract without an owner, thereby removing any functionality that is only available to the owner."
      },
      "safeMint(address,string)": {
        "details": "Safely mint a new NFT.",
        "params": {
          "to": "The address that will own the minted NFT.",
          "uri": "The URI consists of metadata description of the minting NFT on the IPFS (without prefix)."
        }
      },
      "safeTransferFrom(address,address,uint256)": {
        "details": "See {IERC721-safeTransferFrom}."
      },
      "safeTransferFrom(address,address,uint256,bytes)": {
        "details": "See {IERC721-safeTransferFrom}."
      },
      "setApprovalForAll(address,bool)": {
        "details": "See {IERC721-setApprovalForAll}."
      },
      "setBaseURI(string)": {
        "details": "Sets new value for the `__baseURI`. This operation can only been done by the owner of this contract."
      },
      "supportsInterface(bytes4)": {
        "details": "See {IERC165-supportsInterface}."
      },
      "symbol()": {
        "details": "See {IERC721Metadata-symbol}."
      },
      "tokenURI(uint256)": {
        "details": "See {IERC721Metadata-tokenURI}."
      },
      "transferFrom(address,address,uint256)": {
        "details": "See {IERC721-transferFrom}."
      },
      "transferOwnership(address)": {
        "details": "Transfers ownership of the contract to a new account (`newOwner`). Can only be called by the current owner."
      },
      "unPause()": {
        "details": "Resume the contract after being paused."
      }
    },
    "stateVariables": {
      "__baseURI": {
        "details": "The base URI for all NFT."
      },
      "idToUri": {
        "details": "Mapping from NFT ID to metadata uri."
      }
    },
    "version": 1
  },
  "userdoc": {
    "kind": "user",
    "methods": {
      "mint(address,string)": {
        "notice": "It throws an exception if    - `to` is a \"ZERO_ADDRESS."
      },
      "pause()": {
        "notice": "Only the owner can call this method."
      },
      "safeMint(address,string)": {
        "notice": "It throws an exception if    - `to` is a \"ZERO_ADDRESS.    - If `to` refers to a smart contract, it must implement {IERC721Receiver-onERC721Received}, which is called upon a safe transfer."
      },
      "unPause()": {
        "notice": "Only the owner can call this method."
      }
    },
    "version": 1
  }
}