{
  "contractName": "TaureumKYCMock",
  "abi": [
    {
      "inputs": [],
      "stateMutability": "nonpayable",
      "type": "constructor"
    },
    {
      "anonymous": false,
      "inputs": [
        {
          "indexed": true,
          "internalType": "bytes32",
          "name": "role",
          "type": "bytes32"
        },
        {
          "indexed": true,
          "internalType": "bytes32",
          "name": "previousAdminRole",
          "type": "bytes32"
        },
        {
          "indexed": true,
          "internalType": "bytes32",
          "name": "newAdminRole",
          "type": "bytes32"
        }
      ],
      "name": "RoleAdminChanged",
      "type": "event"
    },
    {
      "anonymous": false,
      "inputs": [
        {
          "indexed": true,
          "internalType": "bytes32",
          "name": "role",
          "type": "bytes32"
        },
        {
          "indexed": true,
          "internalType": "address",
          "name": "account",
          "type": "address"
        },
        {
          "indexed": true,
          "internalType": "address",
          "name": "sender",
          "type": "address"
        }
      ],
      "name": "RoleGranted",
      "type": "event"
    },
    {
      "anonymous": false,
      "inputs": [
        {
          "indexed": true,
          "internalType": "bytes32",
          "name": "role",
          "type": "bytes32"
        },
        {
          "indexed": true,
          "internalType": "address",
          "name": "account",
          "type": "address"
        },
        {
          "indexed": true,
          "internalType": "address",
          "name": "sender",
          "type": "address"
        }
      ],
      "name": "RoleRevoked",
      "type": "event"
    },
    {
      "inputs": [],
      "name": "DEFAULT_ADMIN_ROLE",
      "outputs": [
        {
          "internalType": "bytes32",
          "name": "",
          "type": "bytes32"
        }
      ],
      "stateMutability": "view",
      "type": "function",
      "constant": true
    },
    {
      "inputs": [],
      "name": "VERIFIER_ROLE",
      "outputs": [
        {
          "internalType": "bytes32",
          "name": "",
          "type": "bytes32"
        }
      ],
      "stateMutability": "view",
      "type": "function",
      "constant": true
    },
    {
      "inputs": [
        {
          "internalType": "bytes32",
          "name": "role",
          "type": "bytes32"
        }
      ],
      "name": "getRoleAdmin",
      "outputs": [
        {
          "internalType": "bytes32",
          "name": "",
          "type": "bytes32"
        }
      ],
      "stateMutability": "view",
      "type": "function",
      "constant": true
    },
    {
      "inputs": [
        {
          "internalType": "bytes32",
          "name": "role",
          "type": "bytes32"
        },
        {
          "internalType": "address",
          "name": "account",
          "type": "address"
        }
      ],
      "name": "grantRole",
      "outputs": [],
      "stateMutability": "nonpayable",
      "type": "function"
    },
    {
      "inputs": [
        {
          "internalType": "bytes32",
          "name": "role",
          "type": "bytes32"
        },
        {
          "internalType": "address",
          "name": "account",
          "type": "address"
        }
      ],
      "name": "hasRole",
      "outputs": [
        {
          "internalType": "bool",
          "name": "",
          "type": "bool"
        }
      ],
      "stateMutability": "view",
      "type": "function",
      "constant": true
    },
    {
      "inputs": [
        {
          "internalType": "bytes32",
          "name": "role",
          "type": "bytes32"
        },
        {
          "internalType": "address",
          "name": "account",
          "type": "address"
        }
      ],
      "name": "renounceRole",
      "outputs": [],
      "stateMutability": "nonpayable",
      "type": "function"
    },
    {
      "inputs": [
        {
          "internalType": "bytes32",
          "name": "role",
          "type": "bytes32"
        },
        {
          "internalType": "address",
          "name": "account",
          "type": "address"
        }
      ],
      "name": "revokeRole",
      "outputs": [],
      "stateMutability": "nonpayable",
      "type": "function"
    },
    {
      "inputs": [
        {
          "internalType": "bytes4",
          "name": "interfaceId",
          "type": "bytes4"
        }
      ],
      "name": "supportsInterface",
      "outputs": [
        {
          "internalType": "bool",
          "name": "",
          "type": "bool"
        }
      ],
      "stateMutability": "view",
      "type": "function",
      "constant": true
    },
    {
      "inputs": [
        {
          "internalType": "address",
          "name": "addr",
          "type": "address"
        }
      ],
      "name": "addVerifier",
      "outputs": [],
      "stateMutability": "nonpayable",
      "type": "function"
    },
    {
      "inputs": [
        {
          "internalType": "address",
          "name": "addr",
          "type": "address"
        }
      ],
      "name": "removeVerifier",
      "outputs": [],
      "stateMutability": "nonpayable",
      "type": "function"
    },
    {
      "inputs": [
        {
          "internalType": "address",
          "name": "addr",
          "type": "address"
        }
      ],
      "name": "isVerifiedUser",
      "outputs": [
        {
          "internalType": "bool",
          "name": "",
          "type": "bool"
        }
      ],
      "stateMutability": "view",
      "type": "function",
      "constant": true
    }
  ],
  "bytecode": "0x60806040523480156200001157600080fd5b50620000276000801b336200005f60201b60201c565b620000597f0ce23c3e399818cfee81a7ab0880f714e53d7672b08df0fa62f2843416e1ea09336200005f60201b60201c565b620001d8565b6200007182826200007560201b60201c565b5050565b6200008782826200016660201b60201c565b6200016257600160008084815260200190815260200160002060000160008373ffffffffffffffffffffffffffffffffffffffff1673ffffffffffffffffffffffffffffffffffffffff16815260200190815260200160002060006101000a81548160ff02191690831515021790555062000107620001d060201b60201c565b73ffffffffffffffffffffffffffffffffffffffff168173ffffffffffffffffffffffffffffffffffffffff16837f2f8788117e7eff1d82e926ec794901d17c78024a50270940304540a733656f0d60405160405180910390a45b5050565b600080600084815260200190815260200160002060000160008373ffffffffffffffffffffffffffffffffffffffff1673ffffffffffffffffffffffffffffffffffffffff16815260200190815260200160002060009054906101000a900460ff16905092915050565b600033905090565b61127a80620001e86000396000f3fe608060405234801561001057600080fd5b50600436106100a95760003560e01c80639000b3d6116100715780639000b3d61461017657806391d1485414610192578063a217fddf146101c2578063ca2dfd0a146101e0578063d547741f146101fc578063e7705db614610218576100a9565b806301ffc9a7146100ae578063248a9ca3146100de5780632f2ff15d1461010e57806336568abe1461012a5780633da1c0c314610146575b600080fd5b6100c860048036038101906100c39190610c5c565b610236565b6040516100d59190610e19565b60405180910390f35b6100f860048036038101906100f39190610bf7565b6102b0565b6040516101059190610e34565b60405180910390f35b61012860048036038101906101239190610c20565b6102cf565b005b610144600480360381019061013f9190610c20565b6102f8565b005b610160600480360381019061015b9190610bce565b61037b565b60405161016d9190610e19565b60405180910390f35b610190600480360381019061018b9190610bce565b6103ae565b005b6101ac60048036038101906101a79190610c20565b61045b565b6040516101b99190610e19565b60405180910390f35b6101ca6104c5565b6040516101d79190610e34565b60405180910390f35b6101fa60048036038101906101f59190610bce565b6104cc565b005b61021660048036038101906102119190610c20565b610578565b005b6102206105a1565b60405161022d9190610e34565b60405180910390f35b60007f7965db0b000000000000000000000000000000000000000000000000000000007bffffffffffffffffffffffffffffffffffffffffffffffffffffffff1916827bffffffffffffffffffffffffffffffffffffffffffffffffffffffff191614806102a957506102a8826105c5565b5b9050919050565b6000806000838152602001908152602001600020600101549050919050565b6102d8826102b0565b6102e9816102e461062f565b610637565b6102f383836106d4565b505050565b61030061062f565b73ffffffffffffffffffffffffffffffffffffffff168173ffffffffffffffffffffffffffffffffffffffff161461036d576040517f08c379a000000000000000000000000000000000000000000000000000000000815260040161036490610ed1565b60405180910390fd5b61037782826107b4565b5050565b60006103a77f0ce23c3e399818cfee81a7ab0880f714e53d7672b08df0fa62f2843416e1ea098361045b565b9050919050565b6000801b6103c3816103be61062f565b610637565b6103ed7f0ce23c3e399818cfee81a7ab0880f714e53d7672b08df0fa62f2843416e1ea098361045b565b1561042d576040517f08c379a000000000000000000000000000000000000000000000000000000000815260040161042490610e91565b60405180910390fd5b6104577f0ce23c3e399818cfee81a7ab0880f714e53d7672b08df0fa62f2843416e1ea09836102cf565b5050565b600080600084815260200190815260200160002060000160008373ffffffffffffffffffffffffffffffffffffffff1673ffffffffffffffffffffffffffffffffffffffff16815260200190815260200160002060009054906101000a900460ff16905092915050565b6000801b81565b6000801b6104e1816104dc61062f565b610637565b61050b7f0ce23c3e399818cfee81a7ab0880f714e53d7672b08df0fa62f2843416e1ea098361045b565b61054a576040517f08c379a000000000000000000000000000000000000000000000000000000000815260040161054190610eb1565b60405180910390fd5b6105747f0ce23c3e399818cfee81a7ab0880f714e53d7672b08df0fa62f2843416e1ea0983610578565b5050565b610581826102b0565b6105928161058d61062f565b610637565b61059c83836107b4565b505050565b7f0ce23c3e399818cfee81a7ab0880f714e53d7672b08df0fa62f2843416e1ea0981565b60007f01ffc9a7000000000000000000000000000000000000000000000000000000007bffffffffffffffffffffffffffffffffffffffffffffffffffffffff1916827bffffffffffffffffffffffffffffffffffffffffffffffffffffffff1916149050919050565b600033905090565b610641828261045b565b6106d0576106668173ffffffffffffffffffffffffffffffffffffffff166014610895565b6106748360001c6020610895565b604051602001610685929190610ddf565b6040516020818303038152906040526040517f08c379a00000000000000000000000000000000000000000000000000000000081526004016106c79190610e4f565b60405180910390fd5b5050565b6106de828261045b565b6107b057600160008084815260200190815260200160002060000160008373ffffffffffffffffffffffffffffffffffffffff1673ffffffffffffffffffffffffffffffffffffffff16815260200190815260200160002060006101000a81548160ff02191690831515021790555061075561062f565b73ffffffffffffffffffffffffffffffffffffffff168173ffffffffffffffffffffffffffffffffffffffff16837f2f8788117e7eff1d82e926ec794901d17c78024a50270940304540a733656f0d60405160405180910390a45b5050565b6107be828261045b565b1561089157600080600084815260200190815260200160002060000160008373ffffffffffffffffffffffffffffffffffffffff1673ffffffffffffffffffffffffffffffffffffffff16815260200190815260200160002060006101000a81548160ff02191690831515021790555061083661062f565b73ffffffffffffffffffffffffffffffffffffffff168173ffffffffffffffffffffffffffffffffffffffff16837ff6391f5c32d9c69d2a47ea670b442974b53935d1edc7fd64eb21e047a839171b60405160405180910390a45b5050565b6060600060028360026108a89190610f6e565b6108b29190610f18565b67ffffffffffffffff8111156108f1577f4e487b7100000000000000000000000000000000000000000000000000000000600052604160045260246000fd5b6040519080825280601f01601f1916602001820160405280156109235781602001600182028036833780820191505090505b5090507f300000000000000000000000000000000000000000000000000000000000000081600081518110610981577f4e487b7100000000000000000000000000000000000000000000000000000000600052603260045260246000fd5b60200101907effffffffffffffffffffffffffffffffffffffffffffffffffffffffffffff1916908160001a9053507f780000000000000000000000000000000000000000000000000000000000000081600181518110610a0b577f4e487b7100000000000000000000000000000000000000000000000000000000600052603260045260246000fd5b60200101907effffffffffffffffffffffffffffffffffffffffffffffffffffffffffffff1916908160001a90535060006001846002610a4b9190610f6e565b610a559190610f18565b90505b6001811115610b41577f3031323334353637383961626364656600000000000000000000000000000000600f861660108110610abd577f4e487b7100000000000000000000000000000000000000000000000000000000600052603260045260246000fd5b1a60f81b828281518110610afa577f4e487b7100000000000000000000000000000000000000000000000000000000600052603260045260246000fd5b60200101907effffffffffffffffffffffffffffffffffffffffffffffffffffffffffffff1916908160001a905350600485901c945080610b3a90611079565b9050610a58565b5060008414610b85576040517f08c379a0000000000000000000000000000000000000000000000000000000008152600401610b7c90610e71565b60405180910390fd5b8091505092915050565b600081359050610b9e816111ff565b92915050565b600081359050610bb381611216565b92915050565b600081359050610bc88161122d565b92915050565b600060208284031215610be057600080fd5b6000610bee84828501610b8f565b91505092915050565b600060208284031215610c0957600080fd5b6000610c1784828501610ba4565b91505092915050565b60008060408385031215610c3357600080fd5b6000610c4185828601610ba4565b9250506020610c5285828601610b8f565b9150509250929050565b600060208284031215610c6e57600080fd5b6000610c7c84828501610bb9565b91505092915050565b610c8e81610fda565b82525050565b610c9d81610fe6565b82525050565b6000610cae82610ef1565b610cb88185610efc565b9350610cc8818560208601611046565b610cd1816110d2565b840191505092915050565b6000610ce782610ef1565b610cf18185610f0d565b9350610d01818560208601611046565b80840191505092915050565b6000610d1a602083610efc565b9150610d25826110e3565b602082019050919050565b6000610d3d601183610efc565b9150610d488261110c565b602082019050919050565b6000610d60601583610efc565b9150610d6b82611135565b602082019050919050565b6000610d83601783610f0d565b9150610d8e8261115e565b601782019050919050565b6000610da6601183610f0d565b9150610db182611187565b601182019050919050565b6000610dc9602f83610efc565b9150610dd4826111b0565b604082019050919050565b6000610dea82610d76565b9150610df68285610cdc565b9150610e0182610d99565b9150610e0d8284610cdc565b91508190509392505050565b6000602082019050610e2e6000830184610c85565b92915050565b6000602082019050610e496000830184610c94565b92915050565b60006020820190508181036000830152610e698184610ca3565b905092915050565b60006020820190508181036000830152610e8a81610d0d565b9050919050565b60006020820190508181036000830152610eaa81610d30565b9050919050565b60006020820190508181036000830152610eca81610d53565b9050919050565b60006020820190508181036000830152610eea81610dbc565b9050919050565b600081519050919050565b600082825260208201905092915050565b600081905092915050565b6000610f238261103c565b9150610f2e8361103c565b9250827fffffffffffffffffffffffffffffffffffffffffffffffffffffffffffffffff03821115610f6357610f626110a3565b5b828201905092915050565b6000610f798261103c565b9150610f848361103c565b9250817fffffffffffffffffffffffffffffffffffffffffffffffffffffffffffffffff0483118215151615610fbd57610fbc6110a3565b5b828202905092915050565b6000610fd38261101c565b9050919050565b60008115159050919050565b6000819050919050565b60007fffffffff0000000000000000000000000000000000000000000000000000000082169050919050565b600073ffffffffffffffffffffffffffffffffffffffff82169050919050565b6000819050919050565b60005b83811015611064578082015181840152602081019050611049565b83811115611073576000848401525b50505050565b60006110848261103c565b91506000821415611098576110976110a3565b5b600182039050919050565b7f4e487b7100000000000000000000000000000000000000000000000000000000600052601160045260246000fd5b6000601f19601f8301169050919050565b7f537472696e67733a20686578206c656e67746820696e73756666696369656e74600082015250565b7f4552525f414444525f4841535f524f4c45000000000000000000000000000000600082015250565b7f4552525f414444525f4e4f545f4841535f524f4c450000000000000000000000600082015250565b7f416363657373436f6e74726f6c3a206163636f756e7420000000000000000000600082015250565b7f206973206d697373696e6720726f6c6520000000000000000000000000000000600082015250565b7f416363657373436f6e74726f6c3a2063616e206f6e6c792072656e6f756e636560008201527f20726f6c657320666f722073656c660000000000000000000000000000000000602082015250565b61120881610fc8565b811461121357600080fd5b50565b61121f81610fe6565b811461122a57600080fd5b50565b61123681610ff0565b811461124157600080fd5b5056fea264697066735822122050d0e5c3a40114ff1cf0c58c5803fdb24c6cdfcfeab7837d3b3e80dac919742264736f6c63430008040033",
  "immutableReferences": {},
  "source": "//SPDX-License-Identifier: UNLICENSE\npragma solidity 0.8.4;\n\nimport \"../lib/access/AccessControl.sol\";\n\ncontract TaureumKYCMock is AccessControl {\n    bytes32 public constant VERIFIER_ROLE = keccak256(\"VERIFIER_ROLE\");\n    mapping(address => bytes32) private _userProofOfIdentity;\n\n    constructor() {\n        _setupRole(DEFAULT_ADMIN_ROLE, msg.sender);\n        _setupRole(VERIFIER_ROLE, msg.sender);\n    }\n\n    function addVerifier(address addr) external onlyRole(DEFAULT_ADMIN_ROLE) {\n        require(!hasRole(VERIFIER_ROLE, addr), \"ERR_ADDR_HAS_ROLE\");\n        grantRole(VERIFIER_ROLE, addr);\n    }\n\n    function removeVerifier(address addr) external onlyRole(DEFAULT_ADMIN_ROLE) {\n        require(hasRole(VERIFIER_ROLE, addr), \"ERR_ADDR_NOT_HAS_ROLE\");\n        revokeRole(VERIFIER_ROLE, addr);\n    }\n\n    function isVerifiedUser(address addr) external view returns (bool){\n        return hasRole(VERIFIER_ROLE, addr);\n    }\n}",
  "sourcePath": "/home/toor/nodejs/truffle/nft_demo/taudefi/taudefi-nft/contracts/test/TaureumKYCMock.sol",
  "compiler": {
    "name": "solc",
    "version": "0.8.4+commit.c7e474f2.Emscripten.clang"
  },
  "schemaVersion": "3.4.1",
  "updatedAt": "2021-07-23T07:56:43.981Z",
  "networkType": "ethereum",
  "devdoc": {
    "kind": "dev",
    "methods": {
      "getRoleAdmin(bytes32)": {
        "details": "Returns the admin role that controls `role`. See {grantRole} and {revokeRole}. To change a role's admin, use {_setRoleAdmin}."
      },
      "grantRole(bytes32,address)": {
        "details": "Grants `role` to `account`. If `account` had not been already granted `role`, emits a {RoleGranted} event. Requirements: - the caller must have ``role``'s admin role."
      },
      "hasRole(bytes32,address)": {
        "details": "Returns `true` if `account` has been granted `role`."
      },
      "renounceRole(bytes32,address)": {
        "details": "Revokes `role` from the calling account. Roles are often managed via {grantRole} and {revokeRole}: this function's purpose is to provide a mechanism for accounts to lose their privileges if they are compromised (such as when a trusted device is misplaced). If the calling account had been granted `role`, emits a {RoleRevoked} event. Requirements: - the caller must be `account`."
      },
      "revokeRole(bytes32,address)": {
        "details": "Revokes `role` from `account`. If `account` had been granted `role`, emits a {RoleRevoked} event. Requirements: - the caller must have ``role``'s admin role."
      },
      "supportsInterface(bytes4)": {
        "details": "See {IERC165-supportsInterface}."
      }
    },
    "version": 1
  },
  "userdoc": {
    "kind": "user",
    "methods": {},
    "version": 1
  }
}