{
  "contractName": "TaureumERC721LazyMint",
  "abi": [
    {
      "inputs": [],
      "stateMutability": "nonpayable",
      "type": "constructor"
    },
    {
      "anonymous": false,
      "inputs": [
        {
          "indexed": true,
          "internalType": "address",
          "name": "owner",
          "type": "address"
        },
        {
          "indexed": true,
          "internalType": "address",
          "name": "approved",
          "type": "address"
        },
        {
          "indexed": true,
          "internalType": "uint256",
          "name": "tokenId",
          "type": "uint256"
        }
      ],
      "name": "Approval",
      "type": "event"
    },
    {
      "anonymous": false,
      "inputs": [
        {
          "indexed": true,
          "internalType": "address",
          "name": "owner",
          "type": "address"
        },
        {
          "indexed": true,
          "internalType": "address",
          "name": "operator",
          "type": "address"
        },
        {
          "indexed": false,
          "internalType": "bool",
          "name": "approved",
          "type": "bool"
        }
      ],
      "name": "ApprovalForAll",
      "type": "event"
    },
    {
      "anonymous": false,
      "inputs": [
        {
          "indexed": true,
          "internalType": "address",
          "name": "previousOwner",
          "type": "address"
        },
        {
          "indexed": true,
          "internalType": "address",
          "name": "newOwner",
          "type": "address"
        }
      ],
      "name": "OwnershipTransferred",
      "type": "event"
    },
    {
      "anonymous": false,
      "inputs": [
        {
          "indexed": true,
          "internalType": "address",
          "name": "minter",
          "type": "address"
        },
        {
          "indexed": true,
          "internalType": "address",
          "name": "redeemer",
          "type": "address"
        },
        {
          "indexed": false,
          "internalType": "string",
          "name": "uri",
          "type": "string"
        },
        {
          "indexed": false,
          "internalType": "bytes",
          "name": "signature",
          "type": "bytes"
        }
      ],
      "name": "Redeem",
      "type": "event"
    },
    {
      "anonymous": false,
      "inputs": [
        {
          "indexed": true,
          "internalType": "address",
          "name": "from",
          "type": "address"
        },
        {
          "indexed": true,
          "internalType": "address",
          "name": "to",
          "type": "address"
        },
        {
          "indexed": true,
          "internalType": "uint256",
          "name": "tokenId",
          "type": "uint256"
        }
      ],
      "name": "Transfer",
      "type": "event"
    },
    {
      "inputs": [
        {
          "internalType": "address",
          "name": "to",
          "type": "address"
        },
        {
          "internalType": "uint256",
          "name": "tokenId",
          "type": "uint256"
        }
      ],
      "name": "approve",
      "outputs": [],
      "stateMutability": "nonpayable",
      "type": "function"
    },
    {
      "inputs": [
        {
          "internalType": "address",
          "name": "owner",
          "type": "address"
        }
      ],
      "name": "balanceOf",
      "outputs": [
        {
          "internalType": "uint256",
          "name": "",
          "type": "uint256"
        }
      ],
      "stateMutability": "view",
      "type": "function"
    },
    {
      "inputs": [
        {
          "internalType": "uint256",
          "name": "tokenId",
          "type": "uint256"
        }
      ],
      "name": "getApproved",
      "outputs": [
        {
          "internalType": "address",
          "name": "",
          "type": "address"
        }
      ],
      "stateMutability": "view",
      "type": "function"
    },
    {
      "inputs": [
        {
          "internalType": "address",
          "name": "owner",
          "type": "address"
        },
        {
          "internalType": "address",
          "name": "operator",
          "type": "address"
        }
      ],
      "name": "isApprovedForAll",
      "outputs": [
        {
          "internalType": "bool",
          "name": "",
          "type": "bool"
        }
      ],
      "stateMutability": "view",
      "type": "function"
    },
    {
      "inputs": [
        {
          "internalType": "address",
          "name": "to",
          "type": "address"
        },
        {
          "internalType": "string",
          "name": "uri",
          "type": "string"
        }
      ],
      "name": "mint",
      "outputs": [
        {
          "internalType": "uint256",
          "name": "",
          "type": "uint256"
        }
      ],
      "stateMutability": "nonpayable",
      "type": "function"
    },
    {
      "inputs": [],
      "name": "name",
      "outputs": [
        {
          "internalType": "string",
          "name": "",
          "type": "string"
        }
      ],
      "stateMutability": "view",
      "type": "function"
    },
    {
      "inputs": [],
      "name": "owner",
      "outputs": [
        {
          "internalType": "address",
          "name": "",
          "type": "address"
        }
      ],
      "stateMutability": "view",
      "type": "function"
    },
    {
      "inputs": [
        {
          "internalType": "uint256",
          "name": "tokenId",
          "type": "uint256"
        }
      ],
      "name": "ownerOf",
      "outputs": [
        {
          "internalType": "address",
          "name": "",
          "type": "address"
        }
      ],
      "stateMutability": "view",
      "type": "function"
    },
    {
      "inputs": [],
      "name": "renounceOwnership",
      "outputs": [],
      "stateMutability": "nonpayable",
      "type": "function"
    },
    {
      "inputs": [
        {
          "internalType": "address",
          "name": "to",
          "type": "address"
        },
        {
          "internalType": "string",
          "name": "uri",
          "type": "string"
        }
      ],
      "name": "safeMint",
      "outputs": [
        {
          "internalType": "uint256",
          "name": "",
          "type": "uint256"
        }
      ],
      "stateMutability": "nonpayable",
      "type": "function"
    },
    {
      "inputs": [
        {
          "internalType": "address",
          "name": "from",
          "type": "address"
        },
        {
          "internalType": "address",
          "name": "to",
          "type": "address"
        },
        {
          "internalType": "uint256",
          "name": "tokenId",
          "type": "uint256"
        }
      ],
      "name": "safeTransferFrom",
      "outputs": [],
      "stateMutability": "nonpayable",
      "type": "function"
    },
    {
      "inputs": [
        {
          "internalType": "address",
          "name": "from",
          "type": "address"
        },
        {
          "internalType": "address",
          "name": "to",
          "type": "address"
        },
        {
          "internalType": "uint256",
          "name": "tokenId",
          "type": "uint256"
        },
        {
          "internalType": "bytes",
          "name": "_data",
          "type": "bytes"
        }
      ],
      "name": "safeTransferFrom",
      "outputs": [],
      "stateMutability": "nonpayable",
      "type": "function"
    },
    {
      "inputs": [
        {
          "internalType": "address",
          "name": "operator",
          "type": "address"
        },
        {
          "internalType": "bool",
          "name": "approved",
          "type": "bool"
        }
      ],
      "name": "setApprovalForAll",
      "outputs": [],
      "stateMutability": "nonpayable",
      "type": "function"
    },
    {
      "inputs": [
        {
          "internalType": "string",
          "name": "newBaseURI",
          "type": "string"
        }
      ],
      "name": "setBaseURI",
      "outputs": [],
      "stateMutability": "nonpayable",
      "type": "function"
    },
    {
      "inputs": [
        {
          "internalType": "bytes4",
          "name": "interfaceId",
          "type": "bytes4"
        }
      ],
      "name": "supportsInterface",
      "outputs": [
        {
          "internalType": "bool",
          "name": "",
          "type": "bool"
        }
      ],
      "stateMutability": "view",
      "type": "function"
    },
    {
      "inputs": [],
      "name": "symbol",
      "outputs": [
        {
          "internalType": "string",
          "name": "",
          "type": "string"
        }
      ],
      "stateMutability": "view",
      "type": "function"
    },
    {
      "inputs": [
        {
          "internalType": "uint256",
          "name": "index",
          "type": "uint256"
        }
      ],
      "name": "tokenByIndex",
      "outputs": [
        {
          "internalType": "uint256",
          "name": "",
          "type": "uint256"
        }
      ],
      "stateMutability": "view",
      "type": "function"
    },
    {
      "inputs": [
        {
          "internalType": "address",
          "name": "owner",
          "type": "address"
        },
        {
          "internalType": "uint256",
          "name": "index",
          "type": "uint256"
        }
      ],
      "name": "tokenOfOwnerByIndex",
      "outputs": [
        {
          "internalType": "uint256",
          "name": "",
          "type": "uint256"
        }
      ],
      "stateMutability": "view",
      "type": "function"
    },
    {
      "inputs": [
        {
          "internalType": "uint256",
          "name": "tokenId",
          "type": "uint256"
        }
      ],
      "name": "tokenURI",
      "outputs": [
        {
          "internalType": "string",
          "name": "",
          "type": "string"
        }
      ],
      "stateMutability": "view",
      "type": "function"
    },
    {
      "inputs": [],
      "name": "totalSupply",
      "outputs": [
        {
          "internalType": "uint256",
          "name": "",
          "type": "uint256"
        }
      ],
      "stateMutability": "view",
      "type": "function"
    },
    {
      "inputs": [
        {
          "internalType": "address",
          "name": "from",
          "type": "address"
        },
        {
          "internalType": "address",
          "name": "to",
          "type": "address"
        },
        {
          "internalType": "uint256",
          "name": "tokenId",
          "type": "uint256"
        }
      ],
      "name": "transferFrom",
      "outputs": [],
      "stateMutability": "nonpayable",
      "type": "function"
    },
    {
      "inputs": [
        {
          "internalType": "address",
          "name": "newOwner",
          "type": "address"
        }
      ],
      "name": "transferOwnership",
      "outputs": [],
      "stateMutability": "nonpayable",
      "type": "function"
    },
    {
      "inputs": [
        {
          "internalType": "address",
          "name": "redeemer",
          "type": "address"
        },
        {
          "internalType": "string",
          "name": "uri",
          "type": "string"
        },
        {
          "internalType": "bytes",
          "name": "signature",
          "type": "bytes"
        }
      ],
      "name": "redeem",
      "outputs": [],
      "stateMutability": "nonpayable",
      "type": "function"
    }
  ],
  "bytecode": "0x6101206040523480156200001257600080fd5b506040518060400160405280600a81526020017f5461757265756d4e4654000000000000000000000000000000000000000000008152506040518060400160405280600181526020017f31000000000000000000000000000000000000000000000000000000000000008152506040518060400160405280600e81526020017f5461757265756d204552433732310000000000000000000000000000000000008152506040518060400160405280600781526020017f5461757265756d00000000000000000000000000000000000000000000000000815250816000908051906020019062000103929190620002bf565b5080600190805190602001906200011c929190620002bf565b5050506000620001316200027b60201b60201c565b905080600660006101000a81548173ffffffffffffffffffffffffffffffffffffffff021916908373ffffffffffffffffffffffffffffffffffffffff1602179055508073ffffffffffffffffffffffffffffffffffffffff16600073ffffffffffffffffffffffffffffffffffffffff167f8be0079c531659141344cd1fd0a4f28419497f9722a3daafe3b4186f6b6457e060405160405180910390a3506040518060200160405280600081525060089080519060200190620001f7929190620002bf565b5060008280519060200120905060008280519060200120905060007f8b73c3c69bb8fe3d512ecc4cf759cc79239f7b179b0ffacaa9a75d522b39400f90508260c081815250508160e081815250504660a08181525050620002608184846200028360201b60201c565b608081815250508061010081815250505050505050620004ac565b600033905090565b60008383834630604051602001620002a0959493929190620003a2565b6040516020818303038152906040528051906020012090509392505050565b828054620002cd9062000447565b90600052602060002090601f016020900481019282620002f157600085556200033d565b82601f106200030c57805160ff19168380011785556200033d565b828001600101855582156200033d579182015b828111156200033c5782518255916020019190600101906200031f565b5b5090506200034c919062000350565b5090565b5b808211156200036b57600081600090555060010162000351565b5090565b6200037a81620003ff565b82525050565b6200038b8162000413565b82525050565b6200039c816200043d565b82525050565b600060a082019050620003b9600083018862000380565b620003c8602083018762000380565b620003d7604083018662000380565b620003e6606083018562000391565b620003f560808301846200036f565b9695505050505050565b60006200040c826200041d565b9050919050565b6000819050919050565b600073ffffffffffffffffffffffffffffffffffffffff82169050919050565b6000819050919050565b600060028204905060018216806200046057607f821691505b602082108114156200047757620004766200047d565b5b50919050565b7f4e487b7100000000000000000000000000000000000000000000000000000000600052602260045260246000fd5b60805160a05160c05160e05161010051614551620004f1600039600061232a0152600061236c0152600061234b015260006122d7015260006122ff01526145516000f3fe608060405234801561001057600080fd5b506004361061014d5760003560e01c806370a08231116100c3578063b88d4fde1161007c578063b88d4fde1461039c578063c87b56dd146103b8578063d0def521146103e8578063d204c45e14610418578063e985e9c514610448578063f2fde38b146104785761014d565b806370a08231146102ee578063715018a61461031e57806377a9c7ef146103285780638da5cb5b1461034457806395d89b4114610362578063a22cb465146103805761014d565b806323b872dd1161011557806323b872dd1461020a5780632f745c591461022657806342842e0e146102565780634f6ccce71461027257806355f804b3146102a25780636352211e146102be5761014d565b806301ffc9a71461015257806306fdde0314610182578063081812fc146101a0578063095ea7b3146101d057806318160ddd146101ec575b600080fd5b61016c60048036038101906101679190612f2e565b610494565b60405161017991906136be565b60405180910390f35b61018a610576565b60405161019791906137d5565b60405180910390f35b6101ba60048036038101906101b59190612fc1565b610608565b6040516101c79190613625565b60405180910390f35b6101ea60048036038101906101e59190612ef2565b61068d565b005b6101f46107a5565b6040516102019190613af7565b60405180910390f35b610224600480360381019061021f9190612d0b565b6107b2565b005b610240600480360381019061023b9190612ef2565b610812565b60405161024d9190613af7565b60405180910390f35b610270600480360381019061026b9190612d0b565b6108b7565b005b61028c60048036038101906102879190612fc1565b6108d7565b6040516102999190613af7565b60405180910390f35b6102bc60048036038101906102b79190612f80565b61096e565b005b6102d860048036038101906102d39190612fc1565b610a04565b6040516102e59190613625565b60405180910390f35b61030860048036038101906103039190612ca6565b610ab6565b6040516103159190613af7565b60405180910390f35b610326610b6e565b005b610342600480360381019061033d9190612e69565b610cab565b005b61034c610e23565b6040516103599190613625565b60405180910390f35b61036a610e4d565b60405161037791906137d5565b60405180910390f35b61039a60048036038101906103959190612dd5565b610edf565b005b6103b660048036038101906103b19190612d5a565b611060565b005b6103d260048036038101906103cd9190612fc1565b6110c2565b6040516103df91906137d5565b60405180910390f35b61040260048036038101906103fd9190612e11565b6110d4565b60405161040f9190613af7565b60405180910390f35b610432600480360381019061042d9190612e11565b611127565b60405161043f9190613af7565b60405180910390f35b610462600480360381019061045d9190612ccf565b61117a565b60405161046f91906136be565b60405180910390f35b610492600480360381019061048d9190612ca6565b61120e565b005b60007f80ac58cd000000000000000000000000000000000000000000000000000000007bffffffffffffffffffffffffffffffffffffffffffffffffffffffff1916827bffffffffffffffffffffffffffffffffffffffffffffffffffffffff1916148061055f57507f5b5e139f000000000000000000000000000000000000000000000000000000007bffffffffffffffffffffffffffffffffffffffffffffffffffffffff1916827bffffffffffffffffffffffffffffffffffffffffffffffffffffffff1916145b8061056f575061056e826113ba565b5b9050919050565b60606000805461058590613d53565b80601f01602080910402602001604051908101604052809291908181526020018280546105b190613d53565b80156105fe5780601f106105d3576101008083540402835291602001916105fe565b820191906000526020600020905b8154815290600101906020018083116105e157829003601f168201915b5050505050905090565b600061061382611434565b610652576040517f08c379a0000000000000000000000000000000000000000000000000000000008152600401610649906139f7565b60405180910390fd5b6004600083815260200190815260200160002060009054906101000a900473ffffffffffffffffffffffffffffffffffffffff169050919050565b600061069882610a04565b90508073ffffffffffffffffffffffffffffffffffffffff168373ffffffffffffffffffffffffffffffffffffffff161415610709576040517f08c379a000000000000000000000000000000000000000000000000000000000815260040161070090613a77565b60405180910390fd5b8073ffffffffffffffffffffffffffffffffffffffff166107286114a0565b73ffffffffffffffffffffffffffffffffffffffff1614806107575750610756816107516114a0565b61117a565b5b610796576040517f08c379a000000000000000000000000000000000000000000000000000000000815260040161078d90613957565b60405180910390fd5b6107a083836114a8565b505050565b6000600b80549050905090565b6107c36107bd6114a0565b82611561565b610802576040517f08c379a00000000000000000000000000000000000000000000000000000000081526004016107f990613a97565b60405180910390fd5b61080d83838361163f565b505050565b600061081d83610ab6565b821061085e576040517f08c379a000000000000000000000000000000000000000000000000000000000815260040161085590613837565b60405180910390fd5b600960008473ffffffffffffffffffffffffffffffffffffffff1673ffffffffffffffffffffffffffffffffffffffff168152602001908152602001600020600083815260200190815260200160002054905092915050565b6108d283838360405180602001604052806000815250611060565b505050565b60006108e16107a5565b8210610922576040517f08c379a000000000000000000000000000000000000000000000000000000000815260040161091990613ab7565b60405180910390fd5b600b828154811061095c577f4e487b7100000000000000000000000000000000000000000000000000000000600052603260045260246000fd5b90600052602060002001549050919050565b6109766114a0565b73ffffffffffffffffffffffffffffffffffffffff16610994610e23565b73ffffffffffffffffffffffffffffffffffffffff16146109ea576040517f08c379a00000000000000000000000000000000000000000000000000000000081526004016109e190613a17565b60405180910390fd5b8060089080519060200190610a009291906129b0565b5050565b6000806002600084815260200190815260200160002060009054906101000a900473ffffffffffffffffffffffffffffffffffffffff169050600073ffffffffffffffffffffffffffffffffffffffff168173ffffffffffffffffffffffffffffffffffffffff161415610aad576040517f08c379a0000000000000000000000000000000000000000000000000000000008152600401610aa490613997565b60405180910390fd5b80915050919050565b60008073ffffffffffffffffffffffffffffffffffffffff168273ffffffffffffffffffffffffffffffffffffffff161415610b27576040517f08c379a0000000000000000000000000000000000000000000000000000000008152600401610b1e90613977565b60405180910390fd5b600360008373ffffffffffffffffffffffffffffffffffffffff1673ffffffffffffffffffffffffffffffffffffffff168152602001908152602001600020549050919050565b610b766114a0565b73ffffffffffffffffffffffffffffffffffffffff16610b94610e23565b73ffffffffffffffffffffffffffffffffffffffff1614610bea576040517f08c379a0000000000000000000000000000000000000000000000000000000008152600401610be190613a17565b60405180910390fd5b600073ffffffffffffffffffffffffffffffffffffffff16600660009054906101000a900473ffffffffffffffffffffffffffffffffffffffff1673ffffffffffffffffffffffffffffffffffffffff167f8be0079c531659141344cd1fd0a4f28419497f9722a3daafe3b4186f6b6457e060405160405180910390a36000600660006101000a81548173ffffffffffffffffffffffffffffffffffffffff021916908373ffffffffffffffffffffffffffffffffffffffff160217905550565b6000610d04610cba868661189b565b84848080601f016020809104026020016040519081016040528093929190818152602001838380828437600081840152601f19601f8201169050808301925050505050505061190d565b90508073ffffffffffffffffffffffffffffffffffffffff163373ffffffffffffffffffffffffffffffffffffffff161480610d465750610d45813361117a565b5b610d85576040517f08c379a0000000000000000000000000000000000000000000000000000000008152600401610d7c90613937565b60405180910390fd5b6000610d928287876110d4565b9050610daf82888360405180602001604052806000815250611989565b8673ffffffffffffffffffffffffffffffffffffffff168273ffffffffffffffffffffffffffffffffffffffff167fb81d90300775327e5ff9b7e43342852858f8bc3b5dfeb49ba785363e219773dc88888888604051610e12949392919061379a565b60405180910390a350505050505050565b6000600660009054906101000a900473ffffffffffffffffffffffffffffffffffffffff16905090565b606060018054610e5c90613d53565b80601f0160208091040260200160405190810160405280929190818152602001828054610e8890613d53565b8015610ed55780601f10610eaa57610100808354040283529160200191610ed5565b820191906000526020600020905b815481529060010190602001808311610eb857829003601f168201915b5050505050905090565b610ee76114a0565b73ffffffffffffffffffffffffffffffffffffffff168273ffffffffffffffffffffffffffffffffffffffff161415610f55576040517f08c379a0000000000000000000000000000000000000000000000000000000008152600401610f4c906138d7565b60405180910390fd5b8060056000610f626114a0565b73ffffffffffffffffffffffffffffffffffffffff1673ffffffffffffffffffffffffffffffffffffffff16815260200190815260200160002060008473ffffffffffffffffffffffffffffffffffffffff1673ffffffffffffffffffffffffffffffffffffffff16815260200190815260200160002060006101000a81548160ff0219169083151502179055508173ffffffffffffffffffffffffffffffffffffffff1661100f6114a0565b73ffffffffffffffffffffffffffffffffffffffff167f17307eab39ab6107e8899845ad3d59bd9653f200f220920489ca2b5937696c318360405161105491906136be565b60405180910390a35050565b61107161106b6114a0565b83611561565b6110b0576040517f08c379a00000000000000000000000000000000000000000000000000000000081526004016110a790613a97565b60405180910390fd5b6110bc84848484611989565b50505050565b60606110cd826119e5565b9050919050565b6000808484846040516020016110ec9392919061368c565b6040516020818303038152906040528051906020012060001c90506111118582611b22565b61111c818585611cf0565b809150509392505050565b60008084848460405160200161113f9392919061368c565b6040516020818303038152906040528051906020012060001c90506111648582611d60565b61116f818585611cf0565b809150509392505050565b6000600560008473ffffffffffffffffffffffffffffffffffffffff1673ffffffffffffffffffffffffffffffffffffffff16815260200190815260200160002060008373ffffffffffffffffffffffffffffffffffffffff1673ffffffffffffffffffffffffffffffffffffffff16815260200190815260200160002060009054906101000a900460ff16905092915050565b6112166114a0565b73ffffffffffffffffffffffffffffffffffffffff16611234610e23565b73ffffffffffffffffffffffffffffffffffffffff161461128a576040517f08c379a000000000000000000000000000000000000000000000000000000000815260040161128190613a17565b60405180910390fd5b600073ffffffffffffffffffffffffffffffffffffffff168173ffffffffffffffffffffffffffffffffffffffff1614156112fa576040517f08c379a00000000000000000000000000000000000000000000000000000000081526004016112f190613877565b60405180910390fd5b8073ffffffffffffffffffffffffffffffffffffffff16600660009054906101000a900473ffffffffffffffffffffffffffffffffffffffff1673ffffffffffffffffffffffffffffffffffffffff167f8be0079c531659141344cd1fd0a4f28419497f9722a3daafe3b4186f6b6457e060405160405180910390a380600660006101000a81548173ffffffffffffffffffffffffffffffffffffffff021916908373ffffffffffffffffffffffffffffffffffffffff16021790555050565b60007f780e9d63000000000000000000000000000000000000000000000000000000007bffffffffffffffffffffffffffffffffffffffffffffffffffffffff1916827bffffffffffffffffffffffffffffffffffffffffffffffffffffffff1916148061142d575061142c82611d7e565b5b9050919050565b60008073ffffffffffffffffffffffffffffffffffffffff166002600084815260200190815260200160002060009054906101000a900473ffffffffffffffffffffffffffffffffffffffff1673ffffffffffffffffffffffffffffffffffffffff1614159050919050565b600033905090565b816004600083815260200190815260200160002060006101000a81548173ffffffffffffffffffffffffffffffffffffffff021916908373ffffffffffffffffffffffffffffffffffffffff160217905550808273ffffffffffffffffffffffffffffffffffffffff1661151b83610a04565b73ffffffffffffffffffffffffffffffffffffffff167f8c5be1e5ebec7d5bd14f71427d1e84f3dd0314c0f7b2291e5b200ac8c7c3b92560405160405180910390a45050565b600061156c82611434565b6115ab576040517f08c379a00000000000000000000000000000000000000000000000000000000081526004016115a290613917565b60405180910390fd5b60006115b683610a04565b90508073ffffffffffffffffffffffffffffffffffffffff168473ffffffffffffffffffffffffffffffffffffffff16148061162557508373ffffffffffffffffffffffffffffffffffffffff1661160d84610608565b73ffffffffffffffffffffffffffffffffffffffff16145b806116365750611635818561117a565b5b91505092915050565b8273ffffffffffffffffffffffffffffffffffffffff1661165f82610a04565b73ffffffffffffffffffffffffffffffffffffffff16146116b5576040517f08c379a00000000000000000000000000000000000000000000000000000000081526004016116ac90613a37565b60405180910390fd5b600073ffffffffffffffffffffffffffffffffffffffff168273ffffffffffffffffffffffffffffffffffffffff161415611725576040517f08c379a000000000000000000000000000000000000000000000000000000000815260040161171c906138b7565b60405180910390fd5b611730838383611e60565b61173b6000826114a8565b6001600360008573ffffffffffffffffffffffffffffffffffffffff1673ffffffffffffffffffffffffffffffffffffffff168152602001908152602001600020600082825461178b9190613c52565b925050819055506001600360008473ffffffffffffffffffffffffffffffffffffffff1673ffffffffffffffffffffffffffffffffffffffff16815260200190815260200160002060008282546117e29190613bfc565b92505081905550816002600083815260200190815260200160002060006101000a81548173ffffffffffffffffffffffffffffffffffffffff021916908373ffffffffffffffffffffffffffffffffffffffff160217905550808273ffffffffffffffffffffffffffffffffffffffff168473ffffffffffffffffffffffffffffffffffffffff167fddf252ad1be2c89b69c2b068fc378daa952ba7f163c4a11628f55a4df523b3ef60405160405180910390a4505050565b60006119057fa6b58c98ea4cc2264b50f22158f7630dd0e4b1d5e79193ec25dcf39653dda06f84846040516118d1929190613589565b60405180910390206040516020016118ea9291906136d9565b60405160208183030381529060405280519060200120611e70565b905092915050565b6000806040518060400160405280601c81526020017f19457468657265756d205369676e6564204d6573736167653a0a33320000000081525090506000818560405160200161195d9291906135a2565b60405160208183030381529060405280519060200120905061197f8185611e8a565b9250505092915050565b61199484848461163f565b6119a084848484611f54565b6119df576040517f08c379a00000000000000000000000000000000000000000000000000000000081526004016119d690613857565b60405180910390fd5b50505050565b60606119f082611434565b611a2f576040517f08c379a0000000000000000000000000000000000000000000000000000000008152600401611a2690613a57565b60405180910390fd5b6000611a396120eb565b90506000815111611ae557600760008481526020019081526020016000208054611a6290613d53565b80601f0160208091040260200160405190810160405280929190818152602001828054611a8e90613d53565b8015611adb5780601f10611ab057610100808354040283529160200191611adb565b820191906000526020600020905b815481529060010190602001808311611abe57829003601f168201915b5050505050611b1a565b8060076000858152602001908152602001600020604051602001611b0a9291906135ca565b6040516020818303038152906040525b915050919050565b600073ffffffffffffffffffffffffffffffffffffffff168273ffffffffffffffffffffffffffffffffffffffff161415611b92576040517f08c379a0000000000000000000000000000000000000000000000000000000008152600401611b89906139d7565b60405180910390fd5b611b9b81611434565b15611bdb576040517f08c379a0000000000000000000000000000000000000000000000000000000008152600401611bd290613897565b60405180910390fd5b611be760008383611e60565b6001600360008473ffffffffffffffffffffffffffffffffffffffff1673ffffffffffffffffffffffffffffffffffffffff1681526020019081526020016000206000828254611c379190613bfc565b92505081905550816002600083815260200190815260200160002060006101000a81548173ffffffffffffffffffffffffffffffffffffffff021916908373ffffffffffffffffffffffffffffffffffffffff160217905550808273ffffffffffffffffffffffffffffffffffffffff16600073ffffffffffffffffffffffffffffffffffffffff167fddf252ad1be2c89b69c2b068fc378daa952ba7f163c4a11628f55a4df523b3ef60405160405180910390a45050565b611cf983611434565b611d38576040517f08c379a0000000000000000000000000000000000000000000000000000000008152600401611d2f90613ad7565b60405180910390fd5b8181600760008681526020019081526020016000209190611d5a929190612a36565b50505050565b611d7a8282604051806020016040528060008152506120fa565b5050565b60007f80ac58cd000000000000000000000000000000000000000000000000000000007bffffffffffffffffffffffffffffffffffffffffffffffffffffffff1916827bffffffffffffffffffffffffffffffffffffffffffffffffffffffff19161480611e4957507f5b5e139f000000000000000000000000000000000000000000000000000000007bffffffffffffffffffffffffffffffffffffffffffffffffffffffff1916827bffffffffffffffffffffffffffffffffffffffffffffffffffffffff1916145b80611e595750611e5882612155565b5b9050919050565b611e6b8383836121bf565b505050565b6000611e83611e7d6122d3565b83612396565b9050919050565b600080600080604185511415611eb7576020850151925060408501519150606085015160001a9050611f3d565b604085511415611f01576040850151602086015193507f7fffffffffffffffffffffffffffffffffffffffffffffffffffffffffffffff81169250601b8160ff1c01915050611f3c565b6040517f08c379a0000000000000000000000000000000000000000000000000000000008152600401611f3390613817565b60405180910390fd5b5b611f49868285856123c9565b935050505092915050565b6000611f758473ffffffffffffffffffffffffffffffffffffffff16612554565b156120de578373ffffffffffffffffffffffffffffffffffffffff1663150b7a02611f9e6114a0565b8786866040518563ffffffff1660e01b8152600401611fc09493929190613640565b602060405180830381600087803b158015611fda57600080fd5b505af192505050801561200b57506040513d601f19601f820116820180604052508101906120089190612f57565b60015b61208e573d806000811461203b576040519150601f19603f3d011682016040523d82523d6000602084013e612040565b606091505b50600081511415612086576040517f08c379a000000000000000000000000000000000000000000000000000000000815260040161207d90613857565b60405180910390fd5b805181602001fd5b63150b7a0260e01b7bffffffffffffffffffffffffffffffffffffffffffffffffffffffff1916817bffffffffffffffffffffffffffffffffffffffffffffffffffffffff1916149150506120e3565b600190505b949350505050565b60606120f5612567565b905090565b6121048383611b22565b6121116000848484611f54565b612150576040517f08c379a000000000000000000000000000000000000000000000000000000000815260040161214790613857565b60405180910390fd5b505050565b60007f01ffc9a7000000000000000000000000000000000000000000000000000000007bffffffffffffffffffffffffffffffffffffffffffffffffffffffff1916827bffffffffffffffffffffffffffffffffffffffffffffffffffffffff1916149050919050565b6121ca8383836125f9565b600073ffffffffffffffffffffffffffffffffffffffff168373ffffffffffffffffffffffffffffffffffffffff16141561220d57612208816125fe565b61224c565b8173ffffffffffffffffffffffffffffffffffffffff168373ffffffffffffffffffffffffffffffffffffffff161461224b5761224a8382612647565b5b5b600073ffffffffffffffffffffffffffffffffffffffff168273ffffffffffffffffffffffffffffffffffffffff16141561228f5761228a816127b4565b6122ce565b8273ffffffffffffffffffffffffffffffffffffffff168273ffffffffffffffffffffffffffffffffffffffff16146122cd576122cc82826128f7565b5b5b505050565b60007f0000000000000000000000000000000000000000000000000000000000000000461415612325577f00000000000000000000000000000000000000000000000000000000000000009050612393565b6123907f00000000000000000000000000000000000000000000000000000000000000007f00000000000000000000000000000000000000000000000000000000000000007f0000000000000000000000000000000000000000000000000000000000000000612976565b90505b90565b600082826040516020016123ab9291906135ee565b60405160208183030381529060405280519060200120905092915050565b60007f7fffffffffffffffffffffffffffffff5d576e7357a4501ddfe92f46681b20a08260001c1115612431576040517f08c379a0000000000000000000000000000000000000000000000000000000008152600401612428906138f7565b60405180910390fd5b601b8460ff1614806124465750601c8460ff16145b612485576040517f08c379a000000000000000000000000000000000000000000000000000000000815260040161247c906139b7565b60405180910390fd5b6000600186868686604051600081526020016040526040516124aa9493929190613755565b6020604051602081039080840390855afa1580156124cc573d6000803e3d6000fd5b505050602060405103519050600073ffffffffffffffffffffffffffffffffffffffff168173ffffffffffffffffffffffffffffffffffffffff161415612548576040517f08c379a000000000000000000000000000000000000000000000000000000000815260040161253f906137f7565b60405180910390fd5b80915050949350505050565b600080823b905060008111915050919050565b60606008805461257690613d53565b80601f01602080910402602001604051908101604052809291908181526020018280546125a290613d53565b80156125ef5780601f106125c4576101008083540402835291602001916125ef565b820191906000526020600020905b8154815290600101906020018083116125d257829003601f168201915b5050505050905090565b505050565b600b80549050600c600083815260200190815260200160002081905550600b81908060018154018082558091505060019003906000526020600020016000909190919091505550565b6000600161265484610ab6565b61265e9190613c52565b90506000600a6000848152602001908152602001600020549050818114612743576000600960008673ffffffffffffffffffffffffffffffffffffffff1673ffffffffffffffffffffffffffffffffffffffff168152602001908152602001600020600084815260200190815260200160002054905080600960008773ffffffffffffffffffffffffffffffffffffffff1673ffffffffffffffffffffffffffffffffffffffff16815260200190815260200160002060008481526020019081526020016000208190555081600a600083815260200190815260200160002081905550505b600a600084815260200190815260200160002060009055600960008573ffffffffffffffffffffffffffffffffffffffff1673ffffffffffffffffffffffffffffffffffffffff16815260200190815260200160002060008381526020019081526020016000206000905550505050565b60006001600b805490506127c89190613c52565b90506000600c60008481526020019081526020016000205490506000600b838154811061281e577f4e487b7100000000000000000000000000000000000000000000000000000000600052603260045260246000fd5b9060005260206000200154905080600b8381548110612866577f4e487b7100000000000000000000000000000000000000000000000000000000600052603260045260246000fd5b906000526020600020018190555081600c600083815260200190815260200160002081905550600c600085815260200190815260200160002060009055600b8054806128db577f4e487b7100000000000000000000000000000000000000000000000000000000600052603160045260246000fd5b6001900381819060005260206000200160009055905550505050565b600061290283610ab6565b905081600960008573ffffffffffffffffffffffffffffffffffffffff1673ffffffffffffffffffffffffffffffffffffffff16815260200190815260200160002060008381526020019081526020016000208190555080600a600084815260200190815260200160002081905550505050565b60008383834630604051602001612991959493929190613702565b6040516020818303038152906040528051906020012090509392505050565b8280546129bc90613d53565b90600052602060002090601f0160209004810192826129de5760008555612a25565b82601f106129f757805160ff1916838001178555612a25565b82800160010185558215612a25579182015b82811115612a24578251825591602001919060010190612a09565b5b509050612a329190612abc565b5090565b828054612a4290613d53565b90600052602060002090601f016020900481019282612a645760008555612aab565b82601f10612a7d57803560ff1916838001178555612aab565b82800160010185558215612aab579182015b82811115612aaa578235825591602001919060010190612a8f565b5b509050612ab89190612abc565b5090565b5b80821115612ad5576000816000905550600101612abd565b5090565b6000612aec612ae784613b37565b613b12565b905082815260208101848484011115612b0457600080fd5b612b0f848285613d11565b509392505050565b6000612b2a612b2584613b68565b613b12565b905082815260208101848484011115612b4257600080fd5b612b4d848285613d11565b509392505050565b600081359050612b64816144bf565b92915050565b600081359050612b79816144d6565b92915050565b600081359050612b8e816144ed565b92915050565b600081519050612ba3816144ed565b92915050565b60008083601f840112612bbb57600080fd5b8235905067ffffffffffffffff811115612bd457600080fd5b602083019150836001820283011115612bec57600080fd5b9250929050565b600082601f830112612c0457600080fd5b8135612c14848260208601612ad9565b91505092915050565b60008083601f840112612c2f57600080fd5b8235905067ffffffffffffffff811115612c4857600080fd5b602083019150836001820283011115612c6057600080fd5b9250929050565b600082601f830112612c7857600080fd5b8135612c88848260208601612b17565b91505092915050565b600081359050612ca081614504565b92915050565b600060208284031215612cb857600080fd5b6000612cc684828501612b55565b91505092915050565b60008060408385031215612ce257600080fd5b6000612cf085828601612b55565b9250506020612d0185828601612b55565b9150509250929050565b600080600060608486031215612d2057600080fd5b6000612d2e86828701612b55565b9350506020612d3f86828701612b55565b9250506040612d5086828701612c91565b9150509250925092565b60008060008060808587031215612d7057600080fd5b6000612d7e87828801612b55565b9450506020612d8f87828801612b55565b9350506040612da087828801612c91565b925050606085013567ffffffffffffffff811115612dbd57600080fd5b612dc987828801612bf3565b91505092959194509250565b60008060408385031215612de857600080fd5b6000612df685828601612b55565b9250506020612e0785828601612b6a565b9150509250929050565b600080600060408486031215612e2657600080fd5b6000612e3486828701612b55565b935050602084013567ffffffffffffffff811115612e5157600080fd5b612e5d86828701612c1d565b92509250509250925092565b600080600080600060608688031215612e8157600080fd5b6000612e8f88828901612b55565b955050602086013567ffffffffffffffff811115612eac57600080fd5b612eb888828901612c1d565b9450945050604086013567ffffffffffffffff811115612ed757600080fd5b612ee388828901612ba9565b92509250509295509295909350565b60008060408385031215612f0557600080fd5b6000612f1385828601612b55565b9250506020612f2485828601612c91565b9150509250929050565b600060208284031215612f4057600080fd5b6000612f4e84828501612b7f565b91505092915050565b600060208284031215612f6957600080fd5b6000612f7784828501612b94565b91505092915050565b600060208284031215612f9257600080fd5b600082013567ffffffffffffffff811115612fac57600080fd5b612fb884828501612c67565b91505092915050565b600060208284031215612fd357600080fd5b6000612fe184828501612c91565b91505092915050565b612ff381613c86565b82525050565b61300281613c98565b82525050565b61301181613ca4565b82525050565b61302861302382613ca4565b613db6565b82525050565b600061303a8385613bc4565b9350613047838584613d11565b61305083613e4d565b840190509392505050565b60006130678385613bd5565b9350613074838584613d11565b82840190509392505050565b600061308b82613bae565b6130958185613bc4565b93506130a5818560208601613d20565b6130ae81613e4d565b840191505092915050565b60006130c482613bae565b6130ce8185613bd5565b93506130de818560208601613d20565b80840191505092915050565b60006130f68385613be0565b9350613103838584613d11565b61310c83613e4d565b840190509392505050565b600061312282613bb9565b61312c8185613be0565b935061313c818560208601613d20565b61314581613e4d565b840191505092915050565b600061315b82613bb9565b6131658185613bf1565b9350613175818560208601613d20565b80840191505092915050565b6000815461318e81613d53565b6131988186613bf1565b945060018216600081146131b357600181146131c4576131f7565b60ff198316865281860193506131f7565b6131cd85613b99565b60005b838110156131ef578154818901526001820191506020810190506131d0565b838801955050505b50505092915050565b600061320d601883613be0565b915061321882613e5e565b602082019050919050565b6000613230601f83613be0565b915061323b82613e87565b602082019050919050565b6000613253602b83613be0565b915061325e82613eb0565b604082019050919050565b6000613276603283613be0565b915061328182613eff565b604082019050919050565b6000613299602683613be0565b91506132a482613f4e565b604082019050919050565b60006132bc601c83613be0565b91506132c782613f9d565b602082019050919050565b60006132df600283613bf1565b91506132ea82613fc6565b600282019050919050565b6000613302602483613be0565b915061330d82613fef565b604082019050919050565b6000613325601983613be0565b91506133308261403e565b602082019050919050565b6000613348602283613be0565b915061335382614067565b604082019050919050565b600061336b602c83613be0565b9150613376826140b6565b604082019050919050565b600061338e601983613be0565b915061339982614105565b602082019050919050565b60006133b1603883613be0565b91506133bc8261412e565b604082019050919050565b60006133d4602a83613be0565b91506133df8261417d565b604082019050919050565b60006133f7602983613be0565b9150613402826141cc565b604082019050919050565b600061341a602283613be0565b91506134258261421b565b604082019050919050565b600061343d602083613be0565b91506134488261426a565b602082019050919050565b6000613460602c83613be0565b915061346b82614293565b604082019050919050565b6000613483602083613be0565b915061348e826142e2565b602082019050919050565b60006134a6602983613be0565b91506134b18261430b565b604082019050919050565b60006134c9602f83613be0565b91506134d48261435a565b604082019050919050565b60006134ec602183613be0565b91506134f7826143a9565b604082019050919050565b600061350f603183613be0565b915061351a826143f8565b604082019050919050565b6000613532602c83613be0565b915061353d82614447565b604082019050919050565b6000613555601483613be0565b915061356082614496565b602082019050919050565b61357481613cfa565b82525050565b61358381613d04565b82525050565b600061359682848661305b565b91508190509392505050565b60006135ae82856130b9565b91506135ba8284613017565b6020820191508190509392505050565b60006135d68285613150565b91506135e28284613181565b91508190509392505050565b60006135f9826132d2565b91506136058285613017565b6020820191506136158284613017565b6020820191508190509392505050565b600060208201905061363a6000830184612fea565b92915050565b60006080820190506136556000830187612fea565b6136626020830186612fea565b61366f604083018561356b565b81810360608301526136818184613080565b905095945050505050565b60006040820190506136a16000830186612fea565b81810360208301526136b48184866130ea565b9050949350505050565b60006020820190506136d36000830184612ff9565b92915050565b60006040820190506136ee6000830185613008565b6136fb6020830184613008565b9392505050565b600060a0820190506137176000830188613008565b6137246020830187613008565b6137316040830186613008565b61373e606083018561356b565b61374b6080830184612fea565b9695505050505050565b600060808201905061376a6000830187613008565b613777602083018661357a565b6137846040830185613008565b6137916060830184613008565b95945050505050565b600060408201905081810360008301526137b58186886130ea565b905081810360208301526137ca81848661302e565b905095945050505050565b600060208201905081810360008301526137ef8184613117565b905092915050565b6000602082019050818103600083015261381081613200565b9050919050565b6000602082019050818103600083015261383081613223565b9050919050565b6000602082019050818103600083015261385081613246565b9050919050565b6000602082019050818103600083015261387081613269565b9050919050565b600060208201905081810360008301526138908161328c565b9050919050565b600060208201905081810360008301526138b0816132af565b9050919050565b600060208201905081810360008301526138d0816132f5565b9050919050565b600060208201905081810360008301526138f081613318565b9050919050565b600060208201905081810360008301526139108161333b565b9050919050565b600060208201905081810360008301526139308161335e565b9050919050565b6000602082019050818103600083015261395081613381565b9050919050565b60006020820190508181036000830152613970816133a4565b9050919050565b60006020820190508181036000830152613990816133c7565b9050919050565b600060208201905081810360008301526139b0816133ea565b9050919050565b600060208201905081810360008301526139d08161340d565b9050919050565b600060208201905081810360008301526139f081613430565b9050919050565b60006020820190508181036000830152613a1081613453565b9050919050565b60006020820190508181036000830152613a3081613476565b9050919050565b60006020820190508181036000830152613a5081613499565b9050919050565b60006020820190508181036000830152613a70816134bc565b9050919050565b60006020820190508181036000830152613a90816134df565b9050919050565b60006020820190508181036000830152613ab081613502565b9050919050565b60006020820190508181036000830152613ad081613525565b9050919050565b60006020820190508181036000830152613af081613548565b9050919050565b6000602082019050613b0c600083018461356b565b92915050565b6000613b1c613b2d565b9050613b288282613d85565b919050565b6000604051905090565b600067ffffffffffffffff821115613b5257613b51613e1e565b5b613b5b82613e4d565b9050602081019050919050565b600067ffffffffffffffff821115613b8357613b82613e1e565b5b613b8c82613e4d565b9050602081019050919050565b60008190508160005260206000209050919050565b600081519050919050565b600081519050919050565b600082825260208201905092915050565b600081905092915050565b600082825260208201905092915050565b600081905092915050565b6000613c0782613cfa565b9150613c1283613cfa565b9250827fffffffffffffffffffffffffffffffffffffffffffffffffffffffffffffffff03821115613c4757613c46613dc0565b5b828201905092915050565b6000613c5d82613cfa565b9150613c6883613cfa565b925082821015613c7b57613c7a613dc0565b5b828203905092915050565b6000613c9182613cda565b9050919050565b60008115159050919050565b6000819050919050565b60007fffffffff0000000000000000000000000000000000000000000000000000000082169050919050565b600073ffffffffffffffffffffffffffffffffffffffff82169050919050565b6000819050919050565b600060ff82169050919050565b82818337600083830152505050565b60005b83811015613d3e578082015181840152602081019050613d23565b83811115613d4d576000848401525b50505050565b60006002820490506001821680613d6b57607f821691505b60208210811415613d7f57613d7e613def565b5b50919050565b613d8e82613e4d565b810181811067ffffffffffffffff82111715613dad57613dac613e1e565b5b80604052505050565b6000819050919050565b7f4e487b7100000000000000000000000000000000000000000000000000000000600052601160045260246000fd5b7f4e487b7100000000000000000000000000000000000000000000000000000000600052602260045260246000fd5b7f4e487b7100000000000000000000000000000000000000000000000000000000600052604160045260246000fd5b6000601f19601f8301169050919050565b7f45434453413a20696e76616c6964207369676e61747572650000000000000000600082015250565b7f45434453413a20696e76616c6964207369676e6174757265206c656e67746800600082015250565b7f455243373231456e756d657261626c653a206f776e657220696e646578206f7560008201527f74206f6620626f756e6473000000000000000000000000000000000000000000602082015250565b7f4552433732313a207472616e7366657220746f206e6f6e20455243373231526560008201527f63656976657220696d706c656d656e7465720000000000000000000000000000602082015250565b7f4f776e61626c653a206e6577206f776e657220697320746865207a65726f206160008201527f6464726573730000000000000000000000000000000000000000000000000000602082015250565b7f4552433732313a20746f6b656e20616c7265616479206d696e74656400000000600082015250565b7f1901000000000000000000000000000000000000000000000000000000000000600082015250565b7f4552433732313a207472616e7366657220746f20746865207a65726f2061646460008201527f7265737300000000000000000000000000000000000000000000000000000000602082015250565b7f4552433732313a20617070726f766520746f2063616c6c657200000000000000600082015250565b7f45434453413a20696e76616c6964207369676e6174757265202773272076616c60008201527f7565000000000000000000000000000000000000000000000000000000000000602082015250565b7f4552433732313a206f70657261746f7220717565727920666f72206e6f6e657860008201527f697374656e7420746f6b656e0000000000000000000000000000000000000000602082015250565b7f4d5553545f42455f4f574e45525f4f525f415050524f56454400000000000000600082015250565b7f4552433732313a20617070726f76652063616c6c6572206973206e6f74206f7760008201527f6e6572206e6f7220617070726f76656420666f7220616c6c0000000000000000602082015250565b7f4552433732313a2062616c616e636520717565727920666f7220746865207a6560008201527f726f206164647265737300000000000000000000000000000000000000000000602082015250565b7f4552433732313a206f776e657220717565727920666f72206e6f6e657869737460008201527f656e7420746f6b656e0000000000000000000000000000000000000000000000602082015250565b7f45434453413a20696e76616c6964207369676e6174757265202776272076616c60008201527f7565000000000000000000000000000000000000000000000000000000000000602082015250565b7f4552433732313a206d696e7420746f20746865207a65726f2061646472657373600082015250565b7f4552433732313a20617070726f76656420717565727920666f72206e6f6e657860008201527f697374656e7420746f6b656e0000000000000000000000000000000000000000602082015250565b7f4f776e61626c653a2063616c6c6572206973206e6f7420746865206f776e6572600082015250565b7f4552433732313a207472616e73666572206f6620746f6b656e2074686174206960008201527f73206e6f74206f776e0000000000000000000000000000000000000000000000602082015250565b7f4552433732314d657461646174613a2055524920717565727920666f72206e6f60008201527f6e6578697374656e7420746f6b656e0000000000000000000000000000000000602082015250565b7f4552433732313a20617070726f76616c20746f2063757272656e74206f776e6560008201527f7200000000000000000000000000000000000000000000000000000000000000602082015250565b7f4552433732313a207472616e736665722063616c6c6572206973206e6f74206f60008201527f776e6572206e6f7220617070726f766564000000000000000000000000000000602082015250565b7f455243373231456e756d657261626c653a20676c6f62616c20696e646578206f60008201527f7574206f6620626f756e64730000000000000000000000000000000000000000602082015250565b7f544f4b454e5f49445f4e4f545f45584953544544000000000000000000000000600082015250565b6144c881613c86565b81146144d357600080fd5b50565b6144df81613c98565b81146144ea57600080fd5b50565b6144f681613cae565b811461450157600080fd5b50565b61450d81613cfa565b811461451857600080fd5b5056fea2646970667358221220b3b8b99999b0a01e9a54f9204d4eb48b37a538f919aa5b7c9e8ba8ccd0b6419c64736f6c63430008040033",
  "immutableReferences": {
    "2941": [
      {
        "length": 32,
        "start": 8959
      }
    ],
    "2943": [
      {
        "length": 32,
        "start": 8919
      }
    ],
    "2945": [
      {
        "length": 32,
        "start": 9035
      }
    ],
    "2947": [
      {
        "length": 32,
        "start": 9068
      }
    ],
    "2949": [
      {
        "length": 32,
        "start": 9002
      }
    ]
  },
  "source": "// SPDX-License-Identifier: UNLICENSED\n\npragma solidity 0.8.4;\n\nimport \"./lib/access/AccessControl.sol\";\nimport \"./lib/utils/cryptography/ECDSA.sol\";\nimport \"./lib/utils/cryptography/draft-EIP712.sol\";\nimport \"./TaureumERC721Enumerable.sol\";\n\ncontract TaureumERC721LazyMint is TaureumERC721Enumerable, EIP712 {\n    string private constant SIGNING_DOMAIN = \"TaureumNFT\";\n    string private constant SIGNATURE_VERSION = \"1\";\n\n    /**\n     * @dev Emitted when a pending token is redeemed in the lazy-minting protocol.\n     */\n    event Redeem(\n        address indexed minter,\n        address indexed redeemer,\n        string uri,\n        bytes signature);\n\n    /**\n     * @dev Create a new TaureumNFTLazyMint contract and and assign `DEFAULT_ADMIN_ROLE, MINTER_ROLE` for the creator.\n     * This construction function should be called from an exchange.\n     *\n     */\n    constructor() TaureumERC721Enumerable() EIP712(SIGNING_DOMAIN, SIGNATURE_VERSION)\n    {}\n\n    /**\n     * @dev Implement a lazy minting mechanism in which the NFT-minting process is delayed until the first order is successful.\n     * This function should be handled by a smart contract which is allowed by the `minter`.\n     * @notice It throws if\n     *      - `msg.sender` is not the `minter` or has not been approved by the `minter`.\n     *      - redeem data and signature are not valid.\n     *      - if the redeemer is a contract and it cannot receive the NFT.\n     * @param redeemer The address that the minted NFT will be transferred to.\n     * @param uri The URI consists of metadata description of the minting NFT on the IPFS (without prefix).\n     * @param signature The signature signed by `to` designating `msg.sender` to mint the NFT for it.\n     */\n    function redeem(address redeemer, string calldata uri, bytes calldata signature)\n    external\n    {\n        address minter = _verify(_hash(uri), signature);\n        require(msg.sender == minter || isApprovedForAll(minter, msg.sender), \"MUST_BE_OWNER_OR_APPROVED\");\n\n        // mint the token to the signer\n        uint256 id = mint(minter, uri);\n\n        // transfer the minted token to the redeemer\n        _safeTransfer(minter, redeemer, id, \"\");\n\n        emit Redeem(minter, redeemer, uri, signature);\n    }\n\n    /// @notice Returns a hash of the given PendingNFT, prepared using EIP712 typed data hashing rules.\n    function _hash(string calldata uri)\n    internal view returns (bytes32)\n    {\n        return _hashTypedDataV4(keccak256(abi.encode(\n                keccak256(\"TaureumNFT(string uri)\"),\n                keccak256(bytes(uri))\n            )));\n    }\n\n    /**\n     * @dev Returns the signer for a pair of digested message and signature.\n     */\n    function _verify(bytes32 digest, bytes memory signature)\n    internal pure returns (address)\n    {\n        bytes memory prefix = \"\\x19Ethereum Signed Message:\\n32\";\n        bytes32 prefixedHash = keccak256(abi.encodePacked(prefix, digest));\n        return ECDSA.recover(prefixedHash, signature);\n    }\n}\n",
  "sourcePath": "/home/toor/nodejs/truffle/nft_demo/taudefi/taudefi-nft/contracts/TaureumERC721LazyMint.sol",
  "compiler": {
    "name": "solc",
    "version": "0.8.4+commit.c7e474f2.Emscripten.clang"
  },
  "schemaVersion": "3.4.1",
  "updatedAt": "2021-07-27T15:28:31.395Z",
  "devdoc": {
    "events": {
      "Redeem(address,address,string,bytes)": {
        "details": "Emitted when a pending token is redeemed in the lazy-minting protocol."
      }
    },
    "kind": "dev",
    "methods": {
      "approve(address,uint256)": {
        "details": "See {IERC721-approve}."
      },
      "balanceOf(address)": {
        "details": "See {IERC721-balanceOf}."
      },
      "constructor": {
        "details": "Create a new TaureumNFTLazyMint contract and and assign `DEFAULT_ADMIN_ROLE, MINTER_ROLE` for the creator. This construction function should be called from an exchange."
      },
      "getApproved(uint256)": {
        "details": "See {IERC721-getApproved}."
      },
      "isApprovedForAll(address,address)": {
        "details": "See {IERC721-isApprovedForAll}."
      },
      "mint(address,string)": {
        "details": "Mint a new NFT.",
        "params": {
          "to": "The address that will own the minted NFT.",
          "uri": "The URI consists of metadata description of the minting NFT on the IPFS (without prefix)."
        }
      },
      "name()": {
        "details": "See {IERC721Metadata-name}."
      },
      "owner()": {
        "details": "Returns the address of the current owner."
      },
      "ownerOf(uint256)": {
        "details": "See {IERC721-ownerOf}."
      },
      "redeem(address,string,bytes)": {
        "details": "Implement a lazy minting mechanism in which the NFT-minting process is delayed until the first order is successful. This function should be handled by a smart contract which is allowed by the `minter`.",
        "params": {
          "redeemer": "The address that the minted NFT will be transferred to.",
          "signature": "The signature signed by `to` designating `msg.sender` to mint the NFT for it.",
          "uri": "The URI consists of metadata description of the minting NFT on the IPFS (without prefix)."
        }
      },
      "renounceOwnership()": {
        "details": "Leaves the contract without owner. It will not be possible to call `onlyOwner` functions anymore. Can only be called by the current owner. NOTE: Renouncing ownership will leave the contract without an owner, thereby removing any functionality that is only available to the owner."
      },
      "safeMint(address,string)": {
        "details": "Safely mint a new NFT.",
        "params": {
          "to": "The address that will own the minted NFT.",
          "uri": "The URI consists of metadata description of the minting NFT on the IPFS (without prefix)."
        }
      },
      "safeTransferFrom(address,address,uint256)": {
        "details": "See {IERC721-safeTransferFrom}."
      },
      "safeTransferFrom(address,address,uint256,bytes)": {
        "details": "See {IERC721-safeTransferFrom}."
      },
      "setApprovalForAll(address,bool)": {
        "details": "See {IERC721-setApprovalForAll}."
      },
      "setBaseURI(string)": {
        "details": "Sets new value for the `baseURI`. This operation can only been done by the owner of this contract."
      },
      "supportsInterface(bytes4)": {
        "details": "See {IERC165-supportsInterface}."
      },
      "symbol()": {
        "details": "See {IERC721Metadata-symbol}."
      },
      "tokenByIndex(uint256)": {
        "details": "See {IERC721Enumerable-tokenByIndex}."
      },
      "tokenOfOwnerByIndex(address,uint256)": {
        "details": "See {IERC721Enumerable-tokenOfOwnerByIndex}."
      },
      "tokenURI(uint256)": {
        "details": "See {IERC721Metadata-tokenURI}."
      },
      "totalSupply()": {
        "details": "See {IERC721Enumerable-totalSupply}."
      },
      "transferFrom(address,address,uint256)": {
        "details": "See {IERC721-transferFrom}."
      },
      "transferOwnership(address)": {
        "details": "Transfers ownership of the contract to a new account (`newOwner`). Can only be called by the current owner."
      }
    },
    "version": 1
  },
  "userdoc": {
    "kind": "user",
    "methods": {
      "mint(address,string)": {
        "notice": "It throws an exception if    - `to` is a \"ZERO_ADDRESS."
      },
      "redeem(address,string,bytes)": {
        "notice": "It throws if      - `msg.sender` is not the `minter` or has not been approved by the `minter`.      - redeem data and signature are not valid.      - if the redeemer is a contract and it cannot receive the NFT."
      },
      "safeMint(address,string)": {
        "notice": "It throws an exception if    - `to` is a \"ZERO_ADDRESS.    - If `to` refers to a smart contract, it must implement {IERC721Receiver-onERC721Received}, which is called upon a safe transfer."
      }
    },
    "version": 1
  }
}