{
  "contractName": "TaureumERC1155LazyMint",
  "abi": [
    {
      "inputs": [
        {
          "internalType": "string",
          "name": "uri_",
          "type": "string"
        }
      ],
      "stateMutability": "nonpayable",
      "type": "constructor"
    },
    {
      "anonymous": false,
      "inputs": [
        {
          "indexed": true,
          "internalType": "address",
          "name": "account",
          "type": "address"
        },
        {
          "indexed": true,
          "internalType": "address",
          "name": "operator",
          "type": "address"
        },
        {
          "indexed": false,
          "internalType": "bool",
          "name": "approved",
          "type": "bool"
        }
      ],
      "name": "ApprovalForAll",
      "type": "event"
    },
    {
      "anonymous": false,
      "inputs": [
        {
          "indexed": false,
          "internalType": "address",
          "name": "creator",
          "type": "address"
        },
        {
          "indexed": false,
          "internalType": "bytes32",
          "name": "digest",
          "type": "bytes32"
        },
        {
          "indexed": false,
          "internalType": "bytes",
          "name": "signature",
          "type": "bytes"
        },
        {
          "indexed": false,
          "internalType": "bytes32",
          "name": "salt",
          "type": "bytes32"
        }
      ],
      "name": "Logs",
      "type": "event"
    },
    {
      "anonymous": false,
      "inputs": [
        {
          "indexed": true,
          "internalType": "address",
          "name": "previousOwner",
          "type": "address"
        },
        {
          "indexed": true,
          "internalType": "address",
          "name": "newOwner",
          "type": "address"
        }
      ],
      "name": "OwnershipTransferred",
      "type": "event"
    },
    {
      "anonymous": false,
      "inputs": [
        {
          "indexed": true,
          "internalType": "address",
          "name": "operator",
          "type": "address"
        },
        {
          "indexed": true,
          "internalType": "address",
          "name": "from",
          "type": "address"
        },
        {
          "indexed": true,
          "internalType": "address",
          "name": "to",
          "type": "address"
        },
        {
          "indexed": false,
          "internalType": "uint256[]",
          "name": "ids",
          "type": "uint256[]"
        },
        {
          "indexed": false,
          "internalType": "uint256[]",
          "name": "values",
          "type": "uint256[]"
        }
      ],
      "name": "TransferBatch",
      "type": "event"
    },
    {
      "anonymous": false,
      "inputs": [
        {
          "indexed": true,
          "internalType": "address",
          "name": "operator",
          "type": "address"
        },
        {
          "indexed": true,
          "internalType": "address",
          "name": "from",
          "type": "address"
        },
        {
          "indexed": true,
          "internalType": "address",
          "name": "to",
          "type": "address"
        },
        {
          "indexed": false,
          "internalType": "uint256",
          "name": "id",
          "type": "uint256"
        },
        {
          "indexed": false,
          "internalType": "uint256",
          "name": "value",
          "type": "uint256"
        }
      ],
      "name": "TransferSingle",
      "type": "event"
    },
    {
      "anonymous": false,
      "inputs": [
        {
          "indexed": false,
          "internalType": "string",
          "name": "value",
          "type": "string"
        },
        {
          "indexed": true,
          "internalType": "uint256",
          "name": "id",
          "type": "uint256"
        }
      ],
      "name": "URI",
      "type": "event"
    },
    {
      "inputs": [
        {
          "internalType": "address",
          "name": "account",
          "type": "address"
        },
        {
          "internalType": "uint256",
          "name": "id",
          "type": "uint256"
        }
      ],
      "name": "balanceOf",
      "outputs": [
        {
          "internalType": "uint256",
          "name": "",
          "type": "uint256"
        }
      ],
      "stateMutability": "view",
      "type": "function",
      "constant": true
    },
    {
      "inputs": [
        {
          "internalType": "address[]",
          "name": "accounts",
          "type": "address[]"
        },
        {
          "internalType": "uint256[]",
          "name": "ids",
          "type": "uint256[]"
        }
      ],
      "name": "balanceOfBatch",
      "outputs": [
        {
          "internalType": "uint256[]",
          "name": "",
          "type": "uint256[]"
        }
      ],
      "stateMutability": "view",
      "type": "function",
      "constant": true
    },
    {
      "inputs": [
        {
          "internalType": "uint256",
          "name": "_id",
          "type": "uint256"
        }
      ],
      "name": "exists",
      "outputs": [
        {
          "internalType": "bool",
          "name": "",
          "type": "bool"
        }
      ],
      "stateMutability": "view",
      "type": "function",
      "constant": true
    },
    {
      "inputs": [
        {
          "internalType": "uint256",
          "name": "_id",
          "type": "uint256"
        }
      ],
      "name": "getCreator",
      "outputs": [
        {
          "internalType": "address",
          "name": "",
          "type": "address"
        }
      ],
      "stateMutability": "view",
      "type": "function",
      "constant": true
    },
    {
      "inputs": [
        {
          "internalType": "address",
          "name": "account",
          "type": "address"
        },
        {
          "internalType": "address",
          "name": "operator",
          "type": "address"
        }
      ],
      "name": "isApprovedForAll",
      "outputs": [
        {
          "internalType": "bool",
          "name": "",
          "type": "bool"
        }
      ],
      "stateMutability": "view",
      "type": "function",
      "constant": true
    },
    {
      "inputs": [
        {
          "internalType": "address",
          "name": "to",
          "type": "address"
        },
        {
          "internalType": "string",
          "name": "uri_",
          "type": "string"
        },
        {
          "internalType": "uint256",
          "name": "amount",
          "type": "uint256"
        },
        {
          "internalType": "bytes",
          "name": "data",
          "type": "bytes"
        }
      ],
      "name": "mint",
      "outputs": [
        {
          "internalType": "uint256",
          "name": "",
          "type": "uint256"
        }
      ],
      "stateMutability": "nonpayable",
      "type": "function"
    },
    {
      "inputs": [
        {
          "internalType": "address",
          "name": "to",
          "type": "address"
        },
        {
          "internalType": "string[]",
          "name": "uriList",
          "type": "string[]"
        },
        {
          "internalType": "uint256[]",
          "name": "amounts",
          "type": "uint256[]"
        },
        {
          "internalType": "bytes",
          "name": "data",
          "type": "bytes"
        }
      ],
      "name": "mintBatch",
      "outputs": [
        {
          "internalType": "uint256[]",
          "name": "",
          "type": "uint256[]"
        }
      ],
      "stateMutability": "nonpayable",
      "type": "function"
    },
    {
      "inputs": [],
      "name": "owner",
      "outputs": [
        {
          "internalType": "address",
          "name": "",
          "type": "address"
        }
      ],
      "stateMutability": "view",
      "type": "function",
      "constant": true
    },
    {
      "inputs": [],
      "name": "renounceOwnership",
      "outputs": [],
      "stateMutability": "nonpayable",
      "type": "function"
    },
    {
      "inputs": [
        {
          "internalType": "address",
          "name": "from",
          "type": "address"
        },
        {
          "internalType": "address",
          "name": "to",
          "type": "address"
        },
        {
          "internalType": "uint256[]",
          "name": "ids",
          "type": "uint256[]"
        },
        {
          "internalType": "uint256[]",
          "name": "amounts",
          "type": "uint256[]"
        },
        {
          "internalType": "bytes",
          "name": "data",
          "type": "bytes"
        }
      ],
      "name": "safeBatchTransferFrom",
      "outputs": [],
      "stateMutability": "nonpayable",
      "type": "function"
    },
    {
      "inputs": [
        {
          "internalType": "address",
          "name": "from",
          "type": "address"
        },
        {
          "internalType": "address",
          "name": "to",
          "type": "address"
        },
        {
          "internalType": "uint256",
          "name": "id",
          "type": "uint256"
        },
        {
          "internalType": "uint256",
          "name": "amount",
          "type": "uint256"
        },
        {
          "internalType": "bytes",
          "name": "data",
          "type": "bytes"
        }
      ],
      "name": "safeTransferFrom",
      "outputs": [],
      "stateMutability": "nonpayable",
      "type": "function"
    },
    {
      "inputs": [
        {
          "internalType": "address",
          "name": "operator",
          "type": "address"
        },
        {
          "internalType": "bool",
          "name": "approved",
          "type": "bool"
        }
      ],
      "name": "setApprovalForAll",
      "outputs": [],
      "stateMutability": "nonpayable",
      "type": "function"
    },
    {
      "inputs": [
        {
          "internalType": "string",
          "name": "newURI",
          "type": "string"
        }
      ],
      "name": "setURI",
      "outputs": [],
      "stateMutability": "nonpayable",
      "type": "function"
    },
    {
      "inputs": [
        {
          "internalType": "bytes4",
          "name": "interfaceId",
          "type": "bytes4"
        }
      ],
      "name": "supportsInterface",
      "outputs": [
        {
          "internalType": "bool",
          "name": "",
          "type": "bool"
        }
      ],
      "stateMutability": "view",
      "type": "function",
      "constant": true
    },
    {
      "inputs": [
        {
          "internalType": "uint256",
          "name": "id",
          "type": "uint256"
        }
      ],
      "name": "totalSupply",
      "outputs": [
        {
          "internalType": "uint256",
          "name": "",
          "type": "uint256"
        }
      ],
      "stateMutability": "view",
      "type": "function",
      "constant": true
    },
    {
      "inputs": [
        {
          "internalType": "address",
          "name": "newOwner",
          "type": "address"
        }
      ],
      "name": "transferOwnership",
      "outputs": [],
      "stateMutability": "nonpayable",
      "type": "function"
    },
    {
      "inputs": [
        {
          "internalType": "uint256",
          "name": "tokenId",
          "type": "uint256"
        }
      ],
      "name": "uri",
      "outputs": [
        {
          "internalType": "string",
          "name": "",
          "type": "string"
        }
      ],
      "stateMutability": "view",
      "type": "function",
      "constant": true
    },
    {
      "inputs": [
        {
          "internalType": "address",
          "name": "redeemer",
          "type": "address"
        },
        {
          "components": [
            {
              "internalType": "string",
              "name": "tokenURI",
              "type": "string"
            },
            {
              "internalType": "uint256",
              "name": "amount",
              "type": "uint256"
            },
            {
              "internalType": "uint256",
              "name": "salt",
              "type": "uint256"
            },
            {
              "internalType": "bytes",
              "name": "signature",
              "type": "bytes"
            }
          ],
          "internalType": "struct TaureumERC1155LazyMint.MintData",
          "name": "mintData",
          "type": "tuple"
        }
      ],
      "name": "redeem",
      "outputs": [
        {
          "internalType": "uint256",
          "name": "",
          "type": "uint256"
        }
      ],
      "stateMutability": "nonpayable",
      "type": "function"
    }
  ],
  "bytecode": "0x6101206040523480156200001257600080fd5b506040516200574038038062005740833981810160405281019062000038919062000370565b6040518060400160405280600e81526020017f5461757265756d455243313135350000000000000000000000000000000000008152506040518060400160405280600181526020017f31000000000000000000000000000000000000000000000000000000000000008152508280620000b781620001ee60201b60201c565b506000620000ca6200020a60201b60201c565b905080600360006101000a81548173ffffffffffffffffffffffffffffffffffffffff021916908373ffffffffffffffffffffffffffffffffffffffff1602179055508073ffffffffffffffffffffffffffffffffffffffff16600073ffffffffffffffffffffffffffffffffffffffff167f8be0079c531659141344cd1fd0a4f28419497f9722a3daafe3b4186f6b6457e060405160405180910390a3505060008280519060200120905060008280519060200120905060007f8b73c3c69bb8fe3d512ecc4cf759cc79239f7b179b0ffacaa9a75d522b39400f90508260c081815250508160e081815250504660a08181525050620001d28184846200021260201b60201c565b60808181525050806101008181525050505050505050620005fd565b8060029080519060200190620002069291906200024e565b5050565b600033905090565b600083838346306040516020016200022f959493929190620003e8565b6040516020818303038152906040528051906020012090509392505050565b8280546200025c9062000522565b90600052602060002090601f016020900481019282620002805760008555620002cc565b82601f106200029b57805160ff1916838001178555620002cc565b82800160010185558215620002cc579182015b82811115620002cb578251825591602001919060010190620002ae565b5b509050620002db9190620002df565b5090565b5b80821115620002fa576000816000905550600101620002e0565b5090565b6000620003156200030f846200046e565b62000445565b9050828152602081018484840111156200032e57600080fd5b6200033b848285620004ec565b509392505050565b600082601f8301126200035557600080fd5b815162000367848260208601620002fe565b91505092915050565b6000602082840312156200038357600080fd5b600082015167ffffffffffffffff8111156200039e57600080fd5b620003ac8482850162000343565b91505092915050565b620003c081620004a4565b82525050565b620003d181620004b8565b82525050565b620003e281620004e2565b82525050565b600060a082019050620003ff6000830188620003c6565b6200040e6020830187620003c6565b6200041d6040830186620003c6565b6200042c6060830185620003d7565b6200043b6080830184620003b5565b9695505050505050565b60006200045162000464565b90506200045f828262000558565b919050565b6000604051905090565b600067ffffffffffffffff8211156200048c576200048b620005bd565b5b6200049782620005ec565b9050602081019050919050565b6000620004b182620004c2565b9050919050565b6000819050919050565b600073ffffffffffffffffffffffffffffffffffffffff82169050919050565b6000819050919050565b60005b838110156200050c578082015181840152602081019050620004ef565b838111156200051c576000848401525b50505050565b600060028204905060018216806200053b57607f821691505b602082108114156200055257620005516200058e565b5b50919050565b6200056382620005ec565b810181811067ffffffffffffffff82111715620005855762000584620005bd565b5b80604052505050565b7f4e487b7100000000000000000000000000000000000000000000000000000000600052602260045260246000fd5b7f4e487b7100000000000000000000000000000000000000000000000000000000600052604160045260246000fd5b6000601f19601f8301169050919050565b60805160a05160c05160e051610100516150fe620006426000396000612bf001526000612c3201526000612c1101526000612b9d01526000612bc501526150fe6000f3fe608060405234801561001057600080fd5b50600436106101155760003560e01c8063715018a6116100a2578063bd85b03911610071578063bd85b03914610316578063d48e638a14610346578063e985e9c514610376578063f242432a146103a6578063f2fde38b146103c257610115565b8063715018a6146102a25780638da5cb5b146102ac578063a22cb465146102ca578063b6e04e00146102e657610115565b80632eb2c2d6116100e95780632eb2c2d6146101c6578063428a328b146101e25780634e1273f4146102125780634f558e79146102425780635523c2501461027257610115565b8062fdd58e1461011a57806301ffc9a71461014a57806302fe53051461017a5780630e89341c14610196575b600080fd5b610134600480360381019061012f9190613669565b6103de565b60405161014191906143e2565b60405180910390f35b610164600480360381019061015f9190613711565b6104a7565b6040516101719190613fc8565b60405180910390f35b610194600480360381019061018f9190613763565b610589565b005b6101b060048036038101906101ab91906137a4565b610611565b6040516101bd91906140c0565b60405180910390f35b6101e060048036038101906101db9190613340565b61074f565b005b6101fc60048036038101906101f7919061348e565b610b45565b6040516102099190613f6f565b60405180910390f35b61022c600480360381019061022791906136a5565b610ee3565b6040516102399190613f6f565b60405180910390f35b61025c600480360381019061025791906137a4565b611094565b6040516102699190613fc8565b60405180910390f35b61028c6004803603810190610287919061357d565b6110b3565b60405161029991906143e2565b60405180910390f35b6102aa61117d565b005b6102b46112ba565b6040516102c19190613e60565b60405180910390f35b6102e460048036038101906102df9190613541565b6112e4565b005b61030060048036038101906102fb9190613615565b611465565b60405161030d91906143e2565b60405180910390f35b610330600480360381019061032b91906137a4565b6116fc565b60405161033d91906143e2565b60405180910390f35b610360600480360381019061035b91906137a4565b611719565b60405161036d9190613e60565b60405180910390f35b610390600480360381019061038b9190613304565b611756565b60405161039d9190613fc8565b60405180910390f35b6103c060048036038101906103bb91906133ff565b6117ea565b005b6103dc60048036038101906103d791906132db565b611b02565b005b60008073ffffffffffffffffffffffffffffffffffffffff168373ffffffffffffffffffffffffffffffffffffffff16141561044f576040517f08c379a0000000000000000000000000000000000000000000000000000000008152600401610446906141a2565b60405180910390fd5b60008083815260200190815260200160002060008473ffffffffffffffffffffffffffffffffffffffff1673ffffffffffffffffffffffffffffffffffffffff16815260200190815260200160002054905092915050565b60007fd9b67a26000000000000000000000000000000000000000000000000000000007bffffffffffffffffffffffffffffffffffffffffffffffffffffffff1916827bffffffffffffffffffffffffffffffffffffffffffffffffffffffff1916148061057257507f0e89341c000000000000000000000000000000000000000000000000000000007bffffffffffffffffffffffffffffffffffffffffffffffffffffffff1916827bffffffffffffffffffffffffffffffffffffffffffffffffffffffff1916145b80610582575061058182611cae565b5b9050919050565b610591611d18565b73ffffffffffffffffffffffffffffffffffffffff166105af6112ba565b73ffffffffffffffffffffffffffffffffffffffff1614610605576040517f08c379a00000000000000000000000000000000000000000000000000000000081526004016105fc90614322565b60405180910390fd5b61060e81611d20565b50565b606061061c82611094565b61065b576040517f08c379a0000000000000000000000000000000000000000000000000000000008152600401610652906142e2565b60405180910390fd5b600061066683611d3a565b905060008151116107125760066000848152602001908152602001600020805461068f906147a6565b80601f01602080910402602001604051908101604052809291908181526020018280546106bb906147a6565b80156107085780601f106106dd57610100808354040283529160200191610708565b820191906000526020600020905b8154815290600101906020018083116106eb57829003601f168201915b5050505050610747565b8060066000858152602001908152602001600020604051602001610737929190613e05565b6040516020818303038152906040525b915050919050565b8151835114610793576040517f08c379a000000000000000000000000000000000000000000000000000000000815260040161078a90614382565b60405180910390fd5b600073ffffffffffffffffffffffffffffffffffffffff168473ffffffffffffffffffffffffffffffffffffffff161415610803576040517f08c379a00000000000000000000000000000000000000000000000000000000081526004016107fa90614262565b60405180910390fd5b61080b611d18565b73ffffffffffffffffffffffffffffffffffffffff168573ffffffffffffffffffffffffffffffffffffffff16148061085157506108508561084b611d18565b611756565b5b610890576040517f08c379a000000000000000000000000000000000000000000000000000000000815260040161088790614282565b60405180910390fd5b600061089a611d18565b90506108aa818787878787611dce565b60005b8451811015610ab05760008582815181106108f1577f4e487b7100000000000000000000000000000000000000000000000000000000600052603260045260246000fd5b602002602001015190506000858381518110610936577f4e487b7100000000000000000000000000000000000000000000000000000000600052603260045260246000fd5b60200260200101519050600080600084815260200190815260200160002060008b73ffffffffffffffffffffffffffffffffffffffff1673ffffffffffffffffffffffffffffffffffffffff168152602001908152602001600020549050818110156109d7576040517f08c379a00000000000000000000000000000000000000000000000000000000081526004016109ce90614302565b60405180910390fd5b81816109e391906146a5565b60008085815260200190815260200160002060008c73ffffffffffffffffffffffffffffffffffffffff1673ffffffffffffffffffffffffffffffffffffffff168152602001908152602001600020819055508160008085815260200190815260200160002060008b73ffffffffffffffffffffffffffffffffffffffff1673ffffffffffffffffffffffffffffffffffffffff1681526020019081526020016000206000828254610a95919061464f565b9250508190555050505080610aa990614809565b90506108ad565b508473ffffffffffffffffffffffffffffffffffffffff168673ffffffffffffffffffffffffffffffffffffffff168273ffffffffffffffffffffffffffffffffffffffff167f4a39dc06d4c0dbc64b70af90fd698a233a518aa5d07e595d983b8c0526c8f7fb8787604051610b27929190613f91565b60405180910390a4610b3d818787878787611dd6565b505050505050565b6060838390508686905014610b8f576040517f08c379a0000000000000000000000000000000000000000000000000000000008152600401610b8690614162565b60405180910390fd5b60008686905067ffffffffffffffff811115610bd4577f4e487b7100000000000000000000000000000000000000000000000000000000600052604160045260246000fd5b604051908082528060200260200182016040528015610c025781602001602082028036833780820191505090505b50905060005b87879050811015610ce05788888883818110610c4d577f4e487b7100000000000000000000000000000000000000000000000000000000600052603260045260246000fd5b9050602002810190610c5f919061447d565b604051602001610c7193929190613f3d565b6040516020818303038152906040528051906020012060001c828281518110610cc3577f4e487b7100000000000000000000000000000000000000000000000000000000600052603260045260246000fd5b60200260200101818152505080610cd990614809565b9050610c08565b50610d2e8882878780806020026020016040519081016040528093929190818152602001838360200280828437600081840152601f19601f8201169050808301925050505050505086611fbd565b60005b87879050811015610ed457610dd0828281518110610d78577f4e487b7100000000000000000000000000000000000000000000000000000000600052603260045260246000fd5b6020026020010151898984818110610db9577f4e487b7100000000000000000000000000000000000000000000000000000000600052603260045260246000fd5b9050602002810190610dcb919061447d565b612097565b600073ffffffffffffffffffffffffffffffffffffffff1660046000848481518110610e25577f4e487b7100000000000000000000000000000000000000000000000000000000600052603260045260246000fd5b6020026020010151815260200190815260200160002060009054906101000a900473ffffffffffffffffffffffffffffffffffffffff1673ffffffffffffffffffffffffffffffffffffffff161415610ec357610ec2828281518110610eb4577f4e487b7100000000000000000000000000000000000000000000000000000000600052603260045260246000fd5b60200260200101518a612107565b5b80610ecd90614809565b9050610d31565b50809150509695505050505050565b60608151835114610f29576040517f08c379a0000000000000000000000000000000000000000000000000000000008152600401610f2090614362565b60405180910390fd5b6000835167ffffffffffffffff811115610f6c577f4e487b7100000000000000000000000000000000000000000000000000000000600052604160045260246000fd5b604051908082528060200260200182016040528015610f9a5781602001602082028036833780820191505090505b50905060005b845181101561108957611033858281518110610fe5577f4e487b7100000000000000000000000000000000000000000000000000000000600052603260045260246000fd5b6020026020010151858381518110611026577f4e487b7100000000000000000000000000000000000000000000000000000000600052603260045260246000fd5b60200260200101516103de565b82828151811061106c577f4e487b7100000000000000000000000000000000000000000000000000000000600052603260045260246000fd5b6020026020010181815250508061108290614809565b9050610fa0565b508091505092915050565b6000806005600084815260200190815260200160002054119050919050565b6000808686866040516020016110cb93929190613f3d565b6040516020818303038152906040528051906020012060001c90506110f28782868661226f565b6110fd818787612097565b600073ffffffffffffffffffffffffffffffffffffffff166004600083815260200190815260200160002060009054906101000a900473ffffffffffffffffffffffffffffffffffffffff1673ffffffffffffffffffffffffffffffffffffffff1614156111705761116f8188612107565b5b8091505095945050505050565b611185611d18565b73ffffffffffffffffffffffffffffffffffffffff166111a36112ba565b73ffffffffffffffffffffffffffffffffffffffff16146111f9576040517f08c379a00000000000000000000000000000000000000000000000000000000081526004016111f090614322565b60405180910390fd5b600073ffffffffffffffffffffffffffffffffffffffff16600360009054906101000a900473ffffffffffffffffffffffffffffffffffffffff1673ffffffffffffffffffffffffffffffffffffffff167f8be0079c531659141344cd1fd0a4f28419497f9722a3daafe3b4186f6b6457e060405160405180910390a36000600360006101000a81548173ffffffffffffffffffffffffffffffffffffffff021916908373ffffffffffffffffffffffffffffffffffffffff160217905550565b6000600360009054906101000a900473ffffffffffffffffffffffffffffffffffffffff16905090565b8173ffffffffffffffffffffffffffffffffffffffff16611303611d18565b73ffffffffffffffffffffffffffffffffffffffff16141561135a576040517f08c379a000000000000000000000000000000000000000000000000000000000815260040161135190614342565b60405180910390fd5b8060016000611367611d18565b73ffffffffffffffffffffffffffffffffffffffff1673ffffffffffffffffffffffffffffffffffffffff16815260200190815260200160002060008473ffffffffffffffffffffffffffffffffffffffff1673ffffffffffffffffffffffffffffffffffffffff16815260200190815260200160002060006101000a81548160ff0219169083151502179055508173ffffffffffffffffffffffffffffffffffffffff16611414611d18565b73ffffffffffffffffffffffffffffffffffffffff167f17307eab39ab6107e8899845ad3d59bd9653f200f220920489ca2b5937696c31836040516114599190613fc8565b60405180910390a35050565b600080611471836122ee565b90506007600082815260200190815260200160002060009054906101000a900460ff16156114d4576040517f08c379a00000000000000000000000000000000000000000000000000000000081526004016114cb90614202565b60405180910390fd5b6000611532828580606001906114ea9190614426565b8080601f016020809104026020016040519081016040528093929190818152602001838380828437600081840152601f19601f82011690508083019250505050505050612379565b905060003390508173ffffffffffffffffffffffffffffffffffffffff168173ffffffffffffffffffffffffffffffffffffffff16148061157957506115788233611756565b5b6115b8576040517f08c379a00000000000000000000000000000000000000000000000000000000081526004016115af906143c2565b60405180910390fd5b6000828680600001906115cb919061447d565b6040516020016115dd93929190613f3d565b6040516020818303038152906040528051906020012060001c9050611617838288602001356040518060200160405280600081525061226f565b6116308187806000019061162b919061447d565b612097565b600073ffffffffffffffffffffffffffffffffffffffff166004600083815260200190815260200160002060009054906101000a900473ffffffffffffffffffffffffffffffffffffffff1673ffffffffffffffffffffffffffffffffffffffff1614156116a3576116a28184612107565b5b60016007600086815260200190815260200160002060006101000a81548160ff0219169083151502179055506116ef8388838960200135604051806020016040528060008152506117ea565b8094505050505092915050565b600060056000838152602001908152602001600020549050919050565b60006004600083815260200190815260200160002060009054906101000a900473ffffffffffffffffffffffffffffffffffffffff169050919050565b6000600160008473ffffffffffffffffffffffffffffffffffffffff1673ffffffffffffffffffffffffffffffffffffffff16815260200190815260200160002060008373ffffffffffffffffffffffffffffffffffffffff1673ffffffffffffffffffffffffffffffffffffffff16815260200190815260200160002060009054906101000a900460ff16905092915050565b600073ffffffffffffffffffffffffffffffffffffffff168473ffffffffffffffffffffffffffffffffffffffff16141561185a576040517f08c379a000000000000000000000000000000000000000000000000000000000815260040161185190614262565b60405180910390fd5b611862611d18565b73ffffffffffffffffffffffffffffffffffffffff168573ffffffffffffffffffffffffffffffffffffffff1614806118a857506118a7856118a2611d18565b611756565b5b6118e7576040517f08c379a00000000000000000000000000000000000000000000000000000000081526004016118de906141e2565b60405180910390fd5b60006118f1611d18565b9050611911818787611902886123f5565b61190b886123f5565b87611dce565b600080600086815260200190815260200160002060008873ffffffffffffffffffffffffffffffffffffffff1673ffffffffffffffffffffffffffffffffffffffff168152602001908152602001600020549050838110156119a8576040517f08c379a000000000000000000000000000000000000000000000000000000000815260040161199f90614302565b60405180910390fd5b83816119b491906146a5565b60008087815260200190815260200160002060008973ffffffffffffffffffffffffffffffffffffffff1673ffffffffffffffffffffffffffffffffffffffff168152602001908152602001600020819055508360008087815260200190815260200160002060008873ffffffffffffffffffffffffffffffffffffffff1673ffffffffffffffffffffffffffffffffffffffff1681526020019081526020016000206000828254611a66919061464f565b925050819055508573ffffffffffffffffffffffffffffffffffffffff168773ffffffffffffffffffffffffffffffffffffffff168373ffffffffffffffffffffffffffffffffffffffff167fc3d58168c5ae7397731d063d5bbf3d657854427343f4c083240f7aacaa2d0f628888604051611ae39291906143fd565b60405180910390a4611af98288888888886124bb565b50505050505050565b611b0a611d18565b73ffffffffffffffffffffffffffffffffffffffff16611b286112ba565b73ffffffffffffffffffffffffffffffffffffffff1614611b7e576040517f08c379a0000000000000000000000000000000000000000000000000000000008152600401611b7590614322565b60405180910390fd5b600073ffffffffffffffffffffffffffffffffffffffff168173ffffffffffffffffffffffffffffffffffffffff161415611bee576040517f08c379a0000000000000000000000000000000000000000000000000000000008152600401611be5906141c2565b60405180910390fd5b8073ffffffffffffffffffffffffffffffffffffffff16600360009054906101000a900473ffffffffffffffffffffffffffffffffffffffff1673ffffffffffffffffffffffffffffffffffffffff167f8be0079c531659141344cd1fd0a4f28419497f9722a3daafe3b4186f6b6457e060405160405180910390a380600360006101000a81548173ffffffffffffffffffffffffffffffffffffffff021916908373ffffffffffffffffffffffffffffffffffffffff16021790555050565b60007f01ffc9a7000000000000000000000000000000000000000000000000000000007bffffffffffffffffffffffffffffffffffffffffffffffffffffffff1916827bffffffffffffffffffffffffffffffffffffffffffffffffffffffff1916149050919050565b600033905090565b8060029080519060200190611d36929190612e54565b5050565b606060028054611d49906147a6565b80601f0160208091040260200160405190810160405280929190818152602001828054611d75906147a6565b8015611dc25780601f10611d9757610100808354040283529160200191611dc2565b820191906000526020600020905b815481529060010190602001808311611da557829003601f168201915b50505050509050919050565b505050505050565b611df58473ffffffffffffffffffffffffffffffffffffffff166126a2565b15611fb5578373ffffffffffffffffffffffffffffffffffffffff1663bc197c8187878686866040518663ffffffff1660e01b8152600401611e3b959493929190613e7b565b602060405180830381600087803b158015611e5557600080fd5b505af1925050508015611e8657506040513d601f19601f82011682018060405250810190611e83919061373a565b60015b611f2c57611e926148e9565b806308c379a01415611eef5750611ea7614fd6565b80611eb25750611ef1565b806040517f08c379a0000000000000000000000000000000000000000000000000000000008152600401611ee691906140c0565b60405180910390fd5b505b6040517f08c379a0000000000000000000000000000000000000000000000000000000008152600401611f2390614102565b60405180910390fd5b63bc197c8160e01b7bffffffffffffffffffffffffffffffffffffffffffffffffffffffff1916817bffffffffffffffffffffffffffffffffffffffffffffffffffffffff191614611fb3576040517f08c379a0000000000000000000000000000000000000000000000000000000008152600401611faa90614122565b60405180910390fd5b505b505050505050565b611fc9848484846126b5565b60005b83518110156120905782818151811061200e577f4e487b7100000000000000000000000000000000000000000000000000000000600052603260045260246000fd5b602002602001015160056000868481518110612053577f4e487b7100000000000000000000000000000000000000000000000000000000600052603260045260246000fd5b602002602001015181526020019081526020016000206000828254612078919061464f565b925050819055508061208990614809565b9050611fcc565b5050505050565b6120a083611094565b6120df576040517f08c379a00000000000000000000000000000000000000000000000000000000081526004016120d6906142e2565b60405180910390fd5b8181600660008681526020019081526020016000209190612101929190612eda565b50505050565b600073ffffffffffffffffffffffffffffffffffffffff168173ffffffffffffffffffffffffffffffffffffffff161415612177576040517f08c379a000000000000000000000000000000000000000000000000000000000815260040161216e90614142565b60405180910390fd5b600073ffffffffffffffffffffffffffffffffffffffff166004600084815260200190815260200160002060009054906101000a900473ffffffffffffffffffffffffffffffffffffffff1673ffffffffffffffffffffffffffffffffffffffff1614612219576040517f08c379a000000000000000000000000000000000000000000000000000000000815260040161221090614242565b60405180910390fd5b806004600084815260200190815260200160002060006101000a81548173ffffffffffffffffffffffffffffffffffffffff021916908373ffffffffffffffffffffffffffffffffffffffff1602179055505050565b600082116122b2576040517f08c379a00000000000000000000000000000000000000000000000000000000081526004016122a9906142a2565b60405180910390fd5b6122be8484848461291f565b816005600085815260200190815260200160002060008282546122e1919061464f565b9250508190555050505050565b60006123727f1f4811ea05bd6ef1b5d6fe5742b38ceb697dcd732bf494780e7560602d1f36e7838060000190612324919061447d565b604051612332929190613dc4565b6040518091039020846020013585604001356040516020016123579493929190614036565b60405160208183030381529060405280519060200120612ab5565b9050919050565b6000806040518060400160405280601c81526020017f19457468657265756d205369676e6564204d6573736167653a0a3332000000008152509050600081856040516020016123c9929190613ddd565b6040516020818303038152906040528051906020012090506123eb8185612acf565b9250505092915050565b60606000600167ffffffffffffffff81111561243a577f4e487b7100000000000000000000000000000000000000000000000000000000600052604160045260246000fd5b6040519080825280602002602001820160405280156124685781602001602082028036833780820191505090505b50905082816000815181106124a6577f4e487b7100000000000000000000000000000000000000000000000000000000600052603260045260246000fd5b60200260200101818152505080915050919050565b6124da8473ffffffffffffffffffffffffffffffffffffffff166126a2565b1561269a578373ffffffffffffffffffffffffffffffffffffffff1663f23a6e6187878686866040518663ffffffff1660e01b8152600401612520959493929190613ee3565b602060405180830381600087803b15801561253a57600080fd5b505af192505050801561256b57506040513d601f19601f82011682018060405250810190612568919061373a565b60015b612611576125776148e9565b806308c379a014156125d4575061258c614fd6565b8061259757506125d6565b806040517f08c379a00000000000000000000000000000000000000000000000000000000081526004016125cb91906140c0565b60405180910390fd5b505b6040517f08c379a000000000000000000000000000000000000000000000000000000000815260040161260890614102565b60405180910390fd5b63f23a6e6160e01b7bffffffffffffffffffffffffffffffffffffffffffffffffffffffff1916817bffffffffffffffffffffffffffffffffffffffffffffffffffffffff191614612698576040517f08c379a000000000000000000000000000000000000000000000000000000000815260040161268f90614122565b60405180910390fd5b505b505050505050565b600080823b905060008111915050919050565b600073ffffffffffffffffffffffffffffffffffffffff168473ffffffffffffffffffffffffffffffffffffffff161415612725576040517f08c379a000000000000000000000000000000000000000000000000000000000815260040161271c906143a2565b60405180910390fd5b8151835114612769576040517f08c379a000000000000000000000000000000000000000000000000000000000815260040161276090614382565b60405180910390fd5b6000612773611d18565b905061278481600087878787611dce565b60005b8451811015612889578381815181106127c9577f4e487b7100000000000000000000000000000000000000000000000000000000600052603260045260246000fd5b602002602001015160008087848151811061280d577f4e487b7100000000000000000000000000000000000000000000000000000000600052603260045260246000fd5b6020026020010151815260200190815260200160002060008873ffffffffffffffffffffffffffffffffffffffff1673ffffffffffffffffffffffffffffffffffffffff168152602001908152602001600020600082825461286f919061464f565b92505081905550808061288190614809565b915050612787565b508473ffffffffffffffffffffffffffffffffffffffff16600073ffffffffffffffffffffffffffffffffffffffff168273ffffffffffffffffffffffffffffffffffffffff167f4a39dc06d4c0dbc64b70af90fd698a233a518aa5d07e595d983b8c0526c8f7fb8787604051612901929190613f91565b60405180910390a461291881600087878787611dd6565b5050505050565b600073ffffffffffffffffffffffffffffffffffffffff168473ffffffffffffffffffffffffffffffffffffffff16141561298f576040517f08c379a0000000000000000000000000000000000000000000000000000000008152600401612986906143a2565b60405180910390fd5b6000612999611d18565b90506129ba816000876129ab886123f5565b6129b4886123f5565b87611dce565b8260008086815260200190815260200160002060008773ffffffffffffffffffffffffffffffffffffffff1673ffffffffffffffffffffffffffffffffffffffff1681526020019081526020016000206000828254612a19919061464f565b925050819055508473ffffffffffffffffffffffffffffffffffffffff16600073ffffffffffffffffffffffffffffffffffffffff168273ffffffffffffffffffffffffffffffffffffffff167fc3d58168c5ae7397731d063d5bbf3d657854427343f4c083240f7aacaa2d0f628787604051612a979291906143fd565b60405180910390a4612aae816000878787876124bb565b5050505050565b6000612ac8612ac2612b99565b83612c5c565b9050919050565b600080600080604185511415612afc576020850151925060408501519150606085015160001a9050612b82565b604085511415612b46576040850151602086015193507f7fffffffffffffffffffffffffffffffffffffffffffffffffffffffffffffff81169250601b8160ff1c01915050612b81565b6040517f08c379a0000000000000000000000000000000000000000000000000000000008152600401612b7890614182565b60405180910390fd5b5b612b8e86828585612c8f565b935050505092915050565b60007f0000000000000000000000000000000000000000000000000000000000000000461415612beb577f00000000000000000000000000000000000000000000000000000000000000009050612c59565b612c567f00000000000000000000000000000000000000000000000000000000000000007f00000000000000000000000000000000000000000000000000000000000000007f0000000000000000000000000000000000000000000000000000000000000000612e1a565b90505b90565b60008282604051602001612c71929190613e29565b60405160208183030381529060405280519060200120905092915050565b60007f7fffffffffffffffffffffffffffffff5d576e7357a4501ddfe92f46681b20a08260001c1115612cf7576040517f08c379a0000000000000000000000000000000000000000000000000000000008152600401612cee90614222565b60405180910390fd5b601b8460ff161480612d0c5750601c8460ff16145b612d4b576040517f08c379a0000000000000000000000000000000000000000000000000000000008152600401612d42906142c2565b60405180910390fd5b600060018686868660405160008152602001604052604051612d70949392919061407b565b6020604051602081039080840390855afa158015612d92573d6000803e3d6000fd5b505050602060405103519050600073ffffffffffffffffffffffffffffffffffffffff168173ffffffffffffffffffffffffffffffffffffffff161415612e0e576040517f08c379a0000000000000000000000000000000000000000000000000000000008152600401612e05906140e2565b60405180910390fd5b80915050949350505050565b60008383834630604051602001612e35959493929190613fe3565b6040516020818303038152906040528051906020012090509392505050565b828054612e60906147a6565b90600052602060002090601f016020900481019282612e825760008555612ec9565b82601f10612e9b57805160ff1916838001178555612ec9565b82800160010185558215612ec9579182015b82811115612ec8578251825591602001919060010190612ead565b5b509050612ed69190612f60565b5090565b828054612ee6906147a6565b90600052602060002090601f016020900481019282612f085760008555612f4f565b82601f10612f2157803560ff1916838001178555612f4f565b82800160010185558215612f4f579182015b82811115612f4e578235825591602001919060010190612f33565b5b509050612f5c9190612f60565b5090565b5b80821115612f79576000816000905550600101612f61565b5090565b6000612f90612f8b846144f9565b6144d4565b90508083825260208201905082856020860282011115612faf57600080fd5b60005b85811015612fdf5781612fc588826130d1565b845260208401935060208301925050600181019050612fb2565b5050509392505050565b6000612ffc612ff784614525565b6144d4565b9050808382526020820190508285602086028201111561301b57600080fd5b60005b8581101561304b578161303188826132c6565b84526020840193506020830192505060018101905061301e565b5050509392505050565b600061306861306384614551565b6144d4565b90508281526020810184848401111561308057600080fd5b61308b848285614764565b509392505050565b60006130a66130a184614582565b6144d4565b9050828152602081018484840111156130be57600080fd5b6130c9848285614764565b509392505050565b6000813590506130e08161506c565b92915050565b600082601f8301126130f757600080fd5b8135613107848260208601612f7d565b91505092915050565b60008083601f84011261312257600080fd5b8235905067ffffffffffffffff81111561313b57600080fd5b60208301915083602082028301111561315357600080fd5b9250929050565b60008083601f84011261316c57600080fd5b8235905067ffffffffffffffff81111561318557600080fd5b60208301915083602082028301111561319d57600080fd5b9250929050565b600082601f8301126131b557600080fd5b81356131c5848260208601612fe9565b91505092915050565b6000813590506131dd81615083565b92915050565b6000813590506131f28161509a565b92915050565b6000815190506132078161509a565b92915050565b600082601f83011261321e57600080fd5b813561322e848260208601613055565b91505092915050565b60008083601f84011261324957600080fd5b8235905067ffffffffffffffff81111561326257600080fd5b60208301915083600182028301111561327a57600080fd5b9250929050565b600082601f83011261329257600080fd5b81356132a2848260208601613093565b91505092915050565b6000608082840312156132bd57600080fd5b81905092915050565b6000813590506132d5816150b1565b92915050565b6000602082840312156132ed57600080fd5b60006132fb848285016130d1565b91505092915050565b6000806040838503121561331757600080fd5b6000613325858286016130d1565b9250506020613336858286016130d1565b9150509250929050565b600080600080600060a0868803121561335857600080fd5b6000613366888289016130d1565b9550506020613377888289016130d1565b945050604086013567ffffffffffffffff81111561339457600080fd5b6133a0888289016131a4565b935050606086013567ffffffffffffffff8111156133bd57600080fd5b6133c9888289016131a4565b925050608086013567ffffffffffffffff8111156133e657600080fd5b6133f28882890161320d565b9150509295509295909350565b600080600080600060a0868803121561341757600080fd5b6000613425888289016130d1565b9550506020613436888289016130d1565b9450506040613447888289016132c6565b9350506060613458888289016132c6565b925050608086013567ffffffffffffffff81111561347557600080fd5b6134818882890161320d565b9150509295509295909350565b600080600080600080608087890312156134a757600080fd5b60006134b589828a016130d1565b965050602087013567ffffffffffffffff8111156134d257600080fd5b6134de89828a01613110565b9550955050604087013567ffffffffffffffff8111156134fd57600080fd5b61350989828a0161315a565b9350935050606087013567ffffffffffffffff81111561352857600080fd5b61353489828a0161320d565b9150509295509295509295565b6000806040838503121561355457600080fd5b6000613562858286016130d1565b9250506020613573858286016131ce565b9150509250929050565b60008060008060006080868803121561359557600080fd5b60006135a3888289016130d1565b955050602086013567ffffffffffffffff8111156135c057600080fd5b6135cc88828901613237565b945094505060406135df888289016132c6565b925050606086013567ffffffffffffffff8111156135fc57600080fd5b6136088882890161320d565b9150509295509295909350565b6000806040838503121561362857600080fd5b6000613636858286016130d1565b925050602083013567ffffffffffffffff81111561365357600080fd5b61365f858286016132ab565b9150509250929050565b6000806040838503121561367c57600080fd5b600061368a858286016130d1565b925050602061369b858286016132c6565b9150509250929050565b600080604083850312156136b857600080fd5b600083013567ffffffffffffffff8111156136d257600080fd5b6136de858286016130e6565b925050602083013567ffffffffffffffff8111156136fb57600080fd5b613707858286016131a4565b9150509250929050565b60006020828403121561372357600080fd5b6000613731848285016131e3565b91505092915050565b60006020828403121561374c57600080fd5b600061375a848285016131f8565b91505092915050565b60006020828403121561377557600080fd5b600082013567ffffffffffffffff81111561378f57600080fd5b61379b84828501613281565b91505092915050565b6000602082840312156137b657600080fd5b60006137c4848285016132c6565b91505092915050565b60006137d98383613d97565b60208301905092915050565b6137ee816146d9565b82525050565b60006137ff826145d8565b6138098185614606565b9350613814836145b3565b8060005b8381101561384557815161382c88826137cd565b9750613837836145f9565b925050600181019050613818565b5085935050505092915050565b61385b816146eb565b82525050565b61386a816146f7565b82525050565b61388161387c826146f7565b614852565b82525050565b60006138938385614628565b93506138a0838584614764565b82840190509392505050565b60006138b7826145e3565b6138c18185614617565b93506138d1818560208601614773565b6138da8161490b565b840191505092915050565b60006138f0826145e3565b6138fa8185614628565b935061390a818560208601614773565b80840191505092915050565b60006139228385614633565b935061392f838584614764565b6139388361490b565b840190509392505050565b600061394e826145ee565b6139588185614633565b9350613968818560208601614773565b6139718161490b565b840191505092915050565b6000613987826145ee565b6139918185614644565b93506139a1818560208601614773565b80840191505092915050565b600081546139ba816147a6565b6139c48186614644565b945060018216600081146139df57600181146139f057613a23565b60ff19831686528186019350613a23565b6139f9856145c3565b60005b83811015613a1b578154818901526001820191506020810190506139fc565b838801955050505b50505092915050565b6000613a39601883614633565b9150613a4482614929565b602082019050919050565b6000613a5c603483614633565b9150613a6782614952565b604082019050919050565b6000613a7f602883614633565b9150613a8a826149a1565b604082019050919050565b6000613aa2601d83614633565b9150613aad826149f0565b602082019050919050565b6000613ac5602383614633565b9150613ad082614a19565b604082019050919050565b6000613ae8601f83614633565b9150613af382614a68565b602082019050919050565b6000613b0b602b83614633565b9150613b1682614a91565b604082019050919050565b6000613b2e602683614633565b9150613b3982614ae0565b604082019050919050565b6000613b51600283614644565b9150613b5c82614b2f565b600282019050919050565b6000613b74602983614633565b9150613b7f82614b58565b604082019050919050565b6000613b97602383614633565b9150613ba282614ba7565b604082019050919050565b6000613bba602283614633565b9150613bc582614bf6565b604082019050919050565b6000613bdd601e83614633565b9150613be882614c45565b602082019050919050565b6000613c00602583614633565b9150613c0b82614c6e565b604082019050919050565b6000613c23603283614633565b9150613c2e82614cbd565b604082019050919050565b6000613c46601c83614633565b9150613c5182614d0c565b602082019050919050565b6000613c69602283614633565b9150613c7482614d35565b604082019050919050565b6000613c8c602883614633565b9150613c9782614d84565b604082019050919050565b6000613caf602a83614633565b9150613cba82614dd3565b604082019050919050565b6000613cd2602083614633565b9150613cdd82614e22565b602082019050919050565b6000613cf5602983614633565b9150613d0082614e4b565b604082019050919050565b6000613d18602983614633565b9150613d2382614e9a565b604082019050919050565b6000613d3b602883614633565b9150613d4682614ee9565b604082019050919050565b6000613d5e602183614633565b9150613d6982614f38565b604082019050919050565b6000613d81602b83614633565b9150613d8c82614f87565b604082019050919050565b613da08161474d565b82525050565b613daf8161474d565b82525050565b613dbe81614757565b82525050565b6000613dd1828486613887565b91508190509392505050565b6000613de982856138e5565b9150613df58284613870565b6020820191508190509392505050565b6000613e11828561397c565b9150613e1d82846139ad565b91508190509392505050565b6000613e3482613b44565b9150613e408285613870565b602082019150613e508284613870565b6020820191508190509392505050565b6000602082019050613e7560008301846137e5565b92915050565b600060a082019050613e9060008301886137e5565b613e9d60208301876137e5565b8181036040830152613eaf81866137f4565b90508181036060830152613ec381856137f4565b90508181036080830152613ed781846138ac565b90509695505050505050565b600060a082019050613ef860008301886137e5565b613f0560208301876137e5565b613f126040830186613da6565b613f1f6060830185613da6565b8181036080830152613f3181846138ac565b90509695505050505050565b6000604082019050613f5260008301866137e5565b8181036020830152613f65818486613916565b9050949350505050565b60006020820190508181036000830152613f8981846137f4565b905092915050565b60006040820190508181036000830152613fab81856137f4565b90508181036020830152613fbf81846137f4565b90509392505050565b6000602082019050613fdd6000830184613852565b92915050565b600060a082019050613ff86000830188613861565b6140056020830187613861565b6140126040830186613861565b61401f6060830185613da6565b61402c60808301846137e5565b9695505050505050565b600060808201905061404b6000830187613861565b6140586020830186613861565b6140656040830185613da6565b6140726060830184613da6565b95945050505050565b60006080820190506140906000830187613861565b61409d6020830186613db5565b6140aa6040830185613861565b6140b76060830184613861565b95945050505050565b600060208201905081810360008301526140da8184613943565b905092915050565b600060208201905081810360008301526140fb81613a2c565b9050919050565b6000602082019050818103600083015261411b81613a4f565b9050919050565b6000602082019050818103600083015261413b81613a72565b9050919050565b6000602082019050818103600083015261415b81613a95565b9050919050565b6000602082019050818103600083015261417b81613ab8565b9050919050565b6000602082019050818103600083015261419b81613adb565b9050919050565b600060208201905081810360008301526141bb81613afe565b9050919050565b600060208201905081810360008301526141db81613b21565b9050919050565b600060208201905081810360008301526141fb81613b67565b9050919050565b6000602082019050818103600083015261421b81613b8a565b9050919050565b6000602082019050818103600083015261423b81613bad565b9050919050565b6000602082019050818103600083015261425b81613bd0565b9050919050565b6000602082019050818103600083015261427b81613bf3565b9050919050565b6000602082019050818103600083015261429b81613c16565b9050919050565b600060208201905081810360008301526142bb81613c39565b9050919050565b600060208201905081810360008301526142db81613c5c565b9050919050565b600060208201905081810360008301526142fb81613c7f565b9050919050565b6000602082019050818103600083015261431b81613ca2565b9050919050565b6000602082019050818103600083015261433b81613cc5565b9050919050565b6000602082019050818103600083015261435b81613ce8565b9050919050565b6000602082019050818103600083015261437b81613d0b565b9050919050565b6000602082019050818103600083015261439b81613d2e565b9050919050565b600060208201905081810360008301526143bb81613d51565b9050919050565b600060208201905081810360008301526143db81613d74565b9050919050565b60006020820190506143f76000830184613da6565b92915050565b60006040820190506144126000830185613da6565b61441f6020830184613da6565b9392505050565b6000808335600160200384360303811261443f57600080fd5b80840192508235915067ffffffffffffffff82111561445d57600080fd5b60208301925060018202360383131561447557600080fd5b509250929050565b6000808335600160200384360303811261449657600080fd5b80840192508235915067ffffffffffffffff8211156144b457600080fd5b6020830192506001820236038313156144cc57600080fd5b509250929050565b60006144de6144ef565b90506144ea82826147d8565b919050565b6000604051905090565b600067ffffffffffffffff821115614514576145136148ba565b5b602082029050602081019050919050565b600067ffffffffffffffff8211156145405761453f6148ba565b5b602082029050602081019050919050565b600067ffffffffffffffff82111561456c5761456b6148ba565b5b6145758261490b565b9050602081019050919050565b600067ffffffffffffffff82111561459d5761459c6148ba565b5b6145a68261490b565b9050602081019050919050565b6000819050602082019050919050565b60008190508160005260206000209050919050565b600081519050919050565b600081519050919050565b600081519050919050565b6000602082019050919050565b600082825260208201905092915050565b600082825260208201905092915050565b600081905092915050565b600082825260208201905092915050565b600081905092915050565b600061465a8261474d565b91506146658361474d565b9250827fffffffffffffffffffffffffffffffffffffffffffffffffffffffffffffffff0382111561469a5761469961485c565b5b828201905092915050565b60006146b08261474d565b91506146bb8361474d565b9250828210156146ce576146cd61485c565b5b828203905092915050565b60006146e48261472d565b9050919050565b60008115159050919050565b6000819050919050565b60007fffffffff0000000000000000000000000000000000000000000000000000000082169050919050565b600073ffffffffffffffffffffffffffffffffffffffff82169050919050565b6000819050919050565b600060ff82169050919050565b82818337600083830152505050565b60005b83811015614791578082015181840152602081019050614776565b838111156147a0576000848401525b50505050565b600060028204905060018216806147be57607f821691505b602082108114156147d2576147d161488b565b5b50919050565b6147e18261490b565b810181811067ffffffffffffffff82111715614800576147ff6148ba565b5b80604052505050565b60006148148261474d565b91507fffffffffffffffffffffffffffffffffffffffffffffffffffffffffffffffff8214156148475761484661485c565b5b600182019050919050565b6000819050919050565b7f4e487b7100000000000000000000000000000000000000000000000000000000600052601160045260246000fd5b7f4e487b7100000000000000000000000000000000000000000000000000000000600052602260045260246000fd5b7f4e487b7100000000000000000000000000000000000000000000000000000000600052604160045260246000fd5b600060033d11156149085760046000803e61490560005161491c565b90505b90565b6000601f19601f8301169050919050565b60008160e01c9050919050565b7f45434453413a20696e76616c6964207369676e61747572650000000000000000600082015250565b7f455243313135353a207472616e7366657220746f206e6f6e204552433131353560008201527f526563656976657220696d706c656d656e746572000000000000000000000000602082015250565b7f455243313135353a204552433131353552656365697665722072656a6563746560008201527f6420746f6b656e73000000000000000000000000000000000000000000000000602082015250565b7f455243313135353a207a65726f20616464726573732063726561746f72000000600082015250565b7f455243313135353a206d696e744261746368206c656e67746873206d69736d6160008201527f7463680000000000000000000000000000000000000000000000000000000000602082015250565b7f45434453413a20696e76616c6964207369676e6174757265206c656e67746800600082015250565b7f455243313135353a2062616c616e636520717565727920666f7220746865207a60008201527f65726f2061646472657373000000000000000000000000000000000000000000602082015250565b7f4f776e61626c653a206e6577206f776e657220697320746865207a65726f206160008201527f6464726573730000000000000000000000000000000000000000000000000000602082015250565b7f1901000000000000000000000000000000000000000000000000000000000000600082015250565b7f455243313135353a2063616c6c6572206973206e6f74206f776e6572206e6f7260008201527f20617070726f7665640000000000000000000000000000000000000000000000602082015250565b7f455243313135353a206d696e74206461746120616c726561647920726564656560008201527f6d65640000000000000000000000000000000000000000000000000000000000602082015250565b7f45434453413a20696e76616c6964207369676e6174757265202773272076616c60008201527f7565000000000000000000000000000000000000000000000000000000000000602082015250565b7f455243313135353a20616c72656164792068616420612063726561746f720000600082015250565b7f455243313135353a207472616e7366657220746f20746865207a65726f20616460008201527f6472657373000000000000000000000000000000000000000000000000000000602082015250565b7f455243313135353a207472616e736665722063616c6c6572206973206e6f742060008201527f6f776e6572206e6f7220617070726f7665640000000000000000000000000000602082015250565b7f455243313135353a206d696e7420616d6f756e74206973207a65726f00000000600082015250565b7f45434453413a20696e76616c6964207369676e6174757265202776272076616c60008201527f7565000000000000000000000000000000000000000000000000000000000000602082015250565b7f455243313135353a2055524920717565727920666f72206e6f6e65786973746560008201527f6e7420746f6b656e000000000000000000000000000000000000000000000000602082015250565b7f455243313135353a20696e73756666696369656e742062616c616e636520666f60008201527f72207472616e7366657200000000000000000000000000000000000000000000602082015250565b7f4f776e61626c653a2063616c6c6572206973206e6f7420746865206f776e6572600082015250565b7f455243313135353a2073657474696e6720617070726f76616c2073746174757360008201527f20666f722073656c660000000000000000000000000000000000000000000000602082015250565b7f455243313135353a206163636f756e747320616e6420696473206c656e67746860008201527f206d69736d617463680000000000000000000000000000000000000000000000602082015250565b7f455243313135353a2069647320616e6420616d6f756e7473206c656e6774682060008201527f6d69736d61746368000000000000000000000000000000000000000000000000602082015250565b7f455243313135353a206d696e7420746f20746865207a65726f2061646472657360008201527f7300000000000000000000000000000000000000000000000000000000000000602082015250565b7f455243313135353a2063616c6c6572206973206e6f742063726561746f72206e60008201527f6f7220617070726f766564000000000000000000000000000000000000000000602082015250565b600060443d1015614fe657615069565b614fee6144ef565b60043d036004823e80513d602482011167ffffffffffffffff82111715615016575050615069565b808201805167ffffffffffffffff8111156150345750505050615069565b80602083010160043d038501811115615051575050505050615069565b615060826020018501866147d8565b82955050505050505b90565b615075816146d9565b811461508057600080fd5b50565b61508c816146eb565b811461509757600080fd5b50565b6150a381614701565b81146150ae57600080fd5b50565b6150ba8161474d565b81146150c557600080fd5b5056fea2646970667358221220ea685ff066ebeb5b4681edcc0a1b32287042b5a7c393f3a656bfb2ba3e25cd3664736f6c63430008040033",
  "immutableReferences": {
    "3528": [
      {
        "length": 32,
        "start": 11205
      }
    ],
    "3530": [
      {
        "length": 32,
        "start": 11165
      }
    ],
    "3532": [
      {
        "length": 32,
        "start": 11281
      }
    ],
    "3534": [
      {
        "length": 32,
        "start": 11314
      }
    ],
    "3536": [
      {
        "length": 32,
        "start": 11248
      }
    ]
  },
  "source": "// SPDX-License-Identifier: UNLICENSED\n\npragma solidity 0.8.4;\n\nimport \"./TaureumERC1155.sol\";\nimport \"../../lib/utils/cryptography/draft-EIP712.sol\";\n\ncontract TaureumERC1155LazyMint is TaureumERC1155, EIP712 {\n    string private constant SIGNING_DOMAIN = \"TaureumERC1155\";\n    string private constant SIGNATURE_VERSION = \"1\";\n\n    /**\n     * @dev Mapping for checking if minting data has been redeemed.\n     */\n    mapping(bytes32 => bool) private _mintHashRedeemed;\n\n    event Logs(address creator, bytes32 digest, bytes signature, bytes32 salt);\n\n    /**\n     * @dev A struct consists of the lazy minting data.\n     */\n    struct MintData {\n        string tokenURI;\n        uint256 amount;\n        uint256 salt;\n        bytes signature;\n    }\n\n    /**\n     * @dev Create a new TaureumERC1155 contract and set the `_uri` value.\n     *\n     */\n    constructor(string memory uri_) TaureumERC1155(uri_) EIP712(SIGNING_DOMAIN, SIGNATURE_VERSION) {\n    }\n\n    /**\n     * @dev Implement a lazy minting mechanism in which the NFT-minting process is delayed until the first order is successful.\n     * This function should be handled by a smart contract which is allowed by the `creator`.\n     * @notice For each lazy minting data, this function should only be called once.\n     * @notice It throws if\n     *      - the minting data has already been redeemed.\n     *      - `msg.sender` is not the `creator` or has not been approved by the `creator`.\n     *      - minting data and signature are not valid.\n     *      - if the `redeemer` is a contract and it cannot receive the NFT.\n     * @param redeemer The address of the party that an amount of the minting token will be transferred to.\n     * @param mintData The lazy minting data.\n     */\n    function redeem(address redeemer, MintData calldata mintData)\n    public virtual returns (uint256)\n    {\n        bytes32 digest = _hash(mintData);\n        require(!_mintHashRedeemed[digest], \"ERC1155: mint data already redeemed\");\n\n        address creator = _verify(digest, mintData.signature);\n        address operator = msg.sender;\n        require(operator == creator || isApprovedForAll(creator, msg.sender), \"ERC1155: caller is not creator nor approved\");\n\n        uint256 id = uint256(keccak256(abi.encode(creator, mintData.tokenURI)));\n\n        // mint the token to the creator\n        super._mint(creator, id, mintData.amount, \"\");\n\n        // set the tokenURI\n        _setTokenUri(id, mintData.tokenURI);\n\n        // save the creator\n        if (_creator[id] == address(0x0)) {\n            _saveCreator(id, creator);\n        }\n\n        // set the redeemed status\n        _mintHashRedeemed[digest] = true;\n\n        // transfer the token to the redeemer\n        safeTransferFrom(creator, redeemer, id, mintData.amount, \"\");\n\n        return id;\n    }\n\n    /// @notice Return a hash of the given PendingNFT, prepared using EIP712 typed data hashing rules.\n    function _hash(MintData calldata mintData)\n    internal view returns (bytes32)\n    {\n        return _hashTypedDataV4(keccak256(abi.encode(\n                keccak256(\"TaureumERC1155(string uri,uint256 amount,uint256 salt)\"),\n                keccak256(bytes(mintData.tokenURI)),\n                mintData.amount,\n                mintData.salt\n            )));\n    }\n\n    /**\n     * @dev Return the signer for a pair of digested message and signature.\n     */\n    function _verify(bytes32 digest, bytes memory signature)\n    internal pure returns (address)\n    {\n        bytes memory prefix = \"\\x19Ethereum Signed Message:\\n32\";\n        bytes32 prefixedHash = keccak256(abi.encodePacked(prefix, digest));\n        return ECDSA.recover(prefixedHash, signature);\n    }\n}\n",
  "sourcePath": "/home/toor/nodejs/truffle/nft_demo/taureum/taureum-nft-sc/contracts/tokens/ERC1155/TaureumERC1155LazyMint.sol",
  "compiler": {
    "name": "solc",
    "version": "0.8.4+commit.c7e474f2.Emscripten.clang"
  },
  "schemaVersion": "3.4.1",
  "updatedAt": "2021-08-29T03:51:06.636Z",
  "networkType": "ethereum",
  "devdoc": {
    "kind": "dev",
    "methods": {
      "balanceOf(address,uint256)": {
        "details": "See {IERC1155-balanceOf}. Requirements: - `account` cannot be the zero address."
      },
      "balanceOfBatch(address[],uint256[])": {
        "details": "See {IERC1155-balanceOfBatch}. Requirements: - `accounts` and `ids` must have the same length."
      },
      "constructor": {
        "details": "Create a new TaureumERC1155 contract and set the `_uri` value."
      },
      "exists(uint256)": {
        "details": "Return the indicator whether a token exists given its id."
      },
      "getCreator(uint256)": {
        "details": "Return the creator of an NFT given its id."
      },
      "isApprovedForAll(address,address)": {
        "details": "See {IERC1155-isApprovedForAll}."
      },
      "mint(address,string,uint256,bytes)": {
        "details": "Mint a new ERC1155 token. A token can only be minted once."
      },
      "mintBatch(address,string[],uint256[],bytes)": {
        "details": "Mint a batch of tokens."
      },
      "owner()": {
        "details": "Returns the address of the current owner."
      },
      "redeem(address,(string,uint256,uint256,bytes))": {
        "details": "Implement a lazy minting mechanism in which the NFT-minting process is delayed until the first order is successful. This function should be handled by a smart contract which is allowed by the `creator`.",
        "params": {
          "mintData": "The lazy minting data.",
          "redeemer": "The address of the party that an amount of the minting token will be transferred to."
        }
      },
      "renounceOwnership()": {
        "details": "Leaves the contract without owner. It will not be possible to call `onlyOwner` functions anymore. Can only be called by the current owner. NOTE: Renouncing ownership will leave the contract without an owner, thereby removing any functionality that is only available to the owner."
      },
      "safeBatchTransferFrom(address,address,uint256[],uint256[],bytes)": {
        "details": "See {IERC1155-safeBatchTransferFrom}."
      },
      "safeTransferFrom(address,address,uint256,uint256,bytes)": {
        "details": "See {IERC1155-safeTransferFrom}."
      },
      "setApprovalForAll(address,bool)": {
        "details": "See {IERC1155-setApprovalForAll}."
      },
      "setURI(string)": {
        "details": "Sets a new URI for all token types, by relying on the token type ID substitution mechanism https://eips.ethereum.org/EIPS/eip-1155#metadata[defined in the EIP]. By this mechanism, any occurrence of the `\\{id\\}` substring in either the URI or any of the amounts in the JSON file at said URI will be replaced by clients with the token type ID. For example, the `https://token-cdn-domain/\\{id\\}.json` URI would be interpreted by clients as `https://token-cdn-domain/000000000000000000000000000000000000000000000000000000000004cce0.json` for token type ID 0x4cce0. See {uri}. Because these URIs cannot be meaningfully represented by the {URI} event, this function emits no events."
      },
      "supportsInterface(bytes4)": {
        "details": "See {IERC165-supportsInterface}."
      },
      "totalSupply(uint256)": {
        "details": "Total amount of tokens in with a given id."
      },
      "transferOwnership(address)": {
        "details": "Transfers ownership of the contract to a new account (`newOwner`). Can only be called by the current owner."
      },
      "uri(uint256)": {
        "details": "Return the URI of a tokenId."
      }
    },
    "stateVariables": {
      "_mintHashRedeemed": {
        "details": "Mapping for checking if minting data has been redeemed."
      }
    },
    "version": 1
  },
  "userdoc": {
    "kind": "user",
    "methods": {
      "mint(address,string,uint256,bytes)": {
        "notice": "It reverts if      - The `msg.sender` is not `to` or approved by `to`.      - `to` is the zero address.      - `to` cannot receive the token."
      },
      "redeem(address,(string,uint256,uint256,bytes))": {
        "notice": "For each lazy minting data, this function should only be called once.It throws if      - the minting data has already been redeemed.      - `msg.sender` is not the `creator` or has not been approved by the `creator`.      - minting data and signature are not valid.      - if the `redeemer` is a contract and it cannot receive the NFT."
      }
    },
    "version": 1
  }
}