{
  "contractName": "TaureumERC1155LazyMint",
  "abi": [
    {
      "inputs": [
        {
          "internalType": "string",
          "name": "uri_",
          "type": "string"
        }
      ],
      "stateMutability": "nonpayable",
      "type": "constructor"
    },
    {
      "anonymous": false,
      "inputs": [
        {
          "indexed": true,
          "internalType": "address",
          "name": "account",
          "type": "address"
        },
        {
          "indexed": true,
          "internalType": "address",
          "name": "operator",
          "type": "address"
        },
        {
          "indexed": false,
          "internalType": "bool",
          "name": "approved",
          "type": "bool"
        }
      ],
      "name": "ApprovalForAll",
      "type": "event"
    },
    {
      "anonymous": false,
      "inputs": [
        {
          "indexed": true,
          "internalType": "address",
          "name": "previousOwner",
          "type": "address"
        },
        {
          "indexed": true,
          "internalType": "address",
          "name": "newOwner",
          "type": "address"
        }
      ],
      "name": "OwnershipTransferred",
      "type": "event"
    },
    {
      "anonymous": false,
      "inputs": [
        {
          "indexed": true,
          "internalType": "address",
          "name": "operator",
          "type": "address"
        },
        {
          "indexed": true,
          "internalType": "address",
          "name": "from",
          "type": "address"
        },
        {
          "indexed": true,
          "internalType": "address",
          "name": "to",
          "type": "address"
        },
        {
          "indexed": false,
          "internalType": "uint256[]",
          "name": "ids",
          "type": "uint256[]"
        },
        {
          "indexed": false,
          "internalType": "uint256[]",
          "name": "values",
          "type": "uint256[]"
        }
      ],
      "name": "TransferBatch",
      "type": "event"
    },
    {
      "anonymous": false,
      "inputs": [
        {
          "indexed": true,
          "internalType": "address",
          "name": "operator",
          "type": "address"
        },
        {
          "indexed": true,
          "internalType": "address",
          "name": "from",
          "type": "address"
        },
        {
          "indexed": true,
          "internalType": "address",
          "name": "to",
          "type": "address"
        },
        {
          "indexed": false,
          "internalType": "uint256",
          "name": "id",
          "type": "uint256"
        },
        {
          "indexed": false,
          "internalType": "uint256",
          "name": "value",
          "type": "uint256"
        }
      ],
      "name": "TransferSingle",
      "type": "event"
    },
    {
      "anonymous": false,
      "inputs": [
        {
          "indexed": false,
          "internalType": "string",
          "name": "value",
          "type": "string"
        },
        {
          "indexed": true,
          "internalType": "uint256",
          "name": "id",
          "type": "uint256"
        }
      ],
      "name": "URI",
      "type": "event"
    },
    {
      "inputs": [
        {
          "internalType": "address",
          "name": "account",
          "type": "address"
        },
        {
          "internalType": "uint256",
          "name": "id",
          "type": "uint256"
        }
      ],
      "name": "balanceOf",
      "outputs": [
        {
          "internalType": "uint256",
          "name": "",
          "type": "uint256"
        }
      ],
      "stateMutability": "view",
      "type": "function"
    },
    {
      "inputs": [
        {
          "internalType": "address[]",
          "name": "accounts",
          "type": "address[]"
        },
        {
          "internalType": "uint256[]",
          "name": "ids",
          "type": "uint256[]"
        }
      ],
      "name": "balanceOfBatch",
      "outputs": [
        {
          "internalType": "uint256[]",
          "name": "",
          "type": "uint256[]"
        }
      ],
      "stateMutability": "view",
      "type": "function"
    },
    {
      "inputs": [
        {
          "internalType": "uint256",
          "name": "_id",
          "type": "uint256"
        }
      ],
      "name": "exists",
      "outputs": [
        {
          "internalType": "bool",
          "name": "",
          "type": "bool"
        }
      ],
      "stateMutability": "view",
      "type": "function"
    },
    {
      "inputs": [
        {
          "internalType": "address",
          "name": "account",
          "type": "address"
        },
        {
          "internalType": "address",
          "name": "operator",
          "type": "address"
        }
      ],
      "name": "isApprovedForAll",
      "outputs": [
        {
          "internalType": "bool",
          "name": "",
          "type": "bool"
        }
      ],
      "stateMutability": "view",
      "type": "function"
    },
    {
      "inputs": [
        {
          "internalType": "address",
          "name": "to",
          "type": "address"
        },
        {
          "internalType": "string",
          "name": "uri",
          "type": "string"
        },
        {
          "internalType": "uint256",
          "name": "supply",
          "type": "uint256"
        },
        {
          "internalType": "bytes",
          "name": "data",
          "type": "bytes"
        }
      ],
      "name": "mint",
      "outputs": [
        {
          "internalType": "uint256",
          "name": "",
          "type": "uint256"
        }
      ],
      "stateMutability": "nonpayable",
      "type": "function"
    },
    {
      "inputs": [
        {
          "internalType": "address",
          "name": "to",
          "type": "address"
        },
        {
          "internalType": "string[]",
          "name": "uriList",
          "type": "string[]"
        },
        {
          "internalType": "uint256[]",
          "name": "supplies",
          "type": "uint256[]"
        },
        {
          "internalType": "bytes",
          "name": "data",
          "type": "bytes"
        }
      ],
      "name": "mintBatch",
      "outputs": [
        {
          "internalType": "uint256[]",
          "name": "",
          "type": "uint256[]"
        }
      ],
      "stateMutability": "nonpayable",
      "type": "function"
    },
    {
      "inputs": [],
      "name": "owner",
      "outputs": [
        {
          "internalType": "address",
          "name": "",
          "type": "address"
        }
      ],
      "stateMutability": "view",
      "type": "function"
    },
    {
      "inputs": [],
      "name": "renounceOwnership",
      "outputs": [],
      "stateMutability": "nonpayable",
      "type": "function"
    },
    {
      "inputs": [
        {
          "internalType": "address",
          "name": "from",
          "type": "address"
        },
        {
          "internalType": "address",
          "name": "to",
          "type": "address"
        },
        {
          "internalType": "uint256[]",
          "name": "ids",
          "type": "uint256[]"
        },
        {
          "internalType": "uint256[]",
          "name": "amounts",
          "type": "uint256[]"
        },
        {
          "internalType": "bytes",
          "name": "data",
          "type": "bytes"
        }
      ],
      "name": "safeBatchTransferFrom",
      "outputs": [],
      "stateMutability": "nonpayable",
      "type": "function"
    },
    {
      "inputs": [
        {
          "internalType": "address",
          "name": "from",
          "type": "address"
        },
        {
          "internalType": "address",
          "name": "to",
          "type": "address"
        },
        {
          "internalType": "uint256",
          "name": "id",
          "type": "uint256"
        },
        {
          "internalType": "uint256",
          "name": "amount",
          "type": "uint256"
        },
        {
          "internalType": "bytes",
          "name": "data",
          "type": "bytes"
        }
      ],
      "name": "safeTransferFrom",
      "outputs": [],
      "stateMutability": "nonpayable",
      "type": "function"
    },
    {
      "inputs": [
        {
          "internalType": "address",
          "name": "operator",
          "type": "address"
        },
        {
          "internalType": "bool",
          "name": "approved",
          "type": "bool"
        }
      ],
      "name": "setApprovalForAll",
      "outputs": [],
      "stateMutability": "nonpayable",
      "type": "function"
    },
    {
      "inputs": [
        {
          "internalType": "string",
          "name": "newURI",
          "type": "string"
        }
      ],
      "name": "setURI",
      "outputs": [],
      "stateMutability": "nonpayable",
      "type": "function"
    },
    {
      "inputs": [
        {
          "internalType": "bytes4",
          "name": "interfaceId",
          "type": "bytes4"
        }
      ],
      "name": "supportsInterface",
      "outputs": [
        {
          "internalType": "bool",
          "name": "",
          "type": "bool"
        }
      ],
      "stateMutability": "view",
      "type": "function"
    },
    {
      "inputs": [
        {
          "internalType": "uint256",
          "name": "tokenId",
          "type": "uint256"
        }
      ],
      "name": "tokenURI",
      "outputs": [
        {
          "internalType": "string",
          "name": "",
          "type": "string"
        }
      ],
      "stateMutability": "view",
      "type": "function"
    },
    {
      "inputs": [
        {
          "internalType": "uint256",
          "name": "id",
          "type": "uint256"
        }
      ],
      "name": "totalSupply",
      "outputs": [
        {
          "internalType": "uint256",
          "name": "",
          "type": "uint256"
        }
      ],
      "stateMutability": "view",
      "type": "function"
    },
    {
      "inputs": [
        {
          "internalType": "address",
          "name": "newOwner",
          "type": "address"
        }
      ],
      "name": "transferOwnership",
      "outputs": [],
      "stateMutability": "nonpayable",
      "type": "function"
    },
    {
      "inputs": [
        {
          "internalType": "uint256",
          "name": "",
          "type": "uint256"
        }
      ],
      "name": "uri",
      "outputs": [
        {
          "internalType": "string",
          "name": "",
          "type": "string"
        }
      ],
      "stateMutability": "view",
      "type": "function"
    },
    {
      "inputs": [
        {
          "internalType": "uint256",
          "name": "_id",
          "type": "uint256"
        }
      ],
      "name": "getCreator",
      "outputs": [
        {
          "internalType": "address",
          "name": "",
          "type": "address"
        }
      ],
      "stateMutability": "view",
      "type": "function"
    },
    {
      "inputs": [
        {
          "internalType": "uint256",
          "name": "_id",
          "type": "uint256"
        }
      ],
      "name": "getMinted",
      "outputs": [
        {
          "internalType": "uint256",
          "name": "",
          "type": "uint256"
        }
      ],
      "stateMutability": "view",
      "type": "function"
    },
    {
      "inputs": [
        {
          "components": [
            {
              "internalType": "string",
              "name": "tokenURI",
              "type": "string"
            },
            {
              "internalType": "uint256",
              "name": "supply",
              "type": "uint256"
            },
            {
              "internalType": "bytes",
              "name": "signature",
              "type": "bytes"
            }
          ],
          "internalType": "struct TaureumERC1155LazyMint.MintData",
          "name": "mintData",
          "type": "tuple"
        },
        {
          "internalType": "address",
          "name": "redeemer",
          "type": "address"
        },
        {
          "internalType": "uint256",
          "name": "amount_",
          "type": "uint256"
        }
      ],
      "name": "redeem",
      "outputs": [],
      "stateMutability": "nonpayable",
      "type": "function"
    }
  ],
  "bytecode": "0x6101206040523480156200001257600080fd5b506040516200568538038062005685833981810160405281019062000038919062000370565b6040518060400160405280600e81526020017f5461757265756d455243313135350000000000000000000000000000000000008152506040518060400160405280600181526020017f31000000000000000000000000000000000000000000000000000000000000008152508280620000b781620001ee60201b60201c565b506000620000ca6200020a60201b60201c565b905080600360006101000a81548173ffffffffffffffffffffffffffffffffffffffff021916908373ffffffffffffffffffffffffffffffffffffffff1602179055508073ffffffffffffffffffffffffffffffffffffffff16600073ffffffffffffffffffffffffffffffffffffffff167f8be0079c531659141344cd1fd0a4f28419497f9722a3daafe3b4186f6b6457e060405160405180910390a3505060008280519060200120905060008280519060200120905060007f8b73c3c69bb8fe3d512ecc4cf759cc79239f7b179b0ffacaa9a75d522b39400f90508260c081815250508160e081815250504660a08181525050620001d28184846200021260201b60201c565b60808181525050806101008181525050505050505050620005fd565b8060029080519060200190620002069291906200024e565b5050565b600033905090565b600083838346306040516020016200022f959493929190620003e8565b6040516020818303038152906040528051906020012090509392505050565b8280546200025c9062000522565b90600052602060002090601f016020900481019282620002805760008555620002cc565b82601f106200029b57805160ff1916838001178555620002cc565b82800160010185558215620002cc579182015b82811115620002cb578251825591602001919060010190620002ae565b5b509050620002db9190620002df565b5090565b5b80821115620002fa576000816000905550600101620002e0565b5090565b6000620003156200030f846200046e565b62000445565b9050828152602081018484840111156200032e57600080fd5b6200033b848285620004ec565b509392505050565b600082601f8301126200035557600080fd5b815162000367848260208601620002fe565b91505092915050565b6000602082840312156200038357600080fd5b600082015167ffffffffffffffff8111156200039e57600080fd5b620003ac8482850162000343565b91505092915050565b620003c081620004a4565b82525050565b620003d181620004b8565b82525050565b620003e281620004e2565b82525050565b600060a082019050620003ff6000830188620003c6565b6200040e6020830187620003c6565b6200041d6040830186620003c6565b6200042c6060830185620003d7565b6200043b6080830184620003b5565b9695505050505050565b60006200045162000464565b90506200045f828262000558565b919050565b6000604051905090565b600067ffffffffffffffff8211156200048c576200048b620005bd565b5b6200049782620005ec565b9050602081019050919050565b6000620004b182620004c2565b9050919050565b6000819050919050565b600073ffffffffffffffffffffffffffffffffffffffff82169050919050565b6000819050919050565b60005b838110156200050c578082015181840152602081019050620004ef565b838111156200051c576000848401525b50505050565b600060028204905060018216806200053b57607f821691505b602082108114156200055257620005516200058e565b5b50919050565b6200056382620005ec565b810181811067ffffffffffffffff82111715620005855762000584620005bd565b5b80604052505050565b7f4e487b7100000000000000000000000000000000000000000000000000000000600052602260045260246000fd5b7f4e487b7100000000000000000000000000000000000000000000000000000000600052604160045260246000fd5b6000601f19601f8301169050919050565b60805160a05160c05160e05161010051615043620006426000396000612aea01526000612b2c01526000612b0b01526000612a9701526000612abf01526150436000f3fe608060405234801561001057600080fd5b506004361061012b5760003560e01c80635523c250116100ad578063c87b56dd11610071578063c87b56dd14610378578063d48e638a146103a8578063e985e9c5146103d8578063f242432a14610408578063f2fde38b146104245761012b565b80635523c250146102d4578063715018a6146103045780638da5cb5b1461030e578063a22cb4651461032c578063bd85b039146103485761012b565b80632eb2c2d6116100f45780632eb2c2d61461020c578063351bbeae14610228578063428a328b146102445780634e1273f4146102745780634f558e79146102a45761012b565b8062fdd58e1461013057806301ffc9a71461016057806302fe5305146101905780630e89341c146101ac5780631a9e379f146101dc575b600080fd5b61014a6004803603810190610145919061350f565b610440565b6040516101579190614324565b60405180910390f35b61017a600480360381019061017591906135b7565b610509565b6040516101879190613ef8565b60405180910390f35b6101aa60048036038101906101a59190613609565b6105eb565b005b6101c660048036038101906101c191906136b1565b610673565b6040516101d39190613fe2565b60405180910390f35b6101f660048036038101906101f191906136b1565b610707565b6040516102039190614324565b60405180910390f35b6102266004803603810190610221919061323a565b610724565b005b610242600480360381019061023d919061364a565b610b1a565b005b61025e60048036038101906102599190613388565b610d11565b60405161026b9190613e9f565b60405180910390f35b61028e6004803603810190610289919061354b565b610fbc565b60405161029b9190613e9f565b60405180910390f35b6102be60048036038101906102b991906136b1565b61116d565b6040516102cb9190613ef8565b60405180910390f35b6102ee60048036038101906102e99190613477565b61118c565b6040516102fb9190614324565b60405180910390f35b61030c6111e3565b005b610316611320565b6040516103239190613d90565b60405180910390f35b6103466004803603810190610341919061343b565b61134a565b005b610362600480360381019061035d91906136b1565b6114cb565b60405161036f9190614324565b60405180910390f35b610392600480360381019061038d91906136b1565b6114e8565b60405161039f9190613fe2565b60405180910390f35b6103c260048036038101906103bd91906136b1565b611626565b6040516103cf9190613d90565b60405180910390f35b6103f260048036038101906103ed91906131fe565b611663565b6040516103ff9190613ef8565b60405180910390f35b610422600480360381019061041d91906132f9565b6116f7565b005b61043e600480360381019061043991906131d5565b611a0f565b005b60008073ffffffffffffffffffffffffffffffffffffffff168373ffffffffffffffffffffffffffffffffffffffff1614156104b1576040517f08c379a00000000000000000000000000000000000000000000000000000000081526004016104a8906140e4565b60405180910390fd5b60008083815260200190815260200160002060008473ffffffffffffffffffffffffffffffffffffffff1673ffffffffffffffffffffffffffffffffffffffff16815260200190815260200160002054905092915050565b60007fd9b67a26000000000000000000000000000000000000000000000000000000007bffffffffffffffffffffffffffffffffffffffffffffffffffffffff1916827bffffffffffffffffffffffffffffffffffffffffffffffffffffffff191614806105d457507f0e89341c000000000000000000000000000000000000000000000000000000007bffffffffffffffffffffffffffffffffffffffffffffffffffffffff1916827bffffffffffffffffffffffffffffffffffffffffffffffffffffffff1916145b806105e457506105e382611bbb565b5b9050919050565b6105f3611c25565b73ffffffffffffffffffffffffffffffffffffffff16610611611320565b73ffffffffffffffffffffffffffffffffffffffff1614610667576040517f08c379a000000000000000000000000000000000000000000000000000000000815260040161065e90614244565b60405180910390fd5b61067081611c2d565b50565b606060028054610682906146e8565b80601f01602080910402602001604051908101604052809291908181526020018280546106ae906146e8565b80156106fb5780601f106106d0576101008083540402835291602001916106fb565b820191906000526020600020905b8154815290600101906020018083116106de57829003601f168201915b50505050509050919050565b600060076000838152602001908152602001600020549050919050565b8151835114610768576040517f08c379a000000000000000000000000000000000000000000000000000000000815260040161075f906142c4565b60405180910390fd5b600073ffffffffffffffffffffffffffffffffffffffff168473ffffffffffffffffffffffffffffffffffffffff1614156107d8576040517f08c379a00000000000000000000000000000000000000000000000000000000081526004016107cf90614184565b60405180910390fd5b6107e0611c25565b73ffffffffffffffffffffffffffffffffffffffff168573ffffffffffffffffffffffffffffffffffffffff161480610826575061082585610820611c25565b611663565b5b610865576040517f08c379a000000000000000000000000000000000000000000000000000000000815260040161085c906141a4565b60405180910390fd5b600061086f611c25565b905061087f818787878787611c47565b60005b8451811015610a855760008582815181106108c6577f4e487b7100000000000000000000000000000000000000000000000000000000600052603260045260246000fd5b60200260200101519050600085838151811061090b577f4e487b7100000000000000000000000000000000000000000000000000000000600052603260045260246000fd5b60200260200101519050600080600084815260200190815260200160002060008b73ffffffffffffffffffffffffffffffffffffffff1673ffffffffffffffffffffffffffffffffffffffff168152602001908152602001600020549050818110156109ac576040517f08c379a00000000000000000000000000000000000000000000000000000000081526004016109a390614224565b60405180910390fd5b81816109b891906145e7565b60008085815260200190815260200160002060008c73ffffffffffffffffffffffffffffffffffffffff1673ffffffffffffffffffffffffffffffffffffffff168152602001908152602001600020819055508160008085815260200190815260200160002060008b73ffffffffffffffffffffffffffffffffffffffff1673ffffffffffffffffffffffffffffffffffffffff1681526020019081526020016000206000828254610a6a9190614591565b9250508190555050505080610a7e9061474b565b9050610882565b508473ffffffffffffffffffffffffffffffffffffffff168673ffffffffffffffffffffffffffffffffffffffff168273ffffffffffffffffffffffffffffffffffffffff167f4a39dc06d4c0dbc64b70af90fd698a233a518aa5d07e595d983b8c0526c8f7fb8787604051610afc929190613ec1565b60405180910390a4610b12818787878787611c4f565b505050505050565b60008111610b5d576040517f08c379a0000000000000000000000000000000000000000000000000000000008152600401610b54906141c4565b60405180910390fd5b6000610bd7610b7f858060000190610b7591906143bf565b8760200135611e36565b858060400190610b8f9190614368565b8080601f016020809104026020016040519081016040528093929190818152602001838380828437600081840152601f19601f82011690508083019250505050505050611eab565b905060003390508173ffffffffffffffffffffffffffffffffffffffff168173ffffffffffffffffffffffffffffffffffffffff161480610c1e5750610c1d8233611663565b5b610c5d576040517f08c379a0000000000000000000000000000000000000000000000000000000008152600401610c5490614304565b60405180910390fd5b600082868060000190610c7091906143bf565b604051602001610c8293929190613e6d565b6040516020818303038152906040528051906020012060001c9050610cab818760200135611f27565b610cb58184611f99565b610cd48382886020013560405180602001604052806000815250612101565b610ced81878060000190610ce891906143bf565b6121a5565b610d0983868387604051806020016040528060008152506116f7565b505050505050565b6060838390508686905014610d5b576040517f08c379a0000000000000000000000000000000000000000000000000000000008152600401610d52906140a4565b60405180910390fd5b60008686905067ffffffffffffffff811115610da0577f4e487b7100000000000000000000000000000000000000000000000000000000600052604160045260246000fd5b604051908082528060200260200182016040528015610dce5781602001602082028036833780820191505090505b50905060005b87879050811015610eac5788888883818110610e19577f4e487b7100000000000000000000000000000000000000000000000000000000600052603260045260246000fd5b9050602002810190610e2b91906143bf565b604051602001610e3d93929190613e6d565b6040516020818303038152906040528051906020012060001c828281518110610e8f577f4e487b7100000000000000000000000000000000000000000000000000000000600052603260045260246000fd5b60200260200101818152505080610ea59061474b565b9050610dd4565b50610efa8882878780806020026020016040519081016040528093929190818152602001838360200280828437600081840152601f19601f8201169050808301925050505050505086612215565b60005b87879050811015610fad57610f9c828281518110610f44577f4e487b7100000000000000000000000000000000000000000000000000000000600052603260045260246000fd5b6020026020010151898984818110610f85577f4e487b7100000000000000000000000000000000000000000000000000000000600052603260045260246000fd5b9050602002810190610f9791906143bf565b6121a5565b80610fa69061474b565b9050610efd565b50809150509695505050505050565b60608151835114611002576040517f08c379a0000000000000000000000000000000000000000000000000000000008152600401610ff9906142a4565b60405180910390fd5b6000835167ffffffffffffffff811115611045577f4e487b7100000000000000000000000000000000000000000000000000000000600052604160045260246000fd5b6040519080825280602002602001820160405280156110735781602001602082028036833780820191505090505b50905060005b84518110156111625761110c8582815181106110be577f4e487b7100000000000000000000000000000000000000000000000000000000600052603260045260246000fd5b60200260200101518583815181106110ff577f4e487b7100000000000000000000000000000000000000000000000000000000600052603260045260246000fd5b6020026020010151610440565b828281518110611145577f4e487b7100000000000000000000000000000000000000000000000000000000600052603260045260246000fd5b6020026020010181815250508061115b9061474b565b9050611079565b508091505092915050565b6000806004600084815260200190815260200160002054119050919050565b6000808686866040516020016111a493929190613e6d565b6040516020818303038152906040528051906020012060001c90506111cb87828686612101565b6111d68187876121a5565b8091505095945050505050565b6111eb611c25565b73ffffffffffffffffffffffffffffffffffffffff16611209611320565b73ffffffffffffffffffffffffffffffffffffffff161461125f576040517f08c379a000000000000000000000000000000000000000000000000000000000815260040161125690614244565b60405180910390fd5b600073ffffffffffffffffffffffffffffffffffffffff16600360009054906101000a900473ffffffffffffffffffffffffffffffffffffffff1673ffffffffffffffffffffffffffffffffffffffff167f8be0079c531659141344cd1fd0a4f28419497f9722a3daafe3b4186f6b6457e060405160405180910390a36000600360006101000a81548173ffffffffffffffffffffffffffffffffffffffff021916908373ffffffffffffffffffffffffffffffffffffffff160217905550565b6000600360009054906101000a900473ffffffffffffffffffffffffffffffffffffffff16905090565b8173ffffffffffffffffffffffffffffffffffffffff16611369611c25565b73ffffffffffffffffffffffffffffffffffffffff1614156113c0576040517f08c379a00000000000000000000000000000000000000000000000000000000081526004016113b790614284565b60405180910390fd5b80600160006113cd611c25565b73ffffffffffffffffffffffffffffffffffffffff1673ffffffffffffffffffffffffffffffffffffffff16815260200190815260200160002060008473ffffffffffffffffffffffffffffffffffffffff1673ffffffffffffffffffffffffffffffffffffffff16815260200190815260200160002060006101000a81548160ff0219169083151502179055508173ffffffffffffffffffffffffffffffffffffffff1661147a611c25565b73ffffffffffffffffffffffffffffffffffffffff167f17307eab39ab6107e8899845ad3d59bd9653f200f220920489ca2b5937696c31836040516114bf9190613ef8565b60405180910390a35050565b600060046000838152602001908152602001600020549050919050565b60606114f38261116d565b611532576040517f08c379a000000000000000000000000000000000000000000000000000000000815260040161152990614204565b60405180910390fd5b600061153d83610673565b905060008151116115e957600560008481526020019081526020016000208054611566906146e8565b80601f0160208091040260200160405190810160405280929190818152602001828054611592906146e8565b80156115df5780601f106115b4576101008083540402835291602001916115df565b820191906000526020600020905b8154815290600101906020018083116115c257829003601f168201915b505050505061161e565b806005600085815260200190815260200160002060405160200161160e929190613d35565b6040516020818303038152906040525b915050919050565b60006006600083815260200190815260200160002060009054906101000a900473ffffffffffffffffffffffffffffffffffffffff169050919050565b6000600160008473ffffffffffffffffffffffffffffffffffffffff1673ffffffffffffffffffffffffffffffffffffffff16815260200190815260200160002060008373ffffffffffffffffffffffffffffffffffffffff1673ffffffffffffffffffffffffffffffffffffffff16815260200190815260200160002060009054906101000a900460ff16905092915050565b600073ffffffffffffffffffffffffffffffffffffffff168473ffffffffffffffffffffffffffffffffffffffff161415611767576040517f08c379a000000000000000000000000000000000000000000000000000000000815260040161175e90614184565b60405180910390fd5b61176f611c25565b73ffffffffffffffffffffffffffffffffffffffff168573ffffffffffffffffffffffffffffffffffffffff1614806117b557506117b4856117af611c25565b611663565b5b6117f4576040517f08c379a00000000000000000000000000000000000000000000000000000000081526004016117eb90614124565b60405180910390fd5b60006117fe611c25565b905061181e81878761180f886122ef565b611818886122ef565b87611c47565b600080600086815260200190815260200160002060008873ffffffffffffffffffffffffffffffffffffffff1673ffffffffffffffffffffffffffffffffffffffff168152602001908152602001600020549050838110156118b5576040517f08c379a00000000000000000000000000000000000000000000000000000000081526004016118ac90614224565b60405180910390fd5b83816118c191906145e7565b60008087815260200190815260200160002060008973ffffffffffffffffffffffffffffffffffffffff1673ffffffffffffffffffffffffffffffffffffffff168152602001908152602001600020819055508360008087815260200190815260200160002060008873ffffffffffffffffffffffffffffffffffffffff1673ffffffffffffffffffffffffffffffffffffffff16815260200190815260200160002060008282546119739190614591565b925050819055508573ffffffffffffffffffffffffffffffffffffffff168773ffffffffffffffffffffffffffffffffffffffff168373ffffffffffffffffffffffffffffffffffffffff167fc3d58168c5ae7397731d063d5bbf3d657854427343f4c083240f7aacaa2d0f6288886040516119f092919061433f565b60405180910390a4611a068288888888886123b5565b50505050505050565b611a17611c25565b73ffffffffffffffffffffffffffffffffffffffff16611a35611320565b73ffffffffffffffffffffffffffffffffffffffff1614611a8b576040517f08c379a0000000000000000000000000000000000000000000000000000000008152600401611a8290614244565b60405180910390fd5b600073ffffffffffffffffffffffffffffffffffffffff168173ffffffffffffffffffffffffffffffffffffffff161415611afb576040517f08c379a0000000000000000000000000000000000000000000000000000000008152600401611af290614104565b60405180910390fd5b8073ffffffffffffffffffffffffffffffffffffffff16600360009054906101000a900473ffffffffffffffffffffffffffffffffffffffff1673ffffffffffffffffffffffffffffffffffffffff167f8be0079c531659141344cd1fd0a4f28419497f9722a3daafe3b4186f6b6457e060405160405180910390a380600360006101000a81548173ffffffffffffffffffffffffffffffffffffffff021916908373ffffffffffffffffffffffffffffffffffffffff16021790555050565b60007f01ffc9a7000000000000000000000000000000000000000000000000000000007bffffffffffffffffffffffffffffffffffffffffffffffffffffffff1916827bffffffffffffffffffffffffffffffffffffffffffffffffffffffff1916149050919050565b600033905090565b8060029080519060200190611c43929190612d4e565b5050565b505050505050565b611c6e8473ffffffffffffffffffffffffffffffffffffffff1661259c565b15611e2e578373ffffffffffffffffffffffffffffffffffffffff1663bc197c8187878686866040518663ffffffff1660e01b8152600401611cb4959493929190613dab565b602060405180830381600087803b158015611cce57600080fd5b505af1925050508015611cff57506040513d601f19601f82011682018060405250810190611cfc91906135e0565b60015b611da557611d0b61482b565b806308c379a01415611d685750611d20614f1b565b80611d2b5750611d6a565b806040517f08c379a0000000000000000000000000000000000000000000000000000000008152600401611d5f9190613fe2565b60405180910390fd5b505b6040517f08c379a0000000000000000000000000000000000000000000000000000000008152600401611d9c90614024565b60405180910390fd5b63bc197c8160e01b7bffffffffffffffffffffffffffffffffffffffffffffffffffffffff1916817bffffffffffffffffffffffffffffffffffffffffffffffffffffffff191614611e2c576040517f08c379a0000000000000000000000000000000000000000000000000000000008152600401611e2390614064565b60405180910390fd5b505b505050505050565b6000611ea27fdf293cb82e8816cf7866a2018678e14350a6a96d55b91935394a7c8914997fa48585604051611e6c929190613cf4565b604051809103902084604051602001611e8793929190613f66565b604051602081830303815290604052805190602001206125af565b90509392505050565b6000806040518060400160405280601c81526020017f19457468657265756d205369676e6564204d6573736167653a0a333200000000815250905060008185604051602001611efb929190613d0d565b604051602081830303815290604052805190602001209050611f1d81856125c9565b9250505092915050565b6000600460008481526020019081526020016000205414611f7d576040517f08c379a0000000000000000000000000000000000000000000000000000000008152600401611f7490614044565b60405180910390fd5b8060046000848152602001908152602001600020819055505050565b600073ffffffffffffffffffffffffffffffffffffffff168173ffffffffffffffffffffffffffffffffffffffff161415612009576040517f08c379a000000000000000000000000000000000000000000000000000000000815260040161200090614084565b60405180910390fd5b600073ffffffffffffffffffffffffffffffffffffffff166006600084815260200190815260200160002060009054906101000a900473ffffffffffffffffffffffffffffffffffffffff1673ffffffffffffffffffffffffffffffffffffffff16146120ab576040517f08c379a00000000000000000000000000000000000000000000000000000000081526004016120a290614164565b60405180910390fd5b806006600084815260200190815260200160002060006101000a81548173ffffffffffffffffffffffffffffffffffffffff021916908373ffffffffffffffffffffffffffffffffffffffff1602179055505050565b60008260076000868152602001908152602001600020546121229190614591565b9050600460008581526020019081526020016000205481111561217a576040517f08c379a000000000000000000000000000000000000000000000000000000000815260040161217190614264565b60405180910390fd5b80600760008681526020019081526020016000208190555061219e85858585612693565b5050505050565b6121ae8361116d565b6121ed576040517f08c379a00000000000000000000000000000000000000000000000000000000081526004016121e490614204565b60405180910390fd5b818160056000868152602001908152602001600020919061220f929190612dd4565b50505050565b61222184848484612829565b60005b83518110156122e857828181518110612266577f4e487b7100000000000000000000000000000000000000000000000000000000600052603260045260246000fd5b6020026020010151600460008684815181106122ab577f4e487b7100000000000000000000000000000000000000000000000000000000600052603260045260246000fd5b6020026020010151815260200190815260200160002060008282546122d09190614591565b92505081905550806122e19061474b565b9050612224565b5050505050565b60606000600167ffffffffffffffff811115612334577f4e487b7100000000000000000000000000000000000000000000000000000000600052604160045260246000fd5b6040519080825280602002602001820160405280156123625781602001602082028036833780820191505090505b50905082816000815181106123a0577f4e487b7100000000000000000000000000000000000000000000000000000000600052603260045260246000fd5b60200260200101818152505080915050919050565b6123d48473ffffffffffffffffffffffffffffffffffffffff1661259c565b15612594578373ffffffffffffffffffffffffffffffffffffffff1663f23a6e6187878686866040518663ffffffff1660e01b815260040161241a959493929190613e13565b602060405180830381600087803b15801561243457600080fd5b505af192505050801561246557506040513d601f19601f8201168201806040525081019061246291906135e0565b60015b61250b5761247161482b565b806308c379a014156124ce5750612486614f1b565b8061249157506124d0565b806040517f08c379a00000000000000000000000000000000000000000000000000000000081526004016124c59190613fe2565b60405180910390fd5b505b6040517f08c379a000000000000000000000000000000000000000000000000000000000815260040161250290614024565b60405180910390fd5b63f23a6e6160e01b7bffffffffffffffffffffffffffffffffffffffffffffffffffffffff1916817bffffffffffffffffffffffffffffffffffffffffffffffffffffffff191614612592576040517f08c379a000000000000000000000000000000000000000000000000000000000815260040161258990614064565b60405180910390fd5b505b505050505050565b600080823b905060008111915050919050565b60006125c26125bc612a93565b83612b56565b9050919050565b6000806000806041855114156125f6576020850151925060408501519150606085015160001a905061267c565b604085511415612640576040850151602086015193507f7fffffffffffffffffffffffffffffffffffffffffffffffffffffffffffffff81169250601b8160ff1c0191505061267b565b6040517f08c379a0000000000000000000000000000000000000000000000000000000008152600401612672906140c4565b60405180910390fd5b5b61268886828585612b89565b935050505092915050565b600073ffffffffffffffffffffffffffffffffffffffff168473ffffffffffffffffffffffffffffffffffffffff161415612703576040517f08c379a00000000000000000000000000000000000000000000000000000000081526004016126fa906142e4565b60405180910390fd5b600061270d611c25565b905061272e8160008761271f886122ef565b612728886122ef565b87611c47565b8260008086815260200190815260200160002060008773ffffffffffffffffffffffffffffffffffffffff1673ffffffffffffffffffffffffffffffffffffffff168152602001908152602001600020600082825461278d9190614591565b925050819055508473ffffffffffffffffffffffffffffffffffffffff16600073ffffffffffffffffffffffffffffffffffffffff168273ffffffffffffffffffffffffffffffffffffffff167fc3d58168c5ae7397731d063d5bbf3d657854427343f4c083240f7aacaa2d0f62878760405161280b92919061433f565b60405180910390a4612822816000878787876123b5565b5050505050565b600073ffffffffffffffffffffffffffffffffffffffff168473ffffffffffffffffffffffffffffffffffffffff161415612899576040517f08c379a0000000000000000000000000000000000000000000000000000000008152600401612890906142e4565b60405180910390fd5b81518351146128dd576040517f08c379a00000000000000000000000000000000000000000000000000000000081526004016128d4906142c4565b60405180910390fd5b60006128e7611c25565b90506128f881600087878787611c47565b60005b84518110156129fd5783818151811061293d577f4e487b7100000000000000000000000000000000000000000000000000000000600052603260045260246000fd5b6020026020010151600080878481518110612981577f4e487b7100000000000000000000000000000000000000000000000000000000600052603260045260246000fd5b6020026020010151815260200190815260200160002060008873ffffffffffffffffffffffffffffffffffffffff1673ffffffffffffffffffffffffffffffffffffffff16815260200190815260200160002060008282546129e39190614591565b9250508190555080806129f59061474b565b9150506128fb565b508473ffffffffffffffffffffffffffffffffffffffff16600073ffffffffffffffffffffffffffffffffffffffff168273ffffffffffffffffffffffffffffffffffffffff167f4a39dc06d4c0dbc64b70af90fd698a233a518aa5d07e595d983b8c0526c8f7fb8787604051612a75929190613ec1565b60405180910390a4612a8c81600087878787611c4f565b5050505050565b60007f0000000000000000000000000000000000000000000000000000000000000000461415612ae5577f00000000000000000000000000000000000000000000000000000000000000009050612b53565b612b507f00000000000000000000000000000000000000000000000000000000000000007f00000000000000000000000000000000000000000000000000000000000000007f0000000000000000000000000000000000000000000000000000000000000000612d14565b90505b90565b60008282604051602001612b6b929190613d59565b60405160208183030381529060405280519060200120905092915050565b60007f7fffffffffffffffffffffffffffffff5d576e7357a4501ddfe92f46681b20a08260001c1115612bf1576040517f08c379a0000000000000000000000000000000000000000000000000000000008152600401612be890614144565b60405180910390fd5b601b8460ff161480612c065750601c8460ff16145b612c45576040517f08c379a0000000000000000000000000000000000000000000000000000000008152600401612c3c906141e4565b60405180910390fd5b600060018686868660405160008152602001604052604051612c6a9493929190613f9d565b6020604051602081039080840390855afa158015612c8c573d6000803e3d6000fd5b505050602060405103519050600073ffffffffffffffffffffffffffffffffffffffff168173ffffffffffffffffffffffffffffffffffffffff161415612d08576040517f08c379a0000000000000000000000000000000000000000000000000000000008152600401612cff90614004565b60405180910390fd5b80915050949350505050565b60008383834630604051602001612d2f959493929190613f13565b6040516020818303038152906040528051906020012090509392505050565b828054612d5a906146e8565b90600052602060002090601f016020900481019282612d7c5760008555612dc3565b82601f10612d9557805160ff1916838001178555612dc3565b82800160010185558215612dc3579182015b82811115612dc2578251825591602001919060010190612da7565b5b509050612dd09190612e5a565b5090565b828054612de0906146e8565b90600052602060002090601f016020900481019282612e025760008555612e49565b82601f10612e1b57803560ff1916838001178555612e49565b82800160010185558215612e49579182015b82811115612e48578235825591602001919060010190612e2d565b5b509050612e569190612e5a565b5090565b5b80821115612e73576000816000905550600101612e5b565b5090565b6000612e8a612e858461443b565b614416565b90508083825260208201905082856020860282011115612ea957600080fd5b60005b85811015612ed95781612ebf8882612fcb565b845260208401935060208301925050600181019050612eac565b5050509392505050565b6000612ef6612ef184614467565b614416565b90508083825260208201905082856020860282011115612f1557600080fd5b60005b85811015612f455781612f2b88826131c0565b845260208401935060208301925050600181019050612f18565b5050509392505050565b6000612f62612f5d84614493565b614416565b905082815260208101848484011115612f7a57600080fd5b612f858482856146a6565b509392505050565b6000612fa0612f9b846144c4565b614416565b905082815260208101848484011115612fb857600080fd5b612fc38482856146a6565b509392505050565b600081359050612fda81614fb1565b92915050565b600082601f830112612ff157600080fd5b8135613001848260208601612e77565b91505092915050565b60008083601f84011261301c57600080fd5b8235905067ffffffffffffffff81111561303557600080fd5b60208301915083602082028301111561304d57600080fd5b9250929050565b60008083601f84011261306657600080fd5b8235905067ffffffffffffffff81111561307f57600080fd5b60208301915083602082028301111561309757600080fd5b9250929050565b600082601f8301126130af57600080fd5b81356130bf848260208601612ee3565b91505092915050565b6000813590506130d781614fc8565b92915050565b6000813590506130ec81614fdf565b92915050565b60008151905061310181614fdf565b92915050565b600082601f83011261311857600080fd5b8135613128848260208601612f4f565b91505092915050565b60008083601f84011261314357600080fd5b8235905067ffffffffffffffff81111561315c57600080fd5b60208301915083600182028301111561317457600080fd5b9250929050565b600082601f83011261318c57600080fd5b813561319c848260208601612f8d565b91505092915050565b6000606082840312156131b757600080fd5b81905092915050565b6000813590506131cf81614ff6565b92915050565b6000602082840312156131e757600080fd5b60006131f584828501612fcb565b91505092915050565b6000806040838503121561321157600080fd5b600061321f85828601612fcb565b925050602061323085828601612fcb565b9150509250929050565b600080600080600060a0868803121561325257600080fd5b600061326088828901612fcb565b955050602061327188828901612fcb565b945050604086013567ffffffffffffffff81111561328e57600080fd5b61329a8882890161309e565b935050606086013567ffffffffffffffff8111156132b757600080fd5b6132c38882890161309e565b925050608086013567ffffffffffffffff8111156132e057600080fd5b6132ec88828901613107565b9150509295509295909350565b600080600080600060a0868803121561331157600080fd5b600061331f88828901612fcb565b955050602061333088828901612fcb565b9450506040613341888289016131c0565b9350506060613352888289016131c0565b925050608086013567ffffffffffffffff81111561336f57600080fd5b61337b88828901613107565b9150509295509295909350565b600080600080600080608087890312156133a157600080fd5b60006133af89828a01612fcb565b965050602087013567ffffffffffffffff8111156133cc57600080fd5b6133d889828a0161300a565b9550955050604087013567ffffffffffffffff8111156133f757600080fd5b61340389828a01613054565b9350935050606087013567ffffffffffffffff81111561342257600080fd5b61342e89828a01613107565b9150509295509295509295565b6000806040838503121561344e57600080fd5b600061345c85828601612fcb565b925050602061346d858286016130c8565b9150509250929050565b60008060008060006080868803121561348f57600080fd5b600061349d88828901612fcb565b955050602086013567ffffffffffffffff8111156134ba57600080fd5b6134c688828901613131565b945094505060406134d9888289016131c0565b925050606086013567ffffffffffffffff8111156134f657600080fd5b61350288828901613107565b9150509295509295909350565b6000806040838503121561352257600080fd5b600061353085828601612fcb565b9250506020613541858286016131c0565b9150509250929050565b6000806040838503121561355e57600080fd5b600083013567ffffffffffffffff81111561357857600080fd5b61358485828601612fe0565b925050602083013567ffffffffffffffff8111156135a157600080fd5b6135ad8582860161309e565b9150509250929050565b6000602082840312156135c957600080fd5b60006135d7848285016130dd565b91505092915050565b6000602082840312156135f257600080fd5b6000613600848285016130f2565b91505092915050565b60006020828403121561361b57600080fd5b600082013567ffffffffffffffff81111561363557600080fd5b6136418482850161317b565b91505092915050565b60008060006060848603121561365f57600080fd5b600084013567ffffffffffffffff81111561367957600080fd5b613685868287016131a5565b935050602061369686828701612fcb565b92505060406136a7868287016131c0565b9150509250925092565b6000602082840312156136c357600080fd5b60006136d1848285016131c0565b91505092915050565b60006136e68383613cc7565b60208301905092915050565b6136fb8161461b565b82525050565b600061370c8261451a565b6137168185614548565b9350613721836144f5565b8060005b8381101561375257815161373988826136da565b97506137448361453b565b925050600181019050613725565b5085935050505092915050565b6137688161462d565b82525050565b61377781614639565b82525050565b61378e61378982614639565b614794565b82525050565b60006137a0838561456a565b93506137ad8385846146a6565b82840190509392505050565b60006137c482614525565b6137ce8185614559565b93506137de8185602086016146b5565b6137e78161484d565b840191505092915050565b60006137fd82614525565b613807818561456a565b93506138178185602086016146b5565b80840191505092915050565b600061382f8385614575565b935061383c8385846146a6565b6138458361484d565b840190509392505050565b600061385b82614530565b6138658185614575565b93506138758185602086016146b5565b61387e8161484d565b840191505092915050565b600061389482614530565b61389e8185614586565b93506138ae8185602086016146b5565b80840191505092915050565b600081546138c7816146e8565b6138d18186614586565b945060018216600081146138ec57600181146138fd57613930565b60ff19831686528186019350613930565b61390685614505565b60005b8381101561392857815481890152600182019150602081019050613909565b838801955050505b50505092915050565b6000613946601883614575565b91506139518261486b565b602082019050919050565b6000613969603483614575565b915061397482614894565b604082019050919050565b600061398c601e83614575565b9150613997826148e3565b602082019050919050565b60006139af602883614575565b91506139ba8261490c565b604082019050919050565b60006139d2601d83614575565b91506139dd8261495b565b602082019050919050565b60006139f5602383614575565b9150613a0082614984565b604082019050919050565b6000613a18601f83614575565b9150613a23826149d3565b602082019050919050565b6000613a3b602b83614575565b9150613a46826149fc565b604082019050919050565b6000613a5e602683614575565b9150613a6982614a4b565b604082019050919050565b6000613a81600283614586565b9150613a8c82614a9a565b600282019050919050565b6000613aa4602983614575565b9150613aaf82614ac3565b604082019050919050565b6000613ac7602283614575565b9150613ad282614b12565b604082019050919050565b6000613aea601e83614575565b9150613af582614b61565b602082019050919050565b6000613b0d602583614575565b9150613b1882614b8a565b604082019050919050565b6000613b30603283614575565b9150613b3b82614bd9565b604082019050919050565b6000613b53601083614575565b9150613b5e82614c28565b602082019050919050565b6000613b76602283614575565b9150613b8182614c51565b604082019050919050565b6000613b99602883614575565b9150613ba482614ca0565b604082019050919050565b6000613bbc602a83614575565b9150613bc782614cef565b604082019050919050565b6000613bdf602083614575565b9150613bea82614d3e565b602082019050919050565b6000613c02601983614575565b9150613c0d82614d67565b602082019050919050565b6000613c25602983614575565b9150613c3082614d90565b604082019050919050565b6000613c48602983614575565b9150613c5382614ddf565b604082019050919050565b6000613c6b602883614575565b9150613c7682614e2e565b604082019050919050565b6000613c8e602183614575565b9150613c9982614e7d565b604082019050919050565b6000613cb1602b83614575565b9150613cbc82614ecc565b604082019050919050565b613cd08161468f565b82525050565b613cdf8161468f565b82525050565b613cee81614699565b82525050565b6000613d01828486613794565b91508190509392505050565b6000613d1982856137f2565b9150613d25828461377d565b6020820191508190509392505050565b6000613d418285613889565b9150613d4d82846138ba565b91508190509392505050565b6000613d6482613a74565b9150613d70828561377d565b602082019150613d80828461377d565b6020820191508190509392505050565b6000602082019050613da560008301846136f2565b92915050565b600060a082019050613dc060008301886136f2565b613dcd60208301876136f2565b8181036040830152613ddf8186613701565b90508181036060830152613df38185613701565b90508181036080830152613e0781846137b9565b90509695505050505050565b600060a082019050613e2860008301886136f2565b613e3560208301876136f2565b613e426040830186613cd6565b613e4f6060830185613cd6565b8181036080830152613e6181846137b9565b90509695505050505050565b6000604082019050613e8260008301866136f2565b8181036020830152613e95818486613823565b9050949350505050565b60006020820190508181036000830152613eb98184613701565b905092915050565b60006040820190508181036000830152613edb8185613701565b90508181036020830152613eef8184613701565b90509392505050565b6000602082019050613f0d600083018461375f565b92915050565b600060a082019050613f28600083018861376e565b613f35602083018761376e565b613f42604083018661376e565b613f4f6060830185613cd6565b613f5c60808301846136f2565b9695505050505050565b6000606082019050613f7b600083018661376e565b613f88602083018561376e565b613f956040830184613cd6565b949350505050565b6000608082019050613fb2600083018761376e565b613fbf6020830186613ce5565b613fcc604083018561376e565b613fd9606083018461376e565b95945050505050565b60006020820190508181036000830152613ffc8184613850565b905092915050565b6000602082019050818103600083015261401d81613939565b9050919050565b6000602082019050818103600083015261403d8161395c565b9050919050565b6000602082019050818103600083015261405d8161397f565b9050919050565b6000602082019050818103600083015261407d816139a2565b9050919050565b6000602082019050818103600083015261409d816139c5565b9050919050565b600060208201905081810360008301526140bd816139e8565b9050919050565b600060208201905081810360008301526140dd81613a0b565b9050919050565b600060208201905081810360008301526140fd81613a2e565b9050919050565b6000602082019050818103600083015261411d81613a51565b9050919050565b6000602082019050818103600083015261413d81613a97565b9050919050565b6000602082019050818103600083015261415d81613aba565b9050919050565b6000602082019050818103600083015261417d81613add565b9050919050565b6000602082019050818103600083015261419d81613b00565b9050919050565b600060208201905081810360008301526141bd81613b23565b9050919050565b600060208201905081810360008301526141dd81613b46565b9050919050565b600060208201905081810360008301526141fd81613b69565b9050919050565b6000602082019050818103600083015261421d81613b8c565b9050919050565b6000602082019050818103600083015261423d81613baf565b9050919050565b6000602082019050818103600083015261425d81613bd2565b9050919050565b6000602082019050818103600083015261427d81613bf5565b9050919050565b6000602082019050818103600083015261429d81613c18565b9050919050565b600060208201905081810360008301526142bd81613c3b565b9050919050565b600060208201905081810360008301526142dd81613c5e565b9050919050565b600060208201905081810360008301526142fd81613c81565b9050919050565b6000602082019050818103600083015261431d81613ca4565b9050919050565b60006020820190506143396000830184613cd6565b92915050565b60006040820190506143546000830185613cd6565b6143616020830184613cd6565b9392505050565b6000808335600160200384360303811261438157600080fd5b80840192508235915067ffffffffffffffff82111561439f57600080fd5b6020830192506001820236038313156143b757600080fd5b509250929050565b600080833560016020038436030381126143d857600080fd5b80840192508235915067ffffffffffffffff8211156143f657600080fd5b60208301925060018202360383131561440e57600080fd5b509250929050565b6000614420614431565b905061442c828261471a565b919050565b6000604051905090565b600067ffffffffffffffff821115614456576144556147fc565b5b602082029050602081019050919050565b600067ffffffffffffffff821115614482576144816147fc565b5b602082029050602081019050919050565b600067ffffffffffffffff8211156144ae576144ad6147fc565b5b6144b78261484d565b9050602081019050919050565b600067ffffffffffffffff8211156144df576144de6147fc565b5b6144e88261484d565b9050602081019050919050565b6000819050602082019050919050565b60008190508160005260206000209050919050565b600081519050919050565b600081519050919050565b600081519050919050565b6000602082019050919050565b600082825260208201905092915050565b600082825260208201905092915050565b600081905092915050565b600082825260208201905092915050565b600081905092915050565b600061459c8261468f565b91506145a78361468f565b9250827fffffffffffffffffffffffffffffffffffffffffffffffffffffffffffffffff038211156145dc576145db61479e565b5b828201905092915050565b60006145f28261468f565b91506145fd8361468f565b9250828210156146105761460f61479e565b5b828203905092915050565b60006146268261466f565b9050919050565b60008115159050919050565b6000819050919050565b60007fffffffff0000000000000000000000000000000000000000000000000000000082169050919050565b600073ffffffffffffffffffffffffffffffffffffffff82169050919050565b6000819050919050565b600060ff82169050919050565b82818337600083830152505050565b60005b838110156146d35780820151818401526020810190506146b8565b838111156146e2576000848401525b50505050565b6000600282049050600182168061470057607f821691505b60208210811415614714576147136147cd565b5b50919050565b6147238261484d565b810181811067ffffffffffffffff82111715614742576147416147fc565b5b80604052505050565b60006147568261468f565b91507fffffffffffffffffffffffffffffffffffffffffffffffffffffffffffffffff8214156147895761478861479e565b5b600182019050919050565b6000819050919050565b7f4e487b7100000000000000000000000000000000000000000000000000000000600052601160045260246000fd5b7f4e487b7100000000000000000000000000000000000000000000000000000000600052602260045260246000fd5b7f4e487b7100000000000000000000000000000000000000000000000000000000600052604160045260246000fd5b600060033d111561484a5760046000803e61484760005161485e565b90505b90565b6000601f19601f8301169050919050565b60008160e01c9050919050565b7f45434453413a20696e76616c6964207369676e61747572650000000000000000600082015250565b7f455243313135353a207472616e7366657220746f206e6f6e204552433131353560008201527f526563656976657220696d706c656d656e746572000000000000000000000000602082015250565b7f455243313135353a20746f74616c20737570706c79206e6f74207a65726f0000600082015250565b7f455243313135353a204552433131353552656365697665722072656a6563746560008201527f6420746f6b656e73000000000000000000000000000000000000000000000000602082015250565b7f455243313135353a207a65726f20616464726573732063726561746f72000000600082015250565b7f455243313135353a206d696e744261746368206c656e67746873206d69736d6160008201527f7463680000000000000000000000000000000000000000000000000000000000602082015250565b7f45434453413a20696e76616c6964207369676e6174757265206c656e67746800600082015250565b7f455243313135353a2062616c616e636520717565727920666f7220746865207a60008201527f65726f2061646472657373000000000000000000000000000000000000000000602082015250565b7f4f776e61626c653a206e6577206f776e657220697320746865207a65726f206160008201527f6464726573730000000000000000000000000000000000000000000000000000602082015250565b7f1901000000000000000000000000000000000000000000000000000000000000600082015250565b7f455243313135353a2063616c6c6572206973206e6f74206f776e6572206e6f7260008201527f20617070726f7665640000000000000000000000000000000000000000000000602082015250565b7f45434453413a20696e76616c6964207369676e6174757265202773272076616c60008201527f7565000000000000000000000000000000000000000000000000000000000000602082015250565b7f455243313135353a20616c72656164792068616420612063726561746f720000600082015250565b7f455243313135353a207472616e7366657220746f20746865207a65726f20616460008201527f6472657373000000000000000000000000000000000000000000000000000000602082015250565b7f455243313135353a207472616e736665722063616c6c6572206973206e6f742060008201527f6f776e6572206e6f7220617070726f7665640000000000000000000000000000602082015250565b7f616d6f756e7420696e636f727265637400000000000000000000000000000000600082015250565b7f45434453413a20696e76616c6964207369676e6174757265202776272076616c60008201527f7565000000000000000000000000000000000000000000000000000000000000602082015250565b7f455243313135353a2055524920717565727920666f72206e6f6e65786973746560008201527f6e7420746f6b656e000000000000000000000000000000000000000000000000602082015250565b7f455243313135353a20696e73756666696369656e742062616c616e636520666f60008201527f72207472616e7366657200000000000000000000000000000000000000000000602082015250565b7f4f776e61626c653a2063616c6c6572206973206e6f7420746865206f776e6572600082015250565b7f455243313135353a206d6f7265207468616e20737570706c7900000000000000600082015250565b7f455243313135353a2073657474696e6720617070726f76616c2073746174757360008201527f20666f722073656c660000000000000000000000000000000000000000000000602082015250565b7f455243313135353a206163636f756e747320616e6420696473206c656e67746860008201527f206d69736d617463680000000000000000000000000000000000000000000000602082015250565b7f455243313135353a2069647320616e6420616d6f756e7473206c656e6774682060008201527f6d69736d61746368000000000000000000000000000000000000000000000000602082015250565b7f455243313135353a206d696e7420746f20746865207a65726f2061646472657360008201527f7300000000000000000000000000000000000000000000000000000000000000602082015250565b7f455243313135353a2063616c6c6572206973206e6f742063726561746f72206e60008201527f6f7220617070726f766564000000000000000000000000000000000000000000602082015250565b600060443d1015614f2b57614fae565b614f33614431565b60043d036004823e80513d602482011167ffffffffffffffff82111715614f5b575050614fae565b808201805167ffffffffffffffff811115614f795750505050614fae565b80602083010160043d038501811115614f96575050505050614fae565b614fa58260200185018661471a565b82955050505050505b90565b614fba8161461b565b8114614fc557600080fd5b50565b614fd18161462d565b8114614fdc57600080fd5b50565b614fe881614643565b8114614ff357600080fd5b50565b614fff8161468f565b811461500a57600080fd5b5056fea2646970667358221220fee824a89050dda76cbbd73ecaf905ad57700d5ccafd5960ca2e3895507c746b64736f6c63430008040033",
  "immutableReferences": {
    "1977": [
      {
        "length": 32,
        "start": 10943
      }
    ],
    "1979": [
      {
        "length": 32,
        "start": 10903
      }
    ],
    "1981": [
      {
        "length": 32,
        "start": 11019
      }
    ],
    "1983": [
      {
        "length": 32,
        "start": 11052
      }
    ],
    "1985": [
      {
        "length": 32,
        "start": 10986
      }
    ]
  },
  "source": "// SPDX-License-Identifier: UNLICENSED\n\npragma solidity 0.8.4;\n\nimport \"./TaureumERC1155.sol\";\nimport \"../../lib/utils/cryptography/draft-EIP712.sol\";\n\ncontract TaureumERC1155LazyMint is TaureumERC1155, EIP712 {\n    string private constant SIGNING_DOMAIN = \"TaureumERC1155\";\n    string private constant SIGNATURE_VERSION = \"1\";\n\n    /**\n     * @dev Mapping from token IDs to their creator.\n     */\n    mapping(uint256 => address) private _creator;\n\n    /**\n     * @dev Mapping from token IDs to their current minted amounts.\n     */\n    mapping(uint256 => uint256) private _minted;\n\n    /**\n     * @dev A struct consists of the lazy minting data.\n     */\n    struct MintData {\n        string tokenURI;\n        uint256 supply;\n        bytes signature;\n    }\n\n    /**\n     * @dev Create a new TaureumERC1155 contract and set the `_uri` value.\n     *\n     */\n    constructor(string memory uri_) TaureumERC1155(uri_) EIP712(SIGNING_DOMAIN, SIGNATURE_VERSION) {\n    }\n\n    /**\n     * @dev Return the creator of an NFT given its id.\n     */\n    function getCreator(uint256 _id) external view returns (address) {\n        return _creator[_id];\n    }\n\n    /**\n     * @dev Return the minted amount of a token given its id.\n     */\n    function getMinted(uint256 _id) public view returns (uint256) {\n        return _minted[_id];\n    }\n\n    /**\n     * @dev Implement a lazy minting mechanism in which the NFT-minting process is delayed until the first order is successful.\n     * This function should be handled by a smart contract which is allowed by the `minter`.\n     * @notice For each lazy minting data, this function should only be called once.\n     * @notice It throws if\n     *      - `msg.sender` is not the `creator` or has not been approved by the `creator`.\n     *      - minting data and signature are not valid.\n     *      - if the `redeemer` is a contract and it cannot receive the NFT.\n     * @param mintData The lazy minting data.\n     * @param redeemer The address of the party that an amount of the minting token will be transferred to.\n     * @param amount_ The amount of the NFT.\n     */\n    function redeem(MintData calldata mintData, address redeemer, uint256 amount_)\n    public virtual\n    {\n        require(amount_ > 0, \"amount incorrect\");\n\n        address creator = _verify(_hash(mintData.tokenURI, mintData.supply), mintData.signature);\n        address operator = msg.sender;\n        require(operator == creator || isApprovedForAll(creator, msg.sender), \"ERC1155: caller is not creator nor approved\");\n\n        uint256 id = uint256(keccak256(abi.encode(creator, mintData.tokenURI)));\n\n        // save the total supply\n        _saveSupply(id, mintData.supply);\n        // save the creator\n        _saveCreator(id, creator);\n\n        // mint the token to the creator\n        _mint(creator, id, mintData.supply, \"\");\n        _setTokenUri(id, mintData.tokenURI);\n\n        // transfer the token to the redeemer\n        safeTransferFrom(creator, redeemer, id, amount_, \"\");\n    }\n\n    function _mint(address account, uint256 id, uint256 amount, bytes memory data) internal virtual override {\n        uint newMinted = _minted[id] + amount;\n        require(newMinted <= _totalSupply[id], \"ERC1155: more than supply\");\n        _minted[id] = newMinted;\n        ERC1155._mint(account, id, amount, data);\n    }\n\n    /**\n     * @dev Save the total supply of a token.\n     * @notice It reverts when the current total supply of the token is not 0.\n     */\n    function _saveSupply(uint256 tokenId, uint256 supply_) internal {\n        require(_totalSupply[tokenId] == 0, \"ERC1155: total supply not zero\");\n        _totalSupply[tokenId] = supply_;\n    }\n\n    /**\n     * @dev Save the creator of a token.\n     * @notice It reverts when\n     *   - `_creator` is the zero address; or\n     *   - the tokenId already had a creator.\n     */\n    function _saveCreator(uint256 tokenId, address creator_) internal {\n        require(creator_ != address(0x0), \"ERC1155: zero address creator\");\n        require(_creator[tokenId] == address(0x0), \"ERC1155: already had a creator\");\n        _creator[tokenId] = creator_;\n    }\n\n    /// @notice Return a hash of the given PendingNFT, prepared using EIP712 typed data hashing rules.\n    function _hash(string calldata uri, uint256 supply_)\n    internal view returns (bytes32)\n    {\n        return _hashTypedDataV4(keccak256(abi.encode(\n                keccak256(\"TaureumERC1155(string uri,uint256 supply)\"),\n                keccak256(bytes(uri)),\n                supply_\n            )));\n    }\n\n    /**\n     * @dev Return the signer for a pair of digested message and signature.\n     */\n    function _verify(bytes32 digest, bytes memory signature)\n    internal pure returns (address)\n    {\n        bytes memory prefix = \"\\x19Ethereum Signed Message:\\n32\";\n        bytes32 prefixedHash = keccak256(abi.encodePacked(prefix, digest));\n        return ECDSA.recover(prefixedHash, signature);\n    }\n}\n",
  "sourcePath": "/home/toor/nodejs/truffle/nft_demo/taudefi/taudefi-nft/contracts/tokens/ERC1155/TaureumERC1155LazyMint.sol",
  "compiler": {
    "name": "solc",
    "version": "0.8.4+commit.c7e474f2.Emscripten.clang"
  },
  "schemaVersion": "3.4.1",
  "updatedAt": "2021-08-07T09:36:32.431Z",
  "devdoc": {
    "kind": "dev",
    "methods": {
      "balanceOf(address,uint256)": {
        "details": "See {IERC1155-balanceOf}. Requirements: - `account` cannot be the zero address."
      },
      "balanceOfBatch(address[],uint256[])": {
        "details": "See {IERC1155-balanceOfBatch}. Requirements: - `accounts` and `ids` must have the same length."
      },
      "constructor": {
        "details": "Create a new TaureumERC1155 contract and set the `_uri` value."
      },
      "exists(uint256)": {
        "details": "Return the indicator whether a token exists given its id."
      },
      "getCreator(uint256)": {
        "details": "Return the creator of an NFT given its id."
      },
      "getMinted(uint256)": {
        "details": "Return the minted amount of a token given its id."
      },
      "isApprovedForAll(address,address)": {
        "details": "See {IERC1155-isApprovedForAll}."
      },
      "mint(address,string,uint256,bytes)": {
        "details": "Mint a new ERC1155 token. A token can only be minted once."
      },
      "mintBatch(address,string[],uint256[],bytes)": {
        "details": "Mint a batch of tokens."
      },
      "owner()": {
        "details": "Returns the address of the current owner."
      },
      "redeem((string,uint256,bytes),address,uint256)": {
        "details": "Implement a lazy minting mechanism in which the NFT-minting process is delayed until the first order is successful. This function should be handled by a smart contract which is allowed by the `minter`.",
        "params": {
          "amount_": "The amount of the NFT.",
          "mintData": "The lazy minting data.",
          "redeemer": "The address of the party that an amount of the minting token will be transferred to."
        }
      },
      "renounceOwnership()": {
        "details": "Leaves the contract without owner. It will not be possible to call `onlyOwner` functions anymore. Can only be called by the current owner. NOTE: Renouncing ownership will leave the contract without an owner, thereby removing any functionality that is only available to the owner."
      },
      "safeBatchTransferFrom(address,address,uint256[],uint256[],bytes)": {
        "details": "See {IERC1155-safeBatchTransferFrom}."
      },
      "safeTransferFrom(address,address,uint256,uint256,bytes)": {
        "details": "See {IERC1155-safeTransferFrom}."
      },
      "setApprovalForAll(address,bool)": {
        "details": "See {IERC1155-setApprovalForAll}."
      },
      "setURI(string)": {
        "details": "Sets a new URI for all token types, by relying on the token type ID substitution mechanism https://eips.ethereum.org/EIPS/eip-1155#metadata[defined in the EIP]. By this mechanism, any occurrence of the `\\{id\\}` substring in either the URI or any of the amounts in the JSON file at said URI will be replaced by clients with the token type ID. For example, the `https://token-cdn-domain/\\{id\\}.json` URI would be interpreted by clients as `https://token-cdn-domain/000000000000000000000000000000000000000000000000000000000004cce0.json` for token type ID 0x4cce0. See {uri}. Because these URIs cannot be meaningfully represented by the {URI} event, this function emits no events."
      },
      "supportsInterface(bytes4)": {
        "details": "See {IERC165-supportsInterface}."
      },
      "tokenURI(uint256)": {
        "details": "Return the URI of a tokenId."
      },
      "totalSupply(uint256)": {
        "details": "Total amount of tokens in with a given id."
      },
      "transferOwnership(address)": {
        "details": "Transfers ownership of the contract to a new account (`newOwner`). Can only be called by the current owner."
      },
      "uri(uint256)": {
        "details": "See {IERC1155MetadataURI-uri}. This implementation returns the same URI for *all* token types. It relies on the token type ID substitution mechanism https://eips.ethereum.org/EIPS/eip-1155#metadata[defined in the EIP]. Clients calling this function must replace the `\\{id\\}` substring with the actual token type ID."
      }
    },
    "stateVariables": {
      "_creator": {
        "details": "Mapping from token IDs to their creator."
      },
      "_minted": {
        "details": "Mapping from token IDs to their current minted amounts."
      }
    },
    "version": 1
  },
  "userdoc": {
    "kind": "user",
    "methods": {
      "redeem((string,uint256,bytes),address,uint256)": {
        "notice": "For each lazy minting data, this function should only be called once.It throws if      - `msg.sender` is not the `creator` or has not been approved by the `creator`.      - minting data and signature are not valid.      - if the `redeemer` is a contract and it cannot receive the NFT."
      }
    },
    "version": 1
  }
}