{
  "contractName": "TaureumERC1155",
  "abi": [
    {
      "inputs": [
        {
          "internalType": "string",
          "name": "uri_",
          "type": "string"
        }
      ],
      "stateMutability": "nonpayable",
      "type": "constructor"
    },
    {
      "anonymous": false,
      "inputs": [
        {
          "indexed": true,
          "internalType": "address",
          "name": "account",
          "type": "address"
        },
        {
          "indexed": true,
          "internalType": "address",
          "name": "operator",
          "type": "address"
        },
        {
          "indexed": false,
          "internalType": "bool",
          "name": "approved",
          "type": "bool"
        }
      ],
      "name": "ApprovalForAll",
      "type": "event"
    },
    {
      "anonymous": false,
      "inputs": [
        {
          "indexed": true,
          "internalType": "address",
          "name": "previousOwner",
          "type": "address"
        },
        {
          "indexed": true,
          "internalType": "address",
          "name": "newOwner",
          "type": "address"
        }
      ],
      "name": "OwnershipTransferred",
      "type": "event"
    },
    {
      "anonymous": false,
      "inputs": [
        {
          "indexed": true,
          "internalType": "address",
          "name": "operator",
          "type": "address"
        },
        {
          "indexed": true,
          "internalType": "address",
          "name": "from",
          "type": "address"
        },
        {
          "indexed": true,
          "internalType": "address",
          "name": "to",
          "type": "address"
        },
        {
          "indexed": false,
          "internalType": "uint256[]",
          "name": "ids",
          "type": "uint256[]"
        },
        {
          "indexed": false,
          "internalType": "uint256[]",
          "name": "values",
          "type": "uint256[]"
        }
      ],
      "name": "TransferBatch",
      "type": "event"
    },
    {
      "anonymous": false,
      "inputs": [
        {
          "indexed": true,
          "internalType": "address",
          "name": "operator",
          "type": "address"
        },
        {
          "indexed": true,
          "internalType": "address",
          "name": "from",
          "type": "address"
        },
        {
          "indexed": true,
          "internalType": "address",
          "name": "to",
          "type": "address"
        },
        {
          "indexed": false,
          "internalType": "uint256",
          "name": "id",
          "type": "uint256"
        },
        {
          "indexed": false,
          "internalType": "uint256",
          "name": "value",
          "type": "uint256"
        }
      ],
      "name": "TransferSingle",
      "type": "event"
    },
    {
      "anonymous": false,
      "inputs": [
        {
          "indexed": false,
          "internalType": "string",
          "name": "value",
          "type": "string"
        },
        {
          "indexed": true,
          "internalType": "uint256",
          "name": "id",
          "type": "uint256"
        }
      ],
      "name": "URI",
      "type": "event"
    },
    {
      "inputs": [
        {
          "internalType": "address",
          "name": "account",
          "type": "address"
        },
        {
          "internalType": "uint256",
          "name": "id",
          "type": "uint256"
        }
      ],
      "name": "balanceOf",
      "outputs": [
        {
          "internalType": "uint256",
          "name": "",
          "type": "uint256"
        }
      ],
      "stateMutability": "view",
      "type": "function"
    },
    {
      "inputs": [
        {
          "internalType": "address[]",
          "name": "accounts",
          "type": "address[]"
        },
        {
          "internalType": "uint256[]",
          "name": "ids",
          "type": "uint256[]"
        }
      ],
      "name": "balanceOfBatch",
      "outputs": [
        {
          "internalType": "uint256[]",
          "name": "",
          "type": "uint256[]"
        }
      ],
      "stateMutability": "view",
      "type": "function"
    },
    {
      "inputs": [
        {
          "internalType": "uint256",
          "name": "id",
          "type": "uint256"
        }
      ],
      "name": "exists",
      "outputs": [
        {
          "internalType": "bool",
          "name": "",
          "type": "bool"
        }
      ],
      "stateMutability": "view",
      "type": "function"
    },
    {
      "inputs": [
        {
          "internalType": "address",
          "name": "account",
          "type": "address"
        },
        {
          "internalType": "address",
          "name": "operator",
          "type": "address"
        }
      ],
      "name": "isApprovedForAll",
      "outputs": [
        {
          "internalType": "bool",
          "name": "",
          "type": "bool"
        }
      ],
      "stateMutability": "view",
      "type": "function"
    },
    {
      "inputs": [],
      "name": "owner",
      "outputs": [
        {
          "internalType": "address",
          "name": "",
          "type": "address"
        }
      ],
      "stateMutability": "view",
      "type": "function"
    },
    {
      "inputs": [],
      "name": "renounceOwnership",
      "outputs": [],
      "stateMutability": "nonpayable",
      "type": "function"
    },
    {
      "inputs": [
        {
          "internalType": "address",
          "name": "from",
          "type": "address"
        },
        {
          "internalType": "address",
          "name": "to",
          "type": "address"
        },
        {
          "internalType": "uint256[]",
          "name": "ids",
          "type": "uint256[]"
        },
        {
          "internalType": "uint256[]",
          "name": "amounts",
          "type": "uint256[]"
        },
        {
          "internalType": "bytes",
          "name": "data",
          "type": "bytes"
        }
      ],
      "name": "safeBatchTransferFrom",
      "outputs": [],
      "stateMutability": "nonpayable",
      "type": "function"
    },
    {
      "inputs": [
        {
          "internalType": "address",
          "name": "from",
          "type": "address"
        },
        {
          "internalType": "address",
          "name": "to",
          "type": "address"
        },
        {
          "internalType": "uint256",
          "name": "id",
          "type": "uint256"
        },
        {
          "internalType": "uint256",
          "name": "amount",
          "type": "uint256"
        },
        {
          "internalType": "bytes",
          "name": "data",
          "type": "bytes"
        }
      ],
      "name": "safeTransferFrom",
      "outputs": [],
      "stateMutability": "nonpayable",
      "type": "function"
    },
    {
      "inputs": [
        {
          "internalType": "address",
          "name": "operator",
          "type": "address"
        },
        {
          "internalType": "bool",
          "name": "approved",
          "type": "bool"
        }
      ],
      "name": "setApprovalForAll",
      "outputs": [],
      "stateMutability": "nonpayable",
      "type": "function"
    },
    {
      "inputs": [
        {
          "internalType": "bytes4",
          "name": "interfaceId",
          "type": "bytes4"
        }
      ],
      "name": "supportsInterface",
      "outputs": [
        {
          "internalType": "bool",
          "name": "",
          "type": "bool"
        }
      ],
      "stateMutability": "view",
      "type": "function"
    },
    {
      "inputs": [
        {
          "internalType": "uint256",
          "name": "id",
          "type": "uint256"
        }
      ],
      "name": "totalSupply",
      "outputs": [
        {
          "internalType": "uint256",
          "name": "",
          "type": "uint256"
        }
      ],
      "stateMutability": "view",
      "type": "function"
    },
    {
      "inputs": [
        {
          "internalType": "address",
          "name": "newOwner",
          "type": "address"
        }
      ],
      "name": "transferOwnership",
      "outputs": [],
      "stateMutability": "nonpayable",
      "type": "function"
    },
    {
      "inputs": [
        {
          "internalType": "uint256",
          "name": "",
          "type": "uint256"
        }
      ],
      "name": "uri",
      "outputs": [
        {
          "internalType": "string",
          "name": "",
          "type": "string"
        }
      ],
      "stateMutability": "view",
      "type": "function"
    },
    {
      "inputs": [
        {
          "internalType": "address",
          "name": "to",
          "type": "address"
        },
        {
          "internalType": "string",
          "name": "uri",
          "type": "string"
        },
        {
          "internalType": "uint256",
          "name": "supply",
          "type": "uint256"
        },
        {
          "internalType": "bytes",
          "name": "data",
          "type": "bytes"
        }
      ],
      "name": "mint",
      "outputs": [
        {
          "internalType": "uint256",
          "name": "",
          "type": "uint256"
        }
      ],
      "stateMutability": "nonpayable",
      "type": "function"
    },
    {
      "inputs": [
        {
          "internalType": "string",
          "name": "newURI",
          "type": "string"
        }
      ],
      "name": "setURI",
      "outputs": [],
      "stateMutability": "nonpayable",
      "type": "function"
    },
    {
      "inputs": [
        {
          "internalType": "uint256",
          "name": "tokenId",
          "type": "uint256"
        }
      ],
      "name": "tokenURI",
      "outputs": [
        {
          "internalType": "string",
          "name": "",
          "type": "string"
        }
      ],
      "stateMutability": "view",
      "type": "function"
    }
  ],
  "bytecode": "0x60806040523480156200001157600080fd5b5060405162003a5e38038062003a5e833981810160405281019062000037919062000248565b8062000049816200010260201b60201c565b5060006200005c6200011e60201b60201c565b905080600460006101000a81548173ffffffffffffffffffffffffffffffffffffffff021916908373ffffffffffffffffffffffffffffffffffffffff1602179055508073ffffffffffffffffffffffffffffffffffffffff16600073ffffffffffffffffffffffffffffffffffffffff167f8be0079c531659141344cd1fd0a4f28419497f9722a3daafe3b4186f6b6457e060405160405180910390a35050620003fd565b80600290805190602001906200011a92919062000126565b5050565b600033905090565b828054620001349062000322565b90600052602060002090601f016020900481019282620001585760008555620001a4565b82601f106200017357805160ff1916838001178555620001a4565b82800160010185558215620001a4579182015b82811115620001a357825182559160200191906001019062000186565b5b509050620001b39190620001b7565b5090565b5b80821115620001d2576000816000905550600101620001b8565b5090565b6000620001ed620001e784620002b6565b6200028d565b9050828152602081018484840111156200020657600080fd5b62000213848285620002ec565b509392505050565b600082601f8301126200022d57600080fd5b81516200023f848260208601620001d6565b91505092915050565b6000602082840312156200025b57600080fd5b600082015167ffffffffffffffff8111156200027657600080fd5b62000284848285016200021b565b91505092915050565b600062000299620002ac565b9050620002a7828262000358565b919050565b6000604051905090565b600067ffffffffffffffff821115620002d457620002d3620003bd565b5b620002df82620003ec565b9050602081019050919050565b60005b838110156200030c578082015181840152602081019050620002ef565b838111156200031c576000848401525b50505050565b600060028204905060018216806200033b57607f821691505b602082108114156200035257620003516200038e565b5b50919050565b6200036382620003ec565b810181811067ffffffffffffffff82111715620003855762000384620003bd565b5b80604052505050565b7f4e487b7100000000000000000000000000000000000000000000000000000000600052602260045260246000fd5b7f4e487b7100000000000000000000000000000000000000000000000000000000600052604160045260246000fd5b6000601f19601f8301169050919050565b613651806200040d6000396000f3fe608060405234801561001057600080fd5b50600436106100ff5760003560e01c8063715018a611610097578063c87b56dd11610066578063c87b56dd146102d0578063e985e9c514610300578063f242432a14610330578063f2fde38b1461034c576100ff565b8063715018a61461025c5780638da5cb5b14610266578063a22cb46514610284578063bd85b039146102a0576100ff565b80632eb2c2d6116100d35780632eb2c2d6146101b05780634e1273f4146101cc5780634f558e79146101fc5780635523c2501461022c576100ff565b8062fdd58e1461010457806301ffc9a71461013457806302fe5305146101645780630e89341c14610180575b600080fd5b61011e600480360381019061011991906123b8565b610368565b60405161012b9190612c90565b60405180910390f35b61014e60048036038101906101499190612460565b610431565b60405161015b9190612a93565b60405180910390f35b61017e600480360381019061017991906124b2565b610513565b005b61019a600480360381019061019591906124f3565b61059b565b6040516101a79190612aae565b60405180910390f35b6101ca60048036038101906101c59190612196565b61062f565b005b6101e660048036038101906101e191906123f4565b610a25565b6040516101f39190612a3a565b60405180910390f35b610216600480360381019061021191906124f3565b610bd6565b6040516102239190612a93565b60405180910390f35b61024660048036038101906102419190612320565b610bea565b6040516102539190612c90565b60405180910390f35b610264610c41565b005b61026e610d7e565b60405161027b919061292b565b60405180910390f35b61029e600480360381019061029991906122e4565b610da8565b005b6102ba60048036038101906102b591906124f3565b610f29565b6040516102c79190612c90565b60405180910390f35b6102ea60048036038101906102e591906124f3565b610f46565b6040516102f79190612aae565b60405180910390f35b61031a6004803603810190610315919061215a565b611084565b6040516103279190612a93565b60405180910390f35b61034a60048036038101906103459190612255565b611118565b005b61036660048036038101906103619190612131565b611430565b005b60008073ffffffffffffffffffffffffffffffffffffffff168373ffffffffffffffffffffffffffffffffffffffff1614156103d9576040517f08c379a00000000000000000000000000000000000000000000000000000000081526004016103d090612b10565b60405180910390fd5b60008083815260200190815260200160002060008473ffffffffffffffffffffffffffffffffffffffff1673ffffffffffffffffffffffffffffffffffffffff16815260200190815260200160002054905092915050565b60007fd9b67a26000000000000000000000000000000000000000000000000000000007bffffffffffffffffffffffffffffffffffffffffffffffffffffffff1916827bffffffffffffffffffffffffffffffffffffffffffffffffffffffff191614806104fc57507f0e89341c000000000000000000000000000000000000000000000000000000007bffffffffffffffffffffffffffffffffffffffffffffffffffffffff1916827bffffffffffffffffffffffffffffffffffffffffffffffffffffffff1916145b8061050c575061050b826115dc565b5b9050919050565b61051b611646565b73ffffffffffffffffffffffffffffffffffffffff16610539610d7e565b73ffffffffffffffffffffffffffffffffffffffff161461058f576040517f08c379a000000000000000000000000000000000000000000000000000000000815260040161058690612bf0565b60405180910390fd5b6105988161164e565b50565b6060600280546105aa90612f84565b80601f01602080910402602001604051908101604052809291908181526020018280546105d690612f84565b80156106235780601f106105f857610100808354040283529160200191610623565b820191906000526020600020905b81548152906001019060200180831161060657829003601f168201915b50505050509050919050565b8151835114610673576040517f08c379a000000000000000000000000000000000000000000000000000000000815260040161066a90612c50565b60405180910390fd5b600073ffffffffffffffffffffffffffffffffffffffff168473ffffffffffffffffffffffffffffffffffffffff1614156106e3576040517f08c379a00000000000000000000000000000000000000000000000000000000081526004016106da90612b70565b60405180910390fd5b6106eb611646565b73ffffffffffffffffffffffffffffffffffffffff168573ffffffffffffffffffffffffffffffffffffffff16148061073157506107308561072b611646565b611084565b5b610770576040517f08c379a000000000000000000000000000000000000000000000000000000000815260040161076790612b90565b60405180910390fd5b600061077a611646565b905061078a818787878787611668565b60005b84518110156109905760008582815181106107d1577f4e487b7100000000000000000000000000000000000000000000000000000000600052603260045260246000fd5b602002602001015190506000858381518110610816577f4e487b7100000000000000000000000000000000000000000000000000000000600052603260045260246000fd5b60200260200101519050600080600084815260200190815260200160002060008b73ffffffffffffffffffffffffffffffffffffffff1673ffffffffffffffffffffffffffffffffffffffff168152602001908152602001600020549050818110156108b7576040517f08c379a00000000000000000000000000000000000000000000000000000000081526004016108ae90612bd0565b60405180910390fd5b81816108c39190612e9a565b60008085815260200190815260200160002060008c73ffffffffffffffffffffffffffffffffffffffff1673ffffffffffffffffffffffffffffffffffffffff168152602001908152602001600020819055508160008085815260200190815260200160002060008b73ffffffffffffffffffffffffffffffffffffffff1673ffffffffffffffffffffffffffffffffffffffff16815260200190815260200160002060008282546109759190612e44565b925050819055505050508061098990612fe7565b905061078d565b508473ffffffffffffffffffffffffffffffffffffffff168673ffffffffffffffffffffffffffffffffffffffff168273ffffffffffffffffffffffffffffffffffffffff167f4a39dc06d4c0dbc64b70af90fd698a233a518aa5d07e595d983b8c0526c8f7fb8787604051610a07929190612a5c565b60405180910390a4610a1d818787878787611670565b505050505050565b60608151835114610a6b576040517f08c379a0000000000000000000000000000000000000000000000000000000008152600401610a6290612c30565b60405180910390fd5b6000835167ffffffffffffffff811115610aae577f4e487b7100000000000000000000000000000000000000000000000000000000600052604160045260246000fd5b604051908082528060200260200182016040528015610adc5781602001602082028036833780820191505090505b50905060005b8451811015610bcb57610b75858281518110610b27577f4e487b7100000000000000000000000000000000000000000000000000000000600052603260045260246000fd5b6020026020010151858381518110610b68577f4e487b7100000000000000000000000000000000000000000000000000000000600052603260045260246000fd5b6020026020010151610368565b828281518110610bae577f4e487b7100000000000000000000000000000000000000000000000000000000600052603260045260246000fd5b60200260200101818152505080610bc490612fe7565b9050610ae2565b508091505092915050565b600080610be283610f29565b119050919050565b600080868686604051602001610c0293929190612a08565b6040516020818303038152906040528051906020012060001c9050610c2987828686611857565b610c34818787611893565b8091505095945050505050565b610c49611646565b73ffffffffffffffffffffffffffffffffffffffff16610c67610d7e565b73ffffffffffffffffffffffffffffffffffffffff1614610cbd576040517f08c379a0000000000000000000000000000000000000000000000000000000008152600401610cb490612bf0565b60405180910390fd5b600073ffffffffffffffffffffffffffffffffffffffff16600460009054906101000a900473ffffffffffffffffffffffffffffffffffffffff1673ffffffffffffffffffffffffffffffffffffffff167f8be0079c531659141344cd1fd0a4f28419497f9722a3daafe3b4186f6b6457e060405160405180910390a36000600460006101000a81548173ffffffffffffffffffffffffffffffffffffffff021916908373ffffffffffffffffffffffffffffffffffffffff160217905550565b6000600460009054906101000a900473ffffffffffffffffffffffffffffffffffffffff16905090565b8173ffffffffffffffffffffffffffffffffffffffff16610dc7611646565b73ffffffffffffffffffffffffffffffffffffffff161415610e1e576040517f08c379a0000000000000000000000000000000000000000000000000000000008152600401610e1590612c10565b60405180910390fd5b8060016000610e2b611646565b73ffffffffffffffffffffffffffffffffffffffff1673ffffffffffffffffffffffffffffffffffffffff16815260200190815260200160002060008473ffffffffffffffffffffffffffffffffffffffff1673ffffffffffffffffffffffffffffffffffffffff16815260200190815260200160002060006101000a81548160ff0219169083151502179055508173ffffffffffffffffffffffffffffffffffffffff16610ed8611646565b73ffffffffffffffffffffffffffffffffffffffff167f17307eab39ab6107e8899845ad3d59bd9653f200f220920489ca2b5937696c3183604051610f1d9190612a93565b60405180910390a35050565b600060036000838152602001908152602001600020549050919050565b6060610f5182610bd6565b610f90576040517f08c379a0000000000000000000000000000000000000000000000000000000008152600401610f8790612bb0565b60405180910390fd5b6000610f9b8361059b565b9050600081511161104757600560008481526020019081526020016000208054610fc490612f84565b80601f0160208091040260200160405190810160405280929190818152602001828054610ff090612f84565b801561103d5780601f106110125761010080835404028352916020019161103d565b820191906000526020600020905b81548152906001019060200180831161102057829003601f168201915b505050505061107c565b806005600085815260200190815260200160002060405160200161106c929190612907565b6040516020818303038152906040525b915050919050565b6000600160008473ffffffffffffffffffffffffffffffffffffffff1673ffffffffffffffffffffffffffffffffffffffff16815260200190815260200160002060008373ffffffffffffffffffffffffffffffffffffffff1673ffffffffffffffffffffffffffffffffffffffff16815260200190815260200160002060009054906101000a900460ff16905092915050565b600073ffffffffffffffffffffffffffffffffffffffff168473ffffffffffffffffffffffffffffffffffffffff161415611188576040517f08c379a000000000000000000000000000000000000000000000000000000000815260040161117f90612b70565b60405180910390fd5b611190611646565b73ffffffffffffffffffffffffffffffffffffffff168573ffffffffffffffffffffffffffffffffffffffff1614806111d657506111d5856111d0611646565b611084565b5b611215576040517f08c379a000000000000000000000000000000000000000000000000000000000815260040161120c90612b50565b60405180910390fd5b600061121f611646565b905061123f81878761123088611903565b61123988611903565b87611668565b600080600086815260200190815260200160002060008873ffffffffffffffffffffffffffffffffffffffff1673ffffffffffffffffffffffffffffffffffffffff168152602001908152602001600020549050838110156112d6576040517f08c379a00000000000000000000000000000000000000000000000000000000081526004016112cd90612bd0565b60405180910390fd5b83816112e29190612e9a565b60008087815260200190815260200160002060008973ffffffffffffffffffffffffffffffffffffffff1673ffffffffffffffffffffffffffffffffffffffff168152602001908152602001600020819055508360008087815260200190815260200160002060008873ffffffffffffffffffffffffffffffffffffffff1673ffffffffffffffffffffffffffffffffffffffff16815260200190815260200160002060008282546113949190612e44565b925050819055508573ffffffffffffffffffffffffffffffffffffffff168773ffffffffffffffffffffffffffffffffffffffff168373ffffffffffffffffffffffffffffffffffffffff167fc3d58168c5ae7397731d063d5bbf3d657854427343f4c083240f7aacaa2d0f628888604051611411929190612cab565b60405180910390a46114278288888888886119c9565b50505050505050565b611438611646565b73ffffffffffffffffffffffffffffffffffffffff16611456610d7e565b73ffffffffffffffffffffffffffffffffffffffff16146114ac576040517f08c379a00000000000000000000000000000000000000000000000000000000081526004016114a390612bf0565b60405180910390fd5b600073ffffffffffffffffffffffffffffffffffffffff168173ffffffffffffffffffffffffffffffffffffffff16141561151c576040517f08c379a000000000000000000000000000000000000000000000000000000000815260040161151390612b30565b60405180910390fd5b8073ffffffffffffffffffffffffffffffffffffffff16600460009054906101000a900473ffffffffffffffffffffffffffffffffffffffff1673ffffffffffffffffffffffffffffffffffffffff167f8be0079c531659141344cd1fd0a4f28419497f9722a3daafe3b4186f6b6457e060405160405180910390a380600460006101000a81548173ffffffffffffffffffffffffffffffffffffffff021916908373ffffffffffffffffffffffffffffffffffffffff16021790555050565b60007f01ffc9a7000000000000000000000000000000000000000000000000000000007bffffffffffffffffffffffffffffffffffffffffffffffffffffffff1916827bffffffffffffffffffffffffffffffffffffffffffffffffffffffff1916149050919050565b600033905090565b8060029080519060200190611664929190611d59565b5050565b505050505050565b61168f8473ffffffffffffffffffffffffffffffffffffffff16611bb0565b1561184f578373ffffffffffffffffffffffffffffffffffffffff1663bc197c8187878686866040518663ffffffff1660e01b81526004016116d5959493929190612946565b602060405180830381600087803b1580156116ef57600080fd5b505af192505050801561172057506040513d601f19601f8201168201806040525081019061171d9190612489565b60015b6117c65761172c6130bd565b806308c379a014156117895750611741613529565b8061174c575061178b565b806040517f08c379a00000000000000000000000000000000000000000000000000000000081526004016117809190612aae565b60405180910390fd5b505b6040517f08c379a00000000000000000000000000000000000000000000000000000000081526004016117bd90612ad0565b60405180910390fd5b63bc197c8160e01b7bffffffffffffffffffffffffffffffffffffffffffffffffffffffff1916817bffffffffffffffffffffffffffffffffffffffffffffffffffffffff19161461184d576040517f08c379a000000000000000000000000000000000000000000000000000000000815260040161184490612af0565b60405180910390fd5b505b505050505050565b61186384848484611bc3565b816003600085815260200190815260200160002060008282546118869190612e44565b9250508190555050505050565b61189c83610bd6565b6118db576040517f08c379a00000000000000000000000000000000000000000000000000000000081526004016118d290612bb0565b60405180910390fd5b81816005600086815260200190815260200160002091906118fd929190611ddf565b50505050565b60606000600167ffffffffffffffff811115611948577f4e487b7100000000000000000000000000000000000000000000000000000000600052604160045260246000fd5b6040519080825280602002602001820160405280156119765781602001602082028036833780820191505090505b50905082816000815181106119b4577f4e487b7100000000000000000000000000000000000000000000000000000000600052603260045260246000fd5b60200260200101818152505080915050919050565b6119e88473ffffffffffffffffffffffffffffffffffffffff16611bb0565b15611ba8578373ffffffffffffffffffffffffffffffffffffffff1663f23a6e6187878686866040518663ffffffff1660e01b8152600401611a2e9594939291906129ae565b602060405180830381600087803b158015611a4857600080fd5b505af1925050508015611a7957506040513d601f19601f82011682018060405250810190611a769190612489565b60015b611b1f57611a856130bd565b806308c379a01415611ae25750611a9a613529565b80611aa55750611ae4565b806040517f08c379a0000000000000000000000000000000000000000000000000000000008152600401611ad99190612aae565b60405180910390fd5b505b6040517f08c379a0000000000000000000000000000000000000000000000000000000008152600401611b1690612ad0565b60405180910390fd5b63f23a6e6160e01b7bffffffffffffffffffffffffffffffffffffffffffffffffffffffff1916817bffffffffffffffffffffffffffffffffffffffffffffffffffffffff191614611ba6576040517f08c379a0000000000000000000000000000000000000000000000000000000008152600401611b9d90612af0565b60405180910390fd5b505b505050505050565b600080823b905060008111915050919050565b600073ffffffffffffffffffffffffffffffffffffffff168473ffffffffffffffffffffffffffffffffffffffff161415611c33576040517f08c379a0000000000000000000000000000000000000000000000000000000008152600401611c2a90612c70565b60405180910390fd5b6000611c3d611646565b9050611c5e81600087611c4f88611903565b611c5888611903565b87611668565b8260008086815260200190815260200160002060008773ffffffffffffffffffffffffffffffffffffffff1673ffffffffffffffffffffffffffffffffffffffff1681526020019081526020016000206000828254611cbd9190612e44565b925050819055508473ffffffffffffffffffffffffffffffffffffffff16600073ffffffffffffffffffffffffffffffffffffffff168273ffffffffffffffffffffffffffffffffffffffff167fc3d58168c5ae7397731d063d5bbf3d657854427343f4c083240f7aacaa2d0f628787604051611d3b929190612cab565b60405180910390a4611d52816000878787876119c9565b5050505050565b828054611d6590612f84565b90600052602060002090601f016020900481019282611d875760008555611dce565b82601f10611da057805160ff1916838001178555611dce565b82800160010185558215611dce579182015b82811115611dcd578251825591602001919060010190611db2565b5b509050611ddb9190611e65565b5090565b828054611deb90612f84565b90600052602060002090601f016020900481019282611e0d5760008555611e54565b82601f10611e2657803560ff1916838001178555611e54565b82800160010185558215611e54579182015b82811115611e53578235825591602001919060010190611e38565b5b509050611e619190611e65565b5090565b5b80821115611e7e576000816000905550600101611e66565b5090565b6000611e95611e9084612cf9565b612cd4565b90508083825260208201905082856020860282011115611eb457600080fd5b60005b85811015611ee45781611eca8882611fd6565b845260208401935060208301925050600181019050611eb7565b5050509392505050565b6000611f01611efc84612d25565b612cd4565b90508083825260208201905082856020860282011115611f2057600080fd5b60005b85811015611f505781611f36888261211c565b845260208401935060208301925050600181019050611f23565b5050509392505050565b6000611f6d611f6884612d51565b612cd4565b905082815260208101848484011115611f8557600080fd5b611f90848285612f42565b509392505050565b6000611fab611fa684612d82565b612cd4565b905082815260208101848484011115611fc357600080fd5b611fce848285612f42565b509392505050565b600081359050611fe5816135bf565b92915050565b600082601f830112611ffc57600080fd5b813561200c848260208601611e82565b91505092915050565b600082601f83011261202657600080fd5b8135612036848260208601611eee565b91505092915050565b60008135905061204e816135d6565b92915050565b600081359050612063816135ed565b92915050565b600081519050612078816135ed565b92915050565b600082601f83011261208f57600080fd5b813561209f848260208601611f5a565b91505092915050565b60008083601f8401126120ba57600080fd5b8235905067ffffffffffffffff8111156120d357600080fd5b6020830191508360018202830111156120eb57600080fd5b9250929050565b600082601f83011261210357600080fd5b8135612113848260208601611f98565b91505092915050565b60008135905061212b81613604565b92915050565b60006020828403121561214357600080fd5b600061215184828501611fd6565b91505092915050565b6000806040838503121561216d57600080fd5b600061217b85828601611fd6565b925050602061218c85828601611fd6565b9150509250929050565b600080600080600060a086880312156121ae57600080fd5b60006121bc88828901611fd6565b95505060206121cd88828901611fd6565b945050604086013567ffffffffffffffff8111156121ea57600080fd5b6121f688828901612015565b935050606086013567ffffffffffffffff81111561221357600080fd5b61221f88828901612015565b925050608086013567ffffffffffffffff81111561223c57600080fd5b6122488882890161207e565b9150509295509295909350565b600080600080600060a0868803121561226d57600080fd5b600061227b88828901611fd6565b955050602061228c88828901611fd6565b945050604061229d8882890161211c565b93505060606122ae8882890161211c565b925050608086013567ffffffffffffffff8111156122cb57600080fd5b6122d78882890161207e565b9150509295509295909350565b600080604083850312156122f757600080fd5b600061230585828601611fd6565b92505060206123168582860161203f565b9150509250929050565b60008060008060006080868803121561233857600080fd5b600061234688828901611fd6565b955050602086013567ffffffffffffffff81111561236357600080fd5b61236f888289016120a8565b945094505060406123828882890161211c565b925050606086013567ffffffffffffffff81111561239f57600080fd5b6123ab8882890161207e565b9150509295509295909350565b600080604083850312156123cb57600080fd5b60006123d985828601611fd6565b92505060206123ea8582860161211c565b9150509250929050565b6000806040838503121561240757600080fd5b600083013567ffffffffffffffff81111561242157600080fd5b61242d85828601611feb565b925050602083013567ffffffffffffffff81111561244a57600080fd5b61245685828601612015565b9150509250929050565b60006020828403121561247257600080fd5b600061248084828501612054565b91505092915050565b60006020828403121561249b57600080fd5b60006124a984828501612069565b91505092915050565b6000602082840312156124c457600080fd5b600082013567ffffffffffffffff8111156124de57600080fd5b6124ea848285016120f2565b91505092915050565b60006020828403121561250557600080fd5b60006125138482850161211c565b91505092915050565b600061252883836128e9565b60208301905092915050565b61253d81612ece565b82525050565b600061254e82612dd8565b6125588185612e06565b935061256383612db3565b8060005b8381101561259457815161257b888261251c565b975061258683612df9565b925050600181019050612567565b5085935050505092915050565b6125aa81612ee0565b82525050565b60006125bb82612de3565b6125c58185612e17565b93506125d5818560208601612f51565b6125de816130df565b840191505092915050565b60006125f58385612e28565b9350612602838584612f42565b61260b836130df565b840190509392505050565b600061262182612dee565b61262b8185612e28565b935061263b818560208601612f51565b612644816130df565b840191505092915050565b600061265a82612dee565b6126648185612e39565b9350612674818560208601612f51565b80840191505092915050565b6000815461268d81612f84565b6126978186612e39565b945060018216600081146126b257600181146126c3576126f6565b60ff198316865281860193506126f6565b6126cc85612dc3565b60005b838110156126ee578154818901526001820191506020810190506126cf565b838801955050505b50505092915050565b600061270c603483612e28565b9150612717826130fd565b604082019050919050565b600061272f602883612e28565b915061273a8261314c565b604082019050919050565b6000612752602b83612e28565b915061275d8261319b565b604082019050919050565b6000612775602683612e28565b9150612780826131ea565b604082019050919050565b6000612798602983612e28565b91506127a382613239565b604082019050919050565b60006127bb602583612e28565b91506127c682613288565b604082019050919050565b60006127de603283612e28565b91506127e9826132d7565b604082019050919050565b6000612801602883612e28565b915061280c82613326565b604082019050919050565b6000612824602a83612e28565b915061282f82613375565b604082019050919050565b6000612847602083612e28565b9150612852826133c4565b602082019050919050565b600061286a602983612e28565b9150612875826133ed565b604082019050919050565b600061288d602983612e28565b91506128988261343c565b604082019050919050565b60006128b0602883612e28565b91506128bb8261348b565b604082019050919050565b60006128d3602183612e28565b91506128de826134da565b604082019050919050565b6128f281612f38565b82525050565b61290181612f38565b82525050565b6000612913828561264f565b915061291f8284612680565b91508190509392505050565b60006020820190506129406000830184612534565b92915050565b600060a08201905061295b6000830188612534565b6129686020830187612534565b818103604083015261297a8186612543565b9050818103606083015261298e8185612543565b905081810360808301526129a281846125b0565b90509695505050505050565b600060a0820190506129c36000830188612534565b6129d06020830187612534565b6129dd60408301866128f8565b6129ea60608301856128f8565b81810360808301526129fc81846125b0565b90509695505050505050565b6000604082019050612a1d6000830186612534565b8181036020830152612a308184866125e9565b9050949350505050565b60006020820190508181036000830152612a548184612543565b905092915050565b60006040820190508181036000830152612a768185612543565b90508181036020830152612a8a8184612543565b90509392505050565b6000602082019050612aa860008301846125a1565b92915050565b60006020820190508181036000830152612ac88184612616565b905092915050565b60006020820190508181036000830152612ae9816126ff565b9050919050565b60006020820190508181036000830152612b0981612722565b9050919050565b60006020820190508181036000830152612b2981612745565b9050919050565b60006020820190508181036000830152612b4981612768565b9050919050565b60006020820190508181036000830152612b698161278b565b9050919050565b60006020820190508181036000830152612b89816127ae565b9050919050565b60006020820190508181036000830152612ba9816127d1565b9050919050565b60006020820190508181036000830152612bc9816127f4565b9050919050565b60006020820190508181036000830152612be981612817565b9050919050565b60006020820190508181036000830152612c098161283a565b9050919050565b60006020820190508181036000830152612c298161285d565b9050919050565b60006020820190508181036000830152612c4981612880565b9050919050565b60006020820190508181036000830152612c69816128a3565b9050919050565b60006020820190508181036000830152612c89816128c6565b9050919050565b6000602082019050612ca560008301846128f8565b92915050565b6000604082019050612cc060008301856128f8565b612ccd60208301846128f8565b9392505050565b6000612cde612cef565b9050612cea8282612fb6565b919050565b6000604051905090565b600067ffffffffffffffff821115612d1457612d1361308e565b5b602082029050602081019050919050565b600067ffffffffffffffff821115612d4057612d3f61308e565b5b602082029050602081019050919050565b600067ffffffffffffffff821115612d6c57612d6b61308e565b5b612d75826130df565b9050602081019050919050565b600067ffffffffffffffff821115612d9d57612d9c61308e565b5b612da6826130df565b9050602081019050919050565b6000819050602082019050919050565b60008190508160005260206000209050919050565b600081519050919050565b600081519050919050565b600081519050919050565b6000602082019050919050565b600082825260208201905092915050565b600082825260208201905092915050565b600082825260208201905092915050565b600081905092915050565b6000612e4f82612f38565b9150612e5a83612f38565b9250827fffffffffffffffffffffffffffffffffffffffffffffffffffffffffffffffff03821115612e8f57612e8e613030565b5b828201905092915050565b6000612ea582612f38565b9150612eb083612f38565b925082821015612ec357612ec2613030565b5b828203905092915050565b6000612ed982612f18565b9050919050565b60008115159050919050565b60007fffffffff0000000000000000000000000000000000000000000000000000000082169050919050565b600073ffffffffffffffffffffffffffffffffffffffff82169050919050565b6000819050919050565b82818337600083830152505050565b60005b83811015612f6f578082015181840152602081019050612f54565b83811115612f7e576000848401525b50505050565b60006002820490506001821680612f9c57607f821691505b60208210811415612fb057612faf61305f565b5b50919050565b612fbf826130df565b810181811067ffffffffffffffff82111715612fde57612fdd61308e565b5b80604052505050565b6000612ff282612f38565b91507fffffffffffffffffffffffffffffffffffffffffffffffffffffffffffffffff82141561302557613024613030565b5b600182019050919050565b7f4e487b7100000000000000000000000000000000000000000000000000000000600052601160045260246000fd5b7f4e487b7100000000000000000000000000000000000000000000000000000000600052602260045260246000fd5b7f4e487b7100000000000000000000000000000000000000000000000000000000600052604160045260246000fd5b600060033d11156130dc5760046000803e6130d96000516130f0565b90505b90565b6000601f19601f8301169050919050565b60008160e01c9050919050565b7f455243313135353a207472616e7366657220746f206e6f6e204552433131353560008201527f526563656976657220696d706c656d656e746572000000000000000000000000602082015250565b7f455243313135353a204552433131353552656365697665722072656a6563746560008201527f6420746f6b656e73000000000000000000000000000000000000000000000000602082015250565b7f455243313135353a2062616c616e636520717565727920666f7220746865207a60008201527f65726f2061646472657373000000000000000000000000000000000000000000602082015250565b7f4f776e61626c653a206e6577206f776e657220697320746865207a65726f206160008201527f6464726573730000000000000000000000000000000000000000000000000000602082015250565b7f455243313135353a2063616c6c6572206973206e6f74206f776e6572206e6f7260008201527f20617070726f7665640000000000000000000000000000000000000000000000602082015250565b7f455243313135353a207472616e7366657220746f20746865207a65726f20616460008201527f6472657373000000000000000000000000000000000000000000000000000000602082015250565b7f455243313135353a207472616e736665722063616c6c6572206973206e6f742060008201527f6f776e6572206e6f7220617070726f7665640000000000000000000000000000602082015250565b7f455243313135353a2055524920717565727920666f72206e6f6e65786973746560008201527f6e7420746f6b656e000000000000000000000000000000000000000000000000602082015250565b7f455243313135353a20696e73756666696369656e742062616c616e636520666f60008201527f72207472616e7366657200000000000000000000000000000000000000000000602082015250565b7f4f776e61626c653a2063616c6c6572206973206e6f7420746865206f776e6572600082015250565b7f455243313135353a2073657474696e6720617070726f76616c2073746174757360008201527f20666f722073656c660000000000000000000000000000000000000000000000602082015250565b7f455243313135353a206163636f756e747320616e6420696473206c656e67746860008201527f206d69736d617463680000000000000000000000000000000000000000000000602082015250565b7f455243313135353a2069647320616e6420616d6f756e7473206c656e6774682060008201527f6d69736d61746368000000000000000000000000000000000000000000000000602082015250565b7f455243313135353a206d696e7420746f20746865207a65726f2061646472657360008201527f7300000000000000000000000000000000000000000000000000000000000000602082015250565b600060443d1015613539576135bc565b613541612cef565b60043d036004823e80513d602482011167ffffffffffffffff821117156135695750506135bc565b808201805167ffffffffffffffff81111561358757505050506135bc565b80602083010160043d0385018111156135a45750505050506135bc565b6135b382602001850186612fb6565b82955050505050505b90565b6135c881612ece565b81146135d357600080fd5b50565b6135df81612ee0565b81146135ea57600080fd5b50565b6135f681612eec565b811461360157600080fd5b50565b61360d81612f38565b811461361857600080fd5b5056fea26469706673582212203a423e7bc65b2784d78f0fe01cb35c60d17520c22b767d3601161dbb5311c51464736f6c63430008040033",
  "immutableReferences": {},
  "source": "// SPDX-License-Identifier: UNLICENSED\n\npragma solidity 0.8.4;\n\nimport \"../../lib/token/ERC1155/ERC1155.sol\";\nimport \"../../lib/token/ERC1155/extensions/ERC1155Supply.sol\";\nimport \"../../lib/access/Ownable.sol\";\n\ncontract TaureumERC1155 is ERC1155Supply, Ownable {\n    /**\n     * @dev Mapping from NFT ID to metadata uri.\n     */\n    mapping(uint256 => string) internal idToUri;\n\n    /**\n     * @dev Create a new TaureumERC1155 contract and set the `_uri` value.\n     *\n     */\n    constructor(string memory uri_) ERC1155(uri_) Ownable() {\n    }\n\n    /**\n     * @dev Mint a new ERC1155 token. A token can only be minted once.\n     */\n    function mint(\n        address to,\n        string calldata uri,\n        uint256 supply,\n        bytes memory data\n    ) external returns (uint256){\n        uint256 id = uint256(keccak256(abi.encode(to, uri)));\n//        require(!exists(id), \"ERC1155: token already minted\");\n\n        _mint(to, id, supply, data);\n        _setTokenUri(id, uri);\n\n        return id;\n    }\n\n//    /**\n//     * @dev Mint a batch of tokens.\n//     */\n//    function mintBatch(\n//        address to,\n//        string[] memory uriList,\n//        uint256[] memory supplies,\n//        bytes memory data\n//    ) internal virtual override {\n//        require(uriList.length == supplies.length, \"ERC1155: mintBatch lengths mismatch\");\n//\n//        uint256[] ids = new uint256[](0);\n//        for (uint256 i = 0; i < uriList.length; ++i) {\n//            uint256 id = uint256(keccak256(abi.encode(to, uriList[i])));\n//            require(!exists(id), \"ERC1155: token already minted\");\n//            ids.push(id);\n//        }\n//    }\n\n    /**\n     * @dev Sets a new URI for all token types, by relying on the token type ID\n     * substitution mechanism\n     * https://eips.ethereum.org/EIPS/eip-1155#metadata[defined in the EIP].\n     *\n     * By this mechanism, any occurrence of the `\\{id\\}` substring in either the\n     * URI or any of the amounts in the JSON file at said URI will be replaced by\n     * clients with the token type ID.\n     *\n     * For example, the `https://token-cdn-domain/\\{id\\}.json` URI would be\n     * interpreted by clients as\n     * `https://token-cdn-domain/000000000000000000000000000000000000000000000000000000000004cce0.json`\n     * for token type ID 0x4cce0.\n     *\n     * See {uri}.\n     *\n     * Because these URIs cannot be meaningfully represented by the {URI} event,\n     * this function emits no events.\n     */\n    function setURI(string memory newURI) external onlyOwner {\n        _setURI(newURI);\n    }\n\n    /**\n     * @dev Return the URI of a tokenId.\n     */\n    function tokenURI(uint256 tokenId) public view virtual returns (string memory) {\n        require(exists(tokenId), \"ERC1155: URI query for nonexistent token\");\n\n        string memory baseURI = uri(tokenId);\n\n        return bytes(baseURI).length > 0 ? string(abi.encodePacked(baseURI, idToUri[tokenId])) : idToUri[tokenId];\n    }\n\n    /**\n     * @dev Set a distinct URI (RFC 3986) for a given NFT ID.\n     * @notice This is an internal function which should be called from user-implemented external\n     * function.\n     * @notice It throws an exception if the _tokenId does not exist.\n     * @param tokenId_ Id for which we want URI.\n     * @param uri_ String representing RFC 3986 URI.\n     */\n    function _setTokenUri(\n        uint256 tokenId_,\n        string calldata uri_\n    )\n    internal\n    {\n        require(exists(tokenId_), \"ERC1155: URI query for nonexistent token\");\n        idToUri[tokenId_] = uri_;\n    }\n\n}\n",
  "sourcePath": "/home/toor/nodejs/truffle/nft_demo/taudefi/taudefi-nft/contracts/tokens/ERC1155/TaureumERC1155.sol",
  "compiler": {
    "name": "solc",
    "version": "0.8.4+commit.c7e474f2.Emscripten.clang"
  },
  "schemaVersion": "3.4.1",
  "updatedAt": "2021-08-05T07:44:21.132Z",
  "devdoc": {
    "kind": "dev",
    "methods": {
      "balanceOf(address,uint256)": {
        "details": "See {IERC1155-balanceOf}. Requirements: - `account` cannot be the zero address."
      },
      "balanceOfBatch(address[],uint256[])": {
        "details": "See {IERC1155-balanceOfBatch}. Requirements: - `accounts` and `ids` must have the same length."
      },
      "constructor": {
        "details": "Create a new TaureumERC1155 contract and set the `_uri` value."
      },
      "exists(uint256)": {
        "details": "Indicates weither any token exist with a given id, or not."
      },
      "isApprovedForAll(address,address)": {
        "details": "See {IERC1155-isApprovedForAll}."
      },
      "mint(address,string,uint256,bytes)": {
        "details": "Mint a new ERC1155 token. A token can only be minted once."
      },
      "owner()": {
        "details": "Returns the address of the current owner."
      },
      "renounceOwnership()": {
        "details": "Leaves the contract without owner. It will not be possible to call `onlyOwner` functions anymore. Can only be called by the current owner. NOTE: Renouncing ownership will leave the contract without an owner, thereby removing any functionality that is only available to the owner."
      },
      "safeBatchTransferFrom(address,address,uint256[],uint256[],bytes)": {
        "details": "See {IERC1155-safeBatchTransferFrom}."
      },
      "safeTransferFrom(address,address,uint256,uint256,bytes)": {
        "details": "See {IERC1155-safeTransferFrom}."
      },
      "setApprovalForAll(address,bool)": {
        "details": "See {IERC1155-setApprovalForAll}."
      },
      "setURI(string)": {
        "details": "Sets a new URI for all token types, by relying on the token type ID substitution mechanism https://eips.ethereum.org/EIPS/eip-1155#metadata[defined in the EIP]. By this mechanism, any occurrence of the `\\{id\\}` substring in either the URI or any of the amounts in the JSON file at said URI will be replaced by clients with the token type ID. For example, the `https://token-cdn-domain/\\{id\\}.json` URI would be interpreted by clients as `https://token-cdn-domain/000000000000000000000000000000000000000000000000000000000004cce0.json` for token type ID 0x4cce0. See {uri}. Because these URIs cannot be meaningfully represented by the {URI} event, this function emits no events."
      },
      "supportsInterface(bytes4)": {
        "details": "See {IERC165-supportsInterface}."
      },
      "tokenURI(uint256)": {
        "details": "Return the URI of a tokenId."
      },
      "totalSupply(uint256)": {
        "details": "Total amount of tokens in with a given id."
      },
      "transferOwnership(address)": {
        "details": "Transfers ownership of the contract to a new account (`newOwner`). Can only be called by the current owner."
      },
      "uri(uint256)": {
        "details": "See {IERC1155MetadataURI-uri}. This implementation returns the same URI for *all* token types. It relies on the token type ID substitution mechanism https://eips.ethereum.org/EIPS/eip-1155#metadata[defined in the EIP]. Clients calling this function must replace the `\\{id\\}` substring with the actual token type ID."
      }
    },
    "stateVariables": {
      "idToUri": {
        "details": "Mapping from NFT ID to metadata uri."
      }
    },
    "version": 1
  },
  "userdoc": {
    "kind": "user",
    "methods": {},
    "version": 1
  }
}