{
  "contractName": "TaureumERC721",
  "abi": [
    {
      "inputs": [],
      "stateMutability": "nonpayable",
      "type": "constructor"
    },
    {
      "anonymous": false,
      "inputs": [
        {
          "indexed": true,
          "internalType": "address",
          "name": "owner",
          "type": "address"
        },
        {
          "indexed": true,
          "internalType": "address",
          "name": "approved",
          "type": "address"
        },
        {
          "indexed": true,
          "internalType": "uint256",
          "name": "tokenId",
          "type": "uint256"
        }
      ],
      "name": "Approval",
      "type": "event"
    },
    {
      "anonymous": false,
      "inputs": [
        {
          "indexed": true,
          "internalType": "address",
          "name": "owner",
          "type": "address"
        },
        {
          "indexed": true,
          "internalType": "address",
          "name": "operator",
          "type": "address"
        },
        {
          "indexed": false,
          "internalType": "bool",
          "name": "approved",
          "type": "bool"
        }
      ],
      "name": "ApprovalForAll",
      "type": "event"
    },
    {
      "anonymous": false,
      "inputs": [
        {
          "indexed": true,
          "internalType": "address",
          "name": "previousOwner",
          "type": "address"
        },
        {
          "indexed": true,
          "internalType": "address",
          "name": "newOwner",
          "type": "address"
        }
      ],
      "name": "OwnershipTransferred",
      "type": "event"
    },
    {
      "anonymous": false,
      "inputs": [
        {
          "indexed": true,
          "internalType": "address",
          "name": "from",
          "type": "address"
        },
        {
          "indexed": true,
          "internalType": "address",
          "name": "to",
          "type": "address"
        },
        {
          "indexed": true,
          "internalType": "uint256",
          "name": "tokenId",
          "type": "uint256"
        }
      ],
      "name": "Transfer",
      "type": "event"
    },
    {
      "inputs": [
        {
          "internalType": "address",
          "name": "to",
          "type": "address"
        },
        {
          "internalType": "uint256",
          "name": "tokenId",
          "type": "uint256"
        }
      ],
      "name": "approve",
      "outputs": [],
      "stateMutability": "nonpayable",
      "type": "function"
    },
    {
      "inputs": [
        {
          "internalType": "address",
          "name": "owner",
          "type": "address"
        }
      ],
      "name": "balanceOf",
      "outputs": [
        {
          "internalType": "uint256",
          "name": "",
          "type": "uint256"
        }
      ],
      "stateMutability": "view",
      "type": "function"
    },
    {
      "inputs": [
        {
          "internalType": "uint256",
          "name": "tokenId",
          "type": "uint256"
        }
      ],
      "name": "getApproved",
      "outputs": [
        {
          "internalType": "address",
          "name": "",
          "type": "address"
        }
      ],
      "stateMutability": "view",
      "type": "function"
    },
    {
      "inputs": [
        {
          "internalType": "address",
          "name": "owner",
          "type": "address"
        },
        {
          "internalType": "address",
          "name": "operator",
          "type": "address"
        }
      ],
      "name": "isApprovedForAll",
      "outputs": [
        {
          "internalType": "bool",
          "name": "",
          "type": "bool"
        }
      ],
      "stateMutability": "view",
      "type": "function"
    },
    {
      "inputs": [],
      "name": "name",
      "outputs": [
        {
          "internalType": "string",
          "name": "",
          "type": "string"
        }
      ],
      "stateMutability": "view",
      "type": "function"
    },
    {
      "inputs": [],
      "name": "owner",
      "outputs": [
        {
          "internalType": "address",
          "name": "",
          "type": "address"
        }
      ],
      "stateMutability": "view",
      "type": "function"
    },
    {
      "inputs": [
        {
          "internalType": "uint256",
          "name": "tokenId",
          "type": "uint256"
        }
      ],
      "name": "ownerOf",
      "outputs": [
        {
          "internalType": "address",
          "name": "",
          "type": "address"
        }
      ],
      "stateMutability": "view",
      "type": "function"
    },
    {
      "inputs": [],
      "name": "renounceOwnership",
      "outputs": [],
      "stateMutability": "nonpayable",
      "type": "function"
    },
    {
      "inputs": [
        {
          "internalType": "address",
          "name": "from",
          "type": "address"
        },
        {
          "internalType": "address",
          "name": "to",
          "type": "address"
        },
        {
          "internalType": "uint256",
          "name": "tokenId",
          "type": "uint256"
        }
      ],
      "name": "safeTransferFrom",
      "outputs": [],
      "stateMutability": "nonpayable",
      "type": "function"
    },
    {
      "inputs": [
        {
          "internalType": "address",
          "name": "from",
          "type": "address"
        },
        {
          "internalType": "address",
          "name": "to",
          "type": "address"
        },
        {
          "internalType": "uint256",
          "name": "tokenId",
          "type": "uint256"
        },
        {
          "internalType": "bytes",
          "name": "_data",
          "type": "bytes"
        }
      ],
      "name": "safeTransferFrom",
      "outputs": [],
      "stateMutability": "nonpayable",
      "type": "function"
    },
    {
      "inputs": [
        {
          "internalType": "address",
          "name": "operator",
          "type": "address"
        },
        {
          "internalType": "bool",
          "name": "approved",
          "type": "bool"
        }
      ],
      "name": "setApprovalForAll",
      "outputs": [],
      "stateMutability": "nonpayable",
      "type": "function"
    },
    {
      "inputs": [
        {
          "internalType": "bytes4",
          "name": "interfaceId",
          "type": "bytes4"
        }
      ],
      "name": "supportsInterface",
      "outputs": [
        {
          "internalType": "bool",
          "name": "",
          "type": "bool"
        }
      ],
      "stateMutability": "view",
      "type": "function"
    },
    {
      "inputs": [],
      "name": "symbol",
      "outputs": [
        {
          "internalType": "string",
          "name": "",
          "type": "string"
        }
      ],
      "stateMutability": "view",
      "type": "function"
    },
    {
      "inputs": [
        {
          "internalType": "address",
          "name": "from",
          "type": "address"
        },
        {
          "internalType": "address",
          "name": "to",
          "type": "address"
        },
        {
          "internalType": "uint256",
          "name": "tokenId",
          "type": "uint256"
        }
      ],
      "name": "transferFrom",
      "outputs": [],
      "stateMutability": "nonpayable",
      "type": "function"
    },
    {
      "inputs": [
        {
          "internalType": "address",
          "name": "newOwner",
          "type": "address"
        }
      ],
      "name": "transferOwnership",
      "outputs": [],
      "stateMutability": "nonpayable",
      "type": "function"
    },
    {
      "inputs": [
        {
          "internalType": "address",
          "name": "to",
          "type": "address"
        },
        {
          "internalType": "string",
          "name": "uri",
          "type": "string"
        }
      ],
      "name": "safeMint",
      "outputs": [
        {
          "internalType": "uint256",
          "name": "",
          "type": "uint256"
        }
      ],
      "stateMutability": "nonpayable",
      "type": "function"
    },
    {
      "inputs": [
        {
          "internalType": "address",
          "name": "to",
          "type": "address"
        },
        {
          "internalType": "string",
          "name": "uri",
          "type": "string"
        }
      ],
      "name": "mint",
      "outputs": [
        {
          "internalType": "uint256",
          "name": "",
          "type": "uint256"
        }
      ],
      "stateMutability": "nonpayable",
      "type": "function"
    },
    {
      "inputs": [
        {
          "internalType": "uint256",
          "name": "tokenId",
          "type": "uint256"
        }
      ],
      "name": "tokenURI",
      "outputs": [
        {
          "internalType": "string",
          "name": "",
          "type": "string"
        }
      ],
      "stateMutability": "view",
      "type": "function"
    },
    {
      "inputs": [
        {
          "internalType": "string",
          "name": "newBaseURI",
          "type": "string"
        }
      ],
      "name": "setBaseURI",
      "outputs": [],
      "stateMutability": "nonpayable",
      "type": "function"
    }
  ],
  "bytecode": "0x60806040523480156200001157600080fd5b506040518060400160405280600e81526020017f5461757265756d204552433732310000000000000000000000000000000000008152506040518060400160405280600781526020017f5461757265756d0000000000000000000000000000000000000000000000000081525081600090805190602001906200009692919062000199565b508060019080519060200190620000af92919062000199565b5050506000620000c46200019160201b60201c565b905080600660006101000a81548173ffffffffffffffffffffffffffffffffffffffff021916908373ffffffffffffffffffffffffffffffffffffffff1602179055508073ffffffffffffffffffffffffffffffffffffffff16600073ffffffffffffffffffffffffffffffffffffffff167f8be0079c531659141344cd1fd0a4f28419497f9722a3daafe3b4186f6b6457e060405160405180910390a35060405180602001604052806000815250600890805190602001906200018a92919062000199565b50620002ae565b600033905090565b828054620001a79062000249565b90600052602060002090601f016020900481019282620001cb576000855562000217565b82601f10620001e657805160ff191683800117855562000217565b8280016001018555821562000217579182015b8281111562000216578251825591602001919060010190620001f9565b5b5090506200022691906200022a565b5090565b5b80821115620002455760008160009055506001016200022b565b5090565b600060028204905060018216806200026257607f821691505b602082108114156200027957620002786200027f565b5b50919050565b7f4e487b7100000000000000000000000000000000000000000000000000000000600052602260045260246000fd5b61302180620002be6000396000f3fe608060405234801561001057600080fd5b50600436106101215760003560e01c8063715018a6116100ad578063c87b56dd11610071578063c87b56dd146102f2578063d0def52114610322578063d204c45e14610352578063e985e9c514610382578063f2fde38b146103b257610121565b8063715018a6146102745780638da5cb5b1461027e57806395d89b411461029c578063a22cb465146102ba578063b88d4fde146102d657610121565b806323b872dd116100f457806323b872dd146101c057806342842e0e146101dc57806355f804b3146101f85780636352211e1461021457806370a082311461024457610121565b806301ffc9a71461012657806306fdde0314610156578063081812fc14610174578063095ea7b3146101a4575b600080fd5b610140600480360381019061013b919061202e565b6103ce565b60405161014d9190612576565b60405180910390f35b61015e6104b0565b60405161016b9190612591565b60405180910390f35b61018e600480360381019061018991906120c1565b610542565b60405161019b91906124dd565b60405180910390f35b6101be60048036038101906101b99190611ff2565b6105c7565b005b6101da60048036038101906101d59190611e94565b6106df565b005b6101f660048036038101906101f19190611e94565b61073f565b005b610212600480360381019061020d9190612080565b61075f565b005b61022e600480360381019061022991906120c1565b6107f5565b60405161023b91906124dd565b60405180910390f35b61025e60048036038101906102599190611e2f565b6108a7565b60405161026b91906127d3565b60405180910390f35b61027c61095f565b005b610286610a9c565b60405161029391906124dd565b60405180910390f35b6102a4610ac6565b6040516102b19190612591565b60405180910390f35b6102d460048036038101906102cf9190611f5e565b610b58565b005b6102f060048036038101906102eb9190611ee3565b610cd9565b005b61030c600480360381019061030791906120c1565b610d3b565b6040516103199190612591565b60405180910390f35b61033c60048036038101906103379190611f9a565b610e78565b60405161034991906127d3565b60405180910390f35b61036c60048036038101906103679190611f9a565b610ecb565b60405161037991906127d3565b60405180910390f35b61039c60048036038101906103979190611e58565b610f1e565b6040516103a99190612576565b60405180910390f35b6103cc60048036038101906103c79190611e2f565b610fb2565b005b60007f80ac58cd000000000000000000000000000000000000000000000000000000007bffffffffffffffffffffffffffffffffffffffffffffffffffffffff1916827bffffffffffffffffffffffffffffffffffffffffffffffffffffffff1916148061049957507f5b5e139f000000000000000000000000000000000000000000000000000000007bffffffffffffffffffffffffffffffffffffffffffffffffffffffff1916827bffffffffffffffffffffffffffffffffffffffffffffffffffffffff1916145b806104a957506104a88261115e565b5b9050919050565b6060600080546104bf90612a0d565b80601f01602080910402602001604051908101604052809291908181526020018280546104eb90612a0d565b80156105385780601f1061050d57610100808354040283529160200191610538565b820191906000526020600020905b81548152906001019060200180831161051b57829003601f168201915b5050505050905090565b600061054d826111c8565b61058c576040517f08c379a0000000000000000000000000000000000000000000000000000000008152600401610583906126f3565b60405180910390fd5b6004600083815260200190815260200160002060009054906101000a900473ffffffffffffffffffffffffffffffffffffffff169050919050565b60006105d2826107f5565b90508073ffffffffffffffffffffffffffffffffffffffff168373ffffffffffffffffffffffffffffffffffffffff161415610643576040517f08c379a000000000000000000000000000000000000000000000000000000000815260040161063a90612773565b60405180910390fd5b8073ffffffffffffffffffffffffffffffffffffffff16610662611234565b73ffffffffffffffffffffffffffffffffffffffff16148061069157506106908161068b611234565b610f1e565b5b6106d0576040517f08c379a00000000000000000000000000000000000000000000000000000000081526004016106c790612673565b60405180910390fd5b6106da838361123c565b505050565b6106f06106ea611234565b826112f5565b61072f576040517f08c379a000000000000000000000000000000000000000000000000000000000815260040161072690612793565b60405180910390fd5b61073a8383836113d3565b505050565b61075a83838360405180602001604052806000815250610cd9565b505050565b610767611234565b73ffffffffffffffffffffffffffffffffffffffff16610785610a9c565b73ffffffffffffffffffffffffffffffffffffffff16146107db576040517f08c379a00000000000000000000000000000000000000000000000000000000081526004016107d290612713565b60405180910390fd5b80600890805190602001906107f1929190611b83565b5050565b6000806002600084815260200190815260200160002060009054906101000a900473ffffffffffffffffffffffffffffffffffffffff169050600073ffffffffffffffffffffffffffffffffffffffff168173ffffffffffffffffffffffffffffffffffffffff16141561089e576040517f08c379a0000000000000000000000000000000000000000000000000000000008152600401610895906126b3565b60405180910390fd5b80915050919050565b60008073ffffffffffffffffffffffffffffffffffffffff168273ffffffffffffffffffffffffffffffffffffffff161415610918576040517f08c379a000000000000000000000000000000000000000000000000000000000815260040161090f90612693565b60405180910390fd5b600360008373ffffffffffffffffffffffffffffffffffffffff1673ffffffffffffffffffffffffffffffffffffffff168152602001908152602001600020549050919050565b610967611234565b73ffffffffffffffffffffffffffffffffffffffff16610985610a9c565b73ffffffffffffffffffffffffffffffffffffffff16146109db576040517f08c379a00000000000000000000000000000000000000000000000000000000081526004016109d290612713565b60405180910390fd5b600073ffffffffffffffffffffffffffffffffffffffff16600660009054906101000a900473ffffffffffffffffffffffffffffffffffffffff1673ffffffffffffffffffffffffffffffffffffffff167f8be0079c531659141344cd1fd0a4f28419497f9722a3daafe3b4186f6b6457e060405160405180910390a36000600660006101000a81548173ffffffffffffffffffffffffffffffffffffffff021916908373ffffffffffffffffffffffffffffffffffffffff160217905550565b6000600660009054906101000a900473ffffffffffffffffffffffffffffffffffffffff16905090565b606060018054610ad590612a0d565b80601f0160208091040260200160405190810160405280929190818152602001828054610b0190612a0d565b8015610b4e5780601f10610b2357610100808354040283529160200191610b4e565b820191906000526020600020905b815481529060010190602001808311610b3157829003601f168201915b5050505050905090565b610b60611234565b73ffffffffffffffffffffffffffffffffffffffff168273ffffffffffffffffffffffffffffffffffffffff161415610bce576040517f08c379a0000000000000000000000000000000000000000000000000000000008152600401610bc590612633565b60405180910390fd5b8060056000610bdb611234565b73ffffffffffffffffffffffffffffffffffffffff1673ffffffffffffffffffffffffffffffffffffffff16815260200190815260200160002060008473ffffffffffffffffffffffffffffffffffffffff1673ffffffffffffffffffffffffffffffffffffffff16815260200190815260200160002060006101000a81548160ff0219169083151502179055508173ffffffffffffffffffffffffffffffffffffffff16610c88611234565b73ffffffffffffffffffffffffffffffffffffffff167f17307eab39ab6107e8899845ad3d59bd9653f200f220920489ca2b5937696c3183604051610ccd9190612576565b60405180910390a35050565b610cea610ce4611234565b836112f5565b610d29576040517f08c379a0000000000000000000000000000000000000000000000000000000008152600401610d2090612793565b60405180910390fd5b610d358484848461162f565b50505050565b6060610d46826111c8565b610d85576040517f08c379a0000000000000000000000000000000000000000000000000000000008152600401610d7c90612753565b60405180910390fd5b6000610d8f61168b565b90506000815111610e3b57600760008481526020019081526020016000208054610db890612a0d565b80601f0160208091040260200160405190810160405280929190818152602001828054610de490612a0d565b8015610e315780601f10610e0657610100808354040283529160200191610e31565b820191906000526020600020905b815481529060010190602001808311610e1457829003601f168201915b5050505050610e70565b8060076000858152602001908152602001600020604051602001610e609291906124b9565b6040516020818303038152906040525b915050919050565b600080848484604051602001610e9093929190612544565b6040516020818303038152906040528051906020012060001c9050610eb5858261171d565b610ec08185856118eb565b809150509392505050565b600080848484604051602001610ee393929190612544565b6040516020818303038152906040528051906020012060001c9050610f08858261195b565b610f138185856118eb565b809150509392505050565b6000600560008473ffffffffffffffffffffffffffffffffffffffff1673ffffffffffffffffffffffffffffffffffffffff16815260200190815260200160002060008373ffffffffffffffffffffffffffffffffffffffff1673ffffffffffffffffffffffffffffffffffffffff16815260200190815260200160002060009054906101000a900460ff16905092915050565b610fba611234565b73ffffffffffffffffffffffffffffffffffffffff16610fd8610a9c565b73ffffffffffffffffffffffffffffffffffffffff161461102e576040517f08c379a000000000000000000000000000000000000000000000000000000000815260040161102590612713565b60405180910390fd5b600073ffffffffffffffffffffffffffffffffffffffff168173ffffffffffffffffffffffffffffffffffffffff16141561109e576040517f08c379a0000000000000000000000000000000000000000000000000000000008152600401611095906125d3565b60405180910390fd5b8073ffffffffffffffffffffffffffffffffffffffff16600660009054906101000a900473ffffffffffffffffffffffffffffffffffffffff1673ffffffffffffffffffffffffffffffffffffffff167f8be0079c531659141344cd1fd0a4f28419497f9722a3daafe3b4186f6b6457e060405160405180910390a380600660006101000a81548173ffffffffffffffffffffffffffffffffffffffff021916908373ffffffffffffffffffffffffffffffffffffffff16021790555050565b60007f01ffc9a7000000000000000000000000000000000000000000000000000000007bffffffffffffffffffffffffffffffffffffffffffffffffffffffff1916827bffffffffffffffffffffffffffffffffffffffffffffffffffffffff1916149050919050565b60008073ffffffffffffffffffffffffffffffffffffffff166002600084815260200190815260200160002060009054906101000a900473ffffffffffffffffffffffffffffffffffffffff1673ffffffffffffffffffffffffffffffffffffffff1614159050919050565b600033905090565b816004600083815260200190815260200160002060006101000a81548173ffffffffffffffffffffffffffffffffffffffff021916908373ffffffffffffffffffffffffffffffffffffffff160217905550808273ffffffffffffffffffffffffffffffffffffffff166112af836107f5565b73ffffffffffffffffffffffffffffffffffffffff167f8c5be1e5ebec7d5bd14f71427d1e84f3dd0314c0f7b2291e5b200ac8c7c3b92560405160405180910390a45050565b6000611300826111c8565b61133f576040517f08c379a000000000000000000000000000000000000000000000000000000000815260040161133690612653565b60405180910390fd5b600061134a836107f5565b90508073ffffffffffffffffffffffffffffffffffffffff168473ffffffffffffffffffffffffffffffffffffffff1614806113b957508373ffffffffffffffffffffffffffffffffffffffff166113a184610542565b73ffffffffffffffffffffffffffffffffffffffff16145b806113ca57506113c98185610f1e565b5b91505092915050565b8273ffffffffffffffffffffffffffffffffffffffff166113f3826107f5565b73ffffffffffffffffffffffffffffffffffffffff1614611449576040517f08c379a000000000000000000000000000000000000000000000000000000000815260040161144090612733565b60405180910390fd5b600073ffffffffffffffffffffffffffffffffffffffff168273ffffffffffffffffffffffffffffffffffffffff1614156114b9576040517f08c379a00000000000000000000000000000000000000000000000000000000081526004016114b090612613565b60405180910390fd5b6114c4838383611979565b6114cf60008261123c565b6001600360008573ffffffffffffffffffffffffffffffffffffffff1673ffffffffffffffffffffffffffffffffffffffff168152602001908152602001600020600082825461151f9190612923565b925050819055506001600360008473ffffffffffffffffffffffffffffffffffffffff1673ffffffffffffffffffffffffffffffffffffffff168152602001908152602001600020600082825461157691906128cd565b92505081905550816002600083815260200190815260200160002060006101000a81548173ffffffffffffffffffffffffffffffffffffffff021916908373ffffffffffffffffffffffffffffffffffffffff160217905550808273ffffffffffffffffffffffffffffffffffffffff168473ffffffffffffffffffffffffffffffffffffffff167fddf252ad1be2c89b69c2b068fc378daa952ba7f163c4a11628f55a4df523b3ef60405160405180910390a4505050565b61163a8484846113d3565b6116468484848461197e565b611685576040517f08c379a000000000000000000000000000000000000000000000000000000000815260040161167c906125b3565b60405180910390fd5b50505050565b60606008805461169a90612a0d565b80601f01602080910402602001604051908101604052809291908181526020018280546116c690612a0d565b80156117135780601f106116e857610100808354040283529160200191611713565b820191906000526020600020905b8154815290600101906020018083116116f657829003601f168201915b5050505050905090565b600073ffffffffffffffffffffffffffffffffffffffff168273ffffffffffffffffffffffffffffffffffffffff16141561178d576040517f08c379a0000000000000000000000000000000000000000000000000000000008152600401611784906126d3565b60405180910390fd5b611796816111c8565b156117d6576040517f08c379a00000000000000000000000000000000000000000000000000000000081526004016117cd906125f3565b60405180910390fd5b6117e260008383611979565b6001600360008473ffffffffffffffffffffffffffffffffffffffff1673ffffffffffffffffffffffffffffffffffffffff168152602001908152602001600020600082825461183291906128cd565b92505081905550816002600083815260200190815260200160002060006101000a81548173ffffffffffffffffffffffffffffffffffffffff021916908373ffffffffffffffffffffffffffffffffffffffff160217905550808273ffffffffffffffffffffffffffffffffffffffff16600073ffffffffffffffffffffffffffffffffffffffff167fddf252ad1be2c89b69c2b068fc378daa952ba7f163c4a11628f55a4df523b3ef60405160405180910390a45050565b6118f4836111c8565b611933576040517f08c379a000000000000000000000000000000000000000000000000000000000815260040161192a906127b3565b60405180910390fd5b8181600760008681526020019081526020016000209190611955929190611c09565b50505050565b611975828260405180602001604052806000815250611b15565b5050565b505050565b600061199f8473ffffffffffffffffffffffffffffffffffffffff16611b70565b15611b08578373ffffffffffffffffffffffffffffffffffffffff1663150b7a026119c8611234565b8786866040518563ffffffff1660e01b81526004016119ea94939291906124f8565b602060405180830381600087803b158015611a0457600080fd5b505af1925050508015611a3557506040513d601f19601f82011682018060405250810190611a329190612057565b60015b611ab8573d8060008114611a65576040519150601f19603f3d011682016040523d82523d6000602084013e611a6a565b606091505b50600081511415611ab0576040517f08c379a0000000000000000000000000000000000000000000000000000000008152600401611aa7906125b3565b60405180910390fd5b805181602001fd5b63150b7a0260e01b7bffffffffffffffffffffffffffffffffffffffffffffffffffffffff1916817bffffffffffffffffffffffffffffffffffffffffffffffffffffffff191614915050611b0d565b600190505b949350505050565b611b1f838361171d565b611b2c600084848461197e565b611b6b576040517f08c379a0000000000000000000000000000000000000000000000000000000008152600401611b62906125b3565b60405180910390fd5b505050565b600080823b905060008111915050919050565b828054611b8f90612a0d565b90600052602060002090601f016020900481019282611bb15760008555611bf8565b82601f10611bca57805160ff1916838001178555611bf8565b82800160010185558215611bf8579182015b82811115611bf7578251825591602001919060010190611bdc565b5b509050611c059190611c8f565b5090565b828054611c1590612a0d565b90600052602060002090601f016020900481019282611c375760008555611c7e565b82601f10611c5057803560ff1916838001178555611c7e565b82800160010185558215611c7e579182015b82811115611c7d578235825591602001919060010190611c62565b5b509050611c8b9190611c8f565b5090565b5b80821115611ca8576000816000905550600101611c90565b5090565b6000611cbf611cba84612813565b6127ee565b905082815260208101848484011115611cd757600080fd5b611ce28482856129cb565b509392505050565b6000611cfd611cf884612844565b6127ee565b905082815260208101848484011115611d1557600080fd5b611d208482856129cb565b509392505050565b600081359050611d3781612f8f565b92915050565b600081359050611d4c81612fa6565b92915050565b600081359050611d6181612fbd565b92915050565b600081519050611d7681612fbd565b92915050565b600082601f830112611d8d57600080fd5b8135611d9d848260208601611cac565b91505092915050565b60008083601f840112611db857600080fd5b8235905067ffffffffffffffff811115611dd157600080fd5b602083019150836001820283011115611de957600080fd5b9250929050565b600082601f830112611e0157600080fd5b8135611e11848260208601611cea565b91505092915050565b600081359050611e2981612fd4565b92915050565b600060208284031215611e4157600080fd5b6000611e4f84828501611d28565b91505092915050565b60008060408385031215611e6b57600080fd5b6000611e7985828601611d28565b9250506020611e8a85828601611d28565b9150509250929050565b600080600060608486031215611ea957600080fd5b6000611eb786828701611d28565b9350506020611ec886828701611d28565b9250506040611ed986828701611e1a565b9150509250925092565b60008060008060808587031215611ef957600080fd5b6000611f0787828801611d28565b9450506020611f1887828801611d28565b9350506040611f2987828801611e1a565b925050606085013567ffffffffffffffff811115611f4657600080fd5b611f5287828801611d7c565b91505092959194509250565b60008060408385031215611f7157600080fd5b6000611f7f85828601611d28565b9250506020611f9085828601611d3d565b9150509250929050565b600080600060408486031215611faf57600080fd5b6000611fbd86828701611d28565b935050602084013567ffffffffffffffff811115611fda57600080fd5b611fe686828701611da6565b92509250509250925092565b6000806040838503121561200557600080fd5b600061201385828601611d28565b925050602061202485828601611e1a565b9150509250929050565b60006020828403121561204057600080fd5b600061204e84828501611d52565b91505092915050565b60006020828403121561206957600080fd5b600061207784828501611d67565b91505092915050565b60006020828403121561209257600080fd5b600082013567ffffffffffffffff8111156120ac57600080fd5b6120b884828501611df0565b91505092915050565b6000602082840312156120d357600080fd5b60006120e184828501611e1a565b91505092915050565b6120f381612957565b82525050565b61210281612969565b82525050565b60006121138261288a565b61211d81856128a0565b935061212d8185602086016129da565b61213681612afd565b840191505092915050565b600061214d83856128b1565b935061215a8385846129cb565b61216383612afd565b840190509392505050565b600061217982612895565b61218381856128b1565b93506121938185602086016129da565b61219c81612afd565b840191505092915050565b60006121b282612895565b6121bc81856128c2565b93506121cc8185602086016129da565b80840191505092915050565b600081546121e581612a0d565b6121ef81866128c2565b9450600182166000811461220a576001811461221b5761224e565b60ff1983168652818601935061224e565b61222485612875565b60005b8381101561224657815481890152600182019150602081019050612227565b838801955050505b50505092915050565b60006122646032836128b1565b915061226f82612b0e565b604082019050919050565b60006122876026836128b1565b915061229282612b5d565b604082019050919050565b60006122aa601c836128b1565b91506122b582612bac565b602082019050919050565b60006122cd6024836128b1565b91506122d882612bd5565b604082019050919050565b60006122f06019836128b1565b91506122fb82612c24565b602082019050919050565b6000612313602c836128b1565b915061231e82612c4d565b604082019050919050565b60006123366038836128b1565b915061234182612c9c565b604082019050919050565b6000612359602a836128b1565b915061236482612ceb565b604082019050919050565b600061237c6029836128b1565b915061238782612d3a565b604082019050919050565b600061239f6020836128b1565b91506123aa82612d89565b602082019050919050565b60006123c2602c836128b1565b91506123cd82612db2565b604082019050919050565b60006123e56020836128b1565b91506123f082612e01565b602082019050919050565b60006124086029836128b1565b915061241382612e2a565b604082019050919050565b600061242b602f836128b1565b915061243682612e79565b604082019050919050565b600061244e6021836128b1565b915061245982612ec8565b604082019050919050565b60006124716031836128b1565b915061247c82612f17565b604082019050919050565b60006124946014836128b1565b915061249f82612f66565b602082019050919050565b6124b3816129c1565b82525050565b60006124c582856121a7565b91506124d182846121d8565b91508190509392505050565b60006020820190506124f260008301846120ea565b92915050565b600060808201905061250d60008301876120ea565b61251a60208301866120ea565b61252760408301856124aa565b81810360608301526125398184612108565b905095945050505050565b600060408201905061255960008301866120ea565b818103602083015261256c818486612141565b9050949350505050565b600060208201905061258b60008301846120f9565b92915050565b600060208201905081810360008301526125ab818461216e565b905092915050565b600060208201905081810360008301526125cc81612257565b9050919050565b600060208201905081810360008301526125ec8161227a565b9050919050565b6000602082019050818103600083015261260c8161229d565b9050919050565b6000602082019050818103600083015261262c816122c0565b9050919050565b6000602082019050818103600083015261264c816122e3565b9050919050565b6000602082019050818103600083015261266c81612306565b9050919050565b6000602082019050818103600083015261268c81612329565b9050919050565b600060208201905081810360008301526126ac8161234c565b9050919050565b600060208201905081810360008301526126cc8161236f565b9050919050565b600060208201905081810360008301526126ec81612392565b9050919050565b6000602082019050818103600083015261270c816123b5565b9050919050565b6000602082019050818103600083015261272c816123d8565b9050919050565b6000602082019050818103600083015261274c816123fb565b9050919050565b6000602082019050818103600083015261276c8161241e565b9050919050565b6000602082019050818103600083015261278c81612441565b9050919050565b600060208201905081810360008301526127ac81612464565b9050919050565b600060208201905081810360008301526127cc81612487565b9050919050565b60006020820190506127e860008301846124aa565b92915050565b60006127f8612809565b90506128048282612a3f565b919050565b6000604051905090565b600067ffffffffffffffff82111561282e5761282d612ace565b5b61283782612afd565b9050602081019050919050565b600067ffffffffffffffff82111561285f5761285e612ace565b5b61286882612afd565b9050602081019050919050565b60008190508160005260206000209050919050565b600081519050919050565b600081519050919050565b600082825260208201905092915050565b600082825260208201905092915050565b600081905092915050565b60006128d8826129c1565b91506128e3836129c1565b9250827fffffffffffffffffffffffffffffffffffffffffffffffffffffffffffffffff0382111561291857612917612a70565b5b828201905092915050565b600061292e826129c1565b9150612939836129c1565b92508282101561294c5761294b612a70565b5b828203905092915050565b6000612962826129a1565b9050919050565b60008115159050919050565b60007fffffffff0000000000000000000000000000000000000000000000000000000082169050919050565b600073ffffffffffffffffffffffffffffffffffffffff82169050919050565b6000819050919050565b82818337600083830152505050565b60005b838110156129f85780820151818401526020810190506129dd565b83811115612a07576000848401525b50505050565b60006002820490506001821680612a2557607f821691505b60208210811415612a3957612a38612a9f565b5b50919050565b612a4882612afd565b810181811067ffffffffffffffff82111715612a6757612a66612ace565b5b80604052505050565b7f4e487b7100000000000000000000000000000000000000000000000000000000600052601160045260246000fd5b7f4e487b7100000000000000000000000000000000000000000000000000000000600052602260045260246000fd5b7f4e487b7100000000000000000000000000000000000000000000000000000000600052604160045260246000fd5b6000601f19601f8301169050919050565b7f4552433732313a207472616e7366657220746f206e6f6e20455243373231526560008201527f63656976657220696d706c656d656e7465720000000000000000000000000000602082015250565b7f4f776e61626c653a206e6577206f776e657220697320746865207a65726f206160008201527f6464726573730000000000000000000000000000000000000000000000000000602082015250565b7f4552433732313a20746f6b656e20616c7265616479206d696e74656400000000600082015250565b7f4552433732313a207472616e7366657220746f20746865207a65726f2061646460008201527f7265737300000000000000000000000000000000000000000000000000000000602082015250565b7f4552433732313a20617070726f766520746f2063616c6c657200000000000000600082015250565b7f4552433732313a206f70657261746f7220717565727920666f72206e6f6e657860008201527f697374656e7420746f6b656e0000000000000000000000000000000000000000602082015250565b7f4552433732313a20617070726f76652063616c6c6572206973206e6f74206f7760008201527f6e6572206e6f7220617070726f76656420666f7220616c6c0000000000000000602082015250565b7f4552433732313a2062616c616e636520717565727920666f7220746865207a6560008201527f726f206164647265737300000000000000000000000000000000000000000000602082015250565b7f4552433732313a206f776e657220717565727920666f72206e6f6e657869737460008201527f656e7420746f6b656e0000000000000000000000000000000000000000000000602082015250565b7f4552433732313a206d696e7420746f20746865207a65726f2061646472657373600082015250565b7f4552433732313a20617070726f76656420717565727920666f72206e6f6e657860008201527f697374656e7420746f6b656e0000000000000000000000000000000000000000602082015250565b7f4f776e61626c653a2063616c6c6572206973206e6f7420746865206f776e6572600082015250565b7f4552433732313a207472616e73666572206f6620746f6b656e2074686174206960008201527f73206e6f74206f776e0000000000000000000000000000000000000000000000602082015250565b7f4552433732314d657461646174613a2055524920717565727920666f72206e6f60008201527f6e6578697374656e7420746f6b656e0000000000000000000000000000000000602082015250565b7f4552433732313a20617070726f76616c20746f2063757272656e74206f776e6560008201527f7200000000000000000000000000000000000000000000000000000000000000602082015250565b7f4552433732313a207472616e736665722063616c6c6572206973206e6f74206f60008201527f776e6572206e6f7220617070726f766564000000000000000000000000000000602082015250565b7f544f4b454e5f49445f4e4f545f45584953544544000000000000000000000000600082015250565b612f9881612957565b8114612fa357600080fd5b50565b612faf81612969565b8114612fba57600080fd5b50565b612fc681612975565b8114612fd157600080fd5b50565b612fdd816129c1565b8114612fe857600080fd5b5056fea2646970667358221220587b67bf62fed61a8114cdaf851d41f7ec1b1f205de0b14788758c3002364f7364736f6c63430008040033",
  "immutableReferences": {},
  "source": "// SPDX-License-Identifier: UNLICENSED\n\npragma solidity 0.8.4;\n\nimport \"./lib/token/ERC721/ERC721.sol\";\nimport \"./lib/access/Ownable.sol\";\n\ncontract TaureumERC721 is ERC721, Ownable {\n    /**\n     * @dev Mapping from NFT ID to metadata uri.\n     */\n    mapping(uint256 => string) internal idToUri;\n\n    /**\n     * @dev The base URI for all NFT.\n     */\n    string private __baseURI;\n\n    /**\n     * @dev Create a new TaureumERC721 contract.\n     *\n     */\n    constructor() ERC721(\"Taureum ERC721\", \"Taureum\") Ownable() {\n        __baseURI = \"\";\n    }\n\n    /**\n      * @dev Safely mint a new NFT.\n      * @notice It throws an exception if\n      *    - `to` is a \"ZERO_ADDRESS.\n      *    - If `to` refers to a smart contract, it must implement {IERC721Receiver-onERC721Received}, which is called upon a safe transfer.\n      * @param to The address that will own the minted NFT.\n      * @param uri The URI consists of metadata description of the minting NFT on the IPFS (without prefix).\n      */\n    function safeMint(\n        address to,\n        string calldata uri\n    )\n    public\n    returns (uint256)\n    {\n        uint256 id = uint256(keccak256(abi.encode(to, uri)));\n\n        _safeMint(to, id);\n        _setTokenUri(id, uri);\n\n        return id;\n    }\n\n    /**\n      * @dev Mint a new NFT.\n      * @notice It throws an exception if\n      *    - `to` is a \"ZERO_ADDRESS.\n      * @param to The address that will own the minted NFT.\n      * @param uri The URI consists of metadata description of the minting NFT on the IPFS (without prefix).\n      */\n    function mint(\n        address to,\n        string calldata uri\n    )\n    public\n    returns (uint256)\n    {\n        uint256 id = uint256(keccak256(abi.encode(to, uri)));\n\n        _mint(to, id);\n        _setTokenUri(id, uri);\n\n        return id;\n    }\n\n    /**\n     * @dev See {IERC721Metadata-tokenURI}.\n     */\n    function tokenURI(uint256 tokenId) public view virtual override returns (string memory) {\n        require(_exists(tokenId), \"ERC721Metadata: URI query for nonexistent token\");\n\n        string memory baseURI = _baseURI();\n        return bytes(baseURI).length > 0 ? string(abi.encodePacked(baseURI, idToUri[tokenId])) : idToUri[tokenId];\n    }\n\n    /**\n     * @dev Sets new value for the `baseURI`. This operation can only been done by the owner of this contract.\n     */\n    function setBaseURI(string memory newBaseURI) external onlyOwner {\n        __baseURI = newBaseURI;\n    }\n\n    /**\n     * @dev Base URI for computing {tokenURI}. If set, the resulting URI for each\n     * token will be the concatenation of the `baseURI` and the `tokenId`.\n     */\n    function _baseURI() internal view virtual override returns (string memory) {\n        return __baseURI;\n    }\n\n    /**\n     * @dev Set a distinct URI (RFC 3986) for a given NFT ID.\n     * @notice This is an internal function which should be called from user-implemented external\n     * function.\n     * @notice It throws an exception if the _tokenId does not exist.\n     * @param _tokenId Id for which we want URI.\n     * @param _uri String representing RFC 3986 URI.\n     */\n    function _setTokenUri(\n        uint256 _tokenId,\n        string calldata _uri\n    )\n    internal\n    {\n        require(_exists(_tokenId), \"TOKEN_ID_NOT_EXISTED\");\n        idToUri[_tokenId] = _uri;\n    }\n\n}\n",
  "sourcePath": "/home/toor/nodejs/truffle/nft_demo/taudefi/taudefi-nft/contracts/TaureumERC721.sol",
  "compiler": {
    "name": "solc",
    "version": "0.8.4+commit.c7e474f2.Emscripten.clang"
  },
  "schemaVersion": "3.4.1",
  "updatedAt": "2021-07-27T15:28:31.352Z",
  "devdoc": {
    "kind": "dev",
    "methods": {
      "approve(address,uint256)": {
        "details": "See {IERC721-approve}."
      },
      "balanceOf(address)": {
        "details": "See {IERC721-balanceOf}."
      },
      "constructor": {
        "details": "Create a new TaureumERC721 contract."
      },
      "getApproved(uint256)": {
        "details": "See {IERC721-getApproved}."
      },
      "isApprovedForAll(address,address)": {
        "details": "See {IERC721-isApprovedForAll}."
      },
      "mint(address,string)": {
        "details": "Mint a new NFT.",
        "params": {
          "to": "The address that will own the minted NFT.",
          "uri": "The URI consists of metadata description of the minting NFT on the IPFS (without prefix)."
        }
      },
      "name()": {
        "details": "See {IERC721Metadata-name}."
      },
      "owner()": {
        "details": "Returns the address of the current owner."
      },
      "ownerOf(uint256)": {
        "details": "See {IERC721-ownerOf}."
      },
      "renounceOwnership()": {
        "details": "Leaves the contract without owner. It will not be possible to call `onlyOwner` functions anymore. Can only be called by the current owner. NOTE: Renouncing ownership will leave the contract without an owner, thereby removing any functionality that is only available to the owner."
      },
      "safeMint(address,string)": {
        "details": "Safely mint a new NFT.",
        "params": {
          "to": "The address that will own the minted NFT.",
          "uri": "The URI consists of metadata description of the minting NFT on the IPFS (without prefix)."
        }
      },
      "safeTransferFrom(address,address,uint256)": {
        "details": "See {IERC721-safeTransferFrom}."
      },
      "safeTransferFrom(address,address,uint256,bytes)": {
        "details": "See {IERC721-safeTransferFrom}."
      },
      "setApprovalForAll(address,bool)": {
        "details": "See {IERC721-setApprovalForAll}."
      },
      "setBaseURI(string)": {
        "details": "Sets new value for the `baseURI`. This operation can only been done by the owner of this contract."
      },
      "supportsInterface(bytes4)": {
        "details": "See {IERC165-supportsInterface}."
      },
      "symbol()": {
        "details": "See {IERC721Metadata-symbol}."
      },
      "tokenURI(uint256)": {
        "details": "See {IERC721Metadata-tokenURI}."
      },
      "transferFrom(address,address,uint256)": {
        "details": "See {IERC721-transferFrom}."
      },
      "transferOwnership(address)": {
        "details": "Transfers ownership of the contract to a new account (`newOwner`). Can only be called by the current owner."
      }
    },
    "stateVariables": {
      "__baseURI": {
        "details": "The base URI for all NFT."
      },
      "idToUri": {
        "details": "Mapping from NFT ID to metadata uri."
      }
    },
    "version": 1
  },
  "userdoc": {
    "kind": "user",
    "methods": {
      "mint(address,string)": {
        "notice": "It throws an exception if    - `to` is a \"ZERO_ADDRESS."
      },
      "safeMint(address,string)": {
        "notice": "It throws an exception if    - `to` is a \"ZERO_ADDRESS.    - If `to` refers to a smart contract, it must implement {IERC721Receiver-onERC721Received}, which is called upon a safe transfer."
      }
    },
    "version": 1
  }
}