{
  "contractName": "TaureumNFT",
  "abi": [
    {
      "inputs": [
        {
          "internalType": "address",
          "name": "KYCAddress",
          "type": "address"
        }
      ],
      "stateMutability": "nonpayable",
      "type": "constructor"
    },
    {
      "anonymous": false,
      "inputs": [
        {
          "indexed": true,
          "internalType": "address",
          "name": "owner",
          "type": "address"
        },
        {
          "indexed": true,
          "internalType": "address",
          "name": "approved",
          "type": "address"
        },
        {
          "indexed": true,
          "internalType": "uint256",
          "name": "tokenId",
          "type": "uint256"
        }
      ],
      "name": "Approval",
      "type": "event"
    },
    {
      "anonymous": false,
      "inputs": [
        {
          "indexed": true,
          "internalType": "address",
          "name": "owner",
          "type": "address"
        },
        {
          "indexed": true,
          "internalType": "address",
          "name": "operator",
          "type": "address"
        },
        {
          "indexed": false,
          "internalType": "bool",
          "name": "approved",
          "type": "bool"
        }
      ],
      "name": "ApprovalForAll",
      "type": "event"
    },
    {
      "anonymous": false,
      "inputs": [
        {
          "indexed": true,
          "internalType": "address",
          "name": "to",
          "type": "address"
        },
        {
          "indexed": true,
          "internalType": "uint256",
          "name": "tokenId",
          "type": "uint256"
        },
        {
          "indexed": false,
          "internalType": "string",
          "name": "uri",
          "type": "string"
        },
        {
          "indexed": false,
          "internalType": "uint256",
          "name": "expiryDate",
          "type": "uint256"
        }
      ],
      "name": "Mint",
      "type": "event"
    },
    {
      "anonymous": false,
      "inputs": [
        {
          "indexed": true,
          "internalType": "address",
          "name": "from",
          "type": "address"
        },
        {
          "indexed": true,
          "internalType": "address",
          "name": "to",
          "type": "address"
        },
        {
          "indexed": true,
          "internalType": "uint256",
          "name": "tokenId",
          "type": "uint256"
        }
      ],
      "name": "Transfer",
      "type": "event"
    },
    {
      "inputs": [
        {
          "internalType": "address",
          "name": "to",
          "type": "address"
        },
        {
          "internalType": "uint256",
          "name": "tokenId",
          "type": "uint256"
        }
      ],
      "name": "approve",
      "outputs": [],
      "stateMutability": "nonpayable",
      "type": "function"
    },
    {
      "inputs": [
        {
          "internalType": "address",
          "name": "owner",
          "type": "address"
        }
      ],
      "name": "balanceOf",
      "outputs": [
        {
          "internalType": "uint256",
          "name": "",
          "type": "uint256"
        }
      ],
      "stateMutability": "view",
      "type": "function"
    },
    {
      "inputs": [
        {
          "internalType": "uint256",
          "name": "tokenId",
          "type": "uint256"
        }
      ],
      "name": "getApproved",
      "outputs": [
        {
          "internalType": "address",
          "name": "",
          "type": "address"
        }
      ],
      "stateMutability": "view",
      "type": "function"
    },
    {
      "inputs": [
        {
          "internalType": "address",
          "name": "owner",
          "type": "address"
        },
        {
          "internalType": "address",
          "name": "operator",
          "type": "address"
        }
      ],
      "name": "isApprovedForAll",
      "outputs": [
        {
          "internalType": "bool",
          "name": "",
          "type": "bool"
        }
      ],
      "stateMutability": "view",
      "type": "function"
    },
    {
      "inputs": [],
      "name": "name",
      "outputs": [
        {
          "internalType": "string",
          "name": "",
          "type": "string"
        }
      ],
      "stateMutability": "view",
      "type": "function"
    },
    {
      "inputs": [
        {
          "internalType": "uint256",
          "name": "tokenId",
          "type": "uint256"
        }
      ],
      "name": "ownerOf",
      "outputs": [
        {
          "internalType": "address",
          "name": "",
          "type": "address"
        }
      ],
      "stateMutability": "view",
      "type": "function"
    },
    {
      "inputs": [
        {
          "internalType": "address",
          "name": "operator",
          "type": "address"
        },
        {
          "internalType": "bool",
          "name": "approved",
          "type": "bool"
        }
      ],
      "name": "setApprovalForAll",
      "outputs": [],
      "stateMutability": "nonpayable",
      "type": "function"
    },
    {
      "inputs": [],
      "name": "symbol",
      "outputs": [
        {
          "internalType": "string",
          "name": "",
          "type": "string"
        }
      ],
      "stateMutability": "view",
      "type": "function"
    },
    {
      "inputs": [
        {
          "internalType": "bytes4",
          "name": "interfaceId",
          "type": "bytes4"
        }
      ],
      "name": "supportsInterface",
      "outputs": [
        {
          "internalType": "bool",
          "name": "",
          "type": "bool"
        }
      ],
      "stateMutability": "view",
      "type": "function"
    },
    {
      "inputs": [
        {
          "internalType": "address",
          "name": "to",
          "type": "address"
        },
        {
          "internalType": "string",
          "name": "uri",
          "type": "string"
        },
        {
          "internalType": "uint8",
          "name": "license",
          "type": "uint8"
        },
        {
          "internalType": "uint256",
          "name": "expiryDate",
          "type": "uint256"
        }
      ],
      "name": "mint",
      "outputs": [],
      "stateMutability": "nonpayable",
      "type": "function"
    },
    {
      "inputs": [
        {
          "internalType": "uint256",
          "name": "tokenId",
          "type": "uint256"
        }
      ],
      "name": "tokenURI",
      "outputs": [
        {
          "internalType": "string",
          "name": "",
          "type": "string"
        }
      ],
      "stateMutability": "view",
      "type": "function"
    },
    {
      "inputs": [
        {
          "internalType": "uint256",
          "name": "_tokenId",
          "type": "uint256"
        }
      ],
      "name": "getTokenData",
      "outputs": [
        {
          "internalType": "bytes",
          "name": "tokenData",
          "type": "bytes"
        }
      ],
      "stateMutability": "view",
      "type": "function"
    },
    {
      "inputs": [
        {
          "internalType": "address",
          "name": "from",
          "type": "address"
        },
        {
          "internalType": "address",
          "name": "to",
          "type": "address"
        },
        {
          "internalType": "uint256",
          "name": "tokenId",
          "type": "uint256"
        }
      ],
      "name": "transferFrom",
      "outputs": [],
      "stateMutability": "nonpayable",
      "type": "function"
    },
    {
      "inputs": [
        {
          "internalType": "address",
          "name": "from",
          "type": "address"
        },
        {
          "internalType": "address",
          "name": "to",
          "type": "address"
        },
        {
          "internalType": "uint256",
          "name": "tokenId",
          "type": "uint256"
        }
      ],
      "name": "safeTransferFrom",
      "outputs": [],
      "stateMutability": "nonpayable",
      "type": "function"
    },
    {
      "inputs": [
        {
          "internalType": "address",
          "name": "from",
          "type": "address"
        },
        {
          "internalType": "address",
          "name": "to",
          "type": "address"
        },
        {
          "internalType": "uint256",
          "name": "tokenId",
          "type": "uint256"
        },
        {
          "internalType": "bytes",
          "name": "_data",
          "type": "bytes"
        }
      ],
      "name": "safeTransferFrom",
      "outputs": [],
      "stateMutability": "nonpayable",
      "type": "function"
    }
  ],
  "bytecode": "0x60806040523480156200001157600080fd5b506040516200380b3803806200380b8339818101604052810190620000379190620001e6565b6040518060400160405280600b81526020017f5461757265756d204e46540000000000000000000000000000000000000000008152506040518060400160405280600781526020017f5461757265756d000000000000000000000000000000000000000000000000008152508160009080519060200190620000bb9291906200011f565b508060019080519060200190620000d49291906200011f565b50505080600760006101000a81548173ffffffffffffffffffffffffffffffffffffffff021916908373ffffffffffffffffffffffffffffffffffffffff16021790555050620002c5565b8280546200012d9062000246565b90600052602060002090601f0160209004810192826200015157600085556200019d565b82601f106200016c57805160ff19168380011785556200019d565b828001600101855582156200019d579182015b828111156200019c5782518255916020019190600101906200017f565b5b509050620001ac9190620001b0565b5090565b5b80821115620001cb576000816000905550600101620001b1565b5090565b600081519050620001e081620002ab565b92915050565b600060208284031215620001f957600080fd5b60006200020984828501620001cf565b91505092915050565b60006200021f8262000226565b9050919050565b600073ffffffffffffffffffffffffffffffffffffffff82169050919050565b600060028204905060018216806200025f57607f821691505b602082108114156200027657620002756200027c565b5b50919050565b7f4e487b7100000000000000000000000000000000000000000000000000000000600052602260045260246000fd5b620002b68162000212565b8114620002c257600080fd5b50565b61353680620002d56000396000f3fe608060405234801561001057600080fd5b50600436106100f55760003560e01c806370a0823111610097578063b88d4fde11610066578063b88d4fde14610296578063c87b56dd146102b2578063e985e9c5146102e2578063f67e3c4a14610312576100f5565b806370a08231146101fc57806395d89b411461022c578063a22cb4651461024a578063b09afec114610266576100f5565b8063095ea7b3116100d3578063095ea7b31461017857806323b872dd1461019457806342842e0e146101b05780636352211e146101cc576100f5565b806301ffc9a7146100fa57806306fdde031461012a578063081812fc14610148575b600080fd5b610114600480360381019061010f919061236c565b61032e565b604051610121919061294f565b60405180910390f35b610132610410565b60405161013f919061298c565b60405180910390f35b610162600480360381019061015d91906123be565b6104a2565b60405161016f91906128e8565b60405180910390f35b610192600480360381019061018d9190612307565b610527565b005b6101ae60048036038101906101a99190612181565b61063f565b005b6101ca60048036038101906101c59190612181565b6107f4565b005b6101e660048036038101906101e191906123be565b610814565b6040516101f391906128e8565b60405180910390f35b6102166004803603810190610211919061211c565b6108c6565b6040516102239190612c4e565b60405180910390f35b61023461097e565b604051610241919061298c565b60405180910390f35b610264600480360381019061025f919061224b565b610a10565b005b610280600480360381019061027b91906123be565b610b91565b60405161028d919061296a565b60405180910390f35b6102b060048036038101906102ab91906121d0565b610c7a565b005b6102cc60048036038101906102c791906123be565b610e31565b6040516102d9919061298c565b60405180910390f35b6102fc60048036038101906102f79190612145565b610f6e565b604051610309919061294f565b60405180910390f35b61032c60048036038101906103279190612287565b611002565b005b60007f80ac58cd000000000000000000000000000000000000000000000000000000007bffffffffffffffffffffffffffffffffffffffffffffffffffffffff1916827bffffffffffffffffffffffffffffffffffffffffffffffffffffffff191614806103f957507f5b5e139f000000000000000000000000000000000000000000000000000000007bffffffffffffffffffffffffffffffffffffffffffffffffffffffff1916827bffffffffffffffffffffffffffffffffffffffffffffffffffffffff1916145b80610409575061040882611350565b5b9050919050565b60606000805461041f90612e64565b80601f016020809104026020016040519081016040528092919081815260200182805461044b90612e64565b80156104985780601f1061046d57610100808354040283529160200191610498565b820191906000526020600020905b81548152906001019060200180831161047b57829003601f168201915b5050505050905090565b60006104ad82611432565b6104ec576040517f08c379a00000000000000000000000000000000000000000000000000000000081526004016104e390612b2e565b60405180910390fd5b6004600083815260200190815260200160002060009054906101000a900473ffffffffffffffffffffffffffffffffffffffff169050919050565b600061053282610814565b90508073ffffffffffffffffffffffffffffffffffffffff168373ffffffffffffffffffffffffffffffffffffffff1614156105a3576040517f08c379a000000000000000000000000000000000000000000000000000000000815260040161059a90612bce565b60405180910390fd5b8073ffffffffffffffffffffffffffffffffffffffff166105c261149e565b73ffffffffffffffffffffffffffffffffffffffff1614806105f157506105f0816105eb61149e565b610f6e565b5b610630576040517f08c379a000000000000000000000000000000000000000000000000000000000815260040161062790612a6e565b60405180910390fd5b61063a83836114a6565b505050565b806106498161155f565b610688576040517f08c379a000000000000000000000000000000000000000000000000000000000815260040161067f90612b4e565b60405180910390fd5b826000610694826108c6565b90506000600760009054906101000a900473ffffffffffffffffffffffffffffffffffffffff1673ffffffffffffffffffffffffffffffffffffffff16633da1c0c3846040518263ffffffff1660e01b81526004016106f391906128e8565b60206040518083038186803b15801561070b57600080fd5b505afa15801561071f573d6000803e3d6000fd5b505050506040513d601f19601f820116820180604052508101906107439190612343565b905080806107515750600a82105b610790576040517f08c379a0000000000000000000000000000000000000000000000000000000008152600401610787906129ee565b60405180910390fd5b6107a161079b61149e565b86611660565b6107e0576040517f08c379a00000000000000000000000000000000000000000000000000000000081526004016107d790612bee565b60405180910390fd5b6107eb87878761173e565b50505050505050565b61080f83838360405180602001604052806000815250610c7a565b505050565b6000806002600084815260200190815260200160002060009054906101000a900473ffffffffffffffffffffffffffffffffffffffff169050600073ffffffffffffffffffffffffffffffffffffffff168173ffffffffffffffffffffffffffffffffffffffff1614156108bd576040517f08c379a00000000000000000000000000000000000000000000000000000000081526004016108b490612aae565b60405180910390fd5b80915050919050565b60008073ffffffffffffffffffffffffffffffffffffffff168273ffffffffffffffffffffffffffffffffffffffff161415610937576040517f08c379a000000000000000000000000000000000000000000000000000000000815260040161092e90612a8e565b60405180910390fd5b600360008373ffffffffffffffffffffffffffffffffffffffff1673ffffffffffffffffffffffffffffffffffffffff168152602001908152602001600020549050919050565b60606001805461098d90612e64565b80601f01602080910402602001604051908101604052809291908181526020018280546109b990612e64565b8015610a065780601f106109db57610100808354040283529160200191610a06565b820191906000526020600020905b8154815290600101906020018083116109e957829003601f168201915b5050505050905090565b610a1861149e565b73ffffffffffffffffffffffffffffffffffffffff168273ffffffffffffffffffffffffffffffffffffffff161415610a86576040517f08c379a0000000000000000000000000000000000000000000000000000000008152600401610a7d90612a2e565b60405180910390fd5b8060056000610a9361149e565b73ffffffffffffffffffffffffffffffffffffffff1673ffffffffffffffffffffffffffffffffffffffff16815260200190815260200160002060008473ffffffffffffffffffffffffffffffffffffffff1673ffffffffffffffffffffffffffffffffffffffff16815260200190815260200160002060006101000a81548160ff0219169083151502179055508173ffffffffffffffffffffffffffffffffffffffff16610b4061149e565b73ffffffffffffffffffffffffffffffffffffffff167f17307eab39ab6107e8899845ad3d59bd9653f200f220920489ca2b5937696c3183604051610b85919061294f565b60405180910390a35050565b6060600b60008381526020019081526020016000208054610bb190612e64565b80601f0160208091040260200160405190810160405280929190818152602001828054610bdd90612e64565b8015610c2a5780601f10610bff57610100808354040283529160200191610c2a565b820191906000526020600020905b815481529060010190602001808311610c0d57829003601f168201915b505050505090506021815114610c75576040517f08c379a0000000000000000000000000000000000000000000000000000000008152600401610c6c90612aee565b60405180910390fd5b919050565b81610c848161155f565b610cc3576040517f08c379a0000000000000000000000000000000000000000000000000000000008152600401610cba90612b4e565b60405180910390fd5b836000610ccf826108c6565b90506000600760009054906101000a900473ffffffffffffffffffffffffffffffffffffffff1673ffffffffffffffffffffffffffffffffffffffff16633da1c0c3846040518263ffffffff1660e01b8152600401610d2e91906128e8565b60206040518083038186803b158015610d4657600080fd5b505afa158015610d5a573d6000803e3d6000fd5b505050506040513d601f19601f82011682018060405250810190610d7e9190612343565b90508080610d8c5750600a82105b610dcb576040517f08c379a0000000000000000000000000000000000000000000000000000000008152600401610dc2906129ee565b60405180910390fd5b610ddc610dd661149e565b87611660565b610e1b576040517f08c379a0000000000000000000000000000000000000000000000000000000008152600401610e1290612bee565b60405180910390fd5b610e278888888861199a565b5050505050505050565b6060610e3c82611432565b610e7b576040517f08c379a0000000000000000000000000000000000000000000000000000000008152600401610e7290612b8e565b60405180910390fd5b6000610e856119f6565b90506000815111610f3157600860008481526020019081526020016000208054610eae90612e64565b80601f0160208091040260200160405190810160405280929190818152602001828054610eda90612e64565b8015610f275780601f10610efc57610100808354040283529160200191610f27565b820191906000526020600020905b815481529060010190602001808311610f0a57829003601f168201915b5050505050610f66565b8060086000858152602001908152602001600020604051602001610f56929190612898565b6040516020818303038152906040525b915050919050565b6000600560008473ffffffffffffffffffffffffffffffffffffffff1673ffffffffffffffffffffffffffffffffffffffff16815260200190815260200160002060008373ffffffffffffffffffffffffffffffffffffffff1673ffffffffffffffffffffffffffffffffffffffff16815260200190815260200160002060009054906101000a900460ff16905092915050565b83838080601f016020809104026020016040519081016040528093929190818152602001838380828437600081840152601f19601f82011690508083019250505050505050600a816040516110579190612881565b908152602001604051809103902060009054906101000a900460ff16156110b3576040517f08c379a00000000000000000000000000000000000000000000000000000000081526004016110aa90612ace565b60405180910390fd5b8560006110bf826108c6565b90506000600760009054906101000a900473ffffffffffffffffffffffffffffffffffffffff1673ffffffffffffffffffffffffffffffffffffffff16633da1c0c3846040518263ffffffff1660e01b815260040161111e91906128e8565b60206040518083038186803b15801561113657600080fd5b505afa15801561114a573d6000803e3d6000fd5b505050506040513d601f19601f8201168201806040525081019061116e9190612343565b9050808061117c5750600a82105b6111bb576040517f08c379a00000000000000000000000000000000000000000000000000000000081526004016111b2906129ee565b60405180910390fd5b60028660ff1610611201576040517f08c379a00000000000000000000000000000000000000000000000000000000081526004016111f890612c0e565b60405180910390fd5b438511611243576040517f08c379a000000000000000000000000000000000000000000000000000000000815260040161123a90612bae565b60405180910390fd5b61124d6006611a33565b60006112596006611a49565b90506112658a82611a57565b611270818a8a611c25565b6001600a8a8a604051611284929190612868565b908152602001604051809103902060006101000a81548160ff021916908315150217905550896009600083815260200190815260200160002060006101000a81548173ffffffffffffffffffffffffffffffffffffffff021916908373ffffffffffffffffffffffffffffffffffffffff160217905550868660405160200161130e9291906128bc565b604051602081830303815290604052600b60008381526020019081526020016000209080519060200190611343929190611eae565b5050505050505050505050565b60007f80ac58cd000000000000000000000000000000000000000000000000000000007bffffffffffffffffffffffffffffffffffffffffffffffffffffffff1916827bffffffffffffffffffffffffffffffffffffffffffffffffffffffff1916148061141b57507f5b5e139f000000000000000000000000000000000000000000000000000000007bffffffffffffffffffffffffffffffffffffffffffffffffffffffff1916827bffffffffffffffffffffffffffffffffffffffffffffffffffffffff1916145b8061142b575061142a82611c95565b5b9050919050565b60008073ffffffffffffffffffffffffffffffffffffffff166002600084815260200190815260200160002060009054906101000a900473ffffffffffffffffffffffffffffffffffffffff1673ffffffffffffffffffffffffffffffffffffffff1614159050919050565b600033905090565b816004600083815260200190815260200160002060006101000a81548173ffffffffffffffffffffffffffffffffffffffff021916908373ffffffffffffffffffffffffffffffffffffffff160217905550808273ffffffffffffffffffffffffffffffffffffffff1661151983610814565b73ffffffffffffffffffffffffffffffffffffffff167f8c5be1e5ebec7d5bd14f71427d1e84f3dd0314c0f7b2291e5b200ac8c7c3b92560405160405180910390a45050565b6000806009600084815260200190815260200160002060009054906101000a900473ffffffffffffffffffffffffffffffffffffffff16905060006115a384610b91565b90506000816000815181106115e1577f4e487b7100000000000000000000000000000000000000000000000000000000600052603260045260246000fd5b602001015160f81c60f81b60f81c905060018160ff161415801561163157508273ffffffffffffffffffffffffffffffffffffffff163373ffffffffffffffffffffffffffffffffffffffff1614155b15611642576000935050505061165b565b6000600183019250602083015190508043109450505050505b919050565b600061166b82611432565b6116aa576040517f08c379a00000000000000000000000000000000000000000000000000000000081526004016116a190612a4e565b60405180910390fd5b60006116b583610814565b90508073ffffffffffffffffffffffffffffffffffffffff168473ffffffffffffffffffffffffffffffffffffffff16148061172457508373ffffffffffffffffffffffffffffffffffffffff1661170c846104a2565b73ffffffffffffffffffffffffffffffffffffffff16145b8061173557506117348185610f6e565b5b91505092915050565b8273ffffffffffffffffffffffffffffffffffffffff1661175e82610814565b73ffffffffffffffffffffffffffffffffffffffff16146117b4576040517f08c379a00000000000000000000000000000000000000000000000000000000081526004016117ab90612b6e565b60405180910390fd5b600073ffffffffffffffffffffffffffffffffffffffff168273ffffffffffffffffffffffffffffffffffffffff161415611824576040517f08c379a000000000000000000000000000000000000000000000000000000000815260040161181b90612a0e565b60405180910390fd5b61182f838383611cff565b61183a6000826114a6565b6001600360008573ffffffffffffffffffffffffffffffffffffffff1673ffffffffffffffffffffffffffffffffffffffff168152602001908152602001600020600082825461188a9190612d6d565b925050819055506001600360008473ffffffffffffffffffffffffffffffffffffffff1673ffffffffffffffffffffffffffffffffffffffff16815260200190815260200160002060008282546118e19190612d17565b92505081905550816002600083815260200190815260200160002060006101000a81548173ffffffffffffffffffffffffffffffffffffffff021916908373ffffffffffffffffffffffffffffffffffffffff160217905550808273ffffffffffffffffffffffffffffffffffffffff168473ffffffffffffffffffffffffffffffffffffffff167fddf252ad1be2c89b69c2b068fc378daa952ba7f163c4a11628f55a4df523b3ef60405160405180910390a4505050565b6119a584848461173e565b6119b184848484611d04565b6119f0576040517f08c379a00000000000000000000000000000000000000000000000000000000081526004016119e7906129ae565b60405180910390fd5b50505050565b60606040518060400160405280600781526020017f697066733a2f2f00000000000000000000000000000000000000000000000000815250905090565b6001816000016000828254019250508190555050565b600081600001549050919050565b600073ffffffffffffffffffffffffffffffffffffffff168273ffffffffffffffffffffffffffffffffffffffff161415611ac7576040517f08c379a0000000000000000000000000000000000000000000000000000000008152600401611abe90612b0e565b60405180910390fd5b611ad081611432565b15611b10576040517f08c379a0000000000000000000000000000000000000000000000000000000008152600401611b07906129ce565b60405180910390fd5b611b1c60008383611cff565b6001600360008473ffffffffffffffffffffffffffffffffffffffff1673ffffffffffffffffffffffffffffffffffffffff1681526020019081526020016000206000828254611b6c9190612d17565b92505081905550816002600083815260200190815260200160002060006101000a81548173ffffffffffffffffffffffffffffffffffffffff021916908373ffffffffffffffffffffffffffffffffffffffff160217905550808273ffffffffffffffffffffffffffffffffffffffff16600073ffffffffffffffffffffffffffffffffffffffff167fddf252ad1be2c89b69c2b068fc378daa952ba7f163c4a11628f55a4df523b3ef60405160405180910390a45050565b611c2e83611432565b611c6d576040517f08c379a0000000000000000000000000000000000000000000000000000000008152600401611c6490612c2e565b60405180910390fd5b8181600860008681526020019081526020016000209190611c8f929190611f34565b50505050565b60007f01ffc9a7000000000000000000000000000000000000000000000000000000007bffffffffffffffffffffffffffffffffffffffffffffffffffffffff1916827bffffffffffffffffffffffffffffffffffffffffffffffffffffffff1916149050919050565b505050565b6000611d258473ffffffffffffffffffffffffffffffffffffffff16611e9b565b15611e8e578373ffffffffffffffffffffffffffffffffffffffff1663150b7a02611d4e61149e565b8786866040518563ffffffff1660e01b8152600401611d709493929190612903565b602060405180830381600087803b158015611d8a57600080fd5b505af1925050508015611dbb57506040513d601f19601f82011682018060405250810190611db89190612395565b60015b611e3e573d8060008114611deb576040519150601f19603f3d011682016040523d82523d6000602084013e611df0565b606091505b50600081511415611e36576040517f08c379a0000000000000000000000000000000000000000000000000000000008152600401611e2d906129ae565b60405180910390fd5b805181602001fd5b63150b7a0260e01b7bffffffffffffffffffffffffffffffffffffffffffffffffffffffff1916817bffffffffffffffffffffffffffffffffffffffffffffffffffffffff191614915050611e93565b600190505b949350505050565b600080823b905060008111915050919050565b828054611eba90612e64565b90600052602060002090601f016020900481019282611edc5760008555611f23565b82601f10611ef557805160ff1916838001178555611f23565b82800160010185558215611f23579182015b82811115611f22578251825591602001919060010190611f07565b5b509050611f309190611fba565b5090565b828054611f4090612e64565b90600052602060002090601f016020900481019282611f625760008555611fa9565b82601f10611f7b57803560ff1916838001178555611fa9565b82800160010185558215611fa9579182015b82811115611fa8578235825591602001919060010190611f8d565b5b509050611fb69190611fba565b5090565b5b80821115611fd3576000816000905550600101611fbb565b5090565b6000611fea611fe584612c8e565b612c69565b90508281526020810184848401111561200257600080fd5b61200d848285612e22565b509392505050565b6000813590506120248161348d565b92915050565b600081359050612039816134a4565b92915050565b60008151905061204e816134a4565b92915050565b600081359050612063816134bb565b92915050565b600081519050612078816134bb565b92915050565b600082601f83011261208f57600080fd5b813561209f848260208601611fd7565b91505092915050565b60008083601f8401126120ba57600080fd5b8235905067ffffffffffffffff8111156120d357600080fd5b6020830191508360018202830111156120eb57600080fd5b9250929050565b600081359050612101816134d2565b92915050565b600081359050612116816134e9565b92915050565b60006020828403121561212e57600080fd5b600061213c84828501612015565b91505092915050565b6000806040838503121561215857600080fd5b600061216685828601612015565b925050602061217785828601612015565b9150509250929050565b60008060006060848603121561219657600080fd5b60006121a486828701612015565b93505060206121b586828701612015565b92505060406121c6868287016120f2565b9150509250925092565b600080600080608085870312156121e657600080fd5b60006121f487828801612015565b945050602061220587828801612015565b9350506040612216878288016120f2565b925050606085013567ffffffffffffffff81111561223357600080fd5b61223f8782880161207e565b91505092959194509250565b6000806040838503121561225e57600080fd5b600061226c85828601612015565b925050602061227d8582860161202a565b9150509250929050565b60008060008060006080868803121561229f57600080fd5b60006122ad88828901612015565b955050602086013567ffffffffffffffff8111156122ca57600080fd5b6122d6888289016120a8565b945094505060406122e988828901612107565b92505060606122fa888289016120f2565b9150509295509295909350565b6000806040838503121561231a57600080fd5b600061232885828601612015565b9250506020612339858286016120f2565b9150509250929050565b60006020828403121561235557600080fd5b60006123638482850161203f565b91505092915050565b60006020828403121561237e57600080fd5b600061238c84828501612054565b91505092915050565b6000602082840312156123a757600080fd5b60006123b584828501612069565b91505092915050565b6000602082840312156123d057600080fd5b60006123de848285016120f2565b91505092915050565b6123f081612da1565b82525050565b6123ff81612db3565b82525050565b600061241082612cd4565b61241a8185612cea565b935061242a818560208601612e31565b61243381612f70565b840191505092915050565b600061244a8385612d0c565b9350612457838584612e22565b82840190509392505050565b600061246e82612cdf565b6124788185612cfb565b9350612488818560208601612e31565b61249181612f70565b840191505092915050565b60006124a782612cdf565b6124b18185612d0c565b93506124c1818560208601612e31565b80840191505092915050565b600081546124da81612e64565b6124e48186612d0c565b945060018216600081146124ff576001811461251057612543565b60ff19831686528186019350612543565b61251985612cbf565b60005b8381101561253b5781548189015260018201915060208101905061251c565b838801955050505b50505092915050565b6000612559603283612cfb565b915061256482612f8e565b604082019050919050565b600061257c601c83612cfb565b915061258782612fdd565b602082019050919050565b600061259f601683612cfb565b91506125aa82613006565b602082019050919050565b60006125c2602483612cfb565b91506125cd8261302f565b604082019050919050565b60006125e5601983612cfb565b91506125f08261307e565b602082019050919050565b6000612608602c83612cfb565b9150612613826130a7565b604082019050919050565b600061262b603883612cfb565b9150612636826130f6565b604082019050919050565b600061264e602a83612cfb565b915061265982613145565b604082019050919050565b6000612671602983612cfb565b915061267c82613194565b604082019050919050565b6000612694600a83612cfb565b915061269f826131e3565b602082019050919050565b60006126b7600f83612cfb565b91506126c28261320c565b602082019050919050565b60006126da602083612cfb565b91506126e582613235565b602082019050919050565b60006126fd602c83612cfb565b91506127088261325e565b604082019050919050565b6000612720601683612cfb565b915061272b826132ad565b602082019050919050565b6000612743602983612cfb565b915061274e826132d6565b604082019050919050565b6000612766602f83612cfb565b915061277182613325565b604082019050919050565b6000612789601583612cfb565b915061279482613374565b602082019050919050565b60006127ac602183612cfb565b91506127b78261339d565b604082019050919050565b60006127cf603183612cfb565b91506127da826133ec565b604082019050919050565b60006127f2601683612cfb565b91506127fd8261343b565b602082019050919050565b6000612815601483612cfb565b915061282082613464565b602082019050919050565b61283481612e0b565b82525050565b61284b61284682612e0b565b612ec7565b82525050565b61286261285d82612e15565b612ed1565b82525050565b600061287582848661243e565b91508190509392505050565b600061288d828461249c565b915081905092915050565b60006128a4828561249c565b91506128b082846124cd565b91508190509392505050565b60006128c88285612851565b6001820191506128d8828461283a565b6020820191508190509392505050565b60006020820190506128fd60008301846123e7565b92915050565b600060808201905061291860008301876123e7565b61292560208301866123e7565b612932604083018561282b565b81810360608301526129448184612405565b905095945050505050565b600060208201905061296460008301846123f6565b92915050565b600060208201905081810360008301526129848184612405565b905092915050565b600060208201905081810360008301526129a68184612463565b905092915050565b600060208201905081810360008301526129c78161254c565b9050919050565b600060208201905081810360008301526129e78161256f565b9050919050565b60006020820190508181036000830152612a0781612592565b9050919050565b60006020820190508181036000830152612a27816125b5565b9050919050565b60006020820190508181036000830152612a47816125d8565b9050919050565b60006020820190508181036000830152612a67816125fb565b9050919050565b60006020820190508181036000830152612a878161261e565b9050919050565b60006020820190508181036000830152612aa781612641565b9050919050565b60006020820190508181036000830152612ac781612664565b9050919050565b60006020820190508181036000830152612ae781612687565b9050919050565b60006020820190508181036000830152612b07816126aa565b9050919050565b60006020820190508181036000830152612b27816126cd565b9050919050565b60006020820190508181036000830152612b47816126f0565b9050919050565b60006020820190508181036000830152612b6781612713565b9050919050565b60006020820190508181036000830152612b8781612736565b9050919050565b60006020820190508181036000830152612ba781612759565b9050919050565b60006020820190508181036000830152612bc78161277c565b9050919050565b60006020820190508181036000830152612be78161279f565b9050919050565b60006020820190508181036000830152612c07816127c2565b9050919050565b60006020820190508181036000830152612c27816127e5565b9050919050565b60006020820190508181036000830152612c4781612808565b9050919050565b6000602082019050612c63600083018461282b565b92915050565b6000612c73612c84565b9050612c7f8282612e96565b919050565b6000604051905090565b600067ffffffffffffffff821115612ca957612ca8612f41565b5b612cb282612f70565b9050602081019050919050565b60008190508160005260206000209050919050565b600081519050919050565b600081519050919050565b600082825260208201905092915050565b600082825260208201905092915050565b600081905092915050565b6000612d2282612e0b565b9150612d2d83612e0b565b9250827fffffffffffffffffffffffffffffffffffffffffffffffffffffffffffffffff03821115612d6257612d61612ee3565b5b828201905092915050565b6000612d7882612e0b565b9150612d8383612e0b565b925082821015612d9657612d95612ee3565b5b828203905092915050565b6000612dac82612deb565b9050919050565b60008115159050919050565b60007fffffffff0000000000000000000000000000000000000000000000000000000082169050919050565b600073ffffffffffffffffffffffffffffffffffffffff82169050919050565b6000819050919050565b600060ff82169050919050565b82818337600083830152505050565b60005b83811015612e4f578082015181840152602081019050612e34565b83811115612e5e576000848401525b50505050565b60006002820490506001821680612e7c57607f821691505b60208210811415612e9057612e8f612f12565b5b50919050565b612e9f82612f70565b810181811067ffffffffffffffff82111715612ebe57612ebd612f41565b5b80604052505050565b6000819050919050565b6000612edc82612f81565b9050919050565b7f4e487b7100000000000000000000000000000000000000000000000000000000600052601160045260246000fd5b7f4e487b7100000000000000000000000000000000000000000000000000000000600052602260045260246000fd5b7f4e487b7100000000000000000000000000000000000000000000000000000000600052604160045260246000fd5b6000601f19601f8301169050919050565b60008160f81b9050919050565b7f4552433732313a207472616e7366657220746f206e6f6e20455243373231526560008201527f63656976657220696d706c656d656e7465720000000000000000000000000000602082015250565b7f4552433732313a20746f6b656e20616c7265616479206d696e74656400000000600082015250565b7f4e46545f434f554e545f4d41585f455843454544454400000000000000000000600082015250565b7f4552433732313a207472616e7366657220746f20746865207a65726f2061646460008201527f7265737300000000000000000000000000000000000000000000000000000000602082015250565b7f4552433732313a20617070726f766520746f2063616c6c657200000000000000600082015250565b7f4552433732313a206f70657261746f7220717565727920666f72206e6f6e657860008201527f697374656e7420746f6b656e0000000000000000000000000000000000000000602082015250565b7f4552433732313a20617070726f76652063616c6c6572206973206e6f74206f7760008201527f6e6572206e6f7220617070726f76656420666f7220616c6c0000000000000000602082015250565b7f4552433732313a2062616c616e636520717565727920666f7220746865207a6560008201527f726f206164647265737300000000000000000000000000000000000000000000602082015250565b7f4552433732313a206f776e657220717565727920666f72206e6f6e657869737460008201527f656e7420746f6b656e0000000000000000000000000000000000000000000000602082015250565b7f5552495f45584953545300000000000000000000000000000000000000000000600082015250565b7f544f4b454e5f4e4f545f45584953540000000000000000000000000000000000600082015250565b7f4552433732313a206d696e7420746f20746865207a65726f2061646472657373600082015250565b7f4552433732313a20617070726f76656420717565727920666f72206e6f6e657860008201527f697374656e7420746f6b656e0000000000000000000000000000000000000000602082015250565b7f544f4b454e5f4e4f545f5452414e5346455241424c4500000000000000000000600082015250565b7f4552433732313a207472616e73666572206f6620746f6b656e2074686174206960008201527f73206e6f74206f776e0000000000000000000000000000000000000000000000602082015250565b7f4552433732314d657461646174613a2055524920717565727920666f72206e6f60008201527f6e6578697374656e7420746f6b656e0000000000000000000000000000000000602082015250565b7f4558504952595f444154455f4e4f545f56414c49440000000000000000000000600082015250565b7f4552433732313a20617070726f76616c20746f2063757272656e74206f776e6560008201527f7200000000000000000000000000000000000000000000000000000000000000602082015250565b7f4552433732313a207472616e736665722063616c6c6572206973206e6f74206f60008201527f776e6572206e6f7220617070726f766564000000000000000000000000000000602082015250565b7f4c4943454e53455f4d5553545f42455f4f5f4f525f3100000000000000000000600082015250565b7f544f4b454e5f49445f4e4f545f45584953544544000000000000000000000000600082015250565b61349681612da1565b81146134a157600080fd5b50565b6134ad81612db3565b81146134b857600080fd5b50565b6134c481612dbf565b81146134cf57600080fd5b50565b6134db81612e0b565b81146134e657600080fd5b50565b6134f281612e15565b81146134fd57600080fd5b5056fea2646970667358221220e4efd7196065d40e4c193427248543d858737c14bdf33c858c5e5c3c450b765764736f6c63430008040033",
  "immutableReferences": {},
  "source": "// SPDX-License-Identifier: UNLICENSED\n\npragma solidity 0.8.4;\n\nimport \"./lib/token/ERC721/ERC721.sol\";\nimport \"./lib/access/AccessControl.sol\";\nimport \"./ITaureumKYC.sol\";\nimport \"./lib/utils/Counters.sol\";\n\ncontract TaureumNFT is ERC721 {\n    using Counters for Counters.Counter;\n    /**\n     * @dev A counter to track tokenId.\n     */\n    Counters.Counter private _tokenIds;\n\n    /**\n     * @dev The contract address for the KYC entry.\n     */\n    address _KYCAddress;\n\n    /**\n     * @dev Mapping from NFT ID to metadata uri.\n     */\n    mapping(uint256 => string) internal idToUri;\n\n    /**\n     * @dev Mapping from NFT ID to its first owner.\n     */\n    mapping(uint256 => address) internal idToFirstOwner;\n\n    /**\n     * @dev Mapping from NFT URI to its existence.\n     */\n    mapping(string => bool) internal uriExists;\n\n    /**\n     * @dev Mapping from NFT ID to the NFT property (encode the tokenData struct).\n     *  - 1st byte determines the license type: 0 => personal license, 1 => full license).\n     *  - Next 32 bytes determine the expiry date (expiry block number): MaxUint => no expiry date.\n     *\n     * TODO: consider adding the URI to this mapping.\n     */\n    mapping(uint256 => bytes) internal idToProperty;\n\n    /**\n   * @dev Guarantee that _to is able to receive more NFTs.\n   * @param _to Owner address to validate.\n   */\n    modifier canReceiveNFT(\n        address _to\n    )\n    {\n        uint256 balance = balanceOf(_to);\n        bool isVerifiedUser = ITaureumKYC(_KYCAddress).isVerifiedUser(_to);\n\n        require(isVerifiedUser || balance < 10, \"NFT_COUNT_MAX_EXCEEDED\");\n        _;\n    }\n\n    /**\n     * @dev Guarantee the _uri does not exist.\n     * @param _uri The IPFS URI of the NFT.\n     */\n    modifier notExists(\n        string memory _uri\n    )\n    {\n        require(!uriExists[_uri], \"URI_EXISTS\");\n        _;\n    }\n\n    /**\n     * @dev Guarantee the _tokenId is not expired and transferable.\n     * @param _tokenId The NFT token ID to validate.\n     */\n    modifier transferable(\n        uint256 _tokenId\n    ) {\n        require(_isTransferable(_tokenId), \"TOKEN_NOT_TRANSFERABLE\");\n        _;\n    }\n\n    /**\n     * @dev Emitted when `tokenId` token is minted for `to`.\n     */\n    event Mint(address indexed to, uint256 indexed tokenId, string uri, uint expiryDate);\n\n    /**\n     * @dev Create a new TaureumNFT contract and assign the KYCAddress to _KYCAddress.\n     *\n     * TODO: change the default name and symbol.\n     */\n    constructor(address KYCAddress) ERC721(\"Taureum NFT\", \"Taureum\") {\n        _KYCAddress = KYCAddress;\n    }\n\n    /**\n     * @dev See {IERC165-supportsInterface}.\n     */\n    function supportsInterface(bytes4 interfaceId) public view virtual override returns (bool) {\n        return\n        interfaceId == type(IERC721).interfaceId ||\n        interfaceId == type(IERC721Metadata).interfaceId ||\n        super.supportsInterface(interfaceId);\n    }\n\n    /**\n      * @dev Mint a new NFT.\n      * It throws an exception if\n      *    - uri does not exist.\n      *    - to cannot receive NFTs.\n      * @param to The address that will own the minted NFT.\n      * @param uri The URI consists of metadata description of the minting NFT on the IPFS (without prefix).\n      * @param license The license of the minting NFT (0 - personally-licensed or 1 - fully-licensed).\n      * @param expiryDate The block number at which the minting NFT is expired.\n      */\n    function mint(\n        address to,\n        string calldata uri,\n        uint8 license,\n        uint expiryDate\n    )\n    public\n    notExists(uri)\n    canReceiveNFT(to)\n    {\n        require(license < 2, \"LICENSE_MUST_BE_O_OR_1\");\n        require(expiryDate > block.number, \"EXPIRY_DATE_NOT_VALID\");\n        _tokenIds.increment();\n\n        uint256 id = _tokenIds.current();\n        super._mint(to, id);\n        _setTokenUri(id, uri);\n        uriExists[uri] = true;\n        idToFirstOwner[id] = to;\n        idToProperty[id] = abi.encodePacked(license, expiryDate);\n    }\n\n    /**\n     * @dev See {IERC721Metadata-tokenURI}.\n     */\n    function tokenURI(uint256 tokenId) public view override returns (string memory) {\n        require(_exists(tokenId), \"ERC721Metadata: URI query for nonexistent token\");\n\n        string memory baseURI = _baseURI();\n        return bytes(baseURI).length > 0 ? string(abi.encodePacked(baseURI, idToUri[tokenId])) : idToUri[tokenId];\n    }\n\n    /**\n     * @dev Return the properties of an NFT token.\n     * @notice It throws if the tokenId does not exist.\n     * @param _tokenId The NFT tokenID to check.\n     */\n    function getTokenData(uint256 _tokenId) public view returns(bytes memory tokenData) {\n        tokenData = idToProperty[_tokenId];\n        require(tokenData.length == 33, \"TOKEN_NOT_EXIST\");\n        return tokenData;\n    }\n\n    /**\n     * @dev See {IERC721-transferFrom}.\n     * @notice It throws an exception if\n     *      - the tokenId is not transferable.\n     *      - the receiver `to` cannot receive more TaureumNFTs.\n     */\n    function transferFrom(\n        address from,\n        address to,\n        uint256 tokenId\n    ) public override transferable(tokenId) canReceiveNFT(to) {\n        //solhint-disable-next-line max-line-length\n        require(_isApprovedOrOwner(_msgSender(), tokenId), \"ERC721: transfer caller is not owner nor approved\");\n\n        _transfer(from, to, tokenId);\n    }\n\n    /**\n     * @dev See {IERC721-safeTransferFrom}.\n     * @notice It throws an exception if\n     *      - the tokenId is not transferable.\n     *      - the receiver `to` cannot receive more TaureumNFTs.\n     */\n    function safeTransferFrom(\n        address from,\n        address to,\n        uint256 tokenId,\n        bytes memory _data\n    ) public override transferable(tokenId) canReceiveNFT(to) {\n        require(_isApprovedOrOwner(_msgSender(), tokenId), \"ERC721: transfer caller is not owner nor approved\");\n        _safeTransfer(from, to, tokenId, _data);\n    }\n\n    /**\n     * @dev Check if an NFT token is transferable.\n     * @param _tokenId The NFT tokenID to check.\n     */\n    function _isTransferable(uint256 _tokenId) internal view returns (bool) {\n        address firstOwner = idToFirstOwner[_tokenId];\n        bytes memory tokenData = getTokenData(_tokenId);\n\n        uint8 licenseType = uint8(tokenData[0]);\n        if (licenseType != 1 && msg.sender != firstOwner) {\n            return false;\n        }\n\n        uint expiryDate;\n        assembly {\n            tokenData := add(tokenData, 1)\n            expiryDate := mload(add(tokenData, 0x20)) // tokenData[1:33]\n        }\n        return block.number < expiryDate;\n    }\n\n    /**\n     * @dev Base URI for computing {tokenURI}. If set, the resulting URI for each\n     * token will be the concatenation of the `baseURI` and the `tokenId`.\n     */\n    function _baseURI() internal pure override returns (string memory) {\n        return \"ipfs://\";\n    }\n\n    /**\n     * @dev Set a distinct URI (RFC 3986) for a given NFT ID.\n     * @notice This is an internal function which should be called from user-implemented external\n     * function.\n     * @notice It throws an exception if the _tokenId does not exist.\n     * @param _tokenId Id for which we want URI.\n     * @param _uri String representing RFC 3986 URI.\n     */\n    function _setTokenUri(\n        uint256 _tokenId,\n        string calldata _uri\n    )\n    internal\n    {\n        require(_exists(_tokenId), \"TOKEN_ID_NOT_EXISTED\");\n        idToUri[_tokenId] = _uri;\n    }\n\n}\n",
  "sourcePath": "/home/toor/nodejs/truffle/nft_demo/taudefi/taudefi-nft/contracts/TaureumNFT.sol",
  "compiler": {
    "name": "solc",
    "version": "0.8.4+commit.c7e474f2.Emscripten.clang"
  },
  "schemaVersion": "3.4.1",
  "updatedAt": "2021-07-11T02:17:28.045Z",
  "devdoc": {
    "events": {
      "Mint(address,uint256,string,uint256)": {
        "details": "Emitted when `tokenId` token is minted for `to`."
      }
    },
    "kind": "dev",
    "methods": {
      "approve(address,uint256)": {
        "details": "See {IERC721-approve}."
      },
      "balanceOf(address)": {
        "details": "See {IERC721-balanceOf}."
      },
      "constructor": {
        "details": "Create a new TaureumNFT contract and assign the KYCAddress to _KYCAddress. TODO: change the default name and symbol."
      },
      "getApproved(uint256)": {
        "details": "See {IERC721-getApproved}."
      },
      "getTokenData(uint256)": {
        "details": "Return the properties of an NFT token.",
        "params": {
          "_tokenId": "The NFT tokenID to check."
        }
      },
      "isApprovedForAll(address,address)": {
        "details": "See {IERC721-isApprovedForAll}."
      },
      "mint(address,string,uint8,uint256)": {
        "details": "Mint a new NFT. It throws an exception if    - uri does not exist.    - to cannot receive NFTs.",
        "params": {
          "expiryDate": "The block number at which the minting NFT is expired.",
          "license": "The license of the minting NFT (0 - personally-licensed or 1 - fully-licensed).",
          "to": "The address that will own the minted NFT.",
          "uri": "The URI consists of metadata description of the minting NFT on the IPFS (without prefix)."
        }
      },
      "name()": {
        "details": "See {IERC721Metadata-name}."
      },
      "ownerOf(uint256)": {
        "details": "See {IERC721-ownerOf}."
      },
      "safeTransferFrom(address,address,uint256)": {
        "details": "See {IERC721-safeTransferFrom}."
      },
      "safeTransferFrom(address,address,uint256,bytes)": {
        "details": "See {IERC721-safeTransferFrom}."
      },
      "setApprovalForAll(address,bool)": {
        "details": "See {IERC721-setApprovalForAll}."
      },
      "supportsInterface(bytes4)": {
        "details": "See {IERC165-supportsInterface}."
      },
      "symbol()": {
        "details": "See {IERC721Metadata-symbol}."
      },
      "tokenURI(uint256)": {
        "details": "See {IERC721Metadata-tokenURI}."
      },
      "transferFrom(address,address,uint256)": {
        "details": "See {IERC721-transferFrom}."
      }
    },
    "stateVariables": {
      "_KYCAddress": {
        "details": "The contract address for the KYC entry."
      },
      "_tokenIds": {
        "details": "A counter to track tokenId."
      },
      "idToFirstOwner": {
        "details": "Mapping from NFT ID to its first owner."
      },
      "idToProperty": {
        "details": "Mapping from NFT ID to the NFT property (encode the tokenData struct).  - 1st byte determines the license type: 0 => personal license, 1 => full license).  - Next 32 bytes determine the expiry date (expiry block number): MaxUint => no expiry date. TODO: consider adding the URI to this mapping."
      },
      "idToUri": {
        "details": "Mapping from NFT ID to metadata uri."
      },
      "uriExists": {
        "details": "Mapping from NFT URI to its existence."
      }
    },
    "version": 1
  },
  "userdoc": {
    "kind": "user",
    "methods": {
      "getTokenData(uint256)": {
        "notice": "It throws if the tokenId does not exist."
      },
      "safeTransferFrom(address,address,uint256,bytes)": {
        "notice": "It throws an exception if      - the tokenId is not transferable.      - the receiver `to` cannot receive more TaureumNFTs."
      },
      "transferFrom(address,address,uint256)": {
        "notice": "It throws an exception if      - the tokenId is not transferable.      - the receiver `to` cannot receive more TaureumNFTs."
      }
    },
    "version": 1
  }
}