{
  "contractName": "TaureumERC1155",
  "abi": [
    {
      "inputs": [
        {
          "internalType": "string",
          "name": "baseURI_",
          "type": "string"
        }
      ],
      "stateMutability": "nonpayable",
      "type": "constructor"
    },
    {
      "anonymous": false,
      "inputs": [
        {
          "indexed": true,
          "internalType": "address",
          "name": "account",
          "type": "address"
        },
        {
          "indexed": true,
          "internalType": "address",
          "name": "operator",
          "type": "address"
        },
        {
          "indexed": false,
          "internalType": "bool",
          "name": "approved",
          "type": "bool"
        }
      ],
      "name": "ApprovalForAll",
      "type": "event"
    },
    {
      "anonymous": false,
      "inputs": [
        {
          "indexed": true,
          "internalType": "address",
          "name": "previousOwner",
          "type": "address"
        },
        {
          "indexed": true,
          "internalType": "address",
          "name": "newOwner",
          "type": "address"
        }
      ],
      "name": "OwnershipTransferred",
      "type": "event"
    },
    {
      "anonymous": false,
      "inputs": [
        {
          "indexed": true,
          "internalType": "address",
          "name": "operator",
          "type": "address"
        },
        {
          "indexed": true,
          "internalType": "address",
          "name": "from",
          "type": "address"
        },
        {
          "indexed": true,
          "internalType": "address",
          "name": "to",
          "type": "address"
        },
        {
          "indexed": false,
          "internalType": "uint256[]",
          "name": "ids",
          "type": "uint256[]"
        },
        {
          "indexed": false,
          "internalType": "uint256[]",
          "name": "values",
          "type": "uint256[]"
        }
      ],
      "name": "TransferBatch",
      "type": "event"
    },
    {
      "anonymous": false,
      "inputs": [
        {
          "indexed": true,
          "internalType": "address",
          "name": "operator",
          "type": "address"
        },
        {
          "indexed": true,
          "internalType": "address",
          "name": "from",
          "type": "address"
        },
        {
          "indexed": true,
          "internalType": "address",
          "name": "to",
          "type": "address"
        },
        {
          "indexed": false,
          "internalType": "uint256",
          "name": "id",
          "type": "uint256"
        },
        {
          "indexed": false,
          "internalType": "uint256",
          "name": "value",
          "type": "uint256"
        }
      ],
      "name": "TransferSingle",
      "type": "event"
    },
    {
      "anonymous": false,
      "inputs": [
        {
          "indexed": false,
          "internalType": "string",
          "name": "value",
          "type": "string"
        },
        {
          "indexed": true,
          "internalType": "uint256",
          "name": "id",
          "type": "uint256"
        }
      ],
      "name": "URI",
      "type": "event"
    },
    {
      "inputs": [
        {
          "internalType": "address",
          "name": "account",
          "type": "address"
        },
        {
          "internalType": "uint256",
          "name": "id",
          "type": "uint256"
        }
      ],
      "name": "balanceOf",
      "outputs": [
        {
          "internalType": "uint256",
          "name": "",
          "type": "uint256"
        }
      ],
      "stateMutability": "view",
      "type": "function"
    },
    {
      "inputs": [
        {
          "internalType": "address[]",
          "name": "accounts",
          "type": "address[]"
        },
        {
          "internalType": "uint256[]",
          "name": "ids",
          "type": "uint256[]"
        }
      ],
      "name": "balanceOfBatch",
      "outputs": [
        {
          "internalType": "uint256[]",
          "name": "",
          "type": "uint256[]"
        }
      ],
      "stateMutability": "view",
      "type": "function"
    },
    {
      "inputs": [
        {
          "internalType": "address",
          "name": "account",
          "type": "address"
        },
        {
          "internalType": "address",
          "name": "operator",
          "type": "address"
        }
      ],
      "name": "isApprovedForAll",
      "outputs": [
        {
          "internalType": "bool",
          "name": "",
          "type": "bool"
        }
      ],
      "stateMutability": "view",
      "type": "function"
    },
    {
      "inputs": [],
      "name": "owner",
      "outputs": [
        {
          "internalType": "address",
          "name": "",
          "type": "address"
        }
      ],
      "stateMutability": "view",
      "type": "function"
    },
    {
      "inputs": [],
      "name": "renounceOwnership",
      "outputs": [],
      "stateMutability": "nonpayable",
      "type": "function"
    },
    {
      "inputs": [
        {
          "internalType": "address",
          "name": "from",
          "type": "address"
        },
        {
          "internalType": "address",
          "name": "to",
          "type": "address"
        },
        {
          "internalType": "uint256[]",
          "name": "ids",
          "type": "uint256[]"
        },
        {
          "internalType": "uint256[]",
          "name": "amounts",
          "type": "uint256[]"
        },
        {
          "internalType": "bytes",
          "name": "data",
          "type": "bytes"
        }
      ],
      "name": "safeBatchTransferFrom",
      "outputs": [],
      "stateMutability": "nonpayable",
      "type": "function"
    },
    {
      "inputs": [
        {
          "internalType": "address",
          "name": "from",
          "type": "address"
        },
        {
          "internalType": "address",
          "name": "to",
          "type": "address"
        },
        {
          "internalType": "uint256",
          "name": "id",
          "type": "uint256"
        },
        {
          "internalType": "uint256",
          "name": "amount",
          "type": "uint256"
        },
        {
          "internalType": "bytes",
          "name": "data",
          "type": "bytes"
        }
      ],
      "name": "safeTransferFrom",
      "outputs": [],
      "stateMutability": "nonpayable",
      "type": "function"
    },
    {
      "inputs": [
        {
          "internalType": "address",
          "name": "operator",
          "type": "address"
        },
        {
          "internalType": "bool",
          "name": "approved",
          "type": "bool"
        }
      ],
      "name": "setApprovalForAll",
      "outputs": [],
      "stateMutability": "nonpayable",
      "type": "function"
    },
    {
      "inputs": [
        {
          "internalType": "bytes4",
          "name": "interfaceId",
          "type": "bytes4"
        }
      ],
      "name": "supportsInterface",
      "outputs": [
        {
          "internalType": "bool",
          "name": "",
          "type": "bool"
        }
      ],
      "stateMutability": "view",
      "type": "function"
    },
    {
      "inputs": [
        {
          "internalType": "address",
          "name": "newOwner",
          "type": "address"
        }
      ],
      "name": "transferOwnership",
      "outputs": [],
      "stateMutability": "nonpayable",
      "type": "function"
    },
    {
      "inputs": [
        {
          "internalType": "uint256",
          "name": "",
          "type": "uint256"
        }
      ],
      "name": "uri",
      "outputs": [
        {
          "internalType": "string",
          "name": "",
          "type": "string"
        }
      ],
      "stateMutability": "view",
      "type": "function"
    },
    {
      "inputs": [
        {
          "internalType": "uint256",
          "name": "id",
          "type": "uint256"
        }
      ],
      "name": "totalSupply",
      "outputs": [
        {
          "internalType": "uint256",
          "name": "",
          "type": "uint256"
        }
      ],
      "stateMutability": "view",
      "type": "function"
    },
    {
      "inputs": [
        {
          "internalType": "uint256",
          "name": "_id",
          "type": "uint256"
        }
      ],
      "name": "exists",
      "outputs": [
        {
          "internalType": "bool",
          "name": "",
          "type": "bool"
        }
      ],
      "stateMutability": "view",
      "type": "function"
    },
    {
      "inputs": [
        {
          "internalType": "address",
          "name": "to",
          "type": "address"
        },
        {
          "internalType": "string",
          "name": "uri",
          "type": "string"
        },
        {
          "internalType": "uint256",
          "name": "supply",
          "type": "uint256"
        },
        {
          "internalType": "bytes",
          "name": "data",
          "type": "bytes"
        }
      ],
      "name": "mint",
      "outputs": [
        {
          "internalType": "uint256",
          "name": "",
          "type": "uint256"
        }
      ],
      "stateMutability": "nonpayable",
      "type": "function"
    },
    {
      "inputs": [
        {
          "internalType": "address",
          "name": "to",
          "type": "address"
        },
        {
          "internalType": "string[]",
          "name": "uriList",
          "type": "string[]"
        },
        {
          "internalType": "uint256[]",
          "name": "supplies",
          "type": "uint256[]"
        },
        {
          "internalType": "bytes",
          "name": "data",
          "type": "bytes"
        }
      ],
      "name": "mintBatch",
      "outputs": [
        {
          "internalType": "uint256[]",
          "name": "",
          "type": "uint256[]"
        }
      ],
      "stateMutability": "nonpayable",
      "type": "function"
    },
    {
      "inputs": [
        {
          "internalType": "string",
          "name": "newURI",
          "type": "string"
        }
      ],
      "name": "setURI",
      "outputs": [],
      "stateMutability": "nonpayable",
      "type": "function"
    },
    {
      "inputs": [
        {
          "internalType": "uint256",
          "name": "tokenId",
          "type": "uint256"
        }
      ],
      "name": "tokenURI",
      "outputs": [
        {
          "internalType": "string",
          "name": "",
          "type": "string"
        }
      ],
      "stateMutability": "view",
      "type": "function"
    }
  ],
  "bytecode": "0x60806040523480156200001157600080fd5b50604051620042c3380380620042c3833981810160405281019062000037919062000248565b8062000049816200010260201b60201c565b5060006200005c6200011e60201b60201c565b905080600360006101000a81548173ffffffffffffffffffffffffffffffffffffffff021916908373ffffffffffffffffffffffffffffffffffffffff1602179055508073ffffffffffffffffffffffffffffffffffffffff16600073ffffffffffffffffffffffffffffffffffffffff167f8be0079c531659141344cd1fd0a4f28419497f9722a3daafe3b4186f6b6457e060405160405180910390a35050620003fd565b80600290805190602001906200011a92919062000126565b5050565b600033905090565b828054620001349062000322565b90600052602060002090601f016020900481019282620001585760008555620001a4565b82601f106200017357805160ff1916838001178555620001a4565b82800160010185558215620001a4579182015b82811115620001a357825182559160200191906001019062000186565b5b509050620001b39190620001b7565b5090565b5b80821115620001d2576000816000905550600101620001b8565b5090565b6000620001ed620001e784620002b6565b6200028d565b9050828152602081018484840111156200020657600080fd5b62000213848285620002ec565b509392505050565b600082601f8301126200022d57600080fd5b81516200023f848260208601620001d6565b91505092915050565b6000602082840312156200025b57600080fd5b600082015167ffffffffffffffff8111156200027657600080fd5b62000284848285016200021b565b91505092915050565b600062000299620002ac565b9050620002a7828262000358565b919050565b6000604051905090565b600067ffffffffffffffff821115620002d457620002d3620003bd565b5b620002df82620003ec565b9050602081019050919050565b60005b838110156200030c578082015181840152602081019050620002ef565b838111156200031c576000848401525b50505050565b600060028204905060018216806200033b57607f821691505b602082108114156200035257620003516200038e565b5b50919050565b6200036382620003ec565b810181811067ffffffffffffffff82111715620003855762000384620003bd565b5b80604052505050565b7f4e487b7100000000000000000000000000000000000000000000000000000000600052602260045260246000fd5b7f4e487b7100000000000000000000000000000000000000000000000000000000600052604160045260246000fd5b6000601f19601f8301169050919050565b613eb6806200040d6000396000f3fe608060405234801561001057600080fd5b506004361061010a5760003560e01c80635523c250116100a2578063bd85b03911610071578063bd85b039146102db578063c87b56dd1461030b578063e985e9c51461033b578063f242432a1461036b578063f2fde38b146103875761010a565b80635523c25014610267578063715018a6146102975780638da5cb5b146102a1578063a22cb465146102bf5761010a565b80632eb2c2d6116100de5780632eb2c2d6146101bb578063428a328b146101d75780634e1273f4146102075780634f558e79146102375761010a565b8062fdd58e1461010f57806301ffc9a71461013f57806302fe53051461016f5780630e89341c1461018b575b600080fd5b61012960048036038101906101249190612b34565b6103a3565b604051610136919061344f565b60405180910390f35b61015960048036038101906101549190612bdc565b61046c565b6040516101669190613232565b60405180910390f35b61018960048036038101906101849190612c2e565b61054e565b005b6101a560048036038101906101a09190612c6f565b6105d6565b6040516101b2919061324d565b60405180910390f35b6101d560048036038101906101d0919061285f565b61066a565b005b6101f160048036038101906101ec91906129ad565b610a60565b6040516101fe91906131d9565b60405180910390f35b610221600480360381019061021c9190612b70565b610d0b565b60405161022e91906131d9565b60405180910390f35b610251600480360381019061024c9190612c6f565b610ebc565b60405161025e9190613232565b60405180910390f35b610281600480360381019061027c9190612a9c565b610edb565b60405161028e919061344f565b60405180910390f35b61029f610f32565b005b6102a961106f565b6040516102b691906130ca565b60405180910390f35b6102d960048036038101906102d49190612a60565b611099565b005b6102f560048036038101906102f09190612c6f565b61121a565b604051610302919061344f565b60405180910390f35b61032560048036038101906103209190612c6f565b611237565b604051610332919061324d565b60405180910390f35b61035560048036038101906103509190612823565b611375565b6040516103629190613232565b60405180910390f35b6103856004803603810190610380919061291e565b611409565b005b6103a1600480360381019061039c91906127fa565b611721565b005b60008073ffffffffffffffffffffffffffffffffffffffff168373ffffffffffffffffffffffffffffffffffffffff161415610414576040517f08c379a000000000000000000000000000000000000000000000000000000000815260040161040b906132cf565b60405180910390fd5b60008083815260200190815260200160002060008473ffffffffffffffffffffffffffffffffffffffff1673ffffffffffffffffffffffffffffffffffffffff16815260200190815260200160002054905092915050565b60007fd9b67a26000000000000000000000000000000000000000000000000000000007bffffffffffffffffffffffffffffffffffffffffffffffffffffffff1916827bffffffffffffffffffffffffffffffffffffffffffffffffffffffff1916148061053757507f0e89341c000000000000000000000000000000000000000000000000000000007bffffffffffffffffffffffffffffffffffffffffffffffffffffffff1916827bffffffffffffffffffffffffffffffffffffffffffffffffffffffff1916145b806105475750610546826118cd565b5b9050919050565b610556611937565b73ffffffffffffffffffffffffffffffffffffffff1661057461106f565b73ffffffffffffffffffffffffffffffffffffffff16146105ca576040517f08c379a00000000000000000000000000000000000000000000000000000000081526004016105c1906133af565b60405180910390fd5b6105d38161193f565b50565b6060600280546105e59061379a565b80601f01602080910402602001604051908101604052809291908181526020018280546106119061379a565b801561065e5780601f106106335761010080835404028352916020019161065e565b820191906000526020600020905b81548152906001019060200180831161064157829003601f168201915b50505050509050919050565b81518351146106ae576040517f08c379a00000000000000000000000000000000000000000000000000000000081526004016106a59061340f565b60405180910390fd5b600073ffffffffffffffffffffffffffffffffffffffff168473ffffffffffffffffffffffffffffffffffffffff16141561071e576040517f08c379a00000000000000000000000000000000000000000000000000000000081526004016107159061332f565b60405180910390fd5b610726611937565b73ffffffffffffffffffffffffffffffffffffffff168573ffffffffffffffffffffffffffffffffffffffff16148061076c575061076b85610766611937565b611375565b5b6107ab576040517f08c379a00000000000000000000000000000000000000000000000000000000081526004016107a29061334f565b60405180910390fd5b60006107b5611937565b90506107c5818787878787611959565b60005b84518110156109cb57600085828151811061080c577f4e487b7100000000000000000000000000000000000000000000000000000000600052603260045260246000fd5b602002602001015190506000858381518110610851577f4e487b7100000000000000000000000000000000000000000000000000000000600052603260045260246000fd5b60200260200101519050600080600084815260200190815260200160002060008b73ffffffffffffffffffffffffffffffffffffffff1673ffffffffffffffffffffffffffffffffffffffff168152602001908152602001600020549050818110156108f2576040517f08c379a00000000000000000000000000000000000000000000000000000000081526004016108e99061338f565b60405180910390fd5b81816108fe91906136b0565b60008085815260200190815260200160002060008c73ffffffffffffffffffffffffffffffffffffffff1673ffffffffffffffffffffffffffffffffffffffff168152602001908152602001600020819055508160008085815260200190815260200160002060008b73ffffffffffffffffffffffffffffffffffffffff1673ffffffffffffffffffffffffffffffffffffffff16815260200190815260200160002060008282546109b0919061365a565b92505081905550505050806109c4906137fd565b90506107c8565b508473ffffffffffffffffffffffffffffffffffffffff168673ffffffffffffffffffffffffffffffffffffffff168273ffffffffffffffffffffffffffffffffffffffff167f4a39dc06d4c0dbc64b70af90fd698a233a518aa5d07e595d983b8c0526c8f7fb8787604051610a429291906131fb565b60405180910390a4610a58818787878787611961565b505050505050565b6060838390508686905014610aaa576040517f08c379a0000000000000000000000000000000000000000000000000000000008152600401610aa1906132af565b60405180910390fd5b60008686905067ffffffffffffffff811115610aef577f4e487b7100000000000000000000000000000000000000000000000000000000600052604160045260246000fd5b604051908082528060200260200182016040528015610b1d5781602001602082028036833780820191505090505b50905060005b87879050811015610bfb5788888883818110610b68577f4e487b7100000000000000000000000000000000000000000000000000000000600052603260045260246000fd5b9050602002810190610b7a9190613493565b604051602001610b8c939291906131a7565b6040516020818303038152906040528051906020012060001c828281518110610bde577f4e487b7100000000000000000000000000000000000000000000000000000000600052603260045260246000fd5b60200260200101818152505080610bf4906137fd565b9050610b23565b50610c498882878780806020026020016040519081016040528093929190818152602001838360200280828437600081840152601f19601f8201169050808301925050505050505086611b48565b60005b87879050811015610cfc57610ceb828281518110610c93577f4e487b7100000000000000000000000000000000000000000000000000000000600052603260045260246000fd5b6020026020010151898984818110610cd4577f4e487b7100000000000000000000000000000000000000000000000000000000600052603260045260246000fd5b9050602002810190610ce69190613493565b611c22565b80610cf5906137fd565b9050610c4c565b50809150509695505050505050565b60608151835114610d51576040517f08c379a0000000000000000000000000000000000000000000000000000000008152600401610d48906133ef565b60405180910390fd5b6000835167ffffffffffffffff811115610d94577f4e487b7100000000000000000000000000000000000000000000000000000000600052604160045260246000fd5b604051908082528060200260200182016040528015610dc25781602001602082028036833780820191505090505b50905060005b8451811015610eb157610e5b858281518110610e0d577f4e487b7100000000000000000000000000000000000000000000000000000000600052603260045260246000fd5b6020026020010151858381518110610e4e577f4e487b7100000000000000000000000000000000000000000000000000000000600052603260045260246000fd5b60200260200101516103a3565b828281518110610e94577f4e487b7100000000000000000000000000000000000000000000000000000000600052603260045260246000fd5b60200260200101818152505080610eaa906137fd565b9050610dc8565b508091505092915050565b6000806004600084815260200190815260200160002054119050919050565b600080868686604051602001610ef3939291906131a7565b6040516020818303038152906040528051906020012060001c9050610f1a87828686611c92565b610f25818787611c22565b8091505095945050505050565b610f3a611937565b73ffffffffffffffffffffffffffffffffffffffff16610f5861106f565b73ffffffffffffffffffffffffffffffffffffffff1614610fae576040517f08c379a0000000000000000000000000000000000000000000000000000000008152600401610fa5906133af565b60405180910390fd5b600073ffffffffffffffffffffffffffffffffffffffff16600360009054906101000a900473ffffffffffffffffffffffffffffffffffffffff1673ffffffffffffffffffffffffffffffffffffffff167f8be0079c531659141344cd1fd0a4f28419497f9722a3daafe3b4186f6b6457e060405160405180910390a36000600360006101000a81548173ffffffffffffffffffffffffffffffffffffffff021916908373ffffffffffffffffffffffffffffffffffffffff160217905550565b6000600360009054906101000a900473ffffffffffffffffffffffffffffffffffffffff16905090565b8173ffffffffffffffffffffffffffffffffffffffff166110b8611937565b73ffffffffffffffffffffffffffffffffffffffff16141561110f576040517f08c379a0000000000000000000000000000000000000000000000000000000008152600401611106906133cf565b60405180910390fd5b806001600061111c611937565b73ffffffffffffffffffffffffffffffffffffffff1673ffffffffffffffffffffffffffffffffffffffff16815260200190815260200160002060008473ffffffffffffffffffffffffffffffffffffffff1673ffffffffffffffffffffffffffffffffffffffff16815260200190815260200160002060006101000a81548160ff0219169083151502179055508173ffffffffffffffffffffffffffffffffffffffff166111c9611937565b73ffffffffffffffffffffffffffffffffffffffff167f17307eab39ab6107e8899845ad3d59bd9653f200f220920489ca2b5937696c318360405161120e9190613232565b60405180910390a35050565b600060046000838152602001908152602001600020549050919050565b606061124282610ebc565b611281576040517f08c379a00000000000000000000000000000000000000000000000000000000081526004016112789061336f565b60405180910390fd5b600061128c836105d6565b90506000815111611338576005600084815260200190815260200160002080546112b59061379a565b80601f01602080910402602001604051908101604052809291908181526020018280546112e19061379a565b801561132e5780601f106113035761010080835404028352916020019161132e565b820191906000526020600020905b81548152906001019060200180831161131157829003601f168201915b505050505061136d565b806005600085815260200190815260200160002060405160200161135d9291906130a6565b6040516020818303038152906040525b915050919050565b6000600160008473ffffffffffffffffffffffffffffffffffffffff1673ffffffffffffffffffffffffffffffffffffffff16815260200190815260200160002060008373ffffffffffffffffffffffffffffffffffffffff1673ffffffffffffffffffffffffffffffffffffffff16815260200190815260200160002060009054906101000a900460ff16905092915050565b600073ffffffffffffffffffffffffffffffffffffffff168473ffffffffffffffffffffffffffffffffffffffff161415611479576040517f08c379a00000000000000000000000000000000000000000000000000000000081526004016114709061332f565b60405180910390fd5b611481611937565b73ffffffffffffffffffffffffffffffffffffffff168573ffffffffffffffffffffffffffffffffffffffff1614806114c757506114c6856114c1611937565b611375565b5b611506576040517f08c379a00000000000000000000000000000000000000000000000000000000081526004016114fd9061330f565b60405180910390fd5b6000611510611937565b905061153081878761152188611cce565b61152a88611cce565b87611959565b600080600086815260200190815260200160002060008873ffffffffffffffffffffffffffffffffffffffff1673ffffffffffffffffffffffffffffffffffffffff168152602001908152602001600020549050838110156115c7576040517f08c379a00000000000000000000000000000000000000000000000000000000081526004016115be9061338f565b60405180910390fd5b83816115d391906136b0565b60008087815260200190815260200160002060008973ffffffffffffffffffffffffffffffffffffffff1673ffffffffffffffffffffffffffffffffffffffff168152602001908152602001600020819055508360008087815260200190815260200160002060008873ffffffffffffffffffffffffffffffffffffffff1673ffffffffffffffffffffffffffffffffffffffff1681526020019081526020016000206000828254611685919061365a565b925050819055508573ffffffffffffffffffffffffffffffffffffffff168773ffffffffffffffffffffffffffffffffffffffff168373ffffffffffffffffffffffffffffffffffffffff167fc3d58168c5ae7397731d063d5bbf3d657854427343f4c083240f7aacaa2d0f62888860405161170292919061346a565b60405180910390a4611718828888888888611d94565b50505050505050565b611729611937565b73ffffffffffffffffffffffffffffffffffffffff1661174761106f565b73ffffffffffffffffffffffffffffffffffffffff161461179d576040517f08c379a0000000000000000000000000000000000000000000000000000000008152600401611794906133af565b60405180910390fd5b600073ffffffffffffffffffffffffffffffffffffffff168173ffffffffffffffffffffffffffffffffffffffff16141561180d576040517f08c379a0000000000000000000000000000000000000000000000000000000008152600401611804906132ef565b60405180910390fd5b8073ffffffffffffffffffffffffffffffffffffffff16600360009054906101000a900473ffffffffffffffffffffffffffffffffffffffff1673ffffffffffffffffffffffffffffffffffffffff167f8be0079c531659141344cd1fd0a4f28419497f9722a3daafe3b4186f6b6457e060405160405180910390a380600360006101000a81548173ffffffffffffffffffffffffffffffffffffffff021916908373ffffffffffffffffffffffffffffffffffffffff16021790555050565b60007f01ffc9a7000000000000000000000000000000000000000000000000000000007bffffffffffffffffffffffffffffffffffffffffffffffffffffffff1916827bffffffffffffffffffffffffffffffffffffffffffffffffffffffff1916149050919050565b600033905090565b806002908051906020019061195592919061238e565b5050565b505050505050565b6119808473ffffffffffffffffffffffffffffffffffffffff16611f7b565b15611b40578373ffffffffffffffffffffffffffffffffffffffff1663bc197c8187878686866040518663ffffffff1660e01b81526004016119c69594939291906130e5565b602060405180830381600087803b1580156119e057600080fd5b505af1925050508015611a1157506040513d601f19601f82011682018060405250810190611a0e9190612c05565b60015b611ab757611a1d6138d3565b806308c379a01415611a7a5750611a32613d8e565b80611a3d5750611a7c565b806040517f08c379a0000000000000000000000000000000000000000000000000000000008152600401611a71919061324d565b60405180910390fd5b505b6040517f08c379a0000000000000000000000000000000000000000000000000000000008152600401611aae9061326f565b60405180910390fd5b63bc197c8160e01b7bffffffffffffffffffffffffffffffffffffffffffffffffffffffff1916817bffffffffffffffffffffffffffffffffffffffffffffffffffffffff191614611b3e576040517f08c379a0000000000000000000000000000000000000000000000000000000008152600401611b359061328f565b60405180910390fd5b505b505050505050565b611b5484848484611f8e565b60005b8351811015611c1b57828181518110611b99577f4e487b7100000000000000000000000000000000000000000000000000000000600052603260045260246000fd5b602002602001015160046000868481518110611bde577f4e487b7100000000000000000000000000000000000000000000000000000000600052603260045260246000fd5b602002602001015181526020019081526020016000206000828254611c03919061365a565b9250508190555080611c14906137fd565b9050611b57565b5050505050565b611c2b83610ebc565b611c6a576040517f08c379a0000000000000000000000000000000000000000000000000000000008152600401611c619061336f565b60405180910390fd5b8181600560008681526020019081526020016000209190611c8c929190612414565b50505050565b611c9e848484846121f8565b81600460008581526020019081526020016000206000828254611cc1919061365a565b9250508190555050505050565b60606000600167ffffffffffffffff811115611d13577f4e487b7100000000000000000000000000000000000000000000000000000000600052604160045260246000fd5b604051908082528060200260200182016040528015611d415781602001602082028036833780820191505090505b5090508281600081518110611d7f577f4e487b7100000000000000000000000000000000000000000000000000000000600052603260045260246000fd5b60200260200101818152505080915050919050565b611db38473ffffffffffffffffffffffffffffffffffffffff16611f7b565b15611f73578373ffffffffffffffffffffffffffffffffffffffff1663f23a6e6187878686866040518663ffffffff1660e01b8152600401611df995949392919061314d565b602060405180830381600087803b158015611e1357600080fd5b505af1925050508015611e4457506040513d601f19601f82011682018060405250810190611e419190612c05565b60015b611eea57611e506138d3565b806308c379a01415611ead5750611e65613d8e565b80611e705750611eaf565b806040517f08c379a0000000000000000000000000000000000000000000000000000000008152600401611ea4919061324d565b60405180910390fd5b505b6040517f08c379a0000000000000000000000000000000000000000000000000000000008152600401611ee19061326f565b60405180910390fd5b63f23a6e6160e01b7bffffffffffffffffffffffffffffffffffffffffffffffffffffffff1916817bffffffffffffffffffffffffffffffffffffffffffffffffffffffff191614611f71576040517f08c379a0000000000000000000000000000000000000000000000000000000008152600401611f689061328f565b60405180910390fd5b505b505050505050565b600080823b905060008111915050919050565b600073ffffffffffffffffffffffffffffffffffffffff168473ffffffffffffffffffffffffffffffffffffffff161415611ffe576040517f08c379a0000000000000000000000000000000000000000000000000000000008152600401611ff59061342f565b60405180910390fd5b8151835114612042576040517f08c379a00000000000000000000000000000000000000000000000000000000081526004016120399061340f565b60405180910390fd5b600061204c611937565b905061205d81600087878787611959565b60005b8451811015612162578381815181106120a2577f4e487b7100000000000000000000000000000000000000000000000000000000600052603260045260246000fd5b60200260200101516000808784815181106120e6577f4e487b7100000000000000000000000000000000000000000000000000000000600052603260045260246000fd5b6020026020010151815260200190815260200160002060008873ffffffffffffffffffffffffffffffffffffffff1673ffffffffffffffffffffffffffffffffffffffff1681526020019081526020016000206000828254612148919061365a565b92505081905550808061215a906137fd565b915050612060565b508473ffffffffffffffffffffffffffffffffffffffff16600073ffffffffffffffffffffffffffffffffffffffff168273ffffffffffffffffffffffffffffffffffffffff167f4a39dc06d4c0dbc64b70af90fd698a233a518aa5d07e595d983b8c0526c8f7fb87876040516121da9291906131fb565b60405180910390a46121f181600087878787611961565b5050505050565b600073ffffffffffffffffffffffffffffffffffffffff168473ffffffffffffffffffffffffffffffffffffffff161415612268576040517f08c379a000000000000000000000000000000000000000000000000000000000815260040161225f9061342f565b60405180910390fd5b6000612272611937565b90506122938160008761228488611cce565b61228d88611cce565b87611959565b8260008086815260200190815260200160002060008773ffffffffffffffffffffffffffffffffffffffff1673ffffffffffffffffffffffffffffffffffffffff16815260200190815260200160002060008282546122f2919061365a565b925050819055508473ffffffffffffffffffffffffffffffffffffffff16600073ffffffffffffffffffffffffffffffffffffffff168273ffffffffffffffffffffffffffffffffffffffff167fc3d58168c5ae7397731d063d5bbf3d657854427343f4c083240f7aacaa2d0f62878760405161237092919061346a565b60405180910390a461238781600087878787611d94565b5050505050565b82805461239a9061379a565b90600052602060002090601f0160209004810192826123bc5760008555612403565b82601f106123d557805160ff1916838001178555612403565b82800160010185558215612403579182015b828111156124025782518255916020019190600101906123e7565b5b509050612410919061249a565b5090565b8280546124209061379a565b90600052602060002090601f0160209004810192826124425760008555612489565b82601f1061245b57803560ff1916838001178555612489565b82800160010185558215612489579182015b8281111561248857823582559160200191906001019061246d565b5b509050612496919061249a565b5090565b5b808211156124b357600081600090555060010161249b565b5090565b60006124ca6124c58461350f565b6134ea565b905080838252602082019050828560208602820111156124e957600080fd5b60005b8581101561251957816124ff888261260b565b8452602084019350602083019250506001810190506124ec565b5050509392505050565b60006125366125318461353b565b6134ea565b9050808382526020820190508285602086028201111561255557600080fd5b60005b85811015612585578161256b88826127e5565b845260208401935060208301925050600181019050612558565b5050509392505050565b60006125a261259d84613567565b6134ea565b9050828152602081018484840111156125ba57600080fd5b6125c5848285613758565b509392505050565b60006125e06125db84613598565b6134ea565b9050828152602081018484840111156125f857600080fd5b612603848285613758565b509392505050565b60008135905061261a81613e24565b92915050565b600082601f83011261263157600080fd5b81356126418482602086016124b7565b91505092915050565b60008083601f84011261265c57600080fd5b8235905067ffffffffffffffff81111561267557600080fd5b60208301915083602082028301111561268d57600080fd5b9250929050565b60008083601f8401126126a657600080fd5b8235905067ffffffffffffffff8111156126bf57600080fd5b6020830191508360208202830111156126d757600080fd5b9250929050565b600082601f8301126126ef57600080fd5b81356126ff848260208601612523565b91505092915050565b60008135905061271781613e3b565b92915050565b60008135905061272c81613e52565b92915050565b60008151905061274181613e52565b92915050565b600082601f83011261275857600080fd5b813561276884826020860161258f565b91505092915050565b60008083601f84011261278357600080fd5b8235905067ffffffffffffffff81111561279c57600080fd5b6020830191508360018202830111156127b457600080fd5b9250929050565b600082601f8301126127cc57600080fd5b81356127dc8482602086016125cd565b91505092915050565b6000813590506127f481613e69565b92915050565b60006020828403121561280c57600080fd5b600061281a8482850161260b565b91505092915050565b6000806040838503121561283657600080fd5b60006128448582860161260b565b92505060206128558582860161260b565b9150509250929050565b600080600080600060a0868803121561287757600080fd5b60006128858882890161260b565b95505060206128968882890161260b565b945050604086013567ffffffffffffffff8111156128b357600080fd5b6128bf888289016126de565b935050606086013567ffffffffffffffff8111156128dc57600080fd5b6128e8888289016126de565b925050608086013567ffffffffffffffff81111561290557600080fd5b61291188828901612747565b9150509295509295909350565b600080600080600060a0868803121561293657600080fd5b60006129448882890161260b565b95505060206129558882890161260b565b9450506040612966888289016127e5565b9350506060612977888289016127e5565b925050608086013567ffffffffffffffff81111561299457600080fd5b6129a088828901612747565b9150509295509295909350565b600080600080600080608087890312156129c657600080fd5b60006129d489828a0161260b565b965050602087013567ffffffffffffffff8111156129f157600080fd5b6129fd89828a0161264a565b9550955050604087013567ffffffffffffffff811115612a1c57600080fd5b612a2889828a01612694565b9350935050606087013567ffffffffffffffff811115612a4757600080fd5b612a5389828a01612747565b9150509295509295509295565b60008060408385031215612a7357600080fd5b6000612a818582860161260b565b9250506020612a9285828601612708565b9150509250929050565b600080600080600060808688031215612ab457600080fd5b6000612ac28882890161260b565b955050602086013567ffffffffffffffff811115612adf57600080fd5b612aeb88828901612771565b94509450506040612afe888289016127e5565b925050606086013567ffffffffffffffff811115612b1b57600080fd5b612b2788828901612747565b9150509295509295909350565b60008060408385031215612b4757600080fd5b6000612b558582860161260b565b9250506020612b66858286016127e5565b9150509250929050565b60008060408385031215612b8357600080fd5b600083013567ffffffffffffffff811115612b9d57600080fd5b612ba985828601612620565b925050602083013567ffffffffffffffff811115612bc657600080fd5b612bd2858286016126de565b9150509250929050565b600060208284031215612bee57600080fd5b6000612bfc8482850161271d565b91505092915050565b600060208284031215612c1757600080fd5b6000612c2584828501612732565b91505092915050565b600060208284031215612c4057600080fd5b600082013567ffffffffffffffff811115612c5a57600080fd5b612c66848285016127bb565b91505092915050565b600060208284031215612c8157600080fd5b6000612c8f848285016127e5565b91505092915050565b6000612ca48383613088565b60208301905092915050565b612cb9816136e4565b82525050565b6000612cca826135ee565b612cd4818561361c565b9350612cdf836135c9565b8060005b83811015612d10578151612cf78882612c98565b9750612d028361360f565b925050600181019050612ce3565b5085935050505092915050565b612d26816136f6565b82525050565b6000612d37826135f9565b612d41818561362d565b9350612d51818560208601613767565b612d5a816138f5565b840191505092915050565b6000612d71838561363e565b9350612d7e838584613758565b612d87836138f5565b840190509392505050565b6000612d9d82613604565b612da7818561363e565b9350612db7818560208601613767565b612dc0816138f5565b840191505092915050565b6000612dd682613604565b612de0818561364f565b9350612df0818560208601613767565b80840191505092915050565b60008154612e098161379a565b612e13818661364f565b94506001821660008114612e2e5760018114612e3f57612e72565b60ff19831686528186019350612e72565b612e48856135d9565b60005b83811015612e6a57815481890152600182019150602081019050612e4b565b838801955050505b50505092915050565b6000612e8860348361363e565b9150612e9382613913565b604082019050919050565b6000612eab60288361363e565b9150612eb682613962565b604082019050919050565b6000612ece60238361363e565b9150612ed9826139b1565b604082019050919050565b6000612ef1602b8361363e565b9150612efc82613a00565b604082019050919050565b6000612f1460268361363e565b9150612f1f82613a4f565b604082019050919050565b6000612f3760298361363e565b9150612f4282613a9e565b604082019050919050565b6000612f5a60258361363e565b9150612f6582613aed565b604082019050919050565b6000612f7d60328361363e565b9150612f8882613b3c565b604082019050919050565b6000612fa060288361363e565b9150612fab82613b8b565b604082019050919050565b6000612fc3602a8361363e565b9150612fce82613bda565b604082019050919050565b6000612fe660208361363e565b9150612ff182613c29565b602082019050919050565b600061300960298361363e565b915061301482613c52565b604082019050919050565b600061302c60298361363e565b915061303782613ca1565b604082019050919050565b600061304f60288361363e565b915061305a82613cf0565b604082019050919050565b600061307260218361363e565b915061307d82613d3f565b604082019050919050565b6130918161374e565b82525050565b6130a08161374e565b82525050565b60006130b28285612dcb565b91506130be8284612dfc565b91508190509392505050565b60006020820190506130df6000830184612cb0565b92915050565b600060a0820190506130fa6000830188612cb0565b6131076020830187612cb0565b81810360408301526131198186612cbf565b9050818103606083015261312d8185612cbf565b905081810360808301526131418184612d2c565b90509695505050505050565b600060a0820190506131626000830188612cb0565b61316f6020830187612cb0565b61317c6040830186613097565b6131896060830185613097565b818103608083015261319b8184612d2c565b90509695505050505050565b60006040820190506131bc6000830186612cb0565b81810360208301526131cf818486612d65565b9050949350505050565b600060208201905081810360008301526131f38184612cbf565b905092915050565b600060408201905081810360008301526132158185612cbf565b905081810360208301526132298184612cbf565b90509392505050565b60006020820190506132476000830184612d1d565b92915050565b600060208201905081810360008301526132678184612d92565b905092915050565b6000602082019050818103600083015261328881612e7b565b9050919050565b600060208201905081810360008301526132a881612e9e565b9050919050565b600060208201905081810360008301526132c881612ec1565b9050919050565b600060208201905081810360008301526132e881612ee4565b9050919050565b6000602082019050818103600083015261330881612f07565b9050919050565b6000602082019050818103600083015261332881612f2a565b9050919050565b6000602082019050818103600083015261334881612f4d565b9050919050565b6000602082019050818103600083015261336881612f70565b9050919050565b6000602082019050818103600083015261338881612f93565b9050919050565b600060208201905081810360008301526133a881612fb6565b9050919050565b600060208201905081810360008301526133c881612fd9565b9050919050565b600060208201905081810360008301526133e881612ffc565b9050919050565b600060208201905081810360008301526134088161301f565b9050919050565b6000602082019050818103600083015261342881613042565b9050919050565b6000602082019050818103600083015261344881613065565b9050919050565b60006020820190506134646000830184613097565b92915050565b600060408201905061347f6000830185613097565b61348c6020830184613097565b9392505050565b600080833560016020038436030381126134ac57600080fd5b80840192508235915067ffffffffffffffff8211156134ca57600080fd5b6020830192506001820236038313156134e257600080fd5b509250929050565b60006134f4613505565b905061350082826137cc565b919050565b6000604051905090565b600067ffffffffffffffff82111561352a576135296138a4565b5b602082029050602081019050919050565b600067ffffffffffffffff821115613556576135556138a4565b5b602082029050602081019050919050565b600067ffffffffffffffff821115613582576135816138a4565b5b61358b826138f5565b9050602081019050919050565b600067ffffffffffffffff8211156135b3576135b26138a4565b5b6135bc826138f5565b9050602081019050919050565b6000819050602082019050919050565b60008190508160005260206000209050919050565b600081519050919050565b600081519050919050565b600081519050919050565b6000602082019050919050565b600082825260208201905092915050565b600082825260208201905092915050565b600082825260208201905092915050565b600081905092915050565b60006136658261374e565b91506136708361374e565b9250827fffffffffffffffffffffffffffffffffffffffffffffffffffffffffffffffff038211156136a5576136a4613846565b5b828201905092915050565b60006136bb8261374e565b91506136c68361374e565b9250828210156136d9576136d8613846565b5b828203905092915050565b60006136ef8261372e565b9050919050565b60008115159050919050565b60007fffffffff0000000000000000000000000000000000000000000000000000000082169050919050565b600073ffffffffffffffffffffffffffffffffffffffff82169050919050565b6000819050919050565b82818337600083830152505050565b60005b8381101561378557808201518184015260208101905061376a565b83811115613794576000848401525b50505050565b600060028204905060018216806137b257607f821691505b602082108114156137c6576137c5613875565b5b50919050565b6137d5826138f5565b810181811067ffffffffffffffff821117156137f4576137f36138a4565b5b80604052505050565b60006138088261374e565b91507fffffffffffffffffffffffffffffffffffffffffffffffffffffffffffffffff82141561383b5761383a613846565b5b600182019050919050565b7f4e487b7100000000000000000000000000000000000000000000000000000000600052601160045260246000fd5b7f4e487b7100000000000000000000000000000000000000000000000000000000600052602260045260246000fd5b7f4e487b7100000000000000000000000000000000000000000000000000000000600052604160045260246000fd5b600060033d11156138f25760046000803e6138ef600051613906565b90505b90565b6000601f19601f8301169050919050565b60008160e01c9050919050565b7f455243313135353a207472616e7366657220746f206e6f6e204552433131353560008201527f526563656976657220696d706c656d656e746572000000000000000000000000602082015250565b7f455243313135353a204552433131353552656365697665722072656a6563746560008201527f6420746f6b656e73000000000000000000000000000000000000000000000000602082015250565b7f455243313135353a206d696e744261746368206c656e67746873206d69736d6160008201527f7463680000000000000000000000000000000000000000000000000000000000602082015250565b7f455243313135353a2062616c616e636520717565727920666f7220746865207a60008201527f65726f2061646472657373000000000000000000000000000000000000000000602082015250565b7f4f776e61626c653a206e6577206f776e657220697320746865207a65726f206160008201527f6464726573730000000000000000000000000000000000000000000000000000602082015250565b7f455243313135353a2063616c6c6572206973206e6f74206f776e6572206e6f7260008201527f20617070726f7665640000000000000000000000000000000000000000000000602082015250565b7f455243313135353a207472616e7366657220746f20746865207a65726f20616460008201527f6472657373000000000000000000000000000000000000000000000000000000602082015250565b7f455243313135353a207472616e736665722063616c6c6572206973206e6f742060008201527f6f776e6572206e6f7220617070726f7665640000000000000000000000000000602082015250565b7f455243313135353a2055524920717565727920666f72206e6f6e65786973746560008201527f6e7420746f6b656e000000000000000000000000000000000000000000000000602082015250565b7f455243313135353a20696e73756666696369656e742062616c616e636520666f60008201527f72207472616e7366657200000000000000000000000000000000000000000000602082015250565b7f4f776e61626c653a2063616c6c6572206973206e6f7420746865206f776e6572600082015250565b7f455243313135353a2073657474696e6720617070726f76616c2073746174757360008201527f20666f722073656c660000000000000000000000000000000000000000000000602082015250565b7f455243313135353a206163636f756e747320616e6420696473206c656e67746860008201527f206d69736d617463680000000000000000000000000000000000000000000000602082015250565b7f455243313135353a2069647320616e6420616d6f756e7473206c656e6774682060008201527f6d69736d61746368000000000000000000000000000000000000000000000000602082015250565b7f455243313135353a206d696e7420746f20746865207a65726f2061646472657360008201527f7300000000000000000000000000000000000000000000000000000000000000602082015250565b600060443d1015613d9e57613e21565b613da6613505565b60043d036004823e80513d602482011167ffffffffffffffff82111715613dce575050613e21565b808201805167ffffffffffffffff811115613dec5750505050613e21565b80602083010160043d038501811115613e09575050505050613e21565b613e18826020018501866137cc565b82955050505050505b90565b613e2d816136e4565b8114613e3857600080fd5b50565b613e44816136f6565b8114613e4f57600080fd5b50565b613e5b81613702565b8114613e6657600080fd5b50565b613e728161374e565b8114613e7d57600080fd5b5056fea26469706673582212202aecc3c9305758cbc9126abd1e3a0f6d07d2b4d643342bc2a182ba7ad1f2c37364736f6c63430008040033",
  "immutableReferences": {},
  "source": "// SPDX-License-Identifier: UNLICENSED\n\npragma solidity 0.8.4;\n\nimport \"../../lib/token/ERC1155/ERC1155.sol\";\nimport \"../../lib/token/ERC1155/extensions/ERC1155Supply.sol\";\nimport \"../../lib/access/Ownable.sol\";\n\ncontract TaureumERC1155 is ERC1155, Ownable {\n    /**\n     * @dev Mapping from token IDs to their total supplies.\n     */\n    mapping(uint256 => uint256) internal _totalSupply;\n\n    /**\n     * @dev Mapping from NFT ID to metadata uri.\n     */\n    mapping(uint256 => string) internal _idToUri;\n\n    /**\n     * @dev Create a new TaureumERC1155 contract and set the `_uri` value.\n     *\n     */\n    constructor(string memory baseURI_) ERC1155(baseURI_) Ownable() {\n    }\n\n    /**\n     * @dev Total amount of tokens in with a given id.\n     */\n    function totalSupply(uint256 id) public view virtual returns (uint256) {\n        return _totalSupply[id];\n    }\n\n    /**\n     * @dev Return the indicator whether a token exists given its id.\n     */\n    function exists(uint256 _id) public view virtual returns (bool) {\n        return _totalSupply[_id] > 0;\n    }\n\n    /**\n     * @dev Mint a new ERC1155 token. A token can only be minted once.\n     */\n    function mint(\n        address to,\n        string calldata uri,\n        uint256 supply,\n        bytes memory data\n    ) external virtual returns (uint256){\n        uint256 id = uint256(keccak256(abi.encode(to, uri)));\n\n        _mint(to, id, supply, data);\n        _setTokenUri(id, uri);\n\n        return id;\n    }\n\n    /**\n     * @dev Mint a batch of tokens.\n     */\n    function mintBatch(\n        address to,\n        string[] calldata uriList,\n        uint256[] calldata supplies,\n        bytes memory data\n    ) external virtual returns (uint256[] memory) {\n        require(uriList.length == supplies.length, \"ERC1155: mintBatch lengths mismatch\");\n\n        uint256[] memory ids = new uint256[](uriList.length);\n        for (uint256 i = 0; i < uriList.length; ++i) {\n            ids[i] = uint256(keccak256(abi.encode(to, uriList[i])));\n        }\n\n        _mintBatch(to, ids, supplies, data);\n        for (uint256 i = 0; i < uriList.length; ++i) {\n            _setTokenUri(ids[i], uriList[i]);\n        }\n\n        return ids;\n    }\n\n    /**\n     * @dev Sets a new URI for all token types, by relying on the token type ID\n     * substitution mechanism\n     * https://eips.ethereum.org/EIPS/eip-1155#metadata[defined in the EIP].\n     *\n     * By this mechanism, any occurrence of the `\\{id\\}` substring in either the\n     * URI or any of the amounts in the JSON file at said URI will be replaced by\n     * clients with the token type ID.\n     *\n     * For example, the `https://token-cdn-domain/\\{id\\}.json` URI would be\n     * interpreted by clients as\n     * `https://token-cdn-domain/000000000000000000000000000000000000000000000000000000000004cce0.json`\n     * for token type ID 0x4cce0.\n     *\n     * See {uri}.\n     *\n     * Because these URIs cannot be meaningfully represented by the {URI} event,\n     * this function emits no events.\n     */\n    function setURI(string memory newURI) public onlyOwner {\n        _setURI(newURI);\n    }\n\n    /**\n     * @dev Return the URI of a tokenId.\n     */\n    function tokenURI(uint256 tokenId) public view virtual returns (string memory) {\n        require(exists(tokenId), \"ERC1155: URI query for nonexistent token\");\n\n        string memory baseURI = uri(tokenId);\n\n        return bytes(baseURI).length > 0 ? string(abi.encodePacked(baseURI, _idToUri[tokenId])) : _idToUri[tokenId];\n    }\n\n    /**\n     * @dev Set a distinct URI (RFC 3986) for a given NFT ID.\n     * @notice This is an internal function which should be called from user-implemented external\n     * function.\n     * @notice It throws an exception if the _tokenId does not exist.\n     * @param tokenId_ Id for which we want URI.\n     * @param uri_ String representing RFC 3986 URI.\n     */\n    function _setTokenUri(\n        uint256 tokenId_,\n        string calldata uri_\n    )\n    internal\n    {\n        require(exists(tokenId_), \"ERC1155: URI query for nonexistent token\");\n        _idToUri[tokenId_] = uri_;\n    }\n\n    /**\n     * @dev See {ERC1155-_mint}.\n     */\n    function _mint(\n        address account,\n        uint256 id,\n        uint256 amount,\n        bytes memory data\n    ) internal virtual override {\n        super._mint(account, id, amount, data);\n        _totalSupply[id] += amount;\n    }\n\n    /**\n     * @dev See {ERC1155-_mintBatch}.\n     */\n    function _mintBatch(\n        address to,\n        uint256[] memory ids,\n        uint256[] memory amounts,\n        bytes memory data\n    ) internal virtual override {\n        super._mintBatch(to, ids, amounts, data);\n        for (uint256 i = 0; i < ids.length; ++i) {\n            _totalSupply[ids[i]] += amounts[i];\n        }\n    }\n\n    /**\n     * @dev See {ERC1155-_burn}.\n     */\n    function _burn(\n        address account,\n        uint256 id,\n        uint256 amount\n    ) internal virtual override {\n        super._burn(account, id, amount);\n        _totalSupply[id] -= amount;\n    }\n\n    /**\n     * @dev See {ERC1155-_burnBatch}.\n     */\n    function _burnBatch(\n        address account,\n        uint256[] memory ids,\n        uint256[] memory amounts\n    ) internal virtual override {\n        super._burnBatch(account, ids, amounts);\n        for (uint256 i = 0; i < ids.length; ++i) {\n            _totalSupply[ids[i]] -= amounts[i];\n        }\n    }\n\n}\n",
  "sourcePath": "/home/toor/nodejs/truffle/nft_demo/taudefi/taudefi-nft/contracts/tokens/ERC1155/TaureumERC1155.sol",
  "compiler": {
    "name": "solc",
    "version": "0.8.4+commit.c7e474f2.Emscripten.clang"
  },
  "schemaVersion": "3.4.1",
  "updatedAt": "2021-08-07T09:49:08.770Z",
  "devdoc": {
    "kind": "dev",
    "methods": {
      "balanceOf(address,uint256)": {
        "details": "See {IERC1155-balanceOf}. Requirements: - `account` cannot be the zero address."
      },
      "balanceOfBatch(address[],uint256[])": {
        "details": "See {IERC1155-balanceOfBatch}. Requirements: - `accounts` and `ids` must have the same length."
      },
      "constructor": {
        "details": "Create a new TaureumERC1155 contract and set the `_uri` value."
      },
      "exists(uint256)": {
        "details": "Return the indicator whether a token exists given its id."
      },
      "isApprovedForAll(address,address)": {
        "details": "See {IERC1155-isApprovedForAll}."
      },
      "mint(address,string,uint256,bytes)": {
        "details": "Mint a new ERC1155 token. A token can only be minted once."
      },
      "mintBatch(address,string[],uint256[],bytes)": {
        "details": "Mint a batch of tokens."
      },
      "owner()": {
        "details": "Returns the address of the current owner."
      },
      "renounceOwnership()": {
        "details": "Leaves the contract without owner. It will not be possible to call `onlyOwner` functions anymore. Can only be called by the current owner. NOTE: Renouncing ownership will leave the contract without an owner, thereby removing any functionality that is only available to the owner."
      },
      "safeBatchTransferFrom(address,address,uint256[],uint256[],bytes)": {
        "details": "See {IERC1155-safeBatchTransferFrom}."
      },
      "safeTransferFrom(address,address,uint256,uint256,bytes)": {
        "details": "See {IERC1155-safeTransferFrom}."
      },
      "setApprovalForAll(address,bool)": {
        "details": "See {IERC1155-setApprovalForAll}."
      },
      "setURI(string)": {
        "details": "Sets a new URI for all token types, by relying on the token type ID substitution mechanism https://eips.ethereum.org/EIPS/eip-1155#metadata[defined in the EIP]. By this mechanism, any occurrence of the `\\{id\\}` substring in either the URI or any of the amounts in the JSON file at said URI will be replaced by clients with the token type ID. For example, the `https://token-cdn-domain/\\{id\\}.json` URI would be interpreted by clients as `https://token-cdn-domain/000000000000000000000000000000000000000000000000000000000004cce0.json` for token type ID 0x4cce0. See {uri}. Because these URIs cannot be meaningfully represented by the {URI} event, this function emits no events."
      },
      "supportsInterface(bytes4)": {
        "details": "See {IERC165-supportsInterface}."
      },
      "tokenURI(uint256)": {
        "details": "Return the URI of a tokenId."
      },
      "totalSupply(uint256)": {
        "details": "Total amount of tokens in with a given id."
      },
      "transferOwnership(address)": {
        "details": "Transfers ownership of the contract to a new account (`newOwner`). Can only be called by the current owner."
      },
      "uri(uint256)": {
        "details": "See {IERC1155MetadataURI-uri}. This implementation returns the same URI for *all* token types. It relies on the token type ID substitution mechanism https://eips.ethereum.org/EIPS/eip-1155#metadata[defined in the EIP]. Clients calling this function must replace the `\\{id\\}` substring with the actual token type ID."
      }
    },
    "stateVariables": {
      "_idToUri": {
        "details": "Mapping from NFT ID to metadata uri."
      },
      "_totalSupply": {
        "details": "Mapping from token IDs to their total supplies."
      }
    },
    "version": 1
  },
  "userdoc": {
    "kind": "user",
    "methods": {},
    "version": 1
  }
}