{
  "contractName": "TaureumERC1155LazyMint",
  "abi": [
    {
      "inputs": [
        {
          "internalType": "string",
          "name": "uri_",
          "type": "string"
        }
      ],
      "stateMutability": "nonpayable",
      "type": "constructor"
    },
    {
      "anonymous": false,
      "inputs": [
        {
          "indexed": true,
          "internalType": "address",
          "name": "account",
          "type": "address"
        },
        {
          "indexed": true,
          "internalType": "address",
          "name": "operator",
          "type": "address"
        },
        {
          "indexed": false,
          "internalType": "bool",
          "name": "approved",
          "type": "bool"
        }
      ],
      "name": "ApprovalForAll",
      "type": "event"
    },
    {
      "anonymous": false,
      "inputs": [
        {
          "indexed": false,
          "internalType": "address",
          "name": "creator",
          "type": "address"
        },
        {
          "indexed": false,
          "internalType": "bytes32",
          "name": "digest",
          "type": "bytes32"
        },
        {
          "indexed": false,
          "internalType": "bytes",
          "name": "signature",
          "type": "bytes"
        },
        {
          "indexed": false,
          "internalType": "bytes32",
          "name": "salt",
          "type": "bytes32"
        }
      ],
      "name": "Logs",
      "type": "event"
    },
    {
      "anonymous": false,
      "inputs": [
        {
          "indexed": true,
          "internalType": "address",
          "name": "previousOwner",
          "type": "address"
        },
        {
          "indexed": true,
          "internalType": "address",
          "name": "newOwner",
          "type": "address"
        }
      ],
      "name": "OwnershipTransferred",
      "type": "event"
    },
    {
      "anonymous": false,
      "inputs": [
        {
          "indexed": false,
          "internalType": "address",
          "name": "account",
          "type": "address"
        }
      ],
      "name": "Paused",
      "type": "event"
    },
    {
      "anonymous": false,
      "inputs": [
        {
          "indexed": true,
          "internalType": "address",
          "name": "operator",
          "type": "address"
        },
        {
          "indexed": true,
          "internalType": "address",
          "name": "from",
          "type": "address"
        },
        {
          "indexed": true,
          "internalType": "address",
          "name": "to",
          "type": "address"
        },
        {
          "indexed": false,
          "internalType": "uint256[]",
          "name": "ids",
          "type": "uint256[]"
        },
        {
          "indexed": false,
          "internalType": "uint256[]",
          "name": "values",
          "type": "uint256[]"
        }
      ],
      "name": "TransferBatch",
      "type": "event"
    },
    {
      "anonymous": false,
      "inputs": [
        {
          "indexed": true,
          "internalType": "address",
          "name": "operator",
          "type": "address"
        },
        {
          "indexed": true,
          "internalType": "address",
          "name": "from",
          "type": "address"
        },
        {
          "indexed": true,
          "internalType": "address",
          "name": "to",
          "type": "address"
        },
        {
          "indexed": false,
          "internalType": "uint256",
          "name": "id",
          "type": "uint256"
        },
        {
          "indexed": false,
          "internalType": "uint256",
          "name": "value",
          "type": "uint256"
        }
      ],
      "name": "TransferSingle",
      "type": "event"
    },
    {
      "anonymous": false,
      "inputs": [
        {
          "indexed": false,
          "internalType": "string",
          "name": "value",
          "type": "string"
        },
        {
          "indexed": true,
          "internalType": "uint256",
          "name": "id",
          "type": "uint256"
        }
      ],
      "name": "URI",
      "type": "event"
    },
    {
      "anonymous": false,
      "inputs": [
        {
          "indexed": false,
          "internalType": "address",
          "name": "account",
          "type": "address"
        }
      ],
      "name": "Unpaused",
      "type": "event"
    },
    {
      "inputs": [
        {
          "internalType": "address",
          "name": "account",
          "type": "address"
        },
        {
          "internalType": "uint256",
          "name": "id",
          "type": "uint256"
        }
      ],
      "name": "balanceOf",
      "outputs": [
        {
          "internalType": "uint256",
          "name": "",
          "type": "uint256"
        }
      ],
      "stateMutability": "view",
      "type": "function"
    },
    {
      "inputs": [
        {
          "internalType": "address[]",
          "name": "accounts",
          "type": "address[]"
        },
        {
          "internalType": "uint256[]",
          "name": "ids",
          "type": "uint256[]"
        }
      ],
      "name": "balanceOfBatch",
      "outputs": [
        {
          "internalType": "uint256[]",
          "name": "",
          "type": "uint256[]"
        }
      ],
      "stateMutability": "view",
      "type": "function"
    },
    {
      "inputs": [
        {
          "internalType": "uint256",
          "name": "_id",
          "type": "uint256"
        }
      ],
      "name": "exists",
      "outputs": [
        {
          "internalType": "bool",
          "name": "",
          "type": "bool"
        }
      ],
      "stateMutability": "view",
      "type": "function"
    },
    {
      "inputs": [
        {
          "internalType": "uint256",
          "name": "_id",
          "type": "uint256"
        }
      ],
      "name": "getCreator",
      "outputs": [
        {
          "internalType": "address",
          "name": "",
          "type": "address"
        }
      ],
      "stateMutability": "view",
      "type": "function"
    },
    {
      "inputs": [
        {
          "internalType": "address",
          "name": "account",
          "type": "address"
        },
        {
          "internalType": "address",
          "name": "operator",
          "type": "address"
        }
      ],
      "name": "isApprovedForAll",
      "outputs": [
        {
          "internalType": "bool",
          "name": "",
          "type": "bool"
        }
      ],
      "stateMutability": "view",
      "type": "function"
    },
    {
      "inputs": [
        {
          "internalType": "address",
          "name": "to",
          "type": "address"
        },
        {
          "internalType": "string",
          "name": "uri_",
          "type": "string"
        },
        {
          "internalType": "uint256",
          "name": "amount",
          "type": "uint256"
        },
        {
          "internalType": "bytes",
          "name": "data",
          "type": "bytes"
        }
      ],
      "name": "mint",
      "outputs": [
        {
          "internalType": "uint256",
          "name": "",
          "type": "uint256"
        }
      ],
      "stateMutability": "nonpayable",
      "type": "function"
    },
    {
      "inputs": [
        {
          "internalType": "address",
          "name": "to",
          "type": "address"
        },
        {
          "internalType": "string[]",
          "name": "uriList",
          "type": "string[]"
        },
        {
          "internalType": "uint256[]",
          "name": "amounts",
          "type": "uint256[]"
        },
        {
          "internalType": "bytes",
          "name": "data",
          "type": "bytes"
        }
      ],
      "name": "mintBatch",
      "outputs": [
        {
          "internalType": "uint256[]",
          "name": "",
          "type": "uint256[]"
        }
      ],
      "stateMutability": "nonpayable",
      "type": "function"
    },
    {
      "inputs": [],
      "name": "owner",
      "outputs": [
        {
          "internalType": "address",
          "name": "",
          "type": "address"
        }
      ],
      "stateMutability": "view",
      "type": "function"
    },
    {
      "inputs": [],
      "name": "pause",
      "outputs": [],
      "stateMutability": "nonpayable",
      "type": "function"
    },
    {
      "inputs": [],
      "name": "paused",
      "outputs": [
        {
          "internalType": "bool",
          "name": "",
          "type": "bool"
        }
      ],
      "stateMutability": "view",
      "type": "function"
    },
    {
      "inputs": [],
      "name": "renounceOwnership",
      "outputs": [],
      "stateMutability": "nonpayable",
      "type": "function"
    },
    {
      "inputs": [
        {
          "internalType": "address",
          "name": "from",
          "type": "address"
        },
        {
          "internalType": "address",
          "name": "to",
          "type": "address"
        },
        {
          "internalType": "uint256[]",
          "name": "ids",
          "type": "uint256[]"
        },
        {
          "internalType": "uint256[]",
          "name": "amounts",
          "type": "uint256[]"
        },
        {
          "internalType": "bytes",
          "name": "data",
          "type": "bytes"
        }
      ],
      "name": "safeBatchTransferFrom",
      "outputs": [],
      "stateMutability": "nonpayable",
      "type": "function"
    },
    {
      "inputs": [
        {
          "internalType": "address",
          "name": "from",
          "type": "address"
        },
        {
          "internalType": "address",
          "name": "to",
          "type": "address"
        },
        {
          "internalType": "uint256",
          "name": "id",
          "type": "uint256"
        },
        {
          "internalType": "uint256",
          "name": "amount",
          "type": "uint256"
        },
        {
          "internalType": "bytes",
          "name": "data",
          "type": "bytes"
        }
      ],
      "name": "safeTransferFrom",
      "outputs": [],
      "stateMutability": "nonpayable",
      "type": "function"
    },
    {
      "inputs": [
        {
          "internalType": "address",
          "name": "operator",
          "type": "address"
        },
        {
          "internalType": "bool",
          "name": "approved",
          "type": "bool"
        }
      ],
      "name": "setApprovalForAll",
      "outputs": [],
      "stateMutability": "nonpayable",
      "type": "function"
    },
    {
      "inputs": [
        {
          "internalType": "string",
          "name": "newURI",
          "type": "string"
        }
      ],
      "name": "setURI",
      "outputs": [],
      "stateMutability": "nonpayable",
      "type": "function"
    },
    {
      "inputs": [
        {
          "internalType": "bytes4",
          "name": "interfaceId",
          "type": "bytes4"
        }
      ],
      "name": "supportsInterface",
      "outputs": [
        {
          "internalType": "bool",
          "name": "",
          "type": "bool"
        }
      ],
      "stateMutability": "view",
      "type": "function"
    },
    {
      "inputs": [
        {
          "internalType": "uint256",
          "name": "id",
          "type": "uint256"
        }
      ],
      "name": "totalSupply",
      "outputs": [
        {
          "internalType": "uint256",
          "name": "",
          "type": "uint256"
        }
      ],
      "stateMutability": "view",
      "type": "function"
    },
    {
      "inputs": [
        {
          "internalType": "address",
          "name": "newOwner",
          "type": "address"
        }
      ],
      "name": "transferOwnership",
      "outputs": [],
      "stateMutability": "nonpayable",
      "type": "function"
    },
    {
      "inputs": [],
      "name": "unPause",
      "outputs": [],
      "stateMutability": "nonpayable",
      "type": "function"
    },
    {
      "inputs": [
        {
          "internalType": "uint256",
          "name": "tokenId",
          "type": "uint256"
        }
      ],
      "name": "uri",
      "outputs": [
        {
          "internalType": "string",
          "name": "",
          "type": "string"
        }
      ],
      "stateMutability": "view",
      "type": "function"
    },
    {
      "inputs": [
        {
          "internalType": "address",
          "name": "redeemer",
          "type": "address"
        },
        {
          "components": [
            {
              "internalType": "string",
              "name": "tokenURI",
              "type": "string"
            },
            {
              "internalType": "uint256",
              "name": "amount",
              "type": "uint256"
            },
            {
              "internalType": "uint256",
              "name": "salt",
              "type": "uint256"
            },
            {
              "internalType": "bytes",
              "name": "signature",
              "type": "bytes"
            }
          ],
          "internalType": "struct TaureumERC1155LazyMint.MintData",
          "name": "mintData",
          "type": "tuple"
        }
      ],
      "name": "redeem",
      "outputs": [
        {
          "internalType": "uint256",
          "name": "",
          "type": "uint256"
        }
      ],
      "stateMutability": "nonpayable",
      "type": "function"
    }
  ],
  "bytecode": "0x6101206040523480156200001257600080fd5b5060405162005cd538038062005cd583398181016040528101906200003891906200038b565b6040518060400160405280600e81526020017f5461757265756d455243313135350000000000000000000000000000000000008152506040518060400160405280600181526020017f31000000000000000000000000000000000000000000000000000000000000008152508280620000b7816200020960201b60201c565b506000620000ca6200022560201b60201c565b905080600360006101000a81548173ffffffffffffffffffffffffffffffffffffffff021916908373ffffffffffffffffffffffffffffffffffffffff1602179055508073ffffffffffffffffffffffffffffffffffffffff16600073ffffffffffffffffffffffffffffffffffffffff167f8be0079c531659141344cd1fd0a4f28419497f9722a3daafe3b4186f6b6457e060405160405180910390a3506000600360146101000a81548160ff0219169083151502179055505060008280519060200120905060008280519060200120905060007f8b73c3c69bb8fe3d512ecc4cf759cc79239f7b179b0ffacaa9a75d522b39400f90508260c081815250508160e081815250504660a08181525050620001ed8184846200022d60201b60201c565b6080818152505080610100818152505050505050505062000618565b80600290805190602001906200022192919062000269565b5050565b600033905090565b600083838346306040516020016200024a95949392919062000403565b6040516020818303038152906040528051906020012090509392505050565b82805462000277906200053d565b90600052602060002090601f0160209004810192826200029b5760008555620002e7565b82601f10620002b657805160ff1916838001178555620002e7565b82800160010185558215620002e7579182015b82811115620002e6578251825591602001919060010190620002c9565b5b509050620002f69190620002fa565b5090565b5b8082111562000315576000816000905550600101620002fb565b5090565b6000620003306200032a8462000489565b62000460565b9050828152602081018484840111156200034957600080fd5b6200035684828562000507565b509392505050565b600082601f8301126200037057600080fd5b81516200038284826020860162000319565b91505092915050565b6000602082840312156200039e57600080fd5b600082015167ffffffffffffffff811115620003b957600080fd5b620003c7848285016200035e565b91505092915050565b620003db81620004bf565b82525050565b620003ec81620004d3565b82525050565b620003fd81620004fd565b82525050565b600060a0820190506200041a6000830188620003e1565b620004296020830187620003e1565b620004386040830186620003e1565b620004476060830185620003f2565b620004566080830184620003d0565b9695505050505050565b60006200046c6200047f565b90506200047a828262000573565b919050565b6000604051905090565b600067ffffffffffffffff821115620004a757620004a6620005d8565b5b620004b28262000607565b9050602081019050919050565b6000620004cc82620004dd565b9050919050565b6000819050919050565b600073ffffffffffffffffffffffffffffffffffffffff82169050919050565b6000819050919050565b60005b83811015620005275780820151818401526020810190506200050a565b8381111562000537576000848401525b50505050565b600060028204905060018216806200055657607f821691505b602082108114156200056d576200056c620005a9565b5b50919050565b6200057e8262000607565b810181811067ffffffffffffffff82111715620005a0576200059f620005d8565b5b80604052505050565b7f4e487b7100000000000000000000000000000000000000000000000000000000600052602260045260246000fd5b7f4e487b7100000000000000000000000000000000000000000000000000000000600052604160045260246000fd5b6000601f19601f8301169050919050565b60805160a05160c05160e051610100516156786200065d6000396000613092015260006130d4015260006130b30152600061303f0152600061306701526156786000f3fe608060405234801561001057600080fd5b50600436106101365760003560e01c8063715018a6116100b8578063bd85b0391161007c578063bd85b0391461035f578063d48e638a1461038f578063e985e9c5146103bf578063f242432a146103ef578063f2fde38b1461040b578063f7b188a51461042757610136565b8063715018a6146102e15780638456cb59146102eb5780638da5cb5b146102f5578063a22cb46514610313578063b6e04e001461032f57610136565b8063428a328b116100ff578063428a328b146102035780634e1273f4146102335780634f558e79146102635780635523c250146102935780635c975abb146102c357610136565b8062fdd58e1461013b57806301ffc9a71461016b57806302fe53051461019b5780630e89341c146101b75780632eb2c2d6146101e7575b600080fd5b61015560048036038101906101509190613b0b565b610431565b604051610162919061490a565b60405180910390f35b61018560048036038101906101809190613bb3565b6104fa565b60405161019291906144b0565b60405180910390f35b6101b560048036038101906101b09190613c05565b6105dc565b005b6101d160048036038101906101cc9190613c46565b6106ac565b6040516101de91906145a8565b60405180910390f35b61020160048036038101906101fc91906137e2565b6107ea565b005b61021d60048036038101906102189190613930565b610846565b60405161022a9190614457565b60405180910390f35b61024d60048036038101906102489190613b47565b610c2c565b60405161025a9190614457565b60405180910390f35b61027d60048036038101906102789190613c46565b610ddd565b60405161028a91906144b0565b60405180910390f35b6102ad60048036038101906102a89190613a1f565b610dfc565b6040516102ba919061490a565b60405180910390f35b6102cb610f0f565b6040516102d891906144b0565b60405180910390f35b6102e9610f26565b005b6102f3611063565b005b6102fd6110e9565b60405161030a9190614348565b60405180910390f35b61032d600480360381019061032891906139e3565b611113565b005b61034960048036038101906103449190613ab7565b611169565b604051610356919061490a565b60405180910390f35b61037960048036038101906103749190613c46565b611400565b604051610386919061490a565b60405180910390f35b6103a960048036038101906103a49190613c46565b61141d565b6040516103b69190614348565b60405180910390f35b6103d960048036038101906103d491906137a6565b61145a565b6040516103e691906144b0565b60405180910390f35b610409600480360381019061040491906138a1565b6114ee565b005b6104256004803603810190610420919061377d565b61154a565b005b61042f6116f6565b005b60008073ffffffffffffffffffffffffffffffffffffffff168373ffffffffffffffffffffffffffffffffffffffff1614156104a2576040517f08c379a0000000000000000000000000000000000000000000000000000000008152600401610499906146aa565b60405180910390fd5b60008083815260200190815260200160002060008473ffffffffffffffffffffffffffffffffffffffff1673ffffffffffffffffffffffffffffffffffffffff16815260200190815260200160002054905092915050565b60007fd9b67a26000000000000000000000000000000000000000000000000000000007bffffffffffffffffffffffffffffffffffffffffffffffffffffffff1916827bffffffffffffffffffffffffffffffffffffffffffffffffffffffff191614806105c557507f0e89341c000000000000000000000000000000000000000000000000000000007bffffffffffffffffffffffffffffffffffffffffffffffffffffffff1916827bffffffffffffffffffffffffffffffffffffffffffffffffffffffff1916145b806105d557506105d48261177c565b5b9050919050565b6105e46117e6565b73ffffffffffffffffffffffffffffffffffffffff166106026110e9565b73ffffffffffffffffffffffffffffffffffffffff1614610658576040517f08c379a000000000000000000000000000000000000000000000000000000000815260040161064f9061484a565b60405180910390fd5b610660610f0f565b156106a0576040517f08c379a00000000000000000000000000000000000000000000000000000000081526004016106979061476a565b60405180910390fd5b6106a9816117ee565b50565b60606106b782610ddd565b6106f6576040517f08c379a00000000000000000000000000000000000000000000000000000000081526004016106ed9061480a565b60405180910390fd5b600061070183611808565b905060008151116107ad5760066000848152602001908152602001600020805461072a90614cce565b80601f016020809104026020016040519081016040528092919081815260200182805461075690614cce565b80156107a35780601f10610778576101008083540402835291602001916107a3565b820191906000526020600020905b81548152906001019060200180831161078657829003601f168201915b50505050506107e2565b80600660008581526020019081526020016000206040516020016107d29291906142ed565b6040516020818303038152906040525b915050919050565b6107f2610f0f565b15610832576040517f08c379a00000000000000000000000000000000000000000000000000000000081526004016108299061476a565b60405180910390fd5b61083f858585858561189c565b5050505050565b6060610850610f0f565b15610890576040517f08c379a00000000000000000000000000000000000000000000000000000000081526004016108879061476a565b60405180910390fd5b8383905086869050146108d8576040517f08c379a00000000000000000000000000000000000000000000000000000000081526004016108cf9061466a565b60405180910390fd5b60008686905067ffffffffffffffff81111561091d577f4e487b7100000000000000000000000000000000000000000000000000000000600052604160045260246000fd5b60405190808252806020026020018201604052801561094b5781602001602082028036833780820191505090505b50905060005b87879050811015610a295788888883818110610996577f4e487b7100000000000000000000000000000000000000000000000000000000600052603260045260246000fd5b90506020028101906109a891906149a5565b6040516020016109ba93929190614425565b6040516020818303038152906040528051906020012060001c828281518110610a0c577f4e487b7100000000000000000000000000000000000000000000000000000000600052603260045260246000fd5b60200260200101818152505080610a2290614d31565b9050610951565b50610a778882878780806020026020016040519081016040528093929190818152602001838360200280828437600081840152601f19601f8201169050808301925050505050505086611c92565b60005b87879050811015610c1d57610b19828281518110610ac1577f4e487b7100000000000000000000000000000000000000000000000000000000600052603260045260246000fd5b6020026020010151898984818110610b02577f4e487b7100000000000000000000000000000000000000000000000000000000600052603260045260246000fd5b9050602002810190610b1491906149a5565b611d6c565b600073ffffffffffffffffffffffffffffffffffffffff1660046000848481518110610b6e577f4e487b7100000000000000000000000000000000000000000000000000000000600052603260045260246000fd5b6020026020010151815260200190815260200160002060009054906101000a900473ffffffffffffffffffffffffffffffffffffffff1673ffffffffffffffffffffffffffffffffffffffff161415610c0c57610c0b828281518110610bfd577f4e487b7100000000000000000000000000000000000000000000000000000000600052603260045260246000fd5b60200260200101518a611ddc565b5b80610c1690614d31565b9050610a7a565b50809150509695505050505050565b60608151835114610c72576040517f08c379a0000000000000000000000000000000000000000000000000000000008152600401610c699061488a565b60405180910390fd5b6000835167ffffffffffffffff811115610cb5577f4e487b7100000000000000000000000000000000000000000000000000000000600052604160045260246000fd5b604051908082528060200260200182016040528015610ce35781602001602082028036833780820191505090505b50905060005b8451811015610dd257610d7c858281518110610d2e577f4e487b7100000000000000000000000000000000000000000000000000000000600052603260045260246000fd5b6020026020010151858381518110610d6f577f4e487b7100000000000000000000000000000000000000000000000000000000600052603260045260246000fd5b6020026020010151610431565b828281518110610db5577f4e487b7100000000000000000000000000000000000000000000000000000000600052603260045260246000fd5b60200260200101818152505080610dcb90614d31565b9050610ce9565b508091505092915050565b6000806005600084815260200190815260200160002054119050919050565b6000610e06610f0f565b15610e46576040517f08c379a0000000000000000000000000000000000000000000000000000000008152600401610e3d9061476a565b60405180910390fd5b6000868686604051602001610e5d93929190614425565b6040516020818303038152906040528051906020012060001c9050610e8487828686611f44565b610e8f818787611d6c565b600073ffffffffffffffffffffffffffffffffffffffff166004600083815260200190815260200160002060009054906101000a900473ffffffffffffffffffffffffffffffffffffffff1673ffffffffffffffffffffffffffffffffffffffff161415610f0257610f018188611ddc565b5b8091505095945050505050565b6000600360149054906101000a900460ff16905090565b610f2e6117e6565b73ffffffffffffffffffffffffffffffffffffffff16610f4c6110e9565b73ffffffffffffffffffffffffffffffffffffffff1614610fa2576040517f08c379a0000000000000000000000000000000000000000000000000000000008152600401610f999061484a565b60405180910390fd5b600073ffffffffffffffffffffffffffffffffffffffff16600360009054906101000a900473ffffffffffffffffffffffffffffffffffffffff1673ffffffffffffffffffffffffffffffffffffffff167f8be0079c531659141344cd1fd0a4f28419497f9722a3daafe3b4186f6b6457e060405160405180910390a36000600360006101000a81548173ffffffffffffffffffffffffffffffffffffffff021916908373ffffffffffffffffffffffffffffffffffffffff160217905550565b61106b6117e6565b73ffffffffffffffffffffffffffffffffffffffff166110896110e9565b73ffffffffffffffffffffffffffffffffffffffff16146110df576040517f08c379a00000000000000000000000000000000000000000000000000000000081526004016110d69061484a565b60405180910390fd5b6110e7611fc3565b565b6000600360009054906101000a900473ffffffffffffffffffffffffffffffffffffffff16905090565b61111b610f0f565b1561115b576040517f08c379a00000000000000000000000000000000000000000000000000000000081526004016111529061476a565b60405180910390fd5b6111658282612066565b5050565b600080611175836121e7565b90506007600082815260200190815260200160002060009054906101000a900460ff16156111d8576040517f08c379a00000000000000000000000000000000000000000000000000000000081526004016111cf9061470a565b60405180910390fd5b6000611236828580606001906111ee919061494e565b8080601f016020809104026020016040519081016040528093929190818152602001838380828437600081840152601f19601f82011690508083019250505050505050612272565b905060003390508173ffffffffffffffffffffffffffffffffffffffff168173ffffffffffffffffffffffffffffffffffffffff16148061127d575061127c823361145a565b5b6112bc576040517f08c379a00000000000000000000000000000000000000000000000000000000081526004016112b3906148ea565b60405180910390fd5b6000828680600001906112cf91906149a5565b6040516020016112e193929190614425565b6040516020818303038152906040528051906020012060001c905061131b8382886020013560405180602001604052806000815250611f44565b6113348187806000019061132f91906149a5565b611d6c565b600073ffffffffffffffffffffffffffffffffffffffff166004600083815260200190815260200160002060009054906101000a900473ffffffffffffffffffffffffffffffffffffffff1673ffffffffffffffffffffffffffffffffffffffff1614156113a7576113a68184611ddc565b5b60016007600086815260200190815260200160002060006101000a81548160ff0219169083151502179055506113f38388838960200135604051806020016040528060008152506114ee565b8094505050505092915050565b600060056000838152602001908152602001600020549050919050565b60006004600083815260200190815260200160002060009054906101000a900473ffffffffffffffffffffffffffffffffffffffff169050919050565b6000600160008473ffffffffffffffffffffffffffffffffffffffff1673ffffffffffffffffffffffffffffffffffffffff16815260200190815260200160002060008373ffffffffffffffffffffffffffffffffffffffff1673ffffffffffffffffffffffffffffffffffffffff16815260200190815260200160002060009054906101000a900460ff16905092915050565b6114f6610f0f565b15611536576040517f08c379a000000000000000000000000000000000000000000000000000000000815260040161152d9061476a565b60405180910390fd5b61154385858585856122ee565b5050505050565b6115526117e6565b73ffffffffffffffffffffffffffffffffffffffff166115706110e9565b73ffffffffffffffffffffffffffffffffffffffff16146115c6576040517f08c379a00000000000000000000000000000000000000000000000000000000081526004016115bd9061484a565b60405180910390fd5b600073ffffffffffffffffffffffffffffffffffffffff168173ffffffffffffffffffffffffffffffffffffffff161415611636576040517f08c379a000000000000000000000000000000000000000000000000000000000815260040161162d906146ca565b60405180910390fd5b8073ffffffffffffffffffffffffffffffffffffffff16600360009054906101000a900473ffffffffffffffffffffffffffffffffffffffff1673ffffffffffffffffffffffffffffffffffffffff167f8be0079c531659141344cd1fd0a4f28419497f9722a3daafe3b4186f6b6457e060405160405180910390a380600360006101000a81548173ffffffffffffffffffffffffffffffffffffffff021916908373ffffffffffffffffffffffffffffffffffffffff16021790555050565b6116fe6117e6565b73ffffffffffffffffffffffffffffffffffffffff1661171c6110e9565b73ffffffffffffffffffffffffffffffffffffffff1614611772576040517f08c379a00000000000000000000000000000000000000000000000000000000081526004016117699061484a565b60405180910390fd5b61177a612606565b565b60007f01ffc9a7000000000000000000000000000000000000000000000000000000007bffffffffffffffffffffffffffffffffffffffffffffffffffffffff1916827bffffffffffffffffffffffffffffffffffffffffffffffffffffffff1916149050919050565b600033905090565b80600290805190602001906118049291906132f6565b5050565b60606002805461181790614cce565b80601f016020809104026020016040519081016040528092919081815260200182805461184390614cce565b80156118905780601f1061186557610100808354040283529160200191611890565b820191906000526020600020905b81548152906001019060200180831161187357829003601f168201915b50505050509050919050565b81518351146118e0576040517f08c379a00000000000000000000000000000000000000000000000000000000081526004016118d7906148aa565b60405180910390fd5b600073ffffffffffffffffffffffffffffffffffffffff168473ffffffffffffffffffffffffffffffffffffffff161415611950576040517f08c379a00000000000000000000000000000000000000000000000000000000081526004016119479061478a565b60405180910390fd5b6119586117e6565b73ffffffffffffffffffffffffffffffffffffffff168573ffffffffffffffffffffffffffffffffffffffff16148061199e575061199d856119986117e6565b61145a565b5b6119dd576040517f08c379a00000000000000000000000000000000000000000000000000000000081526004016119d4906147aa565b60405180910390fd5b60006119e76117e6565b90506119f78187878787876126a8565b60005b8451811015611bfd576000858281518110611a3e577f4e487b7100000000000000000000000000000000000000000000000000000000600052603260045260246000fd5b602002602001015190506000858381518110611a83577f4e487b7100000000000000000000000000000000000000000000000000000000600052603260045260246000fd5b60200260200101519050600080600084815260200190815260200160002060008b73ffffffffffffffffffffffffffffffffffffffff1673ffffffffffffffffffffffffffffffffffffffff16815260200190815260200160002054905081811015611b24576040517f08c379a0000000000000000000000000000000000000000000000000000000008152600401611b1b9061482a565b60405180910390fd5b8181611b309190614bcd565b60008085815260200190815260200160002060008c73ffffffffffffffffffffffffffffffffffffffff1673ffffffffffffffffffffffffffffffffffffffff168152602001908152602001600020819055508160008085815260200190815260200160002060008b73ffffffffffffffffffffffffffffffffffffffff1673ffffffffffffffffffffffffffffffffffffffff1681526020019081526020016000206000828254611be29190614b77565b9250508190555050505080611bf690614d31565b90506119fa565b508473ffffffffffffffffffffffffffffffffffffffff168673ffffffffffffffffffffffffffffffffffffffff168273ffffffffffffffffffffffffffffffffffffffff167f4a39dc06d4c0dbc64b70af90fd698a233a518aa5d07e595d983b8c0526c8f7fb8787604051611c74929190614479565b60405180910390a4611c8a8187878787876126b0565b505050505050565b611c9e84848484612897565b60005b8351811015611d6557828181518110611ce3577f4e487b7100000000000000000000000000000000000000000000000000000000600052603260045260246000fd5b602002602001015160056000868481518110611d28577f4e487b7100000000000000000000000000000000000000000000000000000000600052603260045260246000fd5b602002602001015181526020019081526020016000206000828254611d4d9190614b77565b9250508190555080611d5e90614d31565b9050611ca1565b5050505050565b611d7583610ddd565b611db4576040517f08c379a0000000000000000000000000000000000000000000000000000000008152600401611dab9061480a565b60405180910390fd5b8181600660008681526020019081526020016000209190611dd692919061337c565b50505050565b600073ffffffffffffffffffffffffffffffffffffffff168173ffffffffffffffffffffffffffffffffffffffff161415611e4c576040517f08c379a0000000000000000000000000000000000000000000000000000000008152600401611e439061462a565b60405180910390fd5b600073ffffffffffffffffffffffffffffffffffffffff166004600084815260200190815260200160002060009054906101000a900473ffffffffffffffffffffffffffffffffffffffff1673ffffffffffffffffffffffffffffffffffffffff1614611eee576040517f08c379a0000000000000000000000000000000000000000000000000000000008152600401611ee59061474a565b60405180910390fd5b806004600084815260200190815260200160002060006101000a81548173ffffffffffffffffffffffffffffffffffffffff021916908373ffffffffffffffffffffffffffffffffffffffff1602179055505050565b60008211611f87576040517f08c379a0000000000000000000000000000000000000000000000000000000008152600401611f7e906147ca565b60405180910390fd5b611f9384848484612b01565b81600560008581526020019081526020016000206000828254611fb69190614b77565b9250508190555050505050565b611fcb610f0f565b1561200b576040517f08c379a00000000000000000000000000000000000000000000000000000000081526004016120029061476a565b60405180910390fd5b6001600360146101000a81548160ff0219169083151502179055507f62e78cea01bee320cd4e420270b5ea74000d11b0c9f74754ebdbfc544b05a25861204f6117e6565b60405161205c9190614348565b60405180910390a1565b8173ffffffffffffffffffffffffffffffffffffffff166120856117e6565b73ffffffffffffffffffffffffffffffffffffffff1614156120dc576040517f08c379a00000000000000000000000000000000000000000000000000000000081526004016120d39061486a565b60405180910390fd5b80600160006120e96117e6565b73ffffffffffffffffffffffffffffffffffffffff1673ffffffffffffffffffffffffffffffffffffffff16815260200190815260200160002060008473ffffffffffffffffffffffffffffffffffffffff1673ffffffffffffffffffffffffffffffffffffffff16815260200190815260200160002060006101000a81548160ff0219169083151502179055508173ffffffffffffffffffffffffffffffffffffffff166121966117e6565b73ffffffffffffffffffffffffffffffffffffffff167f17307eab39ab6107e8899845ad3d59bd9653f200f220920489ca2b5937696c31836040516121db91906144b0565b60405180910390a35050565b600061226b7f1f4811ea05bd6ef1b5d6fe5742b38ceb697dcd732bf494780e7560602d1f36e783806000019061221d91906149a5565b60405161222b9291906142ac565b604051809103902084602001358560400135604051602001612250949392919061451e565b60405160208183030381529060405280519060200120612c97565b9050919050565b6000806040518060400160405280601c81526020017f19457468657265756d205369676e6564204d6573736167653a0a3332000000008152509050600081856040516020016122c29291906142c5565b6040516020818303038152906040528051906020012090506122e48185612cb1565b9250505092915050565b600073ffffffffffffffffffffffffffffffffffffffff168473ffffffffffffffffffffffffffffffffffffffff16141561235e576040517f08c379a00000000000000000000000000000000000000000000000000000000081526004016123559061478a565b60405180910390fd5b6123666117e6565b73ffffffffffffffffffffffffffffffffffffffff168573ffffffffffffffffffffffffffffffffffffffff1614806123ac57506123ab856123a66117e6565b61145a565b5b6123eb576040517f08c379a00000000000000000000000000000000000000000000000000000000081526004016123e2906146ea565b60405180910390fd5b60006123f56117e6565b905061241581878761240688612d7b565b61240f88612d7b565b876126a8565b600080600086815260200190815260200160002060008873ffffffffffffffffffffffffffffffffffffffff1673ffffffffffffffffffffffffffffffffffffffff168152602001908152602001600020549050838110156124ac576040517f08c379a00000000000000000000000000000000000000000000000000000000081526004016124a39061482a565b60405180910390fd5b83816124b89190614bcd565b60008087815260200190815260200160002060008973ffffffffffffffffffffffffffffffffffffffff1673ffffffffffffffffffffffffffffffffffffffff168152602001908152602001600020819055508360008087815260200190815260200160002060008873ffffffffffffffffffffffffffffffffffffffff1673ffffffffffffffffffffffffffffffffffffffff168152602001908152602001600020600082825461256a9190614b77565b925050819055508573ffffffffffffffffffffffffffffffffffffffff168773ffffffffffffffffffffffffffffffffffffffff168373ffffffffffffffffffffffffffffffffffffffff167fc3d58168c5ae7397731d063d5bbf3d657854427343f4c083240f7aacaa2d0f6288886040516125e7929190614925565b60405180910390a46125fd828888888888612e41565b50505050505050565b61260e610f0f565b61264d576040517f08c379a00000000000000000000000000000000000000000000000000000000081526004016126449061464a565b60405180910390fd5b6000600360146101000a81548160ff0219169083151502179055507f5db9ee0a495bf2e6ff9c91a7834c1ba4fdd244a5e8aa4e537bd38aeae4b073aa6126916117e6565b60405161269e9190614348565b60405180910390a1565b505050505050565b6126cf8473ffffffffffffffffffffffffffffffffffffffff16613028565b1561288f578373ffffffffffffffffffffffffffffffffffffffff1663bc197c8187878686866040518663ffffffff1660e01b8152600401612715959493929190614363565b602060405180830381600087803b15801561272f57600080fd5b505af192505050801561276057506040513d601f19601f8201168201806040525081019061275d9190613bdc565b60015b6128065761276c614e11565b806308c379a014156127c95750612781615550565b8061278c57506127cb565b806040517f08c379a00000000000000000000000000000000000000000000000000000000081526004016127c091906145a8565b60405180910390fd5b505b6040517f08c379a00000000000000000000000000000000000000000000000000000000081526004016127fd906145ea565b60405180910390fd5b63bc197c8160e01b7bffffffffffffffffffffffffffffffffffffffffffffffffffffffff1916817bffffffffffffffffffffffffffffffffffffffffffffffffffffffff19161461288d576040517f08c379a00000000000000000000000000000000000000000000000000000000081526004016128849061460a565b60405180910390fd5b505b505050505050565b600073ffffffffffffffffffffffffffffffffffffffff168473ffffffffffffffffffffffffffffffffffffffff161415612907576040517f08c379a00000000000000000000000000000000000000000000000000000000081526004016128fe906148ca565b60405180910390fd5b815183511461294b576040517f08c379a0000000000000000000000000000000000000000000000000000000008152600401612942906148aa565b60405180910390fd5b60006129556117e6565b9050612966816000878787876126a8565b60005b8451811015612a6b578381815181106129ab577f4e487b7100000000000000000000000000000000000000000000000000000000600052603260045260246000fd5b60200260200101516000808784815181106129ef577f4e487b7100000000000000000000000000000000000000000000000000000000600052603260045260246000fd5b6020026020010151815260200190815260200160002060008873ffffffffffffffffffffffffffffffffffffffff1673ffffffffffffffffffffffffffffffffffffffff1681526020019081526020016000206000828254612a519190614b77565b925050819055508080612a6390614d31565b915050612969565b508473ffffffffffffffffffffffffffffffffffffffff16600073ffffffffffffffffffffffffffffffffffffffff168273ffffffffffffffffffffffffffffffffffffffff167f4a39dc06d4c0dbc64b70af90fd698a233a518aa5d07e595d983b8c0526c8f7fb8787604051612ae3929190614479565b60405180910390a4612afa816000878787876126b0565b5050505050565b600073ffffffffffffffffffffffffffffffffffffffff168473ffffffffffffffffffffffffffffffffffffffff161415612b71576040517f08c379a0000000000000000000000000000000000000000000000000000000008152600401612b68906148ca565b60405180910390fd5b6000612b7b6117e6565b9050612b9c81600087612b8d88612d7b565b612b9688612d7b565b876126a8565b8260008086815260200190815260200160002060008773ffffffffffffffffffffffffffffffffffffffff1673ffffffffffffffffffffffffffffffffffffffff1681526020019081526020016000206000828254612bfb9190614b77565b925050819055508473ffffffffffffffffffffffffffffffffffffffff16600073ffffffffffffffffffffffffffffffffffffffff168273ffffffffffffffffffffffffffffffffffffffff167fc3d58168c5ae7397731d063d5bbf3d657854427343f4c083240f7aacaa2d0f628787604051612c79929190614925565b60405180910390a4612c9081600087878787612e41565b5050505050565b6000612caa612ca461303b565b836130fe565b9050919050565b600080600080604185511415612cde576020850151925060408501519150606085015160001a9050612d64565b604085511415612d28576040850151602086015193507f7fffffffffffffffffffffffffffffffffffffffffffffffffffffffffffffff81169250601b8160ff1c01915050612d63565b6040517f08c379a0000000000000000000000000000000000000000000000000000000008152600401612d5a9061468a565b60405180910390fd5b5b612d7086828585613131565b935050505092915050565b60606000600167ffffffffffffffff811115612dc0577f4e487b7100000000000000000000000000000000000000000000000000000000600052604160045260246000fd5b604051908082528060200260200182016040528015612dee5781602001602082028036833780820191505090505b5090508281600081518110612e2c577f4e487b7100000000000000000000000000000000000000000000000000000000600052603260045260246000fd5b60200260200101818152505080915050919050565b612e608473ffffffffffffffffffffffffffffffffffffffff16613028565b15613020578373ffffffffffffffffffffffffffffffffffffffff1663f23a6e6187878686866040518663ffffffff1660e01b8152600401612ea69594939291906143cb565b602060405180830381600087803b158015612ec057600080fd5b505af1925050508015612ef157506040513d601f19601f82011682018060405250810190612eee9190613bdc565b60015b612f9757612efd614e11565b806308c379a01415612f5a5750612f12615550565b80612f1d5750612f5c565b806040517f08c379a0000000000000000000000000000000000000000000000000000000008152600401612f5191906145a8565b60405180910390fd5b505b6040517f08c379a0000000000000000000000000000000000000000000000000000000008152600401612f8e906145ea565b60405180910390fd5b63f23a6e6160e01b7bffffffffffffffffffffffffffffffffffffffffffffffffffffffff1916817bffffffffffffffffffffffffffffffffffffffffffffffffffffffff19161461301e576040517f08c379a00000000000000000000000000000000000000000000000000000000081526004016130159061460a565b60405180910390fd5b505b505050505050565b600080823b905060008111915050919050565b60007f000000000000000000000000000000000000000000000000000000000000000046141561308d577f000000000000000000000000000000000000000000000000000000000000000090506130fb565b6130f87f00000000000000000000000000000000000000000000000000000000000000007f00000000000000000000000000000000000000000000000000000000000000007f00000000000000000000000000000000000000000000000000000000000000006132bc565b90505b90565b60008282604051602001613113929190614311565b60405160208183030381529060405280519060200120905092915050565b60007f7fffffffffffffffffffffffffffffff5d576e7357a4501ddfe92f46681b20a08260001c1115613199576040517f08c379a00000000000000000000000000000000000000000000000000000000081526004016131909061472a565b60405180910390fd5b601b8460ff1614806131ae5750601c8460ff16145b6131ed576040517f08c379a00000000000000000000000000000000000000000000000000000000081526004016131e4906147ea565b60405180910390fd5b6000600186868686604051600081526020016040526040516132129493929190614563565b6020604051602081039080840390855afa158015613234573d6000803e3d6000fd5b505050602060405103519050600073ffffffffffffffffffffffffffffffffffffffff168173ffffffffffffffffffffffffffffffffffffffff1614156132b0576040517f08c379a00000000000000000000000000000000000000000000000000000000081526004016132a7906145ca565b60405180910390fd5b80915050949350505050565b600083838346306040516020016132d79594939291906144cb565b6040516020818303038152906040528051906020012090509392505050565b82805461330290614cce565b90600052602060002090601f016020900481019282613324576000855561336b565b82601f1061333d57805160ff191683800117855561336b565b8280016001018555821561336b579182015b8281111561336a57825182559160200191906001019061334f565b5b5090506133789190613402565b5090565b82805461338890614cce565b90600052602060002090601f0160209004810192826133aa57600085556133f1565b82601f106133c357803560ff19168380011785556133f1565b828001600101855582156133f1579182015b828111156133f05782358255916020019190600101906133d5565b5b5090506133fe9190613402565b5090565b5b8082111561341b576000816000905550600101613403565b5090565b600061343261342d84614a21565b6149fc565b9050808382526020820190508285602086028201111561345157600080fd5b60005b8581101561348157816134678882613573565b845260208401935060208301925050600181019050613454565b5050509392505050565b600061349e61349984614a4d565b6149fc565b905080838252602082019050828560208602820111156134bd57600080fd5b60005b858110156134ed57816134d38882613768565b8452602084019350602083019250506001810190506134c0565b5050509392505050565b600061350a61350584614a79565b6149fc565b90508281526020810184848401111561352257600080fd5b61352d848285614c8c565b509392505050565b600061354861354384614aaa565b6149fc565b90508281526020810184848401111561356057600080fd5b61356b848285614c8c565b509392505050565b600081359050613582816155e6565b92915050565b600082601f83011261359957600080fd5b81356135a984826020860161341f565b91505092915050565b60008083601f8401126135c457600080fd5b8235905067ffffffffffffffff8111156135dd57600080fd5b6020830191508360208202830111156135f557600080fd5b9250929050565b60008083601f84011261360e57600080fd5b8235905067ffffffffffffffff81111561362757600080fd5b60208301915083602082028301111561363f57600080fd5b9250929050565b600082601f83011261365757600080fd5b813561366784826020860161348b565b91505092915050565b60008135905061367f816155fd565b92915050565b60008135905061369481615614565b92915050565b6000815190506136a981615614565b92915050565b600082601f8301126136c057600080fd5b81356136d08482602086016134f7565b91505092915050565b60008083601f8401126136eb57600080fd5b8235905067ffffffffffffffff81111561370457600080fd5b60208301915083600182028301111561371c57600080fd5b9250929050565b600082601f83011261373457600080fd5b8135613744848260208601613535565b91505092915050565b60006080828403121561375f57600080fd5b81905092915050565b6000813590506137778161562b565b92915050565b60006020828403121561378f57600080fd5b600061379d84828501613573565b91505092915050565b600080604083850312156137b957600080fd5b60006137c785828601613573565b92505060206137d885828601613573565b9150509250929050565b600080600080600060a086880312156137fa57600080fd5b600061380888828901613573565b955050602061381988828901613573565b945050604086013567ffffffffffffffff81111561383657600080fd5b61384288828901613646565b935050606086013567ffffffffffffffff81111561385f57600080fd5b61386b88828901613646565b925050608086013567ffffffffffffffff81111561388857600080fd5b613894888289016136af565b9150509295509295909350565b600080600080600060a086880312156138b957600080fd5b60006138c788828901613573565b95505060206138d888828901613573565b94505060406138e988828901613768565b93505060606138fa88828901613768565b925050608086013567ffffffffffffffff81111561391757600080fd5b613923888289016136af565b9150509295509295909350565b6000806000806000806080878903121561394957600080fd5b600061395789828a01613573565b965050602087013567ffffffffffffffff81111561397457600080fd5b61398089828a016135b2565b9550955050604087013567ffffffffffffffff81111561399f57600080fd5b6139ab89828a016135fc565b9350935050606087013567ffffffffffffffff8111156139ca57600080fd5b6139d689828a016136af565b9150509295509295509295565b600080604083850312156139f657600080fd5b6000613a0485828601613573565b9250506020613a1585828601613670565b9150509250929050565b600080600080600060808688031215613a3757600080fd5b6000613a4588828901613573565b955050602086013567ffffffffffffffff811115613a6257600080fd5b613a6e888289016136d9565b94509450506040613a8188828901613768565b925050606086013567ffffffffffffffff811115613a9e57600080fd5b613aaa888289016136af565b9150509295509295909350565b60008060408385031215613aca57600080fd5b6000613ad885828601613573565b925050602083013567ffffffffffffffff811115613af557600080fd5b613b018582860161374d565b9150509250929050565b60008060408385031215613b1e57600080fd5b6000613b2c85828601613573565b9250506020613b3d85828601613768565b9150509250929050565b60008060408385031215613b5a57600080fd5b600083013567ffffffffffffffff811115613b7457600080fd5b613b8085828601613588565b925050602083013567ffffffffffffffff811115613b9d57600080fd5b613ba985828601613646565b9150509250929050565b600060208284031215613bc557600080fd5b6000613bd384828501613685565b91505092915050565b600060208284031215613bee57600080fd5b6000613bfc8482850161369a565b91505092915050565b600060208284031215613c1757600080fd5b600082013567ffffffffffffffff811115613c3157600080fd5b613c3d84828501613723565b91505092915050565b600060208284031215613c5857600080fd5b6000613c6684828501613768565b91505092915050565b6000613c7b838361427f565b60208301905092915050565b613c9081614c01565b82525050565b6000613ca182614b00565b613cab8185614b2e565b9350613cb683614adb565b8060005b83811015613ce7578151613cce8882613c6f565b9750613cd983614b21565b925050600181019050613cba565b5085935050505092915050565b613cfd81614c13565b82525050565b613d0c81614c1f565b82525050565b613d23613d1e82614c1f565b614d7a565b82525050565b6000613d358385614b50565b9350613d42838584614c8c565b82840190509392505050565b6000613d5982614b0b565b613d638185614b3f565b9350613d73818560208601614c9b565b613d7c81614e33565b840191505092915050565b6000613d9282614b0b565b613d9c8185614b50565b9350613dac818560208601614c9b565b80840191505092915050565b6000613dc48385614b5b565b9350613dd1838584614c8c565b613dda83614e33565b840190509392505050565b6000613df082614b16565b613dfa8185614b5b565b9350613e0a818560208601614c9b565b613e1381614e33565b840191505092915050565b6000613e2982614b16565b613e338185614b6c565b9350613e43818560208601614c9b565b80840191505092915050565b60008154613e5c81614cce565b613e668186614b6c565b94506001821660008114613e815760018114613e9257613ec5565b60ff19831686528186019350613ec5565b613e9b85614aeb565b60005b83811015613ebd57815481890152600182019150602081019050613e9e565b838801955050505b50505092915050565b6000613edb601883614b5b565b9150613ee682614e51565b602082019050919050565b6000613efe603483614b5b565b9150613f0982614e7a565b604082019050919050565b6000613f21602883614b5b565b9150613f2c82614ec9565b604082019050919050565b6000613f44601d83614b5b565b9150613f4f82614f18565b602082019050919050565b6000613f67601483614b5b565b9150613f7282614f41565b602082019050919050565b6000613f8a602383614b5b565b9150613f9582614f6a565b604082019050919050565b6000613fad601f83614b5b565b9150613fb882614fb9565b602082019050919050565b6000613fd0602b83614b5b565b9150613fdb82614fe2565b604082019050919050565b6000613ff3602683614b5b565b9150613ffe82615031565b604082019050919050565b6000614016600283614b6c565b915061402182615080565b600282019050919050565b6000614039602983614b5b565b9150614044826150a9565b604082019050919050565b600061405c602383614b5b565b9150614067826150f8565b604082019050919050565b600061407f602283614b5b565b915061408a82615147565b604082019050919050565b60006140a2601e83614b5b565b91506140ad82615196565b602082019050919050565b60006140c5601083614b5b565b91506140d0826151bf565b602082019050919050565b60006140e8602583614b5b565b91506140f3826151e8565b604082019050919050565b600061410b603283614b5b565b915061411682615237565b604082019050919050565b600061412e601c83614b5b565b915061413982615286565b602082019050919050565b6000614151602283614b5b565b915061415c826152af565b604082019050919050565b6000614174602883614b5b565b915061417f826152fe565b604082019050919050565b6000614197602a83614b5b565b91506141a28261534d565b604082019050919050565b60006141ba602083614b5b565b91506141c58261539c565b602082019050919050565b60006141dd602983614b5b565b91506141e8826153c5565b604082019050919050565b6000614200602983614b5b565b915061420b82615414565b604082019050919050565b6000614223602883614b5b565b915061422e82615463565b604082019050919050565b6000614246602183614b5b565b9150614251826154b2565b604082019050919050565b6000614269602b83614b5b565b915061427482615501565b604082019050919050565b61428881614c75565b82525050565b61429781614c75565b82525050565b6142a681614c7f565b82525050565b60006142b9828486613d29565b91508190509392505050565b60006142d18285613d87565b91506142dd8284613d12565b6020820191508190509392505050565b60006142f98285613e1e565b91506143058284613e4f565b91508190509392505050565b600061431c82614009565b91506143288285613d12565b6020820191506143388284613d12565b6020820191508190509392505050565b600060208201905061435d6000830184613c87565b92915050565b600060a0820190506143786000830188613c87565b6143856020830187613c87565b81810360408301526143978186613c96565b905081810360608301526143ab8185613c96565b905081810360808301526143bf8184613d4e565b90509695505050505050565b600060a0820190506143e06000830188613c87565b6143ed6020830187613c87565b6143fa604083018661428e565b614407606083018561428e565b81810360808301526144198184613d4e565b90509695505050505050565b600060408201905061443a6000830186613c87565b818103602083015261444d818486613db8565b9050949350505050565b600060208201905081810360008301526144718184613c96565b905092915050565b600060408201905081810360008301526144938185613c96565b905081810360208301526144a78184613c96565b90509392505050565b60006020820190506144c56000830184613cf4565b92915050565b600060a0820190506144e06000830188613d03565b6144ed6020830187613d03565b6144fa6040830186613d03565b614507606083018561428e565b6145146080830184613c87565b9695505050505050565b60006080820190506145336000830187613d03565b6145406020830186613d03565b61454d604083018561428e565b61455a606083018461428e565b95945050505050565b60006080820190506145786000830187613d03565b614585602083018661429d565b6145926040830185613d03565b61459f6060830184613d03565b95945050505050565b600060208201905081810360008301526145c28184613de5565b905092915050565b600060208201905081810360008301526145e381613ece565b9050919050565b6000602082019050818103600083015261460381613ef1565b9050919050565b6000602082019050818103600083015261462381613f14565b9050919050565b6000602082019050818103600083015261464381613f37565b9050919050565b6000602082019050818103600083015261466381613f5a565b9050919050565b6000602082019050818103600083015261468381613f7d565b9050919050565b600060208201905081810360008301526146a381613fa0565b9050919050565b600060208201905081810360008301526146c381613fc3565b9050919050565b600060208201905081810360008301526146e381613fe6565b9050919050565b600060208201905081810360008301526147038161402c565b9050919050565b600060208201905081810360008301526147238161404f565b9050919050565b6000602082019050818103600083015261474381614072565b9050919050565b6000602082019050818103600083015261476381614095565b9050919050565b60006020820190508181036000830152614783816140b8565b9050919050565b600060208201905081810360008301526147a3816140db565b9050919050565b600060208201905081810360008301526147c3816140fe565b9050919050565b600060208201905081810360008301526147e381614121565b9050919050565b6000602082019050818103600083015261480381614144565b9050919050565b6000602082019050818103600083015261482381614167565b9050919050565b600060208201905081810360008301526148438161418a565b9050919050565b60006020820190508181036000830152614863816141ad565b9050919050565b60006020820190508181036000830152614883816141d0565b9050919050565b600060208201905081810360008301526148a3816141f3565b9050919050565b600060208201905081810360008301526148c381614216565b9050919050565b600060208201905081810360008301526148e381614239565b9050919050565b600060208201905081810360008301526149038161425c565b9050919050565b600060208201905061491f600083018461428e565b92915050565b600060408201905061493a600083018561428e565b614947602083018461428e565b9392505050565b6000808335600160200384360303811261496757600080fd5b80840192508235915067ffffffffffffffff82111561498557600080fd5b60208301925060018202360383131561499d57600080fd5b509250929050565b600080833560016020038436030381126149be57600080fd5b80840192508235915067ffffffffffffffff8211156149dc57600080fd5b6020830192506001820236038313156149f457600080fd5b509250929050565b6000614a06614a17565b9050614a128282614d00565b919050565b6000604051905090565b600067ffffffffffffffff821115614a3c57614a3b614de2565b5b602082029050602081019050919050565b600067ffffffffffffffff821115614a6857614a67614de2565b5b602082029050602081019050919050565b600067ffffffffffffffff821115614a9457614a93614de2565b5b614a9d82614e33565b9050602081019050919050565b600067ffffffffffffffff821115614ac557614ac4614de2565b5b614ace82614e33565b9050602081019050919050565b6000819050602082019050919050565b60008190508160005260206000209050919050565b600081519050919050565b600081519050919050565b600081519050919050565b6000602082019050919050565b600082825260208201905092915050565b600082825260208201905092915050565b600081905092915050565b600082825260208201905092915050565b600081905092915050565b6000614b8282614c75565b9150614b8d83614c75565b9250827fffffffffffffffffffffffffffffffffffffffffffffffffffffffffffffffff03821115614bc257614bc1614d84565b5b828201905092915050565b6000614bd882614c75565b9150614be383614c75565b925082821015614bf657614bf5614d84565b5b828203905092915050565b6000614c0c82614c55565b9050919050565b60008115159050919050565b6000819050919050565b60007fffffffff0000000000000000000000000000000000000000000000000000000082169050919050565b600073ffffffffffffffffffffffffffffffffffffffff82169050919050565b6000819050919050565b600060ff82169050919050565b82818337600083830152505050565b60005b83811015614cb9578082015181840152602081019050614c9e565b83811115614cc8576000848401525b50505050565b60006002820490506001821680614ce657607f821691505b60208210811415614cfa57614cf9614db3565b5b50919050565b614d0982614e33565b810181811067ffffffffffffffff82111715614d2857614d27614de2565b5b80604052505050565b6000614d3c82614c75565b91507fffffffffffffffffffffffffffffffffffffffffffffffffffffffffffffffff821415614d6f57614d6e614d84565b5b600182019050919050565b6000819050919050565b7f4e487b7100000000000000000000000000000000000000000000000000000000600052601160045260246000fd5b7f4e487b7100000000000000000000000000000000000000000000000000000000600052602260045260246000fd5b7f4e487b7100000000000000000000000000000000000000000000000000000000600052604160045260246000fd5b600060033d1115614e305760046000803e614e2d600051614e44565b90505b90565b6000601f19601f8301169050919050565b60008160e01c9050919050565b7f45434453413a20696e76616c6964207369676e61747572650000000000000000600082015250565b7f455243313135353a207472616e7366657220746f206e6f6e204552433131353560008201527f526563656976657220696d706c656d656e746572000000000000000000000000602082015250565b7f455243313135353a204552433131353552656365697665722072656a6563746560008201527f6420746f6b656e73000000000000000000000000000000000000000000000000602082015250565b7f455243313135353a207a65726f20616464726573732063726561746f72000000600082015250565b7f5061757361626c653a206e6f7420706175736564000000000000000000000000600082015250565b7f455243313135353a206d696e744261746368206c656e67746873206d69736d6160008201527f7463680000000000000000000000000000000000000000000000000000000000602082015250565b7f45434453413a20696e76616c6964207369676e6174757265206c656e67746800600082015250565b7f455243313135353a2062616c616e636520717565727920666f7220746865207a60008201527f65726f2061646472657373000000000000000000000000000000000000000000602082015250565b7f4f776e61626c653a206e6577206f776e657220697320746865207a65726f206160008201527f6464726573730000000000000000000000000000000000000000000000000000602082015250565b7f1901000000000000000000000000000000000000000000000000000000000000600082015250565b7f455243313135353a2063616c6c6572206973206e6f74206f776e6572206e6f7260008201527f20617070726f7665640000000000000000000000000000000000000000000000602082015250565b7f455243313135353a206d696e74206461746120616c726561647920726564656560008201527f6d65640000000000000000000000000000000000000000000000000000000000602082015250565b7f45434453413a20696e76616c6964207369676e6174757265202773272076616c60008201527f7565000000000000000000000000000000000000000000000000000000000000602082015250565b7f455243313135353a20616c72656164792068616420612063726561746f720000600082015250565b7f5061757361626c653a2070617573656400000000000000000000000000000000600082015250565b7f455243313135353a207472616e7366657220746f20746865207a65726f20616460008201527f6472657373000000000000000000000000000000000000000000000000000000602082015250565b7f455243313135353a207472616e736665722063616c6c6572206973206e6f742060008201527f6f776e6572206e6f7220617070726f7665640000000000000000000000000000602082015250565b7f455243313135353a206d696e7420616d6f756e74206973207a65726f00000000600082015250565b7f45434453413a20696e76616c6964207369676e6174757265202776272076616c60008201527f7565000000000000000000000000000000000000000000000000000000000000602082015250565b7f455243313135353a2055524920717565727920666f72206e6f6e65786973746560008201527f6e7420746f6b656e000000000000000000000000000000000000000000000000602082015250565b7f455243313135353a20696e73756666696369656e742062616c616e636520666f60008201527f72207472616e7366657200000000000000000000000000000000000000000000602082015250565b7f4f776e61626c653a2063616c6c6572206973206e6f7420746865206f776e6572600082015250565b7f455243313135353a2073657474696e6720617070726f76616c2073746174757360008201527f20666f722073656c660000000000000000000000000000000000000000000000602082015250565b7f455243313135353a206163636f756e747320616e6420696473206c656e67746860008201527f206d69736d617463680000000000000000000000000000000000000000000000602082015250565b7f455243313135353a2069647320616e6420616d6f756e7473206c656e6774682060008201527f6d69736d61746368000000000000000000000000000000000000000000000000602082015250565b7f455243313135353a206d696e7420746f20746865207a65726f2061646472657360008201527f7300000000000000000000000000000000000000000000000000000000000000602082015250565b7f455243313135353a2063616c6c6572206973206e6f742063726561746f72206e60008201527f6f7220617070726f766564000000000000000000000000000000000000000000602082015250565b600060443d1015615560576155e3565b615568614a17565b60043d036004823e80513d602482011167ffffffffffffffff821117156155905750506155e3565b808201805167ffffffffffffffff8111156155ae57505050506155e3565b80602083010160043d0385018111156155cb5750505050506155e3565b6155da82602001850186614d00565b82955050505050505b90565b6155ef81614c01565b81146155fa57600080fd5b50565b61560681614c13565b811461561157600080fd5b50565b61561d81614c29565b811461562857600080fd5b50565b61563481614c75565b811461563f57600080fd5b5056fea26469706673582212206551817b2f1ea8dff5664c68a2cdd4e1a048104d5e67ede54af79af8c457703b64736f6c63430008040033",
  "immutableReferences": {
    "2069": [
      {
        "length": 32,
        "start": 12391
      }
    ],
    "2071": [
      {
        "length": 32,
        "start": 12351
      }
    ],
    "2073": [
      {
        "length": 32,
        "start": 12467
      }
    ],
    "2075": [
      {
        "length": 32,
        "start": 12500
      }
    ],
    "2077": [
      {
        "length": 32,
        "start": 12434
      }
    ]
  },
  "source": "// SPDX-License-Identifier: UNLICENSED\n\npragma solidity 0.8.4;\n\nimport \"./TaureumERC1155.sol\";\nimport \"../../lib/utils/cryptography/draft-EIP712.sol\";\n\ncontract TaureumERC1155LazyMint is TaureumERC1155, EIP712 {\n    string private constant SIGNING_DOMAIN = \"TaureumERC1155\";\n    string private constant SIGNATURE_VERSION = \"1\";\n\n    /**\n     * @dev Mapping for checking if minting data has been redeemed.\n     */\n    mapping(bytes32 => bool) private _mintHashRedeemed;\n\n    event Logs(address creator, bytes32 digest, bytes signature, bytes32 salt);\n\n    /**\n     * @dev A struct consists of the lazy minting data.\n     */\n    struct MintData {\n        string tokenURI;\n        uint256 amount;\n        uint256 salt;\n        bytes signature;\n    }\n\n    /**\n     * @dev Create a new TaureumERC1155 contract and set the `_uri` value.\n     *\n     */\n    constructor(string memory uri_) TaureumERC1155(uri_) EIP712(SIGNING_DOMAIN, SIGNATURE_VERSION) {\n    }\n\n    /**\n     * @dev Implement a lazy minting mechanism in which the NFT-minting process is delayed until the first order is successful.\n     * This function should be handled by a smart contract which is allowed by the `creator`.\n     * @notice For each lazy minting data, this function should only be called once.\n     * @notice It throws if\n     *      - the minting data has already been redeemed.\n     *      - `msg.sender` is not the `creator` or has not been approved by the `creator`.\n     *      - minting data and signature are not valid.\n     *      - if the `redeemer` is a contract and it cannot receive the NFT.\n     * @param redeemer The address of the party that an amount of the minting token will be transferred to.\n     * @param mintData The lazy minting data.\n     */\n    function redeem(address redeemer, MintData calldata mintData)\n    public virtual returns (uint256)\n    {\n        bytes32 digest = _hash(mintData);\n        require(!_mintHashRedeemed[digest], \"ERC1155: mint data already redeemed\");\n\n        address creator = _verify(digest, mintData.signature);\n        address operator = msg.sender;\n        require(operator == creator || isApprovedForAll(creator, msg.sender), \"ERC1155: caller is not creator nor approved\");\n\n        uint256 id = uint256(keccak256(abi.encode(creator, mintData.tokenURI)));\n\n        // mint the token to the creator\n        super._mint(creator, id, mintData.amount, \"\");\n\n        // set the tokenURI\n        _setTokenUri(id, mintData.tokenURI);\n\n        // save the creator\n        if (_creator[id] == address(0x0)) {\n            _saveCreator(id, creator);\n        }\n\n        // set the redeemed status\n        _mintHashRedeemed[digest] = true;\n\n        // transfer the token to the redeemer\n        safeTransferFrom(creator, redeemer, id, mintData.amount, \"\");\n\n        return id;\n    }\n\n    /// @notice Return a hash of the given PendingNFT, prepared using EIP712 typed data hashing rules.\n    function _hash(MintData calldata mintData)\n    internal view returns (bytes32)\n    {\n        return _hashTypedDataV4(keccak256(abi.encode(\n                keccak256(\"TaureumERC1155(string uri,uint256 amount,uint256 salt)\"),\n                keccak256(bytes(mintData.tokenURI)),\n                mintData.amount,\n                mintData.salt\n            )));\n    }\n\n    /**\n     * @dev Return the signer for a pair of digested message and signature.\n     */\n    function _verify(bytes32 digest, bytes memory signature)\n    internal pure returns (address)\n    {\n        bytes memory prefix = \"\\x19Ethereum Signed Message:\\n32\";\n        bytes32 prefixedHash = keccak256(abi.encodePacked(prefix, digest));\n        return ECDSA.recover(prefixedHash, signature);\n    }\n}\n",
  "sourcePath": "/home/toor/nodejs/truffle/nft_demo/taureum/taureum-nft-sc/contracts/tokens/ERC1155/TaureumERC1155LazyMint.sol",
  "compiler": {
    "name": "solc",
    "version": "0.8.4+commit.c7e474f2.Emscripten.clang"
  },
  "schemaVersion": "3.4.1",
  "updatedAt": "2021-08-29T05:22:14.687Z",
  "devdoc": {
    "kind": "dev",
    "methods": {
      "balanceOf(address,uint256)": {
        "details": "See {IERC1155-balanceOf}. Requirements: - `account` cannot be the zero address."
      },
      "balanceOfBatch(address[],uint256[])": {
        "details": "See {IERC1155-balanceOfBatch}. Requirements: - `accounts` and `ids` must have the same length."
      },
      "constructor": {
        "details": "Create a new TaureumERC1155 contract and set the `_uri` value."
      },
      "exists(uint256)": {
        "details": "Return the indicator whether a token exists given its id."
      },
      "getCreator(uint256)": {
        "details": "Return the creator of an NFT given its id."
      },
      "isApprovedForAll(address,address)": {
        "details": "See {IERC1155-isApprovedForAll}."
      },
      "mint(address,string,uint256,bytes)": {
        "details": "Mint a new ERC1155 token. A token can only be minted once."
      },
      "mintBatch(address,string[],uint256[],bytes)": {
        "details": "Mint a batch of tokens."
      },
      "owner()": {
        "details": "Returns the address of the current owner."
      },
      "pause()": {
        "details": "Pause the contract in case of bugs/attacks."
      },
      "paused()": {
        "details": "Returns true if the contract is paused, and false otherwise."
      },
      "redeem(address,(string,uint256,uint256,bytes))": {
        "details": "Implement a lazy minting mechanism in which the NFT-minting process is delayed until the first order is successful. This function should be handled by a smart contract which is allowed by the `creator`.",
        "params": {
          "mintData": "The lazy minting data.",
          "redeemer": "The address of the party that an amount of the minting token will be transferred to."
        }
      },
      "renounceOwnership()": {
        "details": "Leaves the contract without owner. It will not be possible to call `onlyOwner` functions anymore. Can only be called by the current owner. NOTE: Renouncing ownership will leave the contract without an owner, thereby removing any functionality that is only available to the owner."
      },
      "safeBatchTransferFrom(address,address,uint256[],uint256[],bytes)": {
        "details": "See {IERC1155-safeBatchTransferFrom}."
      },
      "safeTransferFrom(address,address,uint256,uint256,bytes)": {
        "details": "See {IERC1155-safeTransferFrom}."
      },
      "setApprovalForAll(address,bool)": {
        "details": "See {IERC1155-setApprovalForAll}."
      },
      "setURI(string)": {
        "details": "Sets a new URI for all token types, by relying on the token type ID substitution mechanism https://eips.ethereum.org/EIPS/eip-1155#metadata[defined in the EIP]. By this mechanism, any occurrence of the `\\{id\\}` substring in either the URI or any of the amounts in the JSON file at said URI will be replaced by clients with the token type ID. For example, the `https://token-cdn-domain/\\{id\\}.json` URI would be interpreted by clients as `https://token-cdn-domain/000000000000000000000000000000000000000000000000000000000004cce0.json` for token type ID 0x4cce0. See {uri}. Because these URIs cannot be meaningfully represented by the {URI} event, this function emits no events."
      },
      "supportsInterface(bytes4)": {
        "details": "See {IERC165-supportsInterface}."
      },
      "totalSupply(uint256)": {
        "details": "Total amount of tokens in with a given id."
      },
      "transferOwnership(address)": {
        "details": "Transfers ownership of the contract to a new account (`newOwner`). Can only be called by the current owner."
      },
      "unPause()": {
        "details": "Resume the contract after being paused."
      },
      "uri(uint256)": {
        "details": "Return the URI of a tokenId."
      }
    },
    "stateVariables": {
      "_mintHashRedeemed": {
        "details": "Mapping for checking if minting data has been redeemed."
      }
    },
    "version": 1
  },
  "userdoc": {
    "kind": "user",
    "methods": {
      "mint(address,string,uint256,bytes)": {
        "notice": "It reverts if      - The `msg.sender` is not `to` or approved by `to`.      - `to` is the zero address.      - `to` cannot receive the token."
      },
      "pause()": {
        "notice": "Only the owner can call this method."
      },
      "redeem(address,(string,uint256,uint256,bytes))": {
        "notice": "For each lazy minting data, this function should only be called once.It throws if      - the minting data has already been redeemed.      - `msg.sender` is not the `creator` or has not been approved by the `creator`.      - minting data and signature are not valid.      - if the `redeemer` is a contract and it cannot receive the NFT."
      },
      "unPause()": {
        "notice": "Only the owner can call this method."
      }
    },
    "version": 1
  }
}