{
  "contractName": "TaureumERC721",
  "abi": [
    {
      "inputs": [
        {
          "internalType": "address",
          "name": "KYCAddress",
          "type": "address"
        }
      ],
      "stateMutability": "nonpayable",
      "type": "constructor"
    },
    {
      "anonymous": false,
      "inputs": [
        {
          "indexed": true,
          "internalType": "address",
          "name": "owner",
          "type": "address"
        },
        {
          "indexed": true,
          "internalType": "address",
          "name": "approved",
          "type": "address"
        },
        {
          "indexed": true,
          "internalType": "uint256",
          "name": "tokenId",
          "type": "uint256"
        }
      ],
      "name": "Approval",
      "type": "event"
    },
    {
      "anonymous": false,
      "inputs": [
        {
          "indexed": true,
          "internalType": "address",
          "name": "owner",
          "type": "address"
        },
        {
          "indexed": true,
          "internalType": "address",
          "name": "operator",
          "type": "address"
        },
        {
          "indexed": false,
          "internalType": "bool",
          "name": "approved",
          "type": "bool"
        }
      ],
      "name": "ApprovalForAll",
      "type": "event"
    },
    {
      "anonymous": false,
      "inputs": [
        {
          "indexed": true,
          "internalType": "address",
          "name": "to",
          "type": "address"
        },
        {
          "indexed": true,
          "internalType": "uint256",
          "name": "tokenId",
          "type": "uint256"
        },
        {
          "indexed": false,
          "internalType": "string",
          "name": "uri",
          "type": "string"
        },
        {
          "indexed": false,
          "internalType": "uint256",
          "name": "expiryDate",
          "type": "uint256"
        }
      ],
      "name": "Mint",
      "type": "event"
    },
    {
      "anonymous": false,
      "inputs": [
        {
          "indexed": true,
          "internalType": "address",
          "name": "previousOwner",
          "type": "address"
        },
        {
          "indexed": true,
          "internalType": "address",
          "name": "newOwner",
          "type": "address"
        }
      ],
      "name": "OwnershipTransferred",
      "type": "event"
    },
    {
      "anonymous": false,
      "inputs": [
        {
          "indexed": true,
          "internalType": "address",
          "name": "from",
          "type": "address"
        },
        {
          "indexed": true,
          "internalType": "address",
          "name": "to",
          "type": "address"
        },
        {
          "indexed": true,
          "internalType": "uint256",
          "name": "tokenId",
          "type": "uint256"
        }
      ],
      "name": "Transfer",
      "type": "event"
    },
    {
      "inputs": [
        {
          "internalType": "address",
          "name": "to",
          "type": "address"
        },
        {
          "internalType": "uint256",
          "name": "tokenId",
          "type": "uint256"
        }
      ],
      "name": "approve",
      "outputs": [],
      "stateMutability": "nonpayable",
      "type": "function"
    },
    {
      "inputs": [
        {
          "internalType": "address",
          "name": "owner",
          "type": "address"
        }
      ],
      "name": "balanceOf",
      "outputs": [
        {
          "internalType": "uint256",
          "name": "",
          "type": "uint256"
        }
      ],
      "stateMutability": "view",
      "type": "function"
    },
    {
      "inputs": [
        {
          "internalType": "uint256",
          "name": "tokenId",
          "type": "uint256"
        }
      ],
      "name": "getApproved",
      "outputs": [
        {
          "internalType": "address",
          "name": "",
          "type": "address"
        }
      ],
      "stateMutability": "view",
      "type": "function"
    },
    {
      "inputs": [
        {
          "internalType": "address",
          "name": "owner",
          "type": "address"
        },
        {
          "internalType": "address",
          "name": "operator",
          "type": "address"
        }
      ],
      "name": "isApprovedForAll",
      "outputs": [
        {
          "internalType": "bool",
          "name": "",
          "type": "bool"
        }
      ],
      "stateMutability": "view",
      "type": "function"
    },
    {
      "inputs": [],
      "name": "name",
      "outputs": [
        {
          "internalType": "string",
          "name": "",
          "type": "string"
        }
      ],
      "stateMutability": "view",
      "type": "function"
    },
    {
      "inputs": [],
      "name": "owner",
      "outputs": [
        {
          "internalType": "address",
          "name": "",
          "type": "address"
        }
      ],
      "stateMutability": "view",
      "type": "function"
    },
    {
      "inputs": [
        {
          "internalType": "uint256",
          "name": "tokenId",
          "type": "uint256"
        }
      ],
      "name": "ownerOf",
      "outputs": [
        {
          "internalType": "address",
          "name": "",
          "type": "address"
        }
      ],
      "stateMutability": "view",
      "type": "function"
    },
    {
      "inputs": [],
      "name": "renounceOwnership",
      "outputs": [],
      "stateMutability": "nonpayable",
      "type": "function"
    },
    {
      "inputs": [
        {
          "internalType": "address",
          "name": "operator",
          "type": "address"
        },
        {
          "internalType": "bool",
          "name": "approved",
          "type": "bool"
        }
      ],
      "name": "setApprovalForAll",
      "outputs": [],
      "stateMutability": "nonpayable",
      "type": "function"
    },
    {
      "inputs": [],
      "name": "symbol",
      "outputs": [
        {
          "internalType": "string",
          "name": "",
          "type": "string"
        }
      ],
      "stateMutability": "view",
      "type": "function"
    },
    {
      "inputs": [
        {
          "internalType": "address",
          "name": "newOwner",
          "type": "address"
        }
      ],
      "name": "transferOwnership",
      "outputs": [],
      "stateMutability": "nonpayable",
      "type": "function"
    },
    {
      "inputs": [
        {
          "internalType": "bytes4",
          "name": "interfaceId",
          "type": "bytes4"
        }
      ],
      "name": "supportsInterface",
      "outputs": [
        {
          "internalType": "bool",
          "name": "",
          "type": "bool"
        }
      ],
      "stateMutability": "view",
      "type": "function"
    },
    {
      "inputs": [
        {
          "internalType": "address",
          "name": "to",
          "type": "address"
        },
        {
          "internalType": "string",
          "name": "uri",
          "type": "string"
        },
        {
          "internalType": "uint8",
          "name": "license",
          "type": "uint8"
        },
        {
          "internalType": "uint256",
          "name": "expiryBlock",
          "type": "uint256"
        }
      ],
      "name": "mint",
      "outputs": [
        {
          "internalType": "uint256",
          "name": "",
          "type": "uint256"
        }
      ],
      "stateMutability": "nonpayable",
      "type": "function"
    },
    {
      "inputs": [
        {
          "internalType": "uint256",
          "name": "tokenId",
          "type": "uint256"
        }
      ],
      "name": "tokenURI",
      "outputs": [
        {
          "internalType": "string",
          "name": "",
          "type": "string"
        }
      ],
      "stateMutability": "view",
      "type": "function"
    },
    {
      "inputs": [
        {
          "internalType": "uint256",
          "name": "_tokenId",
          "type": "uint256"
        }
      ],
      "name": "getTokenData",
      "outputs": [
        {
          "internalType": "bytes",
          "name": "tokenData",
          "type": "bytes"
        }
      ],
      "stateMutability": "view",
      "type": "function"
    },
    {
      "inputs": [
        {
          "internalType": "address",
          "name": "from",
          "type": "address"
        },
        {
          "internalType": "address",
          "name": "to",
          "type": "address"
        },
        {
          "internalType": "uint256",
          "name": "tokenId",
          "type": "uint256"
        }
      ],
      "name": "transferFrom",
      "outputs": [],
      "stateMutability": "nonpayable",
      "type": "function"
    },
    {
      "inputs": [
        {
          "internalType": "address",
          "name": "from",
          "type": "address"
        },
        {
          "internalType": "address",
          "name": "to",
          "type": "address"
        },
        {
          "internalType": "uint256",
          "name": "tokenId",
          "type": "uint256"
        }
      ],
      "name": "safeTransferFrom",
      "outputs": [],
      "stateMutability": "nonpayable",
      "type": "function"
    },
    {
      "inputs": [
        {
          "internalType": "address",
          "name": "from",
          "type": "address"
        },
        {
          "internalType": "address",
          "name": "to",
          "type": "address"
        },
        {
          "internalType": "uint256",
          "name": "tokenId",
          "type": "uint256"
        },
        {
          "internalType": "bytes",
          "name": "_data",
          "type": "bytes"
        }
      ],
      "name": "safeTransferFrom",
      "outputs": [],
      "stateMutability": "nonpayable",
      "type": "function"
    },
    {
      "inputs": [
        {
          "internalType": "address",
          "name": "kycAddr",
          "type": "address"
        }
      ],
      "name": "setKYCImplementation",
      "outputs": [],
      "stateMutability": "nonpayable",
      "type": "function"
    },
    {
      "inputs": [],
      "name": "getKYCAddress",
      "outputs": [
        {
          "internalType": "address",
          "name": "",
          "type": "address"
        }
      ],
      "stateMutability": "view",
      "type": "function"
    }
  ],
  "bytecode": "0x60806040523480156200001157600080fd5b5060405162003d8138038062003d8183398181016040528101906200003791906200029f565b6040518060400160405280600e81526020017f5461757265756d204552433732310000000000000000000000000000000000008152506040518060400160405280600781526020017f5461757265756d000000000000000000000000000000000000000000000000008152508160009080519060200190620000bb929190620001d8565b508060019080519060200190620000d4929190620001d8565b5050506000620000e9620001d060201b60201c565b905080600660006101000a81548173ffffffffffffffffffffffffffffffffffffffff021916908373ffffffffffffffffffffffffffffffffffffffff1602179055508073ffffffffffffffffffffffffffffffffffffffff16600073ffffffffffffffffffffffffffffffffffffffff167f8be0079c531659141344cd1fd0a4f28419497f9722a3daafe3b4186f6b6457e060405160405180910390a35080600760006101000a81548173ffffffffffffffffffffffffffffffffffffffff021916908373ffffffffffffffffffffffffffffffffffffffff160217905550506200037e565b600033905090565b828054620001e690620002ff565b90600052602060002090601f0160209004810192826200020a576000855562000256565b82601f106200022557805160ff191683800117855562000256565b8280016001018555821562000256579182015b828111156200025557825182559160200191906001019062000238565b5b50905062000265919062000269565b5090565b5b80821115620002845760008160009055506001016200026a565b5090565b600081519050620002998162000364565b92915050565b600060208284031215620002b257600080fd5b6000620002c28482850162000288565b91505092915050565b6000620002d882620002df565b9050919050565b600073ffffffffffffffffffffffffffffffffffffffff82169050919050565b600060028204905060018216806200031857607f821691505b602082108114156200032f576200032e62000335565b5b50919050565b7f4e487b7100000000000000000000000000000000000000000000000000000000600052602260045260246000fd5b6200036f81620002cb565b81146200037b57600080fd5b50565b6139f3806200038e6000396000f3fe608060405234801561001057600080fd5b506004361061012c5760003560e01c8063862b0604116100ad578063b88d4fde11610071578063b88d4fde1461032f578063c87b56dd1461034b578063e985e9c51461037b578063f2fde38b146103ab578063f67e3c4a146103c75761012c565b8063862b06041461028b5780638da5cb5b146102a757806395d89b41146102c5578063a22cb465146102e3578063b09afec1146102ff5761012c565b806342842e0e116100f457806342842e0e146101e75780635e336761146102035780636352211e1461022157806370a0823114610251578063715018a6146102815761012c565b806301ffc9a71461013157806306fdde0314610161578063081812fc1461017f578063095ea7b3146101af57806323b872dd146101cb575b600080fd5b61014b60048036038101906101469190612762565b6103f7565b6040516101589190612d9d565b60405180910390f35b6101696104d9565b6040516101769190612dda565b60405180910390f35b610199600480360381019061019491906127b4565b61056b565b6040516101a69190612ce8565b60405180910390f35b6101c960048036038101906101c491906126fd565b6105f0565b005b6101e560048036038101906101e09190612577565b610708565b005b61020160048036038101906101fc9190612577565b6108bd565b005b61020b6108dd565b6040516102189190612ce8565b60405180910390f35b61023b600480360381019061023691906127b4565b610907565b6040516102489190612ce8565b60405180910390f35b61026b60048036038101906102669190612512565b6109b9565b60405161027891906130bc565b60405180910390f35b610289610a71565b005b6102a560048036038101906102a09190612512565b610bae565b005b6102af610c6e565b6040516102bc9190612ce8565b60405180910390f35b6102cd610c98565b6040516102da9190612dda565b60405180910390f35b6102fd60048036038101906102f89190612641565b610d2a565b005b610319600480360381019061031491906127b4565b610eab565b6040516103269190612db8565b60405180910390f35b610349600480360381019061034491906125c6565b610f94565b005b610365600480360381019061036091906127b4565b61114b565b6040516103729190612dda565b60405180910390f35b6103956004803603810190610390919061253b565b611288565b6040516103a29190612d9d565b60405180910390f35b6103c560048036038101906103c09190612512565b61131c565b005b6103e160048036038101906103dc919061267d565b6114c8565b6040516103ee91906130bc565b60405180910390f35b60007f80ac58cd000000000000000000000000000000000000000000000000000000007bffffffffffffffffffffffffffffffffffffffffffffffffffffffff1916827bffffffffffffffffffffffffffffffffffffffffffffffffffffffff191614806104c257507f5b5e139f000000000000000000000000000000000000000000000000000000007bffffffffffffffffffffffffffffffffffffffffffffffffffffffff1916827bffffffffffffffffffffffffffffffffffffffffffffffffffffffff1916145b806104d257506104d1826115ed565b5b9050919050565b6060600080546104e8906132d2565b80601f0160208091040260200160405190810160405280929190818152602001828054610514906132d2565b80156105615780601f1061053657610100808354040283529160200191610561565b820191906000526020600020905b81548152906001019060200180831161054457829003601f168201915b5050505050905090565b6000610576826116cf565b6105b5576040517f08c379a00000000000000000000000000000000000000000000000000000000081526004016105ac90612f7c565b60405180910390fd5b6004600083815260200190815260200160002060009054906101000a900473ffffffffffffffffffffffffffffffffffffffff169050919050565b60006105fb82610907565b90508073ffffffffffffffffffffffffffffffffffffffff168373ffffffffffffffffffffffffffffffffffffffff16141561066c576040517f08c379a00000000000000000000000000000000000000000000000000000000081526004016106639061303c565b60405180910390fd5b8073ffffffffffffffffffffffffffffffffffffffff1661068b61173b565b73ffffffffffffffffffffffffffffffffffffffff1614806106ba57506106b9816106b461173b565b611288565b5b6106f9576040517f08c379a00000000000000000000000000000000000000000000000000000000081526004016106f090612edc565b60405180910390fd5b6107038383611743565b505050565b80610712816117fc565b610751576040517f08c379a000000000000000000000000000000000000000000000000000000000815260040161074890612fbc565b60405180910390fd5b82600061075d826109b9565b90506000600760009054906101000a900473ffffffffffffffffffffffffffffffffffffffff1673ffffffffffffffffffffffffffffffffffffffff16633da1c0c3846040518263ffffffff1660e01b81526004016107bc9190612ce8565b60206040518083038186803b1580156107d457600080fd5b505afa1580156107e8573d6000803e3d6000fd5b505050506040513d601f19601f8201168201806040525081019061080c9190612739565b9050808061081a5750600a82105b610859576040517f08c379a000000000000000000000000000000000000000000000000000000000815260040161085090612e5c565b60405180910390fd5b61086a61086461173b565b866118fd565b6108a9576040517f08c379a00000000000000000000000000000000000000000000000000000000081526004016108a09061305c565b60405180910390fd5b6108b48787876119db565b50505050505050565b6108d883838360405180602001604052806000815250610f94565b505050565b6000600760009054906101000a900473ffffffffffffffffffffffffffffffffffffffff16905090565b6000806002600084815260200190815260200160002060009054906101000a900473ffffffffffffffffffffffffffffffffffffffff169050600073ffffffffffffffffffffffffffffffffffffffff168173ffffffffffffffffffffffffffffffffffffffff1614156109b0576040517f08c379a00000000000000000000000000000000000000000000000000000000081526004016109a790612f1c565b60405180910390fd5b80915050919050565b60008073ffffffffffffffffffffffffffffffffffffffff168273ffffffffffffffffffffffffffffffffffffffff161415610a2a576040517f08c379a0000000000000000000000000000000000000000000000000000000008152600401610a2190612efc565b60405180910390fd5b600360008373ffffffffffffffffffffffffffffffffffffffff1673ffffffffffffffffffffffffffffffffffffffff168152602001908152602001600020549050919050565b610a7961173b565b73ffffffffffffffffffffffffffffffffffffffff16610a97610c6e565b73ffffffffffffffffffffffffffffffffffffffff1614610aed576040517f08c379a0000000000000000000000000000000000000000000000000000000008152600401610ae490612f9c565b60405180910390fd5b600073ffffffffffffffffffffffffffffffffffffffff16600660009054906101000a900473ffffffffffffffffffffffffffffffffffffffff1673ffffffffffffffffffffffffffffffffffffffff167f8be0079c531659141344cd1fd0a4f28419497f9722a3daafe3b4186f6b6457e060405160405180910390a36000600660006101000a81548173ffffffffffffffffffffffffffffffffffffffff021916908373ffffffffffffffffffffffffffffffffffffffff160217905550565b610bb661173b565b73ffffffffffffffffffffffffffffffffffffffff16610bd4610c6e565b73ffffffffffffffffffffffffffffffffffffffff1614610c2a576040517f08c379a0000000000000000000000000000000000000000000000000000000008152600401610c2190612f9c565b60405180910390fd5b80600760006101000a81548173ffffffffffffffffffffffffffffffffffffffff021916908373ffffffffffffffffffffffffffffffffffffffff16021790555050565b6000600660009054906101000a900473ffffffffffffffffffffffffffffffffffffffff16905090565b606060018054610ca7906132d2565b80601f0160208091040260200160405190810160405280929190818152602001828054610cd3906132d2565b8015610d205780601f10610cf557610100808354040283529160200191610d20565b820191906000526020600020905b815481529060010190602001808311610d0357829003601f168201915b5050505050905090565b610d3261173b565b73ffffffffffffffffffffffffffffffffffffffff168273ffffffffffffffffffffffffffffffffffffffff161415610da0576040517f08c379a0000000000000000000000000000000000000000000000000000000008152600401610d9790612e9c565b60405180910390fd5b8060056000610dad61173b565b73ffffffffffffffffffffffffffffffffffffffff1673ffffffffffffffffffffffffffffffffffffffff16815260200190815260200160002060008473ffffffffffffffffffffffffffffffffffffffff1673ffffffffffffffffffffffffffffffffffffffff16815260200190815260200160002060006101000a81548160ff0219169083151502179055508173ffffffffffffffffffffffffffffffffffffffff16610e5a61173b565b73ffffffffffffffffffffffffffffffffffffffff167f17307eab39ab6107e8899845ad3d59bd9653f200f220920489ca2b5937696c3183604051610e9f9190612d9d565b60405180910390a35050565b6060600a60008381526020019081526020016000208054610ecb906132d2565b80601f0160208091040260200160405190810160405280929190818152602001828054610ef7906132d2565b8015610f445780601f10610f1957610100808354040283529160200191610f44565b820191906000526020600020905b815481529060010190602001808311610f2757829003601f168201915b505050505090506021815114610f8f576040517f08c379a0000000000000000000000000000000000000000000000000000000008152600401610f8690612f3c565b60405180910390fd5b919050565b81610f9e816117fc565b610fdd576040517f08c379a0000000000000000000000000000000000000000000000000000000008152600401610fd490612fbc565b60405180910390fd5b836000610fe9826109b9565b90506000600760009054906101000a900473ffffffffffffffffffffffffffffffffffffffff1673ffffffffffffffffffffffffffffffffffffffff16633da1c0c3846040518263ffffffff1660e01b81526004016110489190612ce8565b60206040518083038186803b15801561106057600080fd5b505afa158015611074573d6000803e3d6000fd5b505050506040513d601f19601f820116820180604052508101906110989190612739565b905080806110a65750600a82105b6110e5576040517f08c379a00000000000000000000000000000000000000000000000000000000081526004016110dc90612e5c565b60405180910390fd5b6110f66110f061173b565b876118fd565b611135576040517f08c379a000000000000000000000000000000000000000000000000000000000815260040161112c9061305c565b60405180910390fd5b61114188888888611c37565b5050505050505050565b6060611156826116cf565b611195576040517f08c379a000000000000000000000000000000000000000000000000000000000815260040161118c90612ffc565b60405180910390fd5b600061119f611c93565b9050600081511161124b576008600084815260200190815260200160002080546111c8906132d2565b80601f01602080910402602001604051908101604052809291908181526020018280546111f4906132d2565b80156112415780601f1061121657610100808354040283529160200191611241565b820191906000526020600020905b81548152906001019060200180831161122457829003601f168201915b5050505050611280565b8060086000858152602001908152602001600020604051602001611270929190612c98565b6040516020818303038152906040525b915050919050565b6000600560008473ffffffffffffffffffffffffffffffffffffffff1673ffffffffffffffffffffffffffffffffffffffff16815260200190815260200160002060008373ffffffffffffffffffffffffffffffffffffffff1673ffffffffffffffffffffffffffffffffffffffff16815260200190815260200160002060009054906101000a900460ff16905092915050565b61132461173b565b73ffffffffffffffffffffffffffffffffffffffff16611342610c6e565b73ffffffffffffffffffffffffffffffffffffffff1614611398576040517f08c379a000000000000000000000000000000000000000000000000000000000815260040161138f90612f9c565b60405180910390fd5b600073ffffffffffffffffffffffffffffffffffffffff168173ffffffffffffffffffffffffffffffffffffffff161415611408576040517f08c379a00000000000000000000000000000000000000000000000000000000081526004016113ff90612e1c565b60405180910390fd5b8073ffffffffffffffffffffffffffffffffffffffff16600660009054906101000a900473ffffffffffffffffffffffffffffffffffffffff1673ffffffffffffffffffffffffffffffffffffffff167f8be0079c531659141344cd1fd0a4f28419497f9722a3daafe3b4186f6b6457e060405160405180910390a380600660006101000a81548173ffffffffffffffffffffffffffffffffffffffff021916908373ffffffffffffffffffffffffffffffffffffffff16021790555050565b60008560006114d6826109b9565b90506000600760009054906101000a900473ffffffffffffffffffffffffffffffffffffffff1673ffffffffffffffffffffffffffffffffffffffff16633da1c0c3846040518263ffffffff1660e01b81526004016115359190612ce8565b60206040518083038186803b15801561154d57600080fd5b505afa158015611561573d6000803e3d6000fd5b505050506040513d601f19601f820116820180604052508101906115859190612739565b905080806115935750600a82105b6115d2576040517f08c379a00000000000000000000000000000000000000000000000000000000081526004016115c990612e5c565b60405180910390fd5b6115df8989898989611cd0565b935050505095945050505050565b60007f80ac58cd000000000000000000000000000000000000000000000000000000007bffffffffffffffffffffffffffffffffffffffffffffffffffffffff1916827bffffffffffffffffffffffffffffffffffffffffffffffffffffffff191614806116b857507f5b5e139f000000000000000000000000000000000000000000000000000000007bffffffffffffffffffffffffffffffffffffffffffffffffffffffff1916827bffffffffffffffffffffffffffffffffffffffffffffffffffffffff1916145b806116c857506116c782611e4d565b5b9050919050565b60008073ffffffffffffffffffffffffffffffffffffffff166002600084815260200190815260200160002060009054906101000a900473ffffffffffffffffffffffffffffffffffffffff1673ffffffffffffffffffffffffffffffffffffffff1614159050919050565b600033905090565b816004600083815260200190815260200160002060006101000a81548173ffffffffffffffffffffffffffffffffffffffff021916908373ffffffffffffffffffffffffffffffffffffffff160217905550808273ffffffffffffffffffffffffffffffffffffffff166117b683610907565b73ffffffffffffffffffffffffffffffffffffffff167f8c5be1e5ebec7d5bd14f71427d1e84f3dd0314c0f7b2291e5b200ac8c7c3b92560405160405180910390a45050565b6000806009600084815260200190815260200160002060009054906101000a900473ffffffffffffffffffffffffffffffffffffffff169050600061184084610eab565b905060008160008151811061187e577f4e487b7100000000000000000000000000000000000000000000000000000000600052603260045260246000fd5b602001015160f81c60f81b60f81c905060018160ff16141580156118ce57508273ffffffffffffffffffffffffffffffffffffffff163373ffffffffffffffffffffffffffffffffffffffff1614155b156118df57600093505050506118f8565b6000600183019250602083015190508043109450505050505b919050565b6000611908826116cf565b611947576040517f08c379a000000000000000000000000000000000000000000000000000000000815260040161193e90612ebc565b60405180910390fd5b600061195283610907565b90508073ffffffffffffffffffffffffffffffffffffffff168473ffffffffffffffffffffffffffffffffffffffff1614806119c157508373ffffffffffffffffffffffffffffffffffffffff166119a98461056b565b73ffffffffffffffffffffffffffffffffffffffff16145b806119d257506119d18185611288565b5b91505092915050565b8273ffffffffffffffffffffffffffffffffffffffff166119fb82610907565b73ffffffffffffffffffffffffffffffffffffffff1614611a51576040517f08c379a0000000000000000000000000000000000000000000000000000000008152600401611a4890612fdc565b60405180910390fd5b600073ffffffffffffffffffffffffffffffffffffffff168273ffffffffffffffffffffffffffffffffffffffff161415611ac1576040517f08c379a0000000000000000000000000000000000000000000000000000000008152600401611ab890612e7c565b60405180910390fd5b611acc838383611eb7565b611ad7600082611743565b6001600360008573ffffffffffffffffffffffffffffffffffffffff1673ffffffffffffffffffffffffffffffffffffffff1681526020019081526020016000206000828254611b2791906131db565b925050819055506001600360008473ffffffffffffffffffffffffffffffffffffffff1673ffffffffffffffffffffffffffffffffffffffff1681526020019081526020016000206000828254611b7e9190613185565b92505081905550816002600083815260200190815260200160002060006101000a81548173ffffffffffffffffffffffffffffffffffffffff021916908373ffffffffffffffffffffffffffffffffffffffff160217905550808273ffffffffffffffffffffffffffffffffffffffff168473ffffffffffffffffffffffffffffffffffffffff167fddf252ad1be2c89b69c2b068fc378daa952ba7f163c4a11628f55a4df523b3ef60405160405180910390a4505050565b611c428484846119db565b611c4e84848484611ebc565b611c8d576040517f08c379a0000000000000000000000000000000000000000000000000000000008152600401611c8490612dfc565b60405180910390fd5b50505050565b60606040518060400160405280600781526020017f697066733a2f2f00000000000000000000000000000000000000000000000000815250905090565b600060028360ff1610611d18576040517f08c379a0000000000000000000000000000000000000000000000000000000008152600401611d0f9061307c565b60405180910390fd5b438211611d5a576040517f08c379a0000000000000000000000000000000000000000000000000000000008152600401611d519061301c565b60405180910390fd5b60008686868686604051602001611d75959493929190612d4f565b6040516020818303038152906040528051906020012060001c9050611d9a8782612053565b611da5818787612221565b866009600083815260200190815260200160002060006101000a81548173ffffffffffffffffffffffffffffffffffffffff021916908373ffffffffffffffffffffffffffffffffffffffff1602179055508383604051602001611e0a929190612cbc565b604051602081830303815290604052600a60008381526020019081526020016000209080519060200190611e3f9291906122a4565b508091505095945050505050565b60007f01ffc9a7000000000000000000000000000000000000000000000000000000007bffffffffffffffffffffffffffffffffffffffffffffffffffffffff1916827bffffffffffffffffffffffffffffffffffffffffffffffffffffffff1916149050919050565b505050565b6000611edd8473ffffffffffffffffffffffffffffffffffffffff16612291565b15612046578373ffffffffffffffffffffffffffffffffffffffff1663150b7a02611f0661173b565b8786866040518563ffffffff1660e01b8152600401611f289493929190612d03565b602060405180830381600087803b158015611f4257600080fd5b505af1925050508015611f7357506040513d601f19601f82011682018060405250810190611f70919061278b565b60015b611ff6573d8060008114611fa3576040519150601f19603f3d011682016040523d82523d6000602084013e611fa8565b606091505b50600081511415611fee576040517f08c379a0000000000000000000000000000000000000000000000000000000008152600401611fe590612dfc565b60405180910390fd5b805181602001fd5b63150b7a0260e01b7bffffffffffffffffffffffffffffffffffffffffffffffffffffffff1916817bffffffffffffffffffffffffffffffffffffffffffffffffffffffff19161491505061204b565b600190505b949350505050565b600073ffffffffffffffffffffffffffffffffffffffff168273ffffffffffffffffffffffffffffffffffffffff1614156120c3576040517f08c379a00000000000000000000000000000000000000000000000000000000081526004016120ba90612f5c565b60405180910390fd5b6120cc816116cf565b1561210c576040517f08c379a000000000000000000000000000000000000000000000000000000000815260040161210390612e3c565b60405180910390fd5b61211860008383611eb7565b6001600360008473ffffffffffffffffffffffffffffffffffffffff1673ffffffffffffffffffffffffffffffffffffffff16815260200190815260200160002060008282546121689190613185565b92505081905550816002600083815260200190815260200160002060006101000a81548173ffffffffffffffffffffffffffffffffffffffff021916908373ffffffffffffffffffffffffffffffffffffffff160217905550808273ffffffffffffffffffffffffffffffffffffffff16600073ffffffffffffffffffffffffffffffffffffffff167fddf252ad1be2c89b69c2b068fc378daa952ba7f163c4a11628f55a4df523b3ef60405160405180910390a45050565b61222a836116cf565b612269576040517f08c379a00000000000000000000000000000000000000000000000000000000081526004016122609061309c565b60405180910390fd5b818160086000868152602001908152602001600020919061228b92919061232a565b50505050565b600080823b905060008111915050919050565b8280546122b0906132d2565b90600052602060002090601f0160209004810192826122d25760008555612319565b82601f106122eb57805160ff1916838001178555612319565b82800160010185558215612319579182015b828111156123185782518255916020019190600101906122fd565b5b50905061232691906123b0565b5090565b828054612336906132d2565b90600052602060002090601f016020900481019282612358576000855561239f565b82601f1061237157803560ff191683800117855561239f565b8280016001018555821561239f579182015b8281111561239e578235825591602001919060010190612383565b5b5090506123ac91906123b0565b5090565b5b808211156123c95760008160009055506001016123b1565b5090565b60006123e06123db846130fc565b6130d7565b9050828152602081018484840111156123f857600080fd5b612403848285613290565b509392505050565b60008135905061241a8161394a565b92915050565b60008135905061242f81613961565b92915050565b60008151905061244481613961565b92915050565b60008135905061245981613978565b92915050565b60008151905061246e81613978565b92915050565b600082601f83011261248557600080fd5b81356124958482602086016123cd565b91505092915050565b60008083601f8401126124b057600080fd5b8235905067ffffffffffffffff8111156124c957600080fd5b6020830191508360018202830111156124e157600080fd5b9250929050565b6000813590506124f78161398f565b92915050565b60008135905061250c816139a6565b92915050565b60006020828403121561252457600080fd5b60006125328482850161240b565b91505092915050565b6000806040838503121561254e57600080fd5b600061255c8582860161240b565b925050602061256d8582860161240b565b9150509250929050565b60008060006060848603121561258c57600080fd5b600061259a8682870161240b565b93505060206125ab8682870161240b565b92505060406125bc868287016124e8565b9150509250925092565b600080600080608085870312156125dc57600080fd5b60006125ea8782880161240b565b94505060206125fb8782880161240b565b935050604061260c878288016124e8565b925050606085013567ffffffffffffffff81111561262957600080fd5b61263587828801612474565b91505092959194509250565b6000806040838503121561265457600080fd5b60006126628582860161240b565b925050602061267385828601612420565b9150509250929050565b60008060008060006080868803121561269557600080fd5b60006126a38882890161240b565b955050602086013567ffffffffffffffff8111156126c057600080fd5b6126cc8882890161249e565b945094505060406126df888289016124fd565b92505060606126f0888289016124e8565b9150509295509295909350565b6000806040838503121561271057600080fd5b600061271e8582860161240b565b925050602061272f858286016124e8565b9150509250929050565b60006020828403121561274b57600080fd5b600061275984828501612435565b91505092915050565b60006020828403121561277457600080fd5b60006127828482850161244a565b91505092915050565b60006020828403121561279d57600080fd5b60006127ab8482850161245f565b91505092915050565b6000602082840312156127c657600080fd5b60006127d4848285016124e8565b91505092915050565b6127e68161320f565b82525050565b6127f581613221565b82525050565b600061280682613142565b6128108185613158565b935061282081856020860161329f565b612829816133de565b840191505092915050565b60006128408385613169565b935061284d838584613290565b612856836133de565b840190509392505050565b600061286c8261314d565b6128768185613169565b935061288681856020860161329f565b61288f816133de565b840191505092915050565b60006128a58261314d565b6128af818561317a565b93506128bf81856020860161329f565b80840191505092915050565b600081546128d8816132d2565b6128e2818661317a565b945060018216600081146128fd576001811461290e57612941565b60ff19831686528186019350612941565b6129178561312d565b60005b838110156129395781548189015260018201915060208101905061291a565b838801955050505b50505092915050565b6000612957603283613169565b9150612962826133fc565b604082019050919050565b600061297a602683613169565b91506129858261344b565b604082019050919050565b600061299d601c83613169565b91506129a88261349a565b602082019050919050565b60006129c0601683613169565b91506129cb826134c3565b602082019050919050565b60006129e3602483613169565b91506129ee826134ec565b604082019050919050565b6000612a06601983613169565b9150612a118261353b565b602082019050919050565b6000612a29602c83613169565b9150612a3482613564565b604082019050919050565b6000612a4c603883613169565b9150612a57826135b3565b604082019050919050565b6000612a6f602a83613169565b9150612a7a82613602565b604082019050919050565b6000612a92602983613169565b9150612a9d82613651565b604082019050919050565b6000612ab5600f83613169565b9150612ac0826136a0565b602082019050919050565b6000612ad8602083613169565b9150612ae3826136c9565b602082019050919050565b6000612afb602c83613169565b9150612b06826136f2565b604082019050919050565b6000612b1e602083613169565b9150612b2982613741565b602082019050919050565b6000612b41601683613169565b9150612b4c8261376a565b602082019050919050565b6000612b64602983613169565b9150612b6f82613793565b604082019050919050565b6000612b87602f83613169565b9150612b92826137e2565b604082019050919050565b6000612baa601583613169565b9150612bb582613831565b602082019050919050565b6000612bcd602183613169565b9150612bd88261385a565b604082019050919050565b6000612bf0603183613169565b9150612bfb826138a9565b604082019050919050565b6000612c13601683613169565b9150612c1e826138f8565b602082019050919050565b6000612c36601483613169565b9150612c4182613921565b602082019050919050565b612c5581613279565b82525050565b612c6c612c6782613279565b613335565b82525050565b612c7b81613283565b82525050565b612c92612c8d82613283565b61333f565b82525050565b6000612ca4828561289a565b9150612cb082846128cb565b91508190509392505050565b6000612cc88285612c81565b600182019150612cd88284612c5b565b6020820191508190509392505050565b6000602082019050612cfd60008301846127dd565b92915050565b6000608082019050612d1860008301876127dd565b612d2560208301866127dd565b612d326040830185612c4c565b8181036060830152612d4481846127fb565b905095945050505050565b6000608082019050612d6460008301886127dd565b8181036020830152612d77818688612834565b9050612d866040830185612c72565b612d936060830184612c4c565b9695505050505050565b6000602082019050612db260008301846127ec565b92915050565b60006020820190508181036000830152612dd281846127fb565b905092915050565b60006020820190508181036000830152612df48184612861565b905092915050565b60006020820190508181036000830152612e158161294a565b9050919050565b60006020820190508181036000830152612e358161296d565b9050919050565b60006020820190508181036000830152612e5581612990565b9050919050565b60006020820190508181036000830152612e75816129b3565b9050919050565b60006020820190508181036000830152612e95816129d6565b9050919050565b60006020820190508181036000830152612eb5816129f9565b9050919050565b60006020820190508181036000830152612ed581612a1c565b9050919050565b60006020820190508181036000830152612ef581612a3f565b9050919050565b60006020820190508181036000830152612f1581612a62565b9050919050565b60006020820190508181036000830152612f3581612a85565b9050919050565b60006020820190508181036000830152612f5581612aa8565b9050919050565b60006020820190508181036000830152612f7581612acb565b9050919050565b60006020820190508181036000830152612f9581612aee565b9050919050565b60006020820190508181036000830152612fb581612b11565b9050919050565b60006020820190508181036000830152612fd581612b34565b9050919050565b60006020820190508181036000830152612ff581612b57565b9050919050565b6000602082019050818103600083015261301581612b7a565b9050919050565b6000602082019050818103600083015261303581612b9d565b9050919050565b6000602082019050818103600083015261305581612bc0565b9050919050565b6000602082019050818103600083015261307581612be3565b9050919050565b6000602082019050818103600083015261309581612c06565b9050919050565b600060208201905081810360008301526130b581612c29565b9050919050565b60006020820190506130d16000830184612c4c565b92915050565b60006130e16130f2565b90506130ed8282613304565b919050565b6000604051905090565b600067ffffffffffffffff821115613117576131166133af565b5b613120826133de565b9050602081019050919050565b60008190508160005260206000209050919050565b600081519050919050565b600081519050919050565b600082825260208201905092915050565b600082825260208201905092915050565b600081905092915050565b600061319082613279565b915061319b83613279565b9250827fffffffffffffffffffffffffffffffffffffffffffffffffffffffffffffffff038211156131d0576131cf613351565b5b828201905092915050565b60006131e682613279565b91506131f183613279565b92508282101561320457613203613351565b5b828203905092915050565b600061321a82613259565b9050919050565b60008115159050919050565b60007fffffffff0000000000000000000000000000000000000000000000000000000082169050919050565b600073ffffffffffffffffffffffffffffffffffffffff82169050919050565b6000819050919050565b600060ff82169050919050565b82818337600083830152505050565b60005b838110156132bd5780820151818401526020810190506132a2565b838111156132cc576000848401525b50505050565b600060028204905060018216806132ea57607f821691505b602082108114156132fe576132fd613380565b5b50919050565b61330d826133de565b810181811067ffffffffffffffff8211171561332c5761332b6133af565b5b80604052505050565b6000819050919050565b600061334a826133ef565b9050919050565b7f4e487b7100000000000000000000000000000000000000000000000000000000600052601160045260246000fd5b7f4e487b7100000000000000000000000000000000000000000000000000000000600052602260045260246000fd5b7f4e487b7100000000000000000000000000000000000000000000000000000000600052604160045260246000fd5b6000601f19601f8301169050919050565b60008160f81b9050919050565b7f4552433732313a207472616e7366657220746f206e6f6e20455243373231526560008201527f63656976657220696d706c656d656e7465720000000000000000000000000000602082015250565b7f4f776e61626c653a206e6577206f776e657220697320746865207a65726f206160008201527f6464726573730000000000000000000000000000000000000000000000000000602082015250565b7f4552433732313a20746f6b656e20616c7265616479206d696e74656400000000600082015250565b7f4e46545f434f554e545f4d41585f455843454544454400000000000000000000600082015250565b7f4552433732313a207472616e7366657220746f20746865207a65726f2061646460008201527f7265737300000000000000000000000000000000000000000000000000000000602082015250565b7f4552433732313a20617070726f766520746f2063616c6c657200000000000000600082015250565b7f4552433732313a206f70657261746f7220717565727920666f72206e6f6e657860008201527f697374656e7420746f6b656e0000000000000000000000000000000000000000602082015250565b7f4552433732313a20617070726f76652063616c6c6572206973206e6f74206f7760008201527f6e6572206e6f7220617070726f76656420666f7220616c6c0000000000000000602082015250565b7f4552433732313a2062616c616e636520717565727920666f7220746865207a6560008201527f726f206164647265737300000000000000000000000000000000000000000000602082015250565b7f4552433732313a206f776e657220717565727920666f72206e6f6e657869737460008201527f656e7420746f6b656e0000000000000000000000000000000000000000000000602082015250565b7f544f4b454e5f4e4f545f45584953540000000000000000000000000000000000600082015250565b7f4552433732313a206d696e7420746f20746865207a65726f2061646472657373600082015250565b7f4552433732313a20617070726f76656420717565727920666f72206e6f6e657860008201527f697374656e7420746f6b656e0000000000000000000000000000000000000000602082015250565b7f4f776e61626c653a2063616c6c6572206973206e6f7420746865206f776e6572600082015250565b7f544f4b454e5f4e4f545f5452414e5346455241424c4500000000000000000000600082015250565b7f4552433732313a207472616e73666572206f6620746f6b656e2074686174206960008201527f73206e6f74206f776e0000000000000000000000000000000000000000000000602082015250565b7f4552433732314d657461646174613a2055524920717565727920666f72206e6f60008201527f6e6578697374656e7420746f6b656e0000000000000000000000000000000000602082015250565b7f4558504952595f444154455f4e4f545f56414c49440000000000000000000000600082015250565b7f4552433732313a20617070726f76616c20746f2063757272656e74206f776e6560008201527f7200000000000000000000000000000000000000000000000000000000000000602082015250565b7f4552433732313a207472616e736665722063616c6c6572206973206e6f74206f60008201527f776e6572206e6f7220617070726f766564000000000000000000000000000000602082015250565b7f4c4943454e53455f4d5553545f42455f4f5f4f525f3100000000000000000000600082015250565b7f544f4b454e5f49445f4e4f545f45584953544544000000000000000000000000600082015250565b6139538161320f565b811461395e57600080fd5b50565b61396a81613221565b811461397557600080fd5b50565b6139818161322d565b811461398c57600080fd5b50565b61399881613279565b81146139a357600080fd5b50565b6139af81613283565b81146139ba57600080fd5b5056fea264697066735822122082a9aff72d4e62db447bacf1dd66e9d89c15033f9cb93a401c33339e62b6e6df64736f6c63430008040033",
  "immutableReferences": {},
  "source": "// SPDX-License-Identifier: UNLICENSED\n\npragma solidity 0.8.4;\n\nimport \"./lib/token/ERC721/ERC721.sol\";\nimport \"./lib/access/AccessControl.sol\";\nimport \"./ITaureumKYC.sol\";\nimport \"./lib/utils/Counters.sol\";\nimport \"./lib/access/Ownable.sol\";\n\ncontract TaureumERC721 is ERC721, Ownable {\n    /**\n     * @dev The contract address for the KYC entry.\n     */\n    address internal _KYCAddress;\n\n    /**\n     * @dev Mapping from NFT ID to metadata uri.\n     */\n    mapping(uint256 => string) internal idToUri;\n\n    /**\n     * @dev Mapping from NFT ID to its first owner.\n     */\n    mapping(uint256 => address) internal idToFirstOwner;\n\n    /**\n     * @dev Mapping from NFT ID to the NFT property (encode the tokenData struct).\n     *  - 1st byte determines the license type: 0 => personal license, 1 => full license).\n     *  - Next 32 bytes determine the expiry date (expiry block number): MaxUint => no expiry date.\n     *\n     * TODO: consider adding the URI to this mapping.\n     */\n    mapping(uint256 => bytes) internal idToProperty;\n\n    /**\n   * @dev Guarantee that _to is able to receive more NFTs.\n   * @param _to Owner address to validate.\n   */\n    modifier canReceiveNFT(\n        address _to\n    )\n    {\n        uint256 balance = balanceOf(_to);\n        bool isVerifiedUser = ITaureumKYC(_KYCAddress).isVerifiedUser(_to);\n\n        require(isVerifiedUser || balance < 10, \"NFT_COUNT_MAX_EXCEEDED\");\n        _;\n    }\n\n    /**\n     * @dev Guarantee the _tokenId is not expired and transferable.\n     * @param _tokenId The NFT token ID to validate.\n     */\n    modifier transferable(\n        uint256 _tokenId\n    ) {\n        require(_isTransferable(_tokenId), \"TOKEN_NOT_TRANSFERABLE\");\n        _;\n    }\n\n    /**\n     * @dev Emitted when `tokenId` token is minted for `to`.\n     */\n    event Mint(address indexed to, uint256 indexed tokenId, string uri, uint expiryDate);\n\n    /**\n     * @dev Create a new TaureumERC721 contract and assign the KYCAddress to _KYCAddress.\n     *\n     * TODO: change the default name and symbol.\n     */\n    constructor(address KYCAddress) ERC721(\"Taureum ERC721\", \"Taureum\") Ownable() {\n        _KYCAddress = KYCAddress;\n    }\n\n    /**\n     * @dev See {IERC165-supportsInterface}.\n     */\n    function supportsInterface(bytes4 interfaceId) public view virtual override returns (bool) {\n        return\n        interfaceId == type(IERC721).interfaceId ||\n        interfaceId == type(IERC721Metadata).interfaceId ||\n        super.supportsInterface(interfaceId);\n    }\n\n    /**\n      * @dev Mint a new NFT.\n      * @notice It throws an exception if\n      *    - `to` cannot receive NFTs.\n      * @param to The address that will own the minted NFT.\n      * @param uri The URI consists of metadata description of the minting NFT on the IPFS (without prefix).\n      * @param license The license of the minting NFT (0 - personally-licensed or 1 - fully-licensed).\n      * @param expiryBlock The block number at which the minting NFT is expired.\n      */\n    function mint(\n        address to,\n        string calldata uri,\n        uint8 license,\n        uint expiryBlock\n    )\n    public\n    canReceiveNFT(to)\n    returns (uint256)\n    {\n        return _mint(to, uri, license, expiryBlock);\n    }\n\n    /**\n     * @dev See {IERC721Metadata-tokenURI}.\n     */\n    function tokenURI(uint256 tokenId) public view override returns (string memory) {\n        require(_exists(tokenId), \"ERC721Metadata: URI query for nonexistent token\");\n\n        string memory baseURI = _baseURI();\n        return bytes(baseURI).length > 0 ? string(abi.encodePacked(baseURI, idToUri[tokenId])) : idToUri[tokenId];\n    }\n\n    /**\n     * @dev Return the properties of an NFT token.\n     * @notice It throws if the tokenId does not exist.\n     * @param _tokenId The NFT tokenID to check.\n     */\n    function getTokenData(uint256 _tokenId) public view returns(bytes memory tokenData) {\n        tokenData = idToProperty[_tokenId];\n        require(tokenData.length == 33, \"TOKEN_NOT_EXIST\");\n        return tokenData;\n    }\n\n    /**\n     * @dev See {IERC721-transferFrom}.\n     * @notice It throws an exception if\n     *      - the tokenId is not transferable.\n     *      - the receiver `to` cannot receive more TaureumNFTs.\n     */\n    function transferFrom(\n        address from,\n        address to,\n        uint256 tokenId\n    ) public override transferable(tokenId) canReceiveNFT(to) {\n        //solhint-disable-next-line max-line-length\n        require(_isApprovedOrOwner(_msgSender(), tokenId), \"ERC721: transfer caller is not owner nor approved\");\n\n        _transfer(from, to, tokenId);\n    }\n\n    /**\n     * @dev See {IERC721-safeTransferFrom}.\n     * @notice It throws an exception if\n     *      - the tokenId is not transferable.\n     *      - the receiver `to` cannot receive more TaureumNFTs.\n     */\n    function safeTransferFrom(\n        address from,\n        address to,\n        uint256 tokenId,\n        bytes memory _data\n    ) public override transferable(tokenId) canReceiveNFT(to) {\n        require(_isApprovedOrOwner(_msgSender(), tokenId), \"ERC721: transfer caller is not owner nor approved\");\n        _safeTransfer(from, to, tokenId, _data);\n    }\n\n    /**\n     * @dev Reset the `_KYCAddress` to kycAddr.\n     * @notice Only the owner of this contract is able to change the the KYC contract address.\n     */\n    function setKYCImplementation(address kycAddr) onlyOwner external {\n        _KYCAddress = kycAddr;\n    }\n\n    /**\n     * @dev Reset the `_KYCAddress` to kycAddr.\n     * @notice Only the owner of this contract is able to change the the KYC contract address.\n     */\n    function getKYCAddress() public view returns(address) {\n        return _KYCAddress;\n    }\n\n    /**\n      * @dev Mint a new NFT.\n      * @notice It throws an exception if\n      *    - `license` is not valid.\n      *    - `expiryBlock` is less than the current block number.\n      * @param to The address that will own the minted NFT.\n      * @param uri The URI consists of metadata description of the minting NFT on the IPFS (without prefix).\n      * @param license The license of the minting NFT (0 - personally-licensed or 1 - fully-licensed).\n      * @param expiryBlock The block number at which the minting NFT is expired.\n      */\n    function _mint(\n        address to,\n        string calldata uri,\n        uint8 license,\n        uint256 expiryBlock\n    )\n    internal\n    returns (uint256)\n    {\n        require(license < 2, \"LICENSE_MUST_BE_O_OR_1\");\n        require(expiryBlock > block.number, \"EXPIRY_DATE_NOT_VALID\");\n\n        uint256 id = uint256(keccak256(abi.encode(to, uri, license, expiryBlock)));\n        super._mint(to, id);\n        _setTokenUri(id, uri);\n        idToFirstOwner[id] = to;\n        idToProperty[id] = abi.encodePacked(license, expiryBlock);\n\n        return id;\n    }\n\n    /**\n     * @dev Check if an NFT token is transferable.\n     * @param _tokenId The NFT tokenID to check.\n     */\n    function _isTransferable(uint256 _tokenId) internal view returns (bool) {\n        address firstOwner = idToFirstOwner[_tokenId];\n        bytes memory tokenData = getTokenData(_tokenId);\n\n        uint8 licenseType = uint8(tokenData[0]);\n        if (licenseType != 1 && msg.sender != firstOwner) {\n            return false;\n        }\n\n        uint expiryDate;\n        assembly {\n            tokenData := add(tokenData, 1)\n            expiryDate := mload(add(tokenData, 0x20)) // tokenData[1:33]\n        }\n        return block.number < expiryDate;\n    }\n\n    /**\n     * @dev Base URI for computing {tokenURI}. If set, the resulting URI for each\n     * token will be the concatenation of the `baseURI` and the `tokenId`.\n     */\n    function _baseURI() internal pure override returns (string memory) {\n        return \"ipfs://\";\n    }\n\n    /**\n     * @dev Set a distinct URI (RFC 3986) for a given NFT ID.\n     * @notice This is an internal function which should be called from user-implemented external\n     * function.\n     * @notice It throws an exception if the _tokenId does not exist.\n     * @param _tokenId Id for which we want URI.\n     * @param _uri String representing RFC 3986 URI.\n     */\n    function _setTokenUri(\n        uint256 _tokenId,\n        string calldata _uri\n    )\n    internal\n    {\n        require(_exists(_tokenId), \"TOKEN_ID_NOT_EXISTED\");\n        idToUri[_tokenId] = _uri;\n    }\n\n}\n",
  "sourcePath": "/home/toor/nodejs/truffle/nft_demo/taudefi/taudefi-nft/contracts/TaureumERC721.sol",
  "compiler": {
    "name": "solc",
    "version": "0.8.4+commit.c7e474f2.Emscripten.clang"
  },
  "schemaVersion": "3.4.1",
  "updatedAt": "2021-07-20T03:54:47.302Z",
  "devdoc": {
    "events": {
      "Mint(address,uint256,string,uint256)": {
        "details": "Emitted when `tokenId` token is minted for `to`."
      }
    },
    "kind": "dev",
    "methods": {
      "approve(address,uint256)": {
        "details": "See {IERC721-approve}."
      },
      "balanceOf(address)": {
        "details": "See {IERC721-balanceOf}."
      },
      "constructor": {
        "details": "Create a new TaureumERC721 contract and assign the KYCAddress to _KYCAddress. TODO: change the default name and symbol."
      },
      "getApproved(uint256)": {
        "details": "See {IERC721-getApproved}."
      },
      "getKYCAddress()": {
        "details": "Reset the `_KYCAddress` to kycAddr."
      },
      "getTokenData(uint256)": {
        "details": "Return the properties of an NFT token.",
        "params": {
          "_tokenId": "The NFT tokenID to check."
        }
      },
      "isApprovedForAll(address,address)": {
        "details": "See {IERC721-isApprovedForAll}."
      },
      "mint(address,string,uint8,uint256)": {
        "details": "Mint a new NFT.",
        "params": {
          "expiryBlock": "The block number at which the minting NFT is expired.",
          "license": "The license of the minting NFT (0 - personally-licensed or 1 - fully-licensed).",
          "to": "The address that will own the minted NFT.",
          "uri": "The URI consists of metadata description of the minting NFT on the IPFS (without prefix)."
        }
      },
      "name()": {
        "details": "See {IERC721Metadata-name}."
      },
      "owner()": {
        "details": "Returns the address of the current owner."
      },
      "ownerOf(uint256)": {
        "details": "See {IERC721-ownerOf}."
      },
      "renounceOwnership()": {
        "details": "Leaves the contract without owner. It will not be possible to call `onlyOwner` functions anymore. Can only be called by the current owner. NOTE: Renouncing ownership will leave the contract without an owner, thereby removing any functionality that is only available to the owner."
      },
      "safeTransferFrom(address,address,uint256)": {
        "details": "See {IERC721-safeTransferFrom}."
      },
      "safeTransferFrom(address,address,uint256,bytes)": {
        "details": "See {IERC721-safeTransferFrom}."
      },
      "setApprovalForAll(address,bool)": {
        "details": "See {IERC721-setApprovalForAll}."
      },
      "setKYCImplementation(address)": {
        "details": "Reset the `_KYCAddress` to kycAddr."
      },
      "supportsInterface(bytes4)": {
        "details": "See {IERC165-supportsInterface}."
      },
      "symbol()": {
        "details": "See {IERC721Metadata-symbol}."
      },
      "tokenURI(uint256)": {
        "details": "See {IERC721Metadata-tokenURI}."
      },
      "transferFrom(address,address,uint256)": {
        "details": "See {IERC721-transferFrom}."
      },
      "transferOwnership(address)": {
        "details": "Transfers ownership of the contract to a new account (`newOwner`). Can only be called by the current owner."
      }
    },
    "stateVariables": {
      "_KYCAddress": {
        "details": "The contract address for the KYC entry."
      },
      "idToFirstOwner": {
        "details": "Mapping from NFT ID to its first owner."
      },
      "idToProperty": {
        "details": "Mapping from NFT ID to the NFT property (encode the tokenData struct).  - 1st byte determines the license type: 0 => personal license, 1 => full license).  - Next 32 bytes determine the expiry date (expiry block number): MaxUint => no expiry date. TODO: consider adding the URI to this mapping."
      },
      "idToUri": {
        "details": "Mapping from NFT ID to metadata uri."
      }
    },
    "version": 1
  },
  "userdoc": {
    "kind": "user",
    "methods": {
      "getKYCAddress()": {
        "notice": "Only the owner of this contract is able to change the the KYC contract address."
      },
      "getTokenData(uint256)": {
        "notice": "It throws if the tokenId does not exist."
      },
      "mint(address,string,uint8,uint256)": {
        "notice": "It throws an exception if    - `to` cannot receive NFTs."
      },
      "safeTransferFrom(address,address,uint256,bytes)": {
        "notice": "It throws an exception if      - the tokenId is not transferable.      - the receiver `to` cannot receive more TaureumNFTs."
      },
      "setKYCImplementation(address)": {
        "notice": "Only the owner of this contract is able to change the the KYC contract address."
      },
      "transferFrom(address,address,uint256)": {
        "notice": "It throws an exception if      - the tokenId is not transferable.      - the receiver `to` cannot receive more TaureumNFTs."
      }
    },
    "version": 1
  }
}