{
  "contractName": "TaureumERC721Enumerable",
  "abi": [
    {
      "inputs": [],
      "stateMutability": "nonpayable",
      "type": "constructor"
    },
    {
      "anonymous": false,
      "inputs": [
        {
          "indexed": true,
          "internalType": "address",
          "name": "owner",
          "type": "address"
        },
        {
          "indexed": true,
          "internalType": "address",
          "name": "approved",
          "type": "address"
        },
        {
          "indexed": true,
          "internalType": "uint256",
          "name": "tokenId",
          "type": "uint256"
        }
      ],
      "name": "Approval",
      "type": "event"
    },
    {
      "anonymous": false,
      "inputs": [
        {
          "indexed": true,
          "internalType": "address",
          "name": "owner",
          "type": "address"
        },
        {
          "indexed": true,
          "internalType": "address",
          "name": "operator",
          "type": "address"
        },
        {
          "indexed": false,
          "internalType": "bool",
          "name": "approved",
          "type": "bool"
        }
      ],
      "name": "ApprovalForAll",
      "type": "event"
    },
    {
      "anonymous": false,
      "inputs": [
        {
          "indexed": true,
          "internalType": "address",
          "name": "previousOwner",
          "type": "address"
        },
        {
          "indexed": true,
          "internalType": "address",
          "name": "newOwner",
          "type": "address"
        }
      ],
      "name": "OwnershipTransferred",
      "type": "event"
    },
    {
      "anonymous": false,
      "inputs": [
        {
          "indexed": true,
          "internalType": "address",
          "name": "from",
          "type": "address"
        },
        {
          "indexed": true,
          "internalType": "address",
          "name": "to",
          "type": "address"
        },
        {
          "indexed": true,
          "internalType": "uint256",
          "name": "tokenId",
          "type": "uint256"
        }
      ],
      "name": "Transfer",
      "type": "event"
    },
    {
      "inputs": [
        {
          "internalType": "address",
          "name": "to",
          "type": "address"
        },
        {
          "internalType": "uint256",
          "name": "tokenId",
          "type": "uint256"
        }
      ],
      "name": "approve",
      "outputs": [],
      "stateMutability": "nonpayable",
      "type": "function"
    },
    {
      "inputs": [
        {
          "internalType": "address",
          "name": "owner",
          "type": "address"
        }
      ],
      "name": "balanceOf",
      "outputs": [
        {
          "internalType": "uint256",
          "name": "",
          "type": "uint256"
        }
      ],
      "stateMutability": "view",
      "type": "function"
    },
    {
      "inputs": [],
      "name": "baseURI",
      "outputs": [
        {
          "internalType": "string",
          "name": "",
          "type": "string"
        }
      ],
      "stateMutability": "view",
      "type": "function"
    },
    {
      "inputs": [
        {
          "internalType": "uint256",
          "name": "tokenId",
          "type": "uint256"
        }
      ],
      "name": "getApproved",
      "outputs": [
        {
          "internalType": "address",
          "name": "",
          "type": "address"
        }
      ],
      "stateMutability": "view",
      "type": "function"
    },
    {
      "inputs": [
        {
          "internalType": "address",
          "name": "owner",
          "type": "address"
        },
        {
          "internalType": "address",
          "name": "operator",
          "type": "address"
        }
      ],
      "name": "isApprovedForAll",
      "outputs": [
        {
          "internalType": "bool",
          "name": "",
          "type": "bool"
        }
      ],
      "stateMutability": "view",
      "type": "function"
    },
    {
      "inputs": [
        {
          "internalType": "address",
          "name": "to",
          "type": "address"
        },
        {
          "internalType": "string",
          "name": "uri",
          "type": "string"
        }
      ],
      "name": "mint",
      "outputs": [
        {
          "internalType": "uint256",
          "name": "",
          "type": "uint256"
        }
      ],
      "stateMutability": "nonpayable",
      "type": "function"
    },
    {
      "inputs": [],
      "name": "name",
      "outputs": [
        {
          "internalType": "string",
          "name": "",
          "type": "string"
        }
      ],
      "stateMutability": "view",
      "type": "function"
    },
    {
      "inputs": [],
      "name": "owner",
      "outputs": [
        {
          "internalType": "address",
          "name": "",
          "type": "address"
        }
      ],
      "stateMutability": "view",
      "type": "function"
    },
    {
      "inputs": [
        {
          "internalType": "uint256",
          "name": "tokenId",
          "type": "uint256"
        }
      ],
      "name": "ownerOf",
      "outputs": [
        {
          "internalType": "address",
          "name": "",
          "type": "address"
        }
      ],
      "stateMutability": "view",
      "type": "function"
    },
    {
      "inputs": [],
      "name": "renounceOwnership",
      "outputs": [],
      "stateMutability": "nonpayable",
      "type": "function"
    },
    {
      "inputs": [
        {
          "internalType": "address",
          "name": "to",
          "type": "address"
        },
        {
          "internalType": "string",
          "name": "uri",
          "type": "string"
        }
      ],
      "name": "safeMint",
      "outputs": [
        {
          "internalType": "uint256",
          "name": "",
          "type": "uint256"
        }
      ],
      "stateMutability": "nonpayable",
      "type": "function"
    },
    {
      "inputs": [
        {
          "internalType": "address",
          "name": "from",
          "type": "address"
        },
        {
          "internalType": "address",
          "name": "to",
          "type": "address"
        },
        {
          "internalType": "uint256",
          "name": "tokenId",
          "type": "uint256"
        }
      ],
      "name": "safeTransferFrom",
      "outputs": [],
      "stateMutability": "nonpayable",
      "type": "function"
    },
    {
      "inputs": [
        {
          "internalType": "address",
          "name": "from",
          "type": "address"
        },
        {
          "internalType": "address",
          "name": "to",
          "type": "address"
        },
        {
          "internalType": "uint256",
          "name": "tokenId",
          "type": "uint256"
        },
        {
          "internalType": "bytes",
          "name": "_data",
          "type": "bytes"
        }
      ],
      "name": "safeTransferFrom",
      "outputs": [],
      "stateMutability": "nonpayable",
      "type": "function"
    },
    {
      "inputs": [
        {
          "internalType": "address",
          "name": "operator",
          "type": "address"
        },
        {
          "internalType": "bool",
          "name": "approved",
          "type": "bool"
        }
      ],
      "name": "setApprovalForAll",
      "outputs": [],
      "stateMutability": "nonpayable",
      "type": "function"
    },
    {
      "inputs": [
        {
          "internalType": "string",
          "name": "newBaseURI",
          "type": "string"
        }
      ],
      "name": "setBaseURI",
      "outputs": [],
      "stateMutability": "nonpayable",
      "type": "function"
    },
    {
      "inputs": [],
      "name": "symbol",
      "outputs": [
        {
          "internalType": "string",
          "name": "",
          "type": "string"
        }
      ],
      "stateMutability": "view",
      "type": "function"
    },
    {
      "inputs": [
        {
          "internalType": "uint256",
          "name": "index",
          "type": "uint256"
        }
      ],
      "name": "tokenByIndex",
      "outputs": [
        {
          "internalType": "uint256",
          "name": "",
          "type": "uint256"
        }
      ],
      "stateMutability": "view",
      "type": "function"
    },
    {
      "inputs": [
        {
          "internalType": "address",
          "name": "owner",
          "type": "address"
        },
        {
          "internalType": "uint256",
          "name": "index",
          "type": "uint256"
        }
      ],
      "name": "tokenOfOwnerByIndex",
      "outputs": [
        {
          "internalType": "uint256",
          "name": "",
          "type": "uint256"
        }
      ],
      "stateMutability": "view",
      "type": "function"
    },
    {
      "inputs": [],
      "name": "totalSupply",
      "outputs": [
        {
          "internalType": "uint256",
          "name": "",
          "type": "uint256"
        }
      ],
      "stateMutability": "view",
      "type": "function"
    },
    {
      "inputs": [
        {
          "internalType": "address",
          "name": "from",
          "type": "address"
        },
        {
          "internalType": "address",
          "name": "to",
          "type": "address"
        },
        {
          "internalType": "uint256",
          "name": "tokenId",
          "type": "uint256"
        }
      ],
      "name": "transferFrom",
      "outputs": [],
      "stateMutability": "nonpayable",
      "type": "function"
    },
    {
      "inputs": [
        {
          "internalType": "address",
          "name": "newOwner",
          "type": "address"
        }
      ],
      "name": "transferOwnership",
      "outputs": [],
      "stateMutability": "nonpayable",
      "type": "function"
    },
    {
      "inputs": [
        {
          "internalType": "bytes4",
          "name": "interfaceId",
          "type": "bytes4"
        }
      ],
      "name": "supportsInterface",
      "outputs": [
        {
          "internalType": "bool",
          "name": "",
          "type": "bool"
        }
      ],
      "stateMutability": "view",
      "type": "function"
    },
    {
      "inputs": [
        {
          "internalType": "uint256",
          "name": "tokenId",
          "type": "uint256"
        }
      ],
      "name": "tokenURI",
      "outputs": [
        {
          "internalType": "string",
          "name": "",
          "type": "string"
        }
      ],
      "stateMutability": "view",
      "type": "function"
    }
  ],
  "bytecode": "0x60806040523480156200001157600080fd5b506040518060400160405280600e81526020017f5461757265756d204552433732310000000000000000000000000000000000008152506040518060400160405280600781526020017f5461757265756d0000000000000000000000000000000000000000000000000081525081600090805190602001906200009692919062000199565b508060019080519060200190620000af92919062000199565b5050506000620000c46200019160201b60201c565b905080600660006101000a81548173ffffffffffffffffffffffffffffffffffffffff021916908373ffffffffffffffffffffffffffffffffffffffff1602179055508073ffffffffffffffffffffffffffffffffffffffff16600073ffffffffffffffffffffffffffffffffffffffff167f8be0079c531659141344cd1fd0a4f28419497f9722a3daafe3b4186f6b6457e060405160405180910390a35060405180602001604052806000815250600890805190602001906200018a92919062000199565b50620002ae565b600033905090565b828054620001a79062000249565b90600052602060002090601f016020900481019282620001cb576000855562000217565b82601f10620001e657805160ff191683800117855562000217565b8280016001018555821562000217579182015b8281111562000216578251825591602001919060010190620001f9565b5b5090506200022691906200022a565b5090565b5b80821115620002455760008160009055506001016200022b565b5090565b600060028204905060018216806200026257607f821691505b602082108114156200027957620002786200027f565b5b50919050565b7f4e487b7100000000000000000000000000000000000000000000000000000000600052602260045260246000fd5b61393080620002be6000396000f3fe608060405234801561001057600080fd5b506004361061014d5760003560e01c80636c0360eb116100c3578063b88d4fde1161007c578063b88d4fde1461039e578063c87b56dd146103ba578063d0def521146103ea578063d204c45e1461041a578063e985e9c51461044a578063f2fde38b1461047a5761014d565b80636c0360eb146102ee57806370a082311461030c578063715018a61461033c5780638da5cb5b1461034657806395d89b4114610364578063a22cb465146103825761014d565b806323b872dd1161011557806323b872dd1461020a5780632f745c591461022657806342842e0e146102565780634f6ccce71461027257806355f804b3146102a25780636352211e146102be5761014d565b806301ffc9a71461015257806306fdde0314610182578063081812fc146101a0578063095ea7b3146101d057806318160ddd146101ec575b600080fd5b61016c6004803603810190610167919061284a565b610496565b6040516101799190612da7565b60405180910390f35b61018a610578565b6040516101979190612dc2565b60405180910390f35b6101ba60048036038101906101b591906128dd565b61060a565b6040516101c79190612d0e565b60405180910390f35b6101ea60048036038101906101e5919061280e565b61068f565b005b6101f46107a7565b6040516102019190613044565b60405180910390f35b610224600480360381019061021f91906126b0565b6107b4565b005b610240600480360381019061023b919061280e565b610814565b60405161024d9190613044565b60405180910390f35b610270600480360381019061026b91906126b0565b6108b9565b005b61028c600480360381019061028791906128dd565b6108d9565b6040516102999190613044565b60405180910390f35b6102bc60048036038101906102b7919061289c565b610970565b005b6102d860048036038101906102d391906128dd565b610a06565b6040516102e59190612d0e565b60405180910390f35b6102f6610ab8565b6040516103039190612dc2565b60405180910390f35b6103266004803603810190610321919061264b565b610b4a565b6040516103339190613044565b60405180910390f35b610344610c02565b005b61034e610d3f565b60405161035b9190612d0e565b60405180910390f35b61036c610d69565b6040516103799190612dc2565b60405180910390f35b61039c6004803603810190610397919061277a565b610dfb565b005b6103b860048036038101906103b391906126ff565b610f7c565b005b6103d460048036038101906103cf91906128dd565b610fde565b6040516103e19190612dc2565b60405180910390f35b61040460048036038101906103ff91906127b6565b610ff0565b6040516104119190613044565b60405180910390f35b610434600480360381019061042f91906127b6565b611043565b6040516104419190613044565b60405180910390f35b610464600480360381019061045f9190612674565b611096565b6040516104719190612da7565b60405180910390f35b610494600480360381019061048f919061264b565b61112a565b005b60007f80ac58cd000000000000000000000000000000000000000000000000000000007bffffffffffffffffffffffffffffffffffffffffffffffffffffffff1916827bffffffffffffffffffffffffffffffffffffffffffffffffffffffff1916148061056157507f5b5e139f000000000000000000000000000000000000000000000000000000007bffffffffffffffffffffffffffffffffffffffffffffffffffffffff1916827bffffffffffffffffffffffffffffffffffffffffffffffffffffffff1916145b806105715750610570826112d6565b5b9050919050565b6060600080546105879061327e565b80601f01602080910402602001604051908101604052809291908181526020018280546105b39061327e565b80156106005780601f106105d557610100808354040283529160200191610600565b820191906000526020600020905b8154815290600101906020018083116105e357829003601f168201915b5050505050905090565b600061061582611350565b610654576040517f08c379a000000000000000000000000000000000000000000000000000000000815260040161064b90612f44565b60405180910390fd5b6004600083815260200190815260200160002060009054906101000a900473ffffffffffffffffffffffffffffffffffffffff169050919050565b600061069a82610a06565b90508073ffffffffffffffffffffffffffffffffffffffff168373ffffffffffffffffffffffffffffffffffffffff16141561070b576040517f08c379a000000000000000000000000000000000000000000000000000000000815260040161070290612fc4565b60405180910390fd5b8073ffffffffffffffffffffffffffffffffffffffff1661072a6113bc565b73ffffffffffffffffffffffffffffffffffffffff1614806107595750610758816107536113bc565b611096565b5b610798576040517f08c379a000000000000000000000000000000000000000000000000000000000815260040161078f90612ec4565b60405180910390fd5b6107a283836113c4565b505050565b6000600b80549050905090565b6107c56107bf6113bc565b8261147d565b610804576040517f08c379a00000000000000000000000000000000000000000000000000000000081526004016107fb90612fe4565b60405180910390fd5b61080f83838361155b565b505050565b600061081f83610b4a565b8210610860576040517f08c379a000000000000000000000000000000000000000000000000000000000815260040161085790612de4565b60405180910390fd5b600960008473ffffffffffffffffffffffffffffffffffffffff1673ffffffffffffffffffffffffffffffffffffffff168152602001908152602001600020600083815260200190815260200160002054905092915050565b6108d483838360405180602001604052806000815250610f7c565b505050565b60006108e36107a7565b8210610924576040517f08c379a000000000000000000000000000000000000000000000000000000000815260040161091b90613004565b60405180910390fd5b600b828154811061095e577f4e487b7100000000000000000000000000000000000000000000000000000000600052603260045260246000fd5b90600052602060002001549050919050565b6109786113bc565b73ffffffffffffffffffffffffffffffffffffffff16610996610d3f565b73ffffffffffffffffffffffffffffffffffffffff16146109ec576040517f08c379a00000000000000000000000000000000000000000000000000000000081526004016109e390612f64565b60405180910390fd5b8060089080519060200190610a0292919061239f565b5050565b6000806002600084815260200190815260200160002060009054906101000a900473ffffffffffffffffffffffffffffffffffffffff169050600073ffffffffffffffffffffffffffffffffffffffff168173ffffffffffffffffffffffffffffffffffffffff161415610aaf576040517f08c379a0000000000000000000000000000000000000000000000000000000008152600401610aa690612f04565b60405180910390fd5b80915050919050565b606060088054610ac79061327e565b80601f0160208091040260200160405190810160405280929190818152602001828054610af39061327e565b8015610b405780601f10610b1557610100808354040283529160200191610b40565b820191906000526020600020905b815481529060010190602001808311610b2357829003601f168201915b5050505050905090565b60008073ffffffffffffffffffffffffffffffffffffffff168273ffffffffffffffffffffffffffffffffffffffff161415610bbb576040517f08c379a0000000000000000000000000000000000000000000000000000000008152600401610bb290612ee4565b60405180910390fd5b600360008373ffffffffffffffffffffffffffffffffffffffff1673ffffffffffffffffffffffffffffffffffffffff168152602001908152602001600020549050919050565b610c0a6113bc565b73ffffffffffffffffffffffffffffffffffffffff16610c28610d3f565b73ffffffffffffffffffffffffffffffffffffffff1614610c7e576040517f08c379a0000000000000000000000000000000000000000000000000000000008152600401610c7590612f64565b60405180910390fd5b600073ffffffffffffffffffffffffffffffffffffffff16600660009054906101000a900473ffffffffffffffffffffffffffffffffffffffff1673ffffffffffffffffffffffffffffffffffffffff167f8be0079c531659141344cd1fd0a4f28419497f9722a3daafe3b4186f6b6457e060405160405180910390a36000600660006101000a81548173ffffffffffffffffffffffffffffffffffffffff021916908373ffffffffffffffffffffffffffffffffffffffff160217905550565b6000600660009054906101000a900473ffffffffffffffffffffffffffffffffffffffff16905090565b606060018054610d789061327e565b80601f0160208091040260200160405190810160405280929190818152602001828054610da49061327e565b8015610df15780601f10610dc657610100808354040283529160200191610df1565b820191906000526020600020905b815481529060010190602001808311610dd457829003601f168201915b5050505050905090565b610e036113bc565b73ffffffffffffffffffffffffffffffffffffffff168273ffffffffffffffffffffffffffffffffffffffff161415610e71576040517f08c379a0000000000000000000000000000000000000000000000000000000008152600401610e6890612e84565b60405180910390fd5b8060056000610e7e6113bc565b73ffffffffffffffffffffffffffffffffffffffff1673ffffffffffffffffffffffffffffffffffffffff16815260200190815260200160002060008473ffffffffffffffffffffffffffffffffffffffff1673ffffffffffffffffffffffffffffffffffffffff16815260200190815260200160002060006101000a81548160ff0219169083151502179055508173ffffffffffffffffffffffffffffffffffffffff16610f2b6113bc565b73ffffffffffffffffffffffffffffffffffffffff167f17307eab39ab6107e8899845ad3d59bd9653f200f220920489ca2b5937696c3183604051610f709190612da7565b60405180910390a35050565b610f8d610f876113bc565b8361147d565b610fcc576040517f08c379a0000000000000000000000000000000000000000000000000000000008152600401610fc390612fe4565b60405180910390fd5b610fd8848484846117b7565b50505050565b6060610fe982611813565b9050919050565b60008084848460405160200161100893929190612d75565b6040516020818303038152906040528051906020012060001c905061102d8582611951565b611038818585611b1f565b809150509392505050565b60008084848460405160200161105b93929190612d75565b6040516020818303038152906040528051906020012060001c90506110808582611b8f565b61108b818585611b1f565b809150509392505050565b6000600560008473ffffffffffffffffffffffffffffffffffffffff1673ffffffffffffffffffffffffffffffffffffffff16815260200190815260200160002060008373ffffffffffffffffffffffffffffffffffffffff1673ffffffffffffffffffffffffffffffffffffffff16815260200190815260200160002060009054906101000a900460ff16905092915050565b6111326113bc565b73ffffffffffffffffffffffffffffffffffffffff16611150610d3f565b73ffffffffffffffffffffffffffffffffffffffff16146111a6576040517f08c379a000000000000000000000000000000000000000000000000000000000815260040161119d90612f64565b60405180910390fd5b600073ffffffffffffffffffffffffffffffffffffffff168173ffffffffffffffffffffffffffffffffffffffff161415611216576040517f08c379a000000000000000000000000000000000000000000000000000000000815260040161120d90612e24565b60405180910390fd5b8073ffffffffffffffffffffffffffffffffffffffff16600660009054906101000a900473ffffffffffffffffffffffffffffffffffffffff1673ffffffffffffffffffffffffffffffffffffffff167f8be0079c531659141344cd1fd0a4f28419497f9722a3daafe3b4186f6b6457e060405160405180910390a380600660006101000a81548173ffffffffffffffffffffffffffffffffffffffff021916908373ffffffffffffffffffffffffffffffffffffffff16021790555050565b60007f780e9d63000000000000000000000000000000000000000000000000000000007bffffffffffffffffffffffffffffffffffffffffffffffffffffffff1916827bffffffffffffffffffffffffffffffffffffffffffffffffffffffff19161480611349575061134882611bad565b5b9050919050565b60008073ffffffffffffffffffffffffffffffffffffffff166002600084815260200190815260200160002060009054906101000a900473ffffffffffffffffffffffffffffffffffffffff1673ffffffffffffffffffffffffffffffffffffffff1614159050919050565b600033905090565b816004600083815260200190815260200160002060006101000a81548173ffffffffffffffffffffffffffffffffffffffff021916908373ffffffffffffffffffffffffffffffffffffffff160217905550808273ffffffffffffffffffffffffffffffffffffffff1661143783610a06565b73ffffffffffffffffffffffffffffffffffffffff167f8c5be1e5ebec7d5bd14f71427d1e84f3dd0314c0f7b2291e5b200ac8c7c3b92560405160405180910390a45050565b600061148882611350565b6114c7576040517f08c379a00000000000000000000000000000000000000000000000000000000081526004016114be90612ea4565b60405180910390fd5b60006114d283610a06565b90508073ffffffffffffffffffffffffffffffffffffffff168473ffffffffffffffffffffffffffffffffffffffff16148061154157508373ffffffffffffffffffffffffffffffffffffffff166115298461060a565b73ffffffffffffffffffffffffffffffffffffffff16145b8061155257506115518185611096565b5b91505092915050565b8273ffffffffffffffffffffffffffffffffffffffff1661157b82610a06565b73ffffffffffffffffffffffffffffffffffffffff16146115d1576040517f08c379a00000000000000000000000000000000000000000000000000000000081526004016115c890612f84565b60405180910390fd5b600073ffffffffffffffffffffffffffffffffffffffff168273ffffffffffffffffffffffffffffffffffffffff161415611641576040517f08c379a000000000000000000000000000000000000000000000000000000000815260040161163890612e64565b60405180910390fd5b61164c838383611c8f565b6116576000826113c4565b6001600360008573ffffffffffffffffffffffffffffffffffffffff1673ffffffffffffffffffffffffffffffffffffffff16815260200190815260200160002060008282546116a79190613194565b925050819055506001600360008473ffffffffffffffffffffffffffffffffffffffff1673ffffffffffffffffffffffffffffffffffffffff16815260200190815260200160002060008282546116fe919061313e565b92505081905550816002600083815260200190815260200160002060006101000a81548173ffffffffffffffffffffffffffffffffffffffff021916908373ffffffffffffffffffffffffffffffffffffffff160217905550808273ffffffffffffffffffffffffffffffffffffffff168473ffffffffffffffffffffffffffffffffffffffff167fddf252ad1be2c89b69c2b068fc378daa952ba7f163c4a11628f55a4df523b3ef60405160405180910390a4505050565b6117c284848461155b565b6117ce84848484611c9f565b61180d576040517f08c379a000000000000000000000000000000000000000000000000000000000815260040161180490612e04565b60405180910390fd5b50505050565b606061181e82611350565b61185d576040517f08c379a000000000000000000000000000000000000000000000000000000000815260040161185490612fa4565b60405180910390fd5b60006008805461186c9061327e565b905011611914576007600083815260200190815260200160002080546118919061327e565b80601f01602080910402602001604051908101604052809291908181526020018280546118bd9061327e565b801561190a5780601f106118df5761010080835404028352916020019161190a565b820191906000526020600020905b8154815290600101906020018083116118ed57829003601f168201915b505050505061194a565b60086007600084815260200190815260200160002060405160200161193a929190612cea565b6040516020818303038152906040525b9050919050565b600073ffffffffffffffffffffffffffffffffffffffff168273ffffffffffffffffffffffffffffffffffffffff1614156119c1576040517f08c379a00000000000000000000000000000000000000000000000000000000081526004016119b890612f24565b60405180910390fd5b6119ca81611350565b15611a0a576040517f08c379a0000000000000000000000000000000000000000000000000000000008152600401611a0190612e44565b60405180910390fd5b611a1660008383611c8f565b6001600360008473ffffffffffffffffffffffffffffffffffffffff1673ffffffffffffffffffffffffffffffffffffffff1681526020019081526020016000206000828254611a66919061313e565b92505081905550816002600083815260200190815260200160002060006101000a81548173ffffffffffffffffffffffffffffffffffffffff021916908373ffffffffffffffffffffffffffffffffffffffff160217905550808273ffffffffffffffffffffffffffffffffffffffff16600073ffffffffffffffffffffffffffffffffffffffff167fddf252ad1be2c89b69c2b068fc378daa952ba7f163c4a11628f55a4df523b3ef60405160405180910390a45050565b611b2883611350565b611b67576040517f08c379a0000000000000000000000000000000000000000000000000000000008152600401611b5e90613024565b60405180910390fd5b8181600760008681526020019081526020016000209190611b89929190612425565b50505050565b611ba9828260405180602001604052806000815250611e36565b5050565b60007f80ac58cd000000000000000000000000000000000000000000000000000000007bffffffffffffffffffffffffffffffffffffffffffffffffffffffff1916827bffffffffffffffffffffffffffffffffffffffffffffffffffffffff19161480611c7857507f5b5e139f000000000000000000000000000000000000000000000000000000007bffffffffffffffffffffffffffffffffffffffffffffffffffffffff1916827bffffffffffffffffffffffffffffffffffffffffffffffffffffffff1916145b80611c885750611c8782611e91565b5b9050919050565b611c9a838383611efb565b505050565b6000611cc08473ffffffffffffffffffffffffffffffffffffffff1661200f565b15611e29578373ffffffffffffffffffffffffffffffffffffffff1663150b7a02611ce96113bc565b8786866040518563ffffffff1660e01b8152600401611d0b9493929190612d29565b602060405180830381600087803b158015611d2557600080fd5b505af1925050508015611d5657506040513d601f19601f82011682018060405250810190611d539190612873565b60015b611dd9573d8060008114611d86576040519150601f19603f3d011682016040523d82523d6000602084013e611d8b565b606091505b50600081511415611dd1576040517f08c379a0000000000000000000000000000000000000000000000000000000008152600401611dc890612e04565b60405180910390fd5b805181602001fd5b63150b7a0260e01b7bffffffffffffffffffffffffffffffffffffffffffffffffffffffff1916817bffffffffffffffffffffffffffffffffffffffffffffffffffffffff191614915050611e2e565b600190505b949350505050565b611e408383611951565b611e4d6000848484611c9f565b611e8c576040517f08c379a0000000000000000000000000000000000000000000000000000000008152600401611e8390612e04565b60405180910390fd5b505050565b60007f01ffc9a7000000000000000000000000000000000000000000000000000000007bffffffffffffffffffffffffffffffffffffffffffffffffffffffff1916827bffffffffffffffffffffffffffffffffffffffffffffffffffffffff1916149050919050565b611f06838383612022565b600073ffffffffffffffffffffffffffffffffffffffff168373ffffffffffffffffffffffffffffffffffffffff161415611f4957611f4481612027565b611f88565b8173ffffffffffffffffffffffffffffffffffffffff168373ffffffffffffffffffffffffffffffffffffffff1614611f8757611f868382612070565b5b5b600073ffffffffffffffffffffffffffffffffffffffff168273ffffffffffffffffffffffffffffffffffffffff161415611fcb57611fc6816121dd565b61200a565b8273ffffffffffffffffffffffffffffffffffffffff168273ffffffffffffffffffffffffffffffffffffffff1614612009576120088282612320565b5b5b505050565b600080823b905060008111915050919050565b505050565b600b80549050600c600083815260200190815260200160002081905550600b81908060018154018082558091505060019003906000526020600020016000909190919091505550565b6000600161207d84610b4a565b6120879190613194565b90506000600a600084815260200190815260200160002054905081811461216c576000600960008673ffffffffffffffffffffffffffffffffffffffff1673ffffffffffffffffffffffffffffffffffffffff168152602001908152602001600020600084815260200190815260200160002054905080600960008773ffffffffffffffffffffffffffffffffffffffff1673ffffffffffffffffffffffffffffffffffffffff16815260200190815260200160002060008481526020019081526020016000208190555081600a600083815260200190815260200160002081905550505b600a600084815260200190815260200160002060009055600960008573ffffffffffffffffffffffffffffffffffffffff1673ffffffffffffffffffffffffffffffffffffffff16815260200190815260200160002060008381526020019081526020016000206000905550505050565b60006001600b805490506121f19190613194565b90506000600c60008481526020019081526020016000205490506000600b8381548110612247577f4e487b7100000000000000000000000000000000000000000000000000000000600052603260045260246000fd5b9060005260206000200154905080600b838154811061228f577f4e487b7100000000000000000000000000000000000000000000000000000000600052603260045260246000fd5b906000526020600020018190555081600c600083815260200190815260200160002081905550600c600085815260200190815260200160002060009055600b805480612304577f4e487b7100000000000000000000000000000000000000000000000000000000600052603160045260246000fd5b6001900381819060005260206000200160009055905550505050565b600061232b83610b4a565b905081600960008573ffffffffffffffffffffffffffffffffffffffff1673ffffffffffffffffffffffffffffffffffffffff16815260200190815260200160002060008381526020019081526020016000208190555080600a600084815260200190815260200160002081905550505050565b8280546123ab9061327e565b90600052602060002090601f0160209004810192826123cd5760008555612414565b82601f106123e657805160ff1916838001178555612414565b82800160010185558215612414579182015b828111156124135782518255916020019190600101906123f8565b5b50905061242191906124ab565b5090565b8280546124319061327e565b90600052602060002090601f016020900481019282612453576000855561249a565b82601f1061246c57803560ff191683800117855561249a565b8280016001018555821561249a579182015b8281111561249957823582559160200191906001019061247e565b5b5090506124a791906124ab565b5090565b5b808211156124c45760008160009055506001016124ac565b5090565b60006124db6124d684613084565b61305f565b9050828152602081018484840111156124f357600080fd5b6124fe84828561323c565b509392505050565b6000612519612514846130b5565b61305f565b90508281526020810184848401111561253157600080fd5b61253c84828561323c565b509392505050565b6000813590506125538161389e565b92915050565b600081359050612568816138b5565b92915050565b60008135905061257d816138cc565b92915050565b600081519050612592816138cc565b92915050565b600082601f8301126125a957600080fd5b81356125b98482602086016124c8565b91505092915050565b60008083601f8401126125d457600080fd5b8235905067ffffffffffffffff8111156125ed57600080fd5b60208301915083600182028301111561260557600080fd5b9250929050565b600082601f83011261261d57600080fd5b813561262d848260208601612506565b91505092915050565b600081359050612645816138e3565b92915050565b60006020828403121561265d57600080fd5b600061266b84828501612544565b91505092915050565b6000806040838503121561268757600080fd5b600061269585828601612544565b92505060206126a685828601612544565b9150509250929050565b6000806000606084860312156126c557600080fd5b60006126d386828701612544565b93505060206126e486828701612544565b92505060406126f586828701612636565b9150509250925092565b6000806000806080858703121561271557600080fd5b600061272387828801612544565b945050602061273487828801612544565b935050604061274587828801612636565b925050606085013567ffffffffffffffff81111561276257600080fd5b61276e87828801612598565b91505092959194509250565b6000806040838503121561278d57600080fd5b600061279b85828601612544565b92505060206127ac85828601612559565b9150509250929050565b6000806000604084860312156127cb57600080fd5b60006127d986828701612544565b935050602084013567ffffffffffffffff8111156127f657600080fd5b612802868287016125c2565b92509250509250925092565b6000806040838503121561282157600080fd5b600061282f85828601612544565b925050602061284085828601612636565b9150509250929050565b60006020828403121561285c57600080fd5b600061286a8482850161256e565b91505092915050565b60006020828403121561288557600080fd5b600061289384828501612583565b91505092915050565b6000602082840312156128ae57600080fd5b600082013567ffffffffffffffff8111156128c857600080fd5b6128d48482850161260c565b91505092915050565b6000602082840312156128ef57600080fd5b60006128fd84828501612636565b91505092915050565b61290f816131c8565b82525050565b61291e816131da565b82525050565b600061292f826130fb565b6129398185613111565b935061294981856020860161324b565b6129528161336e565b840191505092915050565b60006129698385613122565b935061297683858461323c565b61297f8361336e565b840190509392505050565b600061299582613106565b61299f8185613122565b93506129af81856020860161324b565b6129b88161336e565b840191505092915050565b600081546129d08161327e565b6129da8186613133565b945060018216600081146129f55760018114612a0657612a39565b60ff19831686528186019350612a39565b612a0f856130e6565b60005b83811015612a3157815481890152600182019150602081019050612a12565b838801955050505b50505092915050565b6000612a4f602b83613122565b9150612a5a8261337f565b604082019050919050565b6000612a72603283613122565b9150612a7d826133ce565b604082019050919050565b6000612a95602683613122565b9150612aa08261341d565b604082019050919050565b6000612ab8601c83613122565b9150612ac38261346c565b602082019050919050565b6000612adb602483613122565b9150612ae682613495565b604082019050919050565b6000612afe601983613122565b9150612b09826134e4565b602082019050919050565b6000612b21602c83613122565b9150612b2c8261350d565b604082019050919050565b6000612b44603883613122565b9150612b4f8261355c565b604082019050919050565b6000612b67602a83613122565b9150612b72826135ab565b604082019050919050565b6000612b8a602983613122565b9150612b95826135fa565b604082019050919050565b6000612bad602083613122565b9150612bb882613649565b602082019050919050565b6000612bd0602c83613122565b9150612bdb82613672565b604082019050919050565b6000612bf3602083613122565b9150612bfe826136c1565b602082019050919050565b6000612c16602983613122565b9150612c21826136ea565b604082019050919050565b6000612c39602f83613122565b9150612c4482613739565b604082019050919050565b6000612c5c602183613122565b9150612c6782613788565b604082019050919050565b6000612c7f603183613122565b9150612c8a826137d7565b604082019050919050565b6000612ca2602c83613122565b9150612cad82613826565b604082019050919050565b6000612cc5601483613122565b9150612cd082613875565b602082019050919050565b612ce481613232565b82525050565b6000612cf682856129c3565b9150612d0282846129c3565b91508190509392505050565b6000602082019050612d236000830184612906565b92915050565b6000608082019050612d3e6000830187612906565b612d4b6020830186612906565b612d586040830185612cdb565b8181036060830152612d6a8184612924565b905095945050505050565b6000604082019050612d8a6000830186612906565b8181036020830152612d9d81848661295d565b9050949350505050565b6000602082019050612dbc6000830184612915565b92915050565b60006020820190508181036000830152612ddc818461298a565b905092915050565b60006020820190508181036000830152612dfd81612a42565b9050919050565b60006020820190508181036000830152612e1d81612a65565b9050919050565b60006020820190508181036000830152612e3d81612a88565b9050919050565b60006020820190508181036000830152612e5d81612aab565b9050919050565b60006020820190508181036000830152612e7d81612ace565b9050919050565b60006020820190508181036000830152612e9d81612af1565b9050919050565b60006020820190508181036000830152612ebd81612b14565b9050919050565b60006020820190508181036000830152612edd81612b37565b9050919050565b60006020820190508181036000830152612efd81612b5a565b9050919050565b60006020820190508181036000830152612f1d81612b7d565b9050919050565b60006020820190508181036000830152612f3d81612ba0565b9050919050565b60006020820190508181036000830152612f5d81612bc3565b9050919050565b60006020820190508181036000830152612f7d81612be6565b9050919050565b60006020820190508181036000830152612f9d81612c09565b9050919050565b60006020820190508181036000830152612fbd81612c2c565b9050919050565b60006020820190508181036000830152612fdd81612c4f565b9050919050565b60006020820190508181036000830152612ffd81612c72565b9050919050565b6000602082019050818103600083015261301d81612c95565b9050919050565b6000602082019050818103600083015261303d81612cb8565b9050919050565b60006020820190506130596000830184612cdb565b92915050565b600061306961307a565b905061307582826132b0565b919050565b6000604051905090565b600067ffffffffffffffff82111561309f5761309e61333f565b5b6130a88261336e565b9050602081019050919050565b600067ffffffffffffffff8211156130d0576130cf61333f565b5b6130d98261336e565b9050602081019050919050565b60008190508160005260206000209050919050565b600081519050919050565b600081519050919050565b600082825260208201905092915050565b600082825260208201905092915050565b600081905092915050565b600061314982613232565b915061315483613232565b9250827fffffffffffffffffffffffffffffffffffffffffffffffffffffffffffffffff03821115613189576131886132e1565b5b828201905092915050565b600061319f82613232565b91506131aa83613232565b9250828210156131bd576131bc6132e1565b5b828203905092915050565b60006131d382613212565b9050919050565b60008115159050919050565b60007fffffffff0000000000000000000000000000000000000000000000000000000082169050919050565b600073ffffffffffffffffffffffffffffffffffffffff82169050919050565b6000819050919050565b82818337600083830152505050565b60005b8381101561326957808201518184015260208101905061324e565b83811115613278576000848401525b50505050565b6000600282049050600182168061329657607f821691505b602082108114156132aa576132a9613310565b5b50919050565b6132b98261336e565b810181811067ffffffffffffffff821117156132d8576132d761333f565b5b80604052505050565b7f4e487b7100000000000000000000000000000000000000000000000000000000600052601160045260246000fd5b7f4e487b7100000000000000000000000000000000000000000000000000000000600052602260045260246000fd5b7f4e487b7100000000000000000000000000000000000000000000000000000000600052604160045260246000fd5b6000601f19601f8301169050919050565b7f455243373231456e756d657261626c653a206f776e657220696e646578206f7560008201527f74206f6620626f756e6473000000000000000000000000000000000000000000602082015250565b7f4552433732313a207472616e7366657220746f206e6f6e20455243373231526560008201527f63656976657220696d706c656d656e7465720000000000000000000000000000602082015250565b7f4f776e61626c653a206e6577206f776e657220697320746865207a65726f206160008201527f6464726573730000000000000000000000000000000000000000000000000000602082015250565b7f4552433732313a20746f6b656e20616c7265616479206d696e74656400000000600082015250565b7f4552433732313a207472616e7366657220746f20746865207a65726f2061646460008201527f7265737300000000000000000000000000000000000000000000000000000000602082015250565b7f4552433732313a20617070726f766520746f2063616c6c657200000000000000600082015250565b7f4552433732313a206f70657261746f7220717565727920666f72206e6f6e657860008201527f697374656e7420746f6b656e0000000000000000000000000000000000000000602082015250565b7f4552433732313a20617070726f76652063616c6c6572206973206e6f74206f7760008201527f6e6572206e6f7220617070726f76656420666f7220616c6c0000000000000000602082015250565b7f4552433732313a2062616c616e636520717565727920666f7220746865207a6560008201527f726f206164647265737300000000000000000000000000000000000000000000602082015250565b7f4552433732313a206f776e657220717565727920666f72206e6f6e657869737460008201527f656e7420746f6b656e0000000000000000000000000000000000000000000000602082015250565b7f4552433732313a206d696e7420746f20746865207a65726f2061646472657373600082015250565b7f4552433732313a20617070726f76656420717565727920666f72206e6f6e657860008201527f697374656e7420746f6b656e0000000000000000000000000000000000000000602082015250565b7f4f776e61626c653a2063616c6c6572206973206e6f7420746865206f776e6572600082015250565b7f4552433732313a207472616e73666572206f6620746f6b656e2074686174206960008201527f73206e6f74206f776e0000000000000000000000000000000000000000000000602082015250565b7f4552433732314d657461646174613a2055524920717565727920666f72206e6f60008201527f6e6578697374656e7420746f6b656e0000000000000000000000000000000000602082015250565b7f4552433732313a20617070726f76616c20746f2063757272656e74206f776e6560008201527f7200000000000000000000000000000000000000000000000000000000000000602082015250565b7f4552433732313a207472616e736665722063616c6c6572206973206e6f74206f60008201527f776e6572206e6f7220617070726f766564000000000000000000000000000000602082015250565b7f455243373231456e756d657261626c653a20676c6f62616c20696e646578206f60008201527f7574206f6620626f756e64730000000000000000000000000000000000000000602082015250565b7f544f4b454e5f49445f4e4f545f45584953544544000000000000000000000000600082015250565b6138a7816131c8565b81146138b257600080fd5b50565b6138be816131da565b81146138c957600080fd5b50565b6138d5816131e6565b81146138e057600080fd5b50565b6138ec81613232565b81146138f757600080fd5b5056fea26469706673582212208003089c59ada049795aa78d24ce3e667d57d7ac067af13504bba0fd1ac94a4464736f6c63430008040033",
  "immutableReferences": {},
  "source": "// SPDX-License-Identifier: UNLICENSED\n\npragma solidity ^0.8.4;\n\nimport \"./lib/token/ERC721/extensions/ERC721Enumerable.sol\";\nimport \"./TaureumERC721.sol\";\n\ncontract TaureumERC721Enumerable is TaureumERC721, ERC721Enumerable {\n    /**\n     * @dev Create a new TaureumERC721Enumerable contract.\n     *\n     */\n    constructor() TaureumERC721() {}\n\n    /**\n     * @dev See {IERC165-supportsInterface}.\n     */\n    function supportsInterface(bytes4 interfaceId) public view virtual override(ERC721, ERC721Enumerable) returns (bool) {\n        return\n        interfaceId == type(IERC721).interfaceId ||\n        interfaceId == type(IERC721Metadata).interfaceId ||\n        ERC721Enumerable.supportsInterface(interfaceId);\n    }\n\n    /**\n     * @dev See {IERC721Metadata-tokenURI}.\n     */\n    function tokenURI(uint256 tokenId) public view override(ERC721, TaureumERC721) returns (string memory) {\n        return TaureumERC721.tokenURI(tokenId);\n    }\n\n    /**\n     * @dev Base URI for computing {tokenURI}. If set, the resulting URI for each\n     * token will be the concatenation of the `baseURI` and the `tokenId`.\n     */\n    function _baseURI() internal view override(ERC721, TaureumERC721) returns (string memory) {\n        return TaureumERC721._baseURI();\n    }\n\n    /**\n     * @dev Hook that is called before any token transfer. This includes minting\n     * and burning.\n     *\n     * Calling conditions:\n     *\n     * - When `from` and `to` are both non-zero, ``from``'s `tokenId` will be\n     * transferred to `to`.\n     * - When `from` is zero, `tokenId` will be minted for `to`.\n     * - When `to` is zero, ``from``'s `tokenId` will be burned.\n     * - `from` cannot be the zero address.\n     * - `to` cannot be the zero address.\n     *\n     * To learn more about hooks, head to xref:ROOT:extending-contracts.adoc#using-hooks[Using Hooks].\n     */\n    function _beforeTokenTransfer(address from, address to, uint256 tokenId) internal override(ERC721, ERC721Enumerable) {\n        ERC721Enumerable._beforeTokenTransfer(from, to, tokenId);\n    }\n}\n",
  "sourcePath": "/home/toor/nodejs/truffle/nft_demo/taudefi/taudefi-nft/contracts/TaureumERC721Enumerable.sol",
  "compiler": {
    "name": "solc",
    "version": "0.8.4+commit.c7e474f2.Emscripten.clang"
  },
  "schemaVersion": "3.4.1",
  "updatedAt": "2021-07-29T10:07:51.956Z",
  "networkType": "ethereum",
  "devdoc": {
    "kind": "dev",
    "methods": {
      "approve(address,uint256)": {
        "details": "See {IERC721-approve}."
      },
      "balanceOf(address)": {
        "details": "See {IERC721-balanceOf}."
      },
      "baseURI()": {
        "details": "Returns `__baseURI`."
      },
      "constructor": {
        "details": "Create a new TaureumERC721Enumerable contract."
      },
      "getApproved(uint256)": {
        "details": "See {IERC721-getApproved}."
      },
      "isApprovedForAll(address,address)": {
        "details": "See {IERC721-isApprovedForAll}."
      },
      "mint(address,string)": {
        "details": "Mint a new NFT.",
        "params": {
          "to": "The address that will own the minted NFT.",
          "uri": "The URI consists of metadata description of the minting NFT on the IPFS (without prefix)."
        }
      },
      "name()": {
        "details": "See {IERC721Metadata-name}."
      },
      "owner()": {
        "details": "Returns the address of the current owner."
      },
      "ownerOf(uint256)": {
        "details": "See {IERC721-ownerOf}."
      },
      "renounceOwnership()": {
        "details": "Leaves the contract without owner. It will not be possible to call `onlyOwner` functions anymore. Can only be called by the current owner. NOTE: Renouncing ownership will leave the contract without an owner, thereby removing any functionality that is only available to the owner."
      },
      "safeMint(address,string)": {
        "details": "Safely mint a new NFT.",
        "params": {
          "to": "The address that will own the minted NFT.",
          "uri": "The URI consists of metadata description of the minting NFT on the IPFS (without prefix)."
        }
      },
      "safeTransferFrom(address,address,uint256)": {
        "details": "See {IERC721-safeTransferFrom}."
      },
      "safeTransferFrom(address,address,uint256,bytes)": {
        "details": "See {IERC721-safeTransferFrom}."
      },
      "setApprovalForAll(address,bool)": {
        "details": "See {IERC721-setApprovalForAll}."
      },
      "setBaseURI(string)": {
        "details": "Sets new value for the `__baseURI`. This operation can only been done by the owner of this contract."
      },
      "supportsInterface(bytes4)": {
        "details": "See {IERC165-supportsInterface}."
      },
      "symbol()": {
        "details": "See {IERC721Metadata-symbol}."
      },
      "tokenByIndex(uint256)": {
        "details": "See {IERC721Enumerable-tokenByIndex}."
      },
      "tokenOfOwnerByIndex(address,uint256)": {
        "details": "See {IERC721Enumerable-tokenOfOwnerByIndex}."
      },
      "tokenURI(uint256)": {
        "details": "See {IERC721Metadata-tokenURI}."
      },
      "totalSupply()": {
        "details": "See {IERC721Enumerable-totalSupply}."
      },
      "transferFrom(address,address,uint256)": {
        "details": "See {IERC721-transferFrom}."
      },
      "transferOwnership(address)": {
        "details": "Transfers ownership of the contract to a new account (`newOwner`). Can only be called by the current owner."
      }
    },
    "version": 1
  },
  "userdoc": {
    "kind": "user",
    "methods": {
      "mint(address,string)": {
        "notice": "It throws an exception if    - `to` is a \"ZERO_ADDRESS."
      },
      "safeMint(address,string)": {
        "notice": "It throws an exception if    - `to` is a \"ZERO_ADDRESS.    - If `to` refers to a smart contract, it must implement {IERC721Receiver-onERC721Received}, which is called upon a safe transfer."
      }
    },
    "version": 1
  }
}